{
	"contracts/Products.sol": {
		"Shop": {
			"abi": [
				{
					"inputs": [
						{
							"internalType": "string",
							"name": "name",
							"type": "string"
						},
						{
							"internalType": "uint256",
							"name": "price",
							"type": "uint256"
						}
					],
					"name": "addProduct",
					"outputs": [],
					"stateMutability": "nonpayable",
					"type": "function"
				},
				{
					"inputs": [
						{
							"internalType": "uint256",
							"name": "productId",
							"type": "uint256"
						}
					],
					"name": "buyProduct",
					"outputs": [],
					"stateMutability": "payable",
					"type": "function"
				},
				{
					"inputs": [],
					"name": "getProducts",
					"outputs": [
						{
							"components": [
								{
									"internalType": "string",
									"name": "name",
									"type": "string"
								},
								{
									"internalType": "uint256",
									"name": "price",
									"type": "uint256"
								}
							],
							"internalType": "struct Shop.Product[]",
							"name": "",
							"type": "tuple[]"
						}
					],
					"stateMutability": "view",
					"type": "function"
				}
			],
			"devdoc": {
				"kind": "dev",
				"methods": {},
				"version": 1
			},
			"evm": {
				"assembly": "    /* \"contracts/Products.sol\":60:908  contract Shop {... */\n  mstore(0x40, 0x80)\n  callvalue\n  dup1\n  iszero\n  tag_1\n  jumpi\n  0x00\n  dup1\n  revert\ntag_1:\n  pop\n  dataSize(sub_0)\n  dup1\n  dataOffset(sub_0)\n  0x00\n  codecopy\n  0x00\n  return\nstop\n\nsub_0: assembly {\n        /* \"contracts/Products.sol\":60:908  contract Shop {... */\n      mstore(0x40, 0x80)\n      jumpi(tag_1, lt(calldatasize, 0x04))\n      shr(0xe0, calldataload(0x00))\n      dup1\n      0x8642269e\n      eq\n      tag_2\n      jumpi\n      dup1\n      0xb15247d9\n      eq\n      tag_3\n      jumpi\n      dup1\n      0xc29b2f20\n      eq\n      tag_4\n      jumpi\n    tag_1:\n      0x00\n      dup1\n      revert\n        /* \"contracts/Products.sol\":398:799  function buyProduct(uint256 productId) public payable {... */\n    tag_2:\n      tag_5\n      0x04\n      dup1\n      calldatasize\n      sub\n      dup2\n      add\n      swap1\n      tag_6\n      swap2\n      swap1\n      tag_7\n      jump\t// in\n    tag_6:\n      tag_8\n      jump\t// in\n    tag_5:\n      stop\n        /* \"contracts/Products.sol\":207:388  function addProduct(string memory name, uint256 price) public {... */\n    tag_3:\n      callvalue\n      dup1\n      iszero\n      tag_9\n      jumpi\n      0x00\n      dup1\n      revert\n    tag_9:\n      pop\n      tag_10\n      0x04\n      dup1\n      calldatasize\n      sub\n      dup2\n      add\n      swap1\n      tag_11\n      swap2\n      swap1\n      tag_12\n      jump\t// in\n    tag_11:\n      tag_13\n      jump\t// in\n    tag_10:\n      stop\n        /* \"contracts/Products.sol\":809:905  function getProducts() public view returns (Product[] memory) {... */\n    tag_4:\n      callvalue\n      dup1\n      iszero\n      tag_14\n      jumpi\n      0x00\n      dup1\n      revert\n    tag_14:\n      pop\n      tag_15\n      tag_16\n      jump\t// in\n    tag_15:\n      mload(0x40)\n      tag_17\n      swap2\n      swap1\n      tag_18\n      jump\t// in\n    tag_17:\n      mload(0x40)\n      dup1\n      swap2\n      sub\n      swap1\n      return\n        /* \"contracts/Products.sol\":398:799  function buyProduct(uint256 productId) public payable {... */\n    tag_8:\n        /* \"contracts/Products.sol\":483:491  products */\n      0x00\n        /* \"contracts/Products.sol\":483:498  products.length */\n      dup1\n      sload\n      swap1\n      pop\n        /* \"contracts/Products.sol\":471:480  productId */\n      dup2\n        /* \"contracts/Products.sol\":471:498  productId < products.length */\n      lt\n        /* \"contracts/Products.sol\":463:526  require(productId < products.length, \"Product does not exist.\") */\n      tag_20\n      jumpi\n      mload(0x40)\n      0x08c379a000000000000000000000000000000000000000000000000000000000\n      dup2\n      mstore\n      0x04\n      add\n      tag_21\n      swap1\n      tag_22\n      jump\t// in\n    tag_21:\n      mload(0x40)\n      dup1\n      swap2\n      sub\n      swap1\n      revert\n    tag_20:\n        /* \"contracts/Products.sol\":547:569  Product memory product */\n      0x00\n        /* \"contracts/Products.sol\":572:580  products */\n      dup1\n        /* \"contracts/Products.sol\":581:590  productId */\n      dup3\n        /* \"contracts/Products.sol\":572:591  products[productId] */\n      dup2\n      sload\n      dup2\n      lt\n      tag_23\n      jumpi\n      tag_24\n      tag_25\n      jump\t// in\n    tag_24:\n    tag_23:\n      swap1\n      0x00\n      mstore\n      keccak256(0x00, 0x20)\n      swap1\n      0x02\n      mul\n      add\n        /* \"contracts/Products.sol\":547:591  Product memory product = products[productId] */\n      mload(0x40)\n      dup1\n      0x40\n      add\n      0x40\n      mstore\n      swap1\n      dup2\n      0x00\n      dup3\n      add\n      dup1\n      sload\n      tag_27\n      swap1\n      tag_28\n      jump\t// in\n    tag_27:\n      dup1\n      0x1f\n      add\n      0x20\n      dup1\n      swap2\n      div\n      mul\n      0x20\n      add\n      mload(0x40)\n      swap1\n      dup2\n      add\n      0x40\n      mstore\n      dup1\n      swap3\n      swap2\n      swap1\n      dup2\n      dup2\n      mstore\n      0x20\n      add\n      dup3\n      dup1\n      sload\n      tag_29\n      swap1\n      tag_28\n      jump\t// in\n    tag_29:\n      dup1\n      iszero\n      tag_30\n      jumpi\n      dup1\n      0x1f\n      lt\n      tag_31\n      jumpi\n      0x0100\n      dup1\n      dup4\n      sload\n      div\n      mul\n      dup4\n      mstore\n      swap2\n      0x20\n      add\n      swap2\n      jump(tag_30)\n    tag_31:\n      dup3\n      add\n      swap2\n      swap1\n      0x00\n      mstore\n      keccak256(0x00, 0x20)\n      swap1\n    tag_32:\n      dup2\n      sload\n      dup2\n      mstore\n      swap1\n      0x01\n      add\n      swap1\n      0x20\n      add\n      dup1\n      dup4\n      gt\n      tag_32\n      jumpi\n      dup3\n      swap1\n      sub\n      0x1f\n      and\n      dup3\n      add\n      swap2\n    tag_30:\n      pop\n      pop\n      pop\n      pop\n      pop\n      dup2\n      mstore\n      0x20\n      add\n      0x01\n      dup3\n      add\n      sload\n      dup2\n      mstore\n      pop\n      pop\n      swap1\n      pop\n        /* \"contracts/Products.sol\":623:630  product */\n      dup1\n        /* \"contracts/Products.sol\":623:636  product.price */\n      0x20\n      add\n      mload\n        /* \"contracts/Products.sol\":610:619  msg.value */\n      callvalue\n        /* \"contracts/Products.sol\":610:636  msg.value >= product.price */\n      lt\n      iszero\n        /* \"contracts/Products.sol\":602:660  require(msg.value >= product.price, \"Insufficient funds.\") */\n      tag_33\n      jumpi\n      mload(0x40)\n      0x08c379a000000000000000000000000000000000000000000000000000000000\n      dup2\n      mstore\n      0x04\n      add\n      tag_34\n      swap1\n      tag_35\n      jump\t// in\n    tag_34:\n      mload(0x40)\n      dup1\n      swap2\n      sub\n      swap1\n      revert\n    tag_33:\n        /* \"contracts/Products.sol\":691:698  product */\n      dup1\n        /* \"contracts/Products.sol\":691:704  product.price */\n      0x20\n      add\n      mload\n        /* \"contracts/Products.sol\":679:688  msg.value */\n      callvalue\n        /* \"contracts/Products.sol\":679:704  msg.value > product.price */\n      gt\n        /* \"contracts/Products.sol\":675:788  if (msg.value > product.price) {... */\n      iszero\n      tag_36\n      jumpi\n        /* \"contracts/Products.sol\":729:739  msg.sender */\n      caller\n        /* \"contracts/Products.sol\":721:749  payable(msg.sender).transfer */\n      0xffffffffffffffffffffffffffffffffffffffff\n      and\n        /* \"contracts/Products.sol\":721:776  payable(msg.sender).transfer(msg.value - product.price) */\n      0x08fc\n        /* \"contracts/Products.sol\":762:769  product */\n      dup3\n        /* \"contracts/Products.sol\":762:775  product.price */\n      0x20\n      add\n      mload\n        /* \"contracts/Products.sol\":750:759  msg.value */\n      callvalue\n        /* \"contracts/Products.sol\":750:775  msg.value - product.price */\n      tag_37\n      swap2\n      swap1\n      tag_38\n      jump\t// in\n    tag_37:\n        /* \"contracts/Products.sol\":721:776  payable(msg.sender).transfer(msg.value - product.price) */\n      swap1\n      dup2\n      iszero\n      mul\n      swap1\n      mload(0x40)\n      0x00\n      mload(0x40)\n      dup1\n      dup4\n      sub\n      dup2\n      dup6\n      dup9\n      dup9\n      call\n      swap4\n      pop\n      pop\n      pop\n      pop\n      iszero\n      dup1\n      iszero\n      tag_40\n      jumpi\n      returndatasize\n      0x00\n      dup1\n      returndatacopy\n      revert(0x00, returndatasize)\n    tag_40:\n      pop\n        /* \"contracts/Products.sol\":675:788  if (msg.value > product.price) {... */\n    tag_36:\n        /* \"contracts/Products.sol\":452:799  {... */\n      pop\n        /* \"contracts/Products.sol\":398:799  function buyProduct(uint256 productId) public payable {... */\n      pop\n      jump\t// out\n        /* \"contracts/Products.sol\":207:388  function addProduct(string memory name, uint256 price) public {... */\n    tag_13:\n        /* \"contracts/Products.sol\":296:297  0 */\n      0x00\n        /* \"contracts/Products.sol\":288:293  price */\n      dup2\n        /* \"contracts/Products.sol\":288:297  price > 0 */\n      gt\n        /* \"contracts/Products.sol\":280:334  require(price > 0, \"Price must be greater than zero.\") */\n      tag_42\n      jumpi\n      mload(0x40)\n      0x08c379a000000000000000000000000000000000000000000000000000000000\n      dup2\n      mstore\n      0x04\n      add\n      tag_43\n      swap1\n      tag_44\n      jump\t// in\n    tag_43:\n      mload(0x40)\n      dup1\n      swap2\n      sub\n      swap1\n      revert\n    tag_42:\n        /* \"contracts/Products.sol\":345:353  products */\n      0x00\n        /* \"contracts/Products.sol\":359:379  Product(name, price) */\n      mload(0x40)\n      dup1\n      0x40\n      add\n      0x40\n      mstore\n      dup1\n        /* \"contracts/Products.sol\":367:371  name */\n      dup5\n        /* \"contracts/Products.sol\":359:379  Product(name, price) */\n      dup2\n      mstore\n      0x20\n      add\n        /* \"contracts/Products.sol\":373:378  price */\n      dup4\n        /* \"contracts/Products.sol\":359:379  Product(name, price) */\n      dup2\n      mstore\n      pop\n        /* \"contracts/Products.sol\":345:380  products.push(Product(name, price)) */\n      swap1\n      dup1\n      0x01\n      dup2\n      sload\n      add\n      dup1\n      dup3\n      sstore\n      dup1\n      swap2\n      pop\n      pop\n      0x01\n      swap1\n      sub\n      swap1\n      0x00\n      mstore\n      keccak256(0x00, 0x20)\n      swap1\n      0x02\n      mul\n      add\n      0x00\n      swap1\n      swap2\n      swap1\n      swap2\n      swap1\n      swap2\n      pop\n      0x00\n      dup3\n      add\n      mload\n      dup2\n      0x00\n      add\n      swap1\n      dup2\n      tag_46\n      swap2\n      swap1\n      tag_47\n      jump\t// in\n    tag_46:\n      pop\n      0x20\n      dup3\n      add\n      mload\n      dup2\n      0x01\n      add\n      sstore\n      pop\n      pop\n        /* \"contracts/Products.sol\":207:388  function addProduct(string memory name, uint256 price) public {... */\n      pop\n      pop\n      jump\t// out\n        /* \"contracts/Products.sol\":809:905  function getProducts() public view returns (Product[] memory) {... */\n    tag_16:\n        /* \"contracts/Products.sol\":853:869  Product[] memory */\n      0x60\n        /* \"contracts/Products.sol\":889:897  products */\n      0x00\n        /* \"contracts/Products.sol\":882:897  return products */\n      dup1\n      sload\n      dup1\n      0x20\n      mul\n      0x20\n      add\n      mload(0x40)\n      swap1\n      dup2\n      add\n      0x40\n      mstore\n      dup1\n      swap3\n      swap2\n      swap1\n      dup2\n      dup2\n      mstore\n      0x20\n      add\n      0x00\n      swap1\n    tag_49:\n      dup3\n      dup3\n      lt\n      iszero\n      tag_50\n      jumpi\n      dup4\n      dup3\n      swap1\n      0x00\n      mstore\n      keccak256(0x00, 0x20)\n      swap1\n      0x02\n      mul\n      add\n      mload(0x40)\n      dup1\n      0x40\n      add\n      0x40\n      mstore\n      swap1\n      dup2\n      0x00\n      dup3\n      add\n      dup1\n      sload\n      tag_52\n      swap1\n      tag_28\n      jump\t// in\n    tag_52:\n      dup1\n      0x1f\n      add\n      0x20\n      dup1\n      swap2\n      div\n      mul\n      0x20\n      add\n      mload(0x40)\n      swap1\n      dup2\n      add\n      0x40\n      mstore\n      dup1\n      swap3\n      swap2\n      swap1\n      dup2\n      dup2\n      mstore\n      0x20\n      add\n      dup3\n      dup1\n      sload\n      tag_53\n      swap1\n      tag_28\n      jump\t// in\n    tag_53:\n      dup1\n      iszero\n      tag_54\n      jumpi\n      dup1\n      0x1f\n      lt\n      tag_55\n      jumpi\n      0x0100\n      dup1\n      dup4\n      sload\n      div\n      mul\n      dup4\n      mstore\n      swap2\n      0x20\n      add\n      swap2\n      jump(tag_54)\n    tag_55:\n      dup3\n      add\n      swap2\n      swap1\n      0x00\n      mstore\n      keccak256(0x00, 0x20)\n      swap1\n    tag_56:\n      dup2\n      sload\n      dup2\n      mstore\n      swap1\n      0x01\n      add\n      swap1\n      0x20\n      add\n      dup1\n      dup4\n      gt\n      tag_56\n      jumpi\n      dup3\n      swap1\n      sub\n      0x1f\n      and\n      dup3\n      add\n      swap2\n    tag_54:\n      pop\n      pop\n      pop\n      pop\n      pop\n      dup2\n      mstore\n      0x20\n      add\n      0x01\n      dup3\n      add\n      sload\n      dup2\n      mstore\n      pop\n      pop\n      dup2\n      mstore\n      0x20\n      add\n      swap1\n      0x01\n      add\n      swap1\n      jump(tag_49)\n    tag_50:\n      pop\n      pop\n      pop\n      pop\n      swap1\n      pop\n        /* \"contracts/Products.sol\":809:905  function getProducts() public view returns (Product[] memory) {... */\n      swap1\n      jump\t// out\n        /* \"#utility.yul\":7:82   */\n    tag_57:\n        /* \"#utility.yul\":40:46   */\n      0x00\n        /* \"#utility.yul\":73:75   */\n      0x40\n        /* \"#utility.yul\":67:76   */\n      mload\n        /* \"#utility.yul\":57:76   */\n      swap1\n      pop\n        /* \"#utility.yul\":7:82   */\n      swap1\n      jump\t// out\n        /* \"#utility.yul\":88:205   */\n    tag_58:\n        /* \"#utility.yul\":197:198   */\n      0x00\n        /* \"#utility.yul\":194:195   */\n      dup1\n        /* \"#utility.yul\":187:199   */\n      revert\n        /* \"#utility.yul\":211:328   */\n    tag_59:\n        /* \"#utility.yul\":320:321   */\n      0x00\n        /* \"#utility.yul\":317:318   */\n      dup1\n        /* \"#utility.yul\":310:322   */\n      revert\n        /* \"#utility.yul\":334:411   */\n    tag_60:\n        /* \"#utility.yul\":371:378   */\n      0x00\n        /* \"#utility.yul\":400:405   */\n      dup2\n        /* \"#utility.yul\":389:405   */\n      swap1\n      pop\n        /* \"#utility.yul\":334:411   */\n      swap2\n      swap1\n      pop\n      jump\t// out\n        /* \"#utility.yul\":417:539   */\n    tag_61:\n        /* \"#utility.yul\":490:514   */\n      tag_115\n        /* \"#utility.yul\":508:513   */\n      dup2\n        /* \"#utility.yul\":490:514   */\n      tag_60\n      jump\t// in\n    tag_115:\n        /* \"#utility.yul\":483:488   */\n      dup2\n        /* \"#utility.yul\":480:515   */\n      eq\n        /* \"#utility.yul\":470:533   */\n      tag_116\n      jumpi\n        /* \"#utility.yul\":529:530   */\n      0x00\n        /* \"#utility.yul\":526:527   */\n      dup1\n        /* \"#utility.yul\":519:531   */\n      revert\n        /* \"#utility.yul\":470:533   */\n    tag_116:\n        /* \"#utility.yul\":417:539   */\n      pop\n      jump\t// out\n        /* \"#utility.yul\":545:684   */\n    tag_62:\n        /* \"#utility.yul\":591:596   */\n      0x00\n        /* \"#utility.yul\":629:635   */\n      dup2\n        /* \"#utility.yul\":616:636   */\n      calldataload\n        /* \"#utility.yul\":607:636   */\n      swap1\n      pop\n        /* \"#utility.yul\":645:678   */\n      tag_118\n        /* \"#utility.yul\":672:677   */\n      dup2\n        /* \"#utility.yul\":645:678   */\n      tag_61\n      jump\t// in\n    tag_118:\n        /* \"#utility.yul\":545:684   */\n      swap3\n      swap2\n      pop\n      pop\n      jump\t// out\n        /* \"#utility.yul\":690:1019   */\n    tag_7:\n        /* \"#utility.yul\":749:755   */\n      0x00\n        /* \"#utility.yul\":798:800   */\n      0x20\n        /* \"#utility.yul\":786:795   */\n      dup3\n        /* \"#utility.yul\":777:784   */\n      dup5\n        /* \"#utility.yul\":773:796   */\n      sub\n        /* \"#utility.yul\":769:801   */\n      slt\n        /* \"#utility.yul\":766:885   */\n      iszero\n      tag_120\n      jumpi\n        /* \"#utility.yul\":804:883   */\n      tag_121\n      tag_58\n      jump\t// in\n    tag_121:\n        /* \"#utility.yul\":766:885   */\n    tag_120:\n        /* \"#utility.yul\":924:925   */\n      0x00\n        /* \"#utility.yul\":949:1002   */\n      tag_122\n        /* \"#utility.yul\":994:1001   */\n      dup5\n        /* \"#utility.yul\":985:991   */\n      dup3\n        /* \"#utility.yul\":974:983   */\n      dup6\n        /* \"#utility.yul\":970:992   */\n      add\n        /* \"#utility.yul\":949:1002   */\n      tag_62\n      jump\t// in\n    tag_122:\n        /* \"#utility.yul\":939:1002   */\n      swap2\n      pop\n        /* \"#utility.yul\":895:1012   */\n      pop\n        /* \"#utility.yul\":690:1019   */\n      swap3\n      swap2\n      pop\n      pop\n      jump\t// out\n        /* \"#utility.yul\":1025:1142   */\n    tag_63:\n        /* \"#utility.yul\":1134:1135   */\n      0x00\n        /* \"#utility.yul\":1131:1132   */\n      dup1\n        /* \"#utility.yul\":1124:1136   */\n      revert\n        /* \"#utility.yul\":1148:1265   */\n    tag_64:\n        /* \"#utility.yul\":1257:1258   */\n      0x00\n        /* \"#utility.yul\":1254:1255   */\n      dup1\n        /* \"#utility.yul\":1247:1259   */\n      revert\n        /* \"#utility.yul\":1271:1373   */\n    tag_65:\n        /* \"#utility.yul\":1312:1318   */\n      0x00\n        /* \"#utility.yul\":1363:1365   */\n      0x1f\n        /* \"#utility.yul\":1359:1366   */\n      not\n        /* \"#utility.yul\":1354:1356   */\n      0x1f\n        /* \"#utility.yul\":1347:1352   */\n      dup4\n        /* \"#utility.yul\":1343:1357   */\n      add\n        /* \"#utility.yul\":1339:1367   */\n      and\n        /* \"#utility.yul\":1329:1367   */\n      swap1\n      pop\n        /* \"#utility.yul\":1271:1373   */\n      swap2\n      swap1\n      pop\n      jump\t// out\n        /* \"#utility.yul\":1379:1559   */\n    tag_66:\n        /* \"#utility.yul\":1427:1504   */\n      0x4e487b7100000000000000000000000000000000000000000000000000000000\n        /* \"#utility.yul\":1424:1425   */\n      0x00\n        /* \"#utility.yul\":1417:1505   */\n      mstore\n        /* \"#utility.yul\":1524:1528   */\n      0x41\n        /* \"#utility.yul\":1521:1522   */\n      0x04\n        /* \"#utility.yul\":1514:1529   */\n      mstore\n        /* \"#utility.yul\":1548:1552   */\n      0x24\n        /* \"#utility.yul\":1545:1546   */\n      0x00\n        /* \"#utility.yul\":1538:1553   */\n      revert\n        /* \"#utility.yul\":1565:1846   */\n    tag_67:\n        /* \"#utility.yul\":1648:1675   */\n      tag_128\n        /* \"#utility.yul\":1670:1674   */\n      dup3\n        /* \"#utility.yul\":1648:1675   */\n      tag_65\n      jump\t// in\n    tag_128:\n        /* \"#utility.yul\":1640:1646   */\n      dup2\n        /* \"#utility.yul\":1636:1676   */\n      add\n        /* \"#utility.yul\":1778:1784   */\n      dup2\n        /* \"#utility.yul\":1766:1776   */\n      dup2\n        /* \"#utility.yul\":1763:1785   */\n      lt\n        /* \"#utility.yul\":1742:1760   */\n      0xffffffffffffffff\n        /* \"#utility.yul\":1730:1740   */\n      dup3\n        /* \"#utility.yul\":1727:1761   */\n      gt\n        /* \"#utility.yul\":1724:1786   */\n      or\n        /* \"#utility.yul\":1721:1809   */\n      iszero\n      tag_129\n      jumpi\n        /* \"#utility.yul\":1789:1807   */\n      tag_130\n      tag_66\n      jump\t// in\n    tag_130:\n        /* \"#utility.yul\":1721:1809   */\n    tag_129:\n        /* \"#utility.yul\":1829:1839   */\n      dup1\n        /* \"#utility.yul\":1825:1827   */\n      0x40\n        /* \"#utility.yul\":1818:1840   */\n      mstore\n        /* \"#utility.yul\":1608:1846   */\n      pop\n        /* \"#utility.yul\":1565:1846   */\n      pop\n      pop\n      jump\t// out\n        /* \"#utility.yul\":1852:1981   */\n    tag_68:\n        /* \"#utility.yul\":1886:1892   */\n      0x00\n        /* \"#utility.yul\":1913:1933   */\n      tag_132\n      tag_57\n      jump\t// in\n    tag_132:\n        /* \"#utility.yul\":1903:1933   */\n      swap1\n      pop\n        /* \"#utility.yul\":1942:1975   */\n      tag_133\n        /* \"#utility.yul\":1970:1974   */\n      dup3\n        /* \"#utility.yul\":1962:1968   */\n      dup3\n        /* \"#utility.yul\":1942:1975   */\n      tag_67\n      jump\t// in\n    tag_133:\n        /* \"#utility.yul\":1852:1981   */\n      swap2\n      swap1\n      pop\n      jump\t// out\n        /* \"#utility.yul\":1987:2295   */\n    tag_69:\n        /* \"#utility.yul\":2049:2053   */\n      0x00\n        /* \"#utility.yul\":2139:2157   */\n      0xffffffffffffffff\n        /* \"#utility.yul\":2131:2137   */\n      dup3\n        /* \"#utility.yul\":2128:2158   */\n      gt\n        /* \"#utility.yul\":2125:2181   */\n      iszero\n      tag_135\n      jumpi\n        /* \"#utility.yul\":2161:2179   */\n      tag_136\n      tag_66\n      jump\t// in\n    tag_136:\n        /* \"#utility.yul\":2125:2181   */\n    tag_135:\n        /* \"#utility.yul\":2199:2228   */\n      tag_137\n        /* \"#utility.yul\":2221:2227   */\n      dup3\n        /* \"#utility.yul\":2199:2228   */\n      tag_65\n      jump\t// in\n    tag_137:\n        /* \"#utility.yul\":2191:2228   */\n      swap1\n      pop\n        /* \"#utility.yul\":2283:2287   */\n      0x20\n        /* \"#utility.yul\":2277:2281   */\n      dup2\n        /* \"#utility.yul\":2273:2288   */\n      add\n        /* \"#utility.yul\":2265:2288   */\n      swap1\n      pop\n        /* \"#utility.yul\":1987:2295   */\n      swap2\n      swap1\n      pop\n      jump\t// out\n        /* \"#utility.yul\":2301:2449   */\n    tag_70:\n        /* \"#utility.yul\":2399:2405   */\n      dup3\n        /* \"#utility.yul\":2394:2397   */\n      dup2\n        /* \"#utility.yul\":2389:2392   */\n      dup4\n        /* \"#utility.yul\":2376:2406   */\n      calldatacopy\n        /* \"#utility.yul\":2440:2441   */\n      0x00\n        /* \"#utility.yul\":2431:2437   */\n      dup4\n        /* \"#utility.yul\":2426:2429   */\n      dup4\n        /* \"#utility.yul\":2422:2438   */\n      add\n        /* \"#utility.yul\":2415:2442   */\n      mstore\n        /* \"#utility.yul\":2301:2449   */\n      pop\n      pop\n      pop\n      jump\t// out\n        /* \"#utility.yul\":2455:2880   */\n    tag_71:\n        /* \"#utility.yul\":2533:2538   */\n      0x00\n        /* \"#utility.yul\":2558:2624   */\n      tag_140\n        /* \"#utility.yul\":2574:2623   */\n      tag_141\n        /* \"#utility.yul\":2616:2622   */\n      dup5\n        /* \"#utility.yul\":2574:2623   */\n      tag_69\n      jump\t// in\n    tag_141:\n        /* \"#utility.yul\":2558:2624   */\n      tag_68\n      jump\t// in\n    tag_140:\n        /* \"#utility.yul\":2549:2624   */\n      swap1\n      pop\n        /* \"#utility.yul\":2647:2653   */\n      dup3\n        /* \"#utility.yul\":2640:2645   */\n      dup2\n        /* \"#utility.yul\":2633:2654   */\n      mstore\n        /* \"#utility.yul\":2685:2689   */\n      0x20\n        /* \"#utility.yul\":2678:2683   */\n      dup2\n        /* \"#utility.yul\":2674:2690   */\n      add\n        /* \"#utility.yul\":2723:2726   */\n      dup5\n        /* \"#utility.yul\":2714:2720   */\n      dup5\n        /* \"#utility.yul\":2709:2712   */\n      dup5\n        /* \"#utility.yul\":2705:2721   */\n      add\n        /* \"#utility.yul\":2702:2727   */\n      gt\n        /* \"#utility.yul\":2699:2811   */\n      iszero\n      tag_142\n      jumpi\n        /* \"#utility.yul\":2730:2809   */\n      tag_143\n      tag_64\n      jump\t// in\n    tag_143:\n        /* \"#utility.yul\":2699:2811   */\n    tag_142:\n        /* \"#utility.yul\":2820:2874   */\n      tag_144\n        /* \"#utility.yul\":2867:2873   */\n      dup5\n        /* \"#utility.yul\":2862:2865   */\n      dup3\n        /* \"#utility.yul\":2857:2860   */\n      dup6\n        /* \"#utility.yul\":2820:2874   */\n      tag_70\n      jump\t// in\n    tag_144:\n        /* \"#utility.yul\":2539:2880   */\n      pop\n        /* \"#utility.yul\":2455:2880   */\n      swap4\n      swap3\n      pop\n      pop\n      pop\n      jump\t// out\n        /* \"#utility.yul\":2900:3240   */\n    tag_72:\n        /* \"#utility.yul\":2956:2961   */\n      0x00\n        /* \"#utility.yul\":3005:3008   */\n      dup3\n        /* \"#utility.yul\":2998:3002   */\n      0x1f\n        /* \"#utility.yul\":2990:2996   */\n      dup4\n        /* \"#utility.yul\":2986:3003   */\n      add\n        /* \"#utility.yul\":2982:3009   */\n      slt\n        /* \"#utility.yul\":2972:3094   */\n      tag_146\n      jumpi\n        /* \"#utility.yul\":3013:3092   */\n      tag_147\n      tag_63\n      jump\t// in\n    tag_147:\n        /* \"#utility.yul\":2972:3094   */\n    tag_146:\n        /* \"#utility.yul\":3130:3136   */\n      dup2\n        /* \"#utility.yul\":3117:3137   */\n      calldataload\n        /* \"#utility.yul\":3155:3234   */\n      tag_148\n        /* \"#utility.yul\":3230:3233   */\n      dup5\n        /* \"#utility.yul\":3222:3228   */\n      dup3\n        /* \"#utility.yul\":3215:3219   */\n      0x20\n        /* \"#utility.yul\":3207:3213   */\n      dup7\n        /* \"#utility.yul\":3203:3220   */\n      add\n        /* \"#utility.yul\":3155:3234   */\n      tag_71\n      jump\t// in\n    tag_148:\n        /* \"#utility.yul\":3146:3234   */\n      swap2\n      pop\n        /* \"#utility.yul\":2962:3240   */\n      pop\n        /* \"#utility.yul\":2900:3240   */\n      swap3\n      swap2\n      pop\n      pop\n      jump\t// out\n        /* \"#utility.yul\":3246:3900   */\n    tag_12:\n        /* \"#utility.yul\":3324:3330   */\n      0x00\n        /* \"#utility.yul\":3332:3338   */\n      dup1\n        /* \"#utility.yul\":3381:3383   */\n      0x40\n        /* \"#utility.yul\":3369:3378   */\n      dup4\n        /* \"#utility.yul\":3360:3367   */\n      dup6\n        /* \"#utility.yul\":3356:3379   */\n      sub\n        /* \"#utility.yul\":3352:3384   */\n      slt\n        /* \"#utility.yul\":3349:3468   */\n      iszero\n      tag_150\n      jumpi\n        /* \"#utility.yul\":3387:3466   */\n      tag_151\n      tag_58\n      jump\t// in\n    tag_151:\n        /* \"#utility.yul\":3349:3468   */\n    tag_150:\n        /* \"#utility.yul\":3535:3536   */\n      0x00\n        /* \"#utility.yul\":3524:3533   */\n      dup4\n        /* \"#utility.yul\":3520:3537   */\n      add\n        /* \"#utility.yul\":3507:3538   */\n      calldataload\n        /* \"#utility.yul\":3565:3583   */\n      0xffffffffffffffff\n        /* \"#utility.yul\":3557:3563   */\n      dup2\n        /* \"#utility.yul\":3554:3584   */\n      gt\n        /* \"#utility.yul\":3551:3668   */\n      iszero\n      tag_152\n      jumpi\n        /* \"#utility.yul\":3587:3666   */\n      tag_153\n      tag_59\n      jump\t// in\n    tag_153:\n        /* \"#utility.yul\":3551:3668   */\n    tag_152:\n        /* \"#utility.yul\":3692:3755   */\n      tag_154\n        /* \"#utility.yul\":3747:3754   */\n      dup6\n        /* \"#utility.yul\":3738:3744   */\n      dup3\n        /* \"#utility.yul\":3727:3736   */\n      dup7\n        /* \"#utility.yul\":3723:3745   */\n      add\n        /* \"#utility.yul\":3692:3755   */\n      tag_72\n      jump\t// in\n    tag_154:\n        /* \"#utility.yul\":3682:3755   */\n      swap3\n      pop\n        /* \"#utility.yul\":3478:3765   */\n      pop\n        /* \"#utility.yul\":3804:3806   */\n      0x20\n        /* \"#utility.yul\":3830:3883   */\n      tag_155\n        /* \"#utility.yul\":3875:3882   */\n      dup6\n        /* \"#utility.yul\":3866:3872   */\n      dup3\n        /* \"#utility.yul\":3855:3864   */\n      dup7\n        /* \"#utility.yul\":3851:3873   */\n      add\n        /* \"#utility.yul\":3830:3883   */\n      tag_62\n      jump\t// in\n    tag_155:\n        /* \"#utility.yul\":3820:3883   */\n      swap2\n      pop\n        /* \"#utility.yul\":3775:3893   */\n      pop\n        /* \"#utility.yul\":3246:3900   */\n      swap3\n      pop\n      swap3\n      swap1\n      pop\n      jump\t// out\n        /* \"#utility.yul\":3906:4042   */\n    tag_73:\n        /* \"#utility.yul\":3995:4001   */\n      0x00\n        /* \"#utility.yul\":4029:4034   */\n      dup2\n        /* \"#utility.yul\":4023:4035   */\n      mload\n        /* \"#utility.yul\":4013:4035   */\n      swap1\n      pop\n        /* \"#utility.yul\":3906:4042   */\n      swap2\n      swap1\n      pop\n      jump\t// out\n        /* \"#utility.yul\":4048:4254   */\n    tag_74:\n        /* \"#utility.yul\":4169:4180   */\n      0x00\n        /* \"#utility.yul\":4203:4209   */\n      dup3\n        /* \"#utility.yul\":4198:4201   */\n      dup3\n        /* \"#utility.yul\":4191:4210   */\n      mstore\n        /* \"#utility.yul\":4243:4247   */\n      0x20\n        /* \"#utility.yul\":4238:4241   */\n      dup3\n        /* \"#utility.yul\":4234:4248   */\n      add\n        /* \"#utility.yul\":4219:4248   */\n      swap1\n      pop\n        /* \"#utility.yul\":4048:4254   */\n      swap3\n      swap2\n      pop\n      pop\n      jump\t// out\n        /* \"#utility.yul\":4260:4414   */\n    tag_75:\n        /* \"#utility.yul\":4349:4353   */\n      0x00\n        /* \"#utility.yul\":4372:4375   */\n      dup2\n        /* \"#utility.yul\":4364:4375   */\n      swap1\n      pop\n        /* \"#utility.yul\":4402:4406   */\n      0x20\n        /* \"#utility.yul\":4397:4400   */\n      dup3\n        /* \"#utility.yul\":4393:4407   */\n      add\n        /* \"#utility.yul\":4385:4407   */\n      swap1\n      pop\n        /* \"#utility.yul\":4260:4414   */\n      swap2\n      swap1\n      pop\n      jump\t// out\n        /* \"#utility.yul\":4420:4519   */\n    tag_76:\n        /* \"#utility.yul\":4472:4478   */\n      0x00\n        /* \"#utility.yul\":4506:4511   */\n      dup2\n        /* \"#utility.yul\":4500:4512   */\n      mload\n        /* \"#utility.yul\":4490:4512   */\n      swap1\n      pop\n        /* \"#utility.yul\":4420:4519   */\n      swap2\n      swap1\n      pop\n      jump\t// out\n        /* \"#utility.yul\":4525:4684   */\n    tag_77:\n        /* \"#utility.yul\":4599:4610   */\n      0x00\n        /* \"#utility.yul\":4633:4639   */\n      dup3\n        /* \"#utility.yul\":4628:4631   */\n      dup3\n        /* \"#utility.yul\":4621:4640   */\n      mstore\n        /* \"#utility.yul\":4673:4677   */\n      0x20\n        /* \"#utility.yul\":4668:4671   */\n      dup3\n        /* \"#utility.yul\":4664:4678   */\n      add\n        /* \"#utility.yul\":4649:4678   */\n      swap1\n      pop\n        /* \"#utility.yul\":4525:4684   */\n      swap3\n      swap2\n      pop\n      pop\n      jump\t// out\n        /* \"#utility.yul\":4690:4829   */\n    tag_78:\n        /* \"#utility.yul\":4779:4785   */\n      dup3\n        /* \"#utility.yul\":4774:4777   */\n      dup2\n        /* \"#utility.yul\":4769:4772   */\n      dup4\n        /* \"#utility.yul\":4763:4786   */\n      mcopy\n        /* \"#utility.yul\":4820:4821   */\n      0x00\n        /* \"#utility.yul\":4811:4817   */\n      dup4\n        /* \"#utility.yul\":4806:4809   */\n      dup4\n        /* \"#utility.yul\":4802:4818   */\n      add\n        /* \"#utility.yul\":4795:4822   */\n      mstore\n        /* \"#utility.yul\":4690:4829   */\n      pop\n      pop\n      pop\n      jump\t// out\n        /* \"#utility.yul\":4835:5192   */\n    tag_79:\n        /* \"#utility.yul\":4913:4916   */\n      0x00\n        /* \"#utility.yul\":4941:4980   */\n      tag_163\n        /* \"#utility.yul\":4974:4979   */\n      dup3\n        /* \"#utility.yul\":4941:4980   */\n      tag_76\n      jump\t// in\n    tag_163:\n        /* \"#utility.yul\":4996:5057   */\n      tag_164\n        /* \"#utility.yul\":5050:5056   */\n      dup2\n        /* \"#utility.yul\":5045:5048   */\n      dup6\n        /* \"#utility.yul\":4996:5057   */\n      tag_77\n      jump\t// in\n    tag_164:\n        /* \"#utility.yul\":4989:5057   */\n      swap4\n      pop\n        /* \"#utility.yul\":5066:5131   */\n      tag_165\n        /* \"#utility.yul\":5124:5130   */\n      dup2\n        /* \"#utility.yul\":5119:5122   */\n      dup6\n        /* \"#utility.yul\":5112:5116   */\n      0x20\n        /* \"#utility.yul\":5105:5110   */\n      dup7\n        /* \"#utility.yul\":5101:5117   */\n      add\n        /* \"#utility.yul\":5066:5131   */\n      tag_78\n      jump\t// in\n    tag_165:\n        /* \"#utility.yul\":5156:5185   */\n      tag_166\n        /* \"#utility.yul\":5178:5184   */\n      dup2\n        /* \"#utility.yul\":5156:5185   */\n      tag_65\n      jump\t// in\n    tag_166:\n        /* \"#utility.yul\":5151:5154   */\n      dup5\n        /* \"#utility.yul\":5147:5186   */\n      add\n        /* \"#utility.yul\":5140:5186   */\n      swap2\n      pop\n        /* \"#utility.yul\":4917:5192   */\n      pop\n        /* \"#utility.yul\":4835:5192   */\n      swap3\n      swap2\n      pop\n      pop\n      jump\t// out\n        /* \"#utility.yul\":5198:5306   */\n    tag_80:\n        /* \"#utility.yul\":5275:5299   */\n      tag_168\n        /* \"#utility.yul\":5293:5298   */\n      dup2\n        /* \"#utility.yul\":5275:5299   */\n      tag_60\n      jump\t// in\n    tag_168:\n        /* \"#utility.yul\":5270:5273   */\n      dup3\n        /* \"#utility.yul\":5263:5300   */\n      mstore\n        /* \"#utility.yul\":5198:5306   */\n      pop\n      pop\n      jump\t// out\n        /* \"#utility.yul\":5362:5953   */\n    tag_81:\n        /* \"#utility.yul\":5465:5468   */\n      0x00\n        /* \"#utility.yul\":5501:5505   */\n      0x40\n        /* \"#utility.yul\":5496:5499   */\n      dup4\n        /* \"#utility.yul\":5492:5506   */\n      add\n        /* \"#utility.yul\":5588:5592   */\n      0x00\n        /* \"#utility.yul\":5581:5586   */\n      dup4\n        /* \"#utility.yul\":5577:5593   */\n      add\n        /* \"#utility.yul\":5571:5594   */\n      mload\n        /* \"#utility.yul\":5641:5644   */\n      dup5\n        /* \"#utility.yul\":5635:5639   */\n      dup3\n        /* \"#utility.yul\":5631:5645   */\n      sub\n        /* \"#utility.yul\":5624:5628   */\n      0x00\n        /* \"#utility.yul\":5619:5622   */\n      dup7\n        /* \"#utility.yul\":5615:5629   */\n      add\n        /* \"#utility.yul\":5608:5646   */\n      mstore\n        /* \"#utility.yul\":5667:5740   */\n      tag_170\n        /* \"#utility.yul\":5735:5739   */\n      dup3\n        /* \"#utility.yul\":5721:5733   */\n      dup3\n        /* \"#utility.yul\":5667:5740   */\n      tag_79\n      jump\t// in\n    tag_170:\n        /* \"#utility.yul\":5659:5740   */\n      swap2\n      pop\n        /* \"#utility.yul\":5516:5751   */\n      pop\n        /* \"#utility.yul\":5834:5838   */\n      0x20\n        /* \"#utility.yul\":5827:5832   */\n      dup4\n        /* \"#utility.yul\":5823:5839   */\n      add\n        /* \"#utility.yul\":5817:5840   */\n      mload\n        /* \"#utility.yul\":5853:5916   */\n      tag_171\n        /* \"#utility.yul\":5910:5914   */\n      0x20\n        /* \"#utility.yul\":5905:5908   */\n      dup7\n        /* \"#utility.yul\":5901:5915   */\n      add\n        /* \"#utility.yul\":5887:5899   */\n      dup3\n        /* \"#utility.yul\":5853:5916   */\n      tag_80\n      jump\t// in\n    tag_171:\n        /* \"#utility.yul\":5761:5926   */\n      pop\n        /* \"#utility.yul\":5943:5947   */\n      dup1\n        /* \"#utility.yul\":5936:5947   */\n      swap2\n      pop\n        /* \"#utility.yul\":5470:5953   */\n      pop\n        /* \"#utility.yul\":5362:5953   */\n      swap3\n      swap2\n      pop\n      pop\n      jump\t// out\n        /* \"#utility.yul\":5959:6203   */\n    tag_82:\n        /* \"#utility.yul\":6072:6082   */\n      0x00\n        /* \"#utility.yul\":6107:6197   */\n      tag_173\n        /* \"#utility.yul\":6193:6196   */\n      dup4\n        /* \"#utility.yul\":6185:6191   */\n      dup4\n        /* \"#utility.yul\":6107:6197   */\n      tag_81\n      jump\t// in\n    tag_173:\n        /* \"#utility.yul\":6093:6197   */\n      swap1\n      pop\n        /* \"#utility.yul\":5959:6203   */\n      swap3\n      swap2\n      pop\n      pop\n      jump\t// out\n        /* \"#utility.yul\":6209:6344   */\n    tag_83:\n        /* \"#utility.yul\":6301:6305   */\n      0x00\n        /* \"#utility.yul\":6333:6337   */\n      0x20\n        /* \"#utility.yul\":6328:6331   */\n      dup3\n        /* \"#utility.yul\":6324:6338   */\n      add\n        /* \"#utility.yul\":6316:6338   */\n      swap1\n      pop\n        /* \"#utility.yul\":6209:6344   */\n      swap2\n      swap1\n      pop\n      jump\t// out\n        /* \"#utility.yul\":6404:7491   */\n    tag_84:\n        /* \"#utility.yul\":6567:6570   */\n      0x00\n        /* \"#utility.yul\":6596:6672   */\n      tag_176\n        /* \"#utility.yul\":6666:6671   */\n      dup3\n        /* \"#utility.yul\":6596:6672   */\n      tag_73\n      jump\t// in\n    tag_176:\n        /* \"#utility.yul\":6688:6796   */\n      tag_177\n        /* \"#utility.yul\":6789:6795   */\n      dup2\n        /* \"#utility.yul\":6784:6787   */\n      dup6\n        /* \"#utility.yul\":6688:6796   */\n      tag_74\n      jump\t// in\n    tag_177:\n        /* \"#utility.yul\":6681:6796   */\n      swap4\n      pop\n        /* \"#utility.yul\":6822:6825   */\n      dup4\n        /* \"#utility.yul\":6867:6871   */\n      0x20\n        /* \"#utility.yul\":6859:6865   */\n      dup3\n        /* \"#utility.yul\":6855:6872   */\n      mul\n        /* \"#utility.yul\":6850:6853   */\n      dup6\n        /* \"#utility.yul\":6846:6873   */\n      add\n        /* \"#utility.yul\":6897:6975   */\n      tag_178\n        /* \"#utility.yul\":6969:6974   */\n      dup6\n        /* \"#utility.yul\":6897:6975   */\n      tag_75\n      jump\t// in\n    tag_178:\n        /* \"#utility.yul\":6998:7005   */\n      dup1\n        /* \"#utility.yul\":7029:7030   */\n      0x00\n        /* \"#utility.yul\":7014:7446   */\n    tag_179:\n        /* \"#utility.yul\":7039:7045   */\n      dup6\n        /* \"#utility.yul\":7036:7037   */\n      dup2\n        /* \"#utility.yul\":7033:7046   */\n      lt\n        /* \"#utility.yul\":7014:7446   */\n      iszero\n      tag_181\n      jumpi\n        /* \"#utility.yul\":7110:7119   */\n      dup5\n        /* \"#utility.yul\":7104:7108   */\n      dup5\n        /* \"#utility.yul\":7100:7120   */\n      sub\n        /* \"#utility.yul\":7095:7098   */\n      dup10\n        /* \"#utility.yul\":7088:7121   */\n      mstore\n        /* \"#utility.yul\":7161:7167   */\n      dup2\n        /* \"#utility.yul\":7155:7168   */\n      mload\n        /* \"#utility.yul\":7189:7297   */\n      tag_182\n        /* \"#utility.yul\":7292:7296   */\n      dup6\n        /* \"#utility.yul\":7277:7290   */\n      dup3\n        /* \"#utility.yul\":7189:7297   */\n      tag_82\n      jump\t// in\n    tag_182:\n        /* \"#utility.yul\":7181:7297   */\n      swap5\n      pop\n        /* \"#utility.yul\":7320:7402   */\n      tag_183\n        /* \"#utility.yul\":7395:7401   */\n      dup4\n        /* \"#utility.yul\":7320:7402   */\n      tag_83\n      jump\t// in\n    tag_183:\n        /* \"#utility.yul\":7310:7402   */\n      swap3\n      pop\n        /* \"#utility.yul\":7431:7435   */\n      0x20\n        /* \"#utility.yul\":7426:7429   */\n      dup11\n        /* \"#utility.yul\":7422:7436   */\n      add\n        /* \"#utility.yul\":7415:7436   */\n      swap10\n      pop\n        /* \"#utility.yul\":7074:7446   */\n      pop\n        /* \"#utility.yul\":7061:7062   */\n      0x01\n        /* \"#utility.yul\":7058:7059   */\n      dup2\n        /* \"#utility.yul\":7054:7063   */\n      add\n        /* \"#utility.yul\":7049:7063   */\n      swap1\n      pop\n        /* \"#utility.yul\":7014:7446   */\n      jump(tag_179)\n    tag_181:\n        /* \"#utility.yul\":7018:7032   */\n      pop\n        /* \"#utility.yul\":7462:7466   */\n      dup3\n        /* \"#utility.yul\":7455:7466   */\n      swap8\n      pop\n        /* \"#utility.yul\":7482:7485   */\n      dup8\n        /* \"#utility.yul\":7475:7485   */\n      swap6\n      pop\n        /* \"#utility.yul\":6572:7491   */\n      pop\n      pop\n      pop\n      pop\n      pop\n        /* \"#utility.yul\":6404:7491   */\n      swap3\n      swap2\n      pop\n      pop\n      jump\t// out\n        /* \"#utility.yul\":7497:7958   */\n    tag_18:\n        /* \"#utility.yul\":7684:7688   */\n      0x00\n        /* \"#utility.yul\":7722:7724   */\n      0x20\n        /* \"#utility.yul\":7711:7720   */\n      dup3\n        /* \"#utility.yul\":7707:7725   */\n      add\n        /* \"#utility.yul\":7699:7725   */\n      swap1\n      pop\n        /* \"#utility.yul\":7771:7780   */\n      dup2\n        /* \"#utility.yul\":7765:7769   */\n      dup2\n        /* \"#utility.yul\":7761:7781   */\n      sub\n        /* \"#utility.yul\":7757:7758   */\n      0x00\n        /* \"#utility.yul\":7746:7755   */\n      dup4\n        /* \"#utility.yul\":7742:7759   */\n      add\n        /* \"#utility.yul\":7735:7782   */\n      mstore\n        /* \"#utility.yul\":7799:7951   */\n      tag_185\n        /* \"#utility.yul\":7946:7950   */\n      dup2\n        /* \"#utility.yul\":7937:7943   */\n      dup5\n        /* \"#utility.yul\":7799:7951   */\n      tag_84\n      jump\t// in\n    tag_185:\n        /* \"#utility.yul\":7791:7951   */\n      swap1\n      pop\n        /* \"#utility.yul\":7497:7958   */\n      swap3\n      swap2\n      pop\n      pop\n      jump\t// out\n        /* \"#utility.yul\":7964:8133   */\n    tag_85:\n        /* \"#utility.yul\":8048:8059   */\n      0x00\n        /* \"#utility.yul\":8082:8088   */\n      dup3\n        /* \"#utility.yul\":8077:8080   */\n      dup3\n        /* \"#utility.yul\":8070:8089   */\n      mstore\n        /* \"#utility.yul\":8122:8126   */\n      0x20\n        /* \"#utility.yul\":8117:8120   */\n      dup3\n        /* \"#utility.yul\":8113:8127   */\n      add\n        /* \"#utility.yul\":8098:8127   */\n      swap1\n      pop\n        /* \"#utility.yul\":7964:8133   */\n      swap3\n      swap2\n      pop\n      pop\n      jump\t// out\n        /* \"#utility.yul\":8139:8312   */\n    tag_86:\n        /* \"#utility.yul\":8279:8304   */\n      0x50726f6475637420646f6573206e6f742065786973742e000000000000000000\n        /* \"#utility.yul\":8275:8276   */\n      0x00\n        /* \"#utility.yul\":8267:8273   */\n      dup3\n        /* \"#utility.yul\":8263:8277   */\n      add\n        /* \"#utility.yul\":8256:8305   */\n      mstore\n        /* \"#utility.yul\":8139:8312   */\n      pop\n      jump\t// out\n        /* \"#utility.yul\":8318:8684   */\n    tag_87:\n        /* \"#utility.yul\":8460:8463   */\n      0x00\n        /* \"#utility.yul\":8481:8548   */\n      tag_189\n        /* \"#utility.yul\":8545:8547   */\n      0x17\n        /* \"#utility.yul\":8540:8543   */\n      dup4\n        /* \"#utility.yul\":8481:8548   */\n      tag_85\n      jump\t// in\n    tag_189:\n        /* \"#utility.yul\":8474:8548   */\n      swap2\n      pop\n        /* \"#utility.yul\":8557:8650   */\n      tag_190\n        /* \"#utility.yul\":8646:8649   */\n      dup3\n        /* \"#utility.yul\":8557:8650   */\n      tag_86\n      jump\t// in\n    tag_190:\n        /* \"#utility.yul\":8675:8677   */\n      0x20\n        /* \"#utility.yul\":8670:8673   */\n      dup3\n        /* \"#utility.yul\":8666:8678   */\n      add\n        /* \"#utility.yul\":8659:8678   */\n      swap1\n      pop\n        /* \"#utility.yul\":8318:8684   */\n      swap2\n      swap1\n      pop\n      jump\t// out\n        /* \"#utility.yul\":8690:9109   */\n    tag_22:\n        /* \"#utility.yul\":8856:8860   */\n      0x00\n        /* \"#utility.yul\":8894:8896   */\n      0x20\n        /* \"#utility.yul\":8883:8892   */\n      dup3\n        /* \"#utility.yul\":8879:8897   */\n      add\n        /* \"#utility.yul\":8871:8897   */\n      swap1\n      pop\n        /* \"#utility.yul\":8943:8952   */\n      dup2\n        /* \"#utility.yul\":8937:8941   */\n      dup2\n        /* \"#utility.yul\":8933:8953   */\n      sub\n        /* \"#utility.yul\":8929:8930   */\n      0x00\n        /* \"#utility.yul\":8918:8927   */\n      dup4\n        /* \"#utility.yul\":8914:8931   */\n      add\n        /* \"#utility.yul\":8907:8954   */\n      mstore\n        /* \"#utility.yul\":8971:9102   */\n      tag_192\n        /* \"#utility.yul\":9097:9101   */\n      dup2\n        /* \"#utility.yul\":8971:9102   */\n      tag_87\n      jump\t// in\n    tag_192:\n        /* \"#utility.yul\":8963:9102   */\n      swap1\n      pop\n        /* \"#utility.yul\":8690:9109   */\n      swap2\n      swap1\n      pop\n      jump\t// out\n        /* \"#utility.yul\":9115:9295   */\n    tag_25:\n        /* \"#utility.yul\":9163:9240   */\n      0x4e487b7100000000000000000000000000000000000000000000000000000000\n        /* \"#utility.yul\":9160:9161   */\n      0x00\n        /* \"#utility.yul\":9153:9241   */\n      mstore\n        /* \"#utility.yul\":9260:9264   */\n      0x32\n        /* \"#utility.yul\":9257:9258   */\n      0x04\n        /* \"#utility.yul\":9250:9265   */\n      mstore\n        /* \"#utility.yul\":9284:9288   */\n      0x24\n        /* \"#utility.yul\":9281:9282   */\n      0x00\n        /* \"#utility.yul\":9274:9289   */\n      revert\n        /* \"#utility.yul\":9301:9481   */\n    tag_88:\n        /* \"#utility.yul\":9349:9426   */\n      0x4e487b7100000000000000000000000000000000000000000000000000000000\n        /* \"#utility.yul\":9346:9347   */\n      0x00\n        /* \"#utility.yul\":9339:9427   */\n      mstore\n        /* \"#utility.yul\":9446:9450   */\n      0x22\n        /* \"#utility.yul\":9443:9444   */\n      0x04\n        /* \"#utility.yul\":9436:9451   */\n      mstore\n        /* \"#utility.yul\":9470:9474   */\n      0x24\n        /* \"#utility.yul\":9467:9468   */\n      0x00\n        /* \"#utility.yul\":9460:9475   */\n      revert\n        /* \"#utility.yul\":9487:9807   */\n    tag_28:\n        /* \"#utility.yul\":9531:9537   */\n      0x00\n        /* \"#utility.yul\":9568:9569   */\n      0x02\n        /* \"#utility.yul\":9562:9566   */\n      dup3\n        /* \"#utility.yul\":9558:9570   */\n      div\n        /* \"#utility.yul\":9548:9570   */\n      swap1\n      pop\n        /* \"#utility.yul\":9615:9616   */\n      0x01\n        /* \"#utility.yul\":9609:9613   */\n      dup3\n        /* \"#utility.yul\":9605:9617   */\n      and\n        /* \"#utility.yul\":9636:9654   */\n      dup1\n        /* \"#utility.yul\":9626:9707   */\n      tag_196\n      jumpi\n        /* \"#utility.yul\":9692:9696   */\n      0x7f\n        /* \"#utility.yul\":9684:9690   */\n      dup3\n        /* \"#utility.yul\":9680:9697   */\n      and\n        /* \"#utility.yul\":9670:9697   */\n      swap2\n      pop\n        /* \"#utility.yul\":9626:9707   */\n    tag_196:\n        /* \"#utility.yul\":9754:9756   */\n      0x20\n        /* \"#utility.yul\":9746:9752   */\n      dup3\n        /* \"#utility.yul\":9743:9757   */\n      lt\n        /* \"#utility.yul\":9723:9741   */\n      dup2\n        /* \"#utility.yul\":9720:9758   */\n      sub\n        /* \"#utility.yul\":9717:9801   */\n      tag_197\n      jumpi\n        /* \"#utility.yul\":9773:9791   */\n      tag_198\n      tag_88\n      jump\t// in\n    tag_198:\n        /* \"#utility.yul\":9717:9801   */\n    tag_197:\n        /* \"#utility.yul\":9538:9807   */\n      pop\n        /* \"#utility.yul\":9487:9807   */\n      swap2\n      swap1\n      pop\n      jump\t// out\n        /* \"#utility.yul\":9813:9982   */\n    tag_89:\n        /* \"#utility.yul\":9953:9974   */\n      0x496e73756666696369656e742066756e64732e00000000000000000000000000\n        /* \"#utility.yul\":9949:9950   */\n      0x00\n        /* \"#utility.yul\":9941:9947   */\n      dup3\n        /* \"#utility.yul\":9937:9951   */\n      add\n        /* \"#utility.yul\":9930:9975   */\n      mstore\n        /* \"#utility.yul\":9813:9982   */\n      pop\n      jump\t// out\n        /* \"#utility.yul\":9988:10354   */\n    tag_90:\n        /* \"#utility.yul\":10130:10133   */\n      0x00\n        /* \"#utility.yul\":10151:10218   */\n      tag_201\n        /* \"#utility.yul\":10215:10217   */\n      0x13\n        /* \"#utility.yul\":10210:10213   */\n      dup4\n        /* \"#utility.yul\":10151:10218   */\n      tag_85\n      jump\t// in\n    tag_201:\n        /* \"#utility.yul\":10144:10218   */\n      swap2\n      pop\n        /* \"#utility.yul\":10227:10320   */\n      tag_202\n        /* \"#utility.yul\":10316:10319   */\n      dup3\n        /* \"#utility.yul\":10227:10320   */\n      tag_89\n      jump\t// in\n    tag_202:\n        /* \"#utility.yul\":10345:10347   */\n      0x20\n        /* \"#utility.yul\":10340:10343   */\n      dup3\n        /* \"#utility.yul\":10336:10348   */\n      add\n        /* \"#utility.yul\":10329:10348   */\n      swap1\n      pop\n        /* \"#utility.yul\":9988:10354   */\n      swap2\n      swap1\n      pop\n      jump\t// out\n        /* \"#utility.yul\":10360:10779   */\n    tag_35:\n        /* \"#utility.yul\":10526:10530   */\n      0x00\n        /* \"#utility.yul\":10564:10566   */\n      0x20\n        /* \"#utility.yul\":10553:10562   */\n      dup3\n        /* \"#utility.yul\":10549:10567   */\n      add\n        /* \"#utility.yul\":10541:10567   */\n      swap1\n      pop\n        /* \"#utility.yul\":10613:10622   */\n      dup2\n        /* \"#utility.yul\":10607:10611   */\n      dup2\n        /* \"#utility.yul\":10603:10623   */\n      sub\n        /* \"#utility.yul\":10599:10600   */\n      0x00\n        /* \"#utility.yul\":10588:10597   */\n      dup4\n        /* \"#utility.yul\":10584:10601   */\n      add\n        /* \"#utility.yul\":10577:10624   */\n      mstore\n        /* \"#utility.yul\":10641:10772   */\n      tag_204\n        /* \"#utility.yul\":10767:10771   */\n      dup2\n        /* \"#utility.yul\":10641:10772   */\n      tag_90\n      jump\t// in\n    tag_204:\n        /* \"#utility.yul\":10633:10772   */\n      swap1\n      pop\n        /* \"#utility.yul\":10360:10779   */\n      swap2\n      swap1\n      pop\n      jump\t// out\n        /* \"#utility.yul\":10785:10965   */\n    tag_91:\n        /* \"#utility.yul\":10833:10910   */\n      0x4e487b7100000000000000000000000000000000000000000000000000000000\n        /* \"#utility.yul\":10830:10831   */\n      0x00\n        /* \"#utility.yul\":10823:10911   */\n      mstore\n        /* \"#utility.yul\":10930:10934   */\n      0x11\n        /* \"#utility.yul\":10927:10928   */\n      0x04\n        /* \"#utility.yul\":10920:10935   */\n      mstore\n        /* \"#utility.yul\":10954:10958   */\n      0x24\n        /* \"#utility.yul\":10951:10952   */\n      0x00\n        /* \"#utility.yul\":10944:10959   */\n      revert\n        /* \"#utility.yul\":10971:11165   */\n    tag_38:\n        /* \"#utility.yul\":11011:11015   */\n      0x00\n        /* \"#utility.yul\":11031:11051   */\n      tag_207\n        /* \"#utility.yul\":11049:11050   */\n      dup3\n        /* \"#utility.yul\":11031:11051   */\n      tag_60\n      jump\t// in\n    tag_207:\n        /* \"#utility.yul\":11026:11051   */\n      swap2\n      pop\n        /* \"#utility.yul\":11065:11085   */\n      tag_208\n        /* \"#utility.yul\":11083:11084   */\n      dup4\n        /* \"#utility.yul\":11065:11085   */\n      tag_60\n      jump\t// in\n    tag_208:\n        /* \"#utility.yul\":11060:11085   */\n      swap3\n      pop\n        /* \"#utility.yul\":11109:11110   */\n      dup3\n        /* \"#utility.yul\":11106:11107   */\n      dup3\n        /* \"#utility.yul\":11102:11111   */\n      sub\n        /* \"#utility.yul\":11094:11111   */\n      swap1\n      pop\n        /* \"#utility.yul\":11133:11134   */\n      dup2\n        /* \"#utility.yul\":11127:11131   */\n      dup2\n        /* \"#utility.yul\":11124:11135   */\n      gt\n        /* \"#utility.yul\":11121:11158   */\n      iszero\n      tag_209\n      jumpi\n        /* \"#utility.yul\":11138:11156   */\n      tag_210\n      tag_91\n      jump\t// in\n    tag_210:\n        /* \"#utility.yul\":11121:11158   */\n    tag_209:\n        /* \"#utility.yul\":10971:11165   */\n      swap3\n      swap2\n      pop\n      pop\n      jump\t// out\n        /* \"#utility.yul\":11171:11353   */\n    tag_92:\n        /* \"#utility.yul\":11311:11345   */\n      0x5072696365206d7573742062652067726561746572207468616e207a65726f2e\n        /* \"#utility.yul\":11307:11308   */\n      0x00\n        /* \"#utility.yul\":11299:11305   */\n      dup3\n        /* \"#utility.yul\":11295:11309   */\n      add\n        /* \"#utility.yul\":11288:11346   */\n      mstore\n        /* \"#utility.yul\":11171:11353   */\n      pop\n      jump\t// out\n        /* \"#utility.yul\":11359:11725   */\n    tag_93:\n        /* \"#utility.yul\":11501:11504   */\n      0x00\n        /* \"#utility.yul\":11522:11589   */\n      tag_213\n        /* \"#utility.yul\":11586:11588   */\n      0x20\n        /* \"#utility.yul\":11581:11584   */\n      dup4\n        /* \"#utility.yul\":11522:11589   */\n      tag_85\n      jump\t// in\n    tag_213:\n        /* \"#utility.yul\":11515:11589   */\n      swap2\n      pop\n        /* \"#utility.yul\":11598:11691   */\n      tag_214\n        /* \"#utility.yul\":11687:11690   */\n      dup3\n        /* \"#utility.yul\":11598:11691   */\n      tag_92\n      jump\t// in\n    tag_214:\n        /* \"#utility.yul\":11716:11718   */\n      0x20\n        /* \"#utility.yul\":11711:11714   */\n      dup3\n        /* \"#utility.yul\":11707:11719   */\n      add\n        /* \"#utility.yul\":11700:11719   */\n      swap1\n      pop\n        /* \"#utility.yul\":11359:11725   */\n      swap2\n      swap1\n      pop\n      jump\t// out\n        /* \"#utility.yul\":11731:12150   */\n    tag_44:\n        /* \"#utility.yul\":11897:11901   */\n      0x00\n        /* \"#utility.yul\":11935:11937   */\n      0x20\n        /* \"#utility.yul\":11924:11933   */\n      dup3\n        /* \"#utility.yul\":11920:11938   */\n      add\n        /* \"#utility.yul\":11912:11938   */\n      swap1\n      pop\n        /* \"#utility.yul\":11984:11993   */\n      dup2\n        /* \"#utility.yul\":11978:11982   */\n      dup2\n        /* \"#utility.yul\":11974:11994   */\n      sub\n        /* \"#utility.yul\":11970:11971   */\n      0x00\n        /* \"#utility.yul\":11959:11968   */\n      dup4\n        /* \"#utility.yul\":11955:11972   */\n      add\n        /* \"#utility.yul\":11948:11995   */\n      mstore\n        /* \"#utility.yul\":12012:12143   */\n      tag_216\n        /* \"#utility.yul\":12138:12142   */\n      dup2\n        /* \"#utility.yul\":12012:12143   */\n      tag_93\n      jump\t// in\n    tag_216:\n        /* \"#utility.yul\":12004:12143   */\n      swap1\n      pop\n        /* \"#utility.yul\":11731:12150   */\n      swap2\n      swap1\n      pop\n      jump\t// out\n        /* \"#utility.yul\":12156:12297   */\n    tag_94:\n        /* \"#utility.yul\":12205:12209   */\n      0x00\n        /* \"#utility.yul\":12228:12231   */\n      dup2\n        /* \"#utility.yul\":12220:12231   */\n      swap1\n      pop\n        /* \"#utility.yul\":12251:12254   */\n      dup2\n        /* \"#utility.yul\":12248:12249   */\n      0x00\n        /* \"#utility.yul\":12241:12255   */\n      mstore\n        /* \"#utility.yul\":12285:12289   */\n      0x20\n        /* \"#utility.yul\":12282:12283   */\n      0x00\n        /* \"#utility.yul\":12272:12290   */\n      keccak256\n        /* \"#utility.yul\":12264:12290   */\n      swap1\n      pop\n        /* \"#utility.yul\":12156:12297   */\n      swap2\n      swap1\n      pop\n      jump\t// out\n        /* \"#utility.yul\":12303:12396   */\n    tag_95:\n        /* \"#utility.yul\":12340:12346   */\n      0x00\n        /* \"#utility.yul\":12387:12389   */\n      0x20\n        /* \"#utility.yul\":12382:12384   */\n      0x1f\n        /* \"#utility.yul\":12375:12380   */\n      dup4\n        /* \"#utility.yul\":12371:12385   */\n      add\n        /* \"#utility.yul\":12367:12390   */\n      div\n        /* \"#utility.yul\":12357:12390   */\n      swap1\n      pop\n        /* \"#utility.yul\":12303:12396   */\n      swap2\n      swap1\n      pop\n      jump\t// out\n        /* \"#utility.yul\":12402:12509   */\n    tag_96:\n        /* \"#utility.yul\":12446:12454   */\n      0x00\n        /* \"#utility.yul\":12496:12501   */\n      dup3\n        /* \"#utility.yul\":12490:12494   */\n      dup3\n        /* \"#utility.yul\":12486:12502   */\n      shl\n        /* \"#utility.yul\":12465:12502   */\n      swap1\n      pop\n        /* \"#utility.yul\":12402:12509   */\n      swap3\n      swap2\n      pop\n      pop\n      jump\t// out\n        /* \"#utility.yul\":12515:12908   */\n    tag_97:\n        /* \"#utility.yul\":12584:12590   */\n      0x00\n        /* \"#utility.yul\":12634:12635   */\n      0x08\n        /* \"#utility.yul\":12622:12632   */\n      dup4\n        /* \"#utility.yul\":12618:12636   */\n      mul\n        /* \"#utility.yul\":12657:12754   */\n      tag_221\n        /* \"#utility.yul\":12687:12753   */\n      0xffffffffffffffffffffffffffffffffffffffffffffffffffffffffffffffff\n        /* \"#utility.yul\":12676:12685   */\n      dup3\n        /* \"#utility.yul\":12657:12754   */\n      tag_96\n      jump\t// in\n    tag_221:\n        /* \"#utility.yul\":12775:12814   */\n      tag_222\n        /* \"#utility.yul\":12805:12813   */\n      dup7\n        /* \"#utility.yul\":12794:12803   */\n      dup4\n        /* \"#utility.yul\":12775:12814   */\n      tag_96\n      jump\t// in\n    tag_222:\n        /* \"#utility.yul\":12763:12814   */\n      swap6\n      pop\n        /* \"#utility.yul\":12847:12851   */\n      dup1\n        /* \"#utility.yul\":12843:12852   */\n      not\n        /* \"#utility.yul\":12836:12841   */\n      dup5\n        /* \"#utility.yul\":12832:12853   */\n      and\n        /* \"#utility.yul\":12823:12853   */\n      swap4\n      pop\n        /* \"#utility.yul\":12896:12900   */\n      dup1\n        /* \"#utility.yul\":12886:12894   */\n      dup7\n        /* \"#utility.yul\":12882:12901   */\n      and\n        /* \"#utility.yul\":12875:12880   */\n      dup5\n        /* \"#utility.yul\":12872:12902   */\n      or\n        /* \"#utility.yul\":12862:12902   */\n      swap3\n      pop\n        /* \"#utility.yul\":12591:12908   */\n      pop\n      pop\n        /* \"#utility.yul\":12515:12908   */\n      swap4\n      swap3\n      pop\n      pop\n      pop\n      jump\t// out\n        /* \"#utility.yul\":12914:12974   */\n    tag_98:\n        /* \"#utility.yul\":12942:12945   */\n      0x00\n        /* \"#utility.yul\":12963:12968   */\n      dup2\n        /* \"#utility.yul\":12956:12968   */\n      swap1\n      pop\n        /* \"#utility.yul\":12914:12974   */\n      swap2\n      swap1\n      pop\n      jump\t// out\n        /* \"#utility.yul\":12980:13122   */\n    tag_99:\n        /* \"#utility.yul\":13030:13039   */\n      0x00\n        /* \"#utility.yul\":13063:13116   */\n      tag_225\n        /* \"#utility.yul\":13081:13115   */\n      tag_226\n        /* \"#utility.yul\":13090:13114   */\n      tag_227\n        /* \"#utility.yul\":13108:13113   */\n      dup5\n        /* \"#utility.yul\":13090:13114   */\n      tag_60\n      jump\t// in\n    tag_227:\n        /* \"#utility.yul\":13081:13115   */\n      tag_98\n      jump\t// in\n    tag_226:\n        /* \"#utility.yul\":13063:13116   */\n      tag_60\n      jump\t// in\n    tag_225:\n        /* \"#utility.yul\":13050:13116   */\n      swap1\n      pop\n        /* \"#utility.yul\":12980:13122   */\n      swap2\n      swap1\n      pop\n      jump\t// out\n        /* \"#utility.yul\":13128:13203   */\n    tag_100:\n        /* \"#utility.yul\":13171:13174   */\n      0x00\n        /* \"#utility.yul\":13192:13197   */\n      dup2\n        /* \"#utility.yul\":13185:13197   */\n      swap1\n      pop\n        /* \"#utility.yul\":13128:13203   */\n      swap2\n      swap1\n      pop\n      jump\t// out\n        /* \"#utility.yul\":13209:13478   */\n    tag_101:\n        /* \"#utility.yul\":13319:13358   */\n      tag_230\n        /* \"#utility.yul\":13350:13357   */\n      dup4\n        /* \"#utility.yul\":13319:13358   */\n      tag_99\n      jump\t// in\n    tag_230:\n        /* \"#utility.yul\":13380:13471   */\n      tag_231\n        /* \"#utility.yul\":13429:13470   */\n      tag_232\n        /* \"#utility.yul\":13453:13469   */\n      dup3\n        /* \"#utility.yul\":13429:13470   */\n      tag_100\n      jump\t// in\n    tag_232:\n        /* \"#utility.yul\":13421:13427   */\n      dup5\n        /* \"#utility.yul\":13414:13418   */\n      dup5\n        /* \"#utility.yul\":13408:13419   */\n      sload\n        /* \"#utility.yul\":13380:13471   */\n      tag_97\n      jump\t// in\n    tag_231:\n        /* \"#utility.yul\":13374:13378   */\n      dup3\n        /* \"#utility.yul\":13367:13472   */\n      sstore\n        /* \"#utility.yul\":13285:13478   */\n      pop\n        /* \"#utility.yul\":13209:13478   */\n      pop\n      pop\n      pop\n      jump\t// out\n        /* \"#utility.yul\":13484:13557   */\n    tag_102:\n        /* \"#utility.yul\":13529:13532   */\n      0x00\n        /* \"#utility.yul\":13484:13557   */\n      swap1\n      jump\t// out\n        /* \"#utility.yul\":13563:13752   */\n    tag_103:\n        /* \"#utility.yul\":13640:13672   */\n      tag_235\n      tag_102\n      jump\t// in\n    tag_235:\n        /* \"#utility.yul\":13681:13746   */\n      tag_236\n        /* \"#utility.yul\":13739:13745   */\n      dup2\n        /* \"#utility.yul\":13731:13737   */\n      dup5\n        /* \"#utility.yul\":13725:13729   */\n      dup5\n        /* \"#utility.yul\":13681:13746   */\n      tag_101\n      jump\t// in\n    tag_236:\n        /* \"#utility.yul\":13616:13752   */\n      pop\n        /* \"#utility.yul\":13563:13752   */\n      pop\n      pop\n      jump\t// out\n        /* \"#utility.yul\":13758:13944   */\n    tag_104:\n        /* \"#utility.yul\":13818:13938   */\n    tag_238:\n        /* \"#utility.yul\":13835:13838   */\n      dup2\n        /* \"#utility.yul\":13828:13833   */\n      dup2\n        /* \"#utility.yul\":13825:13839   */\n      lt\n        /* \"#utility.yul\":13818:13938   */\n      iszero\n      tag_240\n      jumpi\n        /* \"#utility.yul\":13889:13928   */\n      tag_241\n        /* \"#utility.yul\":13926:13927   */\n      0x00\n        /* \"#utility.yul\":13919:13924   */\n      dup3\n        /* \"#utility.yul\":13889:13928   */\n      tag_103\n      jump\t// in\n    tag_241:\n        /* \"#utility.yul\":13862:13863   */\n      0x01\n        /* \"#utility.yul\":13855:13860   */\n      dup2\n        /* \"#utility.yul\":13851:13864   */\n      add\n        /* \"#utility.yul\":13842:13864   */\n      swap1\n      pop\n        /* \"#utility.yul\":13818:13938   */\n      jump(tag_238)\n    tag_240:\n        /* \"#utility.yul\":13758:13944   */\n      pop\n      pop\n      jump\t// out\n        /* \"#utility.yul\":13950:14493   */\n    tag_105:\n        /* \"#utility.yul\":14051:14053   */\n      0x1f\n        /* \"#utility.yul\":14046:14049   */\n      dup3\n        /* \"#utility.yul\":14043:14054   */\n      gt\n        /* \"#utility.yul\":14040:14486   */\n      iszero\n      tag_243\n      jumpi\n        /* \"#utility.yul\":14085:14123   */\n      tag_244\n        /* \"#utility.yul\":14117:14122   */\n      dup2\n        /* \"#utility.yul\":14085:14123   */\n      tag_94\n      jump\t// in\n    tag_244:\n        /* \"#utility.yul\":14169:14198   */\n      tag_245\n        /* \"#utility.yul\":14187:14197   */\n      dup5\n        /* \"#utility.yul\":14169:14198   */\n      tag_95\n      jump\t// in\n    tag_245:\n        /* \"#utility.yul\":14159:14167   */\n      dup2\n        /* \"#utility.yul\":14155:14199   */\n      add\n        /* \"#utility.yul\":14352:14354   */\n      0x20\n        /* \"#utility.yul\":14340:14350   */\n      dup6\n        /* \"#utility.yul\":14337:14355   */\n      lt\n        /* \"#utility.yul\":14334:14383   */\n      iszero\n      tag_246\n      jumpi\n        /* \"#utility.yul\":14373:14381   */\n      dup2\n        /* \"#utility.yul\":14358:14381   */\n      swap1\n      pop\n        /* \"#utility.yul\":14334:14383   */\n    tag_246:\n        /* \"#utility.yul\":14396:14476   */\n      tag_247\n        /* \"#utility.yul\":14452:14474   */\n      tag_248\n        /* \"#utility.yul\":14470:14473   */\n      dup6\n        /* \"#utility.yul\":14452:14474   */\n      tag_95\n      jump\t// in\n    tag_248:\n        /* \"#utility.yul\":14442:14450   */\n      dup4\n        /* \"#utility.yul\":14438:14475   */\n      add\n        /* \"#utility.yul\":14425:14436   */\n      dup3\n        /* \"#utility.yul\":14396:14476   */\n      tag_104\n      jump\t// in\n    tag_247:\n        /* \"#utility.yul\":14055:14486   */\n      pop\n      pop\n        /* \"#utility.yul\":14040:14486   */\n    tag_243:\n        /* \"#utility.yul\":13950:14493   */\n      pop\n      pop\n      pop\n      jump\t// out\n        /* \"#utility.yul\":14499:14616   */\n    tag_106:\n        /* \"#utility.yul\":14553:14561   */\n      0x00\n        /* \"#utility.yul\":14603:14608   */\n      dup3\n        /* \"#utility.yul\":14597:14601   */\n      dup3\n        /* \"#utility.yul\":14593:14609   */\n      shr\n        /* \"#utility.yul\":14572:14609   */\n      swap1\n      pop\n        /* \"#utility.yul\":14499:14616   */\n      swap3\n      swap2\n      pop\n      pop\n      jump\t// out\n        /* \"#utility.yul\":14622:14791   */\n    tag_107:\n        /* \"#utility.yul\":14666:14672   */\n      0x00\n        /* \"#utility.yul\":14699:14750   */\n      tag_251\n        /* \"#utility.yul\":14747:14748   */\n      0x00\n        /* \"#utility.yul\":14743:14749   */\n      not\n        /* \"#utility.yul\":14735:14740   */\n      dup5\n        /* \"#utility.yul\":14732:14733   */\n      0x08\n        /* \"#utility.yul\":14728:14741   */\n      mul\n        /* \"#utility.yul\":14699:14750   */\n      tag_106\n      jump\t// in\n    tag_251:\n        /* \"#utility.yul\":14695:14751   */\n      not\n        /* \"#utility.yul\":14780:14784   */\n      dup1\n        /* \"#utility.yul\":14774:14778   */\n      dup4\n        /* \"#utility.yul\":14770:14785   */\n      and\n        /* \"#utility.yul\":14760:14785   */\n      swap2\n      pop\n        /* \"#utility.yul\":14673:14791   */\n      pop\n        /* \"#utility.yul\":14622:14791   */\n      swap3\n      swap2\n      pop\n      pop\n      jump\t// out\n        /* \"#utility.yul\":14796:15091   */\n    tag_108:\n        /* \"#utility.yul\":14872:14876   */\n      0x00\n        /* \"#utility.yul\":15018:15047   */\n      tag_253\n        /* \"#utility.yul\":15043:15046   */\n      dup4\n        /* \"#utility.yul\":15037:15041   */\n      dup4\n        /* \"#utility.yul\":15018:15047   */\n      tag_107\n      jump\t// in\n    tag_253:\n        /* \"#utility.yul\":15010:15047   */\n      swap2\n      pop\n        /* \"#utility.yul\":15080:15083   */\n      dup3\n        /* \"#utility.yul\":15077:15078   */\n      0x02\n        /* \"#utility.yul\":15073:15084   */\n      mul\n        /* \"#utility.yul\":15067:15071   */\n      dup3\n        /* \"#utility.yul\":15064:15085   */\n      or\n        /* \"#utility.yul\":15056:15085   */\n      swap1\n      pop\n        /* \"#utility.yul\":14796:15091   */\n      swap3\n      swap2\n      pop\n      pop\n      jump\t// out\n        /* \"#utility.yul\":15096:16491   */\n    tag_47:\n        /* \"#utility.yul\":15213:15250   */\n      tag_255\n        /* \"#utility.yul\":15246:15249   */\n      dup3\n        /* \"#utility.yul\":15213:15250   */\n      tag_76\n      jump\t// in\n    tag_255:\n        /* \"#utility.yul\":15315:15333   */\n      0xffffffffffffffff\n        /* \"#utility.yul\":15307:15313   */\n      dup2\n        /* \"#utility.yul\":15304:15334   */\n      gt\n        /* \"#utility.yul\":15301:15357   */\n      iszero\n      tag_256\n      jumpi\n        /* \"#utility.yul\":15337:15355   */\n      tag_257\n      tag_66\n      jump\t// in\n    tag_257:\n        /* \"#utility.yul\":15301:15357   */\n    tag_256:\n        /* \"#utility.yul\":15381:15419   */\n      tag_258\n        /* \"#utility.yul\":15413:15417   */\n      dup3\n        /* \"#utility.yul\":15407:15418   */\n      sload\n        /* \"#utility.yul\":15381:15419   */\n      tag_28\n      jump\t// in\n    tag_258:\n        /* \"#utility.yul\":15466:15533   */\n      tag_259\n        /* \"#utility.yul\":15526:15532   */\n      dup3\n        /* \"#utility.yul\":15518:15524   */\n      dup3\n        /* \"#utility.yul\":15512:15516   */\n      dup6\n        /* \"#utility.yul\":15466:15533   */\n      tag_105\n      jump\t// in\n    tag_259:\n        /* \"#utility.yul\":15560:15561   */\n      0x00\n        /* \"#utility.yul\":15584:15588   */\n      0x20\n        /* \"#utility.yul\":15571:15588   */\n      swap1\n      pop\n        /* \"#utility.yul\":15616:15618   */\n      0x1f\n        /* \"#utility.yul\":15608:15614   */\n      dup4\n        /* \"#utility.yul\":15605:15619   */\n      gt\n        /* \"#utility.yul\":15633:15634   */\n      0x01\n        /* \"#utility.yul\":15628:16246   */\n      dup2\n      eq\n      tag_261\n      jumpi\n        /* \"#utility.yul\":16290:16291   */\n      0x00\n        /* \"#utility.yul\":16307:16313   */\n      dup5\n        /* \"#utility.yul\":16304:16381   */\n      iszero\n      tag_262\n      jumpi\n        /* \"#utility.yul\":16356:16365   */\n      dup3\n        /* \"#utility.yul\":16351:16354   */\n      dup8\n        /* \"#utility.yul\":16347:16366   */\n      add\n        /* \"#utility.yul\":16341:16367   */\n      mload\n        /* \"#utility.yul\":16332:16367   */\n      swap1\n      pop\n        /* \"#utility.yul\":16304:16381   */\n    tag_262:\n        /* \"#utility.yul\":16407:16474   */\n      tag_263\n        /* \"#utility.yul\":16467:16473   */\n      dup6\n        /* \"#utility.yul\":16460:16465   */\n      dup3\n        /* \"#utility.yul\":16407:16474   */\n      tag_108\n      jump\t// in\n    tag_263:\n        /* \"#utility.yul\":16401:16405   */\n      dup7\n        /* \"#utility.yul\":16394:16475   */\n      sstore\n        /* \"#utility.yul\":16263:16485   */\n      pop\n        /* \"#utility.yul\":15598:16485   */\n      jump(tag_260)\n        /* \"#utility.yul\":15628:16246   */\n    tag_261:\n        /* \"#utility.yul\":15680:15684   */\n      0x1f\n        /* \"#utility.yul\":15676:15685   */\n      not\n        /* \"#utility.yul\":15668:15674   */\n      dup5\n        /* \"#utility.yul\":15664:15686   */\n      and\n        /* \"#utility.yul\":15714:15751   */\n      tag_264\n        /* \"#utility.yul\":15746:15750   */\n      dup7\n        /* \"#utility.yul\":15714:15751   */\n      tag_94\n      jump\t// in\n    tag_264:\n        /* \"#utility.yul\":15773:15774   */\n      0x00\n        /* \"#utility.yul\":15787:15995   */\n    tag_265:\n        /* \"#utility.yul\":15801:15808   */\n      dup3\n        /* \"#utility.yul\":15798:15799   */\n      dup2\n        /* \"#utility.yul\":15795:15809   */\n      lt\n        /* \"#utility.yul\":15787:15995   */\n      iszero\n      tag_267\n      jumpi\n        /* \"#utility.yul\":15880:15889   */\n      dup5\n        /* \"#utility.yul\":15875:15878   */\n      dup10\n        /* \"#utility.yul\":15871:15890   */\n      add\n        /* \"#utility.yul\":15865:15891   */\n      mload\n        /* \"#utility.yul\":15857:15863   */\n      dup3\n        /* \"#utility.yul\":15850:15892   */\n      sstore\n        /* \"#utility.yul\":15931:15932   */\n      0x01\n        /* \"#utility.yul\":15923:15929   */\n      dup3\n        /* \"#utility.yul\":15919:15933   */\n      add\n        /* \"#utility.yul\":15909:15933   */\n      swap2\n      pop\n        /* \"#utility.yul\":15978:15980   */\n      0x20\n        /* \"#utility.yul\":15967:15976   */\n      dup6\n        /* \"#utility.yul\":15963:15981   */\n      add\n        /* \"#utility.yul\":15950:15981   */\n      swap5\n      pop\n        /* \"#utility.yul\":15824:15828   */\n      0x20\n        /* \"#utility.yul\":15821:15822   */\n      dup2\n        /* \"#utility.yul\":15817:15829   */\n      add\n        /* \"#utility.yul\":15812:15829   */\n      swap1\n      pop\n        /* \"#utility.yul\":15787:15995   */\n      jump(tag_265)\n    tag_267:\n        /* \"#utility.yul\":16023:16029   */\n      dup7\n        /* \"#utility.yul\":16014:16021   */\n      dup4\n        /* \"#utility.yul\":16011:16030   */\n      lt\n        /* \"#utility.yul\":16008:16187   */\n      iszero\n      tag_268\n      jumpi\n        /* \"#utility.yul\":16081:16090   */\n      dup5\n        /* \"#utility.yul\":16076:16079   */\n      dup10\n        /* \"#utility.yul\":16072:16091   */\n      add\n        /* \"#utility.yul\":16066:16092   */\n      mload\n        /* \"#utility.yul\":16124:16172   */\n      tag_269\n        /* \"#utility.yul\":16166:16170   */\n      0x1f\n        /* \"#utility.yul\":16158:16164   */\n      dup10\n        /* \"#utility.yul\":16154:16171   */\n      and\n        /* \"#utility.yul\":16143:16152   */\n      dup3\n        /* \"#utility.yul\":16124:16172   */\n      tag_107\n      jump\t// in\n    tag_269:\n        /* \"#utility.yul\":16116:16122   */\n      dup4\n        /* \"#utility.yul\":16109:16173   */\n      sstore\n        /* \"#utility.yul\":16031:16187   */\n      pop\n        /* \"#utility.yul\":16008:16187   */\n    tag_268:\n        /* \"#utility.yul\":16233:16234   */\n      0x01\n        /* \"#utility.yul\":16229:16230   */\n      0x02\n        /* \"#utility.yul\":16221:16227   */\n      dup9\n        /* \"#utility.yul\":16217:16231   */\n      mul\n        /* \"#utility.yul\":16213:16235   */\n      add\n        /* \"#utility.yul\":16207:16211   */\n      dup9\n        /* \"#utility.yul\":16200:16236   */\n      sstore\n        /* \"#utility.yul\":15635:16246   */\n      pop\n      pop\n      pop\n        /* \"#utility.yul\":15598:16485   */\n    tag_260:\n      pop\n        /* \"#utility.yul\":15188:16491   */\n      pop\n      pop\n      pop\n        /* \"#utility.yul\":15096:16491   */\n      pop\n      pop\n      jump\t// out\n\n    auxdata: 0xa2646970667358221220f67dabfaf31e2e30c9501c0cef5daaeef3f77e22814ffdf4cee2fb2fb1a83d8364736f6c634300081a0033\n}\n",
				"bytecode": {
					"linkReferences": {},
					"object": "6080604052348015600e575f80fd5b50610c4f8061001c5f395ff3fe608060405260043610610033575f3560e01c80638642269e14610037578063b15247d914610053578063c29b2f201461007b575b5f80fd5b610051600480360381019061004c9190610436565b6100a5565b005b34801561005e575f80fd5b506100796004803603810190610074919061059d565b61025c565b005b348015610086575f80fd5b5061008f6102fe565b60405161009c919061075b565b60405180910390f35b5f8054905081106100eb576040517f08c379a00000000000000000000000000000000000000000000000000000000081526004016100e2906107d5565b60405180910390fd5b5f8082815481106100ff576100fe6107f3565b5b905f5260205f2090600202016040518060400160405290815f820180546101259061084d565b80601f01602080910402602001604051908101604052809291908181526020018280546101519061084d565b801561019c5780601f106101735761010080835404028352916020019161019c565b820191905f5260205f20905b81548152906001019060200180831161017f57829003601f168201915b50505050508152602001600182015481525050905080602001513410156101f8576040517f08c379a00000000000000000000000000000000000000000000000000000000081526004016101ef906108c7565b60405180910390fd5b8060200151341115610258573373ffffffffffffffffffffffffffffffffffffffff166108fc82602001513461022e9190610912565b90811502906040515f60405180830381858888f19350505050158015610256573d5f803e3d5ffd5b505b5050565b5f811161029e576040517f08c379a00000000000000000000000000000000000000000000000000000000081526004016102959061098f565b60405180910390fd5b5f604051806040016040528084815260200183815250908060018154018082558091505060019003905f5260205f2090600202015f909190919091505f820151815f0190816102ed9190610b4a565b506020820151816001015550505050565b60605f805480602002602001604051908101604052809291908181526020015f905b828210156103e9578382905f5260205f2090600202016040518060400160405290815f820180546103509061084d565b80601f016020809104026020016040519081016040528092919081815260200182805461037c9061084d565b80156103c75780601f1061039e576101008083540402835291602001916103c7565b820191905f5260205f20905b8154815290600101906020018083116103aa57829003601f168201915b5050505050815260200160018201548152505081526020019060010190610320565b50505050905090565b5f604051905090565b5f80fd5b5f80fd5b5f819050919050565b61041581610403565b811461041f575f80fd5b50565b5f813590506104308161040c565b92915050565b5f6020828403121561044b5761044a6103fb565b5b5f61045884828501610422565b91505092915050565b5f80fd5b5f80fd5b5f601f19601f8301169050919050565b7f4e487b71000000000000000000000000000000000000000000000000000000005f52604160045260245ffd5b6104af82610469565b810181811067ffffffffffffffff821117156104ce576104cd610479565b5b80604052505050565b5f6104e06103f2565b90506104ec82826104a6565b919050565b5f67ffffffffffffffff82111561050b5761050a610479565b5b61051482610469565b9050602081019050919050565b828183375f83830152505050565b5f61054161053c846104f1565b6104d7565b90508281526020810184848401111561055d5761055c610465565b5b610568848285610521565b509392505050565b5f82601f83011261058457610583610461565b5b813561059484826020860161052f565b91505092915050565b5f80604083850312156105b3576105b26103fb565b5b5f83013567ffffffffffffffff8111156105d0576105cf6103ff565b5b6105dc85828601610570565b92505060206105ed85828601610422565b9150509250929050565b5f81519050919050565b5f82825260208201905092915050565b5f819050602082019050919050565b5f81519050919050565b5f82825260208201905092915050565b8281835e5f83830152505050565b5f61065282610620565b61065c818561062a565b935061066c81856020860161063a565b61067581610469565b840191505092915050565b61068981610403565b82525050565b5f604083015f8301518482035f8601526106a98282610648565b91505060208301516106be6020860182610680565b508091505092915050565b5f6106d4838361068f565b905092915050565b5f602082019050919050565b5f6106f2826105f7565b6106fc8185610601565b93508360208202850161070e85610611565b805f5b85811015610749578484038952815161072a85826106c9565b9450610735836106dc565b925060208a01995050600181019050610711565b50829750879550505050505092915050565b5f6020820190508181035f83015261077381846106e8565b905092915050565b5f82825260208201905092915050565b7f50726f6475637420646f6573206e6f742065786973742e0000000000000000005f82015250565b5f6107bf60178361077b565b91506107ca8261078b565b602082019050919050565b5f6020820190508181035f8301526107ec816107b3565b9050919050565b7f4e487b71000000000000000000000000000000000000000000000000000000005f52603260045260245ffd5b7f4e487b71000000000000000000000000000000000000000000000000000000005f52602260045260245ffd5b5f600282049050600182168061086457607f821691505b60208210810361087757610876610820565b5b50919050565b7f496e73756666696369656e742066756e64732e000000000000000000000000005f82015250565b5f6108b160138361077b565b91506108bc8261087d565b602082019050919050565b5f6020820190508181035f8301526108de816108a5565b9050919050565b7f4e487b71000000000000000000000000000000000000000000000000000000005f52601160045260245ffd5b5f61091c82610403565b915061092783610403565b925082820390508181111561093f5761093e6108e5565b5b92915050565b7f5072696365206d7573742062652067726561746572207468616e207a65726f2e5f82015250565b5f61097960208361077b565b915061098482610945565b602082019050919050565b5f6020820190508181035f8301526109a68161096d565b9050919050565b5f819050815f5260205f209050919050565b5f6020601f8301049050919050565b5f82821b905092915050565b5f60088302610a097fffffffffffffffffffffffffffffffffffffffffffffffffffffffffffffffff826109ce565b610a1386836109ce565b95508019841693508086168417925050509392505050565b5f819050919050565b5f610a4e610a49610a4484610403565b610a2b565b610403565b9050919050565b5f819050919050565b610a6783610a34565b610a7b610a7382610a55565b8484546109da565b825550505050565b5f90565b610a8f610a83565b610a9a818484610a5e565b505050565b5b81811015610abd57610ab25f82610a87565b600181019050610aa0565b5050565b601f821115610b0257610ad3816109ad565b610adc846109bf565b81016020851015610aeb578190505b610aff610af7856109bf565b830182610a9f565b50505b505050565b5f82821c905092915050565b5f610b225f1984600802610b07565b1980831691505092915050565b5f610b3a8383610b13565b9150826002028217905092915050565b610b5382610620565b67ffffffffffffffff811115610b6c57610b6b610479565b5b610b76825461084d565b610b81828285610ac1565b5f60209050601f831160018114610bb2575f8415610ba0578287015190505b610baa8582610b2f565b865550610c11565b601f198416610bc0866109ad565b5f5b82811015610be757848901518255600182019150602085019450602081019050610bc2565b86831015610c045784890151610c00601f891682610b13565b8355505b6001600288020188555050505b50505050505056fea2646970667358221220f67dabfaf31e2e30c9501c0cef5daaeef3f77e22814ffdf4cee2fb2fb1a83d8364736f6c634300081a0033",
					"opcodes": "PUSH1 0x80 PUSH1 0x40 MSTORE CALLVALUE DUP1 ISZERO PUSH1 0xE JUMPI PUSH0 DUP1 REVERT JUMPDEST POP PUSH2 0xC4F DUP1 PUSH2 0x1C PUSH0 CODECOPY PUSH0 RETURN INVALID PUSH1 0x80 PUSH1 0x40 MSTORE PUSH1 0x4 CALLDATASIZE LT PUSH2 0x33 JUMPI PUSH0 CALLDATALOAD PUSH1 0xE0 SHR DUP1 PUSH4 0x8642269E EQ PUSH2 0x37 JUMPI DUP1 PUSH4 0xB15247D9 EQ PUSH2 0x53 JUMPI DUP1 PUSH4 0xC29B2F20 EQ PUSH2 0x7B JUMPI JUMPDEST PUSH0 DUP1 REVERT JUMPDEST PUSH2 0x51 PUSH1 0x4 DUP1 CALLDATASIZE SUB DUP2 ADD SWAP1 PUSH2 0x4C SWAP2 SWAP1 PUSH2 0x436 JUMP JUMPDEST PUSH2 0xA5 JUMP JUMPDEST STOP JUMPDEST CALLVALUE DUP1 ISZERO PUSH2 0x5E JUMPI PUSH0 DUP1 REVERT JUMPDEST POP PUSH2 0x79 PUSH1 0x4 DUP1 CALLDATASIZE SUB DUP2 ADD SWAP1 PUSH2 0x74 SWAP2 SWAP1 PUSH2 0x59D JUMP JUMPDEST PUSH2 0x25C JUMP JUMPDEST STOP JUMPDEST CALLVALUE DUP1 ISZERO PUSH2 0x86 JUMPI PUSH0 DUP1 REVERT JUMPDEST POP PUSH2 0x8F PUSH2 0x2FE JUMP JUMPDEST PUSH1 0x40 MLOAD PUSH2 0x9C SWAP2 SWAP1 PUSH2 0x75B JUMP JUMPDEST PUSH1 0x40 MLOAD DUP1 SWAP2 SUB SWAP1 RETURN JUMPDEST PUSH0 DUP1 SLOAD SWAP1 POP DUP2 LT PUSH2 0xEB JUMPI PUSH1 0x40 MLOAD PUSH32 0x8C379A000000000000000000000000000000000000000000000000000000000 DUP2 MSTORE PUSH1 0x4 ADD PUSH2 0xE2 SWAP1 PUSH2 0x7D5 JUMP JUMPDEST PUSH1 0x40 MLOAD DUP1 SWAP2 SUB SWAP1 REVERT JUMPDEST PUSH0 DUP1 DUP3 DUP2 SLOAD DUP2 LT PUSH2 0xFF JUMPI PUSH2 0xFE PUSH2 0x7F3 JUMP JUMPDEST JUMPDEST SWAP1 PUSH0 MSTORE PUSH1 0x20 PUSH0 KECCAK256 SWAP1 PUSH1 0x2 MUL ADD PUSH1 0x40 MLOAD DUP1 PUSH1 0x40 ADD PUSH1 0x40 MSTORE SWAP1 DUP2 PUSH0 DUP3 ADD DUP1 SLOAD PUSH2 0x125 SWAP1 PUSH2 0x84D JUMP JUMPDEST DUP1 PUSH1 0x1F ADD PUSH1 0x20 DUP1 SWAP2 DIV MUL PUSH1 0x20 ADD PUSH1 0x40 MLOAD SWAP1 DUP2 ADD PUSH1 0x40 MSTORE DUP1 SWAP3 SWAP2 SWAP1 DUP2 DUP2 MSTORE PUSH1 0x20 ADD DUP3 DUP1 SLOAD PUSH2 0x151 SWAP1 PUSH2 0x84D JUMP JUMPDEST DUP1 ISZERO PUSH2 0x19C JUMPI DUP1 PUSH1 0x1F LT PUSH2 0x173 JUMPI PUSH2 0x100 DUP1 DUP4 SLOAD DIV MUL DUP4 MSTORE SWAP2 PUSH1 0x20 ADD SWAP2 PUSH2 0x19C JUMP JUMPDEST DUP3 ADD SWAP2 SWAP1 PUSH0 MSTORE PUSH1 0x20 PUSH0 KECCAK256 SWAP1 JUMPDEST DUP2 SLOAD DUP2 MSTORE SWAP1 PUSH1 0x1 ADD SWAP1 PUSH1 0x20 ADD DUP1 DUP4 GT PUSH2 0x17F JUMPI DUP3 SWAP1 SUB PUSH1 0x1F AND DUP3 ADD SWAP2 JUMPDEST POP POP POP POP POP DUP2 MSTORE PUSH1 0x20 ADD PUSH1 0x1 DUP3 ADD SLOAD DUP2 MSTORE POP POP SWAP1 POP DUP1 PUSH1 0x20 ADD MLOAD CALLVALUE LT ISZERO PUSH2 0x1F8 JUMPI PUSH1 0x40 MLOAD PUSH32 0x8C379A000000000000000000000000000000000000000000000000000000000 DUP2 MSTORE PUSH1 0x4 ADD PUSH2 0x1EF SWAP1 PUSH2 0x8C7 JUMP JUMPDEST PUSH1 0x40 MLOAD DUP1 SWAP2 SUB SWAP1 REVERT JUMPDEST DUP1 PUSH1 0x20 ADD MLOAD CALLVALUE GT ISZERO PUSH2 0x258 JUMPI CALLER PUSH20 0xFFFFFFFFFFFFFFFFFFFFFFFFFFFFFFFFFFFFFFFF AND PUSH2 0x8FC DUP3 PUSH1 0x20 ADD MLOAD CALLVALUE PUSH2 0x22E SWAP2 SWAP1 PUSH2 0x912 JUMP JUMPDEST SWAP1 DUP2 ISZERO MUL SWAP1 PUSH1 0x40 MLOAD PUSH0 PUSH1 0x40 MLOAD DUP1 DUP4 SUB DUP2 DUP6 DUP9 DUP9 CALL SWAP4 POP POP POP POP ISZERO DUP1 ISZERO PUSH2 0x256 JUMPI RETURNDATASIZE PUSH0 DUP1 RETURNDATACOPY RETURNDATASIZE PUSH0 REVERT JUMPDEST POP JUMPDEST POP POP JUMP JUMPDEST PUSH0 DUP2 GT PUSH2 0x29E JUMPI PUSH1 0x40 MLOAD PUSH32 0x8C379A000000000000000000000000000000000000000000000000000000000 DUP2 MSTORE PUSH1 0x4 ADD PUSH2 0x295 SWAP1 PUSH2 0x98F JUMP JUMPDEST PUSH1 0x40 MLOAD DUP1 SWAP2 SUB SWAP1 REVERT JUMPDEST PUSH0 PUSH1 0x40 MLOAD DUP1 PUSH1 0x40 ADD PUSH1 0x40 MSTORE DUP1 DUP5 DUP2 MSTORE PUSH1 0x20 ADD DUP4 DUP2 MSTORE POP SWAP1 DUP1 PUSH1 0x1 DUP2 SLOAD ADD DUP1 DUP3 SSTORE DUP1 SWAP2 POP POP PUSH1 0x1 SWAP1 SUB SWAP1 PUSH0 MSTORE PUSH1 0x20 PUSH0 KECCAK256 SWAP1 PUSH1 0x2 MUL ADD PUSH0 SWAP1 SWAP2 SWAP1 SWAP2 SWAP1 SWAP2 POP PUSH0 DUP3 ADD MLOAD DUP2 PUSH0 ADD SWAP1 DUP2 PUSH2 0x2ED SWAP2 SWAP1 PUSH2 0xB4A JUMP JUMPDEST POP PUSH1 0x20 DUP3 ADD MLOAD DUP2 PUSH1 0x1 ADD SSTORE POP POP POP POP JUMP JUMPDEST PUSH1 0x60 PUSH0 DUP1 SLOAD DUP1 PUSH1 0x20 MUL PUSH1 0x20 ADD PUSH1 0x40 MLOAD SWAP1 DUP2 ADD PUSH1 0x40 MSTORE DUP1 SWAP3 SWAP2 SWAP1 DUP2 DUP2 MSTORE PUSH1 0x20 ADD PUSH0 SWAP1 JUMPDEST DUP3 DUP3 LT ISZERO PUSH2 0x3E9 JUMPI DUP4 DUP3 SWAP1 PUSH0 MSTORE PUSH1 0x20 PUSH0 KECCAK256 SWAP1 PUSH1 0x2 MUL ADD PUSH1 0x40 MLOAD DUP1 PUSH1 0x40 ADD PUSH1 0x40 MSTORE SWAP1 DUP2 PUSH0 DUP3 ADD DUP1 SLOAD PUSH2 0x350 SWAP1 PUSH2 0x84D JUMP JUMPDEST DUP1 PUSH1 0x1F ADD PUSH1 0x20 DUP1 SWAP2 DIV MUL PUSH1 0x20 ADD PUSH1 0x40 MLOAD SWAP1 DUP2 ADD PUSH1 0x40 MSTORE DUP1 SWAP3 SWAP2 SWAP1 DUP2 DUP2 MSTORE PUSH1 0x20 ADD DUP3 DUP1 SLOAD PUSH2 0x37C SWAP1 PUSH2 0x84D JUMP JUMPDEST DUP1 ISZERO PUSH2 0x3C7 JUMPI DUP1 PUSH1 0x1F LT PUSH2 0x39E JUMPI PUSH2 0x100 DUP1 DUP4 SLOAD DIV MUL DUP4 MSTORE SWAP2 PUSH1 0x20 ADD SWAP2 PUSH2 0x3C7 JUMP JUMPDEST DUP3 ADD SWAP2 SWAP1 PUSH0 MSTORE PUSH1 0x20 PUSH0 KECCAK256 SWAP1 JUMPDEST DUP2 SLOAD DUP2 MSTORE SWAP1 PUSH1 0x1 ADD SWAP1 PUSH1 0x20 ADD DUP1 DUP4 GT PUSH2 0x3AA JUMPI DUP3 SWAP1 SUB PUSH1 0x1F AND DUP3 ADD SWAP2 JUMPDEST POP POP POP POP POP DUP2 MSTORE PUSH1 0x20 ADD PUSH1 0x1 DUP3 ADD SLOAD DUP2 MSTORE POP POP DUP2 MSTORE PUSH1 0x20 ADD SWAP1 PUSH1 0x1 ADD SWAP1 PUSH2 0x320 JUMP JUMPDEST POP POP POP POP SWAP1 POP SWAP1 JUMP JUMPDEST PUSH0 PUSH1 0x40 MLOAD SWAP1 POP SWAP1 JUMP JUMPDEST PUSH0 DUP1 REVERT JUMPDEST PUSH0 DUP1 REVERT JUMPDEST PUSH0 DUP2 SWAP1 POP SWAP2 SWAP1 POP JUMP JUMPDEST PUSH2 0x415 DUP2 PUSH2 0x403 JUMP JUMPDEST DUP2 EQ PUSH2 0x41F JUMPI PUSH0 DUP1 REVERT JUMPDEST POP JUMP JUMPDEST PUSH0 DUP2 CALLDATALOAD SWAP1 POP PUSH2 0x430 DUP2 PUSH2 0x40C JUMP JUMPDEST SWAP3 SWAP2 POP POP JUMP JUMPDEST PUSH0 PUSH1 0x20 DUP3 DUP5 SUB SLT ISZERO PUSH2 0x44B JUMPI PUSH2 0x44A PUSH2 0x3FB JUMP JUMPDEST JUMPDEST PUSH0 PUSH2 0x458 DUP5 DUP3 DUP6 ADD PUSH2 0x422 JUMP JUMPDEST SWAP2 POP POP SWAP3 SWAP2 POP POP JUMP JUMPDEST PUSH0 DUP1 REVERT JUMPDEST PUSH0 DUP1 REVERT JUMPDEST PUSH0 PUSH1 0x1F NOT PUSH1 0x1F DUP4 ADD AND SWAP1 POP SWAP2 SWAP1 POP JUMP JUMPDEST PUSH32 0x4E487B7100000000000000000000000000000000000000000000000000000000 PUSH0 MSTORE PUSH1 0x41 PUSH1 0x4 MSTORE PUSH1 0x24 PUSH0 REVERT JUMPDEST PUSH2 0x4AF DUP3 PUSH2 0x469 JUMP JUMPDEST DUP2 ADD DUP2 DUP2 LT PUSH8 0xFFFFFFFFFFFFFFFF DUP3 GT OR ISZERO PUSH2 0x4CE JUMPI PUSH2 0x4CD PUSH2 0x479 JUMP JUMPDEST JUMPDEST DUP1 PUSH1 0x40 MSTORE POP POP POP JUMP JUMPDEST PUSH0 PUSH2 0x4E0 PUSH2 0x3F2 JUMP JUMPDEST SWAP1 POP PUSH2 0x4EC DUP3 DUP3 PUSH2 0x4A6 JUMP JUMPDEST SWAP2 SWAP1 POP JUMP JUMPDEST PUSH0 PUSH8 0xFFFFFFFFFFFFFFFF DUP3 GT ISZERO PUSH2 0x50B JUMPI PUSH2 0x50A PUSH2 0x479 JUMP JUMPDEST JUMPDEST PUSH2 0x514 DUP3 PUSH2 0x469 JUMP JUMPDEST SWAP1 POP PUSH1 0x20 DUP2 ADD SWAP1 POP SWAP2 SWAP1 POP JUMP JUMPDEST DUP3 DUP2 DUP4 CALLDATACOPY PUSH0 DUP4 DUP4 ADD MSTORE POP POP POP JUMP JUMPDEST PUSH0 PUSH2 0x541 PUSH2 0x53C DUP5 PUSH2 0x4F1 JUMP JUMPDEST PUSH2 0x4D7 JUMP JUMPDEST SWAP1 POP DUP3 DUP2 MSTORE PUSH1 0x20 DUP2 ADD DUP5 DUP5 DUP5 ADD GT ISZERO PUSH2 0x55D JUMPI PUSH2 0x55C PUSH2 0x465 JUMP JUMPDEST JUMPDEST PUSH2 0x568 DUP5 DUP3 DUP6 PUSH2 0x521 JUMP JUMPDEST POP SWAP4 SWAP3 POP POP POP JUMP JUMPDEST PUSH0 DUP3 PUSH1 0x1F DUP4 ADD SLT PUSH2 0x584 JUMPI PUSH2 0x583 PUSH2 0x461 JUMP JUMPDEST JUMPDEST DUP2 CALLDATALOAD PUSH2 0x594 DUP5 DUP3 PUSH1 0x20 DUP7 ADD PUSH2 0x52F JUMP JUMPDEST SWAP2 POP POP SWAP3 SWAP2 POP POP JUMP JUMPDEST PUSH0 DUP1 PUSH1 0x40 DUP4 DUP6 SUB SLT ISZERO PUSH2 0x5B3 JUMPI PUSH2 0x5B2 PUSH2 0x3FB JUMP JUMPDEST JUMPDEST PUSH0 DUP4 ADD CALLDATALOAD PUSH8 0xFFFFFFFFFFFFFFFF DUP2 GT ISZERO PUSH2 0x5D0 JUMPI PUSH2 0x5CF PUSH2 0x3FF JUMP JUMPDEST JUMPDEST PUSH2 0x5DC DUP6 DUP3 DUP7 ADD PUSH2 0x570 JUMP JUMPDEST SWAP3 POP POP PUSH1 0x20 PUSH2 0x5ED DUP6 DUP3 DUP7 ADD PUSH2 0x422 JUMP JUMPDEST SWAP2 POP POP SWAP3 POP SWAP3 SWAP1 POP JUMP JUMPDEST PUSH0 DUP2 MLOAD SWAP1 POP SWAP2 SWAP1 POP JUMP JUMPDEST PUSH0 DUP3 DUP3 MSTORE PUSH1 0x20 DUP3 ADD SWAP1 POP SWAP3 SWAP2 POP POP JUMP JUMPDEST PUSH0 DUP2 SWAP1 POP PUSH1 0x20 DUP3 ADD SWAP1 POP SWAP2 SWAP1 POP JUMP JUMPDEST PUSH0 DUP2 MLOAD SWAP1 POP SWAP2 SWAP1 POP JUMP JUMPDEST PUSH0 DUP3 DUP3 MSTORE PUSH1 0x20 DUP3 ADD SWAP1 POP SWAP3 SWAP2 POP POP JUMP JUMPDEST DUP3 DUP2 DUP4 MCOPY PUSH0 DUP4 DUP4 ADD MSTORE POP POP POP JUMP JUMPDEST PUSH0 PUSH2 0x652 DUP3 PUSH2 0x620 JUMP JUMPDEST PUSH2 0x65C DUP2 DUP6 PUSH2 0x62A JUMP JUMPDEST SWAP4 POP PUSH2 0x66C DUP2 DUP6 PUSH1 0x20 DUP7 ADD PUSH2 0x63A JUMP JUMPDEST PUSH2 0x675 DUP2 PUSH2 0x469 JUMP JUMPDEST DUP5 ADD SWAP2 POP POP SWAP3 SWAP2 POP POP JUMP JUMPDEST PUSH2 0x689 DUP2 PUSH2 0x403 JUMP JUMPDEST DUP3 MSTORE POP POP JUMP JUMPDEST PUSH0 PUSH1 0x40 DUP4 ADD PUSH0 DUP4 ADD MLOAD DUP5 DUP3 SUB PUSH0 DUP7 ADD MSTORE PUSH2 0x6A9 DUP3 DUP3 PUSH2 0x648 JUMP JUMPDEST SWAP2 POP POP PUSH1 0x20 DUP4 ADD MLOAD PUSH2 0x6BE PUSH1 0x20 DUP7 ADD DUP3 PUSH2 0x680 JUMP JUMPDEST POP DUP1 SWAP2 POP POP SWAP3 SWAP2 POP POP JUMP JUMPDEST PUSH0 PUSH2 0x6D4 DUP4 DUP4 PUSH2 0x68F JUMP JUMPDEST SWAP1 POP SWAP3 SWAP2 POP POP JUMP JUMPDEST PUSH0 PUSH1 0x20 DUP3 ADD SWAP1 POP SWAP2 SWAP1 POP JUMP JUMPDEST PUSH0 PUSH2 0x6F2 DUP3 PUSH2 0x5F7 JUMP JUMPDEST PUSH2 0x6FC DUP2 DUP6 PUSH2 0x601 JUMP JUMPDEST SWAP4 POP DUP4 PUSH1 0x20 DUP3 MUL DUP6 ADD PUSH2 0x70E DUP6 PUSH2 0x611 JUMP JUMPDEST DUP1 PUSH0 JUMPDEST DUP6 DUP2 LT ISZERO PUSH2 0x749 JUMPI DUP5 DUP5 SUB DUP10 MSTORE DUP2 MLOAD PUSH2 0x72A DUP6 DUP3 PUSH2 0x6C9 JUMP JUMPDEST SWAP5 POP PUSH2 0x735 DUP4 PUSH2 0x6DC JUMP JUMPDEST SWAP3 POP PUSH1 0x20 DUP11 ADD SWAP10 POP POP PUSH1 0x1 DUP2 ADD SWAP1 POP PUSH2 0x711 JUMP JUMPDEST POP DUP3 SWAP8 POP DUP8 SWAP6 POP POP POP POP POP POP SWAP3 SWAP2 POP POP JUMP JUMPDEST PUSH0 PUSH1 0x20 DUP3 ADD SWAP1 POP DUP2 DUP2 SUB PUSH0 DUP4 ADD MSTORE PUSH2 0x773 DUP2 DUP5 PUSH2 0x6E8 JUMP JUMPDEST SWAP1 POP SWAP3 SWAP2 POP POP JUMP JUMPDEST PUSH0 DUP3 DUP3 MSTORE PUSH1 0x20 DUP3 ADD SWAP1 POP SWAP3 SWAP2 POP POP JUMP JUMPDEST PUSH32 0x50726F6475637420646F6573206E6F742065786973742E000000000000000000 PUSH0 DUP3 ADD MSTORE POP JUMP JUMPDEST PUSH0 PUSH2 0x7BF PUSH1 0x17 DUP4 PUSH2 0x77B JUMP JUMPDEST SWAP2 POP PUSH2 0x7CA DUP3 PUSH2 0x78B JUMP JUMPDEST PUSH1 0x20 DUP3 ADD SWAP1 POP SWAP2 SWAP1 POP JUMP JUMPDEST PUSH0 PUSH1 0x20 DUP3 ADD SWAP1 POP DUP2 DUP2 SUB PUSH0 DUP4 ADD MSTORE PUSH2 0x7EC DUP2 PUSH2 0x7B3 JUMP JUMPDEST SWAP1 POP SWAP2 SWAP1 POP JUMP JUMPDEST PUSH32 0x4E487B7100000000000000000000000000000000000000000000000000000000 PUSH0 MSTORE PUSH1 0x32 PUSH1 0x4 MSTORE PUSH1 0x24 PUSH0 REVERT JUMPDEST PUSH32 0x4E487B7100000000000000000000000000000000000000000000000000000000 PUSH0 MSTORE PUSH1 0x22 PUSH1 0x4 MSTORE PUSH1 0x24 PUSH0 REVERT JUMPDEST PUSH0 PUSH1 0x2 DUP3 DIV SWAP1 POP PUSH1 0x1 DUP3 AND DUP1 PUSH2 0x864 JUMPI PUSH1 0x7F DUP3 AND SWAP2 POP JUMPDEST PUSH1 0x20 DUP3 LT DUP2 SUB PUSH2 0x877 JUMPI PUSH2 0x876 PUSH2 0x820 JUMP JUMPDEST JUMPDEST POP SWAP2 SWAP1 POP JUMP JUMPDEST PUSH32 0x496E73756666696369656E742066756E64732E00000000000000000000000000 PUSH0 DUP3 ADD MSTORE POP JUMP JUMPDEST PUSH0 PUSH2 0x8B1 PUSH1 0x13 DUP4 PUSH2 0x77B JUMP JUMPDEST SWAP2 POP PUSH2 0x8BC DUP3 PUSH2 0x87D JUMP JUMPDEST PUSH1 0x20 DUP3 ADD SWAP1 POP SWAP2 SWAP1 POP JUMP JUMPDEST PUSH0 PUSH1 0x20 DUP3 ADD SWAP1 POP DUP2 DUP2 SUB PUSH0 DUP4 ADD MSTORE PUSH2 0x8DE DUP2 PUSH2 0x8A5 JUMP JUMPDEST SWAP1 POP SWAP2 SWAP1 POP JUMP JUMPDEST PUSH32 0x4E487B7100000000000000000000000000000000000000000000000000000000 PUSH0 MSTORE PUSH1 0x11 PUSH1 0x4 MSTORE PUSH1 0x24 PUSH0 REVERT JUMPDEST PUSH0 PUSH2 0x91C DUP3 PUSH2 0x403 JUMP JUMPDEST SWAP2 POP PUSH2 0x927 DUP4 PUSH2 0x403 JUMP JUMPDEST SWAP3 POP DUP3 DUP3 SUB SWAP1 POP DUP2 DUP2 GT ISZERO PUSH2 0x93F JUMPI PUSH2 0x93E PUSH2 0x8E5 JUMP JUMPDEST JUMPDEST SWAP3 SWAP2 POP POP JUMP JUMPDEST PUSH32 0x5072696365206D7573742062652067726561746572207468616E207A65726F2E PUSH0 DUP3 ADD MSTORE POP JUMP JUMPDEST PUSH0 PUSH2 0x979 PUSH1 0x20 DUP4 PUSH2 0x77B JUMP JUMPDEST SWAP2 POP PUSH2 0x984 DUP3 PUSH2 0x945 JUMP JUMPDEST PUSH1 0x20 DUP3 ADD SWAP1 POP SWAP2 SWAP1 POP JUMP JUMPDEST PUSH0 PUSH1 0x20 DUP3 ADD SWAP1 POP DUP2 DUP2 SUB PUSH0 DUP4 ADD MSTORE PUSH2 0x9A6 DUP2 PUSH2 0x96D JUMP JUMPDEST SWAP1 POP SWAP2 SWAP1 POP JUMP JUMPDEST PUSH0 DUP2 SWAP1 POP DUP2 PUSH0 MSTORE PUSH1 0x20 PUSH0 KECCAK256 SWAP1 POP SWAP2 SWAP1 POP JUMP JUMPDEST PUSH0 PUSH1 0x20 PUSH1 0x1F DUP4 ADD DIV SWAP1 POP SWAP2 SWAP1 POP JUMP JUMPDEST PUSH0 DUP3 DUP3 SHL SWAP1 POP SWAP3 SWAP2 POP POP JUMP JUMPDEST PUSH0 PUSH1 0x8 DUP4 MUL PUSH2 0xA09 PUSH32 0xFFFFFFFFFFFFFFFFFFFFFFFFFFFFFFFFFFFFFFFFFFFFFFFFFFFFFFFFFFFFFFFF DUP3 PUSH2 0x9CE JUMP JUMPDEST PUSH2 0xA13 DUP7 DUP4 PUSH2 0x9CE JUMP JUMPDEST SWAP6 POP DUP1 NOT DUP5 AND SWAP4 POP DUP1 DUP7 AND DUP5 OR SWAP3 POP POP POP SWAP4 SWAP3 POP POP POP JUMP JUMPDEST PUSH0 DUP2 SWAP1 POP SWAP2 SWAP1 POP JUMP JUMPDEST PUSH0 PUSH2 0xA4E PUSH2 0xA49 PUSH2 0xA44 DUP5 PUSH2 0x403 JUMP JUMPDEST PUSH2 0xA2B JUMP JUMPDEST PUSH2 0x403 JUMP JUMPDEST SWAP1 POP SWAP2 SWAP1 POP JUMP JUMPDEST PUSH0 DUP2 SWAP1 POP SWAP2 SWAP1 POP JUMP JUMPDEST PUSH2 0xA67 DUP4 PUSH2 0xA34 JUMP JUMPDEST PUSH2 0xA7B PUSH2 0xA73 DUP3 PUSH2 0xA55 JUMP JUMPDEST DUP5 DUP5 SLOAD PUSH2 0x9DA JUMP JUMPDEST DUP3 SSTORE POP POP POP POP JUMP JUMPDEST PUSH0 SWAP1 JUMP JUMPDEST PUSH2 0xA8F PUSH2 0xA83 JUMP JUMPDEST PUSH2 0xA9A DUP2 DUP5 DUP5 PUSH2 0xA5E JUMP JUMPDEST POP POP POP JUMP JUMPDEST JUMPDEST DUP2 DUP2 LT ISZERO PUSH2 0xABD JUMPI PUSH2 0xAB2 PUSH0 DUP3 PUSH2 0xA87 JUMP JUMPDEST PUSH1 0x1 DUP2 ADD SWAP1 POP PUSH2 0xAA0 JUMP JUMPDEST POP POP JUMP JUMPDEST PUSH1 0x1F DUP3 GT ISZERO PUSH2 0xB02 JUMPI PUSH2 0xAD3 DUP2 PUSH2 0x9AD JUMP JUMPDEST PUSH2 0xADC DUP5 PUSH2 0x9BF JUMP JUMPDEST DUP2 ADD PUSH1 0x20 DUP6 LT ISZERO PUSH2 0xAEB JUMPI DUP2 SWAP1 POP JUMPDEST PUSH2 0xAFF PUSH2 0xAF7 DUP6 PUSH2 0x9BF JUMP JUMPDEST DUP4 ADD DUP3 PUSH2 0xA9F JUMP JUMPDEST POP POP JUMPDEST POP POP POP JUMP JUMPDEST PUSH0 DUP3 DUP3 SHR SWAP1 POP SWAP3 SWAP2 POP POP JUMP JUMPDEST PUSH0 PUSH2 0xB22 PUSH0 NOT DUP5 PUSH1 0x8 MUL PUSH2 0xB07 JUMP JUMPDEST NOT DUP1 DUP4 AND SWAP2 POP POP SWAP3 SWAP2 POP POP JUMP JUMPDEST PUSH0 PUSH2 0xB3A DUP4 DUP4 PUSH2 0xB13 JUMP JUMPDEST SWAP2 POP DUP3 PUSH1 0x2 MUL DUP3 OR SWAP1 POP SWAP3 SWAP2 POP POP JUMP JUMPDEST PUSH2 0xB53 DUP3 PUSH2 0x620 JUMP JUMPDEST PUSH8 0xFFFFFFFFFFFFFFFF DUP2 GT ISZERO PUSH2 0xB6C JUMPI PUSH2 0xB6B PUSH2 0x479 JUMP JUMPDEST JUMPDEST PUSH2 0xB76 DUP3 SLOAD PUSH2 0x84D JUMP JUMPDEST PUSH2 0xB81 DUP3 DUP3 DUP6 PUSH2 0xAC1 JUMP JUMPDEST PUSH0 PUSH1 0x20 SWAP1 POP PUSH1 0x1F DUP4 GT PUSH1 0x1 DUP2 EQ PUSH2 0xBB2 JUMPI PUSH0 DUP5 ISZERO PUSH2 0xBA0 JUMPI DUP3 DUP8 ADD MLOAD SWAP1 POP JUMPDEST PUSH2 0xBAA DUP6 DUP3 PUSH2 0xB2F JUMP JUMPDEST DUP7 SSTORE POP PUSH2 0xC11 JUMP JUMPDEST PUSH1 0x1F NOT DUP5 AND PUSH2 0xBC0 DUP7 PUSH2 0x9AD JUMP JUMPDEST PUSH0 JUMPDEST DUP3 DUP2 LT ISZERO PUSH2 0xBE7 JUMPI DUP5 DUP10 ADD MLOAD DUP3 SSTORE PUSH1 0x1 DUP3 ADD SWAP2 POP PUSH1 0x20 DUP6 ADD SWAP5 POP PUSH1 0x20 DUP2 ADD SWAP1 POP PUSH2 0xBC2 JUMP JUMPDEST DUP7 DUP4 LT ISZERO PUSH2 0xC04 JUMPI DUP5 DUP10 ADD MLOAD PUSH2 0xC00 PUSH1 0x1F DUP10 AND DUP3 PUSH2 0xB13 JUMP JUMPDEST DUP4 SSTORE POP JUMPDEST PUSH1 0x1 PUSH1 0x2 DUP9 MUL ADD DUP9 SSTORE POP POP POP JUMPDEST POP POP POP POP POP POP JUMP INVALID LOG2 PUSH5 0x6970667358 0x22 SLT KECCAK256 0xF6 PUSH30 0xABFAF31E2E30C9501C0CEF5DAAEEF3F77E22814FFDF4CEE2FB2FB1A83D83 PUSH5 0x736F6C6343 STOP ADDMOD BYTE STOP CALLER "
				},
				"gasEstimates": {
					"creation": {
						"codeDepositCost": "630200",
						"executionCost": "662",
						"totalCost": "630862"
					},
					"external": {
						"addProduct(string,uint256)": "infinite",
						"buyProduct(uint256)": "infinite",
						"getProducts()": "infinite"
					}
				},
				"methodIdentifiers": {
					"addProduct(string,uint256)": "b15247d9",
					"buyProduct(uint256)": "8642269e",
					"getProducts()": "c29b2f20"
				}
			},
			"storageLayout": {
				"storage": [
					{
						"astId": 10,
						"contract": "contracts/Products.sol:Shop",
						"label": "products",
						"offset": 0,
						"slot": "0",
						"type": "t_array(t_struct(Product)6_storage)dyn_storage"
					}
				],
				"types": {
					"t_array(t_struct(Product)6_storage)dyn_storage": {
						"base": "t_struct(Product)6_storage",
						"encoding": "dynamic_array",
						"label": "struct Shop.Product[]",
						"numberOfBytes": "32"
					},
					"t_string_storage": {
						"encoding": "bytes",
						"label": "string",
						"numberOfBytes": "32"
					},
					"t_struct(Product)6_storage": {
						"encoding": "inplace",
						"label": "struct Shop.Product",
						"members": [
							{
								"astId": 3,
								"contract": "contracts/Products.sol:Shop",
								"label": "name",
								"offset": 0,
								"slot": "0",
								"type": "t_string_storage"
							},
							{
								"astId": 5,
								"contract": "contracts/Products.sol:Shop",
								"label": "price",
								"offset": 0,
								"slot": "1",
								"type": "t_uint256"
							}
						],
						"numberOfBytes": "64"
					},
					"t_uint256": {
						"encoding": "inplace",
						"label": "uint256",
						"numberOfBytes": "32"
					}
				}
			},
			"userdoc": {
				"kind": "user",
				"methods": {},
				"version": 1
			}
		}
	}
}