{
	"contracts/Vote2.sol": {
		"CommunityVoting": {
			"abi": [
				{
					"inputs": [
						{
							"internalType": "uint256",
							"name": "_totalFunds",
							"type": "uint256"
						}
					],
					"stateMutability": "nonpayable",
					"type": "constructor"
				},
				{
					"inputs": [],
					"name": "admin",
					"outputs": [
						{
							"internalType": "address",
							"name": "",
							"type": "address"
						}
					],
					"stateMutability": "view",
					"type": "function"
				},
				{
					"inputs": [
						{
							"internalType": "uint256",
							"name": "_newTotalFunds",
							"type": "uint256"
						}
					],
					"name": "changeTotalFunds",
					"outputs": [],
					"stateMutability": "nonpayable",
					"type": "function"
				},
				{
					"inputs": [],
					"name": "fundProjects",
					"outputs": [],
					"stateMutability": "nonpayable",
					"type": "function"
				},
				{
					"inputs": [
						{
							"internalType": "uint256",
							"name": "_projectId",
							"type": "uint256"
						}
					],
					"name": "getProject",
					"outputs": [
						{
							"internalType": "string",
							"name": "",
							"type": "string"
						},
						{
							"internalType": "uint256",
							"name": "",
							"type": "uint256"
						},
						{
							"internalType": "uint256",
							"name": "",
							"type": "uint256"
						},
						{
							"internalType": "address",
							"name": "",
							"type": "address"
						}
					],
					"stateMutability": "view",
					"type": "function"
				},
				{
					"inputs": [],
					"name": "getProjectsCount",
					"outputs": [
						{
							"internalType": "uint256",
							"name": "",
							"type": "uint256"
						}
					],
					"stateMutability": "view",
					"type": "function"
				},
				{
					"inputs": [],
					"name": "getVotesCount",
					"outputs": [
						{
							"internalType": "uint256",
							"name": "",
							"type": "uint256"
						}
					],
					"stateMutability": "view",
					"type": "function"
				},
				{
					"inputs": [
						{
							"internalType": "uint256",
							"name": "",
							"type": "uint256"
						}
					],
					"name": "projects",
					"outputs": [
						{
							"internalType": "uint256",
							"name": "id",
							"type": "uint256"
						},
						{
							"internalType": "string",
							"name": "description",
							"type": "string"
						},
						{
							"internalType": "uint256",
							"name": "fundingGoal",
							"type": "uint256"
						},
						{
							"internalType": "uint256",
							"name": "votes",
							"type": "uint256"
						},
						{
							"internalType": "address",
							"name": "proposer",
							"type": "address"
						}
					],
					"stateMutability": "view",
					"type": "function"
				},
				{
					"inputs": [
						{
							"internalType": "string",
							"name": "_description",
							"type": "string"
						},
						{
							"internalType": "uint256",
							"name": "_fundingGoal",
							"type": "uint256"
						}
					],
					"name": "proposeProject",
					"outputs": [],
					"stateMutability": "nonpayable",
					"type": "function"
				},
				{
					"inputs": [],
					"name": "totalFunds",
					"outputs": [
						{
							"internalType": "uint256",
							"name": "",
							"type": "uint256"
						}
					],
					"stateMutability": "view",
					"type": "function"
				},
				{
					"inputs": [
						{
							"internalType": "uint256",
							"name": "_projectId",
							"type": "uint256"
						}
					],
					"name": "voteForProject",
					"outputs": [],
					"stateMutability": "nonpayable",
					"type": "function"
				},
				{
					"inputs": [
						{
							"internalType": "uint256",
							"name": "",
							"type": "uint256"
						}
					],
					"name": "votes",
					"outputs": [
						{
							"internalType": "address",
							"name": "voter",
							"type": "address"
						},
						{
							"internalType": "uint256",
							"name": "projectId",
							"type": "uint256"
						}
					],
					"stateMutability": "view",
					"type": "function"
				}
			],
			"devdoc": {
				"kind": "dev",
				"methods": {},
				"version": 1
			},
			"evm": {
				"assembly": "    /* \"contracts/Vote2.sol\":60:2776  contract CommunityVoting {... */\n  mstore(0x40, 0x80)\n    /* \"contracts/Vote2.sol\":473:579  constructor(uint256 _totalFunds) {... */\n  callvalue\n  dup1\n  iszero\n  tag_1\n  jumpi\n  0x00\n  dup1\n  revert\ntag_1:\n  pop\n  mload(0x40)\n  sub(codesize, bytecodeSize)\n  dup1\n  bytecodeSize\n  dup4\n  codecopy\n  dup2\n  dup2\n  add\n  0x40\n  mstore\n  dup2\n  add\n  swap1\n  tag_2\n  swap2\n  swap1\n  tag_3\n  jump\t// in\ntag_2:\n    /* \"contracts/Vote2.sol\":525:535  msg.sender */\n  caller\n    /* \"contracts/Vote2.sol\":517:522  admin */\n  0x00\n  dup1\n    /* \"contracts/Vote2.sol\":517:535  admin = msg.sender */\n  0x0100\n  exp\n  dup2\n  sload\n  dup2\n  0xffffffffffffffffffffffffffffffffffffffff\n  mul\n  not\n  and\n  swap1\n  dup4\n  0xffffffffffffffffffffffffffffffffffffffff\n  and\n  mul\n  or\n  swap1\n  sstore\n  pop\n    /* \"contracts/Vote2.sol\":560:571  _totalFunds */\n  dup1\n    /* \"contracts/Vote2.sol\":547:557  totalFunds */\n  0x01\n    /* \"contracts/Vote2.sol\":547:571  totalFunds = _totalFunds */\n  dup2\n  swap1\n  sstore\n  pop\n    /* \"contracts/Vote2.sol\":473:579  constructor(uint256 _totalFunds) {... */\n  pop\n    /* \"contracts/Vote2.sol\":60:2776  contract CommunityVoting {... */\n  jump(tag_6)\n    /* \"#utility.yul\":88:205   */\ntag_8:\n    /* \"#utility.yul\":197:198   */\n  0x00\n    /* \"#utility.yul\":194:195   */\n  dup1\n    /* \"#utility.yul\":187:199   */\n  revert\n    /* \"#utility.yul\":334:411   */\ntag_10:\n    /* \"#utility.yul\":371:378   */\n  0x00\n    /* \"#utility.yul\":400:405   */\n  dup2\n    /* \"#utility.yul\":389:405   */\n  swap1\n  pop\n    /* \"#utility.yul\":334:411   */\n  swap2\n  swap1\n  pop\n  jump\t// out\n    /* \"#utility.yul\":417:539   */\ntag_11:\n    /* \"#utility.yul\":490:514   */\n  tag_19\n    /* \"#utility.yul\":508:513   */\n  dup2\n    /* \"#utility.yul\":490:514   */\n  tag_10\n  jump\t// in\ntag_19:\n    /* \"#utility.yul\":483:488   */\n  dup2\n    /* \"#utility.yul\":480:515   */\n  eq\n    /* \"#utility.yul\":470:533   */\n  tag_20\n  jumpi\n    /* \"#utility.yul\":529:530   */\n  0x00\n    /* \"#utility.yul\":526:527   */\n  dup1\n    /* \"#utility.yul\":519:531   */\n  revert\n    /* \"#utility.yul\":470:533   */\ntag_20:\n    /* \"#utility.yul\":417:539   */\n  pop\n  jump\t// out\n    /* \"#utility.yul\":545:688   */\ntag_12:\n    /* \"#utility.yul\":602:607   */\n  0x00\n    /* \"#utility.yul\":633:639   */\n  dup2\n    /* \"#utility.yul\":627:640   */\n  mload\n    /* \"#utility.yul\":618:640   */\n  swap1\n  pop\n    /* \"#utility.yul\":649:682   */\n  tag_22\n    /* \"#utility.yul\":676:681   */\n  dup2\n    /* \"#utility.yul\":649:682   */\n  tag_11\n  jump\t// in\ntag_22:\n    /* \"#utility.yul\":545:688   */\n  swap3\n  swap2\n  pop\n  pop\n  jump\t// out\n    /* \"#utility.yul\":694:1045   */\ntag_3:\n    /* \"#utility.yul\":764:770   */\n  0x00\n    /* \"#utility.yul\":813:815   */\n  0x20\n    /* \"#utility.yul\":801:810   */\n  dup3\n    /* \"#utility.yul\":792:799   */\n  dup5\n    /* \"#utility.yul\":788:811   */\n  sub\n    /* \"#utility.yul\":784:816   */\n  slt\n    /* \"#utility.yul\":781:900   */\n  iszero\n  tag_24\n  jumpi\n    /* \"#utility.yul\":819:898   */\n  tag_25\n  tag_8\n  jump\t// in\ntag_25:\n    /* \"#utility.yul\":781:900   */\ntag_24:\n    /* \"#utility.yul\":939:940   */\n  0x00\n    /* \"#utility.yul\":964:1028   */\n  tag_26\n    /* \"#utility.yul\":1020:1027   */\n  dup5\n    /* \"#utility.yul\":1011:1017   */\n  dup3\n    /* \"#utility.yul\":1000:1009   */\n  dup6\n    /* \"#utility.yul\":996:1018   */\n  add\n    /* \"#utility.yul\":964:1028   */\n  tag_12\n  jump\t// in\ntag_26:\n    /* \"#utility.yul\":954:1028   */\n  swap2\n  pop\n    /* \"#utility.yul\":910:1038   */\n  pop\n    /* \"#utility.yul\":694:1045   */\n  swap3\n  swap2\n  pop\n  pop\n  jump\t// out\n    /* \"contracts/Vote2.sol\":60:2776  contract CommunityVoting {... */\ntag_6:\n  dataSize(sub_0)\n  dup1\n  dataOffset(sub_0)\n  0x00\n  codecopy\n  0x00\n  return\nstop\n\nsub_0: assembly {\n        /* \"contracts/Vote2.sol\":60:2776  contract CommunityVoting {... */\n      mstore(0x40, 0x80)\n      callvalue\n      dup1\n      iszero\n      tag_1\n      jumpi\n      0x00\n      dup1\n      revert\n    tag_1:\n      pop\n      jumpi(tag_2, lt(calldatasize, 0x04))\n      shr(0xe0, calldataload(0x00))\n      dup1\n      0x968ed600\n      gt\n      tag_14\n      jumpi\n      dup1\n      0x968ed600\n      eq\n      tag_8\n      jumpi\n      dup1\n      0xa721ad59\n      eq\n      tag_9\n      jumpi\n      dup1\n      0xbdb1ad0f\n      eq\n      tag_10\n      jumpi\n      dup1\n      0xe4a8f18b\n      eq\n      tag_11\n      jumpi\n      dup1\n      0xf0f3f2c8\n      eq\n      tag_12\n      jumpi\n      dup1\n      0xf851a440\n      eq\n      tag_13\n      jumpi\n      jump(tag_2)\n    tag_14:\n      dup1\n      0x0c16d408\n      eq\n      tag_3\n      jumpi\n      dup1\n      0x107046bd\n      eq\n      tag_4\n      jumpi\n      dup1\n      0x1b605b86\n      eq\n      tag_5\n      jumpi\n      dup1\n      0x5df81330\n      eq\n      tag_6\n      jumpi\n      dup1\n      0x83a67d38\n      eq\n      tag_7\n      jumpi\n    tag_2:\n      0x00\n      dup1\n      revert\n        /* \"contracts/Vote2.sol\":798:1022  function proposeProject(string memory _description, uint256 _fundingGoal) public {... */\n    tag_3:\n      tag_15\n      0x04\n      dup1\n      calldatasize\n      sub\n      dup2\n      add\n      swap1\n      tag_16\n      swap2\n      swap1\n      tag_17\n      jump\t// in\n    tag_16:\n      tag_18\n      jump\t// in\n    tag_15:\n      stop\n        /* \"contracts/Vote2.sol\":411:436  Project[] public projects */\n    tag_4:\n      tag_19\n      0x04\n      dup1\n      calldatasize\n      sub\n      dup2\n      add\n      swap1\n      tag_20\n      swap2\n      swap1\n      tag_21\n      jump\t// in\n    tag_20:\n      tag_22\n      jump\t// in\n    tag_19:\n      mload(0x40)\n      tag_23\n      swap6\n      swap5\n      swap4\n      swap3\n      swap2\n      swap1\n      tag_24\n      jump\t// in\n    tag_23:\n      mload(0x40)\n      dup1\n      swap2\n      sub\n      swap1\n      return\n        /* \"contracts/Vote2.sol\":2680:2773  function getVotesCount() public view returns (uint256) {... */\n    tag_5:\n      tag_25\n      tag_26\n      jump\t// in\n    tag_25:\n      mload(0x40)\n      tag_27\n      swap2\n      swap1\n      tag_28\n      jump\t// in\n    tag_27:\n      mload(0x40)\n      dup1\n      swap2\n      sub\n      swap1\n      return\n        /* \"contracts/Vote2.sol\":445:464  Vote[] public votes */\n    tag_6:\n      tag_29\n      0x04\n      dup1\n      calldatasize\n      sub\n      dup2\n      add\n      swap1\n      tag_30\n      swap2\n      swap1\n      tag_21\n      jump\t// in\n    tag_30:\n      tag_31\n      jump\t// in\n    tag_29:\n      mload(0x40)\n      tag_32\n      swap3\n      swap2\n      swap1\n      tag_33\n      jump\t// in\n    tag_32:\n      mload(0x40)\n      dup1\n      swap2\n      sub\n      swap1\n      return\n        /* \"contracts/Vote2.sol\":1101:1562  function voteForProject(uint256 _projectId) public {... */\n    tag_7:\n      tag_34\n      0x04\n      dup1\n      calldatasize\n      sub\n      dup2\n      add\n      swap1\n      tag_35\n      swap2\n      swap1\n      tag_21\n      jump\t// in\n    tag_35:\n      tag_36\n      jump\t// in\n    tag_34:\n      stop\n        /* \"contracts/Vote2.sol\":120:145  uint256 public totalFunds */\n    tag_8:\n      tag_37\n      tag_38\n      jump\t// in\n    tag_37:\n      mload(0x40)\n      tag_39\n      swap2\n      swap1\n      tag_28\n      jump\t// in\n    tag_39:\n      mload(0x40)\n      dup1\n      swap2\n      sub\n      swap1\n      return\n        /* \"contracts/Vote2.sol\":1570:2095  function fundProjects() public onlyAdmin {... */\n    tag_9:\n      tag_40\n      tag_41\n      jump\t// in\n    tag_40:\n      stop\n        /* \"contracts/Vote2.sol\":2109:2222  function changeTotalFunds(uint256 _newTotalFunds) public onlyAdmin {... */\n    tag_10:\n      tag_42\n      0x04\n      dup1\n      calldatasize\n      sub\n      dup2\n      add\n      swap1\n      tag_43\n      swap2\n      swap1\n      tag_21\n      jump\t// in\n    tag_43:\n      tag_44\n      jump\t// in\n    tag_42:\n      stop\n        /* \"contracts/Vote2.sol\":2571:2670  function getProjectsCount() public view returns (uint256) {... */\n    tag_11:\n      tag_45\n      tag_46\n      jump\t// in\n    tag_45:\n      mload(0x40)\n      tag_47\n      swap2\n      swap1\n      tag_28\n      jump\t// in\n    tag_47:\n      mload(0x40)\n      dup1\n      swap2\n      sub\n      swap1\n      return\n        /* \"contracts/Vote2.sol\":2230:2561  function getProject(uint256 _projectId) public view returns (string memory, uint256, uint256, address) {... */\n    tag_12:\n      tag_48\n      0x04\n      dup1\n      calldatasize\n      sub\n      dup2\n      add\n      swap1\n      tag_49\n      swap2\n      swap1\n      tag_21\n      jump\t// in\n    tag_49:\n      tag_50\n      jump\t// in\n    tag_48:\n      mload(0x40)\n      tag_51\n      swap5\n      swap4\n      swap3\n      swap2\n      swap1\n      tag_52\n      jump\t// in\n    tag_51:\n      mload(0x40)\n      dup1\n      swap2\n      sub\n      swap1\n      return\n        /* \"contracts/Vote2.sol\":92:112  address public admin */\n    tag_13:\n      tag_53\n      tag_54\n      jump\t// in\n    tag_53:\n      mload(0x40)\n      tag_55\n      swap2\n      swap1\n      tag_56\n      jump\t// in\n    tag_55:\n      mload(0x40)\n      dup1\n      swap2\n      sub\n      swap1\n      return\n        /* \"contracts/Vote2.sol\":798:1022  function proposeProject(string memory _description, uint256 _fundingGoal) public {... */\n    tag_18:\n        /* \"contracts/Vote2.sol\":890:907  uint256 projectId */\n      0x00\n        /* \"contracts/Vote2.sol\":910:918  projects */\n      0x02\n        /* \"contracts/Vote2.sol\":910:925  projects.length */\n      dup1\n      sload\n      swap1\n      pop\n        /* \"contracts/Vote2.sol\":890:925  uint256 projectId = projects.length */\n      swap1\n      pop\n        /* \"contracts/Vote2.sol\":937:945  projects */\n      0x02\n        /* \"contracts/Vote2.sol\":951:1012  Project(projectId, _description, _fundingGoal, 0, msg.sender) */\n      mload(0x40)\n      dup1\n      0xa0\n      add\n      0x40\n      mstore\n      dup1\n        /* \"contracts/Vote2.sol\":959:968  projectId */\n      dup4\n        /* \"contracts/Vote2.sol\":951:1012  Project(projectId, _description, _fundingGoal, 0, msg.sender) */\n      dup2\n      mstore\n      0x20\n      add\n        /* \"contracts/Vote2.sol\":970:982  _description */\n      dup6\n        /* \"contracts/Vote2.sol\":951:1012  Project(projectId, _description, _fundingGoal, 0, msg.sender) */\n      dup2\n      mstore\n      0x20\n      add\n        /* \"contracts/Vote2.sol\":984:996  _fundingGoal */\n      dup5\n        /* \"contracts/Vote2.sol\":951:1012  Project(projectId, _description, _fundingGoal, 0, msg.sender) */\n      dup2\n      mstore\n      0x20\n      add\n        /* \"contracts/Vote2.sol\":998:999  0 */\n      0x00\n        /* \"contracts/Vote2.sol\":951:1012  Project(projectId, _description, _fundingGoal, 0, msg.sender) */\n      dup2\n      mstore\n      0x20\n      add\n        /* \"contracts/Vote2.sol\":1001:1011  msg.sender */\n      caller\n        /* \"contracts/Vote2.sol\":951:1012  Project(projectId, _description, _fundingGoal, 0, msg.sender) */\n      0xffffffffffffffffffffffffffffffffffffffff\n      and\n      dup2\n      mstore\n      pop\n        /* \"contracts/Vote2.sol\":937:1013  projects.push(Project(projectId, _description, _fundingGoal, 0, msg.sender)) */\n      swap1\n      dup1\n      0x01\n      dup2\n      sload\n      add\n      dup1\n      dup3\n      sstore\n      dup1\n      swap2\n      pop\n      pop\n      0x01\n      swap1\n      sub\n      swap1\n      0x00\n      mstore\n      keccak256(0x00, 0x20)\n      swap1\n      0x05\n      mul\n      add\n      0x00\n      swap1\n      swap2\n      swap1\n      swap2\n      swap1\n      swap2\n      pop\n      0x00\n      dup3\n      add\n      mload\n      dup2\n      0x00\n      add\n      sstore\n      0x20\n      dup3\n      add\n      mload\n      dup2\n      0x01\n      add\n      swap1\n      dup2\n      tag_59\n      swap2\n      swap1\n      tag_60\n      jump\t// in\n    tag_59:\n      pop\n      0x40\n      dup3\n      add\n      mload\n      dup2\n      0x02\n      add\n      sstore\n      0x60\n      dup3\n      add\n      mload\n      dup2\n      0x03\n      add\n      sstore\n      0x80\n      dup3\n      add\n      mload\n      dup2\n      0x04\n      add\n      exp(0x0100, 0x00)\n      dup2\n      sload\n      dup2\n      0xffffffffffffffffffffffffffffffffffffffff\n      mul\n      not\n      and\n      swap1\n      dup4\n      0xffffffffffffffffffffffffffffffffffffffff\n      and\n      mul\n      or\n      swap1\n      sstore\n      pop\n      pop\n      pop\n        /* \"contracts/Vote2.sol\":879:1022  {... */\n      pop\n        /* \"contracts/Vote2.sol\":798:1022  function proposeProject(string memory _description, uint256 _fundingGoal) public {... */\n      pop\n      pop\n      jump\t// out\n        /* \"contracts/Vote2.sol\":411:436  Project[] public projects */\n    tag_22:\n      0x02\n      dup2\n      dup2\n      sload\n      dup2\n      lt\n      tag_61\n      jumpi\n      0x00\n      dup1\n      revert\n    tag_61:\n      swap1\n      0x00\n      mstore\n      keccak256(0x00, 0x20)\n      swap1\n      0x05\n      mul\n      add\n      0x00\n      swap2\n      pop\n      swap1\n      pop\n      dup1\n      0x00\n      add\n      sload\n      swap1\n      dup1\n      0x01\n      add\n      dup1\n      sload\n      tag_63\n      swap1\n      tag_64\n      jump\t// in\n    tag_63:\n      dup1\n      0x1f\n      add\n      0x20\n      dup1\n      swap2\n      div\n      mul\n      0x20\n      add\n      mload(0x40)\n      swap1\n      dup2\n      add\n      0x40\n      mstore\n      dup1\n      swap3\n      swap2\n      swap1\n      dup2\n      dup2\n      mstore\n      0x20\n      add\n      dup3\n      dup1\n      sload\n      tag_65\n      swap1\n      tag_64\n      jump\t// in\n    tag_65:\n      dup1\n      iszero\n      tag_66\n      jumpi\n      dup1\n      0x1f\n      lt\n      tag_67\n      jumpi\n      0x0100\n      dup1\n      dup4\n      sload\n      div\n      mul\n      dup4\n      mstore\n      swap2\n      0x20\n      add\n      swap2\n      jump(tag_66)\n    tag_67:\n      dup3\n      add\n      swap2\n      swap1\n      0x00\n      mstore\n      keccak256(0x00, 0x20)\n      swap1\n    tag_68:\n      dup2\n      sload\n      dup2\n      mstore\n      swap1\n      0x01\n      add\n      swap1\n      0x20\n      add\n      dup1\n      dup4\n      gt\n      tag_68\n      jumpi\n      dup3\n      swap1\n      sub\n      0x1f\n      and\n      dup3\n      add\n      swap2\n    tag_66:\n      pop\n      pop\n      pop\n      pop\n      pop\n      swap1\n      dup1\n      0x02\n      add\n      sload\n      swap1\n      dup1\n      0x03\n      add\n      sload\n      swap1\n      dup1\n      0x04\n      add\n      0x00\n      swap1\n      sload\n      swap1\n      0x0100\n      exp\n      swap1\n      div\n      0xffffffffffffffffffffffffffffffffffffffff\n      and\n      swap1\n      pop\n      dup6\n      jump\t// out\n        /* \"contracts/Vote2.sol\":2680:2773  function getVotesCount() public view returns (uint256) {... */\n    tag_26:\n        /* \"contracts/Vote2.sol\":2726:2733  uint256 */\n      0x00\n        /* \"contracts/Vote2.sol\":2753:2758  votes */\n      0x03\n        /* \"contracts/Vote2.sol\":2753:2765  votes.length */\n      dup1\n      sload\n      swap1\n      pop\n        /* \"contracts/Vote2.sol\":2746:2765  return votes.length */\n      swap1\n      pop\n        /* \"contracts/Vote2.sol\":2680:2773  function getVotesCount() public view returns (uint256) {... */\n      swap1\n      jump\t// out\n        /* \"contracts/Vote2.sol\":445:464  Vote[] public votes */\n    tag_31:\n      0x03\n      dup2\n      dup2\n      sload\n      dup2\n      lt\n      tag_70\n      jumpi\n      0x00\n      dup1\n      revert\n    tag_70:\n      swap1\n      0x00\n      mstore\n      keccak256(0x00, 0x20)\n      swap1\n      0x02\n      mul\n      add\n      0x00\n      swap2\n      pop\n      swap1\n      pop\n      dup1\n      0x00\n      add\n      0x00\n      swap1\n      sload\n      swap1\n      0x0100\n      exp\n      swap1\n      div\n      0xffffffffffffffffffffffffffffffffffffffff\n      and\n      swap1\n      dup1\n      0x01\n      add\n      sload\n      swap1\n      pop\n      dup3\n      jump\t// out\n        /* \"contracts/Vote2.sol\":1101:1562  function voteForProject(uint256 _projectId) public {... */\n    tag_36:\n        /* \"contracts/Vote2.sol\":1184:1192  projects */\n      0x02\n        /* \"contracts/Vote2.sol\":1184:1199  projects.length */\n      dup1\n      sload\n      swap1\n      pop\n        /* \"contracts/Vote2.sol\":1171:1181  _projectId */\n      dup2\n        /* \"contracts/Vote2.sol\":1171:1199  _projectId < projects.length */\n      lt\n        /* \"contracts/Vote2.sol\":1163:1222  require(_projectId < projects.length, \"Invalid project ID\") */\n      tag_73\n      jumpi\n      mload(0x40)\n      0x08c379a000000000000000000000000000000000000000000000000000000000\n      dup2\n      mstore\n      0x04\n      add\n      tag_74\n      swap1\n      tag_75\n      jump\t// in\n    tag_74:\n      mload(0x40)\n      dup1\n      swap2\n      sub\n      swap1\n      revert\n    tag_73:\n        /* \"contracts/Vote2.sol\":1240:1249  uint256 i */\n      0x00\n        /* \"contracts/Vote2.sol\":1235:1458  for (uint256 i = 0; i < votes.length; i++) {... */\n    tag_76:\n        /* \"contracts/Vote2.sol\":1259:1264  votes */\n      0x03\n        /* \"contracts/Vote2.sol\":1259:1271  votes.length */\n      dup1\n      sload\n      swap1\n      pop\n        /* \"contracts/Vote2.sol\":1255:1256  i */\n      dup2\n        /* \"contracts/Vote2.sol\":1255:1271  i < votes.length */\n      lt\n        /* \"contracts/Vote2.sol\":1235:1458  for (uint256 i = 0; i < votes.length; i++) {... */\n      iszero\n      tag_77\n      jumpi\n        /* \"contracts/Vote2.sol\":1315:1325  msg.sender */\n      caller\n        /* \"contracts/Vote2.sol\":1297:1325  votes[i].voter == msg.sender */\n      0xffffffffffffffffffffffffffffffffffffffff\n      and\n        /* \"contracts/Vote2.sol\":1297:1302  votes */\n      0x03\n        /* \"contracts/Vote2.sol\":1303:1304  i */\n      dup3\n        /* \"contracts/Vote2.sol\":1297:1305  votes[i] */\n      dup2\n      sload\n      dup2\n      lt\n      tag_79\n      jumpi\n      tag_80\n      tag_81\n      jump\t// in\n    tag_80:\n    tag_79:\n      swap1\n      0x00\n      mstore\n      keccak256(0x00, 0x20)\n      swap1\n      0x02\n      mul\n      add\n        /* \"contracts/Vote2.sol\":1297:1311  votes[i].voter */\n      0x00\n      add\n      0x00\n      swap1\n      sload\n      swap1\n      0x0100\n      exp\n      swap1\n      div\n      0xffffffffffffffffffffffffffffffffffffffff\n      and\n        /* \"contracts/Vote2.sol\":1297:1325  votes[i].voter == msg.sender */\n      0xffffffffffffffffffffffffffffffffffffffff\n      and\n      eq\n        /* \"contracts/Vote2.sol\":1297:1361  votes[i].voter == msg.sender && votes[i].projectId == _projectId */\n      dup1\n      iszero\n      tag_83\n      jumpi\n      pop\n        /* \"contracts/Vote2.sol\":1351:1361  _projectId */\n      dup2\n        /* \"contracts/Vote2.sol\":1329:1334  votes */\n      0x03\n        /* \"contracts/Vote2.sol\":1335:1336  i */\n      dup3\n        /* \"contracts/Vote2.sol\":1329:1337  votes[i] */\n      dup2\n      sload\n      dup2\n      lt\n      tag_84\n      jumpi\n      tag_85\n      tag_81\n      jump\t// in\n    tag_85:\n    tag_84:\n      swap1\n      0x00\n      mstore\n      keccak256(0x00, 0x20)\n      swap1\n      0x02\n      mul\n      add\n        /* \"contracts/Vote2.sol\":1329:1347  votes[i].projectId */\n      0x01\n      add\n      sload\n        /* \"contracts/Vote2.sol\":1329:1361  votes[i].projectId == _projectId */\n      eq\n        /* \"contracts/Vote2.sol\":1297:1361  votes[i].voter == msg.sender && votes[i].projectId == _projectId */\n    tag_83:\n        /* \"contracts/Vote2.sol\":1293:1447  if (votes[i].voter == msg.sender && votes[i].projectId == _projectId) {... */\n      iszero\n      tag_87\n      jumpi\n        /* \"contracts/Vote2.sol\":1382:1431  revert(\"You have already voted for this project\") */\n      mload(0x40)\n      0x08c379a000000000000000000000000000000000000000000000000000000000\n      dup2\n      mstore\n      0x04\n      add\n      tag_88\n      swap1\n      tag_89\n      jump\t// in\n    tag_88:\n      mload(0x40)\n      dup1\n      swap2\n      sub\n      swap1\n      revert\n        /* \"contracts/Vote2.sol\":1293:1447  if (votes[i].voter == msg.sender && votes[i].projectId == _projectId) {... */\n    tag_87:\n        /* \"contracts/Vote2.sol\":1273:1276  i++ */\n      dup1\n      dup1\n      0x01\n      add\n      swap2\n      pop\n      pop\n        /* \"contracts/Vote2.sol\":1235:1458  for (uint256 i = 0; i < votes.length; i++) {... */\n      jump(tag_76)\n    tag_77:\n      pop\n        /* \"contracts/Vote2.sol\":1470:1475  votes */\n      0x03\n        /* \"contracts/Vote2.sol\":1481:1509  Vote(msg.sender, _projectId) */\n      mload(0x40)\n      dup1\n      0x40\n      add\n      0x40\n      mstore\n      dup1\n        /* \"contracts/Vote2.sol\":1486:1496  msg.sender */\n      caller\n        /* \"contracts/Vote2.sol\":1481:1509  Vote(msg.sender, _projectId) */\n      0xffffffffffffffffffffffffffffffffffffffff\n      and\n      dup2\n      mstore\n      0x20\n      add\n        /* \"contracts/Vote2.sol\":1498:1508  _projectId */\n      dup4\n        /* \"contracts/Vote2.sol\":1481:1509  Vote(msg.sender, _projectId) */\n      dup2\n      mstore\n      pop\n        /* \"contracts/Vote2.sol\":1470:1510  votes.push(Vote(msg.sender, _projectId)) */\n      swap1\n      dup1\n      0x01\n      dup2\n      sload\n      add\n      dup1\n      dup3\n      sstore\n      dup1\n      swap2\n      pop\n      pop\n      0x01\n      swap1\n      sub\n      swap1\n      0x00\n      mstore\n      keccak256(0x00, 0x20)\n      swap1\n      0x02\n      mul\n      add\n      0x00\n      swap1\n      swap2\n      swap1\n      swap2\n      swap1\n      swap2\n      pop\n      0x00\n      dup3\n      add\n      mload\n      dup2\n      0x00\n      add\n      exp(0x0100, 0x00)\n      dup2\n      sload\n      dup2\n      0xffffffffffffffffffffffffffffffffffffffff\n      mul\n      not\n      and\n      swap1\n      dup4\n      0xffffffffffffffffffffffffffffffffffffffff\n      and\n      mul\n      or\n      swap1\n      sstore\n      pop\n      0x20\n      dup3\n      add\n      mload\n      dup2\n      0x01\n      add\n      sstore\n      pop\n      pop\n        /* \"contracts/Vote2.sol\":1553:1554  1 */\n      0x01\n        /* \"contracts/Vote2.sol\":1523:1531  projects */\n      0x02\n        /* \"contracts/Vote2.sol\":1532:1542  _projectId */\n      dup3\n        /* \"contracts/Vote2.sol\":1523:1543  projects[_projectId] */\n      dup2\n      sload\n      dup2\n      lt\n      tag_91\n      jumpi\n      tag_92\n      tag_81\n      jump\t// in\n    tag_92:\n    tag_91:\n      swap1\n      0x00\n      mstore\n      keccak256(0x00, 0x20)\n      swap1\n      0x05\n      mul\n      add\n        /* \"contracts/Vote2.sol\":1523:1549  projects[_projectId].votes */\n      0x03\n      add\n      0x00\n        /* \"contracts/Vote2.sol\":1523:1554  projects[_projectId].votes += 1 */\n      dup3\n      dup3\n      sload\n      tag_94\n      swap2\n      swap1\n      tag_95\n      jump\t// in\n    tag_94:\n      swap3\n      pop\n      pop\n      dup2\n      swap1\n      sstore\n      pop\n        /* \"contracts/Vote2.sol\":1101:1562  function voteForProject(uint256 _projectId) public {... */\n      pop\n      jump\t// out\n        /* \"contracts/Vote2.sol\":120:145  uint256 public totalFunds */\n    tag_38:\n      sload(0x01)\n      dup2\n      jump\t// out\n        /* \"contracts/Vote2.sol\":1570:2095  function fundProjects() public onlyAdmin {... */\n    tag_41:\n        /* \"contracts/Vote2.sol\":643:648  admin */\n      0x00\n      dup1\n      sload\n      swap1\n      0x0100\n      exp\n      swap1\n      div\n      0xffffffffffffffffffffffffffffffffffffffff\n      and\n        /* \"contracts/Vote2.sol\":629:648  msg.sender == admin */\n      0xffffffffffffffffffffffffffffffffffffffff\n      and\n        /* \"contracts/Vote2.sol\":629:639  msg.sender */\n      caller\n        /* \"contracts/Vote2.sol\":629:648  msg.sender == admin */\n      0xffffffffffffffffffffffffffffffffffffffff\n      and\n      eq\n        /* \"contracts/Vote2.sol\":621:687  require(msg.sender == admin, \"Only admin can perform this action\") */\n      tag_97\n      jumpi\n      mload(0x40)\n      0x08c379a000000000000000000000000000000000000000000000000000000000\n      dup2\n      mstore\n      0x04\n      add\n      tag_98\n      swap1\n      tag_99\n      jump\t// in\n    tag_98:\n      mload(0x40)\n      dup1\n      swap2\n      sub\n      swap1\n      revert\n    tag_97:\n        /* \"contracts/Vote2.sol\":1622:1640  uint256 totalVotes */\n      0x00\n        /* \"contracts/Vote2.sol\":1662:1671  uint256 i */\n      dup1\n        /* \"contracts/Vote2.sol\":1657:1761  for (uint256 i = 0; i < projects.length; i++) {... */\n    tag_101:\n        /* \"contracts/Vote2.sol\":1681:1689  projects */\n      0x02\n        /* \"contracts/Vote2.sol\":1681:1696  projects.length */\n      dup1\n      sload\n      swap1\n      pop\n        /* \"contracts/Vote2.sol\":1677:1678  i */\n      dup2\n        /* \"contracts/Vote2.sol\":1677:1696  i < projects.length */\n      lt\n        /* \"contracts/Vote2.sol\":1657:1761  for (uint256 i = 0; i < projects.length; i++) {... */\n      iszero\n      tag_102\n      jumpi\n        /* \"contracts/Vote2.sol\":1732:1740  projects */\n      0x02\n        /* \"contracts/Vote2.sol\":1741:1742  i */\n      dup2\n        /* \"contracts/Vote2.sol\":1732:1743  projects[i] */\n      dup2\n      sload\n      dup2\n      lt\n      tag_104\n      jumpi\n      tag_105\n      tag_81\n      jump\t// in\n    tag_105:\n    tag_104:\n      swap1\n      0x00\n      mstore\n      keccak256(0x00, 0x20)\n      swap1\n      0x05\n      mul\n      add\n        /* \"contracts/Vote2.sol\":1732:1749  projects[i].votes */\n      0x03\n      add\n      sload\n        /* \"contracts/Vote2.sol\":1718:1749  totalVotes += projects[i].votes */\n      dup3\n      tag_107\n      swap2\n      swap1\n      tag_95\n      jump\t// in\n    tag_107:\n      swap2\n      pop\n        /* \"contracts/Vote2.sol\":1698:1701  i++ */\n      dup1\n      dup1\n      0x01\n      add\n      swap2\n      pop\n      pop\n        /* \"contracts/Vote2.sol\":1657:1761  for (uint256 i = 0; i < projects.length; i++) {... */\n      jump(tag_101)\n    tag_102:\n      pop\n        /* \"contracts/Vote2.sol\":1778:1787  uint256 i */\n      0x00\n        /* \"contracts/Vote2.sol\":1773:2088  for (uint256 i = 0; i < projects.length; i++) {... */\n    tag_108:\n        /* \"contracts/Vote2.sol\":1797:1805  projects */\n      0x02\n        /* \"contracts/Vote2.sol\":1797:1812  projects.length */\n      dup1\n      sload\n      swap1\n      pop\n        /* \"contracts/Vote2.sol\":1793:1794  i */\n      dup2\n        /* \"contracts/Vote2.sol\":1793:1812  i < projects.length */\n      lt\n        /* \"contracts/Vote2.sol\":1773:2088  for (uint256 i = 0; i < projects.length; i++) {... */\n      iszero\n      tag_109\n      jumpi\n        /* \"contracts/Vote2.sol\":1834:1857  Project storage project */\n      0x00\n        /* \"contracts/Vote2.sol\":1860:1868  projects */\n      0x02\n        /* \"contracts/Vote2.sol\":1869:1870  i */\n      dup3\n        /* \"contracts/Vote2.sol\":1860:1871  projects[i] */\n      dup2\n      sload\n      dup2\n      lt\n      tag_111\n      jumpi\n      tag_112\n      tag_81\n      jump\t// in\n    tag_112:\n    tag_111:\n      swap1\n      0x00\n      mstore\n      keccak256(0x00, 0x20)\n      swap1\n      0x05\n      mul\n      add\n        /* \"contracts/Vote2.sol\":1834:1871  Project storage project = projects[i] */\n      swap1\n      pop\n        /* \"contracts/Vote2.sol\":1906:1907  0 */\n      0x00\n        /* \"contracts/Vote2.sol\":1890:1897  project */\n      dup2\n        /* \"contracts/Vote2.sol\":1890:1903  project.votes */\n      0x03\n      add\n      sload\n        /* \"contracts/Vote2.sol\":1890:1907  project.votes > 0 */\n      gt\n        /* \"contracts/Vote2.sol\":1886:2077  if (project.votes > 0) {... */\n      iszero\n      tag_114\n      jumpi\n        /* \"contracts/Vote2.sol\":1928:1949  uint256 fundingAmount */\n      0x00\n        /* \"contracts/Vote2.sol\":1983:1993  totalVotes */\n      dup4\n        /* \"contracts/Vote2.sol\":1969:1979  totalFunds */\n      sload(0x01)\n        /* \"contracts/Vote2.sol\":1953:1960  project */\n      dup4\n        /* \"contracts/Vote2.sol\":1953:1966  project.votes */\n      0x03\n      add\n      sload\n        /* \"contracts/Vote2.sol\":1953:1979  project.votes * totalFunds */\n      tag_115\n      swap2\n      swap1\n      tag_116\n      jump\t// in\n    tag_115:\n        /* \"contracts/Vote2.sol\":1952:1993  (project.votes * totalFunds) / totalVotes */\n      tag_117\n      swap2\n      swap1\n      tag_118\n      jump\t// in\n    tag_117:\n        /* \"contracts/Vote2.sol\":1928:1993  uint256 fundingAmount = (project.votes * totalFunds) / totalVotes */\n      swap1\n      pop\n        /* \"contracts/Vote2.sol\":2020:2027  project */\n      dup2\n        /* \"contracts/Vote2.sol\":2020:2036  project.proposer */\n      0x04\n      add\n      0x00\n      swap1\n      sload\n      swap1\n      0x0100\n      exp\n      swap1\n      div\n      0xffffffffffffffffffffffffffffffffffffffff\n      and\n        /* \"contracts/Vote2.sol\":2012:2046  payable(project.proposer).transfer */\n      0xffffffffffffffffffffffffffffffffffffffff\n      and\n        /* \"contracts/Vote2.sol\":2012:2061  payable(project.proposer).transfer(fundingAmount) */\n      0x08fc\n        /* \"contracts/Vote2.sol\":2047:2060  fundingAmount */\n      dup3\n        /* \"contracts/Vote2.sol\":2012:2061  payable(project.proposer).transfer(fundingAmount) */\n      swap1\n      dup2\n      iszero\n      mul\n      swap1\n      mload(0x40)\n      0x00\n      mload(0x40)\n      dup1\n      dup4\n      sub\n      dup2\n      dup6\n      dup9\n      dup9\n      call\n      swap4\n      pop\n      pop\n      pop\n      pop\n      iszero\n      dup1\n      iszero\n      tag_120\n      jumpi\n      returndatasize\n      0x00\n      dup1\n      returndatacopy\n      revert(0x00, returndatasize)\n    tag_120:\n      pop\n        /* \"contracts/Vote2.sol\":1909:2077  {... */\n      pop\n        /* \"contracts/Vote2.sol\":1886:2077  if (project.votes > 0) {... */\n    tag_114:\n        /* \"contracts/Vote2.sol\":1819:2088  {... */\n      pop\n        /* \"contracts/Vote2.sol\":1814:1817  i++ */\n      dup1\n      dup1\n      0x01\n      add\n      swap2\n      pop\n      pop\n        /* \"contracts/Vote2.sol\":1773:2088  for (uint256 i = 0; i < projects.length; i++) {... */\n      jump(tag_108)\n    tag_109:\n      pop\n        /* \"contracts/Vote2.sol\":1611:2095  {... */\n      pop\n        /* \"contracts/Vote2.sol\":1570:2095  function fundProjects() public onlyAdmin {... */\n      jump\t// out\n        /* \"contracts/Vote2.sol\":2109:2222  function changeTotalFunds(uint256 _newTotalFunds) public onlyAdmin {... */\n    tag_44:\n        /* \"contracts/Vote2.sol\":643:648  admin */\n      0x00\n      dup1\n      sload\n      swap1\n      0x0100\n      exp\n      swap1\n      div\n      0xffffffffffffffffffffffffffffffffffffffff\n      and\n        /* \"contracts/Vote2.sol\":629:648  msg.sender == admin */\n      0xffffffffffffffffffffffffffffffffffffffff\n      and\n        /* \"contracts/Vote2.sol\":629:639  msg.sender */\n      caller\n        /* \"contracts/Vote2.sol\":629:648  msg.sender == admin */\n      0xffffffffffffffffffffffffffffffffffffffff\n      and\n      eq\n        /* \"contracts/Vote2.sol\":621:687  require(msg.sender == admin, \"Only admin can perform this action\") */\n      tag_122\n      jumpi\n      mload(0x40)\n      0x08c379a000000000000000000000000000000000000000000000000000000000\n      dup2\n      mstore\n      0x04\n      add\n      tag_123\n      swap1\n      tag_99\n      jump\t// in\n    tag_123:\n      mload(0x40)\n      dup1\n      swap2\n      sub\n      swap1\n      revert\n    tag_122:\n        /* \"contracts/Vote2.sol\":2200:2214  _newTotalFunds */\n      dup1\n        /* \"contracts/Vote2.sol\":2187:2197  totalFunds */\n      0x01\n        /* \"contracts/Vote2.sol\":2187:2214  totalFunds = _newTotalFunds */\n      dup2\n      swap1\n      sstore\n      pop\n        /* \"contracts/Vote2.sol\":2109:2222  function changeTotalFunds(uint256 _newTotalFunds) public onlyAdmin {... */\n      pop\n      jump\t// out\n        /* \"contracts/Vote2.sol\":2571:2670  function getProjectsCount() public view returns (uint256) {... */\n    tag_46:\n        /* \"contracts/Vote2.sol\":2620:2627  uint256 */\n      0x00\n        /* \"contracts/Vote2.sol\":2647:2655  projects */\n      0x02\n        /* \"contracts/Vote2.sol\":2647:2662  projects.length */\n      dup1\n      sload\n      swap1\n      pop\n        /* \"contracts/Vote2.sol\":2640:2662  return projects.length */\n      swap1\n      pop\n        /* \"contracts/Vote2.sol\":2571:2670  function getProjectsCount() public view returns (uint256) {... */\n      swap1\n      jump\t// out\n        /* \"contracts/Vote2.sol\":2230:2561  function getProject(uint256 _projectId) public view returns (string memory, uint256, uint256, address) {... */\n    tag_50:\n        /* \"contracts/Vote2.sol\":2291:2304  string memory */\n      0x60\n        /* \"contracts/Vote2.sol\":2306:2313  uint256 */\n      0x00\n        /* \"contracts/Vote2.sol\":2315:2322  uint256 */\n      dup1\n        /* \"contracts/Vote2.sol\":2324:2331  address */\n      0x00\n        /* \"contracts/Vote2.sol\":2365:2373  projects */\n      0x02\n        /* \"contracts/Vote2.sol\":2365:2380  projects.length */\n      dup1\n      sload\n      swap1\n      pop\n        /* \"contracts/Vote2.sol\":2352:2362  _projectId */\n      dup6\n        /* \"contracts/Vote2.sol\":2352:2380  _projectId < projects.length */\n      lt\n        /* \"contracts/Vote2.sol\":2344:2403  require(_projectId < projects.length, \"Invalid project ID\") */\n      tag_127\n      jumpi\n      mload(0x40)\n      0x08c379a000000000000000000000000000000000000000000000000000000000\n      dup2\n      mstore\n      0x04\n      add\n      tag_128\n      swap1\n      tag_75\n      jump\t// in\n    tag_128:\n      mload(0x40)\n      dup1\n      swap2\n      sub\n      swap1\n      revert\n    tag_127:\n        /* \"contracts/Vote2.sol\":2414:2437  Project storage project */\n      0x00\n        /* \"contracts/Vote2.sol\":2440:2448  projects */\n      0x02\n        /* \"contracts/Vote2.sol\":2449:2459  _projectId */\n      dup7\n        /* \"contracts/Vote2.sol\":2440:2460  projects[_projectId] */\n      dup2\n      sload\n      dup2\n      lt\n      tag_129\n      jumpi\n      tag_130\n      tag_81\n      jump\t// in\n    tag_130:\n    tag_129:\n      swap1\n      0x00\n      mstore\n      keccak256(0x00, 0x20)\n      swap1\n      0x05\n      mul\n      add\n        /* \"contracts/Vote2.sol\":2414:2460  Project storage project = projects[_projectId] */\n      swap1\n      pop\n        /* \"contracts/Vote2.sol\":2479:2486  project */\n      dup1\n        /* \"contracts/Vote2.sol\":2479:2498  project.description */\n      0x01\n      add\n        /* \"contracts/Vote2.sol\":2500:2507  project */\n      dup2\n        /* \"contracts/Vote2.sol\":2500:2519  project.fundingGoal */\n      0x02\n      add\n      sload\n        /* \"contracts/Vote2.sol\":2521:2528  project */\n      dup3\n        /* \"contracts/Vote2.sol\":2521:2534  project.votes */\n      0x03\n      add\n      sload\n        /* \"contracts/Vote2.sol\":2536:2543  project */\n      dup4\n        /* \"contracts/Vote2.sol\":2536:2552  project.proposer */\n      0x04\n      add\n      0x00\n      swap1\n      sload\n      swap1\n      0x0100\n      exp\n      swap1\n      div\n      0xffffffffffffffffffffffffffffffffffffffff\n      and\n        /* \"contracts/Vote2.sol\":2471:2553  return (project.description, project.fundingGoal, project.votes, project.proposer) */\n      dup4\n      dup1\n      sload\n      tag_132\n      swap1\n      tag_64\n      jump\t// in\n    tag_132:\n      dup1\n      0x1f\n      add\n      0x20\n      dup1\n      swap2\n      div\n      mul\n      0x20\n      add\n      mload(0x40)\n      swap1\n      dup2\n      add\n      0x40\n      mstore\n      dup1\n      swap3\n      swap2\n      swap1\n      dup2\n      dup2\n      mstore\n      0x20\n      add\n      dup3\n      dup1\n      sload\n      tag_133\n      swap1\n      tag_64\n      jump\t// in\n    tag_133:\n      dup1\n      iszero\n      tag_134\n      jumpi\n      dup1\n      0x1f\n      lt\n      tag_135\n      jumpi\n      0x0100\n      dup1\n      dup4\n      sload\n      div\n      mul\n      dup4\n      mstore\n      swap2\n      0x20\n      add\n      swap2\n      jump(tag_134)\n    tag_135:\n      dup3\n      add\n      swap2\n      swap1\n      0x00\n      mstore\n      keccak256(0x00, 0x20)\n      swap1\n    tag_136:\n      dup2\n      sload\n      dup2\n      mstore\n      swap1\n      0x01\n      add\n      swap1\n      0x20\n      add\n      dup1\n      dup4\n      gt\n      tag_136\n      jumpi\n      dup3\n      swap1\n      sub\n      0x1f\n      and\n      dup3\n      add\n      swap2\n    tag_134:\n      pop\n      pop\n      pop\n      pop\n      pop\n      swap4\n      pop\n      swap5\n      pop\n      swap5\n      pop\n      swap5\n      pop\n      swap5\n      pop\n      pop\n        /* \"contracts/Vote2.sol\":2230:2561  function getProject(uint256 _projectId) public view returns (string memory, uint256, uint256, address) {... */\n      swap2\n      swap4\n      pop\n      swap2\n      swap4\n      jump\t// out\n        /* \"contracts/Vote2.sol\":92:112  address public admin */\n    tag_54:\n      0x00\n      dup1\n      sload\n      swap1\n      0x0100\n      exp\n      swap1\n      div\n      0xffffffffffffffffffffffffffffffffffffffff\n      and\n      dup2\n      jump\t// out\n        /* \"#utility.yul\":7:82   */\n    tag_137:\n        /* \"#utility.yul\":40:46   */\n      0x00\n        /* \"#utility.yul\":73:75   */\n      0x40\n        /* \"#utility.yul\":67:76   */\n      mload\n        /* \"#utility.yul\":57:76   */\n      swap1\n      pop\n        /* \"#utility.yul\":7:82   */\n      swap1\n      jump\t// out\n        /* \"#utility.yul\":88:205   */\n    tag_138:\n        /* \"#utility.yul\":197:198   */\n      0x00\n        /* \"#utility.yul\":194:195   */\n      dup1\n        /* \"#utility.yul\":187:199   */\n      revert\n        /* \"#utility.yul\":211:328   */\n    tag_139:\n        /* \"#utility.yul\":320:321   */\n      0x00\n        /* \"#utility.yul\":317:318   */\n      dup1\n        /* \"#utility.yul\":310:322   */\n      revert\n        /* \"#utility.yul\":334:451   */\n    tag_140:\n        /* \"#utility.yul\":443:444   */\n      0x00\n        /* \"#utility.yul\":440:441   */\n      dup1\n        /* \"#utility.yul\":433:445   */\n      revert\n        /* \"#utility.yul\":457:574   */\n    tag_141:\n        /* \"#utility.yul\":566:567   */\n      0x00\n        /* \"#utility.yul\":563:564   */\n      dup1\n        /* \"#utility.yul\":556:568   */\n      revert\n        /* \"#utility.yul\":580:682   */\n    tag_142:\n        /* \"#utility.yul\":621:627   */\n      0x00\n        /* \"#utility.yul\":672:674   */\n      0x1f\n        /* \"#utility.yul\":668:675   */\n      not\n        /* \"#utility.yul\":663:665   */\n      0x1f\n        /* \"#utility.yul\":656:661   */\n      dup4\n        /* \"#utility.yul\":652:666   */\n      add\n        /* \"#utility.yul\":648:676   */\n      and\n        /* \"#utility.yul\":638:676   */\n      swap1\n      pop\n        /* \"#utility.yul\":580:682   */\n      swap2\n      swap1\n      pop\n      jump\t// out\n        /* \"#utility.yul\":688:868   */\n    tag_143:\n        /* \"#utility.yul\":736:813   */\n      0x4e487b7100000000000000000000000000000000000000000000000000000000\n        /* \"#utility.yul\":733:734   */\n      0x00\n        /* \"#utility.yul\":726:814   */\n      mstore\n        /* \"#utility.yul\":833:837   */\n      0x41\n        /* \"#utility.yul\":830:831   */\n      0x04\n        /* \"#utility.yul\":823:838   */\n      mstore\n        /* \"#utility.yul\":857:861   */\n      0x24\n        /* \"#utility.yul\":854:855   */\n      0x00\n        /* \"#utility.yul\":847:862   */\n      revert\n        /* \"#utility.yul\":874:1155   */\n    tag_144:\n        /* \"#utility.yul\":957:984   */\n      tag_194\n        /* \"#utility.yul\":979:983   */\n      dup3\n        /* \"#utility.yul\":957:984   */\n      tag_142\n      jump\t// in\n    tag_194:\n        /* \"#utility.yul\":949:955   */\n      dup2\n        /* \"#utility.yul\":945:985   */\n      add\n        /* \"#utility.yul\":1087:1093   */\n      dup2\n        /* \"#utility.yul\":1075:1085   */\n      dup2\n        /* \"#utility.yul\":1072:1094   */\n      lt\n        /* \"#utility.yul\":1051:1069   */\n      0xffffffffffffffff\n        /* \"#utility.yul\":1039:1049   */\n      dup3\n        /* \"#utility.yul\":1036:1070   */\n      gt\n        /* \"#utility.yul\":1033:1095   */\n      or\n        /* \"#utility.yul\":1030:1118   */\n      iszero\n      tag_195\n      jumpi\n        /* \"#utility.yul\":1098:1116   */\n      tag_196\n      tag_143\n      jump\t// in\n    tag_196:\n        /* \"#utility.yul\":1030:1118   */\n    tag_195:\n        /* \"#utility.yul\":1138:1148   */\n      dup1\n        /* \"#utility.yul\":1134:1136   */\n      0x40\n        /* \"#utility.yul\":1127:1149   */\n      mstore\n        /* \"#utility.yul\":917:1155   */\n      pop\n        /* \"#utility.yul\":874:1155   */\n      pop\n      pop\n      jump\t// out\n        /* \"#utility.yul\":1161:1290   */\n    tag_145:\n        /* \"#utility.yul\":1195:1201   */\n      0x00\n        /* \"#utility.yul\":1222:1242   */\n      tag_198\n      tag_137\n      jump\t// in\n    tag_198:\n        /* \"#utility.yul\":1212:1242   */\n      swap1\n      pop\n        /* \"#utility.yul\":1251:1284   */\n      tag_199\n        /* \"#utility.yul\":1279:1283   */\n      dup3\n        /* \"#utility.yul\":1271:1277   */\n      dup3\n        /* \"#utility.yul\":1251:1284   */\n      tag_144\n      jump\t// in\n    tag_199:\n        /* \"#utility.yul\":1161:1290   */\n      swap2\n      swap1\n      pop\n      jump\t// out\n        /* \"#utility.yul\":1296:1604   */\n    tag_146:\n        /* \"#utility.yul\":1358:1362   */\n      0x00\n        /* \"#utility.yul\":1448:1466   */\n      0xffffffffffffffff\n        /* \"#utility.yul\":1440:1446   */\n      dup3\n        /* \"#utility.yul\":1437:1467   */\n      gt\n        /* \"#utility.yul\":1434:1490   */\n      iszero\n      tag_201\n      jumpi\n        /* \"#utility.yul\":1470:1488   */\n      tag_202\n      tag_143\n      jump\t// in\n    tag_202:\n        /* \"#utility.yul\":1434:1490   */\n    tag_201:\n        /* \"#utility.yul\":1508:1537   */\n      tag_203\n        /* \"#utility.yul\":1530:1536   */\n      dup3\n        /* \"#utility.yul\":1508:1537   */\n      tag_142\n      jump\t// in\n    tag_203:\n        /* \"#utility.yul\":1500:1537   */\n      swap1\n      pop\n        /* \"#utility.yul\":1592:1596   */\n      0x20\n        /* \"#utility.yul\":1586:1590   */\n      dup2\n        /* \"#utility.yul\":1582:1597   */\n      add\n        /* \"#utility.yul\":1574:1597   */\n      swap1\n      pop\n        /* \"#utility.yul\":1296:1604   */\n      swap2\n      swap1\n      pop\n      jump\t// out\n        /* \"#utility.yul\":1610:1758   */\n    tag_147:\n        /* \"#utility.yul\":1708:1714   */\n      dup3\n        /* \"#utility.yul\":1703:1706   */\n      dup2\n        /* \"#utility.yul\":1698:1701   */\n      dup4\n        /* \"#utility.yul\":1685:1715   */\n      calldatacopy\n        /* \"#utility.yul\":1749:1750   */\n      0x00\n        /* \"#utility.yul\":1740:1746   */\n      dup4\n        /* \"#utility.yul\":1735:1738   */\n      dup4\n        /* \"#utility.yul\":1731:1747   */\n      add\n        /* \"#utility.yul\":1724:1751   */\n      mstore\n        /* \"#utility.yul\":1610:1758   */\n      pop\n      pop\n      pop\n      jump\t// out\n        /* \"#utility.yul\":1764:2189   */\n    tag_148:\n        /* \"#utility.yul\":1842:1847   */\n      0x00\n        /* \"#utility.yul\":1867:1933   */\n      tag_206\n        /* \"#utility.yul\":1883:1932   */\n      tag_207\n        /* \"#utility.yul\":1925:1931   */\n      dup5\n        /* \"#utility.yul\":1883:1932   */\n      tag_146\n      jump\t// in\n    tag_207:\n        /* \"#utility.yul\":1867:1933   */\n      tag_145\n      jump\t// in\n    tag_206:\n        /* \"#utility.yul\":1858:1933   */\n      swap1\n      pop\n        /* \"#utility.yul\":1956:1962   */\n      dup3\n        /* \"#utility.yul\":1949:1954   */\n      dup2\n        /* \"#utility.yul\":1942:1963   */\n      mstore\n        /* \"#utility.yul\":1994:1998   */\n      0x20\n        /* \"#utility.yul\":1987:1992   */\n      dup2\n        /* \"#utility.yul\":1983:1999   */\n      add\n        /* \"#utility.yul\":2032:2035   */\n      dup5\n        /* \"#utility.yul\":2023:2029   */\n      dup5\n        /* \"#utility.yul\":2018:2021   */\n      dup5\n        /* \"#utility.yul\":2014:2030   */\n      add\n        /* \"#utility.yul\":2011:2036   */\n      gt\n        /* \"#utility.yul\":2008:2120   */\n      iszero\n      tag_208\n      jumpi\n        /* \"#utility.yul\":2039:2118   */\n      tag_209\n      tag_141\n      jump\t// in\n    tag_209:\n        /* \"#utility.yul\":2008:2120   */\n    tag_208:\n        /* \"#utility.yul\":2129:2183   */\n      tag_210\n        /* \"#utility.yul\":2176:2182   */\n      dup5\n        /* \"#utility.yul\":2171:2174   */\n      dup3\n        /* \"#utility.yul\":2166:2169   */\n      dup6\n        /* \"#utility.yul\":2129:2183   */\n      tag_147\n      jump\t// in\n    tag_210:\n        /* \"#utility.yul\":1848:2189   */\n      pop\n        /* \"#utility.yul\":1764:2189   */\n      swap4\n      swap3\n      pop\n      pop\n      pop\n      jump\t// out\n        /* \"#utility.yul\":2209:2549   */\n    tag_149:\n        /* \"#utility.yul\":2265:2270   */\n      0x00\n        /* \"#utility.yul\":2314:2317   */\n      dup3\n        /* \"#utility.yul\":2307:2311   */\n      0x1f\n        /* \"#utility.yul\":2299:2305   */\n      dup4\n        /* \"#utility.yul\":2295:2312   */\n      add\n        /* \"#utility.yul\":2291:2318   */\n      slt\n        /* \"#utility.yul\":2281:2403   */\n      tag_212\n      jumpi\n        /* \"#utility.yul\":2322:2401   */\n      tag_213\n      tag_140\n      jump\t// in\n    tag_213:\n        /* \"#utility.yul\":2281:2403   */\n    tag_212:\n        /* \"#utility.yul\":2439:2445   */\n      dup2\n        /* \"#utility.yul\":2426:2446   */\n      calldataload\n        /* \"#utility.yul\":2464:2543   */\n      tag_214\n        /* \"#utility.yul\":2539:2542   */\n      dup5\n        /* \"#utility.yul\":2531:2537   */\n      dup3\n        /* \"#utility.yul\":2524:2528   */\n      0x20\n        /* \"#utility.yul\":2516:2522   */\n      dup7\n        /* \"#utility.yul\":2512:2529   */\n      add\n        /* \"#utility.yul\":2464:2543   */\n      tag_148\n      jump\t// in\n    tag_214:\n        /* \"#utility.yul\":2455:2543   */\n      swap2\n      pop\n        /* \"#utility.yul\":2271:2549   */\n      pop\n        /* \"#utility.yul\":2209:2549   */\n      swap3\n      swap2\n      pop\n      pop\n      jump\t// out\n        /* \"#utility.yul\":2555:2632   */\n    tag_150:\n        /* \"#utility.yul\":2592:2599   */\n      0x00\n        /* \"#utility.yul\":2621:2626   */\n      dup2\n        /* \"#utility.yul\":2610:2626   */\n      swap1\n      pop\n        /* \"#utility.yul\":2555:2632   */\n      swap2\n      swap1\n      pop\n      jump\t// out\n        /* \"#utility.yul\":2638:2760   */\n    tag_151:\n        /* \"#utility.yul\":2711:2735   */\n      tag_217\n        /* \"#utility.yul\":2729:2734   */\n      dup2\n        /* \"#utility.yul\":2711:2735   */\n      tag_150\n      jump\t// in\n    tag_217:\n        /* \"#utility.yul\":2704:2709   */\n      dup2\n        /* \"#utility.yul\":2701:2736   */\n      eq\n        /* \"#utility.yul\":2691:2754   */\n      tag_218\n      jumpi\n        /* \"#utility.yul\":2750:2751   */\n      0x00\n        /* \"#utility.yul\":2747:2748   */\n      dup1\n        /* \"#utility.yul\":2740:2752   */\n      revert\n        /* \"#utility.yul\":2691:2754   */\n    tag_218:\n        /* \"#utility.yul\":2638:2760   */\n      pop\n      jump\t// out\n        /* \"#utility.yul\":2766:2905   */\n    tag_152:\n        /* \"#utility.yul\":2812:2817   */\n      0x00\n        /* \"#utility.yul\":2850:2856   */\n      dup2\n        /* \"#utility.yul\":2837:2857   */\n      calldataload\n        /* \"#utility.yul\":2828:2857   */\n      swap1\n      pop\n        /* \"#utility.yul\":2866:2899   */\n      tag_220\n        /* \"#utility.yul\":2893:2898   */\n      dup2\n        /* \"#utility.yul\":2866:2899   */\n      tag_151\n      jump\t// in\n    tag_220:\n        /* \"#utility.yul\":2766:2905   */\n      swap3\n      swap2\n      pop\n      pop\n      jump\t// out\n        /* \"#utility.yul\":2911:3565   */\n    tag_17:\n        /* \"#utility.yul\":2989:2995   */\n      0x00\n        /* \"#utility.yul\":2997:3003   */\n      dup1\n        /* \"#utility.yul\":3046:3048   */\n      0x40\n        /* \"#utility.yul\":3034:3043   */\n      dup4\n        /* \"#utility.yul\":3025:3032   */\n      dup6\n        /* \"#utility.yul\":3021:3044   */\n      sub\n        /* \"#utility.yul\":3017:3049   */\n      slt\n        /* \"#utility.yul\":3014:3133   */\n      iszero\n      tag_222\n      jumpi\n        /* \"#utility.yul\":3052:3131   */\n      tag_223\n      tag_138\n      jump\t// in\n    tag_223:\n        /* \"#utility.yul\":3014:3133   */\n    tag_222:\n        /* \"#utility.yul\":3200:3201   */\n      0x00\n        /* \"#utility.yul\":3189:3198   */\n      dup4\n        /* \"#utility.yul\":3185:3202   */\n      add\n        /* \"#utility.yul\":3172:3203   */\n      calldataload\n        /* \"#utility.yul\":3230:3248   */\n      0xffffffffffffffff\n        /* \"#utility.yul\":3222:3228   */\n      dup2\n        /* \"#utility.yul\":3219:3249   */\n      gt\n        /* \"#utility.yul\":3216:3333   */\n      iszero\n      tag_224\n      jumpi\n        /* \"#utility.yul\":3252:3331   */\n      tag_225\n      tag_139\n      jump\t// in\n    tag_225:\n        /* \"#utility.yul\":3216:3333   */\n    tag_224:\n        /* \"#utility.yul\":3357:3420   */\n      tag_226\n        /* \"#utility.yul\":3412:3419   */\n      dup6\n        /* \"#utility.yul\":3403:3409   */\n      dup3\n        /* \"#utility.yul\":3392:3401   */\n      dup7\n        /* \"#utility.yul\":3388:3410   */\n      add\n        /* \"#utility.yul\":3357:3420   */\n      tag_149\n      jump\t// in\n    tag_226:\n        /* \"#utility.yul\":3347:3420   */\n      swap3\n      pop\n        /* \"#utility.yul\":3143:3430   */\n      pop\n        /* \"#utility.yul\":3469:3471   */\n      0x20\n        /* \"#utility.yul\":3495:3548   */\n      tag_227\n        /* \"#utility.yul\":3540:3547   */\n      dup6\n        /* \"#utility.yul\":3531:3537   */\n      dup3\n        /* \"#utility.yul\":3520:3529   */\n      dup7\n        /* \"#utility.yul\":3516:3538   */\n      add\n        /* \"#utility.yul\":3495:3548   */\n      tag_152\n      jump\t// in\n    tag_227:\n        /* \"#utility.yul\":3485:3548   */\n      swap2\n      pop\n        /* \"#utility.yul\":3440:3558   */\n      pop\n        /* \"#utility.yul\":2911:3565   */\n      swap3\n      pop\n      swap3\n      swap1\n      pop\n      jump\t// out\n        /* \"#utility.yul\":3571:3900   */\n    tag_21:\n        /* \"#utility.yul\":3630:3636   */\n      0x00\n        /* \"#utility.yul\":3679:3681   */\n      0x20\n        /* \"#utility.yul\":3667:3676   */\n      dup3\n        /* \"#utility.yul\":3658:3665   */\n      dup5\n        /* \"#utility.yul\":3654:3677   */\n      sub\n        /* \"#utility.yul\":3650:3682   */\n      slt\n        /* \"#utility.yul\":3647:3766   */\n      iszero\n      tag_229\n      jumpi\n        /* \"#utility.yul\":3685:3764   */\n      tag_230\n      tag_138\n      jump\t// in\n    tag_230:\n        /* \"#utility.yul\":3647:3766   */\n    tag_229:\n        /* \"#utility.yul\":3805:3806   */\n      0x00\n        /* \"#utility.yul\":3830:3883   */\n      tag_231\n        /* \"#utility.yul\":3875:3882   */\n      dup5\n        /* \"#utility.yul\":3866:3872   */\n      dup3\n        /* \"#utility.yul\":3855:3864   */\n      dup6\n        /* \"#utility.yul\":3851:3873   */\n      add\n        /* \"#utility.yul\":3830:3883   */\n      tag_152\n      jump\t// in\n    tag_231:\n        /* \"#utility.yul\":3820:3883   */\n      swap2\n      pop\n        /* \"#utility.yul\":3776:3893   */\n      pop\n        /* \"#utility.yul\":3571:3900   */\n      swap3\n      swap2\n      pop\n      pop\n      jump\t// out\n        /* \"#utility.yul\":3906:4024   */\n    tag_153:\n        /* \"#utility.yul\":3993:4017   */\n      tag_233\n        /* \"#utility.yul\":4011:4016   */\n      dup2\n        /* \"#utility.yul\":3993:4017   */\n      tag_150\n      jump\t// in\n    tag_233:\n        /* \"#utility.yul\":3988:3991   */\n      dup3\n        /* \"#utility.yul\":3981:4018   */\n      mstore\n        /* \"#utility.yul\":3906:4024   */\n      pop\n      pop\n      jump\t// out\n        /* \"#utility.yul\":4030:4129   */\n    tag_154:\n        /* \"#utility.yul\":4082:4088   */\n      0x00\n        /* \"#utility.yul\":4116:4121   */\n      dup2\n        /* \"#utility.yul\":4110:4122   */\n      mload\n        /* \"#utility.yul\":4100:4122   */\n      swap1\n      pop\n        /* \"#utility.yul\":4030:4129   */\n      swap2\n      swap1\n      pop\n      jump\t// out\n        /* \"#utility.yul\":4135:4304   */\n    tag_155:\n        /* \"#utility.yul\":4219:4230   */\n      0x00\n        /* \"#utility.yul\":4253:4259   */\n      dup3\n        /* \"#utility.yul\":4248:4251   */\n      dup3\n        /* \"#utility.yul\":4241:4260   */\n      mstore\n        /* \"#utility.yul\":4293:4297   */\n      0x20\n        /* \"#utility.yul\":4288:4291   */\n      dup3\n        /* \"#utility.yul\":4284:4298   */\n      add\n        /* \"#utility.yul\":4269:4298   */\n      swap1\n      pop\n        /* \"#utility.yul\":4135:4304   */\n      swap3\n      swap2\n      pop\n      pop\n      jump\t// out\n        /* \"#utility.yul\":4310:4449   */\n    tag_156:\n        /* \"#utility.yul\":4399:4405   */\n      dup3\n        /* \"#utility.yul\":4394:4397   */\n      dup2\n        /* \"#utility.yul\":4389:4392   */\n      dup4\n        /* \"#utility.yul\":4383:4406   */\n      mcopy\n        /* \"#utility.yul\":4440:4441   */\n      0x00\n        /* \"#utility.yul\":4431:4437   */\n      dup4\n        /* \"#utility.yul\":4426:4429   */\n      dup4\n        /* \"#utility.yul\":4422:4438   */\n      add\n        /* \"#utility.yul\":4415:4442   */\n      mstore\n        /* \"#utility.yul\":4310:4449   */\n      pop\n      pop\n      pop\n      jump\t// out\n        /* \"#utility.yul\":4455:4832   */\n    tag_157:\n        /* \"#utility.yul\":4543:4546   */\n      0x00\n        /* \"#utility.yul\":4571:4610   */\n      tag_238\n        /* \"#utility.yul\":4604:4609   */\n      dup3\n        /* \"#utility.yul\":4571:4610   */\n      tag_154\n      jump\t// in\n    tag_238:\n        /* \"#utility.yul\":4626:4697   */\n      tag_239\n        /* \"#utility.yul\":4690:4696   */\n      dup2\n        /* \"#utility.yul\":4685:4688   */\n      dup6\n        /* \"#utility.yul\":4626:4697   */\n      tag_155\n      jump\t// in\n    tag_239:\n        /* \"#utility.yul\":4619:4697   */\n      swap4\n      pop\n        /* \"#utility.yul\":4706:4771   */\n      tag_240\n        /* \"#utility.yul\":4764:4770   */\n      dup2\n        /* \"#utility.yul\":4759:4762   */\n      dup6\n        /* \"#utility.yul\":4752:4756   */\n      0x20\n        /* \"#utility.yul\":4745:4750   */\n      dup7\n        /* \"#utility.yul\":4741:4757   */\n      add\n        /* \"#utility.yul\":4706:4771   */\n      tag_156\n      jump\t// in\n    tag_240:\n        /* \"#utility.yul\":4796:4825   */\n      tag_241\n        /* \"#utility.yul\":4818:4824   */\n      dup2\n        /* \"#utility.yul\":4796:4825   */\n      tag_142\n      jump\t// in\n    tag_241:\n        /* \"#utility.yul\":4791:4794   */\n      dup5\n        /* \"#utility.yul\":4787:4826   */\n      add\n        /* \"#utility.yul\":4780:4826   */\n      swap2\n      pop\n        /* \"#utility.yul\":4547:4832   */\n      pop\n        /* \"#utility.yul\":4455:4832   */\n      swap3\n      swap2\n      pop\n      pop\n      jump\t// out\n        /* \"#utility.yul\":4838:4964   */\n    tag_158:\n        /* \"#utility.yul\":4875:4882   */\n      0x00\n        /* \"#utility.yul\":4915:4957   */\n      0xffffffffffffffffffffffffffffffffffffffff\n        /* \"#utility.yul\":4908:4913   */\n      dup3\n        /* \"#utility.yul\":4904:4958   */\n      and\n        /* \"#utility.yul\":4893:4958   */\n      swap1\n      pop\n        /* \"#utility.yul\":4838:4964   */\n      swap2\n      swap1\n      pop\n      jump\t// out\n        /* \"#utility.yul\":4970:5066   */\n    tag_159:\n        /* \"#utility.yul\":5007:5014   */\n      0x00\n        /* \"#utility.yul\":5036:5060   */\n      tag_244\n        /* \"#utility.yul\":5054:5059   */\n      dup3\n        /* \"#utility.yul\":5036:5060   */\n      tag_158\n      jump\t// in\n    tag_244:\n        /* \"#utility.yul\":5025:5060   */\n      swap1\n      pop\n        /* \"#utility.yul\":4970:5066   */\n      swap2\n      swap1\n      pop\n      jump\t// out\n        /* \"#utility.yul\":5072:5190   */\n    tag_160:\n        /* \"#utility.yul\":5159:5183   */\n      tag_246\n        /* \"#utility.yul\":5177:5182   */\n      dup2\n        /* \"#utility.yul\":5159:5183   */\n      tag_159\n      jump\t// in\n    tag_246:\n        /* \"#utility.yul\":5154:5157   */\n      dup3\n        /* \"#utility.yul\":5147:5184   */\n      mstore\n        /* \"#utility.yul\":5072:5190   */\n      pop\n      pop\n      jump\t// out\n        /* \"#utility.yul\":5196:5951   */\n    tag_24:\n        /* \"#utility.yul\":5421:5425   */\n      0x00\n        /* \"#utility.yul\":5459:5462   */\n      0xa0\n        /* \"#utility.yul\":5448:5457   */\n      dup3\n        /* \"#utility.yul\":5444:5463   */\n      add\n        /* \"#utility.yul\":5436:5463   */\n      swap1\n      pop\n        /* \"#utility.yul\":5473:5544   */\n      tag_248\n        /* \"#utility.yul\":5541:5542   */\n      0x00\n        /* \"#utility.yul\":5530:5539   */\n      dup4\n        /* \"#utility.yul\":5526:5543   */\n      add\n        /* \"#utility.yul\":5517:5523   */\n      dup9\n        /* \"#utility.yul\":5473:5544   */\n      tag_153\n      jump\t// in\n    tag_248:\n        /* \"#utility.yul\":5591:5600   */\n      dup2\n        /* \"#utility.yul\":5585:5589   */\n      dup2\n        /* \"#utility.yul\":5581:5601   */\n      sub\n        /* \"#utility.yul\":5576:5578   */\n      0x20\n        /* \"#utility.yul\":5565:5574   */\n      dup4\n        /* \"#utility.yul\":5561:5579   */\n      add\n        /* \"#utility.yul\":5554:5602   */\n      mstore\n        /* \"#utility.yul\":5619:5697   */\n      tag_249\n        /* \"#utility.yul\":5692:5696   */\n      dup2\n        /* \"#utility.yul\":5683:5689   */\n      dup8\n        /* \"#utility.yul\":5619:5697   */\n      tag_157\n      jump\t// in\n    tag_249:\n        /* \"#utility.yul\":5611:5697   */\n      swap1\n      pop\n        /* \"#utility.yul\":5707:5779   */\n      tag_250\n        /* \"#utility.yul\":5775:5777   */\n      0x40\n        /* \"#utility.yul\":5764:5773   */\n      dup4\n        /* \"#utility.yul\":5760:5778   */\n      add\n        /* \"#utility.yul\":5751:5757   */\n      dup7\n        /* \"#utility.yul\":5707:5779   */\n      tag_153\n      jump\t// in\n    tag_250:\n        /* \"#utility.yul\":5789:5861   */\n      tag_251\n        /* \"#utility.yul\":5857:5859   */\n      0x60\n        /* \"#utility.yul\":5846:5855   */\n      dup4\n        /* \"#utility.yul\":5842:5860   */\n      add\n        /* \"#utility.yul\":5833:5839   */\n      dup6\n        /* \"#utility.yul\":5789:5861   */\n      tag_153\n      jump\t// in\n    tag_251:\n        /* \"#utility.yul\":5871:5944   */\n      tag_252\n        /* \"#utility.yul\":5939:5942   */\n      0x80\n        /* \"#utility.yul\":5928:5937   */\n      dup4\n        /* \"#utility.yul\":5924:5943   */\n      add\n        /* \"#utility.yul\":5915:5921   */\n      dup5\n        /* \"#utility.yul\":5871:5944   */\n      tag_160\n      jump\t// in\n    tag_252:\n        /* \"#utility.yul\":5196:5951   */\n      swap7\n      swap6\n      pop\n      pop\n      pop\n      pop\n      pop\n      pop\n      jump\t// out\n        /* \"#utility.yul\":5957:6179   */\n    tag_28:\n        /* \"#utility.yul\":6050:6054   */\n      0x00\n        /* \"#utility.yul\":6088:6090   */\n      0x20\n        /* \"#utility.yul\":6077:6086   */\n      dup3\n        /* \"#utility.yul\":6073:6091   */\n      add\n        /* \"#utility.yul\":6065:6091   */\n      swap1\n      pop\n        /* \"#utility.yul\":6101:6172   */\n      tag_254\n        /* \"#utility.yul\":6169:6170   */\n      0x00\n        /* \"#utility.yul\":6158:6167   */\n      dup4\n        /* \"#utility.yul\":6154:6171   */\n      add\n        /* \"#utility.yul\":6145:6151   */\n      dup5\n        /* \"#utility.yul\":6101:6172   */\n      tag_153\n      jump\t// in\n    tag_254:\n        /* \"#utility.yul\":5957:6179   */\n      swap3\n      swap2\n      pop\n      pop\n      jump\t// out\n        /* \"#utility.yul\":6185:6517   */\n    tag_33:\n        /* \"#utility.yul\":6306:6310   */\n      0x00\n        /* \"#utility.yul\":6344:6346   */\n      0x40\n        /* \"#utility.yul\":6333:6342   */\n      dup3\n        /* \"#utility.yul\":6329:6347   */\n      add\n        /* \"#utility.yul\":6321:6347   */\n      swap1\n      pop\n        /* \"#utility.yul\":6357:6428   */\n      tag_256\n        /* \"#utility.yul\":6425:6426   */\n      0x00\n        /* \"#utility.yul\":6414:6423   */\n      dup4\n        /* \"#utility.yul\":6410:6427   */\n      add\n        /* \"#utility.yul\":6401:6407   */\n      dup6\n        /* \"#utility.yul\":6357:6428   */\n      tag_160\n      jump\t// in\n    tag_256:\n        /* \"#utility.yul\":6438:6510   */\n      tag_257\n        /* \"#utility.yul\":6506:6508   */\n      0x20\n        /* \"#utility.yul\":6495:6504   */\n      dup4\n        /* \"#utility.yul\":6491:6509   */\n      add\n        /* \"#utility.yul\":6482:6488   */\n      dup5\n        /* \"#utility.yul\":6438:6510   */\n      tag_153\n      jump\t// in\n    tag_257:\n        /* \"#utility.yul\":6185:6517   */\n      swap4\n      swap3\n      pop\n      pop\n      pop\n      jump\t// out\n        /* \"#utility.yul\":6523:7167   */\n    tag_52:\n        /* \"#utility.yul\":6720:6724   */\n      0x00\n        /* \"#utility.yul\":6758:6761   */\n      0x80\n        /* \"#utility.yul\":6747:6756   */\n      dup3\n        /* \"#utility.yul\":6743:6762   */\n      add\n        /* \"#utility.yul\":6735:6762   */\n      swap1\n      pop\n        /* \"#utility.yul\":6808:6817   */\n      dup2\n        /* \"#utility.yul\":6802:6806   */\n      dup2\n        /* \"#utility.yul\":6798:6818   */\n      sub\n        /* \"#utility.yul\":6794:6795   */\n      0x00\n        /* \"#utility.yul\":6783:6792   */\n      dup4\n        /* \"#utility.yul\":6779:6796   */\n      add\n        /* \"#utility.yul\":6772:6819   */\n      mstore\n        /* \"#utility.yul\":6836:6914   */\n      tag_259\n        /* \"#utility.yul\":6909:6913   */\n      dup2\n        /* \"#utility.yul\":6900:6906   */\n      dup8\n        /* \"#utility.yul\":6836:6914   */\n      tag_157\n      jump\t// in\n    tag_259:\n        /* \"#utility.yul\":6828:6914   */\n      swap1\n      pop\n        /* \"#utility.yul\":6924:6996   */\n      tag_260\n        /* \"#utility.yul\":6992:6994   */\n      0x20\n        /* \"#utility.yul\":6981:6990   */\n      dup4\n        /* \"#utility.yul\":6977:6995   */\n      add\n        /* \"#utility.yul\":6968:6974   */\n      dup7\n        /* \"#utility.yul\":6924:6996   */\n      tag_153\n      jump\t// in\n    tag_260:\n        /* \"#utility.yul\":7006:7078   */\n      tag_261\n        /* \"#utility.yul\":7074:7076   */\n      0x40\n        /* \"#utility.yul\":7063:7072   */\n      dup4\n        /* \"#utility.yul\":7059:7077   */\n      add\n        /* \"#utility.yul\":7050:7056   */\n      dup6\n        /* \"#utility.yul\":7006:7078   */\n      tag_153\n      jump\t// in\n    tag_261:\n        /* \"#utility.yul\":7088:7160   */\n      tag_262\n        /* \"#utility.yul\":7156:7158   */\n      0x60\n        /* \"#utility.yul\":7145:7154   */\n      dup4\n        /* \"#utility.yul\":7141:7159   */\n      add\n        /* \"#utility.yul\":7132:7138   */\n      dup5\n        /* \"#utility.yul\":7088:7160   */\n      tag_160\n      jump\t// in\n    tag_262:\n        /* \"#utility.yul\":6523:7167   */\n      swap6\n      swap5\n      pop\n      pop\n      pop\n      pop\n      pop\n      jump\t// out\n        /* \"#utility.yul\":7173:7395   */\n    tag_56:\n        /* \"#utility.yul\":7266:7270   */\n      0x00\n        /* \"#utility.yul\":7304:7306   */\n      0x20\n        /* \"#utility.yul\":7293:7302   */\n      dup3\n        /* \"#utility.yul\":7289:7307   */\n      add\n        /* \"#utility.yul\":7281:7307   */\n      swap1\n      pop\n        /* \"#utility.yul\":7317:7388   */\n      tag_264\n        /* \"#utility.yul\":7385:7386   */\n      0x00\n        /* \"#utility.yul\":7374:7383   */\n      dup4\n        /* \"#utility.yul\":7370:7387   */\n      add\n        /* \"#utility.yul\":7361:7367   */\n      dup5\n        /* \"#utility.yul\":7317:7388   */\n      tag_160\n      jump\t// in\n    tag_264:\n        /* \"#utility.yul\":7173:7395   */\n      swap3\n      swap2\n      pop\n      pop\n      jump\t// out\n        /* \"#utility.yul\":7401:7581   */\n    tag_161:\n        /* \"#utility.yul\":7449:7526   */\n      0x4e487b7100000000000000000000000000000000000000000000000000000000\n        /* \"#utility.yul\":7446:7447   */\n      0x00\n        /* \"#utility.yul\":7439:7527   */\n      mstore\n        /* \"#utility.yul\":7546:7550   */\n      0x22\n        /* \"#utility.yul\":7543:7544   */\n      0x04\n        /* \"#utility.yul\":7536:7551   */\n      mstore\n        /* \"#utility.yul\":7570:7574   */\n      0x24\n        /* \"#utility.yul\":7567:7568   */\n      0x00\n        /* \"#utility.yul\":7560:7575   */\n      revert\n        /* \"#utility.yul\":7587:7907   */\n    tag_64:\n        /* \"#utility.yul\":7631:7637   */\n      0x00\n        /* \"#utility.yul\":7668:7669   */\n      0x02\n        /* \"#utility.yul\":7662:7666   */\n      dup3\n        /* \"#utility.yul\":7658:7670   */\n      div\n        /* \"#utility.yul\":7648:7670   */\n      swap1\n      pop\n        /* \"#utility.yul\":7715:7716   */\n      0x01\n        /* \"#utility.yul\":7709:7713   */\n      dup3\n        /* \"#utility.yul\":7705:7717   */\n      and\n        /* \"#utility.yul\":7736:7754   */\n      dup1\n        /* \"#utility.yul\":7726:7807   */\n      tag_267\n      jumpi\n        /* \"#utility.yul\":7792:7796   */\n      0x7f\n        /* \"#utility.yul\":7784:7790   */\n      dup3\n        /* \"#utility.yul\":7780:7797   */\n      and\n        /* \"#utility.yul\":7770:7797   */\n      swap2\n      pop\n        /* \"#utility.yul\":7726:7807   */\n    tag_267:\n        /* \"#utility.yul\":7854:7856   */\n      0x20\n        /* \"#utility.yul\":7846:7852   */\n      dup3\n        /* \"#utility.yul\":7843:7857   */\n      lt\n        /* \"#utility.yul\":7823:7841   */\n      dup2\n        /* \"#utility.yul\":7820:7858   */\n      sub\n        /* \"#utility.yul\":7817:7901   */\n      tag_268\n      jumpi\n        /* \"#utility.yul\":7873:7891   */\n      tag_269\n      tag_161\n      jump\t// in\n    tag_269:\n        /* \"#utility.yul\":7817:7901   */\n    tag_268:\n        /* \"#utility.yul\":7638:7907   */\n      pop\n        /* \"#utility.yul\":7587:7907   */\n      swap2\n      swap1\n      pop\n      jump\t// out\n        /* \"#utility.yul\":7913:8054   */\n    tag_162:\n        /* \"#utility.yul\":7962:7966   */\n      0x00\n        /* \"#utility.yul\":7985:7988   */\n      dup2\n        /* \"#utility.yul\":7977:7988   */\n      swap1\n      pop\n        /* \"#utility.yul\":8008:8011   */\n      dup2\n        /* \"#utility.yul\":8005:8006   */\n      0x00\n        /* \"#utility.yul\":7998:8012   */\n      mstore\n        /* \"#utility.yul\":8042:8046   */\n      0x20\n        /* \"#utility.yul\":8039:8040   */\n      0x00\n        /* \"#utility.yul\":8029:8047   */\n      keccak256\n        /* \"#utility.yul\":8021:8047   */\n      swap1\n      pop\n        /* \"#utility.yul\":7913:8054   */\n      swap2\n      swap1\n      pop\n      jump\t// out\n        /* \"#utility.yul\":8060:8153   */\n    tag_163:\n        /* \"#utility.yul\":8097:8103   */\n      0x00\n        /* \"#utility.yul\":8144:8146   */\n      0x20\n        /* \"#utility.yul\":8139:8141   */\n      0x1f\n        /* \"#utility.yul\":8132:8137   */\n      dup4\n        /* \"#utility.yul\":8128:8142   */\n      add\n        /* \"#utility.yul\":8124:8147   */\n      div\n        /* \"#utility.yul\":8114:8147   */\n      swap1\n      pop\n        /* \"#utility.yul\":8060:8153   */\n      swap2\n      swap1\n      pop\n      jump\t// out\n        /* \"#utility.yul\":8159:8266   */\n    tag_164:\n        /* \"#utility.yul\":8203:8211   */\n      0x00\n        /* \"#utility.yul\":8253:8258   */\n      dup3\n        /* \"#utility.yul\":8247:8251   */\n      dup3\n        /* \"#utility.yul\":8243:8259   */\n      shl\n        /* \"#utility.yul\":8222:8259   */\n      swap1\n      pop\n        /* \"#utility.yul\":8159:8266   */\n      swap3\n      swap2\n      pop\n      pop\n      jump\t// out\n        /* \"#utility.yul\":8272:8665   */\n    tag_165:\n        /* \"#utility.yul\":8341:8347   */\n      0x00\n        /* \"#utility.yul\":8391:8392   */\n      0x08\n        /* \"#utility.yul\":8379:8389   */\n      dup4\n        /* \"#utility.yul\":8375:8393   */\n      mul\n        /* \"#utility.yul\":8414:8511   */\n      tag_274\n        /* \"#utility.yul\":8444:8510   */\n      0xffffffffffffffffffffffffffffffffffffffffffffffffffffffffffffffff\n        /* \"#utility.yul\":8433:8442   */\n      dup3\n        /* \"#utility.yul\":8414:8511   */\n      tag_164\n      jump\t// in\n    tag_274:\n        /* \"#utility.yul\":8532:8571   */\n      tag_275\n        /* \"#utility.yul\":8562:8570   */\n      dup7\n        /* \"#utility.yul\":8551:8560   */\n      dup4\n        /* \"#utility.yul\":8532:8571   */\n      tag_164\n      jump\t// in\n    tag_275:\n        /* \"#utility.yul\":8520:8571   */\n      swap6\n      pop\n        /* \"#utility.yul\":8604:8608   */\n      dup1\n        /* \"#utility.yul\":8600:8609   */\n      not\n        /* \"#utility.yul\":8593:8598   */\n      dup5\n        /* \"#utility.yul\":8589:8610   */\n      and\n        /* \"#utility.yul\":8580:8610   */\n      swap4\n      pop\n        /* \"#utility.yul\":8653:8657   */\n      dup1\n        /* \"#utility.yul\":8643:8651   */\n      dup7\n        /* \"#utility.yul\":8639:8658   */\n      and\n        /* \"#utility.yul\":8632:8637   */\n      dup5\n        /* \"#utility.yul\":8629:8659   */\n      or\n        /* \"#utility.yul\":8619:8659   */\n      swap3\n      pop\n        /* \"#utility.yul\":8348:8665   */\n      pop\n      pop\n        /* \"#utility.yul\":8272:8665   */\n      swap4\n      swap3\n      pop\n      pop\n      pop\n      jump\t// out\n        /* \"#utility.yul\":8671:8731   */\n    tag_166:\n        /* \"#utility.yul\":8699:8702   */\n      0x00\n        /* \"#utility.yul\":8720:8725   */\n      dup2\n        /* \"#utility.yul\":8713:8725   */\n      swap1\n      pop\n        /* \"#utility.yul\":8671:8731   */\n      swap2\n      swap1\n      pop\n      jump\t// out\n        /* \"#utility.yul\":8737:8879   */\n    tag_167:\n        /* \"#utility.yul\":8787:8796   */\n      0x00\n        /* \"#utility.yul\":8820:8873   */\n      tag_278\n        /* \"#utility.yul\":8838:8872   */\n      tag_279\n        /* \"#utility.yul\":8847:8871   */\n      tag_280\n        /* \"#utility.yul\":8865:8870   */\n      dup5\n        /* \"#utility.yul\":8847:8871   */\n      tag_150\n      jump\t// in\n    tag_280:\n        /* \"#utility.yul\":8838:8872   */\n      tag_166\n      jump\t// in\n    tag_279:\n        /* \"#utility.yul\":8820:8873   */\n      tag_150\n      jump\t// in\n    tag_278:\n        /* \"#utility.yul\":8807:8873   */\n      swap1\n      pop\n        /* \"#utility.yul\":8737:8879   */\n      swap2\n      swap1\n      pop\n      jump\t// out\n        /* \"#utility.yul\":8885:8960   */\n    tag_168:\n        /* \"#utility.yul\":8928:8931   */\n      0x00\n        /* \"#utility.yul\":8949:8954   */\n      dup2\n        /* \"#utility.yul\":8942:8954   */\n      swap1\n      pop\n        /* \"#utility.yul\":8885:8960   */\n      swap2\n      swap1\n      pop\n      jump\t// out\n        /* \"#utility.yul\":8966:9235   */\n    tag_169:\n        /* \"#utility.yul\":9076:9115   */\n      tag_283\n        /* \"#utility.yul\":9107:9114   */\n      dup4\n        /* \"#utility.yul\":9076:9115   */\n      tag_167\n      jump\t// in\n    tag_283:\n        /* \"#utility.yul\":9137:9228   */\n      tag_284\n        /* \"#utility.yul\":9186:9227   */\n      tag_285\n        /* \"#utility.yul\":9210:9226   */\n      dup3\n        /* \"#utility.yul\":9186:9227   */\n      tag_168\n      jump\t// in\n    tag_285:\n        /* \"#utility.yul\":9178:9184   */\n      dup5\n        /* \"#utility.yul\":9171:9175   */\n      dup5\n        /* \"#utility.yul\":9165:9176   */\n      sload\n        /* \"#utility.yul\":9137:9228   */\n      tag_165\n      jump\t// in\n    tag_284:\n        /* \"#utility.yul\":9131:9135   */\n      dup3\n        /* \"#utility.yul\":9124:9229   */\n      sstore\n        /* \"#utility.yul\":9042:9235   */\n      pop\n        /* \"#utility.yul\":8966:9235   */\n      pop\n      pop\n      pop\n      jump\t// out\n        /* \"#utility.yul\":9241:9314   */\n    tag_170:\n        /* \"#utility.yul\":9286:9289   */\n      0x00\n        /* \"#utility.yul\":9241:9314   */\n      swap1\n      jump\t// out\n        /* \"#utility.yul\":9320:9509   */\n    tag_171:\n        /* \"#utility.yul\":9397:9429   */\n      tag_288\n      tag_170\n      jump\t// in\n    tag_288:\n        /* \"#utility.yul\":9438:9503   */\n      tag_289\n        /* \"#utility.yul\":9496:9502   */\n      dup2\n        /* \"#utility.yul\":9488:9494   */\n      dup5\n        /* \"#utility.yul\":9482:9486   */\n      dup5\n        /* \"#utility.yul\":9438:9503   */\n      tag_169\n      jump\t// in\n    tag_289:\n        /* \"#utility.yul\":9373:9509   */\n      pop\n        /* \"#utility.yul\":9320:9509   */\n      pop\n      pop\n      jump\t// out\n        /* \"#utility.yul\":9515:9701   */\n    tag_172:\n        /* \"#utility.yul\":9575:9695   */\n    tag_291:\n        /* \"#utility.yul\":9592:9595   */\n      dup2\n        /* \"#utility.yul\":9585:9590   */\n      dup2\n        /* \"#utility.yul\":9582:9596   */\n      lt\n        /* \"#utility.yul\":9575:9695   */\n      iszero\n      tag_293\n      jumpi\n        /* \"#utility.yul\":9646:9685   */\n      tag_294\n        /* \"#utility.yul\":9683:9684   */\n      0x00\n        /* \"#utility.yul\":9676:9681   */\n      dup3\n        /* \"#utility.yul\":9646:9685   */\n      tag_171\n      jump\t// in\n    tag_294:\n        /* \"#utility.yul\":9619:9620   */\n      0x01\n        /* \"#utility.yul\":9612:9617   */\n      dup2\n        /* \"#utility.yul\":9608:9621   */\n      add\n        /* \"#utility.yul\":9599:9621   */\n      swap1\n      pop\n        /* \"#utility.yul\":9575:9695   */\n      jump(tag_291)\n    tag_293:\n        /* \"#utility.yul\":9515:9701   */\n      pop\n      pop\n      jump\t// out\n        /* \"#utility.yul\":9707:10250   */\n    tag_173:\n        /* \"#utility.yul\":9808:9810   */\n      0x1f\n        /* \"#utility.yul\":9803:9806   */\n      dup3\n        /* \"#utility.yul\":9800:9811   */\n      gt\n        /* \"#utility.yul\":9797:10243   */\n      iszero\n      tag_296\n      jumpi\n        /* \"#utility.yul\":9842:9880   */\n      tag_297\n        /* \"#utility.yul\":9874:9879   */\n      dup2\n        /* \"#utility.yul\":9842:9880   */\n      tag_162\n      jump\t// in\n    tag_297:\n        /* \"#utility.yul\":9926:9955   */\n      tag_298\n        /* \"#utility.yul\":9944:9954   */\n      dup5\n        /* \"#utility.yul\":9926:9955   */\n      tag_163\n      jump\t// in\n    tag_298:\n        /* \"#utility.yul\":9916:9924   */\n      dup2\n        /* \"#utility.yul\":9912:9956   */\n      add\n        /* \"#utility.yul\":10109:10111   */\n      0x20\n        /* \"#utility.yul\":10097:10107   */\n      dup6\n        /* \"#utility.yul\":10094:10112   */\n      lt\n        /* \"#utility.yul\":10091:10140   */\n      iszero\n      tag_299\n      jumpi\n        /* \"#utility.yul\":10130:10138   */\n      dup2\n        /* \"#utility.yul\":10115:10138   */\n      swap1\n      pop\n        /* \"#utility.yul\":10091:10140   */\n    tag_299:\n        /* \"#utility.yul\":10153:10233   */\n      tag_300\n        /* \"#utility.yul\":10209:10231   */\n      tag_301\n        /* \"#utility.yul\":10227:10230   */\n      dup6\n        /* \"#utility.yul\":10209:10231   */\n      tag_163\n      jump\t// in\n    tag_301:\n        /* \"#utility.yul\":10199:10207   */\n      dup4\n        /* \"#utility.yul\":10195:10232   */\n      add\n        /* \"#utility.yul\":10182:10193   */\n      dup3\n        /* \"#utility.yul\":10153:10233   */\n      tag_172\n      jump\t// in\n    tag_300:\n        /* \"#utility.yul\":9812:10243   */\n      pop\n      pop\n        /* \"#utility.yul\":9797:10243   */\n    tag_296:\n        /* \"#utility.yul\":9707:10250   */\n      pop\n      pop\n      pop\n      jump\t// out\n        /* \"#utility.yul\":10256:10373   */\n    tag_174:\n        /* \"#utility.yul\":10310:10318   */\n      0x00\n        /* \"#utility.yul\":10360:10365   */\n      dup3\n        /* \"#utility.yul\":10354:10358   */\n      dup3\n        /* \"#utility.yul\":10350:10366   */\n      shr\n        /* \"#utility.yul\":10329:10366   */\n      swap1\n      pop\n        /* \"#utility.yul\":10256:10373   */\n      swap3\n      swap2\n      pop\n      pop\n      jump\t// out\n        /* \"#utility.yul\":10379:10548   */\n    tag_175:\n        /* \"#utility.yul\":10423:10429   */\n      0x00\n        /* \"#utility.yul\":10456:10507   */\n      tag_304\n        /* \"#utility.yul\":10504:10505   */\n      0x00\n        /* \"#utility.yul\":10500:10506   */\n      not\n        /* \"#utility.yul\":10492:10497   */\n      dup5\n        /* \"#utility.yul\":10489:10490   */\n      0x08\n        /* \"#utility.yul\":10485:10498   */\n      mul\n        /* \"#utility.yul\":10456:10507   */\n      tag_174\n      jump\t// in\n    tag_304:\n        /* \"#utility.yul\":10452:10508   */\n      not\n        /* \"#utility.yul\":10537:10541   */\n      dup1\n        /* \"#utility.yul\":10531:10535   */\n      dup4\n        /* \"#utility.yul\":10527:10542   */\n      and\n        /* \"#utility.yul\":10517:10542   */\n      swap2\n      pop\n        /* \"#utility.yul\":10430:10548   */\n      pop\n        /* \"#utility.yul\":10379:10548   */\n      swap3\n      swap2\n      pop\n      pop\n      jump\t// out\n        /* \"#utility.yul\":10553:10848   */\n    tag_176:\n        /* \"#utility.yul\":10629:10633   */\n      0x00\n        /* \"#utility.yul\":10775:10804   */\n      tag_306\n        /* \"#utility.yul\":10800:10803   */\n      dup4\n        /* \"#utility.yul\":10794:10798   */\n      dup4\n        /* \"#utility.yul\":10775:10804   */\n      tag_175\n      jump\t// in\n    tag_306:\n        /* \"#utility.yul\":10767:10804   */\n      swap2\n      pop\n        /* \"#utility.yul\":10837:10840   */\n      dup3\n        /* \"#utility.yul\":10834:10835   */\n      0x02\n        /* \"#utility.yul\":10830:10841   */\n      mul\n        /* \"#utility.yul\":10824:10828   */\n      dup3\n        /* \"#utility.yul\":10821:10842   */\n      or\n        /* \"#utility.yul\":10813:10842   */\n      swap1\n      pop\n        /* \"#utility.yul\":10553:10848   */\n      swap3\n      swap2\n      pop\n      pop\n      jump\t// out\n        /* \"#utility.yul\":10853:12248   */\n    tag_60:\n        /* \"#utility.yul\":10970:11007   */\n      tag_308\n        /* \"#utility.yul\":11003:11006   */\n      dup3\n        /* \"#utility.yul\":10970:11007   */\n      tag_154\n      jump\t// in\n    tag_308:\n        /* \"#utility.yul\":11072:11090   */\n      0xffffffffffffffff\n        /* \"#utility.yul\":11064:11070   */\n      dup2\n        /* \"#utility.yul\":11061:11091   */\n      gt\n        /* \"#utility.yul\":11058:11114   */\n      iszero\n      tag_309\n      jumpi\n        /* \"#utility.yul\":11094:11112   */\n      tag_310\n      tag_143\n      jump\t// in\n    tag_310:\n        /* \"#utility.yul\":11058:11114   */\n    tag_309:\n        /* \"#utility.yul\":11138:11176   */\n      tag_311\n        /* \"#utility.yul\":11170:11174   */\n      dup3\n        /* \"#utility.yul\":11164:11175   */\n      sload\n        /* \"#utility.yul\":11138:11176   */\n      tag_64\n      jump\t// in\n    tag_311:\n        /* \"#utility.yul\":11223:11290   */\n      tag_312\n        /* \"#utility.yul\":11283:11289   */\n      dup3\n        /* \"#utility.yul\":11275:11281   */\n      dup3\n        /* \"#utility.yul\":11269:11273   */\n      dup6\n        /* \"#utility.yul\":11223:11290   */\n      tag_173\n      jump\t// in\n    tag_312:\n        /* \"#utility.yul\":11317:11318   */\n      0x00\n        /* \"#utility.yul\":11341:11345   */\n      0x20\n        /* \"#utility.yul\":11328:11345   */\n      swap1\n      pop\n        /* \"#utility.yul\":11373:11375   */\n      0x1f\n        /* \"#utility.yul\":11365:11371   */\n      dup4\n        /* \"#utility.yul\":11362:11376   */\n      gt\n        /* \"#utility.yul\":11390:11391   */\n      0x01\n        /* \"#utility.yul\":11385:12003   */\n      dup2\n      eq\n      tag_314\n      jumpi\n        /* \"#utility.yul\":12047:12048   */\n      0x00\n        /* \"#utility.yul\":12064:12070   */\n      dup5\n        /* \"#utility.yul\":12061:12138   */\n      iszero\n      tag_315\n      jumpi\n        /* \"#utility.yul\":12113:12122   */\n      dup3\n        /* \"#utility.yul\":12108:12111   */\n      dup8\n        /* \"#utility.yul\":12104:12123   */\n      add\n        /* \"#utility.yul\":12098:12124   */\n      mload\n        /* \"#utility.yul\":12089:12124   */\n      swap1\n      pop\n        /* \"#utility.yul\":12061:12138   */\n    tag_315:\n        /* \"#utility.yul\":12164:12231   */\n      tag_316\n        /* \"#utility.yul\":12224:12230   */\n      dup6\n        /* \"#utility.yul\":12217:12222   */\n      dup3\n        /* \"#utility.yul\":12164:12231   */\n      tag_176\n      jump\t// in\n    tag_316:\n        /* \"#utility.yul\":12158:12162   */\n      dup7\n        /* \"#utility.yul\":12151:12232   */\n      sstore\n        /* \"#utility.yul\":12020:12242   */\n      pop\n        /* \"#utility.yul\":11355:12242   */\n      jump(tag_313)\n        /* \"#utility.yul\":11385:12003   */\n    tag_314:\n        /* \"#utility.yul\":11437:11441   */\n      0x1f\n        /* \"#utility.yul\":11433:11442   */\n      not\n        /* \"#utility.yul\":11425:11431   */\n      dup5\n        /* \"#utility.yul\":11421:11443   */\n      and\n        /* \"#utility.yul\":11471:11508   */\n      tag_317\n        /* \"#utility.yul\":11503:11507   */\n      dup7\n        /* \"#utility.yul\":11471:11508   */\n      tag_162\n      jump\t// in\n    tag_317:\n        /* \"#utility.yul\":11530:11531   */\n      0x00\n        /* \"#utility.yul\":11544:11752   */\n    tag_318:\n        /* \"#utility.yul\":11558:11565   */\n      dup3\n        /* \"#utility.yul\":11555:11556   */\n      dup2\n        /* \"#utility.yul\":11552:11566   */\n      lt\n        /* \"#utility.yul\":11544:11752   */\n      iszero\n      tag_320\n      jumpi\n        /* \"#utility.yul\":11637:11646   */\n      dup5\n        /* \"#utility.yul\":11632:11635   */\n      dup10\n        /* \"#utility.yul\":11628:11647   */\n      add\n        /* \"#utility.yul\":11622:11648   */\n      mload\n        /* \"#utility.yul\":11614:11620   */\n      dup3\n        /* \"#utility.yul\":11607:11649   */\n      sstore\n        /* \"#utility.yul\":11688:11689   */\n      0x01\n        /* \"#utility.yul\":11680:11686   */\n      dup3\n        /* \"#utility.yul\":11676:11690   */\n      add\n        /* \"#utility.yul\":11666:11690   */\n      swap2\n      pop\n        /* \"#utility.yul\":11735:11737   */\n      0x20\n        /* \"#utility.yul\":11724:11733   */\n      dup6\n        /* \"#utility.yul\":11720:11738   */\n      add\n        /* \"#utility.yul\":11707:11738   */\n      swap5\n      pop\n        /* \"#utility.yul\":11581:11585   */\n      0x20\n        /* \"#utility.yul\":11578:11579   */\n      dup2\n        /* \"#utility.yul\":11574:11586   */\n      add\n        /* \"#utility.yul\":11569:11586   */\n      swap1\n      pop\n        /* \"#utility.yul\":11544:11752   */\n      jump(tag_318)\n    tag_320:\n        /* \"#utility.yul\":11780:11786   */\n      dup7\n        /* \"#utility.yul\":11771:11778   */\n      dup4\n        /* \"#utility.yul\":11768:11787   */\n      lt\n        /* \"#utility.yul\":11765:11944   */\n      iszero\n      tag_321\n      jumpi\n        /* \"#utility.yul\":11838:11847   */\n      dup5\n        /* \"#utility.yul\":11833:11836   */\n      dup10\n        /* \"#utility.yul\":11829:11848   */\n      add\n        /* \"#utility.yul\":11823:11849   */\n      mload\n        /* \"#utility.yul\":11881:11929   */\n      tag_322\n        /* \"#utility.yul\":11923:11927   */\n      0x1f\n        /* \"#utility.yul\":11915:11921   */\n      dup10\n        /* \"#utility.yul\":11911:11928   */\n      and\n        /* \"#utility.yul\":11900:11909   */\n      dup3\n        /* \"#utility.yul\":11881:11929   */\n      tag_175\n      jump\t// in\n    tag_322:\n        /* \"#utility.yul\":11873:11879   */\n      dup4\n        /* \"#utility.yul\":11866:11930   */\n      sstore\n        /* \"#utility.yul\":11788:11944   */\n      pop\n        /* \"#utility.yul\":11765:11944   */\n    tag_321:\n        /* \"#utility.yul\":11990:11991   */\n      0x01\n        /* \"#utility.yul\":11986:11987   */\n      0x02\n        /* \"#utility.yul\":11978:11984   */\n      dup9\n        /* \"#utility.yul\":11974:11988   */\n      mul\n        /* \"#utility.yul\":11970:11992   */\n      add\n        /* \"#utility.yul\":11964:11968   */\n      dup9\n        /* \"#utility.yul\":11957:11993   */\n      sstore\n        /* \"#utility.yul\":11392:12003   */\n      pop\n      pop\n      pop\n        /* \"#utility.yul\":11355:12242   */\n    tag_313:\n      pop\n        /* \"#utility.yul\":10945:12248   */\n      pop\n      pop\n      pop\n        /* \"#utility.yul\":10853:12248   */\n      pop\n      pop\n      jump\t// out\n        /* \"#utility.yul\":12254:12422   */\n    tag_177:\n        /* \"#utility.yul\":12394:12414   */\n      0x496e76616c69642070726f6a6563742049440000000000000000000000000000\n        /* \"#utility.yul\":12390:12391   */\n      0x00\n        /* \"#utility.yul\":12382:12388   */\n      dup3\n        /* \"#utility.yul\":12378:12392   */\n      add\n        /* \"#utility.yul\":12371:12415   */\n      mstore\n        /* \"#utility.yul\":12254:12422   */\n      pop\n      jump\t// out\n        /* \"#utility.yul\":12428:12794   */\n    tag_178:\n        /* \"#utility.yul\":12570:12573   */\n      0x00\n        /* \"#utility.yul\":12591:12658   */\n      tag_325\n        /* \"#utility.yul\":12655:12657   */\n      0x12\n        /* \"#utility.yul\":12650:12653   */\n      dup4\n        /* \"#utility.yul\":12591:12658   */\n      tag_155\n      jump\t// in\n    tag_325:\n        /* \"#utility.yul\":12584:12658   */\n      swap2\n      pop\n        /* \"#utility.yul\":12667:12760   */\n      tag_326\n        /* \"#utility.yul\":12756:12759   */\n      dup3\n        /* \"#utility.yul\":12667:12760   */\n      tag_177\n      jump\t// in\n    tag_326:\n        /* \"#utility.yul\":12785:12787   */\n      0x20\n        /* \"#utility.yul\":12780:12783   */\n      dup3\n        /* \"#utility.yul\":12776:12788   */\n      add\n        /* \"#utility.yul\":12769:12788   */\n      swap1\n      pop\n        /* \"#utility.yul\":12428:12794   */\n      swap2\n      swap1\n      pop\n      jump\t// out\n        /* \"#utility.yul\":12800:13219   */\n    tag_75:\n        /* \"#utility.yul\":12966:12970   */\n      0x00\n        /* \"#utility.yul\":13004:13006   */\n      0x20\n        /* \"#utility.yul\":12993:13002   */\n      dup3\n        /* \"#utility.yul\":12989:13007   */\n      add\n        /* \"#utility.yul\":12981:13007   */\n      swap1\n      pop\n        /* \"#utility.yul\":13053:13062   */\n      dup2\n        /* \"#utility.yul\":13047:13051   */\n      dup2\n        /* \"#utility.yul\":13043:13063   */\n      sub\n        /* \"#utility.yul\":13039:13040   */\n      0x00\n        /* \"#utility.yul\":13028:13037   */\n      dup4\n        /* \"#utility.yul\":13024:13041   */\n      add\n        /* \"#utility.yul\":13017:13064   */\n      mstore\n        /* \"#utility.yul\":13081:13212   */\n      tag_328\n        /* \"#utility.yul\":13207:13211   */\n      dup2\n        /* \"#utility.yul\":13081:13212   */\n      tag_178\n      jump\t// in\n    tag_328:\n        /* \"#utility.yul\":13073:13212   */\n      swap1\n      pop\n        /* \"#utility.yul\":12800:13219   */\n      swap2\n      swap1\n      pop\n      jump\t// out\n        /* \"#utility.yul\":13225:13405   */\n    tag_81:\n        /* \"#utility.yul\":13273:13350   */\n      0x4e487b7100000000000000000000000000000000000000000000000000000000\n        /* \"#utility.yul\":13270:13271   */\n      0x00\n        /* \"#utility.yul\":13263:13351   */\n      mstore\n        /* \"#utility.yul\":13370:13374   */\n      0x32\n        /* \"#utility.yul\":13367:13368   */\n      0x04\n        /* \"#utility.yul\":13360:13375   */\n      mstore\n        /* \"#utility.yul\":13394:13398   */\n      0x24\n        /* \"#utility.yul\":13391:13392   */\n      0x00\n        /* \"#utility.yul\":13384:13399   */\n      revert\n        /* \"#utility.yul\":13411:13637   */\n    tag_179:\n        /* \"#utility.yul\":13551:13585   */\n      0x596f75206861766520616c726561647920766f74656420666f72207468697320\n        /* \"#utility.yul\":13547:13548   */\n      0x00\n        /* \"#utility.yul\":13539:13545   */\n      dup3\n        /* \"#utility.yul\":13535:13549   */\n      add\n        /* \"#utility.yul\":13528:13586   */\n      mstore\n        /* \"#utility.yul\":13620:13629   */\n      0x70726f6a65637400000000000000000000000000000000000000000000000000\n        /* \"#utility.yul\":13615:13617   */\n      0x20\n        /* \"#utility.yul\":13607:13613   */\n      dup3\n        /* \"#utility.yul\":13603:13618   */\n      add\n        /* \"#utility.yul\":13596:13630   */\n      mstore\n        /* \"#utility.yul\":13411:13637   */\n      pop\n      jump\t// out\n        /* \"#utility.yul\":13643:14009   */\n    tag_180:\n        /* \"#utility.yul\":13785:13788   */\n      0x00\n        /* \"#utility.yul\":13806:13873   */\n      tag_332\n        /* \"#utility.yul\":13870:13872   */\n      0x27\n        /* \"#utility.yul\":13865:13868   */\n      dup4\n        /* \"#utility.yul\":13806:13873   */\n      tag_155\n      jump\t// in\n    tag_332:\n        /* \"#utility.yul\":13799:13873   */\n      swap2\n      pop\n        /* \"#utility.yul\":13882:13975   */\n      tag_333\n        /* \"#utility.yul\":13971:13974   */\n      dup3\n        /* \"#utility.yul\":13882:13975   */\n      tag_179\n      jump\t// in\n    tag_333:\n        /* \"#utility.yul\":14000:14002   */\n      0x40\n        /* \"#utility.yul\":13995:13998   */\n      dup3\n        /* \"#utility.yul\":13991:14003   */\n      add\n        /* \"#utility.yul\":13984:14003   */\n      swap1\n      pop\n        /* \"#utility.yul\":13643:14009   */\n      swap2\n      swap1\n      pop\n      jump\t// out\n        /* \"#utility.yul\":14015:14434   */\n    tag_89:\n        /* \"#utility.yul\":14181:14185   */\n      0x00\n        /* \"#utility.yul\":14219:14221   */\n      0x20\n        /* \"#utility.yul\":14208:14217   */\n      dup3\n        /* \"#utility.yul\":14204:14222   */\n      add\n        /* \"#utility.yul\":14196:14222   */\n      swap1\n      pop\n        /* \"#utility.yul\":14268:14277   */\n      dup2\n        /* \"#utility.yul\":14262:14266   */\n      dup2\n        /* \"#utility.yul\":14258:14278   */\n      sub\n        /* \"#utility.yul\":14254:14255   */\n      0x00\n        /* \"#utility.yul\":14243:14252   */\n      dup4\n        /* \"#utility.yul\":14239:14256   */\n      add\n        /* \"#utility.yul\":14232:14279   */\n      mstore\n        /* \"#utility.yul\":14296:14427   */\n      tag_335\n        /* \"#utility.yul\":14422:14426   */\n      dup2\n        /* \"#utility.yul\":14296:14427   */\n      tag_180\n      jump\t// in\n    tag_335:\n        /* \"#utility.yul\":14288:14427   */\n      swap1\n      pop\n        /* \"#utility.yul\":14015:14434   */\n      swap2\n      swap1\n      pop\n      jump\t// out\n        /* \"#utility.yul\":14440:14620   */\n    tag_181:\n        /* \"#utility.yul\":14488:14565   */\n      0x4e487b7100000000000000000000000000000000000000000000000000000000\n        /* \"#utility.yul\":14485:14486   */\n      0x00\n        /* \"#utility.yul\":14478:14566   */\n      mstore\n        /* \"#utility.yul\":14585:14589   */\n      0x11\n        /* \"#utility.yul\":14582:14583   */\n      0x04\n        /* \"#utility.yul\":14575:14590   */\n      mstore\n        /* \"#utility.yul\":14609:14613   */\n      0x24\n        /* \"#utility.yul\":14606:14607   */\n      0x00\n        /* \"#utility.yul\":14599:14614   */\n      revert\n        /* \"#utility.yul\":14626:14817   */\n    tag_95:\n        /* \"#utility.yul\":14666:14669   */\n      0x00\n        /* \"#utility.yul\":14685:14705   */\n      tag_338\n        /* \"#utility.yul\":14703:14704   */\n      dup3\n        /* \"#utility.yul\":14685:14705   */\n      tag_150\n      jump\t// in\n    tag_338:\n        /* \"#utility.yul\":14680:14705   */\n      swap2\n      pop\n        /* \"#utility.yul\":14719:14739   */\n      tag_339\n        /* \"#utility.yul\":14737:14738   */\n      dup4\n        /* \"#utility.yul\":14719:14739   */\n      tag_150\n      jump\t// in\n    tag_339:\n        /* \"#utility.yul\":14714:14739   */\n      swap3\n      pop\n        /* \"#utility.yul\":14762:14763   */\n      dup3\n        /* \"#utility.yul\":14759:14760   */\n      dup3\n        /* \"#utility.yul\":14755:14764   */\n      add\n        /* \"#utility.yul\":14748:14764   */\n      swap1\n      pop\n        /* \"#utility.yul\":14783:14786   */\n      dup1\n        /* \"#utility.yul\":14780:14781   */\n      dup3\n        /* \"#utility.yul\":14777:14787   */\n      gt\n        /* \"#utility.yul\":14774:14810   */\n      iszero\n      tag_340\n      jumpi\n        /* \"#utility.yul\":14790:14808   */\n      tag_341\n      tag_181\n      jump\t// in\n    tag_341:\n        /* \"#utility.yul\":14774:14810   */\n    tag_340:\n        /* \"#utility.yul\":14626:14817   */\n      swap3\n      swap2\n      pop\n      pop\n      jump\t// out\n        /* \"#utility.yul\":14823:15044   */\n    tag_182:\n        /* \"#utility.yul\":14963:14997   */\n      0x4f6e6c792061646d696e2063616e20706572666f726d20746869732061637469\n        /* \"#utility.yul\":14959:14960   */\n      0x00\n        /* \"#utility.yul\":14951:14957   */\n      dup3\n        /* \"#utility.yul\":14947:14961   */\n      add\n        /* \"#utility.yul\":14940:14998   */\n      mstore\n        /* \"#utility.yul\":15032:15036   */\n      0x6f6e000000000000000000000000000000000000000000000000000000000000\n        /* \"#utility.yul\":15027:15029   */\n      0x20\n        /* \"#utility.yul\":15019:15025   */\n      dup3\n        /* \"#utility.yul\":15015:15030   */\n      add\n        /* \"#utility.yul\":15008:15037   */\n      mstore\n        /* \"#utility.yul\":14823:15044   */\n      pop\n      jump\t// out\n        /* \"#utility.yul\":15050:15416   */\n    tag_183:\n        /* \"#utility.yul\":15192:15195   */\n      0x00\n        /* \"#utility.yul\":15213:15280   */\n      tag_344\n        /* \"#utility.yul\":15277:15279   */\n      0x22\n        /* \"#utility.yul\":15272:15275   */\n      dup4\n        /* \"#utility.yul\":15213:15280   */\n      tag_155\n      jump\t// in\n    tag_344:\n        /* \"#utility.yul\":15206:15280   */\n      swap2\n      pop\n        /* \"#utility.yul\":15289:15382   */\n      tag_345\n        /* \"#utility.yul\":15378:15381   */\n      dup3\n        /* \"#utility.yul\":15289:15382   */\n      tag_182\n      jump\t// in\n    tag_345:\n        /* \"#utility.yul\":15407:15409   */\n      0x40\n        /* \"#utility.yul\":15402:15405   */\n      dup3\n        /* \"#utility.yul\":15398:15410   */\n      add\n        /* \"#utility.yul\":15391:15410   */\n      swap1\n      pop\n        /* \"#utility.yul\":15050:15416   */\n      swap2\n      swap1\n      pop\n      jump\t// out\n        /* \"#utility.yul\":15422:15841   */\n    tag_99:\n        /* \"#utility.yul\":15588:15592   */\n      0x00\n        /* \"#utility.yul\":15626:15628   */\n      0x20\n        /* \"#utility.yul\":15615:15624   */\n      dup3\n        /* \"#utility.yul\":15611:15629   */\n      add\n        /* \"#utility.yul\":15603:15629   */\n      swap1\n      pop\n        /* \"#utility.yul\":15675:15684   */\n      dup2\n        /* \"#utility.yul\":15669:15673   */\n      dup2\n        /* \"#utility.yul\":15665:15685   */\n      sub\n        /* \"#utility.yul\":15661:15662   */\n      0x00\n        /* \"#utility.yul\":15650:15659   */\n      dup4\n        /* \"#utility.yul\":15646:15663   */\n      add\n        /* \"#utility.yul\":15639:15686   */\n      mstore\n        /* \"#utility.yul\":15703:15834   */\n      tag_347\n        /* \"#utility.yul\":15829:15833   */\n      dup2\n        /* \"#utility.yul\":15703:15834   */\n      tag_183\n      jump\t// in\n    tag_347:\n        /* \"#utility.yul\":15695:15834   */\n      swap1\n      pop\n        /* \"#utility.yul\":15422:15841   */\n      swap2\n      swap1\n      pop\n      jump\t// out\n        /* \"#utility.yul\":15847:16257   */\n    tag_116:\n        /* \"#utility.yul\":15887:15894   */\n      0x00\n        /* \"#utility.yul\":15910:15930   */\n      tag_349\n        /* \"#utility.yul\":15928:15929   */\n      dup3\n        /* \"#utility.yul\":15910:15930   */\n      tag_150\n      jump\t// in\n    tag_349:\n        /* \"#utility.yul\":15905:15930   */\n      swap2\n      pop\n        /* \"#utility.yul\":15944:15964   */\n      tag_350\n        /* \"#utility.yul\":15962:15963   */\n      dup4\n        /* \"#utility.yul\":15944:15964   */\n      tag_150\n      jump\t// in\n    tag_350:\n        /* \"#utility.yul\":15939:15964   */\n      swap3\n      pop\n        /* \"#utility.yul\":15999:16000   */\n      dup3\n        /* \"#utility.yul\":15996:15997   */\n      dup3\n        /* \"#utility.yul\":15992:16001   */\n      mul\n        /* \"#utility.yul\":16021:16051   */\n      tag_351\n        /* \"#utility.yul\":16039:16050   */\n      dup2\n        /* \"#utility.yul\":16021:16051   */\n      tag_150\n      jump\t// in\n    tag_351:\n        /* \"#utility.yul\":16010:16051   */\n      swap2\n      pop\n        /* \"#utility.yul\":16200:16201   */\n      dup3\n        /* \"#utility.yul\":16191:16198   */\n      dup3\n        /* \"#utility.yul\":16187:16202   */\n      div\n        /* \"#utility.yul\":16184:16185   */\n      dup5\n        /* \"#utility.yul\":16181:16203   */\n      eq\n        /* \"#utility.yul\":16161:16162   */\n      dup4\n        /* \"#utility.yul\":16154:16163   */\n      iszero\n        /* \"#utility.yul\":16134:16217   */\n      or\n        /* \"#utility.yul\":16111:16250   */\n      tag_352\n      jumpi\n        /* \"#utility.yul\":16230:16248   */\n      tag_353\n      tag_181\n      jump\t// in\n    tag_353:\n        /* \"#utility.yul\":16111:16250   */\n    tag_352:\n        /* \"#utility.yul\":15895:16257   */\n      pop\n        /* \"#utility.yul\":15847:16257   */\n      swap3\n      swap2\n      pop\n      pop\n      jump\t// out\n        /* \"#utility.yul\":16263:16443   */\n    tag_184:\n        /* \"#utility.yul\":16311:16388   */\n      0x4e487b7100000000000000000000000000000000000000000000000000000000\n        /* \"#utility.yul\":16308:16309   */\n      0x00\n        /* \"#utility.yul\":16301:16389   */\n      mstore\n        /* \"#utility.yul\":16408:16412   */\n      0x12\n        /* \"#utility.yul\":16405:16406   */\n      0x04\n        /* \"#utility.yul\":16398:16413   */\n      mstore\n        /* \"#utility.yul\":16432:16436   */\n      0x24\n        /* \"#utility.yul\":16429:16430   */\n      0x00\n        /* \"#utility.yul\":16422:16437   */\n      revert\n        /* \"#utility.yul\":16449:16634   */\n    tag_118:\n        /* \"#utility.yul\":16489:16490   */\n      0x00\n        /* \"#utility.yul\":16506:16526   */\n      tag_356\n        /* \"#utility.yul\":16524:16525   */\n      dup3\n        /* \"#utility.yul\":16506:16526   */\n      tag_150\n      jump\t// in\n    tag_356:\n        /* \"#utility.yul\":16501:16526   */\n      swap2\n      pop\n        /* \"#utility.yul\":16540:16560   */\n      tag_357\n        /* \"#utility.yul\":16558:16559   */\n      dup4\n        /* \"#utility.yul\":16540:16560   */\n      tag_150\n      jump\t// in\n    tag_357:\n        /* \"#utility.yul\":16535:16560   */\n      swap3\n      pop\n        /* \"#utility.yul\":16579:16580   */\n      dup3\n        /* \"#utility.yul\":16569:16604   */\n      tag_358\n      jumpi\n        /* \"#utility.yul\":16584:16602   */\n      tag_359\n      tag_184\n      jump\t// in\n    tag_359:\n        /* \"#utility.yul\":16569:16604   */\n    tag_358:\n        /* \"#utility.yul\":16626:16627   */\n      dup3\n        /* \"#utility.yul\":16623:16624   */\n      dup3\n        /* \"#utility.yul\":16619:16628   */\n      div\n        /* \"#utility.yul\":16614:16628   */\n      swap1\n      pop\n        /* \"#utility.yul\":16449:16634   */\n      swap3\n      swap2\n      pop\n      pop\n      jump\t// out\n\n    auxdata: 0xa26469706673582212209cff4be06cac03e0470055ad9b6191a18976de2f634ad5bd9ed1cb5d77ce35a164736f6c634300081a0033\n}\n",
				"bytecode": {
					"linkReferences": {},
					"object": "6080604052348015600e575f80fd5b5060405161145e38038061145e8339818101604052810190602e919060ab565b335f806101000a81548173ffffffffffffffffffffffffffffffffffffffff021916908373ffffffffffffffffffffffffffffffffffffffff160217905550806001819055505060d1565b5f80fd5b5f819050919050565b608d81607d565b81146096575f80fd5b50565b5f8151905060a5816086565b92915050565b5f6020828403121560bd5760bc6079565b5b5f60c8848285016099565b91505092915050565b611380806100de5f395ff3fe608060405234801561000f575f80fd5b50600436106100a7575f3560e01c8063968ed6001161006f578063968ed60014610166578063a721ad5914610184578063bdb1ad0f1461018e578063e4a8f18b146101aa578063f0f3f2c8146101c8578063f851a440146101fb576100a7565b80630c16d408146100ab578063107046bd146100c75780631b605b86146100fb5780635df813301461011957806383a67d381461014a575b5f80fd5b6100c560048036038101906100c09190610ba4565b610219565b005b6100e160048036038101906100dc9190610bfe565b610306565b6040516100f2959493929190610cd7565b60405180910390f35b6101036103ec565b6040516101109190610d2f565b60405180910390f35b610133600480360381019061012e9190610bfe565b6103f8565b604051610141929190610d48565b60405180910390f35b610164600480360381019061015f9190610bfe565b610446565b005b61016e610668565b60405161017b9190610d2f565b60405180910390f35b61018c61066e565b005b6101a860048036038101906101a39190610bfe565b610823565b005b6101b26108ba565b6040516101bf9190610d2f565b60405180910390f35b6101e260048036038101906101dd9190610bfe565b6108c6565b6040516101f29493929190610d6f565b60405180910390f35b610203610a01565b6040516102109190610db9565b60405180910390f35b5f600280549050905060026040518060a001604052808381526020018581526020018481526020015f81526020013373ffffffffffffffffffffffffffffffffffffffff16815250908060018154018082558091505060019003905f5260205f2090600502015f909190919091505f820151815f015560208201518160010190816102a49190610fcc565b5060408201518160020155606082015181600301556080820151816004015f6101000a81548173ffffffffffffffffffffffffffffffffffffffff021916908373ffffffffffffffffffffffffffffffffffffffff1602179055505050505050565b60028181548110610315575f80fd5b905f5260205f2090600502015f91509050805f01549080600101805461033a90610dff565b80601f016020809104026020016040519081016040528092919081815260200182805461036690610dff565b80156103b15780601f10610388576101008083540402835291602001916103b1565b820191905f5260205f20905b81548152906001019060200180831161039457829003601f168201915b505050505090806002015490806003015490806004015f9054906101000a900473ffffffffffffffffffffffffffffffffffffffff16905085565b5f600380549050905090565b60038181548110610407575f80fd5b905f5260205f2090600202015f91509050805f015f9054906101000a900473ffffffffffffffffffffffffffffffffffffffff16908060010154905082565b600280549050811061048d576040517f08c379a0000000000000000000000000000000000000000000000000000000008152600401610484906110e5565b60405180910390fd5b5f5b600380549050811015610587573373ffffffffffffffffffffffffffffffffffffffff16600382815481106104c7576104c6611103565b5b905f5260205f2090600202015f015f9054906101000a900473ffffffffffffffffffffffffffffffffffffffff1673ffffffffffffffffffffffffffffffffffffffff1614801561053a5750816003828154811061052857610527611103565b5b905f5260205f20906002020160010154145b1561057a576040517f08c379a0000000000000000000000000000000000000000000000000000000008152600401610571906111a0565b60405180910390fd5b808060010191505061048f565b50600360405180604001604052803373ffffffffffffffffffffffffffffffffffffffff16815260200183815250908060018154018082558091505060019003905f5260205f2090600202015f909190919091505f820151815f015f6101000a81548173ffffffffffffffffffffffffffffffffffffffff021916908373ffffffffffffffffffffffffffffffffffffffff16021790555060208201518160010155505060016002828154811061064157610640611103565b5b905f5260205f2090600502016003015f82825461065e91906111eb565b9250508190555050565b60015481565b5f8054906101000a900473ffffffffffffffffffffffffffffffffffffffff1673ffffffffffffffffffffffffffffffffffffffff163373ffffffffffffffffffffffffffffffffffffffff16146106fb576040517f08c379a00000000000000000000000000000000000000000000000000000000081526004016106f29061128e565b60405180910390fd5b5f805b600280549050811015610749576002818154811061071f5761071e611103565b5b905f5260205f209060050201600301548261073a91906111eb565b915080806001019150506106fe565b505f5b60028054905081101561081f575f6002828154811061076e5761076d611103565b5b905f5260205f20906005020190505f81600301541115610811575f83600154836003015461079c91906112ac565b6107a6919061131a565b9050816004015f9054906101000a900473ffffffffffffffffffffffffffffffffffffffff1673ffffffffffffffffffffffffffffffffffffffff166108fc8290811502906040515f60405180830381858888f1935050505015801561080e573d5f803e3d5ffd5b50505b50808060010191505061074c565b5050565b5f8054906101000a900473ffffffffffffffffffffffffffffffffffffffff1673ffffffffffffffffffffffffffffffffffffffff163373ffffffffffffffffffffffffffffffffffffffff16146108b0576040517f08c379a00000000000000000000000000000000000000000000000000000000081526004016108a79061128e565b60405180910390fd5b8060018190555050565b5f600280549050905090565b60605f805f6002805490508510610912576040517f08c379a0000000000000000000000000000000000000000000000000000000008152600401610909906110e5565b60405180910390fd5b5f6002868154811061092757610926611103565b5b905f5260205f20906005020190508060010181600201548260030154836004015f9054906101000a900473ffffffffffffffffffffffffffffffffffffffff1683805461097390610dff565b80601f016020809104026020016040519081016040528092919081815260200182805461099f90610dff565b80156109ea5780601f106109c1576101008083540402835291602001916109ea565b820191905f5260205f20905b8154815290600101906020018083116109cd57829003601f168201915b505050505093509450945094509450509193509193565b5f8054906101000a900473ffffffffffffffffffffffffffffffffffffffff1681565b5f604051905090565b5f80fd5b5f80fd5b5f80fd5b5f80fd5b5f601f19601f8301169050919050565b7f4e487b71000000000000000000000000000000000000000000000000000000005f52604160045260245ffd5b610a8382610a3d565b810181811067ffffffffffffffff82111715610aa257610aa1610a4d565b5b80604052505050565b5f610ab4610a24565b9050610ac08282610a7a565b919050565b5f67ffffffffffffffff821115610adf57610ade610a4d565b5b610ae882610a3d565b9050602081019050919050565b828183375f83830152505050565b5f610b15610b1084610ac5565b610aab565b905082815260208101848484011115610b3157610b30610a39565b5b610b3c848285610af5565b509392505050565b5f82601f830112610b5857610b57610a35565b5b8135610b68848260208601610b03565b91505092915050565b5f819050919050565b610b8381610b71565b8114610b8d575f80fd5b50565b5f81359050610b9e81610b7a565b92915050565b5f8060408385031215610bba57610bb9610a2d565b5b5f83013567ffffffffffffffff811115610bd757610bd6610a31565b5b610be385828601610b44565b9250506020610bf485828601610b90565b9150509250929050565b5f60208284031215610c1357610c12610a2d565b5b5f610c2084828501610b90565b91505092915050565b610c3281610b71565b82525050565b5f81519050919050565b5f82825260208201905092915050565b8281835e5f83830152505050565b5f610c6a82610c38565b610c748185610c42565b9350610c84818560208601610c52565b610c8d81610a3d565b840191505092915050565b5f73ffffffffffffffffffffffffffffffffffffffff82169050919050565b5f610cc182610c98565b9050919050565b610cd181610cb7565b82525050565b5f60a082019050610cea5f830188610c29565b8181036020830152610cfc8187610c60565b9050610d0b6040830186610c29565b610d186060830185610c29565b610d256080830184610cc8565b9695505050505050565b5f602082019050610d425f830184610c29565b92915050565b5f604082019050610d5b5f830185610cc8565b610d686020830184610c29565b9392505050565b5f6080820190508181035f830152610d878187610c60565b9050610d966020830186610c29565b610da36040830185610c29565b610db06060830184610cc8565b95945050505050565b5f602082019050610dcc5f830184610cc8565b92915050565b7f4e487b71000000000000000000000000000000000000000000000000000000005f52602260045260245ffd5b5f6002820490506001821680610e1657607f821691505b602082108103610e2957610e28610dd2565b5b50919050565b5f819050815f5260205f209050919050565b5f6020601f8301049050919050565b5f82821b905092915050565b5f60088302610e8b7fffffffffffffffffffffffffffffffffffffffffffffffffffffffffffffffff82610e50565b610e958683610e50565b95508019841693508086168417925050509392505050565b5f819050919050565b5f610ed0610ecb610ec684610b71565b610ead565b610b71565b9050919050565b5f819050919050565b610ee983610eb6565b610efd610ef582610ed7565b848454610e5c565b825550505050565b5f90565b610f11610f05565b610f1c818484610ee0565b505050565b5b81811015610f3f57610f345f82610f09565b600181019050610f22565b5050565b601f821115610f8457610f5581610e2f565b610f5e84610e41565b81016020851015610f6d578190505b610f81610f7985610e41565b830182610f21565b50505b505050565b5f82821c905092915050565b5f610fa45f1984600802610f89565b1980831691505092915050565b5f610fbc8383610f95565b9150826002028217905092915050565b610fd582610c38565b67ffffffffffffffff811115610fee57610fed610a4d565b5b610ff88254610dff565b611003828285610f43565b5f60209050601f831160018114611034575f8415611022578287015190505b61102c8582610fb1565b865550611093565b601f19841661104286610e2f565b5f5b8281101561106957848901518255600182019150602085019450602081019050611044565b868310156110865784890151611082601f891682610f95565b8355505b6001600288020188555050505b505050505050565b7f496e76616c69642070726f6a65637420494400000000000000000000000000005f82015250565b5f6110cf601283610c42565b91506110da8261109b565b602082019050919050565b5f6020820190508181035f8301526110fc816110c3565b9050919050565b7f4e487b71000000000000000000000000000000000000000000000000000000005f52603260045260245ffd5b7f596f75206861766520616c726561647920766f74656420666f722074686973205f8201527f70726f6a65637400000000000000000000000000000000000000000000000000602082015250565b5f61118a602783610c42565b915061119582611130565b604082019050919050565b5f6020820190508181035f8301526111b78161117e565b9050919050565b7f4e487b71000000000000000000000000000000000000000000000000000000005f52601160045260245ffd5b5f6111f582610b71565b915061120083610b71565b9250828201905080821115611218576112176111be565b5b92915050565b7f4f6e6c792061646d696e2063616e20706572666f726d207468697320616374695f8201527f6f6e000000000000000000000000000000000000000000000000000000000000602082015250565b5f611278602283610c42565b91506112838261121e565b604082019050919050565b5f6020820190508181035f8301526112a58161126c565b9050919050565b5f6112b682610b71565b91506112c183610b71565b92508282026112cf81610b71565b915082820484148315176112e6576112e56111be565b5b5092915050565b7f4e487b71000000000000000000000000000000000000000000000000000000005f52601260045260245ffd5b5f61132482610b71565b915061132f83610b71565b92508261133f5761133e6112ed565b5b82820490509291505056fea26469706673582212209cff4be06cac03e0470055ad9b6191a18976de2f634ad5bd9ed1cb5d77ce35a164736f6c634300081a0033",
					"opcodes": "PUSH1 0x80 PUSH1 0x40 MSTORE CALLVALUE DUP1 ISZERO PUSH1 0xE JUMPI PUSH0 DUP1 REVERT JUMPDEST POP PUSH1 0x40 MLOAD PUSH2 0x145E CODESIZE SUB DUP1 PUSH2 0x145E DUP4 CODECOPY DUP2 DUP2 ADD PUSH1 0x40 MSTORE DUP2 ADD SWAP1 PUSH1 0x2E SWAP2 SWAP1 PUSH1 0xAB JUMP JUMPDEST CALLER PUSH0 DUP1 PUSH2 0x100 EXP DUP2 SLOAD DUP2 PUSH20 0xFFFFFFFFFFFFFFFFFFFFFFFFFFFFFFFFFFFFFFFF MUL NOT AND SWAP1 DUP4 PUSH20 0xFFFFFFFFFFFFFFFFFFFFFFFFFFFFFFFFFFFFFFFF AND MUL OR SWAP1 SSTORE POP DUP1 PUSH1 0x1 DUP2 SWAP1 SSTORE POP POP PUSH1 0xD1 JUMP JUMPDEST PUSH0 DUP1 REVERT JUMPDEST PUSH0 DUP2 SWAP1 POP SWAP2 SWAP1 POP JUMP JUMPDEST PUSH1 0x8D DUP2 PUSH1 0x7D JUMP JUMPDEST DUP2 EQ PUSH1 0x96 JUMPI PUSH0 DUP1 REVERT JUMPDEST POP JUMP JUMPDEST PUSH0 DUP2 MLOAD SWAP1 POP PUSH1 0xA5 DUP2 PUSH1 0x86 JUMP JUMPDEST SWAP3 SWAP2 POP POP JUMP JUMPDEST PUSH0 PUSH1 0x20 DUP3 DUP5 SUB SLT ISZERO PUSH1 0xBD JUMPI PUSH1 0xBC PUSH1 0x79 JUMP JUMPDEST JUMPDEST PUSH0 PUSH1 0xC8 DUP5 DUP3 DUP6 ADD PUSH1 0x99 JUMP JUMPDEST SWAP2 POP POP SWAP3 SWAP2 POP POP JUMP JUMPDEST PUSH2 0x1380 DUP1 PUSH2 0xDE PUSH0 CODECOPY PUSH0 RETURN INVALID PUSH1 0x80 PUSH1 0x40 MSTORE CALLVALUE DUP1 ISZERO PUSH2 0xF JUMPI PUSH0 DUP1 REVERT JUMPDEST POP PUSH1 0x4 CALLDATASIZE LT PUSH2 0xA7 JUMPI PUSH0 CALLDATALOAD PUSH1 0xE0 SHR DUP1 PUSH4 0x968ED600 GT PUSH2 0x6F JUMPI DUP1 PUSH4 0x968ED600 EQ PUSH2 0x166 JUMPI DUP1 PUSH4 0xA721AD59 EQ PUSH2 0x184 JUMPI DUP1 PUSH4 0xBDB1AD0F EQ PUSH2 0x18E JUMPI DUP1 PUSH4 0xE4A8F18B EQ PUSH2 0x1AA JUMPI DUP1 PUSH4 0xF0F3F2C8 EQ PUSH2 0x1C8 JUMPI DUP1 PUSH4 0xF851A440 EQ PUSH2 0x1FB JUMPI PUSH2 0xA7 JUMP JUMPDEST DUP1 PUSH4 0xC16D408 EQ PUSH2 0xAB JUMPI DUP1 PUSH4 0x107046BD EQ PUSH2 0xC7 JUMPI DUP1 PUSH4 0x1B605B86 EQ PUSH2 0xFB JUMPI DUP1 PUSH4 0x5DF81330 EQ PUSH2 0x119 JUMPI DUP1 PUSH4 0x83A67D38 EQ PUSH2 0x14A JUMPI JUMPDEST PUSH0 DUP1 REVERT JUMPDEST PUSH2 0xC5 PUSH1 0x4 DUP1 CALLDATASIZE SUB DUP2 ADD SWAP1 PUSH2 0xC0 SWAP2 SWAP1 PUSH2 0xBA4 JUMP JUMPDEST PUSH2 0x219 JUMP JUMPDEST STOP JUMPDEST PUSH2 0xE1 PUSH1 0x4 DUP1 CALLDATASIZE SUB DUP2 ADD SWAP1 PUSH2 0xDC SWAP2 SWAP1 PUSH2 0xBFE JUMP JUMPDEST PUSH2 0x306 JUMP JUMPDEST PUSH1 0x40 MLOAD PUSH2 0xF2 SWAP6 SWAP5 SWAP4 SWAP3 SWAP2 SWAP1 PUSH2 0xCD7 JUMP JUMPDEST PUSH1 0x40 MLOAD DUP1 SWAP2 SUB SWAP1 RETURN JUMPDEST PUSH2 0x103 PUSH2 0x3EC JUMP JUMPDEST PUSH1 0x40 MLOAD PUSH2 0x110 SWAP2 SWAP1 PUSH2 0xD2F JUMP JUMPDEST PUSH1 0x40 MLOAD DUP1 SWAP2 SUB SWAP1 RETURN JUMPDEST PUSH2 0x133 PUSH1 0x4 DUP1 CALLDATASIZE SUB DUP2 ADD SWAP1 PUSH2 0x12E SWAP2 SWAP1 PUSH2 0xBFE JUMP JUMPDEST PUSH2 0x3F8 JUMP JUMPDEST PUSH1 0x40 MLOAD PUSH2 0x141 SWAP3 SWAP2 SWAP1 PUSH2 0xD48 JUMP JUMPDEST PUSH1 0x40 MLOAD DUP1 SWAP2 SUB SWAP1 RETURN JUMPDEST PUSH2 0x164 PUSH1 0x4 DUP1 CALLDATASIZE SUB DUP2 ADD SWAP1 PUSH2 0x15F SWAP2 SWAP1 PUSH2 0xBFE JUMP JUMPDEST PUSH2 0x446 JUMP JUMPDEST STOP JUMPDEST PUSH2 0x16E PUSH2 0x668 JUMP JUMPDEST PUSH1 0x40 MLOAD PUSH2 0x17B SWAP2 SWAP1 PUSH2 0xD2F JUMP JUMPDEST PUSH1 0x40 MLOAD DUP1 SWAP2 SUB SWAP1 RETURN JUMPDEST PUSH2 0x18C PUSH2 0x66E JUMP JUMPDEST STOP JUMPDEST PUSH2 0x1A8 PUSH1 0x4 DUP1 CALLDATASIZE SUB DUP2 ADD SWAP1 PUSH2 0x1A3 SWAP2 SWAP1 PUSH2 0xBFE JUMP JUMPDEST PUSH2 0x823 JUMP JUMPDEST STOP JUMPDEST PUSH2 0x1B2 PUSH2 0x8BA JUMP JUMPDEST PUSH1 0x40 MLOAD PUSH2 0x1BF SWAP2 SWAP1 PUSH2 0xD2F JUMP JUMPDEST PUSH1 0x40 MLOAD DUP1 SWAP2 SUB SWAP1 RETURN JUMPDEST PUSH2 0x1E2 PUSH1 0x4 DUP1 CALLDATASIZE SUB DUP2 ADD SWAP1 PUSH2 0x1DD SWAP2 SWAP1 PUSH2 0xBFE JUMP JUMPDEST PUSH2 0x8C6 JUMP JUMPDEST PUSH1 0x40 MLOAD PUSH2 0x1F2 SWAP5 SWAP4 SWAP3 SWAP2 SWAP1 PUSH2 0xD6F JUMP JUMPDEST PUSH1 0x40 MLOAD DUP1 SWAP2 SUB SWAP1 RETURN JUMPDEST PUSH2 0x203 PUSH2 0xA01 JUMP JUMPDEST PUSH1 0x40 MLOAD PUSH2 0x210 SWAP2 SWAP1 PUSH2 0xDB9 JUMP JUMPDEST PUSH1 0x40 MLOAD DUP1 SWAP2 SUB SWAP1 RETURN JUMPDEST PUSH0 PUSH1 0x2 DUP1 SLOAD SWAP1 POP SWAP1 POP PUSH1 0x2 PUSH1 0x40 MLOAD DUP1 PUSH1 0xA0 ADD PUSH1 0x40 MSTORE DUP1 DUP4 DUP2 MSTORE PUSH1 0x20 ADD DUP6 DUP2 MSTORE PUSH1 0x20 ADD DUP5 DUP2 MSTORE PUSH1 0x20 ADD PUSH0 DUP2 MSTORE PUSH1 0x20 ADD CALLER PUSH20 0xFFFFFFFFFFFFFFFFFFFFFFFFFFFFFFFFFFFFFFFF AND DUP2 MSTORE POP SWAP1 DUP1 PUSH1 0x1 DUP2 SLOAD ADD DUP1 DUP3 SSTORE DUP1 SWAP2 POP POP PUSH1 0x1 SWAP1 SUB SWAP1 PUSH0 MSTORE PUSH1 0x20 PUSH0 KECCAK256 SWAP1 PUSH1 0x5 MUL ADD PUSH0 SWAP1 SWAP2 SWAP1 SWAP2 SWAP1 SWAP2 POP PUSH0 DUP3 ADD MLOAD DUP2 PUSH0 ADD SSTORE PUSH1 0x20 DUP3 ADD MLOAD DUP2 PUSH1 0x1 ADD SWAP1 DUP2 PUSH2 0x2A4 SWAP2 SWAP1 PUSH2 0xFCC JUMP JUMPDEST POP PUSH1 0x40 DUP3 ADD MLOAD DUP2 PUSH1 0x2 ADD SSTORE PUSH1 0x60 DUP3 ADD MLOAD DUP2 PUSH1 0x3 ADD SSTORE PUSH1 0x80 DUP3 ADD MLOAD DUP2 PUSH1 0x4 ADD PUSH0 PUSH2 0x100 EXP DUP2 SLOAD DUP2 PUSH20 0xFFFFFFFFFFFFFFFFFFFFFFFFFFFFFFFFFFFFFFFF MUL NOT AND SWAP1 DUP4 PUSH20 0xFFFFFFFFFFFFFFFFFFFFFFFFFFFFFFFFFFFFFFFF AND MUL OR SWAP1 SSTORE POP POP POP POP POP POP JUMP JUMPDEST PUSH1 0x2 DUP2 DUP2 SLOAD DUP2 LT PUSH2 0x315 JUMPI PUSH0 DUP1 REVERT JUMPDEST SWAP1 PUSH0 MSTORE PUSH1 0x20 PUSH0 KECCAK256 SWAP1 PUSH1 0x5 MUL ADD PUSH0 SWAP2 POP SWAP1 POP DUP1 PUSH0 ADD SLOAD SWAP1 DUP1 PUSH1 0x1 ADD DUP1 SLOAD PUSH2 0x33A SWAP1 PUSH2 0xDFF JUMP JUMPDEST DUP1 PUSH1 0x1F ADD PUSH1 0x20 DUP1 SWAP2 DIV MUL PUSH1 0x20 ADD PUSH1 0x40 MLOAD SWAP1 DUP2 ADD PUSH1 0x40 MSTORE DUP1 SWAP3 SWAP2 SWAP1 DUP2 DUP2 MSTORE PUSH1 0x20 ADD DUP3 DUP1 SLOAD PUSH2 0x366 SWAP1 PUSH2 0xDFF JUMP JUMPDEST DUP1 ISZERO PUSH2 0x3B1 JUMPI DUP1 PUSH1 0x1F LT PUSH2 0x388 JUMPI PUSH2 0x100 DUP1 DUP4 SLOAD DIV MUL DUP4 MSTORE SWAP2 PUSH1 0x20 ADD SWAP2 PUSH2 0x3B1 JUMP JUMPDEST DUP3 ADD SWAP2 SWAP1 PUSH0 MSTORE PUSH1 0x20 PUSH0 KECCAK256 SWAP1 JUMPDEST DUP2 SLOAD DUP2 MSTORE SWAP1 PUSH1 0x1 ADD SWAP1 PUSH1 0x20 ADD DUP1 DUP4 GT PUSH2 0x394 JUMPI DUP3 SWAP1 SUB PUSH1 0x1F AND DUP3 ADD SWAP2 JUMPDEST POP POP POP POP POP SWAP1 DUP1 PUSH1 0x2 ADD SLOAD SWAP1 DUP1 PUSH1 0x3 ADD SLOAD SWAP1 DUP1 PUSH1 0x4 ADD PUSH0 SWAP1 SLOAD SWAP1 PUSH2 0x100 EXP SWAP1 DIV PUSH20 0xFFFFFFFFFFFFFFFFFFFFFFFFFFFFFFFFFFFFFFFF AND SWAP1 POP DUP6 JUMP JUMPDEST PUSH0 PUSH1 0x3 DUP1 SLOAD SWAP1 POP SWAP1 POP SWAP1 JUMP JUMPDEST PUSH1 0x3 DUP2 DUP2 SLOAD DUP2 LT PUSH2 0x407 JUMPI PUSH0 DUP1 REVERT JUMPDEST SWAP1 PUSH0 MSTORE PUSH1 0x20 PUSH0 KECCAK256 SWAP1 PUSH1 0x2 MUL ADD PUSH0 SWAP2 POP SWAP1 POP DUP1 PUSH0 ADD PUSH0 SWAP1 SLOAD SWAP1 PUSH2 0x100 EXP SWAP1 DIV PUSH20 0xFFFFFFFFFFFFFFFFFFFFFFFFFFFFFFFFFFFFFFFF AND SWAP1 DUP1 PUSH1 0x1 ADD SLOAD SWAP1 POP DUP3 JUMP JUMPDEST PUSH1 0x2 DUP1 SLOAD SWAP1 POP DUP2 LT PUSH2 0x48D JUMPI PUSH1 0x40 MLOAD PUSH32 0x8C379A000000000000000000000000000000000000000000000000000000000 DUP2 MSTORE PUSH1 0x4 ADD PUSH2 0x484 SWAP1 PUSH2 0x10E5 JUMP JUMPDEST PUSH1 0x40 MLOAD DUP1 SWAP2 SUB SWAP1 REVERT JUMPDEST PUSH0 JUMPDEST PUSH1 0x3 DUP1 SLOAD SWAP1 POP DUP2 LT ISZERO PUSH2 0x587 JUMPI CALLER PUSH20 0xFFFFFFFFFFFFFFFFFFFFFFFFFFFFFFFFFFFFFFFF AND PUSH1 0x3 DUP3 DUP2 SLOAD DUP2 LT PUSH2 0x4C7 JUMPI PUSH2 0x4C6 PUSH2 0x1103 JUMP JUMPDEST JUMPDEST SWAP1 PUSH0 MSTORE PUSH1 0x20 PUSH0 KECCAK256 SWAP1 PUSH1 0x2 MUL ADD PUSH0 ADD PUSH0 SWAP1 SLOAD SWAP1 PUSH2 0x100 EXP SWAP1 DIV PUSH20 0xFFFFFFFFFFFFFFFFFFFFFFFFFFFFFFFFFFFFFFFF AND PUSH20 0xFFFFFFFFFFFFFFFFFFFFFFFFFFFFFFFFFFFFFFFF AND EQ DUP1 ISZERO PUSH2 0x53A JUMPI POP DUP2 PUSH1 0x3 DUP3 DUP2 SLOAD DUP2 LT PUSH2 0x528 JUMPI PUSH2 0x527 PUSH2 0x1103 JUMP JUMPDEST JUMPDEST SWAP1 PUSH0 MSTORE PUSH1 0x20 PUSH0 KECCAK256 SWAP1 PUSH1 0x2 MUL ADD PUSH1 0x1 ADD SLOAD EQ JUMPDEST ISZERO PUSH2 0x57A JUMPI PUSH1 0x40 MLOAD PUSH32 0x8C379A000000000000000000000000000000000000000000000000000000000 DUP2 MSTORE PUSH1 0x4 ADD PUSH2 0x571 SWAP1 PUSH2 0x11A0 JUMP JUMPDEST PUSH1 0x40 MLOAD DUP1 SWAP2 SUB SWAP1 REVERT JUMPDEST DUP1 DUP1 PUSH1 0x1 ADD SWAP2 POP POP PUSH2 0x48F JUMP JUMPDEST POP PUSH1 0x3 PUSH1 0x40 MLOAD DUP1 PUSH1 0x40 ADD PUSH1 0x40 MSTORE DUP1 CALLER PUSH20 0xFFFFFFFFFFFFFFFFFFFFFFFFFFFFFFFFFFFFFFFF AND DUP2 MSTORE PUSH1 0x20 ADD DUP4 DUP2 MSTORE POP SWAP1 DUP1 PUSH1 0x1 DUP2 SLOAD ADD DUP1 DUP3 SSTORE DUP1 SWAP2 POP POP PUSH1 0x1 SWAP1 SUB SWAP1 PUSH0 MSTORE PUSH1 0x20 PUSH0 KECCAK256 SWAP1 PUSH1 0x2 MUL ADD PUSH0 SWAP1 SWAP2 SWAP1 SWAP2 SWAP1 SWAP2 POP PUSH0 DUP3 ADD MLOAD DUP2 PUSH0 ADD PUSH0 PUSH2 0x100 EXP DUP2 SLOAD DUP2 PUSH20 0xFFFFFFFFFFFFFFFFFFFFFFFFFFFFFFFFFFFFFFFF MUL NOT AND SWAP1 DUP4 PUSH20 0xFFFFFFFFFFFFFFFFFFFFFFFFFFFFFFFFFFFFFFFF AND MUL OR SWAP1 SSTORE POP PUSH1 0x20 DUP3 ADD MLOAD DUP2 PUSH1 0x1 ADD SSTORE POP POP PUSH1 0x1 PUSH1 0x2 DUP3 DUP2 SLOAD DUP2 LT PUSH2 0x641 JUMPI PUSH2 0x640 PUSH2 0x1103 JUMP JUMPDEST JUMPDEST SWAP1 PUSH0 MSTORE PUSH1 0x20 PUSH0 KECCAK256 SWAP1 PUSH1 0x5 MUL ADD PUSH1 0x3 ADD PUSH0 DUP3 DUP3 SLOAD PUSH2 0x65E SWAP2 SWAP1 PUSH2 0x11EB JUMP JUMPDEST SWAP3 POP POP DUP2 SWAP1 SSTORE POP POP JUMP JUMPDEST PUSH1 0x1 SLOAD DUP2 JUMP JUMPDEST PUSH0 DUP1 SLOAD SWAP1 PUSH2 0x100 EXP SWAP1 DIV PUSH20 0xFFFFFFFFFFFFFFFFFFFFFFFFFFFFFFFFFFFFFFFF AND PUSH20 0xFFFFFFFFFFFFFFFFFFFFFFFFFFFFFFFFFFFFFFFF AND CALLER PUSH20 0xFFFFFFFFFFFFFFFFFFFFFFFFFFFFFFFFFFFFFFFF AND EQ PUSH2 0x6FB JUMPI PUSH1 0x40 MLOAD PUSH32 0x8C379A000000000000000000000000000000000000000000000000000000000 DUP2 MSTORE PUSH1 0x4 ADD PUSH2 0x6F2 SWAP1 PUSH2 0x128E JUMP JUMPDEST PUSH1 0x40 MLOAD DUP1 SWAP2 SUB SWAP1 REVERT JUMPDEST PUSH0 DUP1 JUMPDEST PUSH1 0x2 DUP1 SLOAD SWAP1 POP DUP2 LT ISZERO PUSH2 0x749 JUMPI PUSH1 0x2 DUP2 DUP2 SLOAD DUP2 LT PUSH2 0x71F JUMPI PUSH2 0x71E PUSH2 0x1103 JUMP JUMPDEST JUMPDEST SWAP1 PUSH0 MSTORE PUSH1 0x20 PUSH0 KECCAK256 SWAP1 PUSH1 0x5 MUL ADD PUSH1 0x3 ADD SLOAD DUP3 PUSH2 0x73A SWAP2 SWAP1 PUSH2 0x11EB JUMP JUMPDEST SWAP2 POP DUP1 DUP1 PUSH1 0x1 ADD SWAP2 POP POP PUSH2 0x6FE JUMP JUMPDEST POP PUSH0 JUMPDEST PUSH1 0x2 DUP1 SLOAD SWAP1 POP DUP2 LT ISZERO PUSH2 0x81F JUMPI PUSH0 PUSH1 0x2 DUP3 DUP2 SLOAD DUP2 LT PUSH2 0x76E JUMPI PUSH2 0x76D PUSH2 0x1103 JUMP JUMPDEST JUMPDEST SWAP1 PUSH0 MSTORE PUSH1 0x20 PUSH0 KECCAK256 SWAP1 PUSH1 0x5 MUL ADD SWAP1 POP PUSH0 DUP2 PUSH1 0x3 ADD SLOAD GT ISZERO PUSH2 0x811 JUMPI PUSH0 DUP4 PUSH1 0x1 SLOAD DUP4 PUSH1 0x3 ADD SLOAD PUSH2 0x79C SWAP2 SWAP1 PUSH2 0x12AC JUMP JUMPDEST PUSH2 0x7A6 SWAP2 SWAP1 PUSH2 0x131A JUMP JUMPDEST SWAP1 POP DUP2 PUSH1 0x4 ADD PUSH0 SWAP1 SLOAD SWAP1 PUSH2 0x100 EXP SWAP1 DIV PUSH20 0xFFFFFFFFFFFFFFFFFFFFFFFFFFFFFFFFFFFFFFFF AND PUSH20 0xFFFFFFFFFFFFFFFFFFFFFFFFFFFFFFFFFFFFFFFF AND PUSH2 0x8FC DUP3 SWAP1 DUP2 ISZERO MUL SWAP1 PUSH1 0x40 MLOAD PUSH0 PUSH1 0x40 MLOAD DUP1 DUP4 SUB DUP2 DUP6 DUP9 DUP9 CALL SWAP4 POP POP POP POP ISZERO DUP1 ISZERO PUSH2 0x80E JUMPI RETURNDATASIZE PUSH0 DUP1 RETURNDATACOPY RETURNDATASIZE PUSH0 REVERT JUMPDEST POP POP JUMPDEST POP DUP1 DUP1 PUSH1 0x1 ADD SWAP2 POP POP PUSH2 0x74C JUMP JUMPDEST POP POP JUMP JUMPDEST PUSH0 DUP1 SLOAD SWAP1 PUSH2 0x100 EXP SWAP1 DIV PUSH20 0xFFFFFFFFFFFFFFFFFFFFFFFFFFFFFFFFFFFFFFFF AND PUSH20 0xFFFFFFFFFFFFFFFFFFFFFFFFFFFFFFFFFFFFFFFF AND CALLER PUSH20 0xFFFFFFFFFFFFFFFFFFFFFFFFFFFFFFFFFFFFFFFF AND EQ PUSH2 0x8B0 JUMPI PUSH1 0x40 MLOAD PUSH32 0x8C379A000000000000000000000000000000000000000000000000000000000 DUP2 MSTORE PUSH1 0x4 ADD PUSH2 0x8A7 SWAP1 PUSH2 0x128E JUMP JUMPDEST PUSH1 0x40 MLOAD DUP1 SWAP2 SUB SWAP1 REVERT JUMPDEST DUP1 PUSH1 0x1 DUP2 SWAP1 SSTORE POP POP JUMP JUMPDEST PUSH0 PUSH1 0x2 DUP1 SLOAD SWAP1 POP SWAP1 POP SWAP1 JUMP JUMPDEST PUSH1 0x60 PUSH0 DUP1 PUSH0 PUSH1 0x2 DUP1 SLOAD SWAP1 POP DUP6 LT PUSH2 0x912 JUMPI PUSH1 0x40 MLOAD PUSH32 0x8C379A000000000000000000000000000000000000000000000000000000000 DUP2 MSTORE PUSH1 0x4 ADD PUSH2 0x909 SWAP1 PUSH2 0x10E5 JUMP JUMPDEST PUSH1 0x40 MLOAD DUP1 SWAP2 SUB SWAP1 REVERT JUMPDEST PUSH0 PUSH1 0x2 DUP7 DUP2 SLOAD DUP2 LT PUSH2 0x927 JUMPI PUSH2 0x926 PUSH2 0x1103 JUMP JUMPDEST JUMPDEST SWAP1 PUSH0 MSTORE PUSH1 0x20 PUSH0 KECCAK256 SWAP1 PUSH1 0x5 MUL ADD SWAP1 POP DUP1 PUSH1 0x1 ADD DUP2 PUSH1 0x2 ADD SLOAD DUP3 PUSH1 0x3 ADD SLOAD DUP4 PUSH1 0x4 ADD PUSH0 SWAP1 SLOAD SWAP1 PUSH2 0x100 EXP SWAP1 DIV PUSH20 0xFFFFFFFFFFFFFFFFFFFFFFFFFFFFFFFFFFFFFFFF AND DUP4 DUP1 SLOAD PUSH2 0x973 SWAP1 PUSH2 0xDFF JUMP JUMPDEST DUP1 PUSH1 0x1F ADD PUSH1 0x20 DUP1 SWAP2 DIV MUL PUSH1 0x20 ADD PUSH1 0x40 MLOAD SWAP1 DUP2 ADD PUSH1 0x40 MSTORE DUP1 SWAP3 SWAP2 SWAP1 DUP2 DUP2 MSTORE PUSH1 0x20 ADD DUP3 DUP1 SLOAD PUSH2 0x99F SWAP1 PUSH2 0xDFF JUMP JUMPDEST DUP1 ISZERO PUSH2 0x9EA JUMPI DUP1 PUSH1 0x1F LT PUSH2 0x9C1 JUMPI PUSH2 0x100 DUP1 DUP4 SLOAD DIV MUL DUP4 MSTORE SWAP2 PUSH1 0x20 ADD SWAP2 PUSH2 0x9EA JUMP JUMPDEST DUP3 ADD SWAP2 SWAP1 PUSH0 MSTORE PUSH1 0x20 PUSH0 KECCAK256 SWAP1 JUMPDEST DUP2 SLOAD DUP2 MSTORE SWAP1 PUSH1 0x1 ADD SWAP1 PUSH1 0x20 ADD DUP1 DUP4 GT PUSH2 0x9CD JUMPI DUP3 SWAP1 SUB PUSH1 0x1F AND DUP3 ADD SWAP2 JUMPDEST POP POP POP POP POP SWAP4 POP SWAP5 POP SWAP5 POP SWAP5 POP SWAP5 POP POP SWAP2 SWAP4 POP SWAP2 SWAP4 JUMP JUMPDEST PUSH0 DUP1 SLOAD SWAP1 PUSH2 0x100 EXP SWAP1 DIV PUSH20 0xFFFFFFFFFFFFFFFFFFFFFFFFFFFFFFFFFFFFFFFF AND DUP2 JUMP JUMPDEST PUSH0 PUSH1 0x40 MLOAD SWAP1 POP SWAP1 JUMP JUMPDEST PUSH0 DUP1 REVERT JUMPDEST PUSH0 DUP1 REVERT JUMPDEST PUSH0 DUP1 REVERT JUMPDEST PUSH0 DUP1 REVERT JUMPDEST PUSH0 PUSH1 0x1F NOT PUSH1 0x1F DUP4 ADD AND SWAP1 POP SWAP2 SWAP1 POP JUMP JUMPDEST PUSH32 0x4E487B7100000000000000000000000000000000000000000000000000000000 PUSH0 MSTORE PUSH1 0x41 PUSH1 0x4 MSTORE PUSH1 0x24 PUSH0 REVERT JUMPDEST PUSH2 0xA83 DUP3 PUSH2 0xA3D JUMP JUMPDEST DUP2 ADD DUP2 DUP2 LT PUSH8 0xFFFFFFFFFFFFFFFF DUP3 GT OR ISZERO PUSH2 0xAA2 JUMPI PUSH2 0xAA1 PUSH2 0xA4D JUMP JUMPDEST JUMPDEST DUP1 PUSH1 0x40 MSTORE POP POP POP JUMP JUMPDEST PUSH0 PUSH2 0xAB4 PUSH2 0xA24 JUMP JUMPDEST SWAP1 POP PUSH2 0xAC0 DUP3 DUP3 PUSH2 0xA7A JUMP JUMPDEST SWAP2 SWAP1 POP JUMP JUMPDEST PUSH0 PUSH8 0xFFFFFFFFFFFFFFFF DUP3 GT ISZERO PUSH2 0xADF JUMPI PUSH2 0xADE PUSH2 0xA4D JUMP JUMPDEST JUMPDEST PUSH2 0xAE8 DUP3 PUSH2 0xA3D JUMP JUMPDEST SWAP1 POP PUSH1 0x20 DUP2 ADD SWAP1 POP SWAP2 SWAP1 POP JUMP JUMPDEST DUP3 DUP2 DUP4 CALLDATACOPY PUSH0 DUP4 DUP4 ADD MSTORE POP POP POP JUMP JUMPDEST PUSH0 PUSH2 0xB15 PUSH2 0xB10 DUP5 PUSH2 0xAC5 JUMP JUMPDEST PUSH2 0xAAB JUMP JUMPDEST SWAP1 POP DUP3 DUP2 MSTORE PUSH1 0x20 DUP2 ADD DUP5 DUP5 DUP5 ADD GT ISZERO PUSH2 0xB31 JUMPI PUSH2 0xB30 PUSH2 0xA39 JUMP JUMPDEST JUMPDEST PUSH2 0xB3C DUP5 DUP3 DUP6 PUSH2 0xAF5 JUMP JUMPDEST POP SWAP4 SWAP3 POP POP POP JUMP JUMPDEST PUSH0 DUP3 PUSH1 0x1F DUP4 ADD SLT PUSH2 0xB58 JUMPI PUSH2 0xB57 PUSH2 0xA35 JUMP JUMPDEST JUMPDEST DUP2 CALLDATALOAD PUSH2 0xB68 DUP5 DUP3 PUSH1 0x20 DUP7 ADD PUSH2 0xB03 JUMP JUMPDEST SWAP2 POP POP SWAP3 SWAP2 POP POP JUMP JUMPDEST PUSH0 DUP2 SWAP1 POP SWAP2 SWAP1 POP JUMP JUMPDEST PUSH2 0xB83 DUP2 PUSH2 0xB71 JUMP JUMPDEST DUP2 EQ PUSH2 0xB8D JUMPI PUSH0 DUP1 REVERT JUMPDEST POP JUMP JUMPDEST PUSH0 DUP2 CALLDATALOAD SWAP1 POP PUSH2 0xB9E DUP2 PUSH2 0xB7A JUMP JUMPDEST SWAP3 SWAP2 POP POP JUMP JUMPDEST PUSH0 DUP1 PUSH1 0x40 DUP4 DUP6 SUB SLT ISZERO PUSH2 0xBBA JUMPI PUSH2 0xBB9 PUSH2 0xA2D JUMP JUMPDEST JUMPDEST PUSH0 DUP4 ADD CALLDATALOAD PUSH8 0xFFFFFFFFFFFFFFFF DUP2 GT ISZERO PUSH2 0xBD7 JUMPI PUSH2 0xBD6 PUSH2 0xA31 JUMP JUMPDEST JUMPDEST PUSH2 0xBE3 DUP6 DUP3 DUP7 ADD PUSH2 0xB44 JUMP JUMPDEST SWAP3 POP POP PUSH1 0x20 PUSH2 0xBF4 DUP6 DUP3 DUP7 ADD PUSH2 0xB90 JUMP JUMPDEST SWAP2 POP POP SWAP3 POP SWAP3 SWAP1 POP JUMP JUMPDEST PUSH0 PUSH1 0x20 DUP3 DUP5 SUB SLT ISZERO PUSH2 0xC13 JUMPI PUSH2 0xC12 PUSH2 0xA2D JUMP JUMPDEST JUMPDEST PUSH0 PUSH2 0xC20 DUP5 DUP3 DUP6 ADD PUSH2 0xB90 JUMP JUMPDEST SWAP2 POP POP SWAP3 SWAP2 POP POP JUMP JUMPDEST PUSH2 0xC32 DUP2 PUSH2 0xB71 JUMP JUMPDEST DUP3 MSTORE POP POP JUMP JUMPDEST PUSH0 DUP2 MLOAD SWAP1 POP SWAP2 SWAP1 POP JUMP JUMPDEST PUSH0 DUP3 DUP3 MSTORE PUSH1 0x20 DUP3 ADD SWAP1 POP SWAP3 SWAP2 POP POP JUMP JUMPDEST DUP3 DUP2 DUP4 MCOPY PUSH0 DUP4 DUP4 ADD MSTORE POP POP POP JUMP JUMPDEST PUSH0 PUSH2 0xC6A DUP3 PUSH2 0xC38 JUMP JUMPDEST PUSH2 0xC74 DUP2 DUP6 PUSH2 0xC42 JUMP JUMPDEST SWAP4 POP PUSH2 0xC84 DUP2 DUP6 PUSH1 0x20 DUP7 ADD PUSH2 0xC52 JUMP JUMPDEST PUSH2 0xC8D DUP2 PUSH2 0xA3D JUMP JUMPDEST DUP5 ADD SWAP2 POP POP SWAP3 SWAP2 POP POP JUMP JUMPDEST PUSH0 PUSH20 0xFFFFFFFFFFFFFFFFFFFFFFFFFFFFFFFFFFFFFFFF DUP3 AND SWAP1 POP SWAP2 SWAP1 POP JUMP JUMPDEST PUSH0 PUSH2 0xCC1 DUP3 PUSH2 0xC98 JUMP JUMPDEST SWAP1 POP SWAP2 SWAP1 POP JUMP JUMPDEST PUSH2 0xCD1 DUP2 PUSH2 0xCB7 JUMP JUMPDEST DUP3 MSTORE POP POP JUMP JUMPDEST PUSH0 PUSH1 0xA0 DUP3 ADD SWAP1 POP PUSH2 0xCEA PUSH0 DUP4 ADD DUP9 PUSH2 0xC29 JUMP JUMPDEST DUP2 DUP2 SUB PUSH1 0x20 DUP4 ADD MSTORE PUSH2 0xCFC DUP2 DUP8 PUSH2 0xC60 JUMP JUMPDEST SWAP1 POP PUSH2 0xD0B PUSH1 0x40 DUP4 ADD DUP7 PUSH2 0xC29 JUMP JUMPDEST PUSH2 0xD18 PUSH1 0x60 DUP4 ADD DUP6 PUSH2 0xC29 JUMP JUMPDEST PUSH2 0xD25 PUSH1 0x80 DUP4 ADD DUP5 PUSH2 0xCC8 JUMP JUMPDEST SWAP7 SWAP6 POP POP POP POP POP POP JUMP JUMPDEST PUSH0 PUSH1 0x20 DUP3 ADD SWAP1 POP PUSH2 0xD42 PUSH0 DUP4 ADD DUP5 PUSH2 0xC29 JUMP JUMPDEST SWAP3 SWAP2 POP POP JUMP JUMPDEST PUSH0 PUSH1 0x40 DUP3 ADD SWAP1 POP PUSH2 0xD5B PUSH0 DUP4 ADD DUP6 PUSH2 0xCC8 JUMP JUMPDEST PUSH2 0xD68 PUSH1 0x20 DUP4 ADD DUP5 PUSH2 0xC29 JUMP JUMPDEST SWAP4 SWAP3 POP POP POP JUMP JUMPDEST PUSH0 PUSH1 0x80 DUP3 ADD SWAP1 POP DUP2 DUP2 SUB PUSH0 DUP4 ADD MSTORE PUSH2 0xD87 DUP2 DUP8 PUSH2 0xC60 JUMP JUMPDEST SWAP1 POP PUSH2 0xD96 PUSH1 0x20 DUP4 ADD DUP7 PUSH2 0xC29 JUMP JUMPDEST PUSH2 0xDA3 PUSH1 0x40 DUP4 ADD DUP6 PUSH2 0xC29 JUMP JUMPDEST PUSH2 0xDB0 PUSH1 0x60 DUP4 ADD DUP5 PUSH2 0xCC8 JUMP JUMPDEST SWAP6 SWAP5 POP POP POP POP POP JUMP JUMPDEST PUSH0 PUSH1 0x20 DUP3 ADD SWAP1 POP PUSH2 0xDCC PUSH0 DUP4 ADD DUP5 PUSH2 0xCC8 JUMP JUMPDEST SWAP3 SWAP2 POP POP JUMP JUMPDEST PUSH32 0x4E487B7100000000000000000000000000000000000000000000000000000000 PUSH0 MSTORE PUSH1 0x22 PUSH1 0x4 MSTORE PUSH1 0x24 PUSH0 REVERT JUMPDEST PUSH0 PUSH1 0x2 DUP3 DIV SWAP1 POP PUSH1 0x1 DUP3 AND DUP1 PUSH2 0xE16 JUMPI PUSH1 0x7F DUP3 AND SWAP2 POP JUMPDEST PUSH1 0x20 DUP3 LT DUP2 SUB PUSH2 0xE29 JUMPI PUSH2 0xE28 PUSH2 0xDD2 JUMP JUMPDEST JUMPDEST POP SWAP2 SWAP1 POP JUMP JUMPDEST PUSH0 DUP2 SWAP1 POP DUP2 PUSH0 MSTORE PUSH1 0x20 PUSH0 KECCAK256 SWAP1 POP SWAP2 SWAP1 POP JUMP JUMPDEST PUSH0 PUSH1 0x20 PUSH1 0x1F DUP4 ADD DIV SWAP1 POP SWAP2 SWAP1 POP JUMP JUMPDEST PUSH0 DUP3 DUP3 SHL SWAP1 POP SWAP3 SWAP2 POP POP JUMP JUMPDEST PUSH0 PUSH1 0x8 DUP4 MUL PUSH2 0xE8B PUSH32 0xFFFFFFFFFFFFFFFFFFFFFFFFFFFFFFFFFFFFFFFFFFFFFFFFFFFFFFFFFFFFFFFF DUP3 PUSH2 0xE50 JUMP JUMPDEST PUSH2 0xE95 DUP7 DUP4 PUSH2 0xE50 JUMP JUMPDEST SWAP6 POP DUP1 NOT DUP5 AND SWAP4 POP DUP1 DUP7 AND DUP5 OR SWAP3 POP POP POP SWAP4 SWAP3 POP POP POP JUMP JUMPDEST PUSH0 DUP2 SWAP1 POP SWAP2 SWAP1 POP JUMP JUMPDEST PUSH0 PUSH2 0xED0 PUSH2 0xECB PUSH2 0xEC6 DUP5 PUSH2 0xB71 JUMP JUMPDEST PUSH2 0xEAD JUMP JUMPDEST PUSH2 0xB71 JUMP JUMPDEST SWAP1 POP SWAP2 SWAP1 POP JUMP JUMPDEST PUSH0 DUP2 SWAP1 POP SWAP2 SWAP1 POP JUMP JUMPDEST PUSH2 0xEE9 DUP4 PUSH2 0xEB6 JUMP JUMPDEST PUSH2 0xEFD PUSH2 0xEF5 DUP3 PUSH2 0xED7 JUMP JUMPDEST DUP5 DUP5 SLOAD PUSH2 0xE5C JUMP JUMPDEST DUP3 SSTORE POP POP POP POP JUMP JUMPDEST PUSH0 SWAP1 JUMP JUMPDEST PUSH2 0xF11 PUSH2 0xF05 JUMP JUMPDEST PUSH2 0xF1C DUP2 DUP5 DUP5 PUSH2 0xEE0 JUMP JUMPDEST POP POP POP JUMP JUMPDEST JUMPDEST DUP2 DUP2 LT ISZERO PUSH2 0xF3F JUMPI PUSH2 0xF34 PUSH0 DUP3 PUSH2 0xF09 JUMP JUMPDEST PUSH1 0x1 DUP2 ADD SWAP1 POP PUSH2 0xF22 JUMP JUMPDEST POP POP JUMP JUMPDEST PUSH1 0x1F DUP3 GT ISZERO PUSH2 0xF84 JUMPI PUSH2 0xF55 DUP2 PUSH2 0xE2F JUMP JUMPDEST PUSH2 0xF5E DUP5 PUSH2 0xE41 JUMP JUMPDEST DUP2 ADD PUSH1 0x20 DUP6 LT ISZERO PUSH2 0xF6D JUMPI DUP2 SWAP1 POP JUMPDEST PUSH2 0xF81 PUSH2 0xF79 DUP6 PUSH2 0xE41 JUMP JUMPDEST DUP4 ADD DUP3 PUSH2 0xF21 JUMP JUMPDEST POP POP JUMPDEST POP POP POP JUMP JUMPDEST PUSH0 DUP3 DUP3 SHR SWAP1 POP SWAP3 SWAP2 POP POP JUMP JUMPDEST PUSH0 PUSH2 0xFA4 PUSH0 NOT DUP5 PUSH1 0x8 MUL PUSH2 0xF89 JUMP JUMPDEST NOT DUP1 DUP4 AND SWAP2 POP POP SWAP3 SWAP2 POP POP JUMP JUMPDEST PUSH0 PUSH2 0xFBC DUP4 DUP4 PUSH2 0xF95 JUMP JUMPDEST SWAP2 POP DUP3 PUSH1 0x2 MUL DUP3 OR SWAP1 POP SWAP3 SWAP2 POP POP JUMP JUMPDEST PUSH2 0xFD5 DUP3 PUSH2 0xC38 JUMP JUMPDEST PUSH8 0xFFFFFFFFFFFFFFFF DUP2 GT ISZERO PUSH2 0xFEE JUMPI PUSH2 0xFED PUSH2 0xA4D JUMP JUMPDEST JUMPDEST PUSH2 0xFF8 DUP3 SLOAD PUSH2 0xDFF JUMP JUMPDEST PUSH2 0x1003 DUP3 DUP3 DUP6 PUSH2 0xF43 JUMP JUMPDEST PUSH0 PUSH1 0x20 SWAP1 POP PUSH1 0x1F DUP4 GT PUSH1 0x1 DUP2 EQ PUSH2 0x1034 JUMPI PUSH0 DUP5 ISZERO PUSH2 0x1022 JUMPI DUP3 DUP8 ADD MLOAD SWAP1 POP JUMPDEST PUSH2 0x102C DUP6 DUP3 PUSH2 0xFB1 JUMP JUMPDEST DUP7 SSTORE POP PUSH2 0x1093 JUMP JUMPDEST PUSH1 0x1F NOT DUP5 AND PUSH2 0x1042 DUP7 PUSH2 0xE2F JUMP JUMPDEST PUSH0 JUMPDEST DUP3 DUP2 LT ISZERO PUSH2 0x1069 JUMPI DUP5 DUP10 ADD MLOAD DUP3 SSTORE PUSH1 0x1 DUP3 ADD SWAP2 POP PUSH1 0x20 DUP6 ADD SWAP5 POP PUSH1 0x20 DUP2 ADD SWAP1 POP PUSH2 0x1044 JUMP JUMPDEST DUP7 DUP4 LT ISZERO PUSH2 0x1086 JUMPI DUP5 DUP10 ADD MLOAD PUSH2 0x1082 PUSH1 0x1F DUP10 AND DUP3 PUSH2 0xF95 JUMP JUMPDEST DUP4 SSTORE POP JUMPDEST PUSH1 0x1 PUSH1 0x2 DUP9 MUL ADD DUP9 SSTORE POP POP POP JUMPDEST POP POP POP POP POP POP JUMP JUMPDEST PUSH32 0x496E76616C69642070726F6A6563742049440000000000000000000000000000 PUSH0 DUP3 ADD MSTORE POP JUMP JUMPDEST PUSH0 PUSH2 0x10CF PUSH1 0x12 DUP4 PUSH2 0xC42 JUMP JUMPDEST SWAP2 POP PUSH2 0x10DA DUP3 PUSH2 0x109B JUMP JUMPDEST PUSH1 0x20 DUP3 ADD SWAP1 POP SWAP2 SWAP1 POP JUMP JUMPDEST PUSH0 PUSH1 0x20 DUP3 ADD SWAP1 POP DUP2 DUP2 SUB PUSH0 DUP4 ADD MSTORE PUSH2 0x10FC DUP2 PUSH2 0x10C3 JUMP JUMPDEST SWAP1 POP SWAP2 SWAP1 POP JUMP JUMPDEST PUSH32 0x4E487B7100000000000000000000000000000000000000000000000000000000 PUSH0 MSTORE PUSH1 0x32 PUSH1 0x4 MSTORE PUSH1 0x24 PUSH0 REVERT JUMPDEST PUSH32 0x596F75206861766520616C726561647920766F74656420666F72207468697320 PUSH0 DUP3 ADD MSTORE PUSH32 0x70726F6A65637400000000000000000000000000000000000000000000000000 PUSH1 0x20 DUP3 ADD MSTORE POP JUMP JUMPDEST PUSH0 PUSH2 0x118A PUSH1 0x27 DUP4 PUSH2 0xC42 JUMP JUMPDEST SWAP2 POP PUSH2 0x1195 DUP3 PUSH2 0x1130 JUMP JUMPDEST PUSH1 0x40 DUP3 ADD SWAP1 POP SWAP2 SWAP1 POP JUMP JUMPDEST PUSH0 PUSH1 0x20 DUP3 ADD SWAP1 POP DUP2 DUP2 SUB PUSH0 DUP4 ADD MSTORE PUSH2 0x11B7 DUP2 PUSH2 0x117E JUMP JUMPDEST SWAP1 POP SWAP2 SWAP1 POP JUMP JUMPDEST PUSH32 0x4E487B7100000000000000000000000000000000000000000000000000000000 PUSH0 MSTORE PUSH1 0x11 PUSH1 0x4 MSTORE PUSH1 0x24 PUSH0 REVERT JUMPDEST PUSH0 PUSH2 0x11F5 DUP3 PUSH2 0xB71 JUMP JUMPDEST SWAP2 POP PUSH2 0x1200 DUP4 PUSH2 0xB71 JUMP JUMPDEST SWAP3 POP DUP3 DUP3 ADD SWAP1 POP DUP1 DUP3 GT ISZERO PUSH2 0x1218 JUMPI PUSH2 0x1217 PUSH2 0x11BE JUMP JUMPDEST JUMPDEST SWAP3 SWAP2 POP POP JUMP JUMPDEST PUSH32 0x4F6E6C792061646D696E2063616E20706572666F726D20746869732061637469 PUSH0 DUP3 ADD MSTORE PUSH32 0x6F6E000000000000000000000000000000000000000000000000000000000000 PUSH1 0x20 DUP3 ADD MSTORE POP JUMP JUMPDEST PUSH0 PUSH2 0x1278 PUSH1 0x22 DUP4 PUSH2 0xC42 JUMP JUMPDEST SWAP2 POP PUSH2 0x1283 DUP3 PUSH2 0x121E JUMP JUMPDEST PUSH1 0x40 DUP3 ADD SWAP1 POP SWAP2 SWAP1 POP JUMP JUMPDEST PUSH0 PUSH1 0x20 DUP3 ADD SWAP1 POP DUP2 DUP2 SUB PUSH0 DUP4 ADD MSTORE PUSH2 0x12A5 DUP2 PUSH2 0x126C JUMP JUMPDEST SWAP1 POP SWAP2 SWAP1 POP JUMP JUMPDEST PUSH0 PUSH2 0x12B6 DUP3 PUSH2 0xB71 JUMP JUMPDEST SWAP2 POP PUSH2 0x12C1 DUP4 PUSH2 0xB71 JUMP JUMPDEST SWAP3 POP DUP3 DUP3 MUL PUSH2 0x12CF DUP2 PUSH2 0xB71 JUMP JUMPDEST SWAP2 POP DUP3 DUP3 DIV DUP5 EQ DUP4 ISZERO OR PUSH2 0x12E6 JUMPI PUSH2 0x12E5 PUSH2 0x11BE JUMP JUMPDEST JUMPDEST POP SWAP3 SWAP2 POP POP JUMP JUMPDEST PUSH32 0x4E487B7100000000000000000000000000000000000000000000000000000000 PUSH0 MSTORE PUSH1 0x12 PUSH1 0x4 MSTORE PUSH1 0x24 PUSH0 REVERT JUMPDEST PUSH0 PUSH2 0x1324 DUP3 PUSH2 0xB71 JUMP JUMPDEST SWAP2 POP PUSH2 0x132F DUP4 PUSH2 0xB71 JUMP JUMPDEST SWAP3 POP DUP3 PUSH2 0x133F JUMPI PUSH2 0x133E PUSH2 0x12ED JUMP JUMPDEST JUMPDEST DUP3 DUP3 DIV SWAP1 POP SWAP3 SWAP2 POP POP JUMP INVALID LOG2 PUSH5 0x6970667358 0x22 SLT KECCAK256 SWAP13 SELFDESTRUCT 0x4B 0xE0 PUSH13 0xAC03E0470055AD9B6191A18976 0xDE 0x2F PUSH4 0x4AD5BD9E 0xD1 0xCB TSTORE PUSH24 0xCE35A164736F6C634300081A003300000000000000000000 "
				},
				"gasEstimates": {
					"creation": {
						"codeDepositCost": "998400",
						"executionCost": "infinite",
						"totalCost": "infinite"
					},
					"external": {
						"admin()": "2615",
						"changeTotalFunds(uint256)": "24725",
						"fundProjects()": "infinite",
						"getProject(uint256)": "infinite",
						"getProjectsCount()": "2506",
						"getVotesCount()": "2485",
						"projects(uint256)": "infinite",
						"proposeProject(string,uint256)": "infinite",
						"totalFunds()": "2425",
						"voteForProject(uint256)": "infinite",
						"votes(uint256)": "infinite"
					}
				},
				"methodIdentifiers": {
					"admin()": "f851a440",
					"changeTotalFunds(uint256)": "bdb1ad0f",
					"fundProjects()": "a721ad59",
					"getProject(uint256)": "f0f3f2c8",
					"getProjectsCount()": "e4a8f18b",
					"getVotesCount()": "1b605b86",
					"projects(uint256)": "107046bd",
					"proposeProject(string,uint256)": "0c16d408",
					"totalFunds()": "968ed600",
					"voteForProject(uint256)": "83a67d38",
					"votes(uint256)": "5df81330"
				}
			},
			"storageLayout": {
				"storage": [
					{
						"astId": 3,
						"contract": "contracts/Vote2.sol:CommunityVoting",
						"label": "admin",
						"offset": 0,
						"slot": "0",
						"type": "t_address"
					},
					{
						"astId": 5,
						"contract": "contracts/Vote2.sol:CommunityVoting",
						"label": "totalFunds",
						"offset": 0,
						"slot": "1",
						"type": "t_uint256"
					},
					{
						"astId": 25,
						"contract": "contracts/Vote2.sol:CommunityVoting",
						"label": "projects",
						"offset": 0,
						"slot": "2",
						"type": "t_array(t_struct(Project)16_storage)dyn_storage"
					},
					{
						"astId": 29,
						"contract": "contracts/Vote2.sol:CommunityVoting",
						"label": "votes",
						"offset": 0,
						"slot": "3",
						"type": "t_array(t_struct(Vote)21_storage)dyn_storage"
					}
				],
				"types": {
					"t_address": {
						"encoding": "inplace",
						"label": "address",
						"numberOfBytes": "20"
					},
					"t_array(t_struct(Project)16_storage)dyn_storage": {
						"base": "t_struct(Project)16_storage",
						"encoding": "dynamic_array",
						"label": "struct CommunityVoting.Project[]",
						"numberOfBytes": "32"
					},
					"t_array(t_struct(Vote)21_storage)dyn_storage": {
						"base": "t_struct(Vote)21_storage",
						"encoding": "dynamic_array",
						"label": "struct CommunityVoting.Vote[]",
						"numberOfBytes": "32"
					},
					"t_string_storage": {
						"encoding": "bytes",
						"label": "string",
						"numberOfBytes": "32"
					},
					"t_struct(Project)16_storage": {
						"encoding": "inplace",
						"label": "struct CommunityVoting.Project",
						"members": [
							{
								"astId": 7,
								"contract": "contracts/Vote2.sol:CommunityVoting",
								"label": "id",
								"offset": 0,
								"slot": "0",
								"type": "t_uint256"
							},
							{
								"astId": 9,
								"contract": "contracts/Vote2.sol:CommunityVoting",
								"label": "description",
								"offset": 0,
								"slot": "1",
								"type": "t_string_storage"
							},
							{
								"astId": 11,
								"contract": "contracts/Vote2.sol:CommunityVoting",
								"label": "fundingGoal",
								"offset": 0,
								"slot": "2",
								"type": "t_uint256"
							},
							{
								"astId": 13,
								"contract": "contracts/Vote2.sol:CommunityVoting",
								"label": "votes",
								"offset": 0,
								"slot": "3",
								"type": "t_uint256"
							},
							{
								"astId": 15,
								"contract": "contracts/Vote2.sol:CommunityVoting",
								"label": "proposer",
								"offset": 0,
								"slot": "4",
								"type": "t_address"
							}
						],
						"numberOfBytes": "160"
					},
					"t_struct(Vote)21_storage": {
						"encoding": "inplace",
						"label": "struct CommunityVoting.Vote",
						"members": [
							{
								"astId": 18,
								"contract": "contracts/Vote2.sol:CommunityVoting",
								"label": "voter",
								"offset": 0,
								"slot": "0",
								"type": "t_address"
							},
							{
								"astId": 20,
								"contract": "contracts/Vote2.sol:CommunityVoting",
								"label": "projectId",
								"offset": 0,
								"slot": "1",
								"type": "t_uint256"
							}
						],
						"numberOfBytes": "64"
					},
					"t_uint256": {
						"encoding": "inplace",
						"label": "uint256",
						"numberOfBytes": "32"
					}
				}
			},
			"userdoc": {
				"kind": "user",
				"methods": {},
				"version": 1
			}
		}
	}
}