{
	"contracts/Subscribe.sol": {
		"SubscriptionService": {
			"abi": [
				{
					"inputs": [
						{
							"internalType": "uint256",
							"name": "_subscriptionFee",
							"type": "uint256"
						},
						{
							"internalType": "uint256",
							"name": "_subscriptionPeriod",
							"type": "uint256"
						}
					],
					"stateMutability": "nonpayable",
					"type": "constructor"
				},
				{
					"anonymous": false,
					"inputs": [
						{
							"indexed": true,
							"internalType": "address",
							"name": "user",
							"type": "address"
						},
						{
							"indexed": false,
							"internalType": "uint256",
							"name": "expirationTime",
							"type": "uint256"
						}
					],
					"name": "Subscribed",
					"type": "event"
				},
				{
					"inputs": [],
					"name": "admin",
					"outputs": [
						{
							"internalType": "address",
							"name": "",
							"type": "address"
						}
					],
					"stateMutability": "view",
					"type": "function"
				},
				{
					"inputs": [
						{
							"internalType": "uint256",
							"name": "newFee",
							"type": "uint256"
						}
					],
					"name": "changeSubscriptionFee",
					"outputs": [],
					"stateMutability": "nonpayable",
					"type": "function"
				},
				{
					"inputs": [
						{
							"internalType": "uint256",
							"name": "newPeriod",
							"type": "uint256"
						}
					],
					"name": "changeSubscriptionPeriod",
					"outputs": [],
					"stateMutability": "nonpayable",
					"type": "function"
				},
				{
					"inputs": [],
					"name": "getBalance",
					"outputs": [
						{
							"internalType": "uint256",
							"name": "",
							"type": "uint256"
						}
					],
					"stateMutability": "view",
					"type": "function"
				},
				{
					"inputs": [
						{
							"internalType": "address",
							"name": "user",
							"type": "address"
						}
					],
					"name": "isSubscriptionActive",
					"outputs": [
						{
							"internalType": "bool",
							"name": "",
							"type": "bool"
						}
					],
					"stateMutability": "view",
					"type": "function"
				},
				{
					"inputs": [],
					"name": "subscribe",
					"outputs": [],
					"stateMutability": "payable",
					"type": "function"
				},
				{
					"inputs": [],
					"name": "subscriptionFee",
					"outputs": [
						{
							"internalType": "uint256",
							"name": "",
							"type": "uint256"
						}
					],
					"stateMutability": "view",
					"type": "function"
				},
				{
					"inputs": [],
					"name": "subscriptionPeriod",
					"outputs": [
						{
							"internalType": "uint256",
							"name": "",
							"type": "uint256"
						}
					],
					"stateMutability": "view",
					"type": "function"
				},
				{
					"inputs": [
						{
							"internalType": "uint256",
							"name": "",
							"type": "uint256"
						}
					],
					"name": "subscriptions",
					"outputs": [
						{
							"internalType": "address",
							"name": "user",
							"type": "address"
						},
						{
							"internalType": "uint256",
							"name": "expirationTime",
							"type": "uint256"
						}
					],
					"stateMutability": "view",
					"type": "function"
				},
				{
					"inputs": [],
					"name": "withdraw",
					"outputs": [],
					"stateMutability": "nonpayable",
					"type": "function"
				}
			],
			"devdoc": {
				"kind": "dev",
				"methods": {},
				"version": 1
			},
			"evm": {
				"assembly": "    /* \"contracts/Subscribe.sol\":60:2283  contract SubscriptionService {... */\n  mstore(0x40, 0x80)\n    /* \"contracts/Subscribe.sol\":516:722  constructor(uint256 _subscriptionFee, uint256 _subscriptionPeriod) {... */\n  callvalue\n  dup1\n  iszero\n  tag_1\n  jumpi\n  0x00\n  dup1\n  revert\ntag_1:\n  pop\n  mload(0x40)\n  sub(codesize, bytecodeSize)\n  dup1\n  bytecodeSize\n  dup4\n  codecopy\n  dup2\n  dup2\n  add\n  0x40\n  mstore\n  dup2\n  add\n  swap1\n  tag_2\n  swap2\n  swap1\n  tag_3\n  jump\t// in\ntag_2:\n    /* \"contracts/Subscribe.sol\":602:612  msg.sender */\n  caller\n    /* \"contracts/Subscribe.sol\":594:599  admin */\n  0x00\n  dup1\n    /* \"contracts/Subscribe.sol\":594:612  admin = msg.sender */\n  0x0100\n  exp\n  dup2\n  sload\n  dup2\n  0xffffffffffffffffffffffffffffffffffffffff\n  mul\n  not\n  and\n  swap1\n  dup4\n  0xffffffffffffffffffffffffffffffffffffffff\n  and\n  mul\n  or\n  swap1\n  sstore\n  pop\n    /* \"contracts/Subscribe.sol\":643:659  _subscriptionFee */\n  dup2\n    /* \"contracts/Subscribe.sol\":625:640  subscriptionFee */\n  0x01\n    /* \"contracts/Subscribe.sol\":625:659  subscriptionFee = _subscriptionFee */\n  dup2\n  swap1\n  sstore\n  pop\n    /* \"contracts/Subscribe.sol\":693:712  _subscriptionPeriod */\n  dup1\n    /* \"contracts/Subscribe.sol\":672:690  subscriptionPeriod */\n  0x02\n    /* \"contracts/Subscribe.sol\":672:712  subscriptionPeriod = _subscriptionPeriod */\n  dup2\n  swap1\n  sstore\n  pop\n    /* \"contracts/Subscribe.sol\":516:722  constructor(uint256 _subscriptionFee, uint256 _subscriptionPeriod) {... */\n  pop\n  pop\n    /* \"contracts/Subscribe.sol\":60:2283  contract SubscriptionService {... */\n  jump(tag_6)\n    /* \"#utility.yul\":88:205   */\ntag_8:\n    /* \"#utility.yul\":197:198   */\n  0x00\n    /* \"#utility.yul\":194:195   */\n  dup1\n    /* \"#utility.yul\":187:199   */\n  revert\n    /* \"#utility.yul\":334:411   */\ntag_10:\n    /* \"#utility.yul\":371:378   */\n  0x00\n    /* \"#utility.yul\":400:405   */\n  dup2\n    /* \"#utility.yul\":389:405   */\n  swap1\n  pop\n    /* \"#utility.yul\":334:411   */\n  swap2\n  swap1\n  pop\n  jump\t// out\n    /* \"#utility.yul\":417:539   */\ntag_11:\n    /* \"#utility.yul\":490:514   */\n  tag_19\n    /* \"#utility.yul\":508:513   */\n  dup2\n    /* \"#utility.yul\":490:514   */\n  tag_10\n  jump\t// in\ntag_19:\n    /* \"#utility.yul\":483:488   */\n  dup2\n    /* \"#utility.yul\":480:515   */\n  eq\n    /* \"#utility.yul\":470:533   */\n  tag_20\n  jumpi\n    /* \"#utility.yul\":529:530   */\n  0x00\n    /* \"#utility.yul\":526:527   */\n  dup1\n    /* \"#utility.yul\":519:531   */\n  revert\n    /* \"#utility.yul\":470:533   */\ntag_20:\n    /* \"#utility.yul\":417:539   */\n  pop\n  jump\t// out\n    /* \"#utility.yul\":545:688   */\ntag_12:\n    /* \"#utility.yul\":602:607   */\n  0x00\n    /* \"#utility.yul\":633:639   */\n  dup2\n    /* \"#utility.yul\":627:640   */\n  mload\n    /* \"#utility.yul\":618:640   */\n  swap1\n  pop\n    /* \"#utility.yul\":649:682   */\n  tag_22\n    /* \"#utility.yul\":676:681   */\n  dup2\n    /* \"#utility.yul\":649:682   */\n  tag_11\n  jump\t// in\ntag_22:\n    /* \"#utility.yul\":545:688   */\n  swap3\n  swap2\n  pop\n  pop\n  jump\t// out\n    /* \"#utility.yul\":694:1201   */\ntag_3:\n    /* \"#utility.yul\":773:779   */\n  0x00\n    /* \"#utility.yul\":781:787   */\n  dup1\n    /* \"#utility.yul\":830:832   */\n  0x40\n    /* \"#utility.yul\":818:827   */\n  dup4\n    /* \"#utility.yul\":809:816   */\n  dup6\n    /* \"#utility.yul\":805:828   */\n  sub\n    /* \"#utility.yul\":801:833   */\n  slt\n    /* \"#utility.yul\":798:917   */\n  iszero\n  tag_24\n  jumpi\n    /* \"#utility.yul\":836:915   */\n  tag_25\n  tag_8\n  jump\t// in\ntag_25:\n    /* \"#utility.yul\":798:917   */\ntag_24:\n    /* \"#utility.yul\":956:957   */\n  0x00\n    /* \"#utility.yul\":981:1045   */\n  tag_26\n    /* \"#utility.yul\":1037:1044   */\n  dup6\n    /* \"#utility.yul\":1028:1034   */\n  dup3\n    /* \"#utility.yul\":1017:1026   */\n  dup7\n    /* \"#utility.yul\":1013:1035   */\n  add\n    /* \"#utility.yul\":981:1045   */\n  tag_12\n  jump\t// in\ntag_26:\n    /* \"#utility.yul\":971:1045   */\n  swap3\n  pop\n    /* \"#utility.yul\":927:1055   */\n  pop\n    /* \"#utility.yul\":1094:1096   */\n  0x20\n    /* \"#utility.yul\":1120:1184   */\n  tag_27\n    /* \"#utility.yul\":1176:1183   */\n  dup6\n    /* \"#utility.yul\":1167:1173   */\n  dup3\n    /* \"#utility.yul\":1156:1165   */\n  dup7\n    /* \"#utility.yul\":1152:1174   */\n  add\n    /* \"#utility.yul\":1120:1184   */\n  tag_12\n  jump\t// in\ntag_27:\n    /* \"#utility.yul\":1110:1184   */\n  swap2\n  pop\n    /* \"#utility.yul\":1065:1194   */\n  pop\n    /* \"#utility.yul\":694:1201   */\n  swap3\n  pop\n  swap3\n  swap1\n  pop\n  jump\t// out\n    /* \"contracts/Subscribe.sol\":60:2283  contract SubscriptionService {... */\ntag_6:\n  dataSize(sub_0)\n  dup1\n  dataOffset(sub_0)\n  0x00\n  codecopy\n  0x00\n  return\nstop\n\nsub_0: assembly {\n        /* \"contracts/Subscribe.sol\":60:2283  contract SubscriptionService {... */\n      mstore(0x40, 0x80)\n      jumpi(tag_1, lt(calldatasize, 0x04))\n      shr(0xe0, calldataload(0x00))\n      dup1\n      0x2d5bbf60\n      gt\n      tag_12\n      jumpi\n      dup1\n      0x2d5bbf60\n      eq\n      tag_7\n      jumpi\n      dup1\n      0x3ccfd60b\n      eq\n      tag_8\n      jumpi\n      dup1\n      0x8f449a05\n      eq\n      tag_9\n      jumpi\n      dup1\n      0xb1423fff\n      eq\n      tag_10\n      jumpi\n      dup1\n      0xf851a440\n      eq\n      tag_11\n      jumpi\n      jump(tag_1)\n    tag_12:\n      dup1\n      0x0aa0a175\n      eq\n      tag_2\n      jumpi\n      dup1\n      0x0c938c3f\n      eq\n      tag_3\n      jumpi\n      dup1\n      0x0ca2822c\n      eq\n      tag_4\n      jumpi\n      dup1\n      0x12065fe0\n      eq\n      tag_5\n      jumpi\n      dup1\n      0x14401329\n      eq\n      tag_6\n      jumpi\n    tag_1:\n      0x00\n      dup1\n      revert\n        /* \"contracts/Subscribe.sol\":125:155  uint256 public subscriptionFee */\n    tag_2:\n      callvalue\n      dup1\n      iszero\n      tag_13\n      jumpi\n      0x00\n      dup1\n      revert\n    tag_13:\n      pop\n      tag_14\n      tag_15\n      jump\t// in\n    tag_14:\n      mload(0x40)\n      tag_16\n      swap2\n      swap1\n      tag_17\n      jump\t// in\n    tag_16:\n      mload(0x40)\n      dup1\n      swap2\n      sub\n      swap1\n      return\n        /* \"contracts/Subscribe.sol\":1823:1930  function changeSubscriptionFee(uint256 newFee) public onlyAdmin {... */\n    tag_3:\n      callvalue\n      dup1\n      iszero\n      tag_18\n      jumpi\n      0x00\n      dup1\n      revert\n    tag_18:\n      pop\n      tag_19\n      0x04\n      dup1\n      calldatasize\n      sub\n      dup2\n      add\n      swap1\n      tag_20\n      swap2\n      swap1\n      tag_21\n      jump\t// in\n    tag_20:\n      tag_22\n      jump\t// in\n    tag_19:\n      stop\n        /* \"contracts/Subscribe.sol\":164:197  uint256 public subscriptionPeriod */\n    tag_4:\n      callvalue\n      dup1\n      iszero\n      tag_23\n      jumpi\n      0x00\n      dup1\n      revert\n    tag_23:\n      pop\n      tag_24\n      tag_25\n      jump\t// in\n    tag_24:\n      mload(0x40)\n      tag_26\n      swap2\n      swap1\n      tag_17\n      jump\t// in\n    tag_26:\n      mload(0x40)\n      dup1\n      swap2\n      sub\n      swap1\n      return\n        /* \"contracts/Subscribe.sol\":2181:2280  function getBalance() public view returns (uint256) {... */\n    tag_5:\n      callvalue\n      dup1\n      iszero\n      tag_27\n      jumpi\n      0x00\n      dup1\n      revert\n    tag_27:\n      pop\n      tag_28\n      tag_29\n      jump\t// in\n    tag_28:\n      mload(0x40)\n      tag_30\n      swap2\n      swap1\n      tag_17\n      jump\t// in\n    tag_30:\n      mload(0x40)\n      dup1\n      swap2\n      sub\n      swap1\n      return\n        /* \"contracts/Subscribe.sol\":1497:1813  function isSubscriptionActive(address user) public view returns (bool) {... */\n    tag_6:\n      callvalue\n      dup1\n      iszero\n      tag_31\n      jumpi\n      0x00\n      dup1\n      revert\n    tag_31:\n      pop\n      tag_32\n      0x04\n      dup1\n      calldatasize\n      sub\n      dup2\n      add\n      swap1\n      tag_33\n      swap2\n      swap1\n      tag_34\n      jump\t// in\n    tag_33:\n      tag_35\n      jump\t// in\n    tag_32:\n      mload(0x40)\n      tag_36\n      swap2\n      swap1\n      tag_37\n      jump\t// in\n    tag_36:\n      mload(0x40)\n      dup1\n      swap2\n      sub\n      swap1\n      return\n        /* \"contracts/Subscribe.sol\":393:428  Subscription[] public subscriptions */\n    tag_7:\n      callvalue\n      dup1\n      iszero\n      tag_38\n      jumpi\n      0x00\n      dup1\n      revert\n    tag_38:\n      pop\n      tag_39\n      0x04\n      dup1\n      calldatasize\n      sub\n      dup2\n      add\n      swap1\n      tag_40\n      swap2\n      swap1\n      tag_21\n      jump\t// in\n    tag_40:\n      tag_41\n      jump\t// in\n    tag_39:\n      mload(0x40)\n      tag_42\n      swap3\n      swap2\n      swap1\n      tag_43\n      jump\t// in\n    tag_42:\n      mload(0x40)\n      dup1\n      swap2\n      sub\n      swap1\n      return\n        /* \"contracts/Subscribe.sol\":2069:2171  function withdraw() public onlyAdmin {... */\n    tag_8:\n      callvalue\n      dup1\n      iszero\n      tag_44\n      jumpi\n      0x00\n      dup1\n      revert\n    tag_44:\n      pop\n      tag_45\n      tag_46\n      jump\t// in\n    tag_45:\n      stop\n        /* \"contracts/Subscribe.sol\":864:1487  function subscribe() public payable {... */\n    tag_9:\n      tag_47\n      tag_48\n      jump\t// in\n    tag_47:\n      stop\n        /* \"contracts/Subscribe.sol\":1940:2059  function changeSubscriptionPeriod(uint256 newPeriod) public onlyAdmin {... */\n    tag_10:\n      callvalue\n      dup1\n      iszero\n      tag_49\n      jumpi\n      0x00\n      dup1\n      revert\n    tag_49:\n      pop\n      tag_50\n      0x04\n      dup1\n      calldatasize\n      sub\n      dup2\n      add\n      swap1\n      tag_51\n      swap2\n      swap1\n      tag_21\n      jump\t// in\n    tag_51:\n      tag_52\n      jump\t// in\n    tag_50:\n      stop\n        /* \"contracts/Subscribe.sol\":96:116  address public admin */\n    tag_11:\n      callvalue\n      dup1\n      iszero\n      tag_53\n      jumpi\n      0x00\n      dup1\n      revert\n    tag_53:\n      pop\n      tag_54\n      tag_55\n      jump\t// in\n    tag_54:\n      mload(0x40)\n      tag_56\n      swap2\n      swap1\n      tag_57\n      jump\t// in\n    tag_56:\n      mload(0x40)\n      dup1\n      swap2\n      sub\n      swap1\n      return\n        /* \"contracts/Subscribe.sol\":125:155  uint256 public subscriptionFee */\n    tag_15:\n      sload(0x01)\n      dup2\n      jump\t// out\n        /* \"contracts/Subscribe.sol\":1823:1930  function changeSubscriptionFee(uint256 newFee) public onlyAdmin {... */\n    tag_22:\n        /* \"contracts/Subscribe.sol\":786:791  admin */\n      0x00\n      dup1\n      sload\n      swap1\n      0x0100\n      exp\n      swap1\n      div\n      0xffffffffffffffffffffffffffffffffffffffff\n      and\n        /* \"contracts/Subscribe.sol\":772:791  msg.sender == admin */\n      0xffffffffffffffffffffffffffffffffffffffff\n      and\n        /* \"contracts/Subscribe.sol\":772:782  msg.sender */\n      caller\n        /* \"contracts/Subscribe.sol\":772:791  msg.sender == admin */\n      0xffffffffffffffffffffffffffffffffffffffff\n      and\n      eq\n        /* \"contracts/Subscribe.sol\":764:830  require(msg.sender == admin, \"Only admin can perform this action\") */\n      tag_59\n      jumpi\n      mload(0x40)\n      0x08c379a000000000000000000000000000000000000000000000000000000000\n      dup2\n      mstore\n      0x04\n      add\n      tag_60\n      swap1\n      tag_61\n      jump\t// in\n    tag_60:\n      mload(0x40)\n      dup1\n      swap2\n      sub\n      swap1\n      revert\n    tag_59:\n        /* \"contracts/Subscribe.sol\":1916:1922  newFee */\n      dup1\n        /* \"contracts/Subscribe.sol\":1898:1913  subscriptionFee */\n      0x01\n        /* \"contracts/Subscribe.sol\":1898:1922  subscriptionFee = newFee */\n      dup2\n      swap1\n      sstore\n      pop\n        /* \"contracts/Subscribe.sol\":1823:1930  function changeSubscriptionFee(uint256 newFee) public onlyAdmin {... */\n      pop\n      jump\t// out\n        /* \"contracts/Subscribe.sol\":164:197  uint256 public subscriptionPeriod */\n    tag_25:\n      sload(0x02)\n      dup2\n      jump\t// out\n        /* \"contracts/Subscribe.sol\":2181:2280  function getBalance() public view returns (uint256) {... */\n    tag_29:\n        /* \"contracts/Subscribe.sol\":2224:2231  uint256 */\n      0x00\n        /* \"contracts/Subscribe.sol\":2251:2272  address(this).balance */\n      selfbalance\n        /* \"contracts/Subscribe.sol\":2244:2272  return address(this).balance */\n      swap1\n      pop\n        /* \"contracts/Subscribe.sol\":2181:2280  function getBalance() public view returns (uint256) {... */\n      swap1\n      jump\t// out\n        /* \"contracts/Subscribe.sol\":1497:1813  function isSubscriptionActive(address user) public view returns (bool) {... */\n    tag_35:\n        /* \"contracts/Subscribe.sol\":1562:1566  bool */\n      0x00\n        /* \"contracts/Subscribe.sol\":1584:1593  uint256 i */\n      dup1\n        /* \"contracts/Subscribe.sol\":1596:1597  0 */\n      0x00\n        /* \"contracts/Subscribe.sol\":1584:1597  uint256 i = 0 */\n      swap1\n      pop\n        /* \"contracts/Subscribe.sol\":1579:1783  for (uint256 i = 0; i < subscriptions.length; i++) {... */\n    tag_65:\n        /* \"contracts/Subscribe.sol\":1603:1616  subscriptions */\n      0x03\n        /* \"contracts/Subscribe.sol\":1603:1623  subscriptions.length */\n      dup1\n      sload\n      swap1\n      pop\n        /* \"contracts/Subscribe.sol\":1599:1600  i */\n      dup2\n        /* \"contracts/Subscribe.sol\":1599:1623  i < subscriptions.length */\n      lt\n        /* \"contracts/Subscribe.sol\":1579:1783  for (uint256 i = 0; i < subscriptions.length; i++) {... */\n      iszero\n      tag_66\n      jumpi\n        /* \"contracts/Subscribe.sol\":1674:1678  user */\n      dup3\n        /* \"contracts/Subscribe.sol\":1649:1678  subscriptions[i].user == user */\n      0xffffffffffffffffffffffffffffffffffffffff\n      and\n        /* \"contracts/Subscribe.sol\":1649:1662  subscriptions */\n      0x03\n        /* \"contracts/Subscribe.sol\":1663:1664  i */\n      dup3\n        /* \"contracts/Subscribe.sol\":1649:1665  subscriptions[i] */\n      dup2\n      sload\n      dup2\n      lt\n      tag_68\n      jumpi\n      tag_69\n      tag_70\n      jump\t// in\n    tag_69:\n    tag_68:\n      swap1\n      0x00\n      mstore\n      keccak256(0x00, 0x20)\n      swap1\n      0x02\n      mul\n      add\n        /* \"contracts/Subscribe.sol\":1649:1670  subscriptions[i].user */\n      0x00\n      add\n      0x00\n      swap1\n      sload\n      swap1\n      0x0100\n      exp\n      swap1\n      div\n      0xffffffffffffffffffffffffffffffffffffffff\n      and\n        /* \"contracts/Subscribe.sol\":1649:1678  subscriptions[i].user == user */\n      0xffffffffffffffffffffffffffffffffffffffff\n      and\n      sub\n        /* \"contracts/Subscribe.sol\":1645:1772  if (subscriptions[i].user == user) {... */\n      tag_72\n      jumpi\n        /* \"contracts/Subscribe.sol\":1725:1738  subscriptions */\n      0x03\n        /* \"contracts/Subscribe.sol\":1739:1740  i */\n      dup2\n        /* \"contracts/Subscribe.sol\":1725:1741  subscriptions[i] */\n      dup2\n      sload\n      dup2\n      lt\n      tag_73\n      jumpi\n      tag_74\n      tag_70\n      jump\t// in\n    tag_74:\n    tag_73:\n      swap1\n      0x00\n      mstore\n      keccak256(0x00, 0x20)\n      swap1\n      0x02\n      mul\n      add\n        /* \"contracts/Subscribe.sol\":1725:1756  subscriptions[i].expirationTime */\n      0x01\n      add\n      sload\n        /* \"contracts/Subscribe.sol\":1706:1721  block.timestamp */\n      timestamp\n        /* \"contracts/Subscribe.sol\":1706:1756  block.timestamp <= subscriptions[i].expirationTime */\n      gt\n      iszero\n        /* \"contracts/Subscribe.sol\":1699:1756  return block.timestamp <= subscriptions[i].expirationTime */\n      swap2\n      pop\n      pop\n      jump(tag_64)\n        /* \"contracts/Subscribe.sol\":1645:1772  if (subscriptions[i].user == user) {... */\n    tag_72:\n        /* \"contracts/Subscribe.sol\":1625:1628  i++ */\n      dup1\n      dup1\n      0x01\n      add\n      swap2\n      pop\n      pop\n        /* \"contracts/Subscribe.sol\":1579:1783  for (uint256 i = 0; i < subscriptions.length; i++) {... */\n      jump(tag_65)\n    tag_66:\n      pop\n        /* \"contracts/Subscribe.sol\":1800:1805  false */\n      0x00\n        /* \"contracts/Subscribe.sol\":1793:1805  return false */\n      swap1\n      pop\n        /* \"contracts/Subscribe.sol\":1497:1813  function isSubscriptionActive(address user) public view returns (bool) {... */\n    tag_64:\n      swap2\n      swap1\n      pop\n      jump\t// out\n        /* \"contracts/Subscribe.sol\":393:428  Subscription[] public subscriptions */\n    tag_41:\n      0x03\n      dup2\n      dup2\n      sload\n      dup2\n      lt\n      tag_76\n      jumpi\n      0x00\n      dup1\n      revert\n    tag_76:\n      swap1\n      0x00\n      mstore\n      keccak256(0x00, 0x20)\n      swap1\n      0x02\n      mul\n      add\n      0x00\n      swap2\n      pop\n      swap1\n      pop\n      dup1\n      0x00\n      add\n      0x00\n      swap1\n      sload\n      swap1\n      0x0100\n      exp\n      swap1\n      div\n      0xffffffffffffffffffffffffffffffffffffffff\n      and\n      swap1\n      dup1\n      0x01\n      add\n      sload\n      swap1\n      pop\n      dup3\n      jump\t// out\n        /* \"contracts/Subscribe.sol\":2069:2171  function withdraw() public onlyAdmin {... */\n    tag_46:\n        /* \"contracts/Subscribe.sol\":786:791  admin */\n      0x00\n      dup1\n      sload\n      swap1\n      0x0100\n      exp\n      swap1\n      div\n      0xffffffffffffffffffffffffffffffffffffffff\n      and\n        /* \"contracts/Subscribe.sol\":772:791  msg.sender == admin */\n      0xffffffffffffffffffffffffffffffffffffffff\n      and\n        /* \"contracts/Subscribe.sol\":772:782  msg.sender */\n      caller\n        /* \"contracts/Subscribe.sol\":772:791  msg.sender == admin */\n      0xffffffffffffffffffffffffffffffffffffffff\n      and\n      eq\n        /* \"contracts/Subscribe.sol\":764:830  require(msg.sender == admin, \"Only admin can perform this action\") */\n      tag_79\n      jumpi\n      mload(0x40)\n      0x08c379a000000000000000000000000000000000000000000000000000000000\n      dup2\n      mstore\n      0x04\n      add\n      tag_80\n      swap1\n      tag_61\n      jump\t// in\n    tag_80:\n      mload(0x40)\n      dup1\n      swap2\n      sub\n      swap1\n      revert\n    tag_79:\n        /* \"contracts/Subscribe.sol\":2125:2130  admin */\n      0x00\n      dup1\n      sload\n      swap1\n      0x0100\n      exp\n      swap1\n      div\n      0xffffffffffffffffffffffffffffffffffffffff\n      and\n        /* \"contracts/Subscribe.sol\":2117:2140  payable(admin).transfer */\n      0xffffffffffffffffffffffffffffffffffffffff\n      and\n        /* \"contracts/Subscribe.sol\":2117:2163  payable(admin).transfer(address(this).balance) */\n      0x08fc\n        /* \"contracts/Subscribe.sol\":2141:2162  address(this).balance */\n      selfbalance\n        /* \"contracts/Subscribe.sol\":2117:2163  payable(admin).transfer(address(this).balance) */\n      swap1\n      dup2\n      iszero\n      mul\n      swap1\n      mload(0x40)\n      0x00\n      mload(0x40)\n      dup1\n      dup4\n      sub\n      dup2\n      dup6\n      dup9\n      dup9\n      call\n      swap4\n      pop\n      pop\n      pop\n      pop\n      iszero\n      dup1\n      iszero\n      tag_83\n      jumpi\n      returndatasize\n      0x00\n      dup1\n      returndatacopy\n      revert(0x00, returndatasize)\n    tag_83:\n      pop\n        /* \"contracts/Subscribe.sol\":2069:2171  function withdraw() public onlyAdmin {... */\n      jump\t// out\n        /* \"contracts/Subscribe.sol\":864:1487  function subscribe() public payable {... */\n    tag_48:\n        /* \"contracts/Subscribe.sol\":932:947  subscriptionFee */\n      sload(0x01)\n        /* \"contracts/Subscribe.sol\":919:928  msg.value */\n      callvalue\n        /* \"contracts/Subscribe.sol\":919:947  msg.value == subscriptionFee */\n      eq\n        /* \"contracts/Subscribe.sol\":911:978  require(msg.value == subscriptionFee, \"Incorrect subscription fee\") */\n      tag_85\n      jumpi\n      mload(0x40)\n      0x08c379a000000000000000000000000000000000000000000000000000000000\n      dup2\n      mstore\n      0x04\n      add\n      tag_86\n      swap1\n      tag_87\n      jump\t// in\n    tag_86:\n      mload(0x40)\n      dup1\n      swap2\n      sub\n      swap1\n      revert\n    tag_85:\n        /* \"contracts/Subscribe.sol\":998:1007  uint256 i */\n      0x00\n        /* \"contracts/Subscribe.sol\":993:1305  for (uint256 i = 0; i < subscriptions.length; i++) {... */\n    tag_88:\n        /* \"contracts/Subscribe.sol\":1017:1030  subscriptions */\n      0x03\n        /* \"contracts/Subscribe.sol\":1017:1037  subscriptions.length */\n      dup1\n      sload\n      swap1\n      pop\n        /* \"contracts/Subscribe.sol\":1013:1014  i */\n      dup2\n        /* \"contracts/Subscribe.sol\":1013:1037  i < subscriptions.length */\n      lt\n        /* \"contracts/Subscribe.sol\":993:1305  for (uint256 i = 0; i < subscriptions.length; i++) {... */\n      iszero\n      tag_89\n      jumpi\n        /* \"contracts/Subscribe.sol\":1088:1098  msg.sender */\n      caller\n        /* \"contracts/Subscribe.sol\":1063:1098  subscriptions[i].user == msg.sender */\n      0xffffffffffffffffffffffffffffffffffffffff\n      and\n        /* \"contracts/Subscribe.sol\":1063:1076  subscriptions */\n      0x03\n        /* \"contracts/Subscribe.sol\":1077:1078  i */\n      dup3\n        /* \"contracts/Subscribe.sol\":1063:1079  subscriptions[i] */\n      dup2\n      sload\n      dup2\n      lt\n      tag_91\n      jumpi\n      tag_92\n      tag_70\n      jump\t// in\n    tag_92:\n    tag_91:\n      swap1\n      0x00\n      mstore\n      keccak256(0x00, 0x20)\n      swap1\n      0x02\n      mul\n      add\n        /* \"contracts/Subscribe.sol\":1063:1084  subscriptions[i].user */\n      0x00\n      add\n      0x00\n      swap1\n      sload\n      swap1\n      0x0100\n      exp\n      swap1\n      div\n      0xffffffffffffffffffffffffffffffffffffffff\n      and\n        /* \"contracts/Subscribe.sol\":1063:1098  subscriptions[i].user == msg.sender */\n      0xffffffffffffffffffffffffffffffffffffffff\n      and\n      sub\n        /* \"contracts/Subscribe.sol\":1059:1294  if (subscriptions[i].user == msg.sender) {... */\n      tag_94\n      jumpi\n        /* \"contracts/Subscribe.sol\":1156:1174  subscriptionPeriod */\n      sload(0x02)\n        /* \"contracts/Subscribe.sol\":1121:1134  subscriptions */\n      0x03\n        /* \"contracts/Subscribe.sol\":1135:1136  i */\n      dup3\n        /* \"contracts/Subscribe.sol\":1121:1137  subscriptions[i] */\n      dup2\n      sload\n      dup2\n      lt\n      tag_95\n      jumpi\n      tag_96\n      tag_70\n      jump\t// in\n    tag_96:\n    tag_95:\n      swap1\n      0x00\n      mstore\n      keccak256(0x00, 0x20)\n      swap1\n      0x02\n      mul\n      add\n        /* \"contracts/Subscribe.sol\":1121:1152  subscriptions[i].expirationTime */\n      0x01\n      add\n      0x00\n        /* \"contracts/Subscribe.sol\":1121:1174  subscriptions[i].expirationTime += subscriptionPeriod */\n      dup3\n      dup3\n      sload\n      tag_98\n      swap2\n      swap1\n      tag_99\n      jump\t// in\n    tag_98:\n      swap3\n      pop\n      pop\n      dup2\n      swap1\n      sstore\n      pop\n        /* \"contracts/Subscribe.sol\":1209:1219  msg.sender */\n      caller\n        /* \"contracts/Subscribe.sol\":1198:1253  Subscribed(msg.sender, subscriptions[i].expirationTime) */\n      0xffffffffffffffffffffffffffffffffffffffff\n      and\n      0x4b90d6788928d63c1821907a6a8b95f40d26562d8fe41b105f7489db9966dfcb\n        /* \"contracts/Subscribe.sol\":1221:1234  subscriptions */\n      0x03\n        /* \"contracts/Subscribe.sol\":1235:1236  i */\n      dup4\n        /* \"contracts/Subscribe.sol\":1221:1237  subscriptions[i] */\n      dup2\n      sload\n      dup2\n      lt\n      tag_100\n      jumpi\n      tag_101\n      tag_70\n      jump\t// in\n    tag_101:\n    tag_100:\n      swap1\n      0x00\n      mstore\n      keccak256(0x00, 0x20)\n      swap1\n      0x02\n      mul\n      add\n        /* \"contracts/Subscribe.sol\":1221:1252  subscriptions[i].expirationTime */\n      0x01\n      add\n      sload\n        /* \"contracts/Subscribe.sol\":1198:1253  Subscribed(msg.sender, subscriptions[i].expirationTime) */\n      mload(0x40)\n      tag_103\n      swap2\n      swap1\n      tag_17\n      jump\t// in\n    tag_103:\n      mload(0x40)\n      dup1\n      swap2\n      sub\n      swap1\n      log2\n        /* \"contracts/Subscribe.sol\":1272:1279  return; */\n      pop\n      jump(tag_84)\n        /* \"contracts/Subscribe.sol\":1059:1294  if (subscriptions[i].user == msg.sender) {... */\n    tag_94:\n        /* \"contracts/Subscribe.sol\":1039:1042  i++ */\n      dup1\n      dup1\n      0x01\n      add\n      swap2\n      pop\n      pop\n        /* \"contracts/Subscribe.sol\":993:1305  for (uint256 i = 0; i < subscriptions.length; i++) {... */\n      jump(tag_88)\n    tag_89:\n      pop\n        /* \"contracts/Subscribe.sol\":1319:1332  subscriptions */\n      0x03\n        /* \"contracts/Subscribe.sol\":1338:1400  Subscription(msg.sender, block.timestamp + subscriptionPeriod) */\n      mload(0x40)\n      dup1\n      0x40\n      add\n      0x40\n      mstore\n      dup1\n        /* \"contracts/Subscribe.sol\":1351:1361  msg.sender */\n      caller\n        /* \"contracts/Subscribe.sol\":1338:1400  Subscription(msg.sender, block.timestamp + subscriptionPeriod) */\n      0xffffffffffffffffffffffffffffffffffffffff\n      and\n      dup2\n      mstore\n      0x20\n      add\n        /* \"contracts/Subscribe.sol\":1381:1399  subscriptionPeriod */\n      sload(0x02)\n        /* \"contracts/Subscribe.sol\":1363:1378  block.timestamp */\n      timestamp\n        /* \"contracts/Subscribe.sol\":1363:1399  block.timestamp + subscriptionPeriod */\n      tag_104\n      swap2\n      swap1\n      tag_99\n      jump\t// in\n    tag_104:\n        /* \"contracts/Subscribe.sol\":1338:1400  Subscription(msg.sender, block.timestamp + subscriptionPeriod) */\n      dup2\n      mstore\n      pop\n        /* \"contracts/Subscribe.sol\":1319:1401  subscriptions.push(Subscription(msg.sender, block.timestamp + subscriptionPeriod)) */\n      swap1\n      dup1\n      0x01\n      dup2\n      sload\n      add\n      dup1\n      dup3\n      sstore\n      dup1\n      swap2\n      pop\n      pop\n      0x01\n      swap1\n      sub\n      swap1\n      0x00\n      mstore\n      keccak256(0x00, 0x20)\n      swap1\n      0x02\n      mul\n      add\n      0x00\n      swap1\n      swap2\n      swap1\n      swap2\n      swap1\n      swap2\n      pop\n      0x00\n      dup3\n      add\n      mload\n      dup2\n      0x00\n      add\n      exp(0x0100, 0x00)\n      dup2\n      sload\n      dup2\n      0xffffffffffffffffffffffffffffffffffffffff\n      mul\n      not\n      and\n      swap1\n      dup4\n      0xffffffffffffffffffffffffffffffffffffffff\n      and\n      mul\n      or\n      swap1\n      sstore\n      pop\n      0x20\n      dup3\n      add\n      mload\n      dup2\n      0x01\n      add\n      sstore\n      pop\n      pop\n        /* \"contracts/Subscribe.sol\":1430:1440  msg.sender */\n      caller\n        /* \"contracts/Subscribe.sol\":1419:1479  Subscribed(msg.sender, block.timestamp + subscriptionPeriod) */\n      0xffffffffffffffffffffffffffffffffffffffff\n      and\n      0x4b90d6788928d63c1821907a6a8b95f40d26562d8fe41b105f7489db9966dfcb\n        /* \"contracts/Subscribe.sol\":1460:1478  subscriptionPeriod */\n      sload(0x02)\n        /* \"contracts/Subscribe.sol\":1442:1457  block.timestamp */\n      timestamp\n        /* \"contracts/Subscribe.sol\":1442:1478  block.timestamp + subscriptionPeriod */\n      tag_106\n      swap2\n      swap1\n      tag_99\n      jump\t// in\n    tag_106:\n        /* \"contracts/Subscribe.sol\":1419:1479  Subscribed(msg.sender, block.timestamp + subscriptionPeriod) */\n      mload(0x40)\n      tag_107\n      swap2\n      swap1\n      tag_17\n      jump\t// in\n    tag_107:\n      mload(0x40)\n      dup1\n      swap2\n      sub\n      swap1\n      log2\n        /* \"contracts/Subscribe.sol\":864:1487  function subscribe() public payable {... */\n    tag_84:\n      jump\t// out\n        /* \"contracts/Subscribe.sol\":1940:2059  function changeSubscriptionPeriod(uint256 newPeriod) public onlyAdmin {... */\n    tag_52:\n        /* \"contracts/Subscribe.sol\":786:791  admin */\n      0x00\n      dup1\n      sload\n      swap1\n      0x0100\n      exp\n      swap1\n      div\n      0xffffffffffffffffffffffffffffffffffffffff\n      and\n        /* \"contracts/Subscribe.sol\":772:791  msg.sender == admin */\n      0xffffffffffffffffffffffffffffffffffffffff\n      and\n        /* \"contracts/Subscribe.sol\":772:782  msg.sender */\n      caller\n        /* \"contracts/Subscribe.sol\":772:791  msg.sender == admin */\n      0xffffffffffffffffffffffffffffffffffffffff\n      and\n      eq\n        /* \"contracts/Subscribe.sol\":764:830  require(msg.sender == admin, \"Only admin can perform this action\") */\n      tag_109\n      jumpi\n      mload(0x40)\n      0x08c379a000000000000000000000000000000000000000000000000000000000\n      dup2\n      mstore\n      0x04\n      add\n      tag_110\n      swap1\n      tag_61\n      jump\t// in\n    tag_110:\n      mload(0x40)\n      dup1\n      swap2\n      sub\n      swap1\n      revert\n    tag_109:\n        /* \"contracts/Subscribe.sol\":2042:2051  newPeriod */\n      dup1\n        /* \"contracts/Subscribe.sol\":2021:2039  subscriptionPeriod */\n      0x02\n        /* \"contracts/Subscribe.sol\":2021:2051  subscriptionPeriod = newPeriod */\n      dup2\n      swap1\n      sstore\n      pop\n        /* \"contracts/Subscribe.sol\":1940:2059  function changeSubscriptionPeriod(uint256 newPeriod) public onlyAdmin {... */\n      pop\n      jump\t// out\n        /* \"contracts/Subscribe.sol\":96:116  address public admin */\n    tag_55:\n      0x00\n      dup1\n      sload\n      swap1\n      0x0100\n      exp\n      swap1\n      div\n      0xffffffffffffffffffffffffffffffffffffffff\n      and\n      dup2\n      jump\t// out\n        /* \"#utility.yul\":7:84   */\n    tag_112:\n        /* \"#utility.yul\":44:51   */\n      0x00\n        /* \"#utility.yul\":73:78   */\n      dup2\n        /* \"#utility.yul\":62:78   */\n      swap1\n      pop\n        /* \"#utility.yul\":7:84   */\n      swap2\n      swap1\n      pop\n      jump\t// out\n        /* \"#utility.yul\":90:208   */\n    tag_113:\n        /* \"#utility.yul\":177:201   */\n      tag_135\n        /* \"#utility.yul\":195:200   */\n      dup2\n        /* \"#utility.yul\":177:201   */\n      tag_112\n      jump\t// in\n    tag_135:\n        /* \"#utility.yul\":172:175   */\n      dup3\n        /* \"#utility.yul\":165:202   */\n      mstore\n        /* \"#utility.yul\":90:208   */\n      pop\n      pop\n      jump\t// out\n        /* \"#utility.yul\":214:436   */\n    tag_17:\n        /* \"#utility.yul\":307:311   */\n      0x00\n        /* \"#utility.yul\":345:347   */\n      0x20\n        /* \"#utility.yul\":334:343   */\n      dup3\n        /* \"#utility.yul\":330:348   */\n      add\n        /* \"#utility.yul\":322:348   */\n      swap1\n      pop\n        /* \"#utility.yul\":358:429   */\n      tag_137\n        /* \"#utility.yul\":426:427   */\n      0x00\n        /* \"#utility.yul\":415:424   */\n      dup4\n        /* \"#utility.yul\":411:428   */\n      add\n        /* \"#utility.yul\":402:408   */\n      dup5\n        /* \"#utility.yul\":358:429   */\n      tag_113\n      jump\t// in\n    tag_137:\n        /* \"#utility.yul\":214:436   */\n      swap3\n      swap2\n      pop\n      pop\n      jump\t// out\n        /* \"#utility.yul\":523:640   */\n    tag_115:\n        /* \"#utility.yul\":632:633   */\n      0x00\n        /* \"#utility.yul\":629:630   */\n      dup1\n        /* \"#utility.yul\":622:634   */\n      revert\n        /* \"#utility.yul\":769:891   */\n    tag_117:\n        /* \"#utility.yul\":842:866   */\n      tag_142\n        /* \"#utility.yul\":860:865   */\n      dup2\n        /* \"#utility.yul\":842:866   */\n      tag_112\n      jump\t// in\n    tag_142:\n        /* \"#utility.yul\":835:840   */\n      dup2\n        /* \"#utility.yul\":832:867   */\n      eq\n        /* \"#utility.yul\":822:885   */\n      tag_143\n      jumpi\n        /* \"#utility.yul\":881:882   */\n      0x00\n        /* \"#utility.yul\":878:879   */\n      dup1\n        /* \"#utility.yul\":871:883   */\n      revert\n        /* \"#utility.yul\":822:885   */\n    tag_143:\n        /* \"#utility.yul\":769:891   */\n      pop\n      jump\t// out\n        /* \"#utility.yul\":897:1036   */\n    tag_118:\n        /* \"#utility.yul\":943:948   */\n      0x00\n        /* \"#utility.yul\":981:987   */\n      dup2\n        /* \"#utility.yul\":968:988   */\n      calldataload\n        /* \"#utility.yul\":959:988   */\n      swap1\n      pop\n        /* \"#utility.yul\":997:1030   */\n      tag_145\n        /* \"#utility.yul\":1024:1029   */\n      dup2\n        /* \"#utility.yul\":997:1030   */\n      tag_117\n      jump\t// in\n    tag_145:\n        /* \"#utility.yul\":897:1036   */\n      swap3\n      swap2\n      pop\n      pop\n      jump\t// out\n        /* \"#utility.yul\":1042:1371   */\n    tag_21:\n        /* \"#utility.yul\":1101:1107   */\n      0x00\n        /* \"#utility.yul\":1150:1152   */\n      0x20\n        /* \"#utility.yul\":1138:1147   */\n      dup3\n        /* \"#utility.yul\":1129:1136   */\n      dup5\n        /* \"#utility.yul\":1125:1148   */\n      sub\n        /* \"#utility.yul\":1121:1153   */\n      slt\n        /* \"#utility.yul\":1118:1237   */\n      iszero\n      tag_147\n      jumpi\n        /* \"#utility.yul\":1156:1235   */\n      tag_148\n      tag_115\n      jump\t// in\n    tag_148:\n        /* \"#utility.yul\":1118:1237   */\n    tag_147:\n        /* \"#utility.yul\":1276:1277   */\n      0x00\n        /* \"#utility.yul\":1301:1354   */\n      tag_149\n        /* \"#utility.yul\":1346:1353   */\n      dup5\n        /* \"#utility.yul\":1337:1343   */\n      dup3\n        /* \"#utility.yul\":1326:1335   */\n      dup6\n        /* \"#utility.yul\":1322:1344   */\n      add\n        /* \"#utility.yul\":1301:1354   */\n      tag_118\n      jump\t// in\n    tag_149:\n        /* \"#utility.yul\":1291:1354   */\n      swap2\n      pop\n        /* \"#utility.yul\":1247:1364   */\n      pop\n        /* \"#utility.yul\":1042:1371   */\n      swap3\n      swap2\n      pop\n      pop\n      jump\t// out\n        /* \"#utility.yul\":1377:1503   */\n    tag_119:\n        /* \"#utility.yul\":1414:1421   */\n      0x00\n        /* \"#utility.yul\":1454:1496   */\n      0xffffffffffffffffffffffffffffffffffffffff\n        /* \"#utility.yul\":1447:1452   */\n      dup3\n        /* \"#utility.yul\":1443:1497   */\n      and\n        /* \"#utility.yul\":1432:1497   */\n      swap1\n      pop\n        /* \"#utility.yul\":1377:1503   */\n      swap2\n      swap1\n      pop\n      jump\t// out\n        /* \"#utility.yul\":1509:1605   */\n    tag_120:\n        /* \"#utility.yul\":1546:1553   */\n      0x00\n        /* \"#utility.yul\":1575:1599   */\n      tag_152\n        /* \"#utility.yul\":1593:1598   */\n      dup3\n        /* \"#utility.yul\":1575:1599   */\n      tag_119\n      jump\t// in\n    tag_152:\n        /* \"#utility.yul\":1564:1599   */\n      swap1\n      pop\n        /* \"#utility.yul\":1509:1605   */\n      swap2\n      swap1\n      pop\n      jump\t// out\n        /* \"#utility.yul\":1611:1733   */\n    tag_121:\n        /* \"#utility.yul\":1684:1708   */\n      tag_154\n        /* \"#utility.yul\":1702:1707   */\n      dup2\n        /* \"#utility.yul\":1684:1708   */\n      tag_120\n      jump\t// in\n    tag_154:\n        /* \"#utility.yul\":1677:1682   */\n      dup2\n        /* \"#utility.yul\":1674:1709   */\n      eq\n        /* \"#utility.yul\":1664:1727   */\n      tag_155\n      jumpi\n        /* \"#utility.yul\":1723:1724   */\n      0x00\n        /* \"#utility.yul\":1720:1721   */\n      dup1\n        /* \"#utility.yul\":1713:1725   */\n      revert\n        /* \"#utility.yul\":1664:1727   */\n    tag_155:\n        /* \"#utility.yul\":1611:1733   */\n      pop\n      jump\t// out\n        /* \"#utility.yul\":1739:1878   */\n    tag_122:\n        /* \"#utility.yul\":1785:1790   */\n      0x00\n        /* \"#utility.yul\":1823:1829   */\n      dup2\n        /* \"#utility.yul\":1810:1830   */\n      calldataload\n        /* \"#utility.yul\":1801:1830   */\n      swap1\n      pop\n        /* \"#utility.yul\":1839:1872   */\n      tag_157\n        /* \"#utility.yul\":1866:1871   */\n      dup2\n        /* \"#utility.yul\":1839:1872   */\n      tag_121\n      jump\t// in\n    tag_157:\n        /* \"#utility.yul\":1739:1878   */\n      swap3\n      swap2\n      pop\n      pop\n      jump\t// out\n        /* \"#utility.yul\":1884:2213   */\n    tag_34:\n        /* \"#utility.yul\":1943:1949   */\n      0x00\n        /* \"#utility.yul\":1992:1994   */\n      0x20\n        /* \"#utility.yul\":1980:1989   */\n      dup3\n        /* \"#utility.yul\":1971:1978   */\n      dup5\n        /* \"#utility.yul\":1967:1990   */\n      sub\n        /* \"#utility.yul\":1963:1995   */\n      slt\n        /* \"#utility.yul\":1960:2079   */\n      iszero\n      tag_159\n      jumpi\n        /* \"#utility.yul\":1998:2077   */\n      tag_160\n      tag_115\n      jump\t// in\n    tag_160:\n        /* \"#utility.yul\":1960:2079   */\n    tag_159:\n        /* \"#utility.yul\":2118:2119   */\n      0x00\n        /* \"#utility.yul\":2143:2196   */\n      tag_161\n        /* \"#utility.yul\":2188:2195   */\n      dup5\n        /* \"#utility.yul\":2179:2185   */\n      dup3\n        /* \"#utility.yul\":2168:2177   */\n      dup6\n        /* \"#utility.yul\":2164:2186   */\n      add\n        /* \"#utility.yul\":2143:2196   */\n      tag_122\n      jump\t// in\n    tag_161:\n        /* \"#utility.yul\":2133:2196   */\n      swap2\n      pop\n        /* \"#utility.yul\":2089:2206   */\n      pop\n        /* \"#utility.yul\":1884:2213   */\n      swap3\n      swap2\n      pop\n      pop\n      jump\t// out\n        /* \"#utility.yul\":2219:2309   */\n    tag_123:\n        /* \"#utility.yul\":2253:2260   */\n      0x00\n        /* \"#utility.yul\":2296:2301   */\n      dup2\n        /* \"#utility.yul\":2289:2302   */\n      iszero\n        /* \"#utility.yul\":2282:2303   */\n      iszero\n        /* \"#utility.yul\":2271:2303   */\n      swap1\n      pop\n        /* \"#utility.yul\":2219:2309   */\n      swap2\n      swap1\n      pop\n      jump\t// out\n        /* \"#utility.yul\":2315:2424   */\n    tag_124:\n        /* \"#utility.yul\":2396:2417   */\n      tag_164\n        /* \"#utility.yul\":2411:2416   */\n      dup2\n        /* \"#utility.yul\":2396:2417   */\n      tag_123\n      jump\t// in\n    tag_164:\n        /* \"#utility.yul\":2391:2394   */\n      dup3\n        /* \"#utility.yul\":2384:2418   */\n      mstore\n        /* \"#utility.yul\":2315:2424   */\n      pop\n      pop\n      jump\t// out\n        /* \"#utility.yul\":2430:2640   */\n    tag_37:\n        /* \"#utility.yul\":2517:2521   */\n      0x00\n        /* \"#utility.yul\":2555:2557   */\n      0x20\n        /* \"#utility.yul\":2544:2553   */\n      dup3\n        /* \"#utility.yul\":2540:2558   */\n      add\n        /* \"#utility.yul\":2532:2558   */\n      swap1\n      pop\n        /* \"#utility.yul\":2568:2633   */\n      tag_166\n        /* \"#utility.yul\":2630:2631   */\n      0x00\n        /* \"#utility.yul\":2619:2628   */\n      dup4\n        /* \"#utility.yul\":2615:2632   */\n      add\n        /* \"#utility.yul\":2606:2612   */\n      dup5\n        /* \"#utility.yul\":2568:2633   */\n      tag_124\n      jump\t// in\n    tag_166:\n        /* \"#utility.yul\":2430:2640   */\n      swap3\n      swap2\n      pop\n      pop\n      jump\t// out\n        /* \"#utility.yul\":2646:2764   */\n    tag_125:\n        /* \"#utility.yul\":2733:2757   */\n      tag_168\n        /* \"#utility.yul\":2751:2756   */\n      dup2\n        /* \"#utility.yul\":2733:2757   */\n      tag_120\n      jump\t// in\n    tag_168:\n        /* \"#utility.yul\":2728:2731   */\n      dup3\n        /* \"#utility.yul\":2721:2758   */\n      mstore\n        /* \"#utility.yul\":2646:2764   */\n      pop\n      pop\n      jump\t// out\n        /* \"#utility.yul\":2770:3102   */\n    tag_43:\n        /* \"#utility.yul\":2891:2895   */\n      0x00\n        /* \"#utility.yul\":2929:2931   */\n      0x40\n        /* \"#utility.yul\":2918:2927   */\n      dup3\n        /* \"#utility.yul\":2914:2932   */\n      add\n        /* \"#utility.yul\":2906:2932   */\n      swap1\n      pop\n        /* \"#utility.yul\":2942:3013   */\n      tag_170\n        /* \"#utility.yul\":3010:3011   */\n      0x00\n        /* \"#utility.yul\":2999:3008   */\n      dup4\n        /* \"#utility.yul\":2995:3012   */\n      add\n        /* \"#utility.yul\":2986:2992   */\n      dup6\n        /* \"#utility.yul\":2942:3013   */\n      tag_125\n      jump\t// in\n    tag_170:\n        /* \"#utility.yul\":3023:3095   */\n      tag_171\n        /* \"#utility.yul\":3091:3093   */\n      0x20\n        /* \"#utility.yul\":3080:3089   */\n      dup4\n        /* \"#utility.yul\":3076:3094   */\n      add\n        /* \"#utility.yul\":3067:3073   */\n      dup5\n        /* \"#utility.yul\":3023:3095   */\n      tag_113\n      jump\t// in\n    tag_171:\n        /* \"#utility.yul\":2770:3102   */\n      swap4\n      swap3\n      pop\n      pop\n      pop\n      jump\t// out\n        /* \"#utility.yul\":3108:3330   */\n    tag_57:\n        /* \"#utility.yul\":3201:3205   */\n      0x00\n        /* \"#utility.yul\":3239:3241   */\n      0x20\n        /* \"#utility.yul\":3228:3237   */\n      dup3\n        /* \"#utility.yul\":3224:3242   */\n      add\n        /* \"#utility.yul\":3216:3242   */\n      swap1\n      pop\n        /* \"#utility.yul\":3252:3323   */\n      tag_173\n        /* \"#utility.yul\":3320:3321   */\n      0x00\n        /* \"#utility.yul\":3309:3318   */\n      dup4\n        /* \"#utility.yul\":3305:3322   */\n      add\n        /* \"#utility.yul\":3296:3302   */\n      dup5\n        /* \"#utility.yul\":3252:3323   */\n      tag_125\n      jump\t// in\n    tag_173:\n        /* \"#utility.yul\":3108:3330   */\n      swap3\n      swap2\n      pop\n      pop\n      jump\t// out\n        /* \"#utility.yul\":3336:3505   */\n    tag_126:\n        /* \"#utility.yul\":3420:3431   */\n      0x00\n        /* \"#utility.yul\":3454:3460   */\n      dup3\n        /* \"#utility.yul\":3449:3452   */\n      dup3\n        /* \"#utility.yul\":3442:3461   */\n      mstore\n        /* \"#utility.yul\":3494:3498   */\n      0x20\n        /* \"#utility.yul\":3489:3492   */\n      dup3\n        /* \"#utility.yul\":3485:3499   */\n      add\n        /* \"#utility.yul\":3470:3499   */\n      swap1\n      pop\n        /* \"#utility.yul\":3336:3505   */\n      swap3\n      swap2\n      pop\n      pop\n      jump\t// out\n        /* \"#utility.yul\":3511:3732   */\n    tag_127:\n        /* \"#utility.yul\":3651:3685   */\n      0x4f6e6c792061646d696e2063616e20706572666f726d20746869732061637469\n        /* \"#utility.yul\":3647:3648   */\n      0x00\n        /* \"#utility.yul\":3639:3645   */\n      dup3\n        /* \"#utility.yul\":3635:3649   */\n      add\n        /* \"#utility.yul\":3628:3686   */\n      mstore\n        /* \"#utility.yul\":3720:3724   */\n      0x6f6e000000000000000000000000000000000000000000000000000000000000\n        /* \"#utility.yul\":3715:3717   */\n      0x20\n        /* \"#utility.yul\":3707:3713   */\n      dup3\n        /* \"#utility.yul\":3703:3718   */\n      add\n        /* \"#utility.yul\":3696:3725   */\n      mstore\n        /* \"#utility.yul\":3511:3732   */\n      pop\n      jump\t// out\n        /* \"#utility.yul\":3738:4104   */\n    tag_128:\n        /* \"#utility.yul\":3880:3883   */\n      0x00\n        /* \"#utility.yul\":3901:3968   */\n      tag_177\n        /* \"#utility.yul\":3965:3967   */\n      0x22\n        /* \"#utility.yul\":3960:3963   */\n      dup4\n        /* \"#utility.yul\":3901:3968   */\n      tag_126\n      jump\t// in\n    tag_177:\n        /* \"#utility.yul\":3894:3968   */\n      swap2\n      pop\n        /* \"#utility.yul\":3977:4070   */\n      tag_178\n        /* \"#utility.yul\":4066:4069   */\n      dup3\n        /* \"#utility.yul\":3977:4070   */\n      tag_127\n      jump\t// in\n    tag_178:\n        /* \"#utility.yul\":4095:4097   */\n      0x40\n        /* \"#utility.yul\":4090:4093   */\n      dup3\n        /* \"#utility.yul\":4086:4098   */\n      add\n        /* \"#utility.yul\":4079:4098   */\n      swap1\n      pop\n        /* \"#utility.yul\":3738:4104   */\n      swap2\n      swap1\n      pop\n      jump\t// out\n        /* \"#utility.yul\":4110:4529   */\n    tag_61:\n        /* \"#utility.yul\":4276:4280   */\n      0x00\n        /* \"#utility.yul\":4314:4316   */\n      0x20\n        /* \"#utility.yul\":4303:4312   */\n      dup3\n        /* \"#utility.yul\":4299:4317   */\n      add\n        /* \"#utility.yul\":4291:4317   */\n      swap1\n      pop\n        /* \"#utility.yul\":4363:4372   */\n      dup2\n        /* \"#utility.yul\":4357:4361   */\n      dup2\n        /* \"#utility.yul\":4353:4373   */\n      sub\n        /* \"#utility.yul\":4349:4350   */\n      0x00\n        /* \"#utility.yul\":4338:4347   */\n      dup4\n        /* \"#utility.yul\":4334:4351   */\n      add\n        /* \"#utility.yul\":4327:4374   */\n      mstore\n        /* \"#utility.yul\":4391:4522   */\n      tag_180\n        /* \"#utility.yul\":4517:4521   */\n      dup2\n        /* \"#utility.yul\":4391:4522   */\n      tag_128\n      jump\t// in\n    tag_180:\n        /* \"#utility.yul\":4383:4522   */\n      swap1\n      pop\n        /* \"#utility.yul\":4110:4529   */\n      swap2\n      swap1\n      pop\n      jump\t// out\n        /* \"#utility.yul\":4535:4715   */\n    tag_70:\n        /* \"#utility.yul\":4583:4660   */\n      0x4e487b7100000000000000000000000000000000000000000000000000000000\n        /* \"#utility.yul\":4580:4581   */\n      0x00\n        /* \"#utility.yul\":4573:4661   */\n      mstore\n        /* \"#utility.yul\":4680:4684   */\n      0x32\n        /* \"#utility.yul\":4677:4678   */\n      0x04\n        /* \"#utility.yul\":4670:4685   */\n      mstore\n        /* \"#utility.yul\":4704:4708   */\n      0x24\n        /* \"#utility.yul\":4701:4702   */\n      0x00\n        /* \"#utility.yul\":4694:4709   */\n      revert\n        /* \"#utility.yul\":4721:4897   */\n    tag_129:\n        /* \"#utility.yul\":4861:4889   */\n      0x496e636f727265637420737562736372697074696f6e20666565000000000000\n        /* \"#utility.yul\":4857:4858   */\n      0x00\n        /* \"#utility.yul\":4849:4855   */\n      dup3\n        /* \"#utility.yul\":4845:4859   */\n      add\n        /* \"#utility.yul\":4838:4890   */\n      mstore\n        /* \"#utility.yul\":4721:4897   */\n      pop\n      jump\t// out\n        /* \"#utility.yul\":4903:5269   */\n    tag_130:\n        /* \"#utility.yul\":5045:5048   */\n      0x00\n        /* \"#utility.yul\":5066:5133   */\n      tag_184\n        /* \"#utility.yul\":5130:5132   */\n      0x1a\n        /* \"#utility.yul\":5125:5128   */\n      dup4\n        /* \"#utility.yul\":5066:5133   */\n      tag_126\n      jump\t// in\n    tag_184:\n        /* \"#utility.yul\":5059:5133   */\n      swap2\n      pop\n        /* \"#utility.yul\":5142:5235   */\n      tag_185\n        /* \"#utility.yul\":5231:5234   */\n      dup3\n        /* \"#utility.yul\":5142:5235   */\n      tag_129\n      jump\t// in\n    tag_185:\n        /* \"#utility.yul\":5260:5262   */\n      0x20\n        /* \"#utility.yul\":5255:5258   */\n      dup3\n        /* \"#utility.yul\":5251:5263   */\n      add\n        /* \"#utility.yul\":5244:5263   */\n      swap1\n      pop\n        /* \"#utility.yul\":4903:5269   */\n      swap2\n      swap1\n      pop\n      jump\t// out\n        /* \"#utility.yul\":5275:5694   */\n    tag_87:\n        /* \"#utility.yul\":5441:5445   */\n      0x00\n        /* \"#utility.yul\":5479:5481   */\n      0x20\n        /* \"#utility.yul\":5468:5477   */\n      dup3\n        /* \"#utility.yul\":5464:5482   */\n      add\n        /* \"#utility.yul\":5456:5482   */\n      swap1\n      pop\n        /* \"#utility.yul\":5528:5537   */\n      dup2\n        /* \"#utility.yul\":5522:5526   */\n      dup2\n        /* \"#utility.yul\":5518:5538   */\n      sub\n        /* \"#utility.yul\":5514:5515   */\n      0x00\n        /* \"#utility.yul\":5503:5512   */\n      dup4\n        /* \"#utility.yul\":5499:5516   */\n      add\n        /* \"#utility.yul\":5492:5539   */\n      mstore\n        /* \"#utility.yul\":5556:5687   */\n      tag_187\n        /* \"#utility.yul\":5682:5686   */\n      dup2\n        /* \"#utility.yul\":5556:5687   */\n      tag_130\n      jump\t// in\n    tag_187:\n        /* \"#utility.yul\":5548:5687   */\n      swap1\n      pop\n        /* \"#utility.yul\":5275:5694   */\n      swap2\n      swap1\n      pop\n      jump\t// out\n        /* \"#utility.yul\":5700:5880   */\n    tag_131:\n        /* \"#utility.yul\":5748:5825   */\n      0x4e487b7100000000000000000000000000000000000000000000000000000000\n        /* \"#utility.yul\":5745:5746   */\n      0x00\n        /* \"#utility.yul\":5738:5826   */\n      mstore\n        /* \"#utility.yul\":5845:5849   */\n      0x11\n        /* \"#utility.yul\":5842:5843   */\n      0x04\n        /* \"#utility.yul\":5835:5850   */\n      mstore\n        /* \"#utility.yul\":5869:5873   */\n      0x24\n        /* \"#utility.yul\":5866:5867   */\n      0x00\n        /* \"#utility.yul\":5859:5874   */\n      revert\n        /* \"#utility.yul\":5886:6077   */\n    tag_99:\n        /* \"#utility.yul\":5926:5929   */\n      0x00\n        /* \"#utility.yul\":5945:5965   */\n      tag_190\n        /* \"#utility.yul\":5963:5964   */\n      dup3\n        /* \"#utility.yul\":5945:5965   */\n      tag_112\n      jump\t// in\n    tag_190:\n        /* \"#utility.yul\":5940:5965   */\n      swap2\n      pop\n        /* \"#utility.yul\":5979:5999   */\n      tag_191\n        /* \"#utility.yul\":5997:5998   */\n      dup4\n        /* \"#utility.yul\":5979:5999   */\n      tag_112\n      jump\t// in\n    tag_191:\n        /* \"#utility.yul\":5974:5999   */\n      swap3\n      pop\n        /* \"#utility.yul\":6022:6023   */\n      dup3\n        /* \"#utility.yul\":6019:6020   */\n      dup3\n        /* \"#utility.yul\":6015:6024   */\n      add\n        /* \"#utility.yul\":6008:6024   */\n      swap1\n      pop\n        /* \"#utility.yul\":6043:6046   */\n      dup1\n        /* \"#utility.yul\":6040:6041   */\n      dup3\n        /* \"#utility.yul\":6037:6047   */\n      gt\n        /* \"#utility.yul\":6034:6070   */\n      iszero\n      tag_192\n      jumpi\n        /* \"#utility.yul\":6050:6068   */\n      tag_193\n      tag_131\n      jump\t// in\n    tag_193:\n        /* \"#utility.yul\":6034:6070   */\n    tag_192:\n        /* \"#utility.yul\":5886:6077   */\n      swap3\n      swap2\n      pop\n      pop\n      jump\t// out\n\n    auxdata: 0xa26469706673582212206c97b8a530652487a1905a97ab194b72bd4300c62e8bc9c78b4f9fd7cda47b0164736f6c634300081a0033\n}\n",
				"bytecode": {
					"linkReferences": {},
					"object": "608060405234801561000f575f80fd5b50604051610c8c380380610c8c833981810160405281019061003191906100bc565b335f806101000a81548173ffffffffffffffffffffffffffffffffffffffff021916908373ffffffffffffffffffffffffffffffffffffffff160217905550816001819055508060028190555050506100fa565b5f80fd5b5f819050919050565b61009b81610089565b81146100a5575f80fd5b50565b5f815190506100b681610092565b92915050565b5f80604083850312156100d2576100d1610085565b5b5f6100df858286016100a8565b92505060206100f0858286016100a8565b9150509250929050565b610b85806101075f395ff3fe608060405260043610610090575f3560e01c80632d5bbf60116100585780632d5bbf60146101765780633ccfd60b146101b35780638f449a05146101c9578063b1423fff146101d3578063f851a440146101fb57610090565b80630aa0a175146100945780630c938c3f146100be5780630ca2822c146100e657806312065fe014610110578063144013291461013a575b5f80fd5b34801561009f575f80fd5b506100a8610225565b6040516100b59190610843565b60405180910390f35b3480156100c9575f80fd5b506100e460048036038101906100df919061088a565b61022b565b005b3480156100f1575f80fd5b506100fa6102c2565b6040516101079190610843565b60405180910390f35b34801561011b575f80fd5b506101246102c8565b6040516101319190610843565b60405180910390f35b348015610145575f80fd5b50610160600480360381019061015b919061090f565b6102cf565b60405161016d9190610954565b60405180910390f35b348015610181575f80fd5b5061019c6004803603810190610197919061088a565b61039c565b6040516101aa92919061097c565b60405180910390f35b3480156101be575f80fd5b506101c76103ea565b005b6101d16104dc565b005b3480156101de575f80fd5b506101f960048036038101906101f4919061088a565b610771565b005b348015610206575f80fd5b5061020f610808565b60405161021c91906109a3565b60405180910390f35b60015481565b5f8054906101000a900473ffffffffffffffffffffffffffffffffffffffff1673ffffffffffffffffffffffffffffffffffffffff163373ffffffffffffffffffffffffffffffffffffffff16146102b8576040517f08c379a00000000000000000000000000000000000000000000000000000000081526004016102af90610a3c565b60405180910390fd5b8060018190555050565b60025481565b5f47905090565b5f805f90505b600380549050811015610392578273ffffffffffffffffffffffffffffffffffffffff166003828154811061030d5761030c610a5a565b5b905f5260205f2090600202015f015f9054906101000a900473ffffffffffffffffffffffffffffffffffffffff1673ffffffffffffffffffffffffffffffffffffffff1603610385576003818154811061036a57610369610a5a565b5b905f5260205f20906002020160010154421115915050610397565b80806001019150506102d5565b505f90505b919050565b600381815481106103ab575f80fd5b905f5260205f2090600202015f91509050805f015f9054906101000a900473ffffffffffffffffffffffffffffffffffffffff16908060010154905082565b5f8054906101000a900473ffffffffffffffffffffffffffffffffffffffff1673ffffffffffffffffffffffffffffffffffffffff163373ffffffffffffffffffffffffffffffffffffffff1614610477576040517f08c379a000000000000000000000000000000000000000000000000000000000815260040161046e90610a3c565b60405180910390fd5b5f8054906101000a900473ffffffffffffffffffffffffffffffffffffffff1673ffffffffffffffffffffffffffffffffffffffff166108fc4790811502906040515f60405180830381858888f193505050501580156104d9573d5f803e3d5ffd5b50565b6001543414610520576040517f08c379a000000000000000000000000000000000000000000000000000000000815260040161051790610ad1565b60405180910390fd5b5f5b600380549050811015610662573373ffffffffffffffffffffffffffffffffffffffff166003828154811061055a57610559610a5a565b5b905f5260205f2090600202015f015f9054906101000a900473ffffffffffffffffffffffffffffffffffffffff1673ffffffffffffffffffffffffffffffffffffffff160361065557600254600382815481106105ba576105b9610a5a565b5b905f5260205f2090600202016001015f8282546105d79190610b1c565b925050819055503373ffffffffffffffffffffffffffffffffffffffff167f4b90d6788928d63c1821907a6a8b95f40d26562d8fe41b105f7489db9966dfcb6003838154811061062a57610629610a5a565b5b905f5260205f209060020201600101546040516106479190610843565b60405180910390a25061076f565b8080600101915050610522565b50600360405180604001604052803373ffffffffffffffffffffffffffffffffffffffff1681526020016002544261069a9190610b1c565b815250908060018154018082558091505060019003905f5260205f2090600202015f909190919091505f820151815f015f6101000a81548173ffffffffffffffffffffffffffffffffffffffff021916908373ffffffffffffffffffffffffffffffffffffffff1602179055506020820151816001015550503373ffffffffffffffffffffffffffffffffffffffff167f4b90d6788928d63c1821907a6a8b95f40d26562d8fe41b105f7489db9966dfcb600254426107599190610b1c565b6040516107669190610843565b60405180910390a25b565b5f8054906101000a900473ffffffffffffffffffffffffffffffffffffffff1673ffffffffffffffffffffffffffffffffffffffff163373ffffffffffffffffffffffffffffffffffffffff16146107fe576040517f08c379a00000000000000000000000000000000000000000000000000000000081526004016107f590610a3c565b60405180910390fd5b8060028190555050565b5f8054906101000a900473ffffffffffffffffffffffffffffffffffffffff1681565b5f819050919050565b61083d8161082b565b82525050565b5f6020820190506108565f830184610834565b92915050565b5f80fd5b6108698161082b565b8114610873575f80fd5b50565b5f8135905061088481610860565b92915050565b5f6020828403121561089f5761089e61085c565b5b5f6108ac84828501610876565b91505092915050565b5f73ffffffffffffffffffffffffffffffffffffffff82169050919050565b5f6108de826108b5565b9050919050565b6108ee816108d4565b81146108f8575f80fd5b50565b5f81359050610909816108e5565b92915050565b5f602082840312156109245761092361085c565b5b5f610931848285016108fb565b91505092915050565b5f8115159050919050565b61094e8161093a565b82525050565b5f6020820190506109675f830184610945565b92915050565b610976816108d4565b82525050565b5f60408201905061098f5f83018561096d565b61099c6020830184610834565b9392505050565b5f6020820190506109b65f83018461096d565b92915050565b5f82825260208201905092915050565b7f4f6e6c792061646d696e2063616e20706572666f726d207468697320616374695f8201527f6f6e000000000000000000000000000000000000000000000000000000000000602082015250565b5f610a266022836109bc565b9150610a31826109cc565b604082019050919050565b5f6020820190508181035f830152610a5381610a1a565b9050919050565b7f4e487b71000000000000000000000000000000000000000000000000000000005f52603260045260245ffd5b7f496e636f727265637420737562736372697074696f6e206665650000000000005f82015250565b5f610abb601a836109bc565b9150610ac682610a87565b602082019050919050565b5f6020820190508181035f830152610ae881610aaf565b9050919050565b7f4e487b71000000000000000000000000000000000000000000000000000000005f52601160045260245ffd5b5f610b268261082b565b9150610b318361082b565b9250828201905080821115610b4957610b48610aef565b5b9291505056fea26469706673582212206c97b8a530652487a1905a97ab194b72bd4300c62e8bc9c78b4f9fd7cda47b0164736f6c634300081a0033",
					"opcodes": "PUSH1 0x80 PUSH1 0x40 MSTORE CALLVALUE DUP1 ISZERO PUSH2 0xF JUMPI PUSH0 DUP1 REVERT JUMPDEST POP PUSH1 0x40 MLOAD PUSH2 0xC8C CODESIZE SUB DUP1 PUSH2 0xC8C DUP4 CODECOPY DUP2 DUP2 ADD PUSH1 0x40 MSTORE DUP2 ADD SWAP1 PUSH2 0x31 SWAP2 SWAP1 PUSH2 0xBC JUMP JUMPDEST CALLER PUSH0 DUP1 PUSH2 0x100 EXP DUP2 SLOAD DUP2 PUSH20 0xFFFFFFFFFFFFFFFFFFFFFFFFFFFFFFFFFFFFFFFF MUL NOT AND SWAP1 DUP4 PUSH20 0xFFFFFFFFFFFFFFFFFFFFFFFFFFFFFFFFFFFFFFFF AND MUL OR SWAP1 SSTORE POP DUP2 PUSH1 0x1 DUP2 SWAP1 SSTORE POP DUP1 PUSH1 0x2 DUP2 SWAP1 SSTORE POP POP POP PUSH2 0xFA JUMP JUMPDEST PUSH0 DUP1 REVERT JUMPDEST PUSH0 DUP2 SWAP1 POP SWAP2 SWAP1 POP JUMP JUMPDEST PUSH2 0x9B DUP2 PUSH2 0x89 JUMP JUMPDEST DUP2 EQ PUSH2 0xA5 JUMPI PUSH0 DUP1 REVERT JUMPDEST POP JUMP JUMPDEST PUSH0 DUP2 MLOAD SWAP1 POP PUSH2 0xB6 DUP2 PUSH2 0x92 JUMP JUMPDEST SWAP3 SWAP2 POP POP JUMP JUMPDEST PUSH0 DUP1 PUSH1 0x40 DUP4 DUP6 SUB SLT ISZERO PUSH2 0xD2 JUMPI PUSH2 0xD1 PUSH2 0x85 JUMP JUMPDEST JUMPDEST PUSH0 PUSH2 0xDF DUP6 DUP3 DUP7 ADD PUSH2 0xA8 JUMP JUMPDEST SWAP3 POP POP PUSH1 0x20 PUSH2 0xF0 DUP6 DUP3 DUP7 ADD PUSH2 0xA8 JUMP JUMPDEST SWAP2 POP POP SWAP3 POP SWAP3 SWAP1 POP JUMP JUMPDEST PUSH2 0xB85 DUP1 PUSH2 0x107 PUSH0 CODECOPY PUSH0 RETURN INVALID PUSH1 0x80 PUSH1 0x40 MSTORE PUSH1 0x4 CALLDATASIZE LT PUSH2 0x90 JUMPI PUSH0 CALLDATALOAD PUSH1 0xE0 SHR DUP1 PUSH4 0x2D5BBF60 GT PUSH2 0x58 JUMPI DUP1 PUSH4 0x2D5BBF60 EQ PUSH2 0x176 JUMPI DUP1 PUSH4 0x3CCFD60B EQ PUSH2 0x1B3 JUMPI DUP1 PUSH4 0x8F449A05 EQ PUSH2 0x1C9 JUMPI DUP1 PUSH4 0xB1423FFF EQ PUSH2 0x1D3 JUMPI DUP1 PUSH4 0xF851A440 EQ PUSH2 0x1FB JUMPI PUSH2 0x90 JUMP JUMPDEST DUP1 PUSH4 0xAA0A175 EQ PUSH2 0x94 JUMPI DUP1 PUSH4 0xC938C3F EQ PUSH2 0xBE JUMPI DUP1 PUSH4 0xCA2822C EQ PUSH2 0xE6 JUMPI DUP1 PUSH4 0x12065FE0 EQ PUSH2 0x110 JUMPI DUP1 PUSH4 0x14401329 EQ PUSH2 0x13A JUMPI JUMPDEST PUSH0 DUP1 REVERT JUMPDEST CALLVALUE DUP1 ISZERO PUSH2 0x9F JUMPI PUSH0 DUP1 REVERT JUMPDEST POP PUSH2 0xA8 PUSH2 0x225 JUMP JUMPDEST PUSH1 0x40 MLOAD PUSH2 0xB5 SWAP2 SWAP1 PUSH2 0x843 JUMP JUMPDEST PUSH1 0x40 MLOAD DUP1 SWAP2 SUB SWAP1 RETURN JUMPDEST CALLVALUE DUP1 ISZERO PUSH2 0xC9 JUMPI PUSH0 DUP1 REVERT JUMPDEST POP PUSH2 0xE4 PUSH1 0x4 DUP1 CALLDATASIZE SUB DUP2 ADD SWAP1 PUSH2 0xDF SWAP2 SWAP1 PUSH2 0x88A JUMP JUMPDEST PUSH2 0x22B JUMP JUMPDEST STOP JUMPDEST CALLVALUE DUP1 ISZERO PUSH2 0xF1 JUMPI PUSH0 DUP1 REVERT JUMPDEST POP PUSH2 0xFA PUSH2 0x2C2 JUMP JUMPDEST PUSH1 0x40 MLOAD PUSH2 0x107 SWAP2 SWAP1 PUSH2 0x843 JUMP JUMPDEST PUSH1 0x40 MLOAD DUP1 SWAP2 SUB SWAP1 RETURN JUMPDEST CALLVALUE DUP1 ISZERO PUSH2 0x11B JUMPI PUSH0 DUP1 REVERT JUMPDEST POP PUSH2 0x124 PUSH2 0x2C8 JUMP JUMPDEST PUSH1 0x40 MLOAD PUSH2 0x131 SWAP2 SWAP1 PUSH2 0x843 JUMP JUMPDEST PUSH1 0x40 MLOAD DUP1 SWAP2 SUB SWAP1 RETURN JUMPDEST CALLVALUE DUP1 ISZERO PUSH2 0x145 JUMPI PUSH0 DUP1 REVERT JUMPDEST POP PUSH2 0x160 PUSH1 0x4 DUP1 CALLDATASIZE SUB DUP2 ADD SWAP1 PUSH2 0x15B SWAP2 SWAP1 PUSH2 0x90F JUMP JUMPDEST PUSH2 0x2CF JUMP JUMPDEST PUSH1 0x40 MLOAD PUSH2 0x16D SWAP2 SWAP1 PUSH2 0x954 JUMP JUMPDEST PUSH1 0x40 MLOAD DUP1 SWAP2 SUB SWAP1 RETURN JUMPDEST CALLVALUE DUP1 ISZERO PUSH2 0x181 JUMPI PUSH0 DUP1 REVERT JUMPDEST POP PUSH2 0x19C PUSH1 0x4 DUP1 CALLDATASIZE SUB DUP2 ADD SWAP1 PUSH2 0x197 SWAP2 SWAP1 PUSH2 0x88A JUMP JUMPDEST PUSH2 0x39C JUMP JUMPDEST PUSH1 0x40 MLOAD PUSH2 0x1AA SWAP3 SWAP2 SWAP1 PUSH2 0x97C JUMP JUMPDEST PUSH1 0x40 MLOAD DUP1 SWAP2 SUB SWAP1 RETURN JUMPDEST CALLVALUE DUP1 ISZERO PUSH2 0x1BE JUMPI PUSH0 DUP1 REVERT JUMPDEST POP PUSH2 0x1C7 PUSH2 0x3EA JUMP JUMPDEST STOP JUMPDEST PUSH2 0x1D1 PUSH2 0x4DC JUMP JUMPDEST STOP JUMPDEST CALLVALUE DUP1 ISZERO PUSH2 0x1DE JUMPI PUSH0 DUP1 REVERT JUMPDEST POP PUSH2 0x1F9 PUSH1 0x4 DUP1 CALLDATASIZE SUB DUP2 ADD SWAP1 PUSH2 0x1F4 SWAP2 SWAP1 PUSH2 0x88A JUMP JUMPDEST PUSH2 0x771 JUMP JUMPDEST STOP JUMPDEST CALLVALUE DUP1 ISZERO PUSH2 0x206 JUMPI PUSH0 DUP1 REVERT JUMPDEST POP PUSH2 0x20F PUSH2 0x808 JUMP JUMPDEST PUSH1 0x40 MLOAD PUSH2 0x21C SWAP2 SWAP1 PUSH2 0x9A3 JUMP JUMPDEST PUSH1 0x40 MLOAD DUP1 SWAP2 SUB SWAP1 RETURN JUMPDEST PUSH1 0x1 SLOAD DUP2 JUMP JUMPDEST PUSH0 DUP1 SLOAD SWAP1 PUSH2 0x100 EXP SWAP1 DIV PUSH20 0xFFFFFFFFFFFFFFFFFFFFFFFFFFFFFFFFFFFFFFFF AND PUSH20 0xFFFFFFFFFFFFFFFFFFFFFFFFFFFFFFFFFFFFFFFF AND CALLER PUSH20 0xFFFFFFFFFFFFFFFFFFFFFFFFFFFFFFFFFFFFFFFF AND EQ PUSH2 0x2B8 JUMPI PUSH1 0x40 MLOAD PUSH32 0x8C379A000000000000000000000000000000000000000000000000000000000 DUP2 MSTORE PUSH1 0x4 ADD PUSH2 0x2AF SWAP1 PUSH2 0xA3C JUMP JUMPDEST PUSH1 0x40 MLOAD DUP1 SWAP2 SUB SWAP1 REVERT JUMPDEST DUP1 PUSH1 0x1 DUP2 SWAP1 SSTORE POP POP JUMP JUMPDEST PUSH1 0x2 SLOAD DUP2 JUMP JUMPDEST PUSH0 SELFBALANCE SWAP1 POP SWAP1 JUMP JUMPDEST PUSH0 DUP1 PUSH0 SWAP1 POP JUMPDEST PUSH1 0x3 DUP1 SLOAD SWAP1 POP DUP2 LT ISZERO PUSH2 0x392 JUMPI DUP3 PUSH20 0xFFFFFFFFFFFFFFFFFFFFFFFFFFFFFFFFFFFFFFFF AND PUSH1 0x3 DUP3 DUP2 SLOAD DUP2 LT PUSH2 0x30D JUMPI PUSH2 0x30C PUSH2 0xA5A JUMP JUMPDEST JUMPDEST SWAP1 PUSH0 MSTORE PUSH1 0x20 PUSH0 KECCAK256 SWAP1 PUSH1 0x2 MUL ADD PUSH0 ADD PUSH0 SWAP1 SLOAD SWAP1 PUSH2 0x100 EXP SWAP1 DIV PUSH20 0xFFFFFFFFFFFFFFFFFFFFFFFFFFFFFFFFFFFFFFFF AND PUSH20 0xFFFFFFFFFFFFFFFFFFFFFFFFFFFFFFFFFFFFFFFF AND SUB PUSH2 0x385 JUMPI PUSH1 0x3 DUP2 DUP2 SLOAD DUP2 LT PUSH2 0x36A JUMPI PUSH2 0x369 PUSH2 0xA5A JUMP JUMPDEST JUMPDEST SWAP1 PUSH0 MSTORE PUSH1 0x20 PUSH0 KECCAK256 SWAP1 PUSH1 0x2 MUL ADD PUSH1 0x1 ADD SLOAD TIMESTAMP GT ISZERO SWAP2 POP POP PUSH2 0x397 JUMP JUMPDEST DUP1 DUP1 PUSH1 0x1 ADD SWAP2 POP POP PUSH2 0x2D5 JUMP JUMPDEST POP PUSH0 SWAP1 POP JUMPDEST SWAP2 SWAP1 POP JUMP JUMPDEST PUSH1 0x3 DUP2 DUP2 SLOAD DUP2 LT PUSH2 0x3AB JUMPI PUSH0 DUP1 REVERT JUMPDEST SWAP1 PUSH0 MSTORE PUSH1 0x20 PUSH0 KECCAK256 SWAP1 PUSH1 0x2 MUL ADD PUSH0 SWAP2 POP SWAP1 POP DUP1 PUSH0 ADD PUSH0 SWAP1 SLOAD SWAP1 PUSH2 0x100 EXP SWAP1 DIV PUSH20 0xFFFFFFFFFFFFFFFFFFFFFFFFFFFFFFFFFFFFFFFF AND SWAP1 DUP1 PUSH1 0x1 ADD SLOAD SWAP1 POP DUP3 JUMP JUMPDEST PUSH0 DUP1 SLOAD SWAP1 PUSH2 0x100 EXP SWAP1 DIV PUSH20 0xFFFFFFFFFFFFFFFFFFFFFFFFFFFFFFFFFFFFFFFF AND PUSH20 0xFFFFFFFFFFFFFFFFFFFFFFFFFFFFFFFFFFFFFFFF AND CALLER PUSH20 0xFFFFFFFFFFFFFFFFFFFFFFFFFFFFFFFFFFFFFFFF AND EQ PUSH2 0x477 JUMPI PUSH1 0x40 MLOAD PUSH32 0x8C379A000000000000000000000000000000000000000000000000000000000 DUP2 MSTORE PUSH1 0x4 ADD PUSH2 0x46E SWAP1 PUSH2 0xA3C JUMP JUMPDEST PUSH1 0x40 MLOAD DUP1 SWAP2 SUB SWAP1 REVERT JUMPDEST PUSH0 DUP1 SLOAD SWAP1 PUSH2 0x100 EXP SWAP1 DIV PUSH20 0xFFFFFFFFFFFFFFFFFFFFFFFFFFFFFFFFFFFFFFFF AND PUSH20 0xFFFFFFFFFFFFFFFFFFFFFFFFFFFFFFFFFFFFFFFF AND PUSH2 0x8FC SELFBALANCE SWAP1 DUP2 ISZERO MUL SWAP1 PUSH1 0x40 MLOAD PUSH0 PUSH1 0x40 MLOAD DUP1 DUP4 SUB DUP2 DUP6 DUP9 DUP9 CALL SWAP4 POP POP POP POP ISZERO DUP1 ISZERO PUSH2 0x4D9 JUMPI RETURNDATASIZE PUSH0 DUP1 RETURNDATACOPY RETURNDATASIZE PUSH0 REVERT JUMPDEST POP JUMP JUMPDEST PUSH1 0x1 SLOAD CALLVALUE EQ PUSH2 0x520 JUMPI PUSH1 0x40 MLOAD PUSH32 0x8C379A000000000000000000000000000000000000000000000000000000000 DUP2 MSTORE PUSH1 0x4 ADD PUSH2 0x517 SWAP1 PUSH2 0xAD1 JUMP JUMPDEST PUSH1 0x40 MLOAD DUP1 SWAP2 SUB SWAP1 REVERT JUMPDEST PUSH0 JUMPDEST PUSH1 0x3 DUP1 SLOAD SWAP1 POP DUP2 LT ISZERO PUSH2 0x662 JUMPI CALLER PUSH20 0xFFFFFFFFFFFFFFFFFFFFFFFFFFFFFFFFFFFFFFFF AND PUSH1 0x3 DUP3 DUP2 SLOAD DUP2 LT PUSH2 0x55A JUMPI PUSH2 0x559 PUSH2 0xA5A JUMP JUMPDEST JUMPDEST SWAP1 PUSH0 MSTORE PUSH1 0x20 PUSH0 KECCAK256 SWAP1 PUSH1 0x2 MUL ADD PUSH0 ADD PUSH0 SWAP1 SLOAD SWAP1 PUSH2 0x100 EXP SWAP1 DIV PUSH20 0xFFFFFFFFFFFFFFFFFFFFFFFFFFFFFFFFFFFFFFFF AND PUSH20 0xFFFFFFFFFFFFFFFFFFFFFFFFFFFFFFFFFFFFFFFF AND SUB PUSH2 0x655 JUMPI PUSH1 0x2 SLOAD PUSH1 0x3 DUP3 DUP2 SLOAD DUP2 LT PUSH2 0x5BA JUMPI PUSH2 0x5B9 PUSH2 0xA5A JUMP JUMPDEST JUMPDEST SWAP1 PUSH0 MSTORE PUSH1 0x20 PUSH0 KECCAK256 SWAP1 PUSH1 0x2 MUL ADD PUSH1 0x1 ADD PUSH0 DUP3 DUP3 SLOAD PUSH2 0x5D7 SWAP2 SWAP1 PUSH2 0xB1C JUMP JUMPDEST SWAP3 POP POP DUP2 SWAP1 SSTORE POP CALLER PUSH20 0xFFFFFFFFFFFFFFFFFFFFFFFFFFFFFFFFFFFFFFFF AND PUSH32 0x4B90D6788928D63C1821907A6A8B95F40D26562D8FE41B105F7489DB9966DFCB PUSH1 0x3 DUP4 DUP2 SLOAD DUP2 LT PUSH2 0x62A JUMPI PUSH2 0x629 PUSH2 0xA5A JUMP JUMPDEST JUMPDEST SWAP1 PUSH0 MSTORE PUSH1 0x20 PUSH0 KECCAK256 SWAP1 PUSH1 0x2 MUL ADD PUSH1 0x1 ADD SLOAD PUSH1 0x40 MLOAD PUSH2 0x647 SWAP2 SWAP1 PUSH2 0x843 JUMP JUMPDEST PUSH1 0x40 MLOAD DUP1 SWAP2 SUB SWAP1 LOG2 POP PUSH2 0x76F JUMP JUMPDEST DUP1 DUP1 PUSH1 0x1 ADD SWAP2 POP POP PUSH2 0x522 JUMP JUMPDEST POP PUSH1 0x3 PUSH1 0x40 MLOAD DUP1 PUSH1 0x40 ADD PUSH1 0x40 MSTORE DUP1 CALLER PUSH20 0xFFFFFFFFFFFFFFFFFFFFFFFFFFFFFFFFFFFFFFFF AND DUP2 MSTORE PUSH1 0x20 ADD PUSH1 0x2 SLOAD TIMESTAMP PUSH2 0x69A SWAP2 SWAP1 PUSH2 0xB1C JUMP JUMPDEST DUP2 MSTORE POP SWAP1 DUP1 PUSH1 0x1 DUP2 SLOAD ADD DUP1 DUP3 SSTORE DUP1 SWAP2 POP POP PUSH1 0x1 SWAP1 SUB SWAP1 PUSH0 MSTORE PUSH1 0x20 PUSH0 KECCAK256 SWAP1 PUSH1 0x2 MUL ADD PUSH0 SWAP1 SWAP2 SWAP1 SWAP2 SWAP1 SWAP2 POP PUSH0 DUP3 ADD MLOAD DUP2 PUSH0 ADD PUSH0 PUSH2 0x100 EXP DUP2 SLOAD DUP2 PUSH20 0xFFFFFFFFFFFFFFFFFFFFFFFFFFFFFFFFFFFFFFFF MUL NOT AND SWAP1 DUP4 PUSH20 0xFFFFFFFFFFFFFFFFFFFFFFFFFFFFFFFFFFFFFFFF AND MUL OR SWAP1 SSTORE POP PUSH1 0x20 DUP3 ADD MLOAD DUP2 PUSH1 0x1 ADD SSTORE POP POP CALLER PUSH20 0xFFFFFFFFFFFFFFFFFFFFFFFFFFFFFFFFFFFFFFFF AND PUSH32 0x4B90D6788928D63C1821907A6A8B95F40D26562D8FE41B105F7489DB9966DFCB PUSH1 0x2 SLOAD TIMESTAMP PUSH2 0x759 SWAP2 SWAP1 PUSH2 0xB1C JUMP JUMPDEST PUSH1 0x40 MLOAD PUSH2 0x766 SWAP2 SWAP1 PUSH2 0x843 JUMP JUMPDEST PUSH1 0x40 MLOAD DUP1 SWAP2 SUB SWAP1 LOG2 JUMPDEST JUMP JUMPDEST PUSH0 DUP1 SLOAD SWAP1 PUSH2 0x100 EXP SWAP1 DIV PUSH20 0xFFFFFFFFFFFFFFFFFFFFFFFFFFFFFFFFFFFFFFFF AND PUSH20 0xFFFFFFFFFFFFFFFFFFFFFFFFFFFFFFFFFFFFFFFF AND CALLER PUSH20 0xFFFFFFFFFFFFFFFFFFFFFFFFFFFFFFFFFFFFFFFF AND EQ PUSH2 0x7FE JUMPI PUSH1 0x40 MLOAD PUSH32 0x8C379A000000000000000000000000000000000000000000000000000000000 DUP2 MSTORE PUSH1 0x4 ADD PUSH2 0x7F5 SWAP1 PUSH2 0xA3C JUMP JUMPDEST PUSH1 0x40 MLOAD DUP1 SWAP2 SUB SWAP1 REVERT JUMPDEST DUP1 PUSH1 0x2 DUP2 SWAP1 SSTORE POP POP JUMP JUMPDEST PUSH0 DUP1 SLOAD SWAP1 PUSH2 0x100 EXP SWAP1 DIV PUSH20 0xFFFFFFFFFFFFFFFFFFFFFFFFFFFFFFFFFFFFFFFF AND DUP2 JUMP JUMPDEST PUSH0 DUP2 SWAP1 POP SWAP2 SWAP1 POP JUMP JUMPDEST PUSH2 0x83D DUP2 PUSH2 0x82B JUMP JUMPDEST DUP3 MSTORE POP POP JUMP JUMPDEST PUSH0 PUSH1 0x20 DUP3 ADD SWAP1 POP PUSH2 0x856 PUSH0 DUP4 ADD DUP5 PUSH2 0x834 JUMP JUMPDEST SWAP3 SWAP2 POP POP JUMP JUMPDEST PUSH0 DUP1 REVERT JUMPDEST PUSH2 0x869 DUP2 PUSH2 0x82B JUMP JUMPDEST DUP2 EQ PUSH2 0x873 JUMPI PUSH0 DUP1 REVERT JUMPDEST POP JUMP JUMPDEST PUSH0 DUP2 CALLDATALOAD SWAP1 POP PUSH2 0x884 DUP2 PUSH2 0x860 JUMP JUMPDEST SWAP3 SWAP2 POP POP JUMP JUMPDEST PUSH0 PUSH1 0x20 DUP3 DUP5 SUB SLT ISZERO PUSH2 0x89F JUMPI PUSH2 0x89E PUSH2 0x85C JUMP JUMPDEST JUMPDEST PUSH0 PUSH2 0x8AC DUP5 DUP3 DUP6 ADD PUSH2 0x876 JUMP JUMPDEST SWAP2 POP POP SWAP3 SWAP2 POP POP JUMP JUMPDEST PUSH0 PUSH20 0xFFFFFFFFFFFFFFFFFFFFFFFFFFFFFFFFFFFFFFFF DUP3 AND SWAP1 POP SWAP2 SWAP1 POP JUMP JUMPDEST PUSH0 PUSH2 0x8DE DUP3 PUSH2 0x8B5 JUMP JUMPDEST SWAP1 POP SWAP2 SWAP1 POP JUMP JUMPDEST PUSH2 0x8EE DUP2 PUSH2 0x8D4 JUMP JUMPDEST DUP2 EQ PUSH2 0x8F8 JUMPI PUSH0 DUP1 REVERT JUMPDEST POP JUMP JUMPDEST PUSH0 DUP2 CALLDATALOAD SWAP1 POP PUSH2 0x909 DUP2 PUSH2 0x8E5 JUMP JUMPDEST SWAP3 SWAP2 POP POP JUMP JUMPDEST PUSH0 PUSH1 0x20 DUP3 DUP5 SUB SLT ISZERO PUSH2 0x924 JUMPI PUSH2 0x923 PUSH2 0x85C JUMP JUMPDEST JUMPDEST PUSH0 PUSH2 0x931 DUP5 DUP3 DUP6 ADD PUSH2 0x8FB JUMP JUMPDEST SWAP2 POP POP SWAP3 SWAP2 POP POP JUMP JUMPDEST PUSH0 DUP2 ISZERO ISZERO SWAP1 POP SWAP2 SWAP1 POP JUMP JUMPDEST PUSH2 0x94E DUP2 PUSH2 0x93A JUMP JUMPDEST DUP3 MSTORE POP POP JUMP JUMPDEST PUSH0 PUSH1 0x20 DUP3 ADD SWAP1 POP PUSH2 0x967 PUSH0 DUP4 ADD DUP5 PUSH2 0x945 JUMP JUMPDEST SWAP3 SWAP2 POP POP JUMP JUMPDEST PUSH2 0x976 DUP2 PUSH2 0x8D4 JUMP JUMPDEST DUP3 MSTORE POP POP JUMP JUMPDEST PUSH0 PUSH1 0x40 DUP3 ADD SWAP1 POP PUSH2 0x98F PUSH0 DUP4 ADD DUP6 PUSH2 0x96D JUMP JUMPDEST PUSH2 0x99C PUSH1 0x20 DUP4 ADD DUP5 PUSH2 0x834 JUMP JUMPDEST SWAP4 SWAP3 POP POP POP JUMP JUMPDEST PUSH0 PUSH1 0x20 DUP3 ADD SWAP1 POP PUSH2 0x9B6 PUSH0 DUP4 ADD DUP5 PUSH2 0x96D JUMP JUMPDEST SWAP3 SWAP2 POP POP JUMP JUMPDEST PUSH0 DUP3 DUP3 MSTORE PUSH1 0x20 DUP3 ADD SWAP1 POP SWAP3 SWAP2 POP POP JUMP JUMPDEST PUSH32 0x4F6E6C792061646D696E2063616E20706572666F726D20746869732061637469 PUSH0 DUP3 ADD MSTORE PUSH32 0x6F6E000000000000000000000000000000000000000000000000000000000000 PUSH1 0x20 DUP3 ADD MSTORE POP JUMP JUMPDEST PUSH0 PUSH2 0xA26 PUSH1 0x22 DUP4 PUSH2 0x9BC JUMP JUMPDEST SWAP2 POP PUSH2 0xA31 DUP3 PUSH2 0x9CC JUMP JUMPDEST PUSH1 0x40 DUP3 ADD SWAP1 POP SWAP2 SWAP1 POP JUMP JUMPDEST PUSH0 PUSH1 0x20 DUP3 ADD SWAP1 POP DUP2 DUP2 SUB PUSH0 DUP4 ADD MSTORE PUSH2 0xA53 DUP2 PUSH2 0xA1A JUMP JUMPDEST SWAP1 POP SWAP2 SWAP1 POP JUMP JUMPDEST PUSH32 0x4E487B7100000000000000000000000000000000000000000000000000000000 PUSH0 MSTORE PUSH1 0x32 PUSH1 0x4 MSTORE PUSH1 0x24 PUSH0 REVERT JUMPDEST PUSH32 0x496E636F727265637420737562736372697074696F6E20666565000000000000 PUSH0 DUP3 ADD MSTORE POP JUMP JUMPDEST PUSH0 PUSH2 0xABB PUSH1 0x1A DUP4 PUSH2 0x9BC JUMP JUMPDEST SWAP2 POP PUSH2 0xAC6 DUP3 PUSH2 0xA87 JUMP JUMPDEST PUSH1 0x20 DUP3 ADD SWAP1 POP SWAP2 SWAP1 POP JUMP JUMPDEST PUSH0 PUSH1 0x20 DUP3 ADD SWAP1 POP DUP2 DUP2 SUB PUSH0 DUP4 ADD MSTORE PUSH2 0xAE8 DUP2 PUSH2 0xAAF JUMP JUMPDEST SWAP1 POP SWAP2 SWAP1 POP JUMP JUMPDEST PUSH32 0x4E487B7100000000000000000000000000000000000000000000000000000000 PUSH0 MSTORE PUSH1 0x11 PUSH1 0x4 MSTORE PUSH1 0x24 PUSH0 REVERT JUMPDEST PUSH0 PUSH2 0xB26 DUP3 PUSH2 0x82B JUMP JUMPDEST SWAP2 POP PUSH2 0xB31 DUP4 PUSH2 0x82B JUMP JUMPDEST SWAP3 POP DUP3 DUP3 ADD SWAP1 POP DUP1 DUP3 GT ISZERO PUSH2 0xB49 JUMPI PUSH2 0xB48 PUSH2 0xAEF JUMP JUMPDEST JUMPDEST SWAP3 SWAP2 POP POP JUMP INVALID LOG2 PUSH5 0x6970667358 0x22 SLT KECCAK256 PUSH13 0x97B8A530652487A1905A97AB19 0x4B PUSH19 0xBD4300C62E8BC9C78B4F9FD7CDA47B0164736F PUSH13 0x634300081A0033000000000000 "
				},
				"gasEstimates": {
					"creation": {
						"codeDepositCost": "589800",
						"executionCost": "infinite",
						"totalCost": "infinite"
					},
					"external": {
						"admin()": "2593",
						"changeSubscriptionFee(uint256)": "24704",
						"changeSubscriptionPeriod(uint256)": "24747",
						"getBalance()": "401",
						"isSubscriptionActive(address)": "infinite",
						"subscribe()": "infinite",
						"subscriptionFee()": "2426",
						"subscriptionPeriod()": "2470",
						"subscriptions(uint256)": "infinite",
						"withdraw()": "infinite"
					}
				},
				"methodIdentifiers": {
					"admin()": "f851a440",
					"changeSubscriptionFee(uint256)": "0c938c3f",
					"changeSubscriptionPeriod(uint256)": "b1423fff",
					"getBalance()": "12065fe0",
					"isSubscriptionActive(address)": "14401329",
					"subscribe()": "8f449a05",
					"subscriptionFee()": "0aa0a175",
					"subscriptionPeriod()": "0ca2822c",
					"subscriptions(uint256)": "2d5bbf60",
					"withdraw()": "3ccfd60b"
				}
			},
			"storageLayout": {
				"storage": [
					{
						"astId": 3,
						"contract": "contracts/Subscribe.sol:SubscriptionService",
						"label": "admin",
						"offset": 0,
						"slot": "0",
						"type": "t_address"
					},
					{
						"astId": 5,
						"contract": "contracts/Subscribe.sol:SubscriptionService",
						"label": "subscriptionFee",
						"offset": 0,
						"slot": "1",
						"type": "t_uint256"
					},
					{
						"astId": 7,
						"contract": "contracts/Subscribe.sol:SubscriptionService",
						"label": "subscriptionPeriod",
						"offset": 0,
						"slot": "2",
						"type": "t_uint256"
					},
					{
						"astId": 16,
						"contract": "contracts/Subscribe.sol:SubscriptionService",
						"label": "subscriptions",
						"offset": 0,
						"slot": "3",
						"type": "t_array(t_struct(Subscription)12_storage)dyn_storage"
					}
				],
				"types": {
					"t_address": {
						"encoding": "inplace",
						"label": "address",
						"numberOfBytes": "20"
					},
					"t_array(t_struct(Subscription)12_storage)dyn_storage": {
						"base": "t_struct(Subscription)12_storage",
						"encoding": "dynamic_array",
						"label": "struct SubscriptionService.Subscription[]",
						"numberOfBytes": "32"
					},
					"t_struct(Subscription)12_storage": {
						"encoding": "inplace",
						"label": "struct SubscriptionService.Subscription",
						"members": [
							{
								"astId": 9,
								"contract": "contracts/Subscribe.sol:SubscriptionService",
								"label": "user",
								"offset": 0,
								"slot": "0",
								"type": "t_address"
							},
							{
								"astId": 11,
								"contract": "contracts/Subscribe.sol:SubscriptionService",
								"label": "expirationTime",
								"offset": 0,
								"slot": "1",
								"type": "t_uint256"
							}
						],
						"numberOfBytes": "64"
					},
					"t_uint256": {
						"encoding": "inplace",
						"label": "uint256",
						"numberOfBytes": "32"
					}
				}
			},
			"userdoc": {
				"kind": "user",
				"methods": {},
				"version": 1
			}
		}
	}
}