{
	"contracts/EmergencyFund.sol": {
		"EmergencyFund": {
			"abi": [
				{
					"inputs": [
						{
							"internalType": "uint256",
							"name": "_requiredApprovals",
							"type": "uint256"
						}
					],
					"stateMutability": "nonpayable",
					"type": "constructor"
				},
				{
					"inputs": [
						{
							"internalType": "address",
							"name": "participant",
							"type": "address"
						}
					],
					"name": "addParticipant",
					"outputs": [],
					"stateMutability": "nonpayable",
					"type": "function"
				},
				{
					"inputs": [],
					"name": "approvalCount",
					"outputs": [
						{
							"internalType": "uint256",
							"name": "",
							"type": "uint256"
						}
					],
					"stateMutability": "view",
					"type": "function"
				},
				{
					"inputs": [
						{
							"internalType": "address",
							"name": "claimant",
							"type": "address"
						}
					],
					"name": "approveClaim",
					"outputs": [],
					"stateMutability": "nonpayable",
					"type": "function"
				},
				{
					"inputs": [
						{
							"internalType": "address",
							"name": "",
							"type": "address"
						}
					],
					"name": "approvedClaims",
					"outputs": [
						{
							"internalType": "bool",
							"name": "",
							"type": "bool"
						}
					],
					"stateMutability": "view",
					"type": "function"
				},
				{
					"inputs": [],
					"name": "contribute",
					"outputs": [],
					"stateMutability": "payable",
					"type": "function"
				},
				{
					"inputs": [],
					"name": "getBalance",
					"outputs": [
						{
							"internalType": "uint256",
							"name": "",
							"type": "uint256"
						}
					],
					"stateMutability": "view",
					"type": "function"
				},
				{
					"inputs": [],
					"name": "owner",
					"outputs": [
						{
							"internalType": "address",
							"name": "",
							"type": "address"
						}
					],
					"stateMutability": "view",
					"type": "function"
				},
				{
					"inputs": [
						{
							"internalType": "address",
							"name": "",
							"type": "address"
						}
					],
					"name": "participants",
					"outputs": [
						{
							"internalType": "bool",
							"name": "",
							"type": "bool"
						}
					],
					"stateMutability": "view",
					"type": "function"
				},
				{
					"inputs": [],
					"name": "requiredApprovals",
					"outputs": [
						{
							"internalType": "uint256",
							"name": "",
							"type": "uint256"
						}
					],
					"stateMutability": "view",
					"type": "function"
				},
				{
					"inputs": [
						{
							"internalType": "address payable",
							"name": "recipient",
							"type": "address"
						},
						{
							"internalType": "uint256",
							"name": "amount",
							"type": "uint256"
						}
					],
					"name": "withdrawFunds",
					"outputs": [],
					"stateMutability": "nonpayable",
					"type": "function"
				}
			],
			"devdoc": {
				"kind": "dev",
				"methods": {},
				"version": 1
			},
			"evm": {
				"assembly": "    /* \"contracts/EmergencyFund.sol\":68:1518  contract EmergencyFund {... */\n  mstore(0x40, 0x80)\n    /* \"contracts/EmergencyFund.sol\":301:424  constructor(uint _requiredApprovals) {... */\n  callvalue\n  dup1\n  iszero\n  tag_1\n  jumpi\n  0x00\n  dup1\n  revert\ntag_1:\n  pop\n  mload(0x40)\n  sub(codesize, bytecodeSize)\n  dup1\n  bytecodeSize\n  dup4\n  codecopy\n  dup2\n  dup2\n  add\n  0x40\n  mstore\n  dup2\n  add\n  swap1\n  tag_2\n  swap2\n  swap1\n  tag_3\n  jump\t// in\ntag_2:\n    /* \"contracts/EmergencyFund.sol\":357:367  msg.sender */\n  caller\n    /* \"contracts/EmergencyFund.sol\":349:354  owner */\n  0x00\n  dup1\n    /* \"contracts/EmergencyFund.sol\":349:367  owner = msg.sender */\n  0x0100\n  exp\n  dup2\n  sload\n  dup2\n  0xffffffffffffffffffffffffffffffffffffffff\n  mul\n  not\n  and\n  swap1\n  dup4\n  0xffffffffffffffffffffffffffffffffffffffff\n  and\n  mul\n  or\n  swap1\n  sstore\n  pop\n    /* \"contracts/EmergencyFund.sol\":398:416  _requiredApprovals */\n  dup1\n    /* \"contracts/EmergencyFund.sol\":378:395  requiredApprovals */\n  0x01\n    /* \"contracts/EmergencyFund.sol\":378:416  requiredApprovals = _requiredApprovals */\n  dup2\n  swap1\n  sstore\n  pop\n    /* \"contracts/EmergencyFund.sol\":301:424  constructor(uint _requiredApprovals) {... */\n  pop\n    /* \"contracts/EmergencyFund.sol\":68:1518  contract EmergencyFund {... */\n  jump(tag_6)\n    /* \"#utility.yul\":88:205   */\ntag_8:\n    /* \"#utility.yul\":197:198   */\n  0x00\n    /* \"#utility.yul\":194:195   */\n  dup1\n    /* \"#utility.yul\":187:199   */\n  revert\n    /* \"#utility.yul\":334:411   */\ntag_10:\n    /* \"#utility.yul\":371:378   */\n  0x00\n    /* \"#utility.yul\":400:405   */\n  dup2\n    /* \"#utility.yul\":389:405   */\n  swap1\n  pop\n    /* \"#utility.yul\":334:411   */\n  swap2\n  swap1\n  pop\n  jump\t// out\n    /* \"#utility.yul\":417:539   */\ntag_11:\n    /* \"#utility.yul\":490:514   */\n  tag_19\n    /* \"#utility.yul\":508:513   */\n  dup2\n    /* \"#utility.yul\":490:514   */\n  tag_10\n  jump\t// in\ntag_19:\n    /* \"#utility.yul\":483:488   */\n  dup2\n    /* \"#utility.yul\":480:515   */\n  eq\n    /* \"#utility.yul\":470:533   */\n  tag_20\n  jumpi\n    /* \"#utility.yul\":529:530   */\n  0x00\n    /* \"#utility.yul\":526:527   */\n  dup1\n    /* \"#utility.yul\":519:531   */\n  revert\n    /* \"#utility.yul\":470:533   */\ntag_20:\n    /* \"#utility.yul\":417:539   */\n  pop\n  jump\t// out\n    /* \"#utility.yul\":545:688   */\ntag_12:\n    /* \"#utility.yul\":602:607   */\n  0x00\n    /* \"#utility.yul\":633:639   */\n  dup2\n    /* \"#utility.yul\":627:640   */\n  mload\n    /* \"#utility.yul\":618:640   */\n  swap1\n  pop\n    /* \"#utility.yul\":649:682   */\n  tag_22\n    /* \"#utility.yul\":676:681   */\n  dup2\n    /* \"#utility.yul\":649:682   */\n  tag_11\n  jump\t// in\ntag_22:\n    /* \"#utility.yul\":545:688   */\n  swap3\n  swap2\n  pop\n  pop\n  jump\t// out\n    /* \"#utility.yul\":694:1045   */\ntag_3:\n    /* \"#utility.yul\":764:770   */\n  0x00\n    /* \"#utility.yul\":813:815   */\n  0x20\n    /* \"#utility.yul\":801:810   */\n  dup3\n    /* \"#utility.yul\":792:799   */\n  dup5\n    /* \"#utility.yul\":788:811   */\n  sub\n    /* \"#utility.yul\":784:816   */\n  slt\n    /* \"#utility.yul\":781:900   */\n  iszero\n  tag_24\n  jumpi\n    /* \"#utility.yul\":819:898   */\n  tag_25\n  tag_8\n  jump\t// in\ntag_25:\n    /* \"#utility.yul\":781:900   */\ntag_24:\n    /* \"#utility.yul\":939:940   */\n  0x00\n    /* \"#utility.yul\":964:1028   */\n  tag_26\n    /* \"#utility.yul\":1020:1027   */\n  dup5\n    /* \"#utility.yul\":1011:1017   */\n  dup3\n    /* \"#utility.yul\":1000:1009   */\n  dup6\n    /* \"#utility.yul\":996:1018   */\n  add\n    /* \"#utility.yul\":964:1028   */\n  tag_12\n  jump\t// in\ntag_26:\n    /* \"#utility.yul\":954:1028   */\n  swap2\n  pop\n    /* \"#utility.yul\":910:1038   */\n  pop\n    /* \"#utility.yul\":694:1045   */\n  swap3\n  swap2\n  pop\n  pop\n  jump\t// out\n    /* \"contracts/EmergencyFund.sol\":68:1518  contract EmergencyFund {... */\ntag_6:\n  dataSize(sub_0)\n  dup1\n  dataOffset(sub_0)\n  0x00\n  codecopy\n  0x00\n  return\nstop\n\nsub_0: assembly {\n        /* \"contracts/EmergencyFund.sol\":68:1518  contract EmergencyFund {... */\n      mstore(0x40, 0x80)\n      jumpi(tag_1, lt(calldatasize, 0x04))\n      shr(0xe0, calldataload(0x00))\n      dup1\n      0xc1075329\n      gt\n      tag_12\n      jumpi\n      dup1\n      0xc1075329\n      eq\n      tag_7\n      jumpi\n      dup1\n      0xd09580ba\n      eq\n      tag_8\n      jumpi\n      dup1\n      0xd7bb99ba\n      eq\n      tag_9\n      jumpi\n      dup1\n      0xdbb773d9\n      eq\n      tag_10\n      jumpi\n      dup1\n      0xdfafe10f\n      eq\n      tag_11\n      jumpi\n      jump(tag_1)\n    tag_12:\n      dup1\n      0x09e69ede\n      eq\n      tag_2\n      jumpi\n      dup1\n      0x12065fe0\n      eq\n      tag_3\n      jumpi\n      dup1\n      0x6884d0a6\n      eq\n      tag_4\n      jumpi\n      dup1\n      0x8da5cb5b\n      eq\n      tag_5\n      jumpi\n      dup1\n      0x99c1aadc\n      eq\n      tag_6\n      jumpi\n    tag_1:\n      0x00\n      dup1\n      revert\n        /* \"contracts/EmergencyFund.sol\":195:239  mapping(address => bool) public participants */\n    tag_2:\n      callvalue\n      dup1\n      iszero\n      tag_13\n      jumpi\n      0x00\n      dup1\n      revert\n    tag_13:\n      pop\n      tag_14\n      0x04\n      dup1\n      calldatasize\n      sub\n      dup2\n      add\n      swap1\n      tag_15\n      swap2\n      swap1\n      tag_16\n      jump\t// in\n    tag_15:\n      tag_17\n      jump\t// in\n    tag_14:\n      mload(0x40)\n      tag_18\n      swap2\n      swap1\n      tag_19\n      jump\t// in\n    tag_18:\n      mload(0x40)\n      dup1\n      swap2\n      sub\n      swap1\n      return\n        /* \"contracts/EmergencyFund.sol\":1419:1515  function getBalance() public view returns (uint) {... */\n    tag_3:\n      callvalue\n      dup1\n      iszero\n      tag_20\n      jumpi\n      0x00\n      dup1\n      revert\n    tag_20:\n      pop\n      tag_21\n      tag_22\n      jump\t// in\n    tag_21:\n      mload(0x40)\n      tag_23\n      swap2\n      swap1\n      tag_24\n      jump\t// in\n    tag_23:\n      mload(0x40)\n      dup1\n      swap2\n      sub\n      swap1\n      return\n        /* \"contracts/EmergencyFund.sol\":163:188  uint public approvalCount */\n    tag_4:\n      callvalue\n      dup1\n      iszero\n      tag_25\n      jumpi\n      0x00\n      dup1\n      revert\n    tag_25:\n      pop\n      tag_26\n      tag_27\n      jump\t// in\n    tag_26:\n      mload(0x40)\n      tag_28\n      swap2\n      swap1\n      tag_24\n      jump\t// in\n    tag_28:\n      mload(0x40)\n      dup1\n      swap2\n      sub\n      swap1\n      return\n        /* \"contracts/EmergencyFund.sol\":100:120  address public owner */\n    tag_5:\n      callvalue\n      dup1\n      iszero\n      tag_29\n      jumpi\n      0x00\n      dup1\n      revert\n    tag_29:\n      pop\n      tag_30\n      tag_31\n      jump\t// in\n    tag_30:\n      mload(0x40)\n      tag_32\n      swap2\n      swap1\n      tag_33\n      jump\t// in\n    tag_32:\n      mload(0x40)\n      dup1\n      swap2\n      sub\n      swap1\n      return\n        /* \"contracts/EmergencyFund.sol\":127:156  uint public requiredApprovals */\n    tag_6:\n      callvalue\n      dup1\n      iszero\n      tag_34\n      jumpi\n      0x00\n      dup1\n      revert\n    tag_34:\n      pop\n      tag_35\n      tag_36\n      jump\t// in\n    tag_35:\n      mload(0x40)\n      tag_37\n      swap2\n      swap1\n      tag_24\n      jump\t// in\n    tag_37:\n      mload(0x40)\n      dup1\n      swap2\n      sub\n      swap1\n      return\n        /* \"contracts/EmergencyFund.sol\":1066:1411  function withdrawFunds(address payable recipient, uint amount) public onlyOwner {... */\n    tag_7:\n      callvalue\n      dup1\n      iszero\n      tag_38\n      jumpi\n      0x00\n      dup1\n      revert\n    tag_38:\n      pop\n      tag_39\n      0x04\n      dup1\n      calldatasize\n      sub\n      dup2\n      add\n      swap1\n      tag_40\n      swap2\n      swap1\n      tag_41\n      jump\t// in\n    tag_40:\n      tag_42\n      jump\t// in\n    tag_39:\n      stop\n        /* \"contracts/EmergencyFund.sol\":246:292  mapping(address => bool) public approvedClaims */\n    tag_8:\n      callvalue\n      dup1\n      iszero\n      tag_43\n      jumpi\n      0x00\n      dup1\n      revert\n    tag_43:\n      pop\n      tag_44\n      0x04\n      dup1\n      calldatasize\n      sub\n      dup2\n      add\n      swap1\n      tag_45\n      swap2\n      swap1\n      tag_16\n      jump\t// in\n    tag_45:\n      tag_46\n      jump\t// in\n    tag_44:\n      mload(0x40)\n      tag_47\n      swap2\n      swap1\n      tag_19\n      jump\t// in\n    tag_47:\n      mload(0x40)\n      dup1\n      swap2\n      sub\n      swap1\n      return\n        /* \"contracts/EmergencyFund.sol\":795:911  function contribute() public payable onlyParticipant {... */\n    tag_9:\n      tag_48\n      tag_49\n      jump\t// in\n    tag_48:\n      stop\n        /* \"contracts/EmergencyFund.sol\":919:1058  function approveClaim(address claimant) public onlyParticipant {... */\n    tag_10:\n      callvalue\n      dup1\n      iszero\n      tag_50\n      jumpi\n      0x00\n      dup1\n      revert\n    tag_50:\n      pop\n      tag_51\n      0x04\n      dup1\n      calldatasize\n      sub\n      dup2\n      add\n      swap1\n      tag_52\n      swap2\n      swap1\n      tag_16\n      jump\t// in\n    tag_52:\n      tag_53\n      jump\t// in\n    tag_51:\n      stop\n        /* \"contracts/EmergencyFund.sol\":674:787  function addParticipant(address participant) public onlyOwner {... */\n    tag_11:\n      callvalue\n      dup1\n      iszero\n      tag_54\n      jumpi\n      0x00\n      dup1\n      revert\n    tag_54:\n      pop\n      tag_55\n      0x04\n      dup1\n      calldatasize\n      sub\n      dup2\n      add\n      swap1\n      tag_56\n      swap2\n      swap1\n      tag_16\n      jump\t// in\n    tag_56:\n      tag_57\n      jump\t// in\n    tag_55:\n      stop\n        /* \"contracts/EmergencyFund.sol\":195:239  mapping(address => bool) public participants */\n    tag_17:\n      mstore(0x20, 0x03)\n      dup1\n      0x00\n      mstore\n      keccak256(0x00, 0x40)\n      0x00\n      swap2\n      pop\n      sload\n      swap1\n      0x0100\n      exp\n      swap1\n      div\n      0xff\n      and\n      dup2\n      jump\t// out\n        /* \"contracts/EmergencyFund.sol\":1419:1515  function getBalance() public view returns (uint) {... */\n    tag_22:\n        /* \"contracts/EmergencyFund.sol\":1462:1466  uint */\n      0x00\n        /* \"contracts/EmergencyFund.sol\":1486:1507  address(this).balance */\n      selfbalance\n        /* \"contracts/EmergencyFund.sol\":1479:1507  return address(this).balance */\n      swap1\n      pop\n        /* \"contracts/EmergencyFund.sol\":1419:1515  function getBalance() public view returns (uint) {... */\n      swap1\n      jump\t// out\n        /* \"contracts/EmergencyFund.sol\":163:188  uint public approvalCount */\n    tag_27:\n      sload(0x02)\n      dup2\n      jump\t// out\n        /* \"contracts/EmergencyFund.sol\":100:120  address public owner */\n    tag_31:\n      0x00\n      dup1\n      sload\n      swap1\n      0x0100\n      exp\n      swap1\n      div\n      0xffffffffffffffffffffffffffffffffffffffff\n      and\n      dup2\n      jump\t// out\n        /* \"contracts/EmergencyFund.sol\":127:156  uint public requiredApprovals */\n    tag_36:\n      sload(0x01)\n      dup2\n      jump\t// out\n        /* \"contracts/EmergencyFund.sol\":1066:1411  function withdrawFunds(address payable recipient, uint amount) public onlyOwner {... */\n    tag_42:\n        /* \"contracts/EmergencyFund.sol\":486:491  owner */\n      0x00\n      dup1\n      sload\n      swap1\n      0x0100\n      exp\n      swap1\n      div\n      0xffffffffffffffffffffffffffffffffffffffff\n      and\n        /* \"contracts/EmergencyFund.sol\":472:491  msg.sender == owner */\n      0xffffffffffffffffffffffffffffffffffffffff\n      and\n        /* \"contracts/EmergencyFund.sol\":472:482  msg.sender */\n      caller\n        /* \"contracts/EmergencyFund.sol\":472:491  msg.sender == owner */\n      0xffffffffffffffffffffffffffffffffffffffff\n      and\n      eq\n        /* \"contracts/EmergencyFund.sol\":464:518  require(msg.sender == owner, \"Only owner can do this\") */\n      tag_60\n      jumpi\n      mload(0x40)\n      0x08c379a000000000000000000000000000000000000000000000000000000000\n      dup2\n      mstore\n      0x04\n      add\n      tag_61\n      swap1\n      tag_62\n      jump\t// in\n    tag_61:\n      mload(0x40)\n      dup1\n      swap2\n      sub\n      swap1\n      revert\n    tag_60:\n        /* \"contracts/EmergencyFund.sol\":1165:1179  approvedClaims */\n      0x04\n        /* \"contracts/EmergencyFund.sol\":1165:1190  approvedClaims[recipient] */\n      0x00\n        /* \"contracts/EmergencyFund.sol\":1180:1189  recipient */\n      dup4\n        /* \"contracts/EmergencyFund.sol\":1165:1190  approvedClaims[recipient] */\n      0xffffffffffffffffffffffffffffffffffffffff\n      and\n      0xffffffffffffffffffffffffffffffffffffffff\n      and\n      dup2\n      mstore\n      0x20\n      add\n      swap1\n      dup2\n      mstore\n      0x20\n      add\n      0x00\n      keccak256\n      0x00\n      swap1\n      sload\n      swap1\n      0x0100\n      exp\n      swap1\n      div\n      0xff\n      and\n        /* \"contracts/EmergencyFund.sol\":1157:1213  require(approvedClaims[recipient], \"Claim not approved\") */\n      tag_64\n      jumpi\n      mload(0x40)\n      0x08c379a000000000000000000000000000000000000000000000000000000000\n      dup2\n      mstore\n      0x04\n      add\n      tag_65\n      swap1\n      tag_66\n      jump\t// in\n    tag_65:\n      mload(0x40)\n      dup1\n      swap2\n      sub\n      swap1\n      revert\n    tag_64:\n        /* \"contracts/EmergencyFund.sol\":1249:1266  requiredApprovals */\n      sload(0x01)\n        /* \"contracts/EmergencyFund.sol\":1232:1245  approvalCount */\n      sload(0x02)\n        /* \"contracts/EmergencyFund.sol\":1232:1266  approvalCount >= requiredApprovals */\n      lt\n      iszero\n        /* \"contracts/EmergencyFund.sol\":1224:1291  require(approvalCount >= requiredApprovals, \"Not enough approvals\") */\n      tag_67\n      jumpi\n      mload(0x40)\n      0x08c379a000000000000000000000000000000000000000000000000000000000\n      dup2\n      mstore\n      0x04\n      add\n      tag_68\n      swap1\n      tag_69\n      jump\t// in\n    tag_68:\n      mload(0x40)\n      dup1\n      swap2\n      sub\n      swap1\n      revert\n    tag_67:\n        /* \"contracts/EmergencyFund.sol\":1320:1341  address(this).balance */\n      selfbalance\n        /* \"contracts/EmergencyFund.sol\":1310:1316  amount */\n      dup2\n        /* \"contracts/EmergencyFund.sol\":1310:1341  amount <= address(this).balance */\n      gt\n      iszero\n        /* \"contracts/EmergencyFund.sol\":1302:1364  require(amount <= address(this).balance, \"Not enough balance\") */\n      tag_70\n      jumpi\n      mload(0x40)\n      0x08c379a000000000000000000000000000000000000000000000000000000000\n      dup2\n      mstore\n      0x04\n      add\n      tag_71\n      swap1\n      tag_72\n      jump\t// in\n    tag_71:\n      mload(0x40)\n      dup1\n      swap2\n      sub\n      swap1\n      revert\n    tag_70:\n        /* \"contracts/EmergencyFund.sol\":1377:1386  recipient */\n      dup2\n        /* \"contracts/EmergencyFund.sol\":1377:1395  recipient.transfer */\n      0xffffffffffffffffffffffffffffffffffffffff\n      and\n        /* \"contracts/EmergencyFund.sol\":1377:1403  recipient.transfer(amount) */\n      0x08fc\n        /* \"contracts/EmergencyFund.sol\":1396:1402  amount */\n      dup3\n        /* \"contracts/EmergencyFund.sol\":1377:1403  recipient.transfer(amount) */\n      swap1\n      dup2\n      iszero\n      mul\n      swap1\n      mload(0x40)\n      0x00\n      mload(0x40)\n      dup1\n      dup4\n      sub\n      dup2\n      dup6\n      dup9\n      dup9\n      call\n      swap4\n      pop\n      pop\n      pop\n      pop\n      iszero\n      dup1\n      iszero\n      tag_74\n      jumpi\n      returndatasize\n      0x00\n      dup1\n      returndatacopy\n      revert(0x00, returndatasize)\n    tag_74:\n      pop\n        /* \"contracts/EmergencyFund.sol\":1066:1411  function withdrawFunds(address payable recipient, uint amount) public onlyOwner {... */\n      pop\n      pop\n      jump\t// out\n        /* \"contracts/EmergencyFund.sol\":246:292  mapping(address => bool) public approvedClaims */\n    tag_46:\n      mstore(0x20, 0x04)\n      dup1\n      0x00\n      mstore\n      keccak256(0x00, 0x40)\n      0x00\n      swap2\n      pop\n      sload\n      swap1\n      0x0100\n      exp\n      swap1\n      div\n      0xff\n      and\n      dup2\n      jump\t// out\n        /* \"contracts/EmergencyFund.sol\":795:911  function contribute() public payable onlyParticipant {... */\n    tag_49:\n        /* \"contracts/EmergencyFund.sol\":592:604  participants */\n      0x03\n        /* \"contracts/EmergencyFund.sol\":592:616  participants[msg.sender] */\n      0x00\n        /* \"contracts/EmergencyFund.sol\":605:615  msg.sender */\n      caller\n        /* \"contracts/EmergencyFund.sol\":592:616  participants[msg.sender] */\n      0xffffffffffffffffffffffffffffffffffffffff\n      and\n      0xffffffffffffffffffffffffffffffffffffffff\n      and\n      dup2\n      mstore\n      0x20\n      add\n      swap1\n      dup2\n      mstore\n      0x20\n      add\n      0x00\n      keccak256\n      0x00\n      swap1\n      sload\n      swap1\n      0x0100\n      exp\n      swap1\n      div\n      0xff\n      and\n        /* \"contracts/EmergencyFund.sol\":584:646  require(participants[msg.sender], \"Only participants allowed\") */\n      tag_76\n      jumpi\n      mload(0x40)\n      0x08c379a000000000000000000000000000000000000000000000000000000000\n      dup2\n      mstore\n      0x04\n      add\n      tag_77\n      swap1\n      tag_78\n      jump\t// in\n    tag_77:\n      mload(0x40)\n      dup1\n      swap2\n      sub\n      swap1\n      revert\n    tag_76:\n        /* \"contracts/EmergencyFund.sol\":879:880  0 */\n      0x00\n        /* \"contracts/EmergencyFund.sol\":867:876  msg.value */\n      callvalue\n        /* \"contracts/EmergencyFund.sol\":867:880  msg.value > 0 */\n      gt\n        /* \"contracts/EmergencyFund.sol\":859:903  require(msg.value > 0, \"Must send some ETH\") */\n      tag_80\n      jumpi\n      mload(0x40)\n      0x08c379a000000000000000000000000000000000000000000000000000000000\n      dup2\n      mstore\n      0x04\n      add\n      tag_81\n      swap1\n      tag_82\n      jump\t// in\n    tag_81:\n      mload(0x40)\n      dup1\n      swap2\n      sub\n      swap1\n      revert\n    tag_80:\n        /* \"contracts/EmergencyFund.sol\":795:911  function contribute() public payable onlyParticipant {... */\n      jump\t// out\n        /* \"contracts/EmergencyFund.sol\":919:1058  function approveClaim(address claimant) public onlyParticipant {... */\n    tag_53:\n        /* \"contracts/EmergencyFund.sol\":592:604  participants */\n      0x03\n        /* \"contracts/EmergencyFund.sol\":592:616  participants[msg.sender] */\n      0x00\n        /* \"contracts/EmergencyFund.sol\":605:615  msg.sender */\n      caller\n        /* \"contracts/EmergencyFund.sol\":592:616  participants[msg.sender] */\n      0xffffffffffffffffffffffffffffffffffffffff\n      and\n      0xffffffffffffffffffffffffffffffffffffffff\n      and\n      dup2\n      mstore\n      0x20\n      add\n      swap1\n      dup2\n      mstore\n      0x20\n      add\n      0x00\n      keccak256\n      0x00\n      swap1\n      sload\n      swap1\n      0x0100\n      exp\n      swap1\n      div\n      0xff\n      and\n        /* \"contracts/EmergencyFund.sol\":584:646  require(participants[msg.sender], \"Only participants allowed\") */\n      tag_84\n      jumpi\n      mload(0x40)\n      0x08c379a000000000000000000000000000000000000000000000000000000000\n      dup2\n      mstore\n      0x04\n      add\n      tag_85\n      swap1\n      tag_78\n      jump\t// in\n    tag_85:\n      mload(0x40)\n      dup1\n      swap2\n      sub\n      swap1\n      revert\n    tag_84:\n        /* \"contracts/EmergencyFund.sol\":1020:1024  true */\n      0x01\n        /* \"contracts/EmergencyFund.sol\":993:1007  approvedClaims */\n      0x04\n        /* \"contracts/EmergencyFund.sol\":993:1017  approvedClaims[claimant] */\n      0x00\n        /* \"contracts/EmergencyFund.sol\":1008:1016  claimant */\n      dup4\n        /* \"contracts/EmergencyFund.sol\":993:1017  approvedClaims[claimant] */\n      0xffffffffffffffffffffffffffffffffffffffff\n      and\n      0xffffffffffffffffffffffffffffffffffffffff\n      and\n      dup2\n      mstore\n      0x20\n      add\n      swap1\n      dup2\n      mstore\n      0x20\n      add\n      0x00\n      keccak256\n      0x00\n        /* \"contracts/EmergencyFund.sol\":993:1024  approvedClaims[claimant] = true */\n      0x0100\n      exp\n      dup2\n      sload\n      dup2\n      0xff\n      mul\n      not\n      and\n      swap1\n      dup4\n      iszero\n      iszero\n      mul\n      or\n      swap1\n      sstore\n      pop\n        /* \"contracts/EmergencyFund.sol\":1035:1048  approvalCount */\n      0x02\n      0x00\n        /* \"contracts/EmergencyFund.sol\":1035:1050  approvalCount++ */\n      dup2\n      sload\n      dup1\n      swap3\n      swap2\n      swap1\n      tag_87\n      swap1\n      tag_88\n      jump\t// in\n    tag_87:\n      swap2\n      swap1\n      pop\n      sstore\n      pop\n        /* \"contracts/EmergencyFund.sol\":919:1058  function approveClaim(address claimant) public onlyParticipant {... */\n      pop\n      jump\t// out\n        /* \"contracts/EmergencyFund.sol\":674:787  function addParticipant(address participant) public onlyOwner {... */\n    tag_57:\n        /* \"contracts/EmergencyFund.sol\":486:491  owner */\n      0x00\n      dup1\n      sload\n      swap1\n      0x0100\n      exp\n      swap1\n      div\n      0xffffffffffffffffffffffffffffffffffffffff\n      and\n        /* \"contracts/EmergencyFund.sol\":472:491  msg.sender == owner */\n      0xffffffffffffffffffffffffffffffffffffffff\n      and\n        /* \"contracts/EmergencyFund.sol\":472:482  msg.sender */\n      caller\n        /* \"contracts/EmergencyFund.sol\":472:491  msg.sender == owner */\n      0xffffffffffffffffffffffffffffffffffffffff\n      and\n      eq\n        /* \"contracts/EmergencyFund.sol\":464:518  require(msg.sender == owner, \"Only owner can do this\") */\n      tag_90\n      jumpi\n      mload(0x40)\n      0x08c379a000000000000000000000000000000000000000000000000000000000\n      dup2\n      mstore\n      0x04\n      add\n      tag_91\n      swap1\n      tag_62\n      jump\t// in\n    tag_91:\n      mload(0x40)\n      dup1\n      swap2\n      sub\n      swap1\n      revert\n    tag_90:\n        /* \"contracts/EmergencyFund.sol\":775:779  true */\n      0x01\n        /* \"contracts/EmergencyFund.sol\":747:759  participants */\n      0x03\n        /* \"contracts/EmergencyFund.sol\":747:772  participants[participant] */\n      0x00\n        /* \"contracts/EmergencyFund.sol\":760:771  participant */\n      dup4\n        /* \"contracts/EmergencyFund.sol\":747:772  participants[participant] */\n      0xffffffffffffffffffffffffffffffffffffffff\n      and\n      0xffffffffffffffffffffffffffffffffffffffff\n      and\n      dup2\n      mstore\n      0x20\n      add\n      swap1\n      dup2\n      mstore\n      0x20\n      add\n      0x00\n      keccak256\n      0x00\n        /* \"contracts/EmergencyFund.sol\":747:779  participants[participant] = true */\n      0x0100\n      exp\n      dup2\n      sload\n      dup2\n      0xff\n      mul\n      not\n      and\n      swap1\n      dup4\n      iszero\n      iszero\n      mul\n      or\n      swap1\n      sstore\n      pop\n        /* \"contracts/EmergencyFund.sol\":674:787  function addParticipant(address participant) public onlyOwner {... */\n      pop\n      jump\t// out\n        /* \"#utility.yul\":88:205   */\n    tag_94:\n        /* \"#utility.yul\":197:198   */\n      0x00\n        /* \"#utility.yul\":194:195   */\n      dup1\n        /* \"#utility.yul\":187:199   */\n      revert\n        /* \"#utility.yul\":334:460   */\n    tag_96:\n        /* \"#utility.yul\":371:378   */\n      0x00\n        /* \"#utility.yul\":411:453   */\n      0xffffffffffffffffffffffffffffffffffffffff\n        /* \"#utility.yul\":404:409   */\n      dup3\n        /* \"#utility.yul\":400:454   */\n      and\n        /* \"#utility.yul\":389:454   */\n      swap1\n      pop\n        /* \"#utility.yul\":334:460   */\n      swap2\n      swap1\n      pop\n      jump\t// out\n        /* \"#utility.yul\":466:562   */\n    tag_97:\n        /* \"#utility.yul\":503:510   */\n      0x00\n        /* \"#utility.yul\":532:556   */\n      tag_130\n        /* \"#utility.yul\":550:555   */\n      dup3\n        /* \"#utility.yul\":532:556   */\n      tag_96\n      jump\t// in\n    tag_130:\n        /* \"#utility.yul\":521:556   */\n      swap1\n      pop\n        /* \"#utility.yul\":466:562   */\n      swap2\n      swap1\n      pop\n      jump\t// out\n        /* \"#utility.yul\":568:690   */\n    tag_98:\n        /* \"#utility.yul\":641:665   */\n      tag_132\n        /* \"#utility.yul\":659:664   */\n      dup2\n        /* \"#utility.yul\":641:665   */\n      tag_97\n      jump\t// in\n    tag_132:\n        /* \"#utility.yul\":634:639   */\n      dup2\n        /* \"#utility.yul\":631:666   */\n      eq\n        /* \"#utility.yul\":621:684   */\n      tag_133\n      jumpi\n        /* \"#utility.yul\":680:681   */\n      0x00\n        /* \"#utility.yul\":677:678   */\n      dup1\n        /* \"#utility.yul\":670:682   */\n      revert\n        /* \"#utility.yul\":621:684   */\n    tag_133:\n        /* \"#utility.yul\":568:690   */\n      pop\n      jump\t// out\n        /* \"#utility.yul\":696:835   */\n    tag_99:\n        /* \"#utility.yul\":742:747   */\n      0x00\n        /* \"#utility.yul\":780:786   */\n      dup2\n        /* \"#utility.yul\":767:787   */\n      calldataload\n        /* \"#utility.yul\":758:787   */\n      swap1\n      pop\n        /* \"#utility.yul\":796:829   */\n      tag_135\n        /* \"#utility.yul\":823:828   */\n      dup2\n        /* \"#utility.yul\":796:829   */\n      tag_98\n      jump\t// in\n    tag_135:\n        /* \"#utility.yul\":696:835   */\n      swap3\n      swap2\n      pop\n      pop\n      jump\t// out\n        /* \"#utility.yul\":841:1170   */\n    tag_16:\n        /* \"#utility.yul\":900:906   */\n      0x00\n        /* \"#utility.yul\":949:951   */\n      0x20\n        /* \"#utility.yul\":937:946   */\n      dup3\n        /* \"#utility.yul\":928:935   */\n      dup5\n        /* \"#utility.yul\":924:947   */\n      sub\n        /* \"#utility.yul\":920:952   */\n      slt\n        /* \"#utility.yul\":917:1036   */\n      iszero\n      tag_137\n      jumpi\n        /* \"#utility.yul\":955:1034   */\n      tag_138\n      tag_94\n      jump\t// in\n    tag_138:\n        /* \"#utility.yul\":917:1036   */\n    tag_137:\n        /* \"#utility.yul\":1075:1076   */\n      0x00\n        /* \"#utility.yul\":1100:1153   */\n      tag_139\n        /* \"#utility.yul\":1145:1152   */\n      dup5\n        /* \"#utility.yul\":1136:1142   */\n      dup3\n        /* \"#utility.yul\":1125:1134   */\n      dup6\n        /* \"#utility.yul\":1121:1143   */\n      add\n        /* \"#utility.yul\":1100:1153   */\n      tag_99\n      jump\t// in\n    tag_139:\n        /* \"#utility.yul\":1090:1153   */\n      swap2\n      pop\n        /* \"#utility.yul\":1046:1163   */\n      pop\n        /* \"#utility.yul\":841:1170   */\n      swap3\n      swap2\n      pop\n      pop\n      jump\t// out\n        /* \"#utility.yul\":1176:1266   */\n    tag_100:\n        /* \"#utility.yul\":1210:1217   */\n      0x00\n        /* \"#utility.yul\":1253:1258   */\n      dup2\n        /* \"#utility.yul\":1246:1259   */\n      iszero\n        /* \"#utility.yul\":1239:1260   */\n      iszero\n        /* \"#utility.yul\":1228:1260   */\n      swap1\n      pop\n        /* \"#utility.yul\":1176:1266   */\n      swap2\n      swap1\n      pop\n      jump\t// out\n        /* \"#utility.yul\":1272:1381   */\n    tag_101:\n        /* \"#utility.yul\":1353:1374   */\n      tag_142\n        /* \"#utility.yul\":1368:1373   */\n      dup2\n        /* \"#utility.yul\":1353:1374   */\n      tag_100\n      jump\t// in\n    tag_142:\n        /* \"#utility.yul\":1348:1351   */\n      dup3\n        /* \"#utility.yul\":1341:1375   */\n      mstore\n        /* \"#utility.yul\":1272:1381   */\n      pop\n      pop\n      jump\t// out\n        /* \"#utility.yul\":1387:1597   */\n    tag_19:\n        /* \"#utility.yul\":1474:1478   */\n      0x00\n        /* \"#utility.yul\":1512:1514   */\n      0x20\n        /* \"#utility.yul\":1501:1510   */\n      dup3\n        /* \"#utility.yul\":1497:1515   */\n      add\n        /* \"#utility.yul\":1489:1515   */\n      swap1\n      pop\n        /* \"#utility.yul\":1525:1590   */\n      tag_144\n        /* \"#utility.yul\":1587:1588   */\n      0x00\n        /* \"#utility.yul\":1576:1585   */\n      dup4\n        /* \"#utility.yul\":1572:1589   */\n      add\n        /* \"#utility.yul\":1563:1569   */\n      dup5\n        /* \"#utility.yul\":1525:1590   */\n      tag_101\n      jump\t// in\n    tag_144:\n        /* \"#utility.yul\":1387:1597   */\n      swap3\n      swap2\n      pop\n      pop\n      jump\t// out\n        /* \"#utility.yul\":1603:1680   */\n    tag_102:\n        /* \"#utility.yul\":1640:1647   */\n      0x00\n        /* \"#utility.yul\":1669:1674   */\n      dup2\n        /* \"#utility.yul\":1658:1674   */\n      swap1\n      pop\n        /* \"#utility.yul\":1603:1680   */\n      swap2\n      swap1\n      pop\n      jump\t// out\n        /* \"#utility.yul\":1686:1804   */\n    tag_103:\n        /* \"#utility.yul\":1773:1797   */\n      tag_147\n        /* \"#utility.yul\":1791:1796   */\n      dup2\n        /* \"#utility.yul\":1773:1797   */\n      tag_102\n      jump\t// in\n    tag_147:\n        /* \"#utility.yul\":1768:1771   */\n      dup3\n        /* \"#utility.yul\":1761:1798   */\n      mstore\n        /* \"#utility.yul\":1686:1804   */\n      pop\n      pop\n      jump\t// out\n        /* \"#utility.yul\":1810:2032   */\n    tag_24:\n        /* \"#utility.yul\":1903:1907   */\n      0x00\n        /* \"#utility.yul\":1941:1943   */\n      0x20\n        /* \"#utility.yul\":1930:1939   */\n      dup3\n        /* \"#utility.yul\":1926:1944   */\n      add\n        /* \"#utility.yul\":1918:1944   */\n      swap1\n      pop\n        /* \"#utility.yul\":1954:2025   */\n      tag_149\n        /* \"#utility.yul\":2022:2023   */\n      0x00\n        /* \"#utility.yul\":2011:2020   */\n      dup4\n        /* \"#utility.yul\":2007:2024   */\n      add\n        /* \"#utility.yul\":1998:2004   */\n      dup5\n        /* \"#utility.yul\":1954:2025   */\n      tag_103\n      jump\t// in\n    tag_149:\n        /* \"#utility.yul\":1810:2032   */\n      swap3\n      swap2\n      pop\n      pop\n      jump\t// out\n        /* \"#utility.yul\":2038:2156   */\n    tag_104:\n        /* \"#utility.yul\":2125:2149   */\n      tag_151\n        /* \"#utility.yul\":2143:2148   */\n      dup2\n        /* \"#utility.yul\":2125:2149   */\n      tag_97\n      jump\t// in\n    tag_151:\n        /* \"#utility.yul\":2120:2123   */\n      dup3\n        /* \"#utility.yul\":2113:2150   */\n      mstore\n        /* \"#utility.yul\":2038:2156   */\n      pop\n      pop\n      jump\t// out\n        /* \"#utility.yul\":2162:2384   */\n    tag_33:\n        /* \"#utility.yul\":2255:2259   */\n      0x00\n        /* \"#utility.yul\":2293:2295   */\n      0x20\n        /* \"#utility.yul\":2282:2291   */\n      dup3\n        /* \"#utility.yul\":2278:2296   */\n      add\n        /* \"#utility.yul\":2270:2296   */\n      swap1\n      pop\n        /* \"#utility.yul\":2306:2377   */\n      tag_153\n        /* \"#utility.yul\":2374:2375   */\n      0x00\n        /* \"#utility.yul\":2363:2372   */\n      dup4\n        /* \"#utility.yul\":2359:2376   */\n      add\n        /* \"#utility.yul\":2350:2356   */\n      dup5\n        /* \"#utility.yul\":2306:2377   */\n      tag_104\n      jump\t// in\n    tag_153:\n        /* \"#utility.yul\":2162:2384   */\n      swap3\n      swap2\n      pop\n      pop\n      jump\t// out\n        /* \"#utility.yul\":2390:2494   */\n    tag_105:\n        /* \"#utility.yul\":2435:2442   */\n      0x00\n        /* \"#utility.yul\":2464:2488   */\n      tag_155\n        /* \"#utility.yul\":2482:2487   */\n      dup3\n        /* \"#utility.yul\":2464:2488   */\n      tag_96\n      jump\t// in\n    tag_155:\n        /* \"#utility.yul\":2453:2488   */\n      swap1\n      pop\n        /* \"#utility.yul\":2390:2494   */\n      swap2\n      swap1\n      pop\n      jump\t// out\n        /* \"#utility.yul\":2500:2638   */\n    tag_106:\n        /* \"#utility.yul\":2581:2613   */\n      tag_157\n        /* \"#utility.yul\":2607:2612   */\n      dup2\n        /* \"#utility.yul\":2581:2613   */\n      tag_105\n      jump\t// in\n    tag_157:\n        /* \"#utility.yul\":2574:2579   */\n      dup2\n        /* \"#utility.yul\":2571:2614   */\n      eq\n        /* \"#utility.yul\":2561:2632   */\n      tag_158\n      jumpi\n        /* \"#utility.yul\":2628:2629   */\n      0x00\n        /* \"#utility.yul\":2625:2626   */\n      dup1\n        /* \"#utility.yul\":2618:2630   */\n      revert\n        /* \"#utility.yul\":2561:2632   */\n    tag_158:\n        /* \"#utility.yul\":2500:2638   */\n      pop\n      jump\t// out\n        /* \"#utility.yul\":2644:2799   */\n    tag_107:\n        /* \"#utility.yul\":2698:2703   */\n      0x00\n        /* \"#utility.yul\":2736:2742   */\n      dup2\n        /* \"#utility.yul\":2723:2743   */\n      calldataload\n        /* \"#utility.yul\":2714:2743   */\n      swap1\n      pop\n        /* \"#utility.yul\":2752:2793   */\n      tag_160\n        /* \"#utility.yul\":2787:2792   */\n      dup2\n        /* \"#utility.yul\":2752:2793   */\n      tag_106\n      jump\t// in\n    tag_160:\n        /* \"#utility.yul\":2644:2799   */\n      swap3\n      swap2\n      pop\n      pop\n      jump\t// out\n        /* \"#utility.yul\":2805:2927   */\n    tag_108:\n        /* \"#utility.yul\":2878:2902   */\n      tag_162\n        /* \"#utility.yul\":2896:2901   */\n      dup2\n        /* \"#utility.yul\":2878:2902   */\n      tag_102\n      jump\t// in\n    tag_162:\n        /* \"#utility.yul\":2871:2876   */\n      dup2\n        /* \"#utility.yul\":2868:2903   */\n      eq\n        /* \"#utility.yul\":2858:2921   */\n      tag_163\n      jumpi\n        /* \"#utility.yul\":2917:2918   */\n      0x00\n        /* \"#utility.yul\":2914:2915   */\n      dup1\n        /* \"#utility.yul\":2907:2919   */\n      revert\n        /* \"#utility.yul\":2858:2921   */\n    tag_163:\n        /* \"#utility.yul\":2805:2927   */\n      pop\n      jump\t// out\n        /* \"#utility.yul\":2933:3072   */\n    tag_109:\n        /* \"#utility.yul\":2979:2984   */\n      0x00\n        /* \"#utility.yul\":3017:3023   */\n      dup2\n        /* \"#utility.yul\":3004:3024   */\n      calldataload\n        /* \"#utility.yul\":2995:3024   */\n      swap1\n      pop\n        /* \"#utility.yul\":3033:3066   */\n      tag_165\n        /* \"#utility.yul\":3060:3065   */\n      dup2\n        /* \"#utility.yul\":3033:3066   */\n      tag_108\n      jump\t// in\n    tag_165:\n        /* \"#utility.yul\":2933:3072   */\n      swap3\n      swap2\n      pop\n      pop\n      jump\t// out\n        /* \"#utility.yul\":3078:3568   */\n    tag_41:\n        /* \"#utility.yul\":3154:3160   */\n      0x00\n        /* \"#utility.yul\":3162:3168   */\n      dup1\n        /* \"#utility.yul\":3211:3213   */\n      0x40\n        /* \"#utility.yul\":3199:3208   */\n      dup4\n        /* \"#utility.yul\":3190:3197   */\n      dup6\n        /* \"#utility.yul\":3186:3209   */\n      sub\n        /* \"#utility.yul\":3182:3214   */\n      slt\n        /* \"#utility.yul\":3179:3298   */\n      iszero\n      tag_167\n      jumpi\n        /* \"#utility.yul\":3217:3296   */\n      tag_168\n      tag_94\n      jump\t// in\n    tag_168:\n        /* \"#utility.yul\":3179:3298   */\n    tag_167:\n        /* \"#utility.yul\":3337:3338   */\n      0x00\n        /* \"#utility.yul\":3362:3423   */\n      tag_169\n        /* \"#utility.yul\":3415:3422   */\n      dup6\n        /* \"#utility.yul\":3406:3412   */\n      dup3\n        /* \"#utility.yul\":3395:3404   */\n      dup7\n        /* \"#utility.yul\":3391:3413   */\n      add\n        /* \"#utility.yul\":3362:3423   */\n      tag_107\n      jump\t// in\n    tag_169:\n        /* \"#utility.yul\":3352:3423   */\n      swap3\n      pop\n        /* \"#utility.yul\":3308:3433   */\n      pop\n        /* \"#utility.yul\":3472:3474   */\n      0x20\n        /* \"#utility.yul\":3498:3551   */\n      tag_170\n        /* \"#utility.yul\":3543:3550   */\n      dup6\n        /* \"#utility.yul\":3534:3540   */\n      dup3\n        /* \"#utility.yul\":3523:3532   */\n      dup7\n        /* \"#utility.yul\":3519:3541   */\n      add\n        /* \"#utility.yul\":3498:3551   */\n      tag_109\n      jump\t// in\n    tag_170:\n        /* \"#utility.yul\":3488:3551   */\n      swap2\n      pop\n        /* \"#utility.yul\":3443:3561   */\n      pop\n        /* \"#utility.yul\":3078:3568   */\n      swap3\n      pop\n      swap3\n      swap1\n      pop\n      jump\t// out\n        /* \"#utility.yul\":3574:3743   */\n    tag_110:\n        /* \"#utility.yul\":3658:3669   */\n      0x00\n        /* \"#utility.yul\":3692:3698   */\n      dup3\n        /* \"#utility.yul\":3687:3690   */\n      dup3\n        /* \"#utility.yul\":3680:3699   */\n      mstore\n        /* \"#utility.yul\":3732:3736   */\n      0x20\n        /* \"#utility.yul\":3727:3730   */\n      dup3\n        /* \"#utility.yul\":3723:3737   */\n      add\n        /* \"#utility.yul\":3708:3737   */\n      swap1\n      pop\n        /* \"#utility.yul\":3574:3743   */\n      swap3\n      swap2\n      pop\n      pop\n      jump\t// out\n        /* \"#utility.yul\":3749:3921   */\n    tag_111:\n        /* \"#utility.yul\":3889:3913   */\n      0x4f6e6c79206f776e65722063616e20646f207468697300000000000000000000\n        /* \"#utility.yul\":3885:3886   */\n      0x00\n        /* \"#utility.yul\":3877:3883   */\n      dup3\n        /* \"#utility.yul\":3873:3887   */\n      add\n        /* \"#utility.yul\":3866:3914   */\n      mstore\n        /* \"#utility.yul\":3749:3921   */\n      pop\n      jump\t// out\n        /* \"#utility.yul\":3927:4293   */\n    tag_112:\n        /* \"#utility.yul\":4069:4072   */\n      0x00\n        /* \"#utility.yul\":4090:4157   */\n      tag_174\n        /* \"#utility.yul\":4154:4156   */\n      0x16\n        /* \"#utility.yul\":4149:4152   */\n      dup4\n        /* \"#utility.yul\":4090:4157   */\n      tag_110\n      jump\t// in\n    tag_174:\n        /* \"#utility.yul\":4083:4157   */\n      swap2\n      pop\n        /* \"#utility.yul\":4166:4259   */\n      tag_175\n        /* \"#utility.yul\":4255:4258   */\n      dup3\n        /* \"#utility.yul\":4166:4259   */\n      tag_111\n      jump\t// in\n    tag_175:\n        /* \"#utility.yul\":4284:4286   */\n      0x20\n        /* \"#utility.yul\":4279:4282   */\n      dup3\n        /* \"#utility.yul\":4275:4287   */\n      add\n        /* \"#utility.yul\":4268:4287   */\n      swap1\n      pop\n        /* \"#utility.yul\":3927:4293   */\n      swap2\n      swap1\n      pop\n      jump\t// out\n        /* \"#utility.yul\":4299:4718   */\n    tag_62:\n        /* \"#utility.yul\":4465:4469   */\n      0x00\n        /* \"#utility.yul\":4503:4505   */\n      0x20\n        /* \"#utility.yul\":4492:4501   */\n      dup3\n        /* \"#utility.yul\":4488:4506   */\n      add\n        /* \"#utility.yul\":4480:4506   */\n      swap1\n      pop\n        /* \"#utility.yul\":4552:4561   */\n      dup2\n        /* \"#utility.yul\":4546:4550   */\n      dup2\n        /* \"#utility.yul\":4542:4562   */\n      sub\n        /* \"#utility.yul\":4538:4539   */\n      0x00\n        /* \"#utility.yul\":4527:4536   */\n      dup4\n        /* \"#utility.yul\":4523:4540   */\n      add\n        /* \"#utility.yul\":4516:4563   */\n      mstore\n        /* \"#utility.yul\":4580:4711   */\n      tag_177\n        /* \"#utility.yul\":4706:4710   */\n      dup2\n        /* \"#utility.yul\":4580:4711   */\n      tag_112\n      jump\t// in\n    tag_177:\n        /* \"#utility.yul\":4572:4711   */\n      swap1\n      pop\n        /* \"#utility.yul\":4299:4718   */\n      swap2\n      swap1\n      pop\n      jump\t// out\n        /* \"#utility.yul\":4724:4892   */\n    tag_113:\n        /* \"#utility.yul\":4864:4884   */\n      0x436c61696d206e6f7420617070726f7665640000000000000000000000000000\n        /* \"#utility.yul\":4860:4861   */\n      0x00\n        /* \"#utility.yul\":4852:4858   */\n      dup3\n        /* \"#utility.yul\":4848:4862   */\n      add\n        /* \"#utility.yul\":4841:4885   */\n      mstore\n        /* \"#utility.yul\":4724:4892   */\n      pop\n      jump\t// out\n        /* \"#utility.yul\":4898:5264   */\n    tag_114:\n        /* \"#utility.yul\":5040:5043   */\n      0x00\n        /* \"#utility.yul\":5061:5128   */\n      tag_180\n        /* \"#utility.yul\":5125:5127   */\n      0x12\n        /* \"#utility.yul\":5120:5123   */\n      dup4\n        /* \"#utility.yul\":5061:5128   */\n      tag_110\n      jump\t// in\n    tag_180:\n        /* \"#utility.yul\":5054:5128   */\n      swap2\n      pop\n        /* \"#utility.yul\":5137:5230   */\n      tag_181\n        /* \"#utility.yul\":5226:5229   */\n      dup3\n        /* \"#utility.yul\":5137:5230   */\n      tag_113\n      jump\t// in\n    tag_181:\n        /* \"#utility.yul\":5255:5257   */\n      0x20\n        /* \"#utility.yul\":5250:5253   */\n      dup3\n        /* \"#utility.yul\":5246:5258   */\n      add\n        /* \"#utility.yul\":5239:5258   */\n      swap1\n      pop\n        /* \"#utility.yul\":4898:5264   */\n      swap2\n      swap1\n      pop\n      jump\t// out\n        /* \"#utility.yul\":5270:5689   */\n    tag_66:\n        /* \"#utility.yul\":5436:5440   */\n      0x00\n        /* \"#utility.yul\":5474:5476   */\n      0x20\n        /* \"#utility.yul\":5463:5472   */\n      dup3\n        /* \"#utility.yul\":5459:5477   */\n      add\n        /* \"#utility.yul\":5451:5477   */\n      swap1\n      pop\n        /* \"#utility.yul\":5523:5532   */\n      dup2\n        /* \"#utility.yul\":5517:5521   */\n      dup2\n        /* \"#utility.yul\":5513:5533   */\n      sub\n        /* \"#utility.yul\":5509:5510   */\n      0x00\n        /* \"#utility.yul\":5498:5507   */\n      dup4\n        /* \"#utility.yul\":5494:5511   */\n      add\n        /* \"#utility.yul\":5487:5534   */\n      mstore\n        /* \"#utility.yul\":5551:5682   */\n      tag_183\n        /* \"#utility.yul\":5677:5681   */\n      dup2\n        /* \"#utility.yul\":5551:5682   */\n      tag_114\n      jump\t// in\n    tag_183:\n        /* \"#utility.yul\":5543:5682   */\n      swap1\n      pop\n        /* \"#utility.yul\":5270:5689   */\n      swap2\n      swap1\n      pop\n      jump\t// out\n        /* \"#utility.yul\":5695:5865   */\n    tag_115:\n        /* \"#utility.yul\":5835:5857   */\n      0x4e6f7420656e6f75676820617070726f76616c73000000000000000000000000\n        /* \"#utility.yul\":5831:5832   */\n      0x00\n        /* \"#utility.yul\":5823:5829   */\n      dup3\n        /* \"#utility.yul\":5819:5833   */\n      add\n        /* \"#utility.yul\":5812:5858   */\n      mstore\n        /* \"#utility.yul\":5695:5865   */\n      pop\n      jump\t// out\n        /* \"#utility.yul\":5871:6237   */\n    tag_116:\n        /* \"#utility.yul\":6013:6016   */\n      0x00\n        /* \"#utility.yul\":6034:6101   */\n      tag_186\n        /* \"#utility.yul\":6098:6100   */\n      0x14\n        /* \"#utility.yul\":6093:6096   */\n      dup4\n        /* \"#utility.yul\":6034:6101   */\n      tag_110\n      jump\t// in\n    tag_186:\n        /* \"#utility.yul\":6027:6101   */\n      swap2\n      pop\n        /* \"#utility.yul\":6110:6203   */\n      tag_187\n        /* \"#utility.yul\":6199:6202   */\n      dup3\n        /* \"#utility.yul\":6110:6203   */\n      tag_115\n      jump\t// in\n    tag_187:\n        /* \"#utility.yul\":6228:6230   */\n      0x20\n        /* \"#utility.yul\":6223:6226   */\n      dup3\n        /* \"#utility.yul\":6219:6231   */\n      add\n        /* \"#utility.yul\":6212:6231   */\n      swap1\n      pop\n        /* \"#utility.yul\":5871:6237   */\n      swap2\n      swap1\n      pop\n      jump\t// out\n        /* \"#utility.yul\":6243:6662   */\n    tag_69:\n        /* \"#utility.yul\":6409:6413   */\n      0x00\n        /* \"#utility.yul\":6447:6449   */\n      0x20\n        /* \"#utility.yul\":6436:6445   */\n      dup3\n        /* \"#utility.yul\":6432:6450   */\n      add\n        /* \"#utility.yul\":6424:6450   */\n      swap1\n      pop\n        /* \"#utility.yul\":6496:6505   */\n      dup2\n        /* \"#utility.yul\":6490:6494   */\n      dup2\n        /* \"#utility.yul\":6486:6506   */\n      sub\n        /* \"#utility.yul\":6482:6483   */\n      0x00\n        /* \"#utility.yul\":6471:6480   */\n      dup4\n        /* \"#utility.yul\":6467:6484   */\n      add\n        /* \"#utility.yul\":6460:6507   */\n      mstore\n        /* \"#utility.yul\":6524:6655   */\n      tag_189\n        /* \"#utility.yul\":6650:6654   */\n      dup2\n        /* \"#utility.yul\":6524:6655   */\n      tag_116\n      jump\t// in\n    tag_189:\n        /* \"#utility.yul\":6516:6655   */\n      swap1\n      pop\n        /* \"#utility.yul\":6243:6662   */\n      swap2\n      swap1\n      pop\n      jump\t// out\n        /* \"#utility.yul\":6668:6836   */\n    tag_117:\n        /* \"#utility.yul\":6808:6828   */\n      0x4e6f7420656e6f7567682062616c616e63650000000000000000000000000000\n        /* \"#utility.yul\":6804:6805   */\n      0x00\n        /* \"#utility.yul\":6796:6802   */\n      dup3\n        /* \"#utility.yul\":6792:6806   */\n      add\n        /* \"#utility.yul\":6785:6829   */\n      mstore\n        /* \"#utility.yul\":6668:6836   */\n      pop\n      jump\t// out\n        /* \"#utility.yul\":6842:7208   */\n    tag_118:\n        /* \"#utility.yul\":6984:6987   */\n      0x00\n        /* \"#utility.yul\":7005:7072   */\n      tag_192\n        /* \"#utility.yul\":7069:7071   */\n      0x12\n        /* \"#utility.yul\":7064:7067   */\n      dup4\n        /* \"#utility.yul\":7005:7072   */\n      tag_110\n      jump\t// in\n    tag_192:\n        /* \"#utility.yul\":6998:7072   */\n      swap2\n      pop\n        /* \"#utility.yul\":7081:7174   */\n      tag_193\n        /* \"#utility.yul\":7170:7173   */\n      dup3\n        /* \"#utility.yul\":7081:7174   */\n      tag_117\n      jump\t// in\n    tag_193:\n        /* \"#utility.yul\":7199:7201   */\n      0x20\n        /* \"#utility.yul\":7194:7197   */\n      dup3\n        /* \"#utility.yul\":7190:7202   */\n      add\n        /* \"#utility.yul\":7183:7202   */\n      swap1\n      pop\n        /* \"#utility.yul\":6842:7208   */\n      swap2\n      swap1\n      pop\n      jump\t// out\n        /* \"#utility.yul\":7214:7633   */\n    tag_72:\n        /* \"#utility.yul\":7380:7384   */\n      0x00\n        /* \"#utility.yul\":7418:7420   */\n      0x20\n        /* \"#utility.yul\":7407:7416   */\n      dup3\n        /* \"#utility.yul\":7403:7421   */\n      add\n        /* \"#utility.yul\":7395:7421   */\n      swap1\n      pop\n        /* \"#utility.yul\":7467:7476   */\n      dup2\n        /* \"#utility.yul\":7461:7465   */\n      dup2\n        /* \"#utility.yul\":7457:7477   */\n      sub\n        /* \"#utility.yul\":7453:7454   */\n      0x00\n        /* \"#utility.yul\":7442:7451   */\n      dup4\n        /* \"#utility.yul\":7438:7455   */\n      add\n        /* \"#utility.yul\":7431:7478   */\n      mstore\n        /* \"#utility.yul\":7495:7626   */\n      tag_195\n        /* \"#utility.yul\":7621:7625   */\n      dup2\n        /* \"#utility.yul\":7495:7626   */\n      tag_118\n      jump\t// in\n    tag_195:\n        /* \"#utility.yul\":7487:7626   */\n      swap1\n      pop\n        /* \"#utility.yul\":7214:7633   */\n      swap2\n      swap1\n      pop\n      jump\t// out\n        /* \"#utility.yul\":7639:7814   */\n    tag_119:\n        /* \"#utility.yul\":7779:7806   */\n      0x4f6e6c79207061727469636970616e747320616c6c6f77656400000000000000\n        /* \"#utility.yul\":7775:7776   */\n      0x00\n        /* \"#utility.yul\":7767:7773   */\n      dup3\n        /* \"#utility.yul\":7763:7777   */\n      add\n        /* \"#utility.yul\":7756:7807   */\n      mstore\n        /* \"#utility.yul\":7639:7814   */\n      pop\n      jump\t// out\n        /* \"#utility.yul\":7820:8186   */\n    tag_120:\n        /* \"#utility.yul\":7962:7965   */\n      0x00\n        /* \"#utility.yul\":7983:8050   */\n      tag_198\n        /* \"#utility.yul\":8047:8049   */\n      0x19\n        /* \"#utility.yul\":8042:8045   */\n      dup4\n        /* \"#utility.yul\":7983:8050   */\n      tag_110\n      jump\t// in\n    tag_198:\n        /* \"#utility.yul\":7976:8050   */\n      swap2\n      pop\n        /* \"#utility.yul\":8059:8152   */\n      tag_199\n        /* \"#utility.yul\":8148:8151   */\n      dup3\n        /* \"#utility.yul\":8059:8152   */\n      tag_119\n      jump\t// in\n    tag_199:\n        /* \"#utility.yul\":8177:8179   */\n      0x20\n        /* \"#utility.yul\":8172:8175   */\n      dup3\n        /* \"#utility.yul\":8168:8180   */\n      add\n        /* \"#utility.yul\":8161:8180   */\n      swap1\n      pop\n        /* \"#utility.yul\":7820:8186   */\n      swap2\n      swap1\n      pop\n      jump\t// out\n        /* \"#utility.yul\":8192:8611   */\n    tag_78:\n        /* \"#utility.yul\":8358:8362   */\n      0x00\n        /* \"#utility.yul\":8396:8398   */\n      0x20\n        /* \"#utility.yul\":8385:8394   */\n      dup3\n        /* \"#utility.yul\":8381:8399   */\n      add\n        /* \"#utility.yul\":8373:8399   */\n      swap1\n      pop\n        /* \"#utility.yul\":8445:8454   */\n      dup2\n        /* \"#utility.yul\":8439:8443   */\n      dup2\n        /* \"#utility.yul\":8435:8455   */\n      sub\n        /* \"#utility.yul\":8431:8432   */\n      0x00\n        /* \"#utility.yul\":8420:8429   */\n      dup4\n        /* \"#utility.yul\":8416:8433   */\n      add\n        /* \"#utility.yul\":8409:8456   */\n      mstore\n        /* \"#utility.yul\":8473:8604   */\n      tag_201\n        /* \"#utility.yul\":8599:8603   */\n      dup2\n        /* \"#utility.yul\":8473:8604   */\n      tag_120\n      jump\t// in\n    tag_201:\n        /* \"#utility.yul\":8465:8604   */\n      swap1\n      pop\n        /* \"#utility.yul\":8192:8611   */\n      swap2\n      swap1\n      pop\n      jump\t// out\n        /* \"#utility.yul\":8617:8785   */\n    tag_121:\n        /* \"#utility.yul\":8757:8777   */\n      0x4d7573742073656e6420736f6d65204554480000000000000000000000000000\n        /* \"#utility.yul\":8753:8754   */\n      0x00\n        /* \"#utility.yul\":8745:8751   */\n      dup3\n        /* \"#utility.yul\":8741:8755   */\n      add\n        /* \"#utility.yul\":8734:8778   */\n      mstore\n        /* \"#utility.yul\":8617:8785   */\n      pop\n      jump\t// out\n        /* \"#utility.yul\":8791:9157   */\n    tag_122:\n        /* \"#utility.yul\":8933:8936   */\n      0x00\n        /* \"#utility.yul\":8954:9021   */\n      tag_204\n        /* \"#utility.yul\":9018:9020   */\n      0x12\n        /* \"#utility.yul\":9013:9016   */\n      dup4\n        /* \"#utility.yul\":8954:9021   */\n      tag_110\n      jump\t// in\n    tag_204:\n        /* \"#utility.yul\":8947:9021   */\n      swap2\n      pop\n        /* \"#utility.yul\":9030:9123   */\n      tag_205\n        /* \"#utility.yul\":9119:9122   */\n      dup3\n        /* \"#utility.yul\":9030:9123   */\n      tag_121\n      jump\t// in\n    tag_205:\n        /* \"#utility.yul\":9148:9150   */\n      0x20\n        /* \"#utility.yul\":9143:9146   */\n      dup3\n        /* \"#utility.yul\":9139:9151   */\n      add\n        /* \"#utility.yul\":9132:9151   */\n      swap1\n      pop\n        /* \"#utility.yul\":8791:9157   */\n      swap2\n      swap1\n      pop\n      jump\t// out\n        /* \"#utility.yul\":9163:9582   */\n    tag_82:\n        /* \"#utility.yul\":9329:9333   */\n      0x00\n        /* \"#utility.yul\":9367:9369   */\n      0x20\n        /* \"#utility.yul\":9356:9365   */\n      dup3\n        /* \"#utility.yul\":9352:9370   */\n      add\n        /* \"#utility.yul\":9344:9370   */\n      swap1\n      pop\n        /* \"#utility.yul\":9416:9425   */\n      dup2\n        /* \"#utility.yul\":9410:9414   */\n      dup2\n        /* \"#utility.yul\":9406:9426   */\n      sub\n        /* \"#utility.yul\":9402:9403   */\n      0x00\n        /* \"#utility.yul\":9391:9400   */\n      dup4\n        /* \"#utility.yul\":9387:9404   */\n      add\n        /* \"#utility.yul\":9380:9427   */\n      mstore\n        /* \"#utility.yul\":9444:9575   */\n      tag_207\n        /* \"#utility.yul\":9570:9574   */\n      dup2\n        /* \"#utility.yul\":9444:9575   */\n      tag_122\n      jump\t// in\n    tag_207:\n        /* \"#utility.yul\":9436:9575   */\n      swap1\n      pop\n        /* \"#utility.yul\":9163:9582   */\n      swap2\n      swap1\n      pop\n      jump\t// out\n        /* \"#utility.yul\":9588:9768   */\n    tag_123:\n        /* \"#utility.yul\":9636:9713   */\n      0x4e487b7100000000000000000000000000000000000000000000000000000000\n        /* \"#utility.yul\":9633:9634   */\n      0x00\n        /* \"#utility.yul\":9626:9714   */\n      mstore\n        /* \"#utility.yul\":9733:9737   */\n      0x11\n        /* \"#utility.yul\":9730:9731   */\n      0x04\n        /* \"#utility.yul\":9723:9738   */\n      mstore\n        /* \"#utility.yul\":9757:9761   */\n      0x24\n        /* \"#utility.yul\":9754:9755   */\n      0x00\n        /* \"#utility.yul\":9747:9762   */\n      revert\n        /* \"#utility.yul\":9774:10007   */\n    tag_88:\n        /* \"#utility.yul\":9813:9816   */\n      0x00\n        /* \"#utility.yul\":9836:9860   */\n      tag_210\n        /* \"#utility.yul\":9854:9859   */\n      dup3\n        /* \"#utility.yul\":9836:9860   */\n      tag_102\n      jump\t// in\n    tag_210:\n        /* \"#utility.yul\":9827:9860   */\n      swap2\n      pop\n        /* \"#utility.yul\":9882:9948   */\n      0xffffffffffffffffffffffffffffffffffffffffffffffffffffffffffffffff\n        /* \"#utility.yul\":9875:9880   */\n      dup3\n        /* \"#utility.yul\":9872:9949   */\n      sub\n        /* \"#utility.yul\":9869:9972   */\n      tag_211\n      jumpi\n        /* \"#utility.yul\":9952:9970   */\n      tag_212\n      tag_123\n      jump\t// in\n    tag_212:\n        /* \"#utility.yul\":9869:9972   */\n    tag_211:\n        /* \"#utility.yul\":9999:10000   */\n      0x01\n        /* \"#utility.yul\":9992:9997   */\n      dup3\n        /* \"#utility.yul\":9988:10001   */\n      add\n        /* \"#utility.yul\":9981:10001   */\n      swap1\n      pop\n        /* \"#utility.yul\":9774:10007   */\n      swap2\n      swap1\n      pop\n      jump\t// out\n\n    auxdata: 0xa26469706673582212209c8f413440a16bbe8eaa18367ba8352f3df11db5671c8b3a46cf99dc701a324464736f6c634300081a0033\n}\n",
				"bytecode": {
					"linkReferences": {},
					"object": "6080604052348015600e575f80fd5b50604051610cf8380380610cf88339818101604052810190602e919060ab565b335f806101000a81548173ffffffffffffffffffffffffffffffffffffffff021916908373ffffffffffffffffffffffffffffffffffffffff160217905550806001819055505060d1565b5f80fd5b5f819050919050565b608d81607d565b81146096575f80fd5b50565b5f8151905060a5816086565b92915050565b5f6020828403121560bd5760bc6079565b5b5f60c8848285016099565b91505092915050565b610c1a806100de5f395ff3fe608060405260043610610090575f3560e01c8063c107532911610058578063c107532914610178578063d09580ba146101a0578063d7bb99ba146101dc578063dbb773d9146101e6578063dfafe10f1461020e57610090565b806309e69ede1461009457806312065fe0146100d05780636884d0a6146100fa5780638da5cb5b1461012457806399c1aadc1461014e575b5f80fd5b34801561009f575f80fd5b506100ba60048036038101906100b59190610796565b610236565b6040516100c791906107db565b60405180910390f35b3480156100db575f80fd5b506100e4610253565b6040516100f1919061080c565b60405180910390f35b348015610105575f80fd5b5061010e61025a565b60405161011b919061080c565b60405180910390f35b34801561012f575f80fd5b50610138610260565b6040516101459190610834565b60405180910390f35b348015610159575f80fd5b50610162610283565b60405161016f919061080c565b60405180910390f35b348015610183575f80fd5b5061019e600480360381019061019991906108b2565b610289565b005b3480156101ab575f80fd5b506101c660048036038101906101c19190610796565b610471565b6040516101d391906107db565b60405180910390f35b6101e461048e565b005b3480156101f1575f80fd5b5061020c60048036038101906102079190610796565b61055b565b005b348015610219575f80fd5b50610234600480360381019061022f9190610796565b610653565b005b6003602052805f5260405f205f915054906101000a900460ff1681565b5f47905090565b60025481565b5f8054906101000a900473ffffffffffffffffffffffffffffffffffffffff1681565b60015481565b5f8054906101000a900473ffffffffffffffffffffffffffffffffffffffff1673ffffffffffffffffffffffffffffffffffffffff163373ffffffffffffffffffffffffffffffffffffffff1614610316576040517f08c379a000000000000000000000000000000000000000000000000000000000815260040161030d9061094a565b60405180910390fd5b60045f8373ffffffffffffffffffffffffffffffffffffffff1673ffffffffffffffffffffffffffffffffffffffff1681526020019081526020015f205f9054906101000a900460ff1661039f576040517f08c379a0000000000000000000000000000000000000000000000000000000008152600401610396906109b2565b60405180910390fd5b60015460025410156103e6576040517f08c379a00000000000000000000000000000000000000000000000000000000081526004016103dd90610a1a565b60405180910390fd5b47811115610429576040517f08c379a000000000000000000000000000000000000000000000000000000000815260040161042090610a82565b60405180910390fd5b8173ffffffffffffffffffffffffffffffffffffffff166108fc8290811502906040515f60405180830381858888f1935050505015801561046c573d5f803e3d5ffd5b505050565b6004602052805f5260405f205f915054906101000a900460ff1681565b60035f3373ffffffffffffffffffffffffffffffffffffffff1673ffffffffffffffffffffffffffffffffffffffff1681526020019081526020015f205f9054906101000a900460ff16610517576040517f08c379a000000000000000000000000000000000000000000000000000000000815260040161050e90610aea565b60405180910390fd5b5f3411610559576040517f08c379a000000000000000000000000000000000000000000000000000000000815260040161055090610b52565b60405180910390fd5b565b60035f3373ffffffffffffffffffffffffffffffffffffffff1673ffffffffffffffffffffffffffffffffffffffff1681526020019081526020015f205f9054906101000a900460ff166105e4576040517f08c379a00000000000000000000000000000000000000000000000000000000081526004016105db90610aea565b60405180910390fd5b600160045f8373ffffffffffffffffffffffffffffffffffffffff1673ffffffffffffffffffffffffffffffffffffffff1681526020019081526020015f205f6101000a81548160ff02191690831515021790555060025f81548092919061064b90610b9d565b919050555050565b5f8054906101000a900473ffffffffffffffffffffffffffffffffffffffff1673ffffffffffffffffffffffffffffffffffffffff163373ffffffffffffffffffffffffffffffffffffffff16146106e0576040517f08c379a00000000000000000000000000000000000000000000000000000000081526004016106d79061094a565b60405180910390fd5b600160035f8373ffffffffffffffffffffffffffffffffffffffff1673ffffffffffffffffffffffffffffffffffffffff1681526020019081526020015f205f6101000a81548160ff02191690831515021790555050565b5f80fd5b5f73ffffffffffffffffffffffffffffffffffffffff82169050919050565b5f6107658261073c565b9050919050565b6107758161075b565b811461077f575f80fd5b50565b5f813590506107908161076c565b92915050565b5f602082840312156107ab576107aa610738565b5b5f6107b884828501610782565b91505092915050565b5f8115159050919050565b6107d5816107c1565b82525050565b5f6020820190506107ee5f8301846107cc565b92915050565b5f819050919050565b610806816107f4565b82525050565b5f60208201905061081f5f8301846107fd565b92915050565b61082e8161075b565b82525050565b5f6020820190506108475f830184610825565b92915050565b5f6108578261073c565b9050919050565b6108678161084d565b8114610871575f80fd5b50565b5f813590506108828161085e565b92915050565b610891816107f4565b811461089b575f80fd5b50565b5f813590506108ac81610888565b92915050565b5f80604083850312156108c8576108c7610738565b5b5f6108d585828601610874565b92505060206108e68582860161089e565b9150509250929050565b5f82825260208201905092915050565b7f4f6e6c79206f776e65722063616e20646f2074686973000000000000000000005f82015250565b5f6109346016836108f0565b915061093f82610900565b602082019050919050565b5f6020820190508181035f83015261096181610928565b9050919050565b7f436c61696d206e6f7420617070726f76656400000000000000000000000000005f82015250565b5f61099c6012836108f0565b91506109a782610968565b602082019050919050565b5f6020820190508181035f8301526109c981610990565b9050919050565b7f4e6f7420656e6f75676820617070726f76616c730000000000000000000000005f82015250565b5f610a046014836108f0565b9150610a0f826109d0565b602082019050919050565b5f6020820190508181035f830152610a31816109f8565b9050919050565b7f4e6f7420656e6f7567682062616c616e636500000000000000000000000000005f82015250565b5f610a6c6012836108f0565b9150610a7782610a38565b602082019050919050565b5f6020820190508181035f830152610a9981610a60565b9050919050565b7f4f6e6c79207061727469636970616e747320616c6c6f776564000000000000005f82015250565b5f610ad46019836108f0565b9150610adf82610aa0565b602082019050919050565b5f6020820190508181035f830152610b0181610ac8565b9050919050565b7f4d7573742073656e6420736f6d652045544800000000000000000000000000005f82015250565b5f610b3c6012836108f0565b9150610b4782610b08565b602082019050919050565b5f6020820190508181035f830152610b6981610b30565b9050919050565b7f4e487b71000000000000000000000000000000000000000000000000000000005f52601160045260245ffd5b5f610ba7826107f4565b91507fffffffffffffffffffffffffffffffffffffffffffffffffffffffffffffffff8203610bd957610bd8610b70565b5b60018201905091905056fea26469706673582212209c8f413440a16bbe8eaa18367ba8352f3df11db5671c8b3a46cf99dc701a324464736f6c634300081a0033",
					"opcodes": "PUSH1 0x80 PUSH1 0x40 MSTORE CALLVALUE DUP1 ISZERO PUSH1 0xE JUMPI PUSH0 DUP1 REVERT JUMPDEST POP PUSH1 0x40 MLOAD PUSH2 0xCF8 CODESIZE SUB DUP1 PUSH2 0xCF8 DUP4 CODECOPY DUP2 DUP2 ADD PUSH1 0x40 MSTORE DUP2 ADD SWAP1 PUSH1 0x2E SWAP2 SWAP1 PUSH1 0xAB JUMP JUMPDEST CALLER PUSH0 DUP1 PUSH2 0x100 EXP DUP2 SLOAD DUP2 PUSH20 0xFFFFFFFFFFFFFFFFFFFFFFFFFFFFFFFFFFFFFFFF MUL NOT AND SWAP1 DUP4 PUSH20 0xFFFFFFFFFFFFFFFFFFFFFFFFFFFFFFFFFFFFFFFF AND MUL OR SWAP1 SSTORE POP DUP1 PUSH1 0x1 DUP2 SWAP1 SSTORE POP POP PUSH1 0xD1 JUMP JUMPDEST PUSH0 DUP1 REVERT JUMPDEST PUSH0 DUP2 SWAP1 POP SWAP2 SWAP1 POP JUMP JUMPDEST PUSH1 0x8D DUP2 PUSH1 0x7D JUMP JUMPDEST DUP2 EQ PUSH1 0x96 JUMPI PUSH0 DUP1 REVERT JUMPDEST POP JUMP JUMPDEST PUSH0 DUP2 MLOAD SWAP1 POP PUSH1 0xA5 DUP2 PUSH1 0x86 JUMP JUMPDEST SWAP3 SWAP2 POP POP JUMP JUMPDEST PUSH0 PUSH1 0x20 DUP3 DUP5 SUB SLT ISZERO PUSH1 0xBD JUMPI PUSH1 0xBC PUSH1 0x79 JUMP JUMPDEST JUMPDEST PUSH0 PUSH1 0xC8 DUP5 DUP3 DUP6 ADD PUSH1 0x99 JUMP JUMPDEST SWAP2 POP POP SWAP3 SWAP2 POP POP JUMP JUMPDEST PUSH2 0xC1A DUP1 PUSH2 0xDE PUSH0 CODECOPY PUSH0 RETURN INVALID PUSH1 0x80 PUSH1 0x40 MSTORE PUSH1 0x4 CALLDATASIZE LT PUSH2 0x90 JUMPI PUSH0 CALLDATALOAD PUSH1 0xE0 SHR DUP1 PUSH4 0xC1075329 GT PUSH2 0x58 JUMPI DUP1 PUSH4 0xC1075329 EQ PUSH2 0x178 JUMPI DUP1 PUSH4 0xD09580BA EQ PUSH2 0x1A0 JUMPI DUP1 PUSH4 0xD7BB99BA EQ PUSH2 0x1DC JUMPI DUP1 PUSH4 0xDBB773D9 EQ PUSH2 0x1E6 JUMPI DUP1 PUSH4 0xDFAFE10F EQ PUSH2 0x20E JUMPI PUSH2 0x90 JUMP JUMPDEST DUP1 PUSH4 0x9E69EDE EQ PUSH2 0x94 JUMPI DUP1 PUSH4 0x12065FE0 EQ PUSH2 0xD0 JUMPI DUP1 PUSH4 0x6884D0A6 EQ PUSH2 0xFA JUMPI DUP1 PUSH4 0x8DA5CB5B EQ PUSH2 0x124 JUMPI DUP1 PUSH4 0x99C1AADC EQ PUSH2 0x14E JUMPI JUMPDEST PUSH0 DUP1 REVERT JUMPDEST CALLVALUE DUP1 ISZERO PUSH2 0x9F JUMPI PUSH0 DUP1 REVERT JUMPDEST POP PUSH2 0xBA PUSH1 0x4 DUP1 CALLDATASIZE SUB DUP2 ADD SWAP1 PUSH2 0xB5 SWAP2 SWAP1 PUSH2 0x796 JUMP JUMPDEST PUSH2 0x236 JUMP JUMPDEST PUSH1 0x40 MLOAD PUSH2 0xC7 SWAP2 SWAP1 PUSH2 0x7DB JUMP JUMPDEST PUSH1 0x40 MLOAD DUP1 SWAP2 SUB SWAP1 RETURN JUMPDEST CALLVALUE DUP1 ISZERO PUSH2 0xDB JUMPI PUSH0 DUP1 REVERT JUMPDEST POP PUSH2 0xE4 PUSH2 0x253 JUMP JUMPDEST PUSH1 0x40 MLOAD PUSH2 0xF1 SWAP2 SWAP1 PUSH2 0x80C JUMP JUMPDEST PUSH1 0x40 MLOAD DUP1 SWAP2 SUB SWAP1 RETURN JUMPDEST CALLVALUE DUP1 ISZERO PUSH2 0x105 JUMPI PUSH0 DUP1 REVERT JUMPDEST POP PUSH2 0x10E PUSH2 0x25A JUMP JUMPDEST PUSH1 0x40 MLOAD PUSH2 0x11B SWAP2 SWAP1 PUSH2 0x80C JUMP JUMPDEST PUSH1 0x40 MLOAD DUP1 SWAP2 SUB SWAP1 RETURN JUMPDEST CALLVALUE DUP1 ISZERO PUSH2 0x12F JUMPI PUSH0 DUP1 REVERT JUMPDEST POP PUSH2 0x138 PUSH2 0x260 JUMP JUMPDEST PUSH1 0x40 MLOAD PUSH2 0x145 SWAP2 SWAP1 PUSH2 0x834 JUMP JUMPDEST PUSH1 0x40 MLOAD DUP1 SWAP2 SUB SWAP1 RETURN JUMPDEST CALLVALUE DUP1 ISZERO PUSH2 0x159 JUMPI PUSH0 DUP1 REVERT JUMPDEST POP PUSH2 0x162 PUSH2 0x283 JUMP JUMPDEST PUSH1 0x40 MLOAD PUSH2 0x16F SWAP2 SWAP1 PUSH2 0x80C JUMP JUMPDEST PUSH1 0x40 MLOAD DUP1 SWAP2 SUB SWAP1 RETURN JUMPDEST CALLVALUE DUP1 ISZERO PUSH2 0x183 JUMPI PUSH0 DUP1 REVERT JUMPDEST POP PUSH2 0x19E PUSH1 0x4 DUP1 CALLDATASIZE SUB DUP2 ADD SWAP1 PUSH2 0x199 SWAP2 SWAP1 PUSH2 0x8B2 JUMP JUMPDEST PUSH2 0x289 JUMP JUMPDEST STOP JUMPDEST CALLVALUE DUP1 ISZERO PUSH2 0x1AB JUMPI PUSH0 DUP1 REVERT JUMPDEST POP PUSH2 0x1C6 PUSH1 0x4 DUP1 CALLDATASIZE SUB DUP2 ADD SWAP1 PUSH2 0x1C1 SWAP2 SWAP1 PUSH2 0x796 JUMP JUMPDEST PUSH2 0x471 JUMP JUMPDEST PUSH1 0x40 MLOAD PUSH2 0x1D3 SWAP2 SWAP1 PUSH2 0x7DB JUMP JUMPDEST PUSH1 0x40 MLOAD DUP1 SWAP2 SUB SWAP1 RETURN JUMPDEST PUSH2 0x1E4 PUSH2 0x48E JUMP JUMPDEST STOP JUMPDEST CALLVALUE DUP1 ISZERO PUSH2 0x1F1 JUMPI PUSH0 DUP1 REVERT JUMPDEST POP PUSH2 0x20C PUSH1 0x4 DUP1 CALLDATASIZE SUB DUP2 ADD SWAP1 PUSH2 0x207 SWAP2 SWAP1 PUSH2 0x796 JUMP JUMPDEST PUSH2 0x55B JUMP JUMPDEST STOP JUMPDEST CALLVALUE DUP1 ISZERO PUSH2 0x219 JUMPI PUSH0 DUP1 REVERT JUMPDEST POP PUSH2 0x234 PUSH1 0x4 DUP1 CALLDATASIZE SUB DUP2 ADD SWAP1 PUSH2 0x22F SWAP2 SWAP1 PUSH2 0x796 JUMP JUMPDEST PUSH2 0x653 JUMP JUMPDEST STOP JUMPDEST PUSH1 0x3 PUSH1 0x20 MSTORE DUP1 PUSH0 MSTORE PUSH1 0x40 PUSH0 KECCAK256 PUSH0 SWAP2 POP SLOAD SWAP1 PUSH2 0x100 EXP SWAP1 DIV PUSH1 0xFF AND DUP2 JUMP JUMPDEST PUSH0 SELFBALANCE SWAP1 POP SWAP1 JUMP JUMPDEST PUSH1 0x2 SLOAD DUP2 JUMP JUMPDEST PUSH0 DUP1 SLOAD SWAP1 PUSH2 0x100 EXP SWAP1 DIV PUSH20 0xFFFFFFFFFFFFFFFFFFFFFFFFFFFFFFFFFFFFFFFF AND DUP2 JUMP JUMPDEST PUSH1 0x1 SLOAD DUP2 JUMP JUMPDEST PUSH0 DUP1 SLOAD SWAP1 PUSH2 0x100 EXP SWAP1 DIV PUSH20 0xFFFFFFFFFFFFFFFFFFFFFFFFFFFFFFFFFFFFFFFF AND PUSH20 0xFFFFFFFFFFFFFFFFFFFFFFFFFFFFFFFFFFFFFFFF AND CALLER PUSH20 0xFFFFFFFFFFFFFFFFFFFFFFFFFFFFFFFFFFFFFFFF AND EQ PUSH2 0x316 JUMPI PUSH1 0x40 MLOAD PUSH32 0x8C379A000000000000000000000000000000000000000000000000000000000 DUP2 MSTORE PUSH1 0x4 ADD PUSH2 0x30D SWAP1 PUSH2 0x94A JUMP JUMPDEST PUSH1 0x40 MLOAD DUP1 SWAP2 SUB SWAP1 REVERT JUMPDEST PUSH1 0x4 PUSH0 DUP4 PUSH20 0xFFFFFFFFFFFFFFFFFFFFFFFFFFFFFFFFFFFFFFFF AND PUSH20 0xFFFFFFFFFFFFFFFFFFFFFFFFFFFFFFFFFFFFFFFF AND DUP2 MSTORE PUSH1 0x20 ADD SWAP1 DUP2 MSTORE PUSH1 0x20 ADD PUSH0 KECCAK256 PUSH0 SWAP1 SLOAD SWAP1 PUSH2 0x100 EXP SWAP1 DIV PUSH1 0xFF AND PUSH2 0x39F JUMPI PUSH1 0x40 MLOAD PUSH32 0x8C379A000000000000000000000000000000000000000000000000000000000 DUP2 MSTORE PUSH1 0x4 ADD PUSH2 0x396 SWAP1 PUSH2 0x9B2 JUMP JUMPDEST PUSH1 0x40 MLOAD DUP1 SWAP2 SUB SWAP1 REVERT JUMPDEST PUSH1 0x1 SLOAD PUSH1 0x2 SLOAD LT ISZERO PUSH2 0x3E6 JUMPI PUSH1 0x40 MLOAD PUSH32 0x8C379A000000000000000000000000000000000000000000000000000000000 DUP2 MSTORE PUSH1 0x4 ADD PUSH2 0x3DD SWAP1 PUSH2 0xA1A JUMP JUMPDEST PUSH1 0x40 MLOAD DUP1 SWAP2 SUB SWAP1 REVERT JUMPDEST SELFBALANCE DUP2 GT ISZERO PUSH2 0x429 JUMPI PUSH1 0x40 MLOAD PUSH32 0x8C379A000000000000000000000000000000000000000000000000000000000 DUP2 MSTORE PUSH1 0x4 ADD PUSH2 0x420 SWAP1 PUSH2 0xA82 JUMP JUMPDEST PUSH1 0x40 MLOAD DUP1 SWAP2 SUB SWAP1 REVERT JUMPDEST DUP2 PUSH20 0xFFFFFFFFFFFFFFFFFFFFFFFFFFFFFFFFFFFFFFFF AND PUSH2 0x8FC DUP3 SWAP1 DUP2 ISZERO MUL SWAP1 PUSH1 0x40 MLOAD PUSH0 PUSH1 0x40 MLOAD DUP1 DUP4 SUB DUP2 DUP6 DUP9 DUP9 CALL SWAP4 POP POP POP POP ISZERO DUP1 ISZERO PUSH2 0x46C JUMPI RETURNDATASIZE PUSH0 DUP1 RETURNDATACOPY RETURNDATASIZE PUSH0 REVERT JUMPDEST POP POP POP JUMP JUMPDEST PUSH1 0x4 PUSH1 0x20 MSTORE DUP1 PUSH0 MSTORE PUSH1 0x40 PUSH0 KECCAK256 PUSH0 SWAP2 POP SLOAD SWAP1 PUSH2 0x100 EXP SWAP1 DIV PUSH1 0xFF AND DUP2 JUMP JUMPDEST PUSH1 0x3 PUSH0 CALLER PUSH20 0xFFFFFFFFFFFFFFFFFFFFFFFFFFFFFFFFFFFFFFFF AND PUSH20 0xFFFFFFFFFFFFFFFFFFFFFFFFFFFFFFFFFFFFFFFF AND DUP2 MSTORE PUSH1 0x20 ADD SWAP1 DUP2 MSTORE PUSH1 0x20 ADD PUSH0 KECCAK256 PUSH0 SWAP1 SLOAD SWAP1 PUSH2 0x100 EXP SWAP1 DIV PUSH1 0xFF AND PUSH2 0x517 JUMPI PUSH1 0x40 MLOAD PUSH32 0x8C379A000000000000000000000000000000000000000000000000000000000 DUP2 MSTORE PUSH1 0x4 ADD PUSH2 0x50E SWAP1 PUSH2 0xAEA JUMP JUMPDEST PUSH1 0x40 MLOAD DUP1 SWAP2 SUB SWAP1 REVERT JUMPDEST PUSH0 CALLVALUE GT PUSH2 0x559 JUMPI PUSH1 0x40 MLOAD PUSH32 0x8C379A000000000000000000000000000000000000000000000000000000000 DUP2 MSTORE PUSH1 0x4 ADD PUSH2 0x550 SWAP1 PUSH2 0xB52 JUMP JUMPDEST PUSH1 0x40 MLOAD DUP1 SWAP2 SUB SWAP1 REVERT JUMPDEST JUMP JUMPDEST PUSH1 0x3 PUSH0 CALLER PUSH20 0xFFFFFFFFFFFFFFFFFFFFFFFFFFFFFFFFFFFFFFFF AND PUSH20 0xFFFFFFFFFFFFFFFFFFFFFFFFFFFFFFFFFFFFFFFF AND DUP2 MSTORE PUSH1 0x20 ADD SWAP1 DUP2 MSTORE PUSH1 0x20 ADD PUSH0 KECCAK256 PUSH0 SWAP1 SLOAD SWAP1 PUSH2 0x100 EXP SWAP1 DIV PUSH1 0xFF AND PUSH2 0x5E4 JUMPI PUSH1 0x40 MLOAD PUSH32 0x8C379A000000000000000000000000000000000000000000000000000000000 DUP2 MSTORE PUSH1 0x4 ADD PUSH2 0x5DB SWAP1 PUSH2 0xAEA JUMP JUMPDEST PUSH1 0x40 MLOAD DUP1 SWAP2 SUB SWAP1 REVERT JUMPDEST PUSH1 0x1 PUSH1 0x4 PUSH0 DUP4 PUSH20 0xFFFFFFFFFFFFFFFFFFFFFFFFFFFFFFFFFFFFFFFF AND PUSH20 0xFFFFFFFFFFFFFFFFFFFFFFFFFFFFFFFFFFFFFFFF AND DUP2 MSTORE PUSH1 0x20 ADD SWAP1 DUP2 MSTORE PUSH1 0x20 ADD PUSH0 KECCAK256 PUSH0 PUSH2 0x100 EXP DUP2 SLOAD DUP2 PUSH1 0xFF MUL NOT AND SWAP1 DUP4 ISZERO ISZERO MUL OR SWAP1 SSTORE POP PUSH1 0x2 PUSH0 DUP2 SLOAD DUP1 SWAP3 SWAP2 SWAP1 PUSH2 0x64B SWAP1 PUSH2 0xB9D JUMP JUMPDEST SWAP2 SWAP1 POP SSTORE POP POP JUMP JUMPDEST PUSH0 DUP1 SLOAD SWAP1 PUSH2 0x100 EXP SWAP1 DIV PUSH20 0xFFFFFFFFFFFFFFFFFFFFFFFFFFFFFFFFFFFFFFFF AND PUSH20 0xFFFFFFFFFFFFFFFFFFFFFFFFFFFFFFFFFFFFFFFF AND CALLER PUSH20 0xFFFFFFFFFFFFFFFFFFFFFFFFFFFFFFFFFFFFFFFF AND EQ PUSH2 0x6E0 JUMPI PUSH1 0x40 MLOAD PUSH32 0x8C379A000000000000000000000000000000000000000000000000000000000 DUP2 MSTORE PUSH1 0x4 ADD PUSH2 0x6D7 SWAP1 PUSH2 0x94A JUMP JUMPDEST PUSH1 0x40 MLOAD DUP1 SWAP2 SUB SWAP1 REVERT JUMPDEST PUSH1 0x1 PUSH1 0x3 PUSH0 DUP4 PUSH20 0xFFFFFFFFFFFFFFFFFFFFFFFFFFFFFFFFFFFFFFFF AND PUSH20 0xFFFFFFFFFFFFFFFFFFFFFFFFFFFFFFFFFFFFFFFF AND DUP2 MSTORE PUSH1 0x20 ADD SWAP1 DUP2 MSTORE PUSH1 0x20 ADD PUSH0 KECCAK256 PUSH0 PUSH2 0x100 EXP DUP2 SLOAD DUP2 PUSH1 0xFF MUL NOT AND SWAP1 DUP4 ISZERO ISZERO MUL OR SWAP1 SSTORE POP POP JUMP JUMPDEST PUSH0 DUP1 REVERT JUMPDEST PUSH0 PUSH20 0xFFFFFFFFFFFFFFFFFFFFFFFFFFFFFFFFFFFFFFFF DUP3 AND SWAP1 POP SWAP2 SWAP1 POP JUMP JUMPDEST PUSH0 PUSH2 0x765 DUP3 PUSH2 0x73C JUMP JUMPDEST SWAP1 POP SWAP2 SWAP1 POP JUMP JUMPDEST PUSH2 0x775 DUP2 PUSH2 0x75B JUMP JUMPDEST DUP2 EQ PUSH2 0x77F JUMPI PUSH0 DUP1 REVERT JUMPDEST POP JUMP JUMPDEST PUSH0 DUP2 CALLDATALOAD SWAP1 POP PUSH2 0x790 DUP2 PUSH2 0x76C JUMP JUMPDEST SWAP3 SWAP2 POP POP JUMP JUMPDEST PUSH0 PUSH1 0x20 DUP3 DUP5 SUB SLT ISZERO PUSH2 0x7AB JUMPI PUSH2 0x7AA PUSH2 0x738 JUMP JUMPDEST JUMPDEST PUSH0 PUSH2 0x7B8 DUP5 DUP3 DUP6 ADD PUSH2 0x782 JUMP JUMPDEST SWAP2 POP POP SWAP3 SWAP2 POP POP JUMP JUMPDEST PUSH0 DUP2 ISZERO ISZERO SWAP1 POP SWAP2 SWAP1 POP JUMP JUMPDEST PUSH2 0x7D5 DUP2 PUSH2 0x7C1 JUMP JUMPDEST DUP3 MSTORE POP POP JUMP JUMPDEST PUSH0 PUSH1 0x20 DUP3 ADD SWAP1 POP PUSH2 0x7EE PUSH0 DUP4 ADD DUP5 PUSH2 0x7CC JUMP JUMPDEST SWAP3 SWAP2 POP POP JUMP JUMPDEST PUSH0 DUP2 SWAP1 POP SWAP2 SWAP1 POP JUMP JUMPDEST PUSH2 0x806 DUP2 PUSH2 0x7F4 JUMP JUMPDEST DUP3 MSTORE POP POP JUMP JUMPDEST PUSH0 PUSH1 0x20 DUP3 ADD SWAP1 POP PUSH2 0x81F PUSH0 DUP4 ADD DUP5 PUSH2 0x7FD JUMP JUMPDEST SWAP3 SWAP2 POP POP JUMP JUMPDEST PUSH2 0x82E DUP2 PUSH2 0x75B JUMP JUMPDEST DUP3 MSTORE POP POP JUMP JUMPDEST PUSH0 PUSH1 0x20 DUP3 ADD SWAP1 POP PUSH2 0x847 PUSH0 DUP4 ADD DUP5 PUSH2 0x825 JUMP JUMPDEST SWAP3 SWAP2 POP POP JUMP JUMPDEST PUSH0 PUSH2 0x857 DUP3 PUSH2 0x73C JUMP JUMPDEST SWAP1 POP SWAP2 SWAP1 POP JUMP JUMPDEST PUSH2 0x867 DUP2 PUSH2 0x84D JUMP JUMPDEST DUP2 EQ PUSH2 0x871 JUMPI PUSH0 DUP1 REVERT JUMPDEST POP JUMP JUMPDEST PUSH0 DUP2 CALLDATALOAD SWAP1 POP PUSH2 0x882 DUP2 PUSH2 0x85E JUMP JUMPDEST SWAP3 SWAP2 POP POP JUMP JUMPDEST PUSH2 0x891 DUP2 PUSH2 0x7F4 JUMP JUMPDEST DUP2 EQ PUSH2 0x89B JUMPI PUSH0 DUP1 REVERT JUMPDEST POP JUMP JUMPDEST PUSH0 DUP2 CALLDATALOAD SWAP1 POP PUSH2 0x8AC DUP2 PUSH2 0x888 JUMP JUMPDEST SWAP3 SWAP2 POP POP JUMP JUMPDEST PUSH0 DUP1 PUSH1 0x40 DUP4 DUP6 SUB SLT ISZERO PUSH2 0x8C8 JUMPI PUSH2 0x8C7 PUSH2 0x738 JUMP JUMPDEST JUMPDEST PUSH0 PUSH2 0x8D5 DUP6 DUP3 DUP7 ADD PUSH2 0x874 JUMP JUMPDEST SWAP3 POP POP PUSH1 0x20 PUSH2 0x8E6 DUP6 DUP3 DUP7 ADD PUSH2 0x89E JUMP JUMPDEST SWAP2 POP POP SWAP3 POP SWAP3 SWAP1 POP JUMP JUMPDEST PUSH0 DUP3 DUP3 MSTORE PUSH1 0x20 DUP3 ADD SWAP1 POP SWAP3 SWAP2 POP POP JUMP JUMPDEST PUSH32 0x4F6E6C79206F776E65722063616E20646F207468697300000000000000000000 PUSH0 DUP3 ADD MSTORE POP JUMP JUMPDEST PUSH0 PUSH2 0x934 PUSH1 0x16 DUP4 PUSH2 0x8F0 JUMP JUMPDEST SWAP2 POP PUSH2 0x93F DUP3 PUSH2 0x900 JUMP JUMPDEST PUSH1 0x20 DUP3 ADD SWAP1 POP SWAP2 SWAP1 POP JUMP JUMPDEST PUSH0 PUSH1 0x20 DUP3 ADD SWAP1 POP DUP2 DUP2 SUB PUSH0 DUP4 ADD MSTORE PUSH2 0x961 DUP2 PUSH2 0x928 JUMP JUMPDEST SWAP1 POP SWAP2 SWAP1 POP JUMP JUMPDEST PUSH32 0x436C61696D206E6F7420617070726F7665640000000000000000000000000000 PUSH0 DUP3 ADD MSTORE POP JUMP JUMPDEST PUSH0 PUSH2 0x99C PUSH1 0x12 DUP4 PUSH2 0x8F0 JUMP JUMPDEST SWAP2 POP PUSH2 0x9A7 DUP3 PUSH2 0x968 JUMP JUMPDEST PUSH1 0x20 DUP3 ADD SWAP1 POP SWAP2 SWAP1 POP JUMP JUMPDEST PUSH0 PUSH1 0x20 DUP3 ADD SWAP1 POP DUP2 DUP2 SUB PUSH0 DUP4 ADD MSTORE PUSH2 0x9C9 DUP2 PUSH2 0x990 JUMP JUMPDEST SWAP1 POP SWAP2 SWAP1 POP JUMP JUMPDEST PUSH32 0x4E6F7420656E6F75676820617070726F76616C73000000000000000000000000 PUSH0 DUP3 ADD MSTORE POP JUMP JUMPDEST PUSH0 PUSH2 0xA04 PUSH1 0x14 DUP4 PUSH2 0x8F0 JUMP JUMPDEST SWAP2 POP PUSH2 0xA0F DUP3 PUSH2 0x9D0 JUMP JUMPDEST PUSH1 0x20 DUP3 ADD SWAP1 POP SWAP2 SWAP1 POP JUMP JUMPDEST PUSH0 PUSH1 0x20 DUP3 ADD SWAP1 POP DUP2 DUP2 SUB PUSH0 DUP4 ADD MSTORE PUSH2 0xA31 DUP2 PUSH2 0x9F8 JUMP JUMPDEST SWAP1 POP SWAP2 SWAP1 POP JUMP JUMPDEST PUSH32 0x4E6F7420656E6F7567682062616C616E63650000000000000000000000000000 PUSH0 DUP3 ADD MSTORE POP JUMP JUMPDEST PUSH0 PUSH2 0xA6C PUSH1 0x12 DUP4 PUSH2 0x8F0 JUMP JUMPDEST SWAP2 POP PUSH2 0xA77 DUP3 PUSH2 0xA38 JUMP JUMPDEST PUSH1 0x20 DUP3 ADD SWAP1 POP SWAP2 SWAP1 POP JUMP JUMPDEST PUSH0 PUSH1 0x20 DUP3 ADD SWAP1 POP DUP2 DUP2 SUB PUSH0 DUP4 ADD MSTORE PUSH2 0xA99 DUP2 PUSH2 0xA60 JUMP JUMPDEST SWAP1 POP SWAP2 SWAP1 POP JUMP JUMPDEST PUSH32 0x4F6E6C79207061727469636970616E747320616C6C6F77656400000000000000 PUSH0 DUP3 ADD MSTORE POP JUMP JUMPDEST PUSH0 PUSH2 0xAD4 PUSH1 0x19 DUP4 PUSH2 0x8F0 JUMP JUMPDEST SWAP2 POP PUSH2 0xADF DUP3 PUSH2 0xAA0 JUMP JUMPDEST PUSH1 0x20 DUP3 ADD SWAP1 POP SWAP2 SWAP1 POP JUMP JUMPDEST PUSH0 PUSH1 0x20 DUP3 ADD SWAP1 POP DUP2 DUP2 SUB PUSH0 DUP4 ADD MSTORE PUSH2 0xB01 DUP2 PUSH2 0xAC8 JUMP JUMPDEST SWAP1 POP SWAP2 SWAP1 POP JUMP JUMPDEST PUSH32 0x4D7573742073656E6420736F6D65204554480000000000000000000000000000 PUSH0 DUP3 ADD MSTORE POP JUMP JUMPDEST PUSH0 PUSH2 0xB3C PUSH1 0x12 DUP4 PUSH2 0x8F0 JUMP JUMPDEST SWAP2 POP PUSH2 0xB47 DUP3 PUSH2 0xB08 JUMP JUMPDEST PUSH1 0x20 DUP3 ADD SWAP1 POP SWAP2 SWAP1 POP JUMP JUMPDEST PUSH0 PUSH1 0x20 DUP3 ADD SWAP1 POP DUP2 DUP2 SUB PUSH0 DUP4 ADD MSTORE PUSH2 0xB69 DUP2 PUSH2 0xB30 JUMP JUMPDEST SWAP1 POP SWAP2 SWAP1 POP JUMP JUMPDEST PUSH32 0x4E487B7100000000000000000000000000000000000000000000000000000000 PUSH0 MSTORE PUSH1 0x11 PUSH1 0x4 MSTORE PUSH1 0x24 PUSH0 REVERT JUMPDEST PUSH0 PUSH2 0xBA7 DUP3 PUSH2 0x7F4 JUMP JUMPDEST SWAP2 POP PUSH32 0xFFFFFFFFFFFFFFFFFFFFFFFFFFFFFFFFFFFFFFFFFFFFFFFFFFFFFFFFFFFFFFFF DUP3 SUB PUSH2 0xBD9 JUMPI PUSH2 0xBD8 PUSH2 0xB70 JUMP JUMPDEST JUMPDEST PUSH1 0x1 DUP3 ADD SWAP1 POP SWAP2 SWAP1 POP JUMP INVALID LOG2 PUSH5 0x6970667358 0x22 SLT KECCAK256 SWAP13 DUP16 COINBASE CALLVALUE BLOCKHASH LOG1 PUSH12 0xBE8EAA18367BA8352F3DF11D 0xB5 PUSH8 0x1C8B3A46CF99DC70 BYTE ORIGIN PREVRANDAO PUSH5 0x736F6C6343 STOP ADDMOD BYTE STOP CALLER "
				},
				"gasEstimates": {
					"creation": {
						"codeDepositCost": "619600",
						"executionCost": "infinite",
						"totalCost": "infinite"
					},
					"external": {
						"addParticipant(address)": "27057",
						"approvalCount()": "2470",
						"approveClaim(address)": "51462",
						"approvedClaims(address)": "2855",
						"contribute()": "2707",
						"getBalance()": "357",
						"owner()": "2572",
						"participants(address)": "2834",
						"requiredApprovals()": "2514",
						"withdrawFunds(address,uint256)": "infinite"
					}
				},
				"methodIdentifiers": {
					"addParticipant(address)": "dfafe10f",
					"approvalCount()": "6884d0a6",
					"approveClaim(address)": "dbb773d9",
					"approvedClaims(address)": "d09580ba",
					"contribute()": "d7bb99ba",
					"getBalance()": "12065fe0",
					"owner()": "8da5cb5b",
					"participants(address)": "09e69ede",
					"requiredApprovals()": "99c1aadc",
					"withdrawFunds(address,uint256)": "c1075329"
				}
			},
			"storageLayout": {
				"storage": [
					{
						"astId": 3,
						"contract": "contracts/EmergencyFund.sol:EmergencyFund",
						"label": "owner",
						"offset": 0,
						"slot": "0",
						"type": "t_address"
					},
					{
						"astId": 5,
						"contract": "contracts/EmergencyFund.sol:EmergencyFund",
						"label": "requiredApprovals",
						"offset": 0,
						"slot": "1",
						"type": "t_uint256"
					},
					{
						"astId": 7,
						"contract": "contracts/EmergencyFund.sol:EmergencyFund",
						"label": "approvalCount",
						"offset": 0,
						"slot": "2",
						"type": "t_uint256"
					},
					{
						"astId": 11,
						"contract": "contracts/EmergencyFund.sol:EmergencyFund",
						"label": "participants",
						"offset": 0,
						"slot": "3",
						"type": "t_mapping(t_address,t_bool)"
					},
					{
						"astId": 15,
						"contract": "contracts/EmergencyFund.sol:EmergencyFund",
						"label": "approvedClaims",
						"offset": 0,
						"slot": "4",
						"type": "t_mapping(t_address,t_bool)"
					}
				],
				"types": {
					"t_address": {
						"encoding": "inplace",
						"label": "address",
						"numberOfBytes": "20"
					},
					"t_bool": {
						"encoding": "inplace",
						"label": "bool",
						"numberOfBytes": "1"
					},
					"t_mapping(t_address,t_bool)": {
						"encoding": "mapping",
						"key": "t_address",
						"label": "mapping(address => bool)",
						"numberOfBytes": "32",
						"value": "t_bool"
					},
					"t_uint256": {
						"encoding": "inplace",
						"label": "uint256",
						"numberOfBytes": "32"
					}
				}
			},
			"userdoc": {
				"kind": "user",
				"methods": {},
				"version": 1
			}
		}
	}
}