{
	"contracts/libstest.sol": {
		"CallerContract": {
			"abi": [
				{
					"inputs": [
						{
							"internalType": "address",
							"name": "other",
							"type": "address"
						}
					],
					"stateMutability": "nonpayable",
					"type": "constructor"
				},
				{
					"inputs": [
						{
							"internalType": "uint256",
							"name": "sample",
							"type": "uint256"
						}
					],
					"name": "callViaCall",
					"outputs": [
						{
							"internalType": "bool",
							"name": "",
							"type": "bool"
						},
						{
							"internalType": "bytes",
							"name": "",
							"type": "bytes"
						}
					],
					"stateMutability": "payable",
					"type": "function"
				},
				{
					"inputs": [
						{
							"internalType": "uint256",
							"name": "_value",
							"type": "uint256"
						}
					],
					"name": "callViaDelegateCall",
					"outputs": [
						{
							"internalType": "bool",
							"name": "",
							"type": "bool"
						},
						{
							"internalType": "bytes",
							"name": "",
							"type": "bytes"
						}
					],
					"stateMutability": "payable",
					"type": "function"
				},
				{
					"inputs": [],
					"name": "callViaStaticCall",
					"outputs": [
						{
							"internalType": "uint256",
							"name": "",
							"type": "uint256"
						}
					],
					"stateMutability": "view",
					"type": "function"
				},
				{
					"inputs": [],
					"name": "value",
					"outputs": [
						{
							"internalType": "uint256",
							"name": "",
							"type": "uint256"
						}
					],
					"stateMutability": "view",
					"type": "function"
				}
			],
			"devdoc": {
				"kind": "dev",
				"methods": {},
				"version": 1
			},
			"evm": {
				"assembly": "    /* \"contracts/libstest.sol\":1138:2305  contract CallerContract{... */\n  mstore(0x40, 0x80)\n    /* \"contracts/libstest.sol\":1248:1314  constructor(address other){... */\n  callvalue\n  dup1\n  iszero\n  tag_1\n  jumpi\n  0x00\n  dup1\n  revert\ntag_1:\n  pop\n  mload(0x40)\n  sub(codesize, bytecodeSize)\n  dup1\n  bytecodeSize\n  dup4\n  codecopy\n  dup2\n  dup2\n  add\n  0x40\n  mstore\n  dup2\n  add\n  swap1\n  tag_2\n  swap2\n  swap1\n  tag_3\n  jump\t// in\ntag_2:\n    /* \"contracts/libstest.sol\":1301:1306  other */\n  dup1\n    /* \"contracts/libstest.sol\":1285:1298  otherContract */\n  0x00\n  dup1\n    /* \"contracts/libstest.sol\":1285:1306  otherContract = other */\n  0x0100\n  exp\n  dup2\n  sload\n  dup2\n  0xffffffffffffffffffffffffffffffffffffffff\n  mul\n  not\n  and\n  swap1\n  dup4\n  0xffffffffffffffffffffffffffffffffffffffff\n  and\n  mul\n  or\n  swap1\n  sstore\n  pop\n    /* \"contracts/libstest.sol\":1248:1314  constructor(address other){... */\n  pop\n    /* \"contracts/libstest.sol\":1138:2305  contract CallerContract{... */\n  jump(tag_6)\n    /* \"#utility.yul\":88:205   */\ntag_8:\n    /* \"#utility.yul\":197:198   */\n  0x00\n    /* \"#utility.yul\":194:195   */\n  dup1\n    /* \"#utility.yul\":187:199   */\n  revert\n    /* \"#utility.yul\":334:460   */\ntag_10:\n    /* \"#utility.yul\":371:378   */\n  0x00\n    /* \"#utility.yul\":411:453   */\n  0xffffffffffffffffffffffffffffffffffffffff\n    /* \"#utility.yul\":404:409   */\n  dup3\n    /* \"#utility.yul\":400:454   */\n  and\n    /* \"#utility.yul\":389:454   */\n  swap1\n  pop\n    /* \"#utility.yul\":334:460   */\n  swap2\n  swap1\n  pop\n  jump\t// out\n    /* \"#utility.yul\":466:562   */\ntag_11:\n    /* \"#utility.yul\":503:510   */\n  0x00\n    /* \"#utility.yul\":532:556   */\n  tag_20\n    /* \"#utility.yul\":550:555   */\n  dup3\n    /* \"#utility.yul\":532:556   */\n  tag_10\n  jump\t// in\ntag_20:\n    /* \"#utility.yul\":521:556   */\n  swap1\n  pop\n    /* \"#utility.yul\":466:562   */\n  swap2\n  swap1\n  pop\n  jump\t// out\n    /* \"#utility.yul\":568:690   */\ntag_12:\n    /* \"#utility.yul\":641:665   */\n  tag_22\n    /* \"#utility.yul\":659:664   */\n  dup2\n    /* \"#utility.yul\":641:665   */\n  tag_11\n  jump\t// in\ntag_22:\n    /* \"#utility.yul\":634:639   */\n  dup2\n    /* \"#utility.yul\":631:666   */\n  eq\n    /* \"#utility.yul\":621:684   */\n  tag_23\n  jumpi\n    /* \"#utility.yul\":680:681   */\n  0x00\n    /* \"#utility.yul\":677:678   */\n  dup1\n    /* \"#utility.yul\":670:682   */\n  revert\n    /* \"#utility.yul\":621:684   */\ntag_23:\n    /* \"#utility.yul\":568:690   */\n  pop\n  jump\t// out\n    /* \"#utility.yul\":696:839   */\ntag_13:\n    /* \"#utility.yul\":753:758   */\n  0x00\n    /* \"#utility.yul\":784:790   */\n  dup2\n    /* \"#utility.yul\":778:791   */\n  mload\n    /* \"#utility.yul\":769:791   */\n  swap1\n  pop\n    /* \"#utility.yul\":800:833   */\n  tag_25\n    /* \"#utility.yul\":827:832   */\n  dup2\n    /* \"#utility.yul\":800:833   */\n  tag_12\n  jump\t// in\ntag_25:\n    /* \"#utility.yul\":696:839   */\n  swap3\n  swap2\n  pop\n  pop\n  jump\t// out\n    /* \"#utility.yul\":845:1196   */\ntag_3:\n    /* \"#utility.yul\":915:921   */\n  0x00\n    /* \"#utility.yul\":964:966   */\n  0x20\n    /* \"#utility.yul\":952:961   */\n  dup3\n    /* \"#utility.yul\":943:950   */\n  dup5\n    /* \"#utility.yul\":939:962   */\n  sub\n    /* \"#utility.yul\":935:967   */\n  slt\n    /* \"#utility.yul\":932:1051   */\n  iszero\n  tag_27\n  jumpi\n    /* \"#utility.yul\":970:1049   */\n  tag_28\n  tag_8\n  jump\t// in\ntag_28:\n    /* \"#utility.yul\":932:1051   */\ntag_27:\n    /* \"#utility.yul\":1090:1091   */\n  0x00\n    /* \"#utility.yul\":1115:1179   */\n  tag_29\n    /* \"#utility.yul\":1171:1178   */\n  dup5\n    /* \"#utility.yul\":1162:1168   */\n  dup3\n    /* \"#utility.yul\":1151:1160   */\n  dup6\n    /* \"#utility.yul\":1147:1169   */\n  add\n    /* \"#utility.yul\":1115:1179   */\n  tag_13\n  jump\t// in\ntag_29:\n    /* \"#utility.yul\":1105:1179   */\n  swap2\n  pop\n    /* \"#utility.yul\":1061:1189   */\n  pop\n    /* \"#utility.yul\":845:1196   */\n  swap3\n  swap2\n  pop\n  pop\n  jump\t// out\n    /* \"contracts/libstest.sol\":1138:2305  contract CallerContract{... */\ntag_6:\n  dataSize(sub_0)\n  dup1\n  dataOffset(sub_0)\n  0x00\n  codecopy\n  0x00\n  return\nstop\n\nsub_0: assembly {\n        /* \"contracts/libstest.sol\":1138:2305  contract CallerContract{... */\n      mstore(0x40, 0x80)\n      jumpi(tag_1, lt(calldatasize, 0x04))\n      shr(0xe0, calldataload(0x00))\n      dup1\n      0x02bf94ee\n      eq\n      tag_2\n      jumpi\n      dup1\n      0x2f7212b6\n      eq\n      tag_3\n      jumpi\n      dup1\n      0x3fa4f245\n      eq\n      tag_4\n      jumpi\n      dup1\n      0x8964fa3a\n      eq\n      tag_5\n      jumpi\n    tag_1:\n      0x00\n      dup1\n      revert\n        /* \"contracts/libstest.sol\":1658:1995  function callViaDelegateCall(uint _value) external payable returns(bool, bytes memory){... */\n    tag_2:\n      tag_6\n      0x04\n      dup1\n      calldatasize\n      sub\n      dup2\n      add\n      swap1\n      tag_7\n      swap2\n      swap1\n      tag_8\n      jump\t// in\n    tag_7:\n      tag_9\n      jump\t// in\n    tag_6:\n      mload(0x40)\n      tag_10\n      swap3\n      swap2\n      swap1\n      tag_11\n      jump\t// in\n    tag_10:\n      mload(0x40)\n      dup1\n      swap2\n      sub\n      swap1\n      return\n        /* \"contracts/libstest.sol\":2003:2302  function callViaStaticCall() external view returns(uint){... */\n    tag_3:\n      callvalue\n      dup1\n      iszero\n      tag_12\n      jumpi\n      0x00\n      dup1\n      revert\n    tag_12:\n      pop\n      tag_13\n      tag_14\n      jump\t// in\n    tag_13:\n      mload(0x40)\n      tag_15\n      swap2\n      swap1\n      tag_16\n      jump\t// in\n    tag_15:\n      mload(0x40)\n      dup1\n      swap2\n      sub\n      swap1\n      return\n        /* \"contracts/libstest.sol\":1212:1229  uint public value */\n    tag_4:\n      callvalue\n      dup1\n      iszero\n      tag_17\n      jumpi\n      0x00\n      dup1\n      revert\n    tag_17:\n      pop\n      tag_18\n      tag_19\n      jump\t// in\n    tag_18:\n      mload(0x40)\n      tag_20\n      swap2\n      swap1\n      tag_16\n      jump\t// in\n    tag_20:\n      mload(0x40)\n      dup1\n      swap2\n      sub\n      swap1\n      return\n        /* \"contracts/libstest.sol\":1322:1650  function callViaCall(uint sample)external payable returns(bool, bytes memory){... */\n    tag_5:\n      tag_21\n      0x04\n      dup1\n      calldatasize\n      sub\n      dup2\n      add\n      swap1\n      tag_22\n      swap2\n      swap1\n      tag_8\n      jump\t// in\n    tag_22:\n      tag_23\n      jump\t// in\n    tag_21:\n      mload(0x40)\n      tag_24\n      swap3\n      swap2\n      swap1\n      tag_11\n      jump\t// in\n    tag_24:\n      mload(0x40)\n      dup1\n      swap2\n      sub\n      swap1\n      return\n        /* \"contracts/libstest.sol\":1658:1995  function callViaDelegateCall(uint _value) external payable returns(bool, bytes memory){... */\n    tag_9:\n        /* \"contracts/libstest.sol\":1725:1729  bool */\n      0x00\n        /* \"contracts/libstest.sol\":1731:1743  bytes memory */\n      0x60\n        /* \"contracts/libstest.sol\":1756:1768  bool success */\n      0x00\n        /* \"contracts/libstest.sol\":1770:1787  bytes memory data */\n      dup1\n        /* \"contracts/libstest.sol\":1791:1804  otherContract */\n      0x00\n      dup1\n      sload\n      swap1\n      0x0100\n      exp\n      swap1\n      div\n      0xffffffffffffffffffffffffffffffffffffffff\n      and\n        /* \"contracts/libstest.sol\":1791:1817  otherContract.delegatecall */\n      0xffffffffffffffffffffffffffffffffffffffff\n      and\n        /* \"contracts/libstest.sol\":1877:1883  _value */\n      dup6\n        /* \"contracts/libstest.sol\":1832:1884  abi.encodeWithSignature(\"setValue(uint256)\", _value) */\n      add(0x24, mload(0x40))\n      tag_26\n      swap2\n      swap1\n      tag_16\n      jump\t// in\n    tag_26:\n      mload(0x40)\n      0x20\n      dup2\n      dup4\n      sub\n      sub\n      dup2\n      mstore\n      swap1\n      0x40\n      mstore\n      and(not(0xffffffffffffffffffffffffffffffffffffffffffffffffffffffff), 0x5524107700000000000000000000000000000000000000000000000000000000)\n      0x20\n      dup3\n      add\n      dup1\n      mload\n      0xffffffffffffffffffffffffffffffffffffffffffffffffffffffff\n      dup4\n      dup2\n      dup4\n      and\n      or\n      dup4\n      mstore\n      pop\n      pop\n      pop\n      pop\n        /* \"contracts/libstest.sol\":1791:1895  otherContract.delegatecall(... */\n      mload(0x40)\n      tag_27\n      swap2\n      swap1\n      tag_28\n      jump\t// in\n    tag_27:\n      0x00\n      mload(0x40)\n      dup1\n      dup4\n      sub\n      dup2\n      dup6\n      gas\n      delegatecall\n      swap2\n      pop\n      pop\n      returndatasize\n      dup1\n      0x00\n      dup2\n      eq\n      tag_31\n      jumpi\n      mload(0x40)\n      swap2\n      pop\n      and(add(returndatasize, 0x3f), not(0x1f))\n      dup3\n      add\n      0x40\n      mstore\n      returndatasize\n      dup3\n      mstore\n      returndatasize\n      0x00\n      0x20\n      dup5\n      add\n      returndatacopy\n      jump(tag_30)\n    tag_31:\n      0x60\n      swap2\n      pop\n    tag_30:\n      pop\n        /* \"contracts/libstest.sol\":1755:1895  (bool success, bytes memory data) = otherContract.delegatecall(... */\n      swap2\n      pop\n      swap2\n      pop\n        /* \"contracts/libstest.sol\":1914:1921  success */\n      dup2\n        /* \"contracts/libstest.sol\":1906:1954  require(success, \"delegate call is not working\") */\n      tag_32\n      jumpi\n      mload(0x40)\n      0x08c379a000000000000000000000000000000000000000000000000000000000\n      dup2\n      mstore\n      0x04\n      add\n      tag_33\n      swap1\n      tag_34\n      jump\t// in\n    tag_33:\n      mload(0x40)\n      dup1\n      swap2\n      sub\n      swap1\n      revert\n    tag_32:\n        /* \"contracts/libstest.sol\":1973:1980  success */\n      dup2\n        /* \"contracts/libstest.sol\":1982:1986  data */\n      dup2\n        /* \"contracts/libstest.sol\":1965:1987  return (success, data) */\n      swap4\n      pop\n      swap4\n      pop\n      pop\n      pop\n        /* \"contracts/libstest.sol\":1658:1995  function callViaDelegateCall(uint _value) external payable returns(bool, bytes memory){... */\n      swap2\n      pop\n      swap2\n      jump\t// out\n        /* \"contracts/libstest.sol\":2003:2302  function callViaStaticCall() external view returns(uint){... */\n    tag_14:\n        /* \"contracts/libstest.sol\":2054:2058  uint */\n      0x00\n        /* \"contracts/libstest.sol\":2071:2083  bool success */\n      dup1\n        /* \"contracts/libstest.sol\":2085:2102  bytes memory data */\n      0x00\n        /* \"contracts/libstest.sol\":2106:2119  otherContract */\n      dup1\n      0x00\n      swap1\n      sload\n      swap1\n      0x0100\n      exp\n      swap1\n      div\n      0xffffffffffffffffffffffffffffffffffffffff\n      and\n        /* \"contracts/libstest.sol\":2106:2130  otherContract.staticcall */\n      0xffffffffffffffffffffffffffffffffffffffff\n      and\n        /* \"contracts/libstest.sol\":2145:2182  abi.encodeWithSignature(\"getValue()\") */\n      add(0x24, mload(0x40))\n      mload(0x40)\n      0x20\n      dup2\n      dup4\n      sub\n      sub\n      dup2\n      mstore\n      swap1\n      0x40\n      mstore\n      and(not(0xffffffffffffffffffffffffffffffffffffffffffffffffffffffff), 0x2096525500000000000000000000000000000000000000000000000000000000)\n      0x20\n      dup3\n      add\n      dup1\n      mload\n      0xffffffffffffffffffffffffffffffffffffffffffffffffffffffff\n      dup4\n      dup2\n      dup4\n      and\n      or\n      dup4\n      mstore\n      pop\n      pop\n      pop\n      pop\n        /* \"contracts/libstest.sol\":2106:2193  otherContract.staticcall(... */\n      mload(0x40)\n      tag_36\n      swap2\n      swap1\n      tag_28\n      jump\t// in\n    tag_36:\n      0x00\n      mload(0x40)\n      dup1\n      dup4\n      sub\n      dup2\n      dup6\n      gas\n      staticcall\n      swap2\n      pop\n      pop\n      returndatasize\n      dup1\n      0x00\n      dup2\n      eq\n      tag_39\n      jumpi\n      mload(0x40)\n      swap2\n      pop\n      and(add(returndatasize, 0x3f), not(0x1f))\n      dup3\n      add\n      0x40\n      mstore\n      returndatasize\n      dup3\n      mstore\n      returndatasize\n      0x00\n      0x20\n      dup5\n      add\n      returndatacopy\n      jump(tag_38)\n    tag_39:\n      0x60\n      swap2\n      pop\n    tag_38:\n      pop\n        /* \"contracts/libstest.sol\":2070:2193  (bool success, bytes memory data) = otherContract.staticcall(... */\n      swap2\n      pop\n      swap2\n      pop\n        /* \"contracts/libstest.sol\":2212:2219  success */\n      dup2\n        /* \"contracts/libstest.sol\":2204:2252  require(success, \"delegate call is not working\") */\n      tag_40\n      jumpi\n      mload(0x40)\n      0x08c379a000000000000000000000000000000000000000000000000000000000\n      dup2\n      mstore\n      0x04\n      add\n      tag_41\n      swap1\n      tag_34\n      jump\t// in\n    tag_41:\n      mload(0x40)\n      dup1\n      swap2\n      sub\n      swap1\n      revert\n    tag_40:\n        /* \"contracts/libstest.sol\":2281:2285  data */\n      dup1\n        /* \"contracts/libstest.sol\":2270:2294  abi.decode(data, (uint)) */\n      dup1\n      0x20\n      add\n      swap1\n      mload\n      dup2\n      add\n      swap1\n      tag_42\n      swap2\n      swap1\n      tag_43\n      jump\t// in\n    tag_42:\n        /* \"contracts/libstest.sol\":2263:2294  return abi.decode(data, (uint)) */\n      swap3\n      pop\n      pop\n      pop\n        /* \"contracts/libstest.sol\":2003:2302  function callViaStaticCall() external view returns(uint){... */\n      swap1\n      jump\t// out\n        /* \"contracts/libstest.sol\":1212:1229  uint public value */\n    tag_19:\n      sload(0x01)\n      dup2\n      jump\t// out\n        /* \"contracts/libstest.sol\":1322:1650  function callViaCall(uint sample)external payable returns(bool, bytes memory){... */\n    tag_23:\n        /* \"contracts/libstest.sol\":1380:1384  bool */\n      0x00\n        /* \"contracts/libstest.sol\":1386:1398  bytes memory */\n      0x60\n        /* \"contracts/libstest.sol\":1411:1423  bool success */\n      0x00\n        /* \"contracts/libstest.sol\":1425:1442  bytes memory data */\n      dup1\n        /* \"contracts/libstest.sol\":1446:1459  otherContract */\n      0x00\n      dup1\n      sload\n      swap1\n      0x0100\n      exp\n      swap1\n      div\n      0xffffffffffffffffffffffffffffffffffffffff\n      and\n        /* \"contracts/libstest.sol\":1446:1464  otherContract.call */\n      0xffffffffffffffffffffffffffffffffffffffff\n      and\n        /* \"contracts/libstest.sol\":1472:1481  msg.value */\n      callvalue\n        /* \"contracts/libstest.sol\":1542:1548  sample */\n      dup7\n        /* \"contracts/libstest.sol\":1497:1549  abi.encodeWithSignature(\"setValue(uint256)\", sample) */\n      add(0x24, mload(0x40))\n      tag_45\n      swap2\n      swap1\n      tag_16\n      jump\t// in\n    tag_45:\n      mload(0x40)\n      0x20\n      dup2\n      dup4\n      sub\n      sub\n      dup2\n      mstore\n      swap1\n      0x40\n      mstore\n      and(not(0xffffffffffffffffffffffffffffffffffffffffffffffffffffffff), 0x5524107700000000000000000000000000000000000000000000000000000000)\n      0x20\n      dup3\n      add\n      dup1\n      mload\n      0xffffffffffffffffffffffffffffffffffffffffffffffffffffffff\n      dup4\n      dup2\n      dup4\n      and\n      or\n      dup4\n      mstore\n      pop\n      pop\n      pop\n      pop\n        /* \"contracts/libstest.sol\":1446:1560  otherContract.call{value: msg.value}(... */\n      mload(0x40)\n      tag_46\n      swap2\n      swap1\n      tag_28\n      jump\t// in\n    tag_46:\n      0x00\n      mload(0x40)\n      dup1\n      dup4\n      sub\n      dup2\n      dup6\n      dup8\n      gas\n      call\n      swap3\n      pop\n      pop\n      pop\n      returndatasize\n      dup1\n      0x00\n      dup2\n      eq\n      tag_49\n      jumpi\n      mload(0x40)\n      swap2\n      pop\n      and(add(returndatasize, 0x3f), not(0x1f))\n      dup3\n      add\n      0x40\n      mstore\n      returndatasize\n      dup3\n      mstore\n      returndatasize\n      0x00\n      0x20\n      dup5\n      add\n      returndatacopy\n      jump(tag_48)\n    tag_49:\n      0x60\n      swap2\n      pop\n    tag_48:\n      pop\n        /* \"contracts/libstest.sol\":1410:1560  (bool success, bytes memory data) = otherContract.call{value: msg.value}(... */\n      swap2\n      pop\n      swap2\n      pop\n        /* \"contracts/libstest.sol\":1579:1586  success */\n      dup2\n        /* \"contracts/libstest.sol\":1571:1609  require(success,\"Call is not working\") */\n      tag_50\n      jumpi\n      mload(0x40)\n      0x08c379a000000000000000000000000000000000000000000000000000000000\n      dup2\n      mstore\n      0x04\n      add\n      tag_51\n      swap1\n      tag_52\n      jump\t// in\n    tag_51:\n      mload(0x40)\n      dup1\n      swap2\n      sub\n      swap1\n      revert\n    tag_50:\n        /* \"contracts/libstest.sol\":1628:1635  success */\n      dup2\n        /* \"contracts/libstest.sol\":1637:1641  data */\n      dup2\n        /* \"contracts/libstest.sol\":1620:1642  return (success, data) */\n      swap4\n      pop\n      swap4\n      pop\n      pop\n      pop\n        /* \"contracts/libstest.sol\":1322:1650  function callViaCall(uint sample)external payable returns(bool, bytes memory){... */\n      swap2\n      pop\n      swap2\n      jump\t// out\n        /* \"#utility.yul\":88:205   */\n    tag_54:\n        /* \"#utility.yul\":197:198   */\n      0x00\n        /* \"#utility.yul\":194:195   */\n      dup1\n        /* \"#utility.yul\":187:199   */\n      revert\n        /* \"#utility.yul\":334:411   */\n    tag_56:\n        /* \"#utility.yul\":371:378   */\n      0x00\n        /* \"#utility.yul\":400:405   */\n      dup2\n        /* \"#utility.yul\":389:405   */\n      swap1\n      pop\n        /* \"#utility.yul\":334:411   */\n      swap2\n      swap1\n      pop\n      jump\t// out\n        /* \"#utility.yul\":417:539   */\n    tag_57:\n        /* \"#utility.yul\":490:514   */\n      tag_81\n        /* \"#utility.yul\":508:513   */\n      dup2\n        /* \"#utility.yul\":490:514   */\n      tag_56\n      jump\t// in\n    tag_81:\n        /* \"#utility.yul\":483:488   */\n      dup2\n        /* \"#utility.yul\":480:515   */\n      eq\n        /* \"#utility.yul\":470:533   */\n      tag_82\n      jumpi\n        /* \"#utility.yul\":529:530   */\n      0x00\n        /* \"#utility.yul\":526:527   */\n      dup1\n        /* \"#utility.yul\":519:531   */\n      revert\n        /* \"#utility.yul\":470:533   */\n    tag_82:\n        /* \"#utility.yul\":417:539   */\n      pop\n      jump\t// out\n        /* \"#utility.yul\":545:684   */\n    tag_58:\n        /* \"#utility.yul\":591:596   */\n      0x00\n        /* \"#utility.yul\":629:635   */\n      dup2\n        /* \"#utility.yul\":616:636   */\n      calldataload\n        /* \"#utility.yul\":607:636   */\n      swap1\n      pop\n        /* \"#utility.yul\":645:678   */\n      tag_84\n        /* \"#utility.yul\":672:677   */\n      dup2\n        /* \"#utility.yul\":645:678   */\n      tag_57\n      jump\t// in\n    tag_84:\n        /* \"#utility.yul\":545:684   */\n      swap3\n      swap2\n      pop\n      pop\n      jump\t// out\n        /* \"#utility.yul\":690:1019   */\n    tag_8:\n        /* \"#utility.yul\":749:755   */\n      0x00\n        /* \"#utility.yul\":798:800   */\n      0x20\n        /* \"#utility.yul\":786:795   */\n      dup3\n        /* \"#utility.yul\":777:784   */\n      dup5\n        /* \"#utility.yul\":773:796   */\n      sub\n        /* \"#utility.yul\":769:801   */\n      slt\n        /* \"#utility.yul\":766:885   */\n      iszero\n      tag_86\n      jumpi\n        /* \"#utility.yul\":804:883   */\n      tag_87\n      tag_54\n      jump\t// in\n    tag_87:\n        /* \"#utility.yul\":766:885   */\n    tag_86:\n        /* \"#utility.yul\":924:925   */\n      0x00\n        /* \"#utility.yul\":949:1002   */\n      tag_88\n        /* \"#utility.yul\":994:1001   */\n      dup5\n        /* \"#utility.yul\":985:991   */\n      dup3\n        /* \"#utility.yul\":974:983   */\n      dup6\n        /* \"#utility.yul\":970:992   */\n      add\n        /* \"#utility.yul\":949:1002   */\n      tag_58\n      jump\t// in\n    tag_88:\n        /* \"#utility.yul\":939:1002   */\n      swap2\n      pop\n        /* \"#utility.yul\":895:1012   */\n      pop\n        /* \"#utility.yul\":690:1019   */\n      swap3\n      swap2\n      pop\n      pop\n      jump\t// out\n        /* \"#utility.yul\":1025:1115   */\n    tag_59:\n        /* \"#utility.yul\":1059:1066   */\n      0x00\n        /* \"#utility.yul\":1102:1107   */\n      dup2\n        /* \"#utility.yul\":1095:1108   */\n      iszero\n        /* \"#utility.yul\":1088:1109   */\n      iszero\n        /* \"#utility.yul\":1077:1109   */\n      swap1\n      pop\n        /* \"#utility.yul\":1025:1115   */\n      swap2\n      swap1\n      pop\n      jump\t// out\n        /* \"#utility.yul\":1121:1230   */\n    tag_60:\n        /* \"#utility.yul\":1202:1223   */\n      tag_91\n        /* \"#utility.yul\":1217:1222   */\n      dup2\n        /* \"#utility.yul\":1202:1223   */\n      tag_59\n      jump\t// in\n    tag_91:\n        /* \"#utility.yul\":1197:1200   */\n      dup3\n        /* \"#utility.yul\":1190:1224   */\n      mstore\n        /* \"#utility.yul\":1121:1230   */\n      pop\n      pop\n      jump\t// out\n        /* \"#utility.yul\":1236:1334   */\n    tag_61:\n        /* \"#utility.yul\":1287:1293   */\n      0x00\n        /* \"#utility.yul\":1321:1326   */\n      dup2\n        /* \"#utility.yul\":1315:1327   */\n      mload\n        /* \"#utility.yul\":1305:1327   */\n      swap1\n      pop\n        /* \"#utility.yul\":1236:1334   */\n      swap2\n      swap1\n      pop\n      jump\t// out\n        /* \"#utility.yul\":1340:1508   */\n    tag_62:\n        /* \"#utility.yul\":1423:1434   */\n      0x00\n        /* \"#utility.yul\":1457:1463   */\n      dup3\n        /* \"#utility.yul\":1452:1455   */\n      dup3\n        /* \"#utility.yul\":1445:1464   */\n      mstore\n        /* \"#utility.yul\":1497:1501   */\n      0x20\n        /* \"#utility.yul\":1492:1495   */\n      dup3\n        /* \"#utility.yul\":1488:1502   */\n      add\n        /* \"#utility.yul\":1473:1502   */\n      swap1\n      pop\n        /* \"#utility.yul\":1340:1508   */\n      swap3\n      swap2\n      pop\n      pop\n      jump\t// out\n        /* \"#utility.yul\":1514:1653   */\n    tag_63:\n        /* \"#utility.yul\":1603:1609   */\n      dup3\n        /* \"#utility.yul\":1598:1601   */\n      dup2\n        /* \"#utility.yul\":1593:1596   */\n      dup4\n        /* \"#utility.yul\":1587:1610   */\n      mcopy\n        /* \"#utility.yul\":1644:1645   */\n      0x00\n        /* \"#utility.yul\":1635:1641   */\n      dup4\n        /* \"#utility.yul\":1630:1633   */\n      dup4\n        /* \"#utility.yul\":1626:1642   */\n      add\n        /* \"#utility.yul\":1619:1646   */\n      mstore\n        /* \"#utility.yul\":1514:1653   */\n      pop\n      pop\n      pop\n      jump\t// out\n        /* \"#utility.yul\":1659:1761   */\n    tag_64:\n        /* \"#utility.yul\":1700:1706   */\n      0x00\n        /* \"#utility.yul\":1751:1753   */\n      0x1f\n        /* \"#utility.yul\":1747:1754   */\n      not\n        /* \"#utility.yul\":1742:1744   */\n      0x1f\n        /* \"#utility.yul\":1735:1740   */\n      dup4\n        /* \"#utility.yul\":1731:1745   */\n      add\n        /* \"#utility.yul\":1727:1755   */\n      and\n        /* \"#utility.yul\":1717:1755   */\n      swap1\n      pop\n        /* \"#utility.yul\":1659:1761   */\n      swap2\n      swap1\n      pop\n      jump\t// out\n        /* \"#utility.yul\":1767:2140   */\n    tag_65:\n        /* \"#utility.yul\":1853:1856   */\n      0x00\n        /* \"#utility.yul\":1881:1919   */\n      tag_97\n        /* \"#utility.yul\":1913:1918   */\n      dup3\n        /* \"#utility.yul\":1881:1919   */\n      tag_61\n      jump\t// in\n    tag_97:\n        /* \"#utility.yul\":1935:2005   */\n      tag_98\n        /* \"#utility.yul\":1998:2004   */\n      dup2\n        /* \"#utility.yul\":1993:1996   */\n      dup6\n        /* \"#utility.yul\":1935:2005   */\n      tag_62\n      jump\t// in\n    tag_98:\n        /* \"#utility.yul\":1928:2005   */\n      swap4\n      pop\n        /* \"#utility.yul\":2014:2079   */\n      tag_99\n        /* \"#utility.yul\":2072:2078   */\n      dup2\n        /* \"#utility.yul\":2067:2070   */\n      dup6\n        /* \"#utility.yul\":2060:2064   */\n      0x20\n        /* \"#utility.yul\":2053:2058   */\n      dup7\n        /* \"#utility.yul\":2049:2065   */\n      add\n        /* \"#utility.yul\":2014:2079   */\n      tag_63\n      jump\t// in\n    tag_99:\n        /* \"#utility.yul\":2104:2133   */\n      tag_100\n        /* \"#utility.yul\":2126:2132   */\n      dup2\n        /* \"#utility.yul\":2104:2133   */\n      tag_64\n      jump\t// in\n    tag_100:\n        /* \"#utility.yul\":2099:2102   */\n      dup5\n        /* \"#utility.yul\":2095:2134   */\n      add\n        /* \"#utility.yul\":2088:2134   */\n      swap2\n      pop\n        /* \"#utility.yul\":1857:2140   */\n      pop\n        /* \"#utility.yul\":1767:2140   */\n      swap3\n      swap2\n      pop\n      pop\n      jump\t// out\n        /* \"#utility.yul\":2146:2553   */\n    tag_11:\n        /* \"#utility.yul\":2279:2283   */\n      0x00\n        /* \"#utility.yul\":2317:2319   */\n      0x40\n        /* \"#utility.yul\":2306:2315   */\n      dup3\n        /* \"#utility.yul\":2302:2320   */\n      add\n        /* \"#utility.yul\":2294:2320   */\n      swap1\n      pop\n        /* \"#utility.yul\":2330:2395   */\n      tag_102\n        /* \"#utility.yul\":2392:2393   */\n      0x00\n        /* \"#utility.yul\":2381:2390   */\n      dup4\n        /* \"#utility.yul\":2377:2394   */\n      add\n        /* \"#utility.yul\":2368:2374   */\n      dup6\n        /* \"#utility.yul\":2330:2395   */\n      tag_60\n      jump\t// in\n    tag_102:\n        /* \"#utility.yul\":2442:2451   */\n      dup2\n        /* \"#utility.yul\":2436:2440   */\n      dup2\n        /* \"#utility.yul\":2432:2452   */\n      sub\n        /* \"#utility.yul\":2427:2429   */\n      0x20\n        /* \"#utility.yul\":2416:2425   */\n      dup4\n        /* \"#utility.yul\":2412:2430   */\n      add\n        /* \"#utility.yul\":2405:2453   */\n      mstore\n        /* \"#utility.yul\":2470:2546   */\n      tag_103\n        /* \"#utility.yul\":2541:2545   */\n      dup2\n        /* \"#utility.yul\":2532:2538   */\n      dup5\n        /* \"#utility.yul\":2470:2546   */\n      tag_65\n      jump\t// in\n    tag_103:\n        /* \"#utility.yul\":2462:2546   */\n      swap1\n      pop\n        /* \"#utility.yul\":2146:2553   */\n      swap4\n      swap3\n      pop\n      pop\n      pop\n      jump\t// out\n        /* \"#utility.yul\":2559:2677   */\n    tag_66:\n        /* \"#utility.yul\":2646:2670   */\n      tag_105\n        /* \"#utility.yul\":2664:2669   */\n      dup2\n        /* \"#utility.yul\":2646:2670   */\n      tag_56\n      jump\t// in\n    tag_105:\n        /* \"#utility.yul\":2641:2644   */\n      dup3\n        /* \"#utility.yul\":2634:2671   */\n      mstore\n        /* \"#utility.yul\":2559:2677   */\n      pop\n      pop\n      jump\t// out\n        /* \"#utility.yul\":2683:2905   */\n    tag_16:\n        /* \"#utility.yul\":2776:2780   */\n      0x00\n        /* \"#utility.yul\":2814:2816   */\n      0x20\n        /* \"#utility.yul\":2803:2812   */\n      dup3\n        /* \"#utility.yul\":2799:2817   */\n      add\n        /* \"#utility.yul\":2791:2817   */\n      swap1\n      pop\n        /* \"#utility.yul\":2827:2898   */\n      tag_107\n        /* \"#utility.yul\":2895:2896   */\n      0x00\n        /* \"#utility.yul\":2884:2893   */\n      dup4\n        /* \"#utility.yul\":2880:2897   */\n      add\n        /* \"#utility.yul\":2871:2877   */\n      dup5\n        /* \"#utility.yul\":2827:2898   */\n      tag_66\n      jump\t// in\n    tag_107:\n        /* \"#utility.yul\":2683:2905   */\n      swap3\n      swap2\n      pop\n      pop\n      jump\t// out\n        /* \"#utility.yul\":2911:3058   */\n    tag_67:\n        /* \"#utility.yul\":3012:3023   */\n      0x00\n        /* \"#utility.yul\":3049:3052   */\n      dup2\n        /* \"#utility.yul\":3034:3052   */\n      swap1\n      pop\n        /* \"#utility.yul\":2911:3058   */\n      swap3\n      swap2\n      pop\n      pop\n      jump\t// out\n        /* \"#utility.yul\":3064:3450   */\n    tag_68:\n        /* \"#utility.yul\":3168:3171   */\n      0x00\n        /* \"#utility.yul\":3196:3234   */\n      tag_110\n        /* \"#utility.yul\":3228:3233   */\n      dup3\n        /* \"#utility.yul\":3196:3234   */\n      tag_61\n      jump\t// in\n    tag_110:\n        /* \"#utility.yul\":3250:3338   */\n      tag_111\n        /* \"#utility.yul\":3331:3337   */\n      dup2\n        /* \"#utility.yul\":3326:3329   */\n      dup6\n        /* \"#utility.yul\":3250:3338   */\n      tag_67\n      jump\t// in\n    tag_111:\n        /* \"#utility.yul\":3243:3338   */\n      swap4\n      pop\n        /* \"#utility.yul\":3347:3412   */\n      tag_112\n        /* \"#utility.yul\":3405:3411   */\n      dup2\n        /* \"#utility.yul\":3400:3403   */\n      dup6\n        /* \"#utility.yul\":3393:3397   */\n      0x20\n        /* \"#utility.yul\":3386:3391   */\n      dup7\n        /* \"#utility.yul\":3382:3398   */\n      add\n        /* \"#utility.yul\":3347:3412   */\n      tag_63\n      jump\t// in\n    tag_112:\n        /* \"#utility.yul\":3437:3443   */\n      dup1\n        /* \"#utility.yul\":3432:3435   */\n      dup5\n        /* \"#utility.yul\":3428:3444   */\n      add\n        /* \"#utility.yul\":3421:3444   */\n      swap2\n      pop\n        /* \"#utility.yul\":3172:3450   */\n      pop\n        /* \"#utility.yul\":3064:3450   */\n      swap3\n      swap2\n      pop\n      pop\n      jump\t// out\n        /* \"#utility.yul\":3456:3727   */\n    tag_28:\n        /* \"#utility.yul\":3586:3589   */\n      0x00\n        /* \"#utility.yul\":3608:3701   */\n      tag_114\n        /* \"#utility.yul\":3697:3700   */\n      dup3\n        /* \"#utility.yul\":3688:3694   */\n      dup5\n        /* \"#utility.yul\":3608:3701   */\n      tag_68\n      jump\t// in\n    tag_114:\n        /* \"#utility.yul\":3601:3701   */\n      swap2\n      pop\n        /* \"#utility.yul\":3718:3721   */\n      dup2\n        /* \"#utility.yul\":3711:3721   */\n      swap1\n      pop\n        /* \"#utility.yul\":3456:3727   */\n      swap3\n      swap2\n      pop\n      pop\n      jump\t// out\n        /* \"#utility.yul\":3733:3902   */\n    tag_69:\n        /* \"#utility.yul\":3817:3828   */\n      0x00\n        /* \"#utility.yul\":3851:3857   */\n      dup3\n        /* \"#utility.yul\":3846:3849   */\n      dup3\n        /* \"#utility.yul\":3839:3858   */\n      mstore\n        /* \"#utility.yul\":3891:3895   */\n      0x20\n        /* \"#utility.yul\":3886:3889   */\n      dup3\n        /* \"#utility.yul\":3882:3896   */\n      add\n        /* \"#utility.yul\":3867:3896   */\n      swap1\n      pop\n        /* \"#utility.yul\":3733:3902   */\n      swap3\n      swap2\n      pop\n      pop\n      jump\t// out\n        /* \"#utility.yul\":3908:4086   */\n    tag_70:\n        /* \"#utility.yul\":4048:4078   */\n      0x64656c65676174652063616c6c206973206e6f7420776f726b696e6700000000\n        /* \"#utility.yul\":4044:4045   */\n      0x00\n        /* \"#utility.yul\":4036:4042   */\n      dup3\n        /* \"#utility.yul\":4032:4046   */\n      add\n        /* \"#utility.yul\":4025:4079   */\n      mstore\n        /* \"#utility.yul\":3908:4086   */\n      pop\n      jump\t// out\n        /* \"#utility.yul\":4092:4458   */\n    tag_71:\n        /* \"#utility.yul\":4234:4237   */\n      0x00\n        /* \"#utility.yul\":4255:4322   */\n      tag_118\n        /* \"#utility.yul\":4319:4321   */\n      0x1c\n        /* \"#utility.yul\":4314:4317   */\n      dup4\n        /* \"#utility.yul\":4255:4322   */\n      tag_69\n      jump\t// in\n    tag_118:\n        /* \"#utility.yul\":4248:4322   */\n      swap2\n      pop\n        /* \"#utility.yul\":4331:4424   */\n      tag_119\n        /* \"#utility.yul\":4420:4423   */\n      dup3\n        /* \"#utility.yul\":4331:4424   */\n      tag_70\n      jump\t// in\n    tag_119:\n        /* \"#utility.yul\":4449:4451   */\n      0x20\n        /* \"#utility.yul\":4444:4447   */\n      dup3\n        /* \"#utility.yul\":4440:4452   */\n      add\n        /* \"#utility.yul\":4433:4452   */\n      swap1\n      pop\n        /* \"#utility.yul\":4092:4458   */\n      swap2\n      swap1\n      pop\n      jump\t// out\n        /* \"#utility.yul\":4464:4883   */\n    tag_34:\n        /* \"#utility.yul\":4630:4634   */\n      0x00\n        /* \"#utility.yul\":4668:4670   */\n      0x20\n        /* \"#utility.yul\":4657:4666   */\n      dup3\n        /* \"#utility.yul\":4653:4671   */\n      add\n        /* \"#utility.yul\":4645:4671   */\n      swap1\n      pop\n        /* \"#utility.yul\":4717:4726   */\n      dup2\n        /* \"#utility.yul\":4711:4715   */\n      dup2\n        /* \"#utility.yul\":4707:4727   */\n      sub\n        /* \"#utility.yul\":4703:4704   */\n      0x00\n        /* \"#utility.yul\":4692:4701   */\n      dup4\n        /* \"#utility.yul\":4688:4705   */\n      add\n        /* \"#utility.yul\":4681:4728   */\n      mstore\n        /* \"#utility.yul\":4745:4876   */\n      tag_121\n        /* \"#utility.yul\":4871:4875   */\n      dup2\n        /* \"#utility.yul\":4745:4876   */\n      tag_71\n      jump\t// in\n    tag_121:\n        /* \"#utility.yul\":4737:4876   */\n      swap1\n      pop\n        /* \"#utility.yul\":4464:4883   */\n      swap2\n      swap1\n      pop\n      jump\t// out\n        /* \"#utility.yul\":4889:5032   */\n    tag_72:\n        /* \"#utility.yul\":4946:4951   */\n      0x00\n        /* \"#utility.yul\":4977:4983   */\n      dup2\n        /* \"#utility.yul\":4971:4984   */\n      mload\n        /* \"#utility.yul\":4962:4984   */\n      swap1\n      pop\n        /* \"#utility.yul\":4993:5026   */\n      tag_123\n        /* \"#utility.yul\":5020:5025   */\n      dup2\n        /* \"#utility.yul\":4993:5026   */\n      tag_57\n      jump\t// in\n    tag_123:\n        /* \"#utility.yul\":4889:5032   */\n      swap3\n      swap2\n      pop\n      pop\n      jump\t// out\n        /* \"#utility.yul\":5038:5389   */\n    tag_43:\n        /* \"#utility.yul\":5108:5114   */\n      0x00\n        /* \"#utility.yul\":5157:5159   */\n      0x20\n        /* \"#utility.yul\":5145:5154   */\n      dup3\n        /* \"#utility.yul\":5136:5143   */\n      dup5\n        /* \"#utility.yul\":5132:5155   */\n      sub\n        /* \"#utility.yul\":5128:5160   */\n      slt\n        /* \"#utility.yul\":5125:5244   */\n      iszero\n      tag_125\n      jumpi\n        /* \"#utility.yul\":5163:5242   */\n      tag_126\n      tag_54\n      jump\t// in\n    tag_126:\n        /* \"#utility.yul\":5125:5244   */\n    tag_125:\n        /* \"#utility.yul\":5283:5284   */\n      0x00\n        /* \"#utility.yul\":5308:5372   */\n      tag_127\n        /* \"#utility.yul\":5364:5371   */\n      dup5\n        /* \"#utility.yul\":5355:5361   */\n      dup3\n        /* \"#utility.yul\":5344:5353   */\n      dup6\n        /* \"#utility.yul\":5340:5362   */\n      add\n        /* \"#utility.yul\":5308:5372   */\n      tag_72\n      jump\t// in\n    tag_127:\n        /* \"#utility.yul\":5298:5372   */\n      swap2\n      pop\n        /* \"#utility.yul\":5254:5382   */\n      pop\n        /* \"#utility.yul\":5038:5389   */\n      swap3\n      swap2\n      pop\n      pop\n      jump\t// out\n        /* \"#utility.yul\":5395:5564   */\n    tag_73:\n        /* \"#utility.yul\":5535:5556   */\n      0x43616c6c206973206e6f7420776f726b696e6700000000000000000000000000\n        /* \"#utility.yul\":5531:5532   */\n      0x00\n        /* \"#utility.yul\":5523:5529   */\n      dup3\n        /* \"#utility.yul\":5519:5533   */\n      add\n        /* \"#utility.yul\":5512:5557   */\n      mstore\n        /* \"#utility.yul\":5395:5564   */\n      pop\n      jump\t// out\n        /* \"#utility.yul\":5570:5936   */\n    tag_74:\n        /* \"#utility.yul\":5712:5715   */\n      0x00\n        /* \"#utility.yul\":5733:5800   */\n      tag_130\n        /* \"#utility.yul\":5797:5799   */\n      0x13\n        /* \"#utility.yul\":5792:5795   */\n      dup4\n        /* \"#utility.yul\":5733:5800   */\n      tag_69\n      jump\t// in\n    tag_130:\n        /* \"#utility.yul\":5726:5800   */\n      swap2\n      pop\n        /* \"#utility.yul\":5809:5902   */\n      tag_131\n        /* \"#utility.yul\":5898:5901   */\n      dup3\n        /* \"#utility.yul\":5809:5902   */\n      tag_73\n      jump\t// in\n    tag_131:\n        /* \"#utility.yul\":5927:5929   */\n      0x20\n        /* \"#utility.yul\":5922:5925   */\n      dup3\n        /* \"#utility.yul\":5918:5930   */\n      add\n        /* \"#utility.yul\":5911:5930   */\n      swap1\n      pop\n        /* \"#utility.yul\":5570:5936   */\n      swap2\n      swap1\n      pop\n      jump\t// out\n        /* \"#utility.yul\":5942:6361   */\n    tag_52:\n        /* \"#utility.yul\":6108:6112   */\n      0x00\n        /* \"#utility.yul\":6146:6148   */\n      0x20\n        /* \"#utility.yul\":6135:6144   */\n      dup3\n        /* \"#utility.yul\":6131:6149   */\n      add\n        /* \"#utility.yul\":6123:6149   */\n      swap1\n      pop\n        /* \"#utility.yul\":6195:6204   */\n      dup2\n        /* \"#utility.yul\":6189:6193   */\n      dup2\n        /* \"#utility.yul\":6185:6205   */\n      sub\n        /* \"#utility.yul\":6181:6182   */\n      0x00\n        /* \"#utility.yul\":6170:6179   */\n      dup4\n        /* \"#utility.yul\":6166:6183   */\n      add\n        /* \"#utility.yul\":6159:6206   */\n      mstore\n        /* \"#utility.yul\":6223:6354   */\n      tag_133\n        /* \"#utility.yul\":6349:6353   */\n      dup2\n        /* \"#utility.yul\":6223:6354   */\n      tag_74\n      jump\t// in\n    tag_133:\n        /* \"#utility.yul\":6215:6354   */\n      swap1\n      pop\n        /* \"#utility.yul\":5942:6361   */\n      swap2\n      swap1\n      pop\n      jump\t// out\n\n    auxdata: 0xa26469706673582212204592c946b2f5e3af5f2e956be16db3ae6b6e829eec28af893d6f7bb3786a7a6d64736f6c634300081a0033\n}\n",
				"bytecode": {
					"linkReferences": {},
					"object": "608060405234801561000f575f80fd5b50604051610925380380610925833981810160405281019061003191906100d4565b805f806101000a81548173ffffffffffffffffffffffffffffffffffffffff021916908373ffffffffffffffffffffffffffffffffffffffff160217905550506100ff565b5f80fd5b5f73ffffffffffffffffffffffffffffffffffffffff82169050919050565b5f6100a38261007a565b9050919050565b6100b381610099565b81146100bd575f80fd5b50565b5f815190506100ce816100aa565b92915050565b5f602082840312156100e9576100e8610076565b5b5f6100f6848285016100c0565b91505092915050565b6108198061010c5f395ff3fe60806040526004361061003e575f3560e01c806302bf94ee146100425780632f7212b6146100735780633fa4f2451461009d5780638964fa3a146100c7575b5f80fd5b61005c60048036038101906100579190610569565b6100f8565b60405161006a92919061061e565b60405180910390f35b34801561007e575f80fd5b5061008761025d565b604051610094919061065b565b60405180910390f35b3480156100a8575f80fd5b506100b16103c4565b6040516100be919061065b565b60405180910390f35b6100e160048036038101906100dc9190610569565b6103ca565b6040516100ef92919061061e565b60405180910390f35b5f60605f805f8054906101000a900473ffffffffffffffffffffffffffffffffffffffff1673ffffffffffffffffffffffffffffffffffffffff1685604051602401610144919061065b565b6040516020818303038152906040527f55241077000000000000000000000000000000000000000000000000000000007bffffffffffffffffffffffffffffffffffffffffffffffffffffffff19166020820180517bffffffffffffffffffffffffffffffffffffffffffffffffffffffff83818316178352505050506040516101ce91906106ae565b5f60405180830381855af49150503d805f8114610206576040519150601f19603f3d011682016040523d82523d5f602084013e61020b565b606091505b509150915081610250576040517f08c379a00000000000000000000000000000000000000000000000000000000081526004016102479061071e565b60405180910390fd5b8181935093505050915091565b5f805f805f9054906101000a900473ffffffffffffffffffffffffffffffffffffffff1673ffffffffffffffffffffffffffffffffffffffff166040516024016040516020818303038152906040527f20965255000000000000000000000000000000000000000000000000000000007bffffffffffffffffffffffffffffffffffffffffffffffffffffffff19166020820180517bffffffffffffffffffffffffffffffffffffffffffffffffffffffff838183161783525050505060405161032791906106ae565b5f60405180830381855afa9150503d805f811461035f576040519150601f19603f3d011682016040523d82523d5f602084013e610364565b606091505b5091509150816103a9576040517f08c379a00000000000000000000000000000000000000000000000000000000081526004016103a09061071e565b60405180910390fd5b808060200190518101906103bd9190610750565b9250505090565b60015481565b5f60605f805f8054906101000a900473ffffffffffffffffffffffffffffffffffffffff1673ffffffffffffffffffffffffffffffffffffffff163486604051602401610417919061065b565b6040516020818303038152906040527f55241077000000000000000000000000000000000000000000000000000000007bffffffffffffffffffffffffffffffffffffffffffffffffffffffff19166020820180517bffffffffffffffffffffffffffffffffffffffffffffffffffffffff83818316178352505050506040516104a191906106ae565b5f6040518083038185875af1925050503d805f81146104db576040519150601f19603f3d011682016040523d82523d5f602084013e6104e0565b606091505b509150915081610525576040517f08c379a000000000000000000000000000000000000000000000000000000000815260040161051c906107c5565b60405180910390fd5b8181935093505050915091565b5f80fd5b5f819050919050565b61054881610536565b8114610552575f80fd5b50565b5f813590506105638161053f565b92915050565b5f6020828403121561057e5761057d610532565b5b5f61058b84828501610555565b91505092915050565b5f8115159050919050565b6105a881610594565b82525050565b5f81519050919050565b5f82825260208201905092915050565b8281835e5f83830152505050565b5f601f19601f8301169050919050565b5f6105f0826105ae565b6105fa81856105b8565b935061060a8185602086016105c8565b610613816105d6565b840191505092915050565b5f6040820190506106315f83018561059f565b818103602083015261064381846105e6565b90509392505050565b61065581610536565b82525050565b5f60208201905061066e5f83018461064c565b92915050565b5f81905092915050565b5f610688826105ae565b6106928185610674565b93506106a28185602086016105c8565b80840191505092915050565b5f6106b9828461067e565b915081905092915050565b5f82825260208201905092915050565b7f64656c65676174652063616c6c206973206e6f7420776f726b696e67000000005f82015250565b5f610708601c836106c4565b9150610713826106d4565b602082019050919050565b5f6020820190508181035f830152610735816106fc565b9050919050565b5f8151905061074a8161053f565b92915050565b5f6020828403121561076557610764610532565b5b5f6107728482850161073c565b91505092915050565b7f43616c6c206973206e6f7420776f726b696e67000000000000000000000000005f82015250565b5f6107af6013836106c4565b91506107ba8261077b565b602082019050919050565b5f6020820190508181035f8301526107dc816107a3565b905091905056fea26469706673582212204592c946b2f5e3af5f2e956be16db3ae6b6e829eec28af893d6f7bb3786a7a6d64736f6c634300081a0033",
					"opcodes": "PUSH1 0x80 PUSH1 0x40 MSTORE CALLVALUE DUP1 ISZERO PUSH2 0xF JUMPI PUSH0 DUP1 REVERT JUMPDEST POP PUSH1 0x40 MLOAD PUSH2 0x925 CODESIZE SUB DUP1 PUSH2 0x925 DUP4 CODECOPY DUP2 DUP2 ADD PUSH1 0x40 MSTORE DUP2 ADD SWAP1 PUSH2 0x31 SWAP2 SWAP1 PUSH2 0xD4 JUMP JUMPDEST DUP1 PUSH0 DUP1 PUSH2 0x100 EXP DUP2 SLOAD DUP2 PUSH20 0xFFFFFFFFFFFFFFFFFFFFFFFFFFFFFFFFFFFFFFFF MUL NOT AND SWAP1 DUP4 PUSH20 0xFFFFFFFFFFFFFFFFFFFFFFFFFFFFFFFFFFFFFFFF AND MUL OR SWAP1 SSTORE POP POP PUSH2 0xFF JUMP JUMPDEST PUSH0 DUP1 REVERT JUMPDEST PUSH0 PUSH20 0xFFFFFFFFFFFFFFFFFFFFFFFFFFFFFFFFFFFFFFFF DUP3 AND SWAP1 POP SWAP2 SWAP1 POP JUMP JUMPDEST PUSH0 PUSH2 0xA3 DUP3 PUSH2 0x7A JUMP JUMPDEST SWAP1 POP SWAP2 SWAP1 POP JUMP JUMPDEST PUSH2 0xB3 DUP2 PUSH2 0x99 JUMP JUMPDEST DUP2 EQ PUSH2 0xBD JUMPI PUSH0 DUP1 REVERT JUMPDEST POP JUMP JUMPDEST PUSH0 DUP2 MLOAD SWAP1 POP PUSH2 0xCE DUP2 PUSH2 0xAA JUMP JUMPDEST SWAP3 SWAP2 POP POP JUMP JUMPDEST PUSH0 PUSH1 0x20 DUP3 DUP5 SUB SLT ISZERO PUSH2 0xE9 JUMPI PUSH2 0xE8 PUSH2 0x76 JUMP JUMPDEST JUMPDEST PUSH0 PUSH2 0xF6 DUP5 DUP3 DUP6 ADD PUSH2 0xC0 JUMP JUMPDEST SWAP2 POP POP SWAP3 SWAP2 POP POP JUMP JUMPDEST PUSH2 0x819 DUP1 PUSH2 0x10C PUSH0 CODECOPY PUSH0 RETURN INVALID PUSH1 0x80 PUSH1 0x40 MSTORE PUSH1 0x4 CALLDATASIZE LT PUSH2 0x3E JUMPI PUSH0 CALLDATALOAD PUSH1 0xE0 SHR DUP1 PUSH4 0x2BF94EE EQ PUSH2 0x42 JUMPI DUP1 PUSH4 0x2F7212B6 EQ PUSH2 0x73 JUMPI DUP1 PUSH4 0x3FA4F245 EQ PUSH2 0x9D JUMPI DUP1 PUSH4 0x8964FA3A EQ PUSH2 0xC7 JUMPI JUMPDEST PUSH0 DUP1 REVERT JUMPDEST PUSH2 0x5C PUSH1 0x4 DUP1 CALLDATASIZE SUB DUP2 ADD SWAP1 PUSH2 0x57 SWAP2 SWAP1 PUSH2 0x569 JUMP JUMPDEST PUSH2 0xF8 JUMP JUMPDEST PUSH1 0x40 MLOAD PUSH2 0x6A SWAP3 SWAP2 SWAP1 PUSH2 0x61E JUMP JUMPDEST PUSH1 0x40 MLOAD DUP1 SWAP2 SUB SWAP1 RETURN JUMPDEST CALLVALUE DUP1 ISZERO PUSH2 0x7E JUMPI PUSH0 DUP1 REVERT JUMPDEST POP PUSH2 0x87 PUSH2 0x25D JUMP JUMPDEST PUSH1 0x40 MLOAD PUSH2 0x94 SWAP2 SWAP1 PUSH2 0x65B JUMP JUMPDEST PUSH1 0x40 MLOAD DUP1 SWAP2 SUB SWAP1 RETURN JUMPDEST CALLVALUE DUP1 ISZERO PUSH2 0xA8 JUMPI PUSH0 DUP1 REVERT JUMPDEST POP PUSH2 0xB1 PUSH2 0x3C4 JUMP JUMPDEST PUSH1 0x40 MLOAD PUSH2 0xBE SWAP2 SWAP1 PUSH2 0x65B JUMP JUMPDEST PUSH1 0x40 MLOAD DUP1 SWAP2 SUB SWAP1 RETURN JUMPDEST PUSH2 0xE1 PUSH1 0x4 DUP1 CALLDATASIZE SUB DUP2 ADD SWAP1 PUSH2 0xDC SWAP2 SWAP1 PUSH2 0x569 JUMP JUMPDEST PUSH2 0x3CA JUMP JUMPDEST PUSH1 0x40 MLOAD PUSH2 0xEF SWAP3 SWAP2 SWAP1 PUSH2 0x61E JUMP JUMPDEST PUSH1 0x40 MLOAD DUP1 SWAP2 SUB SWAP1 RETURN JUMPDEST PUSH0 PUSH1 0x60 PUSH0 DUP1 PUSH0 DUP1 SLOAD SWAP1 PUSH2 0x100 EXP SWAP1 DIV PUSH20 0xFFFFFFFFFFFFFFFFFFFFFFFFFFFFFFFFFFFFFFFF AND PUSH20 0xFFFFFFFFFFFFFFFFFFFFFFFFFFFFFFFFFFFFFFFF AND DUP6 PUSH1 0x40 MLOAD PUSH1 0x24 ADD PUSH2 0x144 SWAP2 SWAP1 PUSH2 0x65B JUMP JUMPDEST PUSH1 0x40 MLOAD PUSH1 0x20 DUP2 DUP4 SUB SUB DUP2 MSTORE SWAP1 PUSH1 0x40 MSTORE PUSH32 0x5524107700000000000000000000000000000000000000000000000000000000 PUSH28 0xFFFFFFFFFFFFFFFFFFFFFFFFFFFFFFFFFFFFFFFFFFFFFFFFFFFFFFFF NOT AND PUSH1 0x20 DUP3 ADD DUP1 MLOAD PUSH28 0xFFFFFFFFFFFFFFFFFFFFFFFFFFFFFFFFFFFFFFFFFFFFFFFFFFFFFFFF DUP4 DUP2 DUP4 AND OR DUP4 MSTORE POP POP POP POP PUSH1 0x40 MLOAD PUSH2 0x1CE SWAP2 SWAP1 PUSH2 0x6AE JUMP JUMPDEST PUSH0 PUSH1 0x40 MLOAD DUP1 DUP4 SUB DUP2 DUP6 GAS DELEGATECALL SWAP2 POP POP RETURNDATASIZE DUP1 PUSH0 DUP2 EQ PUSH2 0x206 JUMPI PUSH1 0x40 MLOAD SWAP2 POP PUSH1 0x1F NOT PUSH1 0x3F RETURNDATASIZE ADD AND DUP3 ADD PUSH1 0x40 MSTORE RETURNDATASIZE DUP3 MSTORE RETURNDATASIZE PUSH0 PUSH1 0x20 DUP5 ADD RETURNDATACOPY PUSH2 0x20B JUMP JUMPDEST PUSH1 0x60 SWAP2 POP JUMPDEST POP SWAP2 POP SWAP2 POP DUP2 PUSH2 0x250 JUMPI PUSH1 0x40 MLOAD PUSH32 0x8C379A000000000000000000000000000000000000000000000000000000000 DUP2 MSTORE PUSH1 0x4 ADD PUSH2 0x247 SWAP1 PUSH2 0x71E JUMP JUMPDEST PUSH1 0x40 MLOAD DUP1 SWAP2 SUB SWAP1 REVERT JUMPDEST DUP2 DUP2 SWAP4 POP SWAP4 POP POP POP SWAP2 POP SWAP2 JUMP JUMPDEST PUSH0 DUP1 PUSH0 DUP1 PUSH0 SWAP1 SLOAD SWAP1 PUSH2 0x100 EXP SWAP1 DIV PUSH20 0xFFFFFFFFFFFFFFFFFFFFFFFFFFFFFFFFFFFFFFFF AND PUSH20 0xFFFFFFFFFFFFFFFFFFFFFFFFFFFFFFFFFFFFFFFF AND PUSH1 0x40 MLOAD PUSH1 0x24 ADD PUSH1 0x40 MLOAD PUSH1 0x20 DUP2 DUP4 SUB SUB DUP2 MSTORE SWAP1 PUSH1 0x40 MSTORE PUSH32 0x2096525500000000000000000000000000000000000000000000000000000000 PUSH28 0xFFFFFFFFFFFFFFFFFFFFFFFFFFFFFFFFFFFFFFFFFFFFFFFFFFFFFFFF NOT AND PUSH1 0x20 DUP3 ADD DUP1 MLOAD PUSH28 0xFFFFFFFFFFFFFFFFFFFFFFFFFFFFFFFFFFFFFFFFFFFFFFFFFFFFFFFF DUP4 DUP2 DUP4 AND OR DUP4 MSTORE POP POP POP POP PUSH1 0x40 MLOAD PUSH2 0x327 SWAP2 SWAP1 PUSH2 0x6AE JUMP JUMPDEST PUSH0 PUSH1 0x40 MLOAD DUP1 DUP4 SUB DUP2 DUP6 GAS STATICCALL SWAP2 POP POP RETURNDATASIZE DUP1 PUSH0 DUP2 EQ PUSH2 0x35F JUMPI PUSH1 0x40 MLOAD SWAP2 POP PUSH1 0x1F NOT PUSH1 0x3F RETURNDATASIZE ADD AND DUP3 ADD PUSH1 0x40 MSTORE RETURNDATASIZE DUP3 MSTORE RETURNDATASIZE PUSH0 PUSH1 0x20 DUP5 ADD RETURNDATACOPY PUSH2 0x364 JUMP JUMPDEST PUSH1 0x60 SWAP2 POP JUMPDEST POP SWAP2 POP SWAP2 POP DUP2 PUSH2 0x3A9 JUMPI PUSH1 0x40 MLOAD PUSH32 0x8C379A000000000000000000000000000000000000000000000000000000000 DUP2 MSTORE PUSH1 0x4 ADD PUSH2 0x3A0 SWAP1 PUSH2 0x71E JUMP JUMPDEST PUSH1 0x40 MLOAD DUP1 SWAP2 SUB SWAP1 REVERT JUMPDEST DUP1 DUP1 PUSH1 0x20 ADD SWAP1 MLOAD DUP2 ADD SWAP1 PUSH2 0x3BD SWAP2 SWAP1 PUSH2 0x750 JUMP JUMPDEST SWAP3 POP POP POP SWAP1 JUMP JUMPDEST PUSH1 0x1 SLOAD DUP2 JUMP JUMPDEST PUSH0 PUSH1 0x60 PUSH0 DUP1 PUSH0 DUP1 SLOAD SWAP1 PUSH2 0x100 EXP SWAP1 DIV PUSH20 0xFFFFFFFFFFFFFFFFFFFFFFFFFFFFFFFFFFFFFFFF AND PUSH20 0xFFFFFFFFFFFFFFFFFFFFFFFFFFFFFFFFFFFFFFFF AND CALLVALUE DUP7 PUSH1 0x40 MLOAD PUSH1 0x24 ADD PUSH2 0x417 SWAP2 SWAP1 PUSH2 0x65B JUMP JUMPDEST PUSH1 0x40 MLOAD PUSH1 0x20 DUP2 DUP4 SUB SUB DUP2 MSTORE SWAP1 PUSH1 0x40 MSTORE PUSH32 0x5524107700000000000000000000000000000000000000000000000000000000 PUSH28 0xFFFFFFFFFFFFFFFFFFFFFFFFFFFFFFFFFFFFFFFFFFFFFFFFFFFFFFFF NOT AND PUSH1 0x20 DUP3 ADD DUP1 MLOAD PUSH28 0xFFFFFFFFFFFFFFFFFFFFFFFFFFFFFFFFFFFFFFFFFFFFFFFFFFFFFFFF DUP4 DUP2 DUP4 AND OR DUP4 MSTORE POP POP POP POP PUSH1 0x40 MLOAD PUSH2 0x4A1 SWAP2 SWAP1 PUSH2 0x6AE JUMP JUMPDEST PUSH0 PUSH1 0x40 MLOAD DUP1 DUP4 SUB DUP2 DUP6 DUP8 GAS CALL SWAP3 POP POP POP RETURNDATASIZE DUP1 PUSH0 DUP2 EQ PUSH2 0x4DB JUMPI PUSH1 0x40 MLOAD SWAP2 POP PUSH1 0x1F NOT PUSH1 0x3F RETURNDATASIZE ADD AND DUP3 ADD PUSH1 0x40 MSTORE RETURNDATASIZE DUP3 MSTORE RETURNDATASIZE PUSH0 PUSH1 0x20 DUP5 ADD RETURNDATACOPY PUSH2 0x4E0 JUMP JUMPDEST PUSH1 0x60 SWAP2 POP JUMPDEST POP SWAP2 POP SWAP2 POP DUP2 PUSH2 0x525 JUMPI PUSH1 0x40 MLOAD PUSH32 0x8C379A000000000000000000000000000000000000000000000000000000000 DUP2 MSTORE PUSH1 0x4 ADD PUSH2 0x51C SWAP1 PUSH2 0x7C5 JUMP JUMPDEST PUSH1 0x40 MLOAD DUP1 SWAP2 SUB SWAP1 REVERT JUMPDEST DUP2 DUP2 SWAP4 POP SWAP4 POP POP POP SWAP2 POP SWAP2 JUMP JUMPDEST PUSH0 DUP1 REVERT JUMPDEST PUSH0 DUP2 SWAP1 POP SWAP2 SWAP1 POP JUMP JUMPDEST PUSH2 0x548 DUP2 PUSH2 0x536 JUMP JUMPDEST DUP2 EQ PUSH2 0x552 JUMPI PUSH0 DUP1 REVERT JUMPDEST POP JUMP JUMPDEST PUSH0 DUP2 CALLDATALOAD SWAP1 POP PUSH2 0x563 DUP2 PUSH2 0x53F JUMP JUMPDEST SWAP3 SWAP2 POP POP JUMP JUMPDEST PUSH0 PUSH1 0x20 DUP3 DUP5 SUB SLT ISZERO PUSH2 0x57E JUMPI PUSH2 0x57D PUSH2 0x532 JUMP JUMPDEST JUMPDEST PUSH0 PUSH2 0x58B DUP5 DUP3 DUP6 ADD PUSH2 0x555 JUMP JUMPDEST SWAP2 POP POP SWAP3 SWAP2 POP POP JUMP JUMPDEST PUSH0 DUP2 ISZERO ISZERO SWAP1 POP SWAP2 SWAP1 POP JUMP JUMPDEST PUSH2 0x5A8 DUP2 PUSH2 0x594 JUMP JUMPDEST DUP3 MSTORE POP POP JUMP JUMPDEST PUSH0 DUP2 MLOAD SWAP1 POP SWAP2 SWAP1 POP JUMP JUMPDEST PUSH0 DUP3 DUP3 MSTORE PUSH1 0x20 DUP3 ADD SWAP1 POP SWAP3 SWAP2 POP POP JUMP JUMPDEST DUP3 DUP2 DUP4 MCOPY PUSH0 DUP4 DUP4 ADD MSTORE POP POP POP JUMP JUMPDEST PUSH0 PUSH1 0x1F NOT PUSH1 0x1F DUP4 ADD AND SWAP1 POP SWAP2 SWAP1 POP JUMP JUMPDEST PUSH0 PUSH2 0x5F0 DUP3 PUSH2 0x5AE JUMP JUMPDEST PUSH2 0x5FA DUP2 DUP6 PUSH2 0x5B8 JUMP JUMPDEST SWAP4 POP PUSH2 0x60A DUP2 DUP6 PUSH1 0x20 DUP7 ADD PUSH2 0x5C8 JUMP JUMPDEST PUSH2 0x613 DUP2 PUSH2 0x5D6 JUMP JUMPDEST DUP5 ADD SWAP2 POP POP SWAP3 SWAP2 POP POP JUMP JUMPDEST PUSH0 PUSH1 0x40 DUP3 ADD SWAP1 POP PUSH2 0x631 PUSH0 DUP4 ADD DUP6 PUSH2 0x59F JUMP JUMPDEST DUP2 DUP2 SUB PUSH1 0x20 DUP4 ADD MSTORE PUSH2 0x643 DUP2 DUP5 PUSH2 0x5E6 JUMP JUMPDEST SWAP1 POP SWAP4 SWAP3 POP POP POP JUMP JUMPDEST PUSH2 0x655 DUP2 PUSH2 0x536 JUMP JUMPDEST DUP3 MSTORE POP POP JUMP JUMPDEST PUSH0 PUSH1 0x20 DUP3 ADD SWAP1 POP PUSH2 0x66E PUSH0 DUP4 ADD DUP5 PUSH2 0x64C JUMP JUMPDEST SWAP3 SWAP2 POP POP JUMP JUMPDEST PUSH0 DUP2 SWAP1 POP SWAP3 SWAP2 POP POP JUMP JUMPDEST PUSH0 PUSH2 0x688 DUP3 PUSH2 0x5AE JUMP JUMPDEST PUSH2 0x692 DUP2 DUP6 PUSH2 0x674 JUMP JUMPDEST SWAP4 POP PUSH2 0x6A2 DUP2 DUP6 PUSH1 0x20 DUP7 ADD PUSH2 0x5C8 JUMP JUMPDEST DUP1 DUP5 ADD SWAP2 POP POP SWAP3 SWAP2 POP POP JUMP JUMPDEST PUSH0 PUSH2 0x6B9 DUP3 DUP5 PUSH2 0x67E JUMP JUMPDEST SWAP2 POP DUP2 SWAP1 POP SWAP3 SWAP2 POP POP JUMP JUMPDEST PUSH0 DUP3 DUP3 MSTORE PUSH1 0x20 DUP3 ADD SWAP1 POP SWAP3 SWAP2 POP POP JUMP JUMPDEST PUSH32 0x64656C65676174652063616C6C206973206E6F7420776F726B696E6700000000 PUSH0 DUP3 ADD MSTORE POP JUMP JUMPDEST PUSH0 PUSH2 0x708 PUSH1 0x1C DUP4 PUSH2 0x6C4 JUMP JUMPDEST SWAP2 POP PUSH2 0x713 DUP3 PUSH2 0x6D4 JUMP JUMPDEST PUSH1 0x20 DUP3 ADD SWAP1 POP SWAP2 SWAP1 POP JUMP JUMPDEST PUSH0 PUSH1 0x20 DUP3 ADD SWAP1 POP DUP2 DUP2 SUB PUSH0 DUP4 ADD MSTORE PUSH2 0x735 DUP2 PUSH2 0x6FC JUMP JUMPDEST SWAP1 POP SWAP2 SWAP1 POP JUMP JUMPDEST PUSH0 DUP2 MLOAD SWAP1 POP PUSH2 0x74A DUP2 PUSH2 0x53F JUMP JUMPDEST SWAP3 SWAP2 POP POP JUMP JUMPDEST PUSH0 PUSH1 0x20 DUP3 DUP5 SUB SLT ISZERO PUSH2 0x765 JUMPI PUSH2 0x764 PUSH2 0x532 JUMP JUMPDEST JUMPDEST PUSH0 PUSH2 0x772 DUP5 DUP3 DUP6 ADD PUSH2 0x73C JUMP JUMPDEST SWAP2 POP POP SWAP3 SWAP2 POP POP JUMP JUMPDEST PUSH32 0x43616C6C206973206E6F7420776F726B696E6700000000000000000000000000 PUSH0 DUP3 ADD MSTORE POP JUMP JUMPDEST PUSH0 PUSH2 0x7AF PUSH1 0x13 DUP4 PUSH2 0x6C4 JUMP JUMPDEST SWAP2 POP PUSH2 0x7BA DUP3 PUSH2 0x77B JUMP JUMPDEST PUSH1 0x20 DUP3 ADD SWAP1 POP SWAP2 SWAP1 POP JUMP JUMPDEST PUSH0 PUSH1 0x20 DUP3 ADD SWAP1 POP DUP2 DUP2 SUB PUSH0 DUP4 ADD MSTORE PUSH2 0x7DC DUP2 PUSH2 0x7A3 JUMP JUMPDEST SWAP1 POP SWAP2 SWAP1 POP JUMP INVALID LOG2 PUSH5 0x6970667358 0x22 SLT KECCAK256 GASLIMIT SWAP3 0xC9 CHAINID 0xB2 CREATE2 0xE3 0xAF PUSH0 0x2E SWAP6 PUSH12 0xE16DB3AE6B6E829EEC28AF89 RETURNDATASIZE PUSH16 0x7BB3786A7A6D64736F6C634300081A00 CALLER "
				},
				"gasEstimates": {
					"creation": {
						"codeDepositCost": "414600",
						"executionCost": "infinite",
						"totalCost": "infinite"
					},
					"external": {
						"callViaCall(uint256)": "infinite",
						"callViaDelegateCall(uint256)": "infinite",
						"callViaStaticCall()": "infinite",
						"value()": "2447"
					}
				},
				"methodIdentifiers": {
					"callViaCall(uint256)": "8964fa3a",
					"callViaDelegateCall(uint256)": "02bf94ee",
					"callViaStaticCall()": "2f7212b6",
					"value()": "3fa4f245"
				}
			},
			"storageLayout": {
				"storage": [
					{
						"astId": 114,
						"contract": "contracts/libstest.sol:CallerContract",
						"label": "otherContract",
						"offset": 0,
						"slot": "0",
						"type": "t_address"
					},
					{
						"astId": 116,
						"contract": "contracts/libstest.sol:CallerContract",
						"label": "value",
						"offset": 0,
						"slot": "1",
						"type": "t_uint256"
					}
				],
				"types": {
					"t_address": {
						"encoding": "inplace",
						"label": "address",
						"numberOfBytes": "20"
					},
					"t_uint256": {
						"encoding": "inplace",
						"label": "uint256",
						"numberOfBytes": "32"
					}
				}
			},
			"userdoc": {
				"kind": "user",
				"methods": {},
				"version": 1
			}
		}
	}
}