{
	"contracts/Vote.sol": {
		"Voting": {
			"abi": [
				{
					"inputs": [
						{
							"internalType": "string",
							"name": "name",
							"type": "string"
						}
					],
					"name": "addCandidate",
					"outputs": [],
					"stateMutability": "nonpayable",
					"type": "function"
				},
				{
					"inputs": [
						{
							"internalType": "uint256",
							"name": "",
							"type": "uint256"
						}
					],
					"name": "candidates",
					"outputs": [
						{
							"internalType": "string",
							"name": "name",
							"type": "string"
						},
						{
							"internalType": "uint256",
							"name": "voteCount",
							"type": "uint256"
						}
					],
					"stateMutability": "view",
					"type": "function"
				},
				{
					"inputs": [],
					"name": "getResults",
					"outputs": [
						{
							"components": [
								{
									"internalType": "string",
									"name": "name",
									"type": "string"
								},
								{
									"internalType": "uint256",
									"name": "voteCount",
									"type": "uint256"
								}
							],
							"internalType": "struct Voting.Candidate[]",
							"name": "",
							"type": "tuple[]"
						}
					],
					"stateMutability": "view",
					"type": "function"
				},
				{
					"inputs": [
						{
							"internalType": "uint256",
							"name": "candidateIndex",
							"type": "uint256"
						}
					],
					"name": "vote",
					"outputs": [],
					"stateMutability": "nonpayable",
					"type": "function"
				},
				{
					"inputs": [
						{
							"internalType": "uint256",
							"name": "",
							"type": "uint256"
						}
					],
					"name": "voters",
					"outputs": [
						{
							"internalType": "address",
							"name": "",
							"type": "address"
						}
					],
					"stateMutability": "view",
					"type": "function"
				}
			],
			"devdoc": {
				"kind": "dev",
				"methods": {},
				"version": 1
			},
			"evm": {
				"assembly": "    /* \"contracts/Vote.sol\":60:977  contract Voting {... */\n  mstore(0x40, 0x80)\n  callvalue\n  dup1\n  iszero\n  tag_1\n  jumpi\n  0x00\n  dup1\n  revert\ntag_1:\n  pop\n  dataSize(sub_0)\n  dup1\n  dataOffset(sub_0)\n  0x00\n  codecopy\n  0x00\n  return\nstop\n\nsub_0: assembly {\n        /* \"contracts/Vote.sol\":60:977  contract Voting {... */\n      mstore(0x40, 0x80)\n      callvalue\n      dup1\n      iszero\n      tag_1\n      jumpi\n      0x00\n      dup1\n      revert\n    tag_1:\n      pop\n      jumpi(tag_2, lt(calldatasize, 0x04))\n      shr(0xe0, calldataload(0x00))\n      dup1\n      0x0121b93f\n      eq\n      tag_3\n      jumpi\n      dup1\n      0x3477ee2e\n      eq\n      tag_4\n      jumpi\n      dup1\n      0x462e91ec\n      eq\n      tag_5\n      jumpi\n      dup1\n      0x4717f97c\n      eq\n      tag_6\n      jumpi\n      dup1\n      0xda58c7d9\n      eq\n      tag_7\n      jumpi\n    tag_2:\n      0x00\n      dup1\n      revert\n        /* \"contracts/Vote.sol\":367:865  function vote(uint256 candidateIndex) public {... */\n    tag_3:\n      tag_8\n      0x04\n      dup1\n      calldatasize\n      sub\n      dup2\n      add\n      swap1\n      tag_9\n      swap2\n      swap1\n      tag_10\n      jump\t// in\n    tag_9:\n      tag_11\n      jump\t// in\n    tag_8:\n      stop\n        /* \"contracts/Vote.sol\":182:211  Candidate[] public candidates */\n    tag_4:\n      tag_12\n      0x04\n      dup1\n      calldatasize\n      sub\n      dup2\n      add\n      swap1\n      tag_13\n      swap2\n      swap1\n      tag_10\n      jump\t// in\n    tag_13:\n      tag_14\n      jump\t// in\n    tag_12:\n      mload(0x40)\n      tag_15\n      swap3\n      swap2\n      swap1\n      tag_16\n      jump\t// in\n    tag_15:\n      mload(0x40)\n      dup1\n      swap2\n      sub\n      swap1\n      return\n        /* \"contracts/Vote.sol\":256:359  function addCandidate(string memory name) public {... */\n    tag_5:\n      tag_17\n      0x04\n      dup1\n      calldatasize\n      sub\n      dup2\n      add\n      swap1\n      tag_18\n      swap2\n      swap1\n      tag_19\n      jump\t// in\n    tag_18:\n      tag_20\n      jump\t// in\n    tag_17:\n      stop\n        /* \"contracts/Vote.sol\":875:974  function getResults() public view returns (Candidate[] memory) {... */\n    tag_6:\n      tag_21\n      tag_22\n      jump\t// in\n    tag_21:\n      mload(0x40)\n      tag_23\n      swap2\n      swap1\n      tag_24\n      jump\t// in\n    tag_23:\n      mload(0x40)\n      dup1\n      swap2\n      sub\n      swap1\n      return\n        /* \"contracts/Vote.sol\":222:245  address[] public voters */\n    tag_7:\n      tag_25\n      0x04\n      dup1\n      calldatasize\n      sub\n      dup2\n      add\n      swap1\n      tag_26\n      swap2\n      swap1\n      tag_10\n      jump\t// in\n    tag_26:\n      tag_27\n      jump\t// in\n    tag_25:\n      mload(0x40)\n      tag_28\n      swap2\n      swap1\n      tag_29\n      jump\t// in\n    tag_28:\n      mload(0x40)\n      dup1\n      swap2\n      sub\n      swap1\n      return\n        /* \"contracts/Vote.sol\":367:865  function vote(uint256 candidateIndex) public {... */\n    tag_11:\n        /* \"contracts/Vote.sol\":525:534  uint256 i */\n      0x00\n        /* \"contracts/Vote.sol\":520:687  for (uint256 i = 0; i < voters.length; i++) {... */\n    tag_31:\n        /* \"contracts/Vote.sol\":544:550  voters */\n      0x01\n        /* \"contracts/Vote.sol\":544:557  voters.length */\n      dup1\n      sload\n      swap1\n      pop\n        /* \"contracts/Vote.sol\":540:541  i */\n      dup2\n        /* \"contracts/Vote.sol\":540:557  i < voters.length */\n      lt\n        /* \"contracts/Vote.sol\":520:687  for (uint256 i = 0; i < voters.length; i++) {... */\n      iszero\n      tag_32\n      jumpi\n        /* \"contracts/Vote.sol\":596:606  msg.sender */\n      caller\n        /* \"contracts/Vote.sol\":583:606  voters[i] == msg.sender */\n      0xffffffffffffffffffffffffffffffffffffffff\n      and\n        /* \"contracts/Vote.sol\":583:589  voters */\n      0x01\n        /* \"contracts/Vote.sol\":590:591  i */\n      dup3\n        /* \"contracts/Vote.sol\":583:592  voters[i] */\n      dup2\n      sload\n      dup2\n      lt\n      tag_34\n      jumpi\n      tag_35\n      tag_36\n      jump\t// in\n    tag_35:\n    tag_34:\n      swap1\n      0x00\n      mstore\n      keccak256(0x00, 0x20)\n      add\n      0x00\n      swap1\n      sload\n      swap1\n      0x0100\n      exp\n      swap1\n      div\n      0xffffffffffffffffffffffffffffffffffffffff\n      and\n        /* \"contracts/Vote.sol\":583:606  voters[i] == msg.sender */\n      0xffffffffffffffffffffffffffffffffffffffff\n      and\n      sub\n        /* \"contracts/Vote.sol\":579:676  if (voters[i] == msg.sender) {... */\n      tag_38\n      jumpi\n        /* \"contracts/Vote.sol\":627:660  revert(\"You have already voted.\") */\n      mload(0x40)\n      0x08c379a000000000000000000000000000000000000000000000000000000000\n      dup2\n      mstore\n      0x04\n      add\n      tag_39\n      swap1\n      tag_40\n      jump\t// in\n    tag_39:\n      mload(0x40)\n      dup1\n      swap2\n      sub\n      swap1\n      revert\n        /* \"contracts/Vote.sol\":579:676  if (voters[i] == msg.sender) {... */\n    tag_38:\n        /* \"contracts/Vote.sol\":559:562  i++ */\n      dup1\n      dup1\n      0x01\n      add\n      swap2\n      pop\n      pop\n        /* \"contracts/Vote.sol\":520:687  for (uint256 i = 0; i < voters.length; i++) {... */\n      jump(tag_31)\n    tag_32:\n      pop\n        /* \"contracts/Vote.sol\":726:736  candidates */\n      0x00\n        /* \"contracts/Vote.sol\":726:743  candidates.length */\n      dup1\n      sload\n      swap1\n      pop\n        /* \"contracts/Vote.sol\":709:723  candidateIndex */\n      dup2\n        /* \"contracts/Vote.sol\":709:743  candidateIndex < candidates.length */\n      lt\n        /* \"contracts/Vote.sol\":701:766  require(candidateIndex < candidates.length, \"Invalid candidate.\") */\n      tag_41\n      jumpi\n      mload(0x40)\n      0x08c379a000000000000000000000000000000000000000000000000000000000\n      dup2\n      mstore\n      0x04\n      add\n      tag_42\n      swap1\n      tag_43\n      jump\t// in\n    tag_42:\n      mload(0x40)\n      dup1\n      swap2\n      sub\n      swap1\n      revert\n    tag_41:\n        /* \"contracts/Vote.sol\":781:791  candidates */\n      0x00\n        /* \"contracts/Vote.sol\":792:806  candidateIndex */\n      dup2\n        /* \"contracts/Vote.sol\":781:807  candidates[candidateIndex] */\n      dup2\n      sload\n      dup2\n      lt\n      tag_44\n      jumpi\n      tag_45\n      tag_36\n      jump\t// in\n    tag_45:\n    tag_44:\n      swap1\n      0x00\n      mstore\n      keccak256(0x00, 0x20)\n      swap1\n      0x02\n      mul\n      add\n        /* \"contracts/Vote.sol\":781:817  candidates[candidateIndex].voteCount */\n      0x01\n      add\n      0x00\n        /* \"contracts/Vote.sol\":781:819  candidates[candidateIndex].voteCount++ */\n      dup2\n      sload\n      dup1\n      swap3\n      swap2\n      swap1\n      tag_47\n      swap1\n      tag_48\n      jump\t// in\n    tag_47:\n      swap2\n      swap1\n      pop\n      sstore\n      pop\n        /* \"contracts/Vote.sol\":834:840  voters */\n      0x01\n        /* \"contracts/Vote.sol\":846:856  msg.sender */\n      caller\n        /* \"contracts/Vote.sol\":834:857  voters.push(msg.sender) */\n      swap1\n      dup1\n      0x01\n      dup2\n      sload\n      add\n      dup1\n      dup3\n      sstore\n      dup1\n      swap2\n      pop\n      pop\n      0x01\n      swap1\n      sub\n      swap1\n      0x00\n      mstore\n      keccak256(0x00, 0x20)\n      add\n      0x00\n      swap1\n      swap2\n      swap1\n      swap2\n      swap1\n      swap2\n      0x0100\n      exp\n      dup2\n      sload\n      dup2\n      0xffffffffffffffffffffffffffffffffffffffff\n      mul\n      not\n      and\n      swap1\n      dup4\n      0xffffffffffffffffffffffffffffffffffffffff\n      and\n      mul\n      or\n      swap1\n      sstore\n      pop\n        /* \"contracts/Vote.sol\":367:865  function vote(uint256 candidateIndex) public {... */\n      pop\n      jump\t// out\n        /* \"contracts/Vote.sol\":182:211  Candidate[] public candidates */\n    tag_14:\n      0x00\n      dup2\n      dup2\n      sload\n      dup2\n      lt\n      tag_50\n      jumpi\n      0x00\n      dup1\n      revert\n    tag_50:\n      swap1\n      0x00\n      mstore\n      keccak256(0x00, 0x20)\n      swap1\n      0x02\n      mul\n      add\n      0x00\n      swap2\n      pop\n      swap1\n      pop\n      dup1\n      0x00\n      add\n      dup1\n      sload\n      tag_52\n      swap1\n      tag_53\n      jump\t// in\n    tag_52:\n      dup1\n      0x1f\n      add\n      0x20\n      dup1\n      swap2\n      div\n      mul\n      0x20\n      add\n      mload(0x40)\n      swap1\n      dup2\n      add\n      0x40\n      mstore\n      dup1\n      swap3\n      swap2\n      swap1\n      dup2\n      dup2\n      mstore\n      0x20\n      add\n      dup3\n      dup1\n      sload\n      tag_54\n      swap1\n      tag_53\n      jump\t// in\n    tag_54:\n      dup1\n      iszero\n      tag_55\n      jumpi\n      dup1\n      0x1f\n      lt\n      tag_56\n      jumpi\n      0x0100\n      dup1\n      dup4\n      sload\n      div\n      mul\n      dup4\n      mstore\n      swap2\n      0x20\n      add\n      swap2\n      jump(tag_55)\n    tag_56:\n      dup3\n      add\n      swap2\n      swap1\n      0x00\n      mstore\n      keccak256(0x00, 0x20)\n      swap1\n    tag_57:\n      dup2\n      sload\n      dup2\n      mstore\n      swap1\n      0x01\n      add\n      swap1\n      0x20\n      add\n      dup1\n      dup4\n      gt\n      tag_57\n      jumpi\n      dup3\n      swap1\n      sub\n      0x1f\n      and\n      dup3\n      add\n      swap2\n    tag_55:\n      pop\n      pop\n      pop\n      pop\n      pop\n      swap1\n      dup1\n      0x01\n      add\n      sload\n      swap1\n      pop\n      dup3\n      jump\t// out\n        /* \"contracts/Vote.sol\":256:359  function addCandidate(string memory name) public {... */\n    tag_20:\n        /* \"contracts/Vote.sol\":316:326  candidates */\n      0x00\n        /* \"contracts/Vote.sol\":332:350  Candidate(name, 0) */\n      mload(0x40)\n      dup1\n      0x40\n      add\n      0x40\n      mstore\n      dup1\n        /* \"contracts/Vote.sol\":342:346  name */\n      dup4\n        /* \"contracts/Vote.sol\":332:350  Candidate(name, 0) */\n      dup2\n      mstore\n      0x20\n      add\n        /* \"contracts/Vote.sol\":348:349  0 */\n      0x00\n        /* \"contracts/Vote.sol\":332:350  Candidate(name, 0) */\n      dup2\n      mstore\n      pop\n        /* \"contracts/Vote.sol\":316:351  candidates.push(Candidate(name, 0)) */\n      swap1\n      dup1\n      0x01\n      dup2\n      sload\n      add\n      dup1\n      dup3\n      sstore\n      dup1\n      swap2\n      pop\n      pop\n      0x01\n      swap1\n      sub\n      swap1\n      0x00\n      mstore\n      keccak256(0x00, 0x20)\n      swap1\n      0x02\n      mul\n      add\n      0x00\n      swap1\n      swap2\n      swap1\n      swap2\n      swap1\n      swap2\n      pop\n      0x00\n      dup3\n      add\n      mload\n      dup2\n      0x00\n      add\n      swap1\n      dup2\n      tag_60\n      swap2\n      swap1\n      tag_61\n      jump\t// in\n    tag_60:\n      pop\n      0x20\n      dup3\n      add\n      mload\n      dup2\n      0x01\n      add\n      sstore\n      pop\n      pop\n        /* \"contracts/Vote.sol\":256:359  function addCandidate(string memory name) public {... */\n      pop\n      jump\t// out\n        /* \"contracts/Vote.sol\":875:974  function getResults() public view returns (Candidate[] memory) {... */\n    tag_22:\n        /* \"contracts/Vote.sol\":918:936  Candidate[] memory */\n      0x60\n        /* \"contracts/Vote.sol\":956:966  candidates */\n      0x00\n        /* \"contracts/Vote.sol\":949:966  return candidates */\n      dup1\n      sload\n      dup1\n      0x20\n      mul\n      0x20\n      add\n      mload(0x40)\n      swap1\n      dup2\n      add\n      0x40\n      mstore\n      dup1\n      swap3\n      swap2\n      swap1\n      dup2\n      dup2\n      mstore\n      0x20\n      add\n      0x00\n      swap1\n    tag_63:\n      dup3\n      dup3\n      lt\n      iszero\n      tag_64\n      jumpi\n      dup4\n      dup3\n      swap1\n      0x00\n      mstore\n      keccak256(0x00, 0x20)\n      swap1\n      0x02\n      mul\n      add\n      mload(0x40)\n      dup1\n      0x40\n      add\n      0x40\n      mstore\n      swap1\n      dup2\n      0x00\n      dup3\n      add\n      dup1\n      sload\n      tag_66\n      swap1\n      tag_53\n      jump\t// in\n    tag_66:\n      dup1\n      0x1f\n      add\n      0x20\n      dup1\n      swap2\n      div\n      mul\n      0x20\n      add\n      mload(0x40)\n      swap1\n      dup2\n      add\n      0x40\n      mstore\n      dup1\n      swap3\n      swap2\n      swap1\n      dup2\n      dup2\n      mstore\n      0x20\n      add\n      dup3\n      dup1\n      sload\n      tag_67\n      swap1\n      tag_53\n      jump\t// in\n    tag_67:\n      dup1\n      iszero\n      tag_68\n      jumpi\n      dup1\n      0x1f\n      lt\n      tag_69\n      jumpi\n      0x0100\n      dup1\n      dup4\n      sload\n      div\n      mul\n      dup4\n      mstore\n      swap2\n      0x20\n      add\n      swap2\n      jump(tag_68)\n    tag_69:\n      dup3\n      add\n      swap2\n      swap1\n      0x00\n      mstore\n      keccak256(0x00, 0x20)\n      swap1\n    tag_70:\n      dup2\n      sload\n      dup2\n      mstore\n      swap1\n      0x01\n      add\n      swap1\n      0x20\n      add\n      dup1\n      dup4\n      gt\n      tag_70\n      jumpi\n      dup3\n      swap1\n      sub\n      0x1f\n      and\n      dup3\n      add\n      swap2\n    tag_68:\n      pop\n      pop\n      pop\n      pop\n      pop\n      dup2\n      mstore\n      0x20\n      add\n      0x01\n      dup3\n      add\n      sload\n      dup2\n      mstore\n      pop\n      pop\n      dup2\n      mstore\n      0x20\n      add\n      swap1\n      0x01\n      add\n      swap1\n      jump(tag_63)\n    tag_64:\n      pop\n      pop\n      pop\n      pop\n      swap1\n      pop\n        /* \"contracts/Vote.sol\":875:974  function getResults() public view returns (Candidate[] memory) {... */\n      swap1\n      jump\t// out\n        /* \"contracts/Vote.sol\":222:245  address[] public voters */\n    tag_27:\n      0x01\n      dup2\n      dup2\n      sload\n      dup2\n      lt\n      tag_71\n      jumpi\n      0x00\n      dup1\n      revert\n    tag_71:\n      swap1\n      0x00\n      mstore\n      keccak256(0x00, 0x20)\n      add\n      0x00\n      swap2\n      pop\n      sload\n      swap1\n      0x0100\n      exp\n      swap1\n      div\n      0xffffffffffffffffffffffffffffffffffffffff\n      and\n      dup2\n      jump\t// out\n        /* \"#utility.yul\":7:82   */\n    tag_73:\n        /* \"#utility.yul\":40:46   */\n      0x00\n        /* \"#utility.yul\":73:75   */\n      0x40\n        /* \"#utility.yul\":67:76   */\n      mload\n        /* \"#utility.yul\":57:76   */\n      swap1\n      pop\n        /* \"#utility.yul\":7:82   */\n      swap1\n      jump\t// out\n        /* \"#utility.yul\":88:205   */\n    tag_74:\n        /* \"#utility.yul\":197:198   */\n      0x00\n        /* \"#utility.yul\":194:195   */\n      dup1\n        /* \"#utility.yul\":187:199   */\n      revert\n        /* \"#utility.yul\":211:328   */\n    tag_75:\n        /* \"#utility.yul\":320:321   */\n      0x00\n        /* \"#utility.yul\":317:318   */\n      dup1\n        /* \"#utility.yul\":310:322   */\n      revert\n        /* \"#utility.yul\":334:411   */\n    tag_76:\n        /* \"#utility.yul\":371:378   */\n      0x00\n        /* \"#utility.yul\":400:405   */\n      dup2\n        /* \"#utility.yul\":389:405   */\n      swap1\n      pop\n        /* \"#utility.yul\":334:411   */\n      swap2\n      swap1\n      pop\n      jump\t// out\n        /* \"#utility.yul\":417:539   */\n    tag_77:\n        /* \"#utility.yul\":490:514   */\n      tag_134\n        /* \"#utility.yul\":508:513   */\n      dup2\n        /* \"#utility.yul\":490:514   */\n      tag_76\n      jump\t// in\n    tag_134:\n        /* \"#utility.yul\":483:488   */\n      dup2\n        /* \"#utility.yul\":480:515   */\n      eq\n        /* \"#utility.yul\":470:533   */\n      tag_135\n      jumpi\n        /* \"#utility.yul\":529:530   */\n      0x00\n        /* \"#utility.yul\":526:527   */\n      dup1\n        /* \"#utility.yul\":519:531   */\n      revert\n        /* \"#utility.yul\":470:533   */\n    tag_135:\n        /* \"#utility.yul\":417:539   */\n      pop\n      jump\t// out\n        /* \"#utility.yul\":545:684   */\n    tag_78:\n        /* \"#utility.yul\":591:596   */\n      0x00\n        /* \"#utility.yul\":629:635   */\n      dup2\n        /* \"#utility.yul\":616:636   */\n      calldataload\n        /* \"#utility.yul\":607:636   */\n      swap1\n      pop\n        /* \"#utility.yul\":645:678   */\n      tag_137\n        /* \"#utility.yul\":672:677   */\n      dup2\n        /* \"#utility.yul\":645:678   */\n      tag_77\n      jump\t// in\n    tag_137:\n        /* \"#utility.yul\":545:684   */\n      swap3\n      swap2\n      pop\n      pop\n      jump\t// out\n        /* \"#utility.yul\":690:1019   */\n    tag_10:\n        /* \"#utility.yul\":749:755   */\n      0x00\n        /* \"#utility.yul\":798:800   */\n      0x20\n        /* \"#utility.yul\":786:795   */\n      dup3\n        /* \"#utility.yul\":777:784   */\n      dup5\n        /* \"#utility.yul\":773:796   */\n      sub\n        /* \"#utility.yul\":769:801   */\n      slt\n        /* \"#utility.yul\":766:885   */\n      iszero\n      tag_139\n      jumpi\n        /* \"#utility.yul\":804:883   */\n      tag_140\n      tag_74\n      jump\t// in\n    tag_140:\n        /* \"#utility.yul\":766:885   */\n    tag_139:\n        /* \"#utility.yul\":924:925   */\n      0x00\n        /* \"#utility.yul\":949:1002   */\n      tag_141\n        /* \"#utility.yul\":994:1001   */\n      dup5\n        /* \"#utility.yul\":985:991   */\n      dup3\n        /* \"#utility.yul\":974:983   */\n      dup6\n        /* \"#utility.yul\":970:992   */\n      add\n        /* \"#utility.yul\":949:1002   */\n      tag_78\n      jump\t// in\n    tag_141:\n        /* \"#utility.yul\":939:1002   */\n      swap2\n      pop\n        /* \"#utility.yul\":895:1012   */\n      pop\n        /* \"#utility.yul\":690:1019   */\n      swap3\n      swap2\n      pop\n      pop\n      jump\t// out\n        /* \"#utility.yul\":1025:1124   */\n    tag_79:\n        /* \"#utility.yul\":1077:1083   */\n      0x00\n        /* \"#utility.yul\":1111:1116   */\n      dup2\n        /* \"#utility.yul\":1105:1117   */\n      mload\n        /* \"#utility.yul\":1095:1117   */\n      swap1\n      pop\n        /* \"#utility.yul\":1025:1124   */\n      swap2\n      swap1\n      pop\n      jump\t// out\n        /* \"#utility.yul\":1130:1299   */\n    tag_80:\n        /* \"#utility.yul\":1214:1225   */\n      0x00\n        /* \"#utility.yul\":1248:1254   */\n      dup3\n        /* \"#utility.yul\":1243:1246   */\n      dup3\n        /* \"#utility.yul\":1236:1255   */\n      mstore\n        /* \"#utility.yul\":1288:1292   */\n      0x20\n        /* \"#utility.yul\":1283:1286   */\n      dup3\n        /* \"#utility.yul\":1279:1293   */\n      add\n        /* \"#utility.yul\":1264:1293   */\n      swap1\n      pop\n        /* \"#utility.yul\":1130:1299   */\n      swap3\n      swap2\n      pop\n      pop\n      jump\t// out\n        /* \"#utility.yul\":1305:1444   */\n    tag_81:\n        /* \"#utility.yul\":1394:1400   */\n      dup3\n        /* \"#utility.yul\":1389:1392   */\n      dup2\n        /* \"#utility.yul\":1384:1387   */\n      dup4\n        /* \"#utility.yul\":1378:1401   */\n      mcopy\n        /* \"#utility.yul\":1435:1436   */\n      0x00\n        /* \"#utility.yul\":1426:1432   */\n      dup4\n        /* \"#utility.yul\":1421:1424   */\n      dup4\n        /* \"#utility.yul\":1417:1433   */\n      add\n        /* \"#utility.yul\":1410:1437   */\n      mstore\n        /* \"#utility.yul\":1305:1444   */\n      pop\n      pop\n      pop\n      jump\t// out\n        /* \"#utility.yul\":1450:1552   */\n    tag_82:\n        /* \"#utility.yul\":1491:1497   */\n      0x00\n        /* \"#utility.yul\":1542:1544   */\n      0x1f\n        /* \"#utility.yul\":1538:1545   */\n      not\n        /* \"#utility.yul\":1533:1535   */\n      0x1f\n        /* \"#utility.yul\":1526:1531   */\n      dup4\n        /* \"#utility.yul\":1522:1536   */\n      add\n        /* \"#utility.yul\":1518:1546   */\n      and\n        /* \"#utility.yul\":1508:1546   */\n      swap1\n      pop\n        /* \"#utility.yul\":1450:1552   */\n      swap2\n      swap1\n      pop\n      jump\t// out\n        /* \"#utility.yul\":1558:1935   */\n    tag_83:\n        /* \"#utility.yul\":1646:1649   */\n      0x00\n        /* \"#utility.yul\":1674:1713   */\n      tag_147\n        /* \"#utility.yul\":1707:1712   */\n      dup3\n        /* \"#utility.yul\":1674:1713   */\n      tag_79\n      jump\t// in\n    tag_147:\n        /* \"#utility.yul\":1729:1800   */\n      tag_148\n        /* \"#utility.yul\":1793:1799   */\n      dup2\n        /* \"#utility.yul\":1788:1791   */\n      dup6\n        /* \"#utility.yul\":1729:1800   */\n      tag_80\n      jump\t// in\n    tag_148:\n        /* \"#utility.yul\":1722:1800   */\n      swap4\n      pop\n        /* \"#utility.yul\":1809:1874   */\n      tag_149\n        /* \"#utility.yul\":1867:1873   */\n      dup2\n        /* \"#utility.yul\":1862:1865   */\n      dup6\n        /* \"#utility.yul\":1855:1859   */\n      0x20\n        /* \"#utility.yul\":1848:1853   */\n      dup7\n        /* \"#utility.yul\":1844:1860   */\n      add\n        /* \"#utility.yul\":1809:1874   */\n      tag_81\n      jump\t// in\n    tag_149:\n        /* \"#utility.yul\":1899:1928   */\n      tag_150\n        /* \"#utility.yul\":1921:1927   */\n      dup2\n        /* \"#utility.yul\":1899:1928   */\n      tag_82\n      jump\t// in\n    tag_150:\n        /* \"#utility.yul\":1894:1897   */\n      dup5\n        /* \"#utility.yul\":1890:1929   */\n      add\n        /* \"#utility.yul\":1883:1929   */\n      swap2\n      pop\n        /* \"#utility.yul\":1650:1935   */\n      pop\n        /* \"#utility.yul\":1558:1935   */\n      swap3\n      swap2\n      pop\n      pop\n      jump\t// out\n        /* \"#utility.yul\":1941:2059   */\n    tag_84:\n        /* \"#utility.yul\":2028:2052   */\n      tag_152\n        /* \"#utility.yul\":2046:2051   */\n      dup2\n        /* \"#utility.yul\":2028:2052   */\n      tag_76\n      jump\t// in\n    tag_152:\n        /* \"#utility.yul\":2023:2026   */\n      dup3\n        /* \"#utility.yul\":2016:2053   */\n      mstore\n        /* \"#utility.yul\":1941:2059   */\n      pop\n      pop\n      jump\t// out\n        /* \"#utility.yul\":2065:2488   */\n    tag_16:\n        /* \"#utility.yul\":2206:2210   */\n      0x00\n        /* \"#utility.yul\":2244:2246   */\n      0x40\n        /* \"#utility.yul\":2233:2242   */\n      dup3\n        /* \"#utility.yul\":2229:2247   */\n      add\n        /* \"#utility.yul\":2221:2247   */\n      swap1\n      pop\n        /* \"#utility.yul\":2293:2302   */\n      dup2\n        /* \"#utility.yul\":2287:2291   */\n      dup2\n        /* \"#utility.yul\":2283:2303   */\n      sub\n        /* \"#utility.yul\":2279:2280   */\n      0x00\n        /* \"#utility.yul\":2268:2277   */\n      dup4\n        /* \"#utility.yul\":2264:2281   */\n      add\n        /* \"#utility.yul\":2257:2304   */\n      mstore\n        /* \"#utility.yul\":2321:2399   */\n      tag_154\n        /* \"#utility.yul\":2394:2398   */\n      dup2\n        /* \"#utility.yul\":2385:2391   */\n      dup6\n        /* \"#utility.yul\":2321:2399   */\n      tag_83\n      jump\t// in\n    tag_154:\n        /* \"#utility.yul\":2313:2399   */\n      swap1\n      pop\n        /* \"#utility.yul\":2409:2481   */\n      tag_155\n        /* \"#utility.yul\":2477:2479   */\n      0x20\n        /* \"#utility.yul\":2466:2475   */\n      dup4\n        /* \"#utility.yul\":2462:2480   */\n      add\n        /* \"#utility.yul\":2453:2459   */\n      dup5\n        /* \"#utility.yul\":2409:2481   */\n      tag_84\n      jump\t// in\n    tag_155:\n        /* \"#utility.yul\":2065:2488   */\n      swap4\n      swap3\n      pop\n      pop\n      pop\n      jump\t// out\n        /* \"#utility.yul\":2494:2611   */\n    tag_85:\n        /* \"#utility.yul\":2603:2604   */\n      0x00\n        /* \"#utility.yul\":2600:2601   */\n      dup1\n        /* \"#utility.yul\":2593:2605   */\n      revert\n        /* \"#utility.yul\":2617:2734   */\n    tag_86:\n        /* \"#utility.yul\":2726:2727   */\n      0x00\n        /* \"#utility.yul\":2723:2724   */\n      dup1\n        /* \"#utility.yul\":2716:2728   */\n      revert\n        /* \"#utility.yul\":2740:2920   */\n    tag_87:\n        /* \"#utility.yul\":2788:2865   */\n      0x4e487b7100000000000000000000000000000000000000000000000000000000\n        /* \"#utility.yul\":2785:2786   */\n      0x00\n        /* \"#utility.yul\":2778:2866   */\n      mstore\n        /* \"#utility.yul\":2885:2889   */\n      0x41\n        /* \"#utility.yul\":2882:2883   */\n      0x04\n        /* \"#utility.yul\":2875:2890   */\n      mstore\n        /* \"#utility.yul\":2909:2913   */\n      0x24\n        /* \"#utility.yul\":2906:2907   */\n      0x00\n        /* \"#utility.yul\":2899:2914   */\n      revert\n        /* \"#utility.yul\":2926:3207   */\n    tag_88:\n        /* \"#utility.yul\":3009:3036   */\n      tag_160\n        /* \"#utility.yul\":3031:3035   */\n      dup3\n        /* \"#utility.yul\":3009:3036   */\n      tag_82\n      jump\t// in\n    tag_160:\n        /* \"#utility.yul\":3001:3007   */\n      dup2\n        /* \"#utility.yul\":2997:3037   */\n      add\n        /* \"#utility.yul\":3139:3145   */\n      dup2\n        /* \"#utility.yul\":3127:3137   */\n      dup2\n        /* \"#utility.yul\":3124:3146   */\n      lt\n        /* \"#utility.yul\":3103:3121   */\n      0xffffffffffffffff\n        /* \"#utility.yul\":3091:3101   */\n      dup3\n        /* \"#utility.yul\":3088:3122   */\n      gt\n        /* \"#utility.yul\":3085:3147   */\n      or\n        /* \"#utility.yul\":3082:3170   */\n      iszero\n      tag_161\n      jumpi\n        /* \"#utility.yul\":3150:3168   */\n      tag_162\n      tag_87\n      jump\t// in\n    tag_162:\n        /* \"#utility.yul\":3082:3170   */\n    tag_161:\n        /* \"#utility.yul\":3190:3200   */\n      dup1\n        /* \"#utility.yul\":3186:3188   */\n      0x40\n        /* \"#utility.yul\":3179:3201   */\n      mstore\n        /* \"#utility.yul\":2969:3207   */\n      pop\n        /* \"#utility.yul\":2926:3207   */\n      pop\n      pop\n      jump\t// out\n        /* \"#utility.yul\":3213:3342   */\n    tag_89:\n        /* \"#utility.yul\":3247:3253   */\n      0x00\n        /* \"#utility.yul\":3274:3294   */\n      tag_164\n      tag_73\n      jump\t// in\n    tag_164:\n        /* \"#utility.yul\":3264:3294   */\n      swap1\n      pop\n        /* \"#utility.yul\":3303:3336   */\n      tag_165\n        /* \"#utility.yul\":3331:3335   */\n      dup3\n        /* \"#utility.yul\":3323:3329   */\n      dup3\n        /* \"#utility.yul\":3303:3336   */\n      tag_88\n      jump\t// in\n    tag_165:\n        /* \"#utility.yul\":3213:3342   */\n      swap2\n      swap1\n      pop\n      jump\t// out\n        /* \"#utility.yul\":3348:3656   */\n    tag_90:\n        /* \"#utility.yul\":3410:3414   */\n      0x00\n        /* \"#utility.yul\":3500:3518   */\n      0xffffffffffffffff\n        /* \"#utility.yul\":3492:3498   */\n      dup3\n        /* \"#utility.yul\":3489:3519   */\n      gt\n        /* \"#utility.yul\":3486:3542   */\n      iszero\n      tag_167\n      jumpi\n        /* \"#utility.yul\":3522:3540   */\n      tag_168\n      tag_87\n      jump\t// in\n    tag_168:\n        /* \"#utility.yul\":3486:3542   */\n    tag_167:\n        /* \"#utility.yul\":3560:3589   */\n      tag_169\n        /* \"#utility.yul\":3582:3588   */\n      dup3\n        /* \"#utility.yul\":3560:3589   */\n      tag_82\n      jump\t// in\n    tag_169:\n        /* \"#utility.yul\":3552:3589   */\n      swap1\n      pop\n        /* \"#utility.yul\":3644:3648   */\n      0x20\n        /* \"#utility.yul\":3638:3642   */\n      dup2\n        /* \"#utility.yul\":3634:3649   */\n      add\n        /* \"#utility.yul\":3626:3649   */\n      swap1\n      pop\n        /* \"#utility.yul\":3348:3656   */\n      swap2\n      swap1\n      pop\n      jump\t// out\n        /* \"#utility.yul\":3662:3810   */\n    tag_91:\n        /* \"#utility.yul\":3760:3766   */\n      dup3\n        /* \"#utility.yul\":3755:3758   */\n      dup2\n        /* \"#utility.yul\":3750:3753   */\n      dup4\n        /* \"#utility.yul\":3737:3767   */\n      calldatacopy\n        /* \"#utility.yul\":3801:3802   */\n      0x00\n        /* \"#utility.yul\":3792:3798   */\n      dup4\n        /* \"#utility.yul\":3787:3790   */\n      dup4\n        /* \"#utility.yul\":3783:3799   */\n      add\n        /* \"#utility.yul\":3776:3803   */\n      mstore\n        /* \"#utility.yul\":3662:3810   */\n      pop\n      pop\n      pop\n      jump\t// out\n        /* \"#utility.yul\":3816:4241   */\n    tag_92:\n        /* \"#utility.yul\":3894:3899   */\n      0x00\n        /* \"#utility.yul\":3919:3985   */\n      tag_172\n        /* \"#utility.yul\":3935:3984   */\n      tag_173\n        /* \"#utility.yul\":3977:3983   */\n      dup5\n        /* \"#utility.yul\":3935:3984   */\n      tag_90\n      jump\t// in\n    tag_173:\n        /* \"#utility.yul\":3919:3985   */\n      tag_89\n      jump\t// in\n    tag_172:\n        /* \"#utility.yul\":3910:3985   */\n      swap1\n      pop\n        /* \"#utility.yul\":4008:4014   */\n      dup3\n        /* \"#utility.yul\":4001:4006   */\n      dup2\n        /* \"#utility.yul\":3994:4015   */\n      mstore\n        /* \"#utility.yul\":4046:4050   */\n      0x20\n        /* \"#utility.yul\":4039:4044   */\n      dup2\n        /* \"#utility.yul\":4035:4051   */\n      add\n        /* \"#utility.yul\":4084:4087   */\n      dup5\n        /* \"#utility.yul\":4075:4081   */\n      dup5\n        /* \"#utility.yul\":4070:4073   */\n      dup5\n        /* \"#utility.yul\":4066:4082   */\n      add\n        /* \"#utility.yul\":4063:4088   */\n      gt\n        /* \"#utility.yul\":4060:4172   */\n      iszero\n      tag_174\n      jumpi\n        /* \"#utility.yul\":4091:4170   */\n      tag_175\n      tag_86\n      jump\t// in\n    tag_175:\n        /* \"#utility.yul\":4060:4172   */\n    tag_174:\n        /* \"#utility.yul\":4181:4235   */\n      tag_176\n        /* \"#utility.yul\":4228:4234   */\n      dup5\n        /* \"#utility.yul\":4223:4226   */\n      dup3\n        /* \"#utility.yul\":4218:4221   */\n      dup6\n        /* \"#utility.yul\":4181:4235   */\n      tag_91\n      jump\t// in\n    tag_176:\n        /* \"#utility.yul\":3900:4241   */\n      pop\n        /* \"#utility.yul\":3816:4241   */\n      swap4\n      swap3\n      pop\n      pop\n      pop\n      jump\t// out\n        /* \"#utility.yul\":4261:4601   */\n    tag_93:\n        /* \"#utility.yul\":4317:4322   */\n      0x00\n        /* \"#utility.yul\":4366:4369   */\n      dup3\n        /* \"#utility.yul\":4359:4363   */\n      0x1f\n        /* \"#utility.yul\":4351:4357   */\n      dup4\n        /* \"#utility.yul\":4347:4364   */\n      add\n        /* \"#utility.yul\":4343:4370   */\n      slt\n        /* \"#utility.yul\":4333:4455   */\n      tag_178\n      jumpi\n        /* \"#utility.yul\":4374:4453   */\n      tag_179\n      tag_85\n      jump\t// in\n    tag_179:\n        /* \"#utility.yul\":4333:4455   */\n    tag_178:\n        /* \"#utility.yul\":4491:4497   */\n      dup2\n        /* \"#utility.yul\":4478:4498   */\n      calldataload\n        /* \"#utility.yul\":4516:4595   */\n      tag_180\n        /* \"#utility.yul\":4591:4594   */\n      dup5\n        /* \"#utility.yul\":4583:4589   */\n      dup3\n        /* \"#utility.yul\":4576:4580   */\n      0x20\n        /* \"#utility.yul\":4568:4574   */\n      dup7\n        /* \"#utility.yul\":4564:4581   */\n      add\n        /* \"#utility.yul\":4516:4595   */\n      tag_92\n      jump\t// in\n    tag_180:\n        /* \"#utility.yul\":4507:4595   */\n      swap2\n      pop\n        /* \"#utility.yul\":4323:4601   */\n      pop\n        /* \"#utility.yul\":4261:4601   */\n      swap3\n      swap2\n      pop\n      pop\n      jump\t// out\n        /* \"#utility.yul\":4607:5116   */\n    tag_19:\n        /* \"#utility.yul\":4676:4682   */\n      0x00\n        /* \"#utility.yul\":4725:4727   */\n      0x20\n        /* \"#utility.yul\":4713:4722   */\n      dup3\n        /* \"#utility.yul\":4704:4711   */\n      dup5\n        /* \"#utility.yul\":4700:4723   */\n      sub\n        /* \"#utility.yul\":4696:4728   */\n      slt\n        /* \"#utility.yul\":4693:4812   */\n      iszero\n      tag_182\n      jumpi\n        /* \"#utility.yul\":4731:4810   */\n      tag_183\n      tag_74\n      jump\t// in\n    tag_183:\n        /* \"#utility.yul\":4693:4812   */\n    tag_182:\n        /* \"#utility.yul\":4879:4880   */\n      0x00\n        /* \"#utility.yul\":4868:4877   */\n      dup3\n        /* \"#utility.yul\":4864:4881   */\n      add\n        /* \"#utility.yul\":4851:4882   */\n      calldataload\n        /* \"#utility.yul\":4909:4927   */\n      0xffffffffffffffff\n        /* \"#utility.yul\":4901:4907   */\n      dup2\n        /* \"#utility.yul\":4898:4928   */\n      gt\n        /* \"#utility.yul\":4895:5012   */\n      iszero\n      tag_184\n      jumpi\n        /* \"#utility.yul\":4931:5010   */\n      tag_185\n      tag_75\n      jump\t// in\n    tag_185:\n        /* \"#utility.yul\":4895:5012   */\n    tag_184:\n        /* \"#utility.yul\":5036:5099   */\n      tag_186\n        /* \"#utility.yul\":5091:5098   */\n      dup5\n        /* \"#utility.yul\":5082:5088   */\n      dup3\n        /* \"#utility.yul\":5071:5080   */\n      dup6\n        /* \"#utility.yul\":5067:5089   */\n      add\n        /* \"#utility.yul\":5036:5099   */\n      tag_93\n      jump\t// in\n    tag_186:\n        /* \"#utility.yul\":5026:5099   */\n      swap2\n      pop\n        /* \"#utility.yul\":4822:5109   */\n      pop\n        /* \"#utility.yul\":4607:5116   */\n      swap3\n      swap2\n      pop\n      pop\n      jump\t// out\n        /* \"#utility.yul\":5122:5260   */\n    tag_94:\n        /* \"#utility.yul\":5213:5219   */\n      0x00\n        /* \"#utility.yul\":5247:5252   */\n      dup2\n        /* \"#utility.yul\":5241:5253   */\n      mload\n        /* \"#utility.yul\":5231:5253   */\n      swap1\n      pop\n        /* \"#utility.yul\":5122:5260   */\n      swap2\n      swap1\n      pop\n      jump\t// out\n        /* \"#utility.yul\":5266:5474   */\n    tag_95:\n        /* \"#utility.yul\":5389:5400   */\n      0x00\n        /* \"#utility.yul\":5423:5429   */\n      dup3\n        /* \"#utility.yul\":5418:5421   */\n      dup3\n        /* \"#utility.yul\":5411:5430   */\n      mstore\n        /* \"#utility.yul\":5463:5467   */\n      0x20\n        /* \"#utility.yul\":5458:5461   */\n      dup3\n        /* \"#utility.yul\":5454:5468   */\n      add\n        /* \"#utility.yul\":5439:5468   */\n      swap1\n      pop\n        /* \"#utility.yul\":5266:5474   */\n      swap3\n      swap2\n      pop\n      pop\n      jump\t// out\n        /* \"#utility.yul\":5480:5636   */\n    tag_96:\n        /* \"#utility.yul\":5571:5575   */\n      0x00\n        /* \"#utility.yul\":5594:5597   */\n      dup2\n        /* \"#utility.yul\":5586:5597   */\n      swap1\n      pop\n        /* \"#utility.yul\":5624:5628   */\n      0x20\n        /* \"#utility.yul\":5619:5622   */\n      dup3\n        /* \"#utility.yul\":5615:5629   */\n      add\n        /* \"#utility.yul\":5607:5629   */\n      swap1\n      pop\n        /* \"#utility.yul\":5480:5636   */\n      swap2\n      swap1\n      pop\n      jump\t// out\n        /* \"#utility.yul\":5642:5801   */\n    tag_97:\n        /* \"#utility.yul\":5716:5727   */\n      0x00\n        /* \"#utility.yul\":5750:5756   */\n      dup3\n        /* \"#utility.yul\":5745:5748   */\n      dup3\n        /* \"#utility.yul\":5738:5757   */\n      mstore\n        /* \"#utility.yul\":5790:5794   */\n      0x20\n        /* \"#utility.yul\":5785:5788   */\n      dup3\n        /* \"#utility.yul\":5781:5795   */\n      add\n        /* \"#utility.yul\":5766:5795   */\n      swap1\n      pop\n        /* \"#utility.yul\":5642:5801   */\n      swap3\n      swap2\n      pop\n      pop\n      jump\t// out\n        /* \"#utility.yul\":5807:6164   */\n    tag_98:\n        /* \"#utility.yul\":5885:5888   */\n      0x00\n        /* \"#utility.yul\":5913:5952   */\n      tag_192\n        /* \"#utility.yul\":5946:5951   */\n      dup3\n        /* \"#utility.yul\":5913:5952   */\n      tag_79\n      jump\t// in\n    tag_192:\n        /* \"#utility.yul\":5968:6029   */\n      tag_193\n        /* \"#utility.yul\":6022:6028   */\n      dup2\n        /* \"#utility.yul\":6017:6020   */\n      dup6\n        /* \"#utility.yul\":5968:6029   */\n      tag_97\n      jump\t// in\n    tag_193:\n        /* \"#utility.yul\":5961:6029   */\n      swap4\n      pop\n        /* \"#utility.yul\":6038:6103   */\n      tag_194\n        /* \"#utility.yul\":6096:6102   */\n      dup2\n        /* \"#utility.yul\":6091:6094   */\n      dup6\n        /* \"#utility.yul\":6084:6088   */\n      0x20\n        /* \"#utility.yul\":6077:6082   */\n      dup7\n        /* \"#utility.yul\":6073:6089   */\n      add\n        /* \"#utility.yul\":6038:6103   */\n      tag_81\n      jump\t// in\n    tag_194:\n        /* \"#utility.yul\":6128:6157   */\n      tag_195\n        /* \"#utility.yul\":6150:6156   */\n      dup2\n        /* \"#utility.yul\":6128:6157   */\n      tag_82\n      jump\t// in\n    tag_195:\n        /* \"#utility.yul\":6123:6126   */\n      dup5\n        /* \"#utility.yul\":6119:6158   */\n      add\n        /* \"#utility.yul\":6112:6158   */\n      swap2\n      pop\n        /* \"#utility.yul\":5889:6164   */\n      pop\n        /* \"#utility.yul\":5807:6164   */\n      swap3\n      swap2\n      pop\n      pop\n      jump\t// out\n        /* \"#utility.yul\":6170:6278   */\n    tag_99:\n        /* \"#utility.yul\":6247:6271   */\n      tag_197\n        /* \"#utility.yul\":6265:6270   */\n      dup2\n        /* \"#utility.yul\":6247:6271   */\n      tag_76\n      jump\t// in\n    tag_197:\n        /* \"#utility.yul\":6242:6245   */\n      dup3\n        /* \"#utility.yul\":6235:6272   */\n      mstore\n        /* \"#utility.yul\":6170:6278   */\n      pop\n      pop\n      jump\t// out\n        /* \"#utility.yul\":6342:6941   */\n    tag_100:\n        /* \"#utility.yul\":6449:6452   */\n      0x00\n        /* \"#utility.yul\":6485:6489   */\n      0x40\n        /* \"#utility.yul\":6480:6483   */\n      dup4\n        /* \"#utility.yul\":6476:6490   */\n      add\n        /* \"#utility.yul\":6572:6576   */\n      0x00\n        /* \"#utility.yul\":6565:6570   */\n      dup4\n        /* \"#utility.yul\":6561:6577   */\n      add\n        /* \"#utility.yul\":6555:6578   */\n      mload\n        /* \"#utility.yul\":6625:6628   */\n      dup5\n        /* \"#utility.yul\":6619:6623   */\n      dup3\n        /* \"#utility.yul\":6615:6629   */\n      sub\n        /* \"#utility.yul\":6608:6612   */\n      0x00\n        /* \"#utility.yul\":6603:6606   */\n      dup7\n        /* \"#utility.yul\":6599:6613   */\n      add\n        /* \"#utility.yul\":6592:6630   */\n      mstore\n        /* \"#utility.yul\":6651:6724   */\n      tag_199\n        /* \"#utility.yul\":6719:6723   */\n      dup3\n        /* \"#utility.yul\":6705:6717   */\n      dup3\n        /* \"#utility.yul\":6651:6724   */\n      tag_98\n      jump\t// in\n    tag_199:\n        /* \"#utility.yul\":6643:6724   */\n      swap2\n      pop\n        /* \"#utility.yul\":6500:6735   */\n      pop\n        /* \"#utility.yul\":6822:6826   */\n      0x20\n        /* \"#utility.yul\":6815:6820   */\n      dup4\n        /* \"#utility.yul\":6811:6827   */\n      add\n        /* \"#utility.yul\":6805:6828   */\n      mload\n        /* \"#utility.yul\":6841:6904   */\n      tag_200\n        /* \"#utility.yul\":6898:6902   */\n      0x20\n        /* \"#utility.yul\":6893:6896   */\n      dup7\n        /* \"#utility.yul\":6889:6903   */\n      add\n        /* \"#utility.yul\":6875:6887   */\n      dup3\n        /* \"#utility.yul\":6841:6904   */\n      tag_99\n      jump\t// in\n    tag_200:\n        /* \"#utility.yul\":6745:6914   */\n      pop\n        /* \"#utility.yul\":6931:6935   */\n      dup1\n        /* \"#utility.yul\":6924:6935   */\n      swap2\n      pop\n        /* \"#utility.yul\":6454:6941   */\n      pop\n        /* \"#utility.yul\":6342:6941   */\n      swap3\n      swap2\n      pop\n      pop\n      jump\t// out\n        /* \"#utility.yul\":6947:7199   */\n    tag_101:\n        /* \"#utility.yul\":7064:7074   */\n      0x00\n        /* \"#utility.yul\":7099:7193   */\n      tag_202\n        /* \"#utility.yul\":7189:7192   */\n      dup4\n        /* \"#utility.yul\":7181:7187   */\n      dup4\n        /* \"#utility.yul\":7099:7193   */\n      tag_100\n      jump\t// in\n    tag_202:\n        /* \"#utility.yul\":7085:7193   */\n      swap1\n      pop\n        /* \"#utility.yul\":6947:7199   */\n      swap3\n      swap2\n      pop\n      pop\n      jump\t// out\n        /* \"#utility.yul\":7205:7342   */\n    tag_102:\n        /* \"#utility.yul\":7299:7303   */\n      0x00\n        /* \"#utility.yul\":7331:7335   */\n      0x20\n        /* \"#utility.yul\":7326:7329   */\n      dup3\n        /* \"#utility.yul\":7322:7336   */\n      add\n        /* \"#utility.yul\":7314:7336   */\n      swap1\n      pop\n        /* \"#utility.yul\":7205:7342   */\n      swap2\n      swap1\n      pop\n      jump\t// out\n        /* \"#utility.yul\":7410:8513   */\n    tag_103:\n        /* \"#utility.yul\":7577:7580   */\n      0x00\n        /* \"#utility.yul\":7606:7684   */\n      tag_205\n        /* \"#utility.yul\":7678:7683   */\n      dup3\n        /* \"#utility.yul\":7606:7684   */\n      tag_94\n      jump\t// in\n    tag_205:\n        /* \"#utility.yul\":7700:7810   */\n      tag_206\n        /* \"#utility.yul\":7803:7809   */\n      dup2\n        /* \"#utility.yul\":7798:7801   */\n      dup6\n        /* \"#utility.yul\":7700:7810   */\n      tag_95\n      jump\t// in\n    tag_206:\n        /* \"#utility.yul\":7693:7810   */\n      swap4\n      pop\n        /* \"#utility.yul\":7836:7839   */\n      dup4\n        /* \"#utility.yul\":7881:7885   */\n      0x20\n        /* \"#utility.yul\":7873:7879   */\n      dup3\n        /* \"#utility.yul\":7869:7886   */\n      mul\n        /* \"#utility.yul\":7864:7867   */\n      dup6\n        /* \"#utility.yul\":7860:7887   */\n      add\n        /* \"#utility.yul\":7911:7991   */\n      tag_207\n        /* \"#utility.yul\":7985:7990   */\n      dup6\n        /* \"#utility.yul\":7911:7991   */\n      tag_96\n      jump\t// in\n    tag_207:\n        /* \"#utility.yul\":8014:8021   */\n      dup1\n        /* \"#utility.yul\":8045:8046   */\n      0x00\n        /* \"#utility.yul\":8030:8468   */\n    tag_208:\n        /* \"#utility.yul\":8055:8061   */\n      dup6\n        /* \"#utility.yul\":8052:8053   */\n      dup2\n        /* \"#utility.yul\":8049:8062   */\n      lt\n        /* \"#utility.yul\":8030:8468   */\n      iszero\n      tag_210\n      jumpi\n        /* \"#utility.yul\":8126:8135   */\n      dup5\n        /* \"#utility.yul\":8120:8124   */\n      dup5\n        /* \"#utility.yul\":8116:8136   */\n      sub\n        /* \"#utility.yul\":8111:8114   */\n      dup10\n        /* \"#utility.yul\":8104:8137   */\n      mstore\n        /* \"#utility.yul\":8177:8183   */\n      dup2\n        /* \"#utility.yul\":8171:8184   */\n      mload\n        /* \"#utility.yul\":8205:8317   */\n      tag_211\n        /* \"#utility.yul\":8312:8316   */\n      dup6\n        /* \"#utility.yul\":8297:8310   */\n      dup3\n        /* \"#utility.yul\":8205:8317   */\n      tag_101\n      jump\t// in\n    tag_211:\n        /* \"#utility.yul\":8197:8317   */\n      swap5\n      pop\n        /* \"#utility.yul\":8340:8424   */\n      tag_212\n        /* \"#utility.yul\":8417:8423   */\n      dup4\n        /* \"#utility.yul\":8340:8424   */\n      tag_102\n      jump\t// in\n    tag_212:\n        /* \"#utility.yul\":8330:8424   */\n      swap3\n      pop\n        /* \"#utility.yul\":8453:8457   */\n      0x20\n        /* \"#utility.yul\":8448:8451   */\n      dup11\n        /* \"#utility.yul\":8444:8458   */\n      add\n        /* \"#utility.yul\":8437:8458   */\n      swap10\n      pop\n        /* \"#utility.yul\":8090:8468   */\n      pop\n        /* \"#utility.yul\":8077:8078   */\n      0x01\n        /* \"#utility.yul\":8074:8075   */\n      dup2\n        /* \"#utility.yul\":8070:8079   */\n      add\n        /* \"#utility.yul\":8065:8079   */\n      swap1\n      pop\n        /* \"#utility.yul\":8030:8468   */\n      jump(tag_208)\n    tag_210:\n        /* \"#utility.yul\":8034:8048   */\n      pop\n        /* \"#utility.yul\":8484:8488   */\n      dup3\n        /* \"#utility.yul\":8477:8488   */\n      swap8\n      pop\n        /* \"#utility.yul\":8504:8507   */\n      dup8\n        /* \"#utility.yul\":8497:8507   */\n      swap6\n      pop\n        /* \"#utility.yul\":7582:8513   */\n      pop\n      pop\n      pop\n      pop\n      pop\n        /* \"#utility.yul\":7410:8513   */\n      swap3\n      swap2\n      pop\n      pop\n      jump\t// out\n        /* \"#utility.yul\":8519:8988   */\n    tag_24:\n        /* \"#utility.yul\":8710:8714   */\n      0x00\n        /* \"#utility.yul\":8748:8750   */\n      0x20\n        /* \"#utility.yul\":8737:8746   */\n      dup3\n        /* \"#utility.yul\":8733:8751   */\n      add\n        /* \"#utility.yul\":8725:8751   */\n      swap1\n      pop\n        /* \"#utility.yul\":8797:8806   */\n      dup2\n        /* \"#utility.yul\":8791:8795   */\n      dup2\n        /* \"#utility.yul\":8787:8807   */\n      sub\n        /* \"#utility.yul\":8783:8784   */\n      0x00\n        /* \"#utility.yul\":8772:8781   */\n      dup4\n        /* \"#utility.yul\":8768:8785   */\n      add\n        /* \"#utility.yul\":8761:8808   */\n      mstore\n        /* \"#utility.yul\":8825:8981   */\n      tag_214\n        /* \"#utility.yul\":8976:8980   */\n      dup2\n        /* \"#utility.yul\":8967:8973   */\n      dup5\n        /* \"#utility.yul\":8825:8981   */\n      tag_103\n      jump\t// in\n    tag_214:\n        /* \"#utility.yul\":8817:8981   */\n      swap1\n      pop\n        /* \"#utility.yul\":8519:8988   */\n      swap3\n      swap2\n      pop\n      pop\n      jump\t// out\n        /* \"#utility.yul\":8994:9120   */\n    tag_104:\n        /* \"#utility.yul\":9031:9038   */\n      0x00\n        /* \"#utility.yul\":9071:9113   */\n      0xffffffffffffffffffffffffffffffffffffffff\n        /* \"#utility.yul\":9064:9069   */\n      dup3\n        /* \"#utility.yul\":9060:9114   */\n      and\n        /* \"#utility.yul\":9049:9114   */\n      swap1\n      pop\n        /* \"#utility.yul\":8994:9120   */\n      swap2\n      swap1\n      pop\n      jump\t// out\n        /* \"#utility.yul\":9126:9222   */\n    tag_105:\n        /* \"#utility.yul\":9163:9170   */\n      0x00\n        /* \"#utility.yul\":9192:9216   */\n      tag_217\n        /* \"#utility.yul\":9210:9215   */\n      dup3\n        /* \"#utility.yul\":9192:9216   */\n      tag_104\n      jump\t// in\n    tag_217:\n        /* \"#utility.yul\":9181:9216   */\n      swap1\n      pop\n        /* \"#utility.yul\":9126:9222   */\n      swap2\n      swap1\n      pop\n      jump\t// out\n        /* \"#utility.yul\":9228:9346   */\n    tag_106:\n        /* \"#utility.yul\":9315:9339   */\n      tag_219\n        /* \"#utility.yul\":9333:9338   */\n      dup2\n        /* \"#utility.yul\":9315:9339   */\n      tag_105\n      jump\t// in\n    tag_219:\n        /* \"#utility.yul\":9310:9313   */\n      dup3\n        /* \"#utility.yul\":9303:9340   */\n      mstore\n        /* \"#utility.yul\":9228:9346   */\n      pop\n      pop\n      jump\t// out\n        /* \"#utility.yul\":9352:9574   */\n    tag_29:\n        /* \"#utility.yul\":9445:9449   */\n      0x00\n        /* \"#utility.yul\":9483:9485   */\n      0x20\n        /* \"#utility.yul\":9472:9481   */\n      dup3\n        /* \"#utility.yul\":9468:9486   */\n      add\n        /* \"#utility.yul\":9460:9486   */\n      swap1\n      pop\n        /* \"#utility.yul\":9496:9567   */\n      tag_221\n        /* \"#utility.yul\":9564:9565   */\n      0x00\n        /* \"#utility.yul\":9553:9562   */\n      dup4\n        /* \"#utility.yul\":9549:9566   */\n      add\n        /* \"#utility.yul\":9540:9546   */\n      dup5\n        /* \"#utility.yul\":9496:9567   */\n      tag_106\n      jump\t// in\n    tag_221:\n        /* \"#utility.yul\":9352:9574   */\n      swap3\n      swap2\n      pop\n      pop\n      jump\t// out\n        /* \"#utility.yul\":9580:9760   */\n    tag_36:\n        /* \"#utility.yul\":9628:9705   */\n      0x4e487b7100000000000000000000000000000000000000000000000000000000\n        /* \"#utility.yul\":9625:9626   */\n      0x00\n        /* \"#utility.yul\":9618:9706   */\n      mstore\n        /* \"#utility.yul\":9725:9729   */\n      0x32\n        /* \"#utility.yul\":9722:9723   */\n      0x04\n        /* \"#utility.yul\":9715:9730   */\n      mstore\n        /* \"#utility.yul\":9749:9753   */\n      0x24\n        /* \"#utility.yul\":9746:9747   */\n      0x00\n        /* \"#utility.yul\":9739:9754   */\n      revert\n        /* \"#utility.yul\":9766:9939   */\n    tag_107:\n        /* \"#utility.yul\":9906:9931   */\n      0x596f75206861766520616c726561647920766f7465642e000000000000000000\n        /* \"#utility.yul\":9902:9903   */\n      0x00\n        /* \"#utility.yul\":9894:9900   */\n      dup3\n        /* \"#utility.yul\":9890:9904   */\n      add\n        /* \"#utility.yul\":9883:9932   */\n      mstore\n        /* \"#utility.yul\":9766:9939   */\n      pop\n      jump\t// out\n        /* \"#utility.yul\":9945:10311   */\n    tag_108:\n        /* \"#utility.yul\":10087:10090   */\n      0x00\n        /* \"#utility.yul\":10108:10175   */\n      tag_225\n        /* \"#utility.yul\":10172:10174   */\n      0x17\n        /* \"#utility.yul\":10167:10170   */\n      dup4\n        /* \"#utility.yul\":10108:10175   */\n      tag_80\n      jump\t// in\n    tag_225:\n        /* \"#utility.yul\":10101:10175   */\n      swap2\n      pop\n        /* \"#utility.yul\":10184:10277   */\n      tag_226\n        /* \"#utility.yul\":10273:10276   */\n      dup3\n        /* \"#utility.yul\":10184:10277   */\n      tag_107\n      jump\t// in\n    tag_226:\n        /* \"#utility.yul\":10302:10304   */\n      0x20\n        /* \"#utility.yul\":10297:10300   */\n      dup3\n        /* \"#utility.yul\":10293:10305   */\n      add\n        /* \"#utility.yul\":10286:10305   */\n      swap1\n      pop\n        /* \"#utility.yul\":9945:10311   */\n      swap2\n      swap1\n      pop\n      jump\t// out\n        /* \"#utility.yul\":10317:10736   */\n    tag_40:\n        /* \"#utility.yul\":10483:10487   */\n      0x00\n        /* \"#utility.yul\":10521:10523   */\n      0x20\n        /* \"#utility.yul\":10510:10519   */\n      dup3\n        /* \"#utility.yul\":10506:10524   */\n      add\n        /* \"#utility.yul\":10498:10524   */\n      swap1\n      pop\n        /* \"#utility.yul\":10570:10579   */\n      dup2\n        /* \"#utility.yul\":10564:10568   */\n      dup2\n        /* \"#utility.yul\":10560:10580   */\n      sub\n        /* \"#utility.yul\":10556:10557   */\n      0x00\n        /* \"#utility.yul\":10545:10554   */\n      dup4\n        /* \"#utility.yul\":10541:10558   */\n      add\n        /* \"#utility.yul\":10534:10581   */\n      mstore\n        /* \"#utility.yul\":10598:10729   */\n      tag_228\n        /* \"#utility.yul\":10724:10728   */\n      dup2\n        /* \"#utility.yul\":10598:10729   */\n      tag_108\n      jump\t// in\n    tag_228:\n        /* \"#utility.yul\":10590:10729   */\n      swap1\n      pop\n        /* \"#utility.yul\":10317:10736   */\n      swap2\n      swap1\n      pop\n      jump\t// out\n        /* \"#utility.yul\":10742:10910   */\n    tag_109:\n        /* \"#utility.yul\":10882:10902   */\n      0x496e76616c69642063616e6469646174652e0000000000000000000000000000\n        /* \"#utility.yul\":10878:10879   */\n      0x00\n        /* \"#utility.yul\":10870:10876   */\n      dup3\n        /* \"#utility.yul\":10866:10880   */\n      add\n        /* \"#utility.yul\":10859:10903   */\n      mstore\n        /* \"#utility.yul\":10742:10910   */\n      pop\n      jump\t// out\n        /* \"#utility.yul\":10916:11282   */\n    tag_110:\n        /* \"#utility.yul\":11058:11061   */\n      0x00\n        /* \"#utility.yul\":11079:11146   */\n      tag_231\n        /* \"#utility.yul\":11143:11145   */\n      0x12\n        /* \"#utility.yul\":11138:11141   */\n      dup4\n        /* \"#utility.yul\":11079:11146   */\n      tag_80\n      jump\t// in\n    tag_231:\n        /* \"#utility.yul\":11072:11146   */\n      swap2\n      pop\n        /* \"#utility.yul\":11155:11248   */\n      tag_232\n        /* \"#utility.yul\":11244:11247   */\n      dup3\n        /* \"#utility.yul\":11155:11248   */\n      tag_109\n      jump\t// in\n    tag_232:\n        /* \"#utility.yul\":11273:11275   */\n      0x20\n        /* \"#utility.yul\":11268:11271   */\n      dup3\n        /* \"#utility.yul\":11264:11276   */\n      add\n        /* \"#utility.yul\":11257:11276   */\n      swap1\n      pop\n        /* \"#utility.yul\":10916:11282   */\n      swap2\n      swap1\n      pop\n      jump\t// out\n        /* \"#utility.yul\":11288:11707   */\n    tag_43:\n        /* \"#utility.yul\":11454:11458   */\n      0x00\n        /* \"#utility.yul\":11492:11494   */\n      0x20\n        /* \"#utility.yul\":11481:11490   */\n      dup3\n        /* \"#utility.yul\":11477:11495   */\n      add\n        /* \"#utility.yul\":11469:11495   */\n      swap1\n      pop\n        /* \"#utility.yul\":11541:11550   */\n      dup2\n        /* \"#utility.yul\":11535:11539   */\n      dup2\n        /* \"#utility.yul\":11531:11551   */\n      sub\n        /* \"#utility.yul\":11527:11528   */\n      0x00\n        /* \"#utility.yul\":11516:11525   */\n      dup4\n        /* \"#utility.yul\":11512:11529   */\n      add\n        /* \"#utility.yul\":11505:11552   */\n      mstore\n        /* \"#utility.yul\":11569:11700   */\n      tag_234\n        /* \"#utility.yul\":11695:11699   */\n      dup2\n        /* \"#utility.yul\":11569:11700   */\n      tag_110\n      jump\t// in\n    tag_234:\n        /* \"#utility.yul\":11561:11700   */\n      swap1\n      pop\n        /* \"#utility.yul\":11288:11707   */\n      swap2\n      swap1\n      pop\n      jump\t// out\n        /* \"#utility.yul\":11713:11893   */\n    tag_111:\n        /* \"#utility.yul\":11761:11838   */\n      0x4e487b7100000000000000000000000000000000000000000000000000000000\n        /* \"#utility.yul\":11758:11759   */\n      0x00\n        /* \"#utility.yul\":11751:11839   */\n      mstore\n        /* \"#utility.yul\":11858:11862   */\n      0x11\n        /* \"#utility.yul\":11855:11856   */\n      0x04\n        /* \"#utility.yul\":11848:11863   */\n      mstore\n        /* \"#utility.yul\":11882:11886   */\n      0x24\n        /* \"#utility.yul\":11879:11880   */\n      0x00\n        /* \"#utility.yul\":11872:11887   */\n      revert\n        /* \"#utility.yul\":11899:12132   */\n    tag_48:\n        /* \"#utility.yul\":11938:11941   */\n      0x00\n        /* \"#utility.yul\":11961:11985   */\n      tag_237\n        /* \"#utility.yul\":11979:11984   */\n      dup3\n        /* \"#utility.yul\":11961:11985   */\n      tag_76\n      jump\t// in\n    tag_237:\n        /* \"#utility.yul\":11952:11985   */\n      swap2\n      pop\n        /* \"#utility.yul\":12007:12073   */\n      0xffffffffffffffffffffffffffffffffffffffffffffffffffffffffffffffff\n        /* \"#utility.yul\":12000:12005   */\n      dup3\n        /* \"#utility.yul\":11997:12074   */\n      sub\n        /* \"#utility.yul\":11994:12097   */\n      tag_238\n      jumpi\n        /* \"#utility.yul\":12077:12095   */\n      tag_239\n      tag_111\n      jump\t// in\n    tag_239:\n        /* \"#utility.yul\":11994:12097   */\n    tag_238:\n        /* \"#utility.yul\":12124:12125   */\n      0x01\n        /* \"#utility.yul\":12117:12122   */\n      dup3\n        /* \"#utility.yul\":12113:12126   */\n      add\n        /* \"#utility.yul\":12106:12126   */\n      swap1\n      pop\n        /* \"#utility.yul\":11899:12132   */\n      swap2\n      swap1\n      pop\n      jump\t// out\n        /* \"#utility.yul\":12138:12318   */\n    tag_112:\n        /* \"#utility.yul\":12186:12263   */\n      0x4e487b7100000000000000000000000000000000000000000000000000000000\n        /* \"#utility.yul\":12183:12184   */\n      0x00\n        /* \"#utility.yul\":12176:12264   */\n      mstore\n        /* \"#utility.yul\":12283:12287   */\n      0x22\n        /* \"#utility.yul\":12280:12281   */\n      0x04\n        /* \"#utility.yul\":12273:12288   */\n      mstore\n        /* \"#utility.yul\":12307:12311   */\n      0x24\n        /* \"#utility.yul\":12304:12305   */\n      0x00\n        /* \"#utility.yul\":12297:12312   */\n      revert\n        /* \"#utility.yul\":12324:12644   */\n    tag_53:\n        /* \"#utility.yul\":12368:12374   */\n      0x00\n        /* \"#utility.yul\":12405:12406   */\n      0x02\n        /* \"#utility.yul\":12399:12403   */\n      dup3\n        /* \"#utility.yul\":12395:12407   */\n      div\n        /* \"#utility.yul\":12385:12407   */\n      swap1\n      pop\n        /* \"#utility.yul\":12452:12453   */\n      0x01\n        /* \"#utility.yul\":12446:12450   */\n      dup3\n        /* \"#utility.yul\":12442:12454   */\n      and\n        /* \"#utility.yul\":12473:12491   */\n      dup1\n        /* \"#utility.yul\":12463:12544   */\n      tag_242\n      jumpi\n        /* \"#utility.yul\":12529:12533   */\n      0x7f\n        /* \"#utility.yul\":12521:12527   */\n      dup3\n        /* \"#utility.yul\":12517:12534   */\n      and\n        /* \"#utility.yul\":12507:12534   */\n      swap2\n      pop\n        /* \"#utility.yul\":12463:12544   */\n    tag_242:\n        /* \"#utility.yul\":12591:12593   */\n      0x20\n        /* \"#utility.yul\":12583:12589   */\n      dup3\n        /* \"#utility.yul\":12580:12594   */\n      lt\n        /* \"#utility.yul\":12560:12578   */\n      dup2\n        /* \"#utility.yul\":12557:12595   */\n      sub\n        /* \"#utility.yul\":12554:12638   */\n      tag_243\n      jumpi\n        /* \"#utility.yul\":12610:12628   */\n      tag_244\n      tag_112\n      jump\t// in\n    tag_244:\n        /* \"#utility.yul\":12554:12638   */\n    tag_243:\n        /* \"#utility.yul\":12375:12644   */\n      pop\n        /* \"#utility.yul\":12324:12644   */\n      swap2\n      swap1\n      pop\n      jump\t// out\n        /* \"#utility.yul\":12650:12791   */\n    tag_113:\n        /* \"#utility.yul\":12699:12703   */\n      0x00\n        /* \"#utility.yul\":12722:12725   */\n      dup2\n        /* \"#utility.yul\":12714:12725   */\n      swap1\n      pop\n        /* \"#utility.yul\":12745:12748   */\n      dup2\n        /* \"#utility.yul\":12742:12743   */\n      0x00\n        /* \"#utility.yul\":12735:12749   */\n      mstore\n        /* \"#utility.yul\":12779:12783   */\n      0x20\n        /* \"#utility.yul\":12776:12777   */\n      0x00\n        /* \"#utility.yul\":12766:12784   */\n      keccak256\n        /* \"#utility.yul\":12758:12784   */\n      swap1\n      pop\n        /* \"#utility.yul\":12650:12791   */\n      swap2\n      swap1\n      pop\n      jump\t// out\n        /* \"#utility.yul\":12797:12890   */\n    tag_114:\n        /* \"#utility.yul\":12834:12840   */\n      0x00\n        /* \"#utility.yul\":12881:12883   */\n      0x20\n        /* \"#utility.yul\":12876:12878   */\n      0x1f\n        /* \"#utility.yul\":12869:12874   */\n      dup4\n        /* \"#utility.yul\":12865:12879   */\n      add\n        /* \"#utility.yul\":12861:12884   */\n      div\n        /* \"#utility.yul\":12851:12884   */\n      swap1\n      pop\n        /* \"#utility.yul\":12797:12890   */\n      swap2\n      swap1\n      pop\n      jump\t// out\n        /* \"#utility.yul\":12896:13003   */\n    tag_115:\n        /* \"#utility.yul\":12940:12948   */\n      0x00\n        /* \"#utility.yul\":12990:12995   */\n      dup3\n        /* \"#utility.yul\":12984:12988   */\n      dup3\n        /* \"#utility.yul\":12980:12996   */\n      shl\n        /* \"#utility.yul\":12959:12996   */\n      swap1\n      pop\n        /* \"#utility.yul\":12896:13003   */\n      swap3\n      swap2\n      pop\n      pop\n      jump\t// out\n        /* \"#utility.yul\":13009:13402   */\n    tag_116:\n        /* \"#utility.yul\":13078:13084   */\n      0x00\n        /* \"#utility.yul\":13128:13129   */\n      0x08\n        /* \"#utility.yul\":13116:13126   */\n      dup4\n        /* \"#utility.yul\":13112:13130   */\n      mul\n        /* \"#utility.yul\":13151:13248   */\n      tag_249\n        /* \"#utility.yul\":13181:13247   */\n      0xffffffffffffffffffffffffffffffffffffffffffffffffffffffffffffffff\n        /* \"#utility.yul\":13170:13179   */\n      dup3\n        /* \"#utility.yul\":13151:13248   */\n      tag_115\n      jump\t// in\n    tag_249:\n        /* \"#utility.yul\":13269:13308   */\n      tag_250\n        /* \"#utility.yul\":13299:13307   */\n      dup7\n        /* \"#utility.yul\":13288:13297   */\n      dup4\n        /* \"#utility.yul\":13269:13308   */\n      tag_115\n      jump\t// in\n    tag_250:\n        /* \"#utility.yul\":13257:13308   */\n      swap6\n      pop\n        /* \"#utility.yul\":13341:13345   */\n      dup1\n        /* \"#utility.yul\":13337:13346   */\n      not\n        /* \"#utility.yul\":13330:13335   */\n      dup5\n        /* \"#utility.yul\":13326:13347   */\n      and\n        /* \"#utility.yul\":13317:13347   */\n      swap4\n      pop\n        /* \"#utility.yul\":13390:13394   */\n      dup1\n        /* \"#utility.yul\":13380:13388   */\n      dup7\n        /* \"#utility.yul\":13376:13395   */\n      and\n        /* \"#utility.yul\":13369:13374   */\n      dup5\n        /* \"#utility.yul\":13366:13396   */\n      or\n        /* \"#utility.yul\":13356:13396   */\n      swap3\n      pop\n        /* \"#utility.yul\":13085:13402   */\n      pop\n      pop\n        /* \"#utility.yul\":13009:13402   */\n      swap4\n      swap3\n      pop\n      pop\n      pop\n      jump\t// out\n        /* \"#utility.yul\":13408:13468   */\n    tag_117:\n        /* \"#utility.yul\":13436:13439   */\n      0x00\n        /* \"#utility.yul\":13457:13462   */\n      dup2\n        /* \"#utility.yul\":13450:13462   */\n      swap1\n      pop\n        /* \"#utility.yul\":13408:13468   */\n      swap2\n      swap1\n      pop\n      jump\t// out\n        /* \"#utility.yul\":13474:13616   */\n    tag_118:\n        /* \"#utility.yul\":13524:13533   */\n      0x00\n        /* \"#utility.yul\":13557:13610   */\n      tag_253\n        /* \"#utility.yul\":13575:13609   */\n      tag_254\n        /* \"#utility.yul\":13584:13608   */\n      tag_255\n        /* \"#utility.yul\":13602:13607   */\n      dup5\n        /* \"#utility.yul\":13584:13608   */\n      tag_76\n      jump\t// in\n    tag_255:\n        /* \"#utility.yul\":13575:13609   */\n      tag_117\n      jump\t// in\n    tag_254:\n        /* \"#utility.yul\":13557:13610   */\n      tag_76\n      jump\t// in\n    tag_253:\n        /* \"#utility.yul\":13544:13610   */\n      swap1\n      pop\n        /* \"#utility.yul\":13474:13616   */\n      swap2\n      swap1\n      pop\n      jump\t// out\n        /* \"#utility.yul\":13622:13697   */\n    tag_119:\n        /* \"#utility.yul\":13665:13668   */\n      0x00\n        /* \"#utility.yul\":13686:13691   */\n      dup2\n        /* \"#utility.yul\":13679:13691   */\n      swap1\n      pop\n        /* \"#utility.yul\":13622:13697   */\n      swap2\n      swap1\n      pop\n      jump\t// out\n        /* \"#utility.yul\":13703:13972   */\n    tag_120:\n        /* \"#utility.yul\":13813:13852   */\n      tag_258\n        /* \"#utility.yul\":13844:13851   */\n      dup4\n        /* \"#utility.yul\":13813:13852   */\n      tag_118\n      jump\t// in\n    tag_258:\n        /* \"#utility.yul\":13874:13965   */\n      tag_259\n        /* \"#utility.yul\":13923:13964   */\n      tag_260\n        /* \"#utility.yul\":13947:13963   */\n      dup3\n        /* \"#utility.yul\":13923:13964   */\n      tag_119\n      jump\t// in\n    tag_260:\n        /* \"#utility.yul\":13915:13921   */\n      dup5\n        /* \"#utility.yul\":13908:13912   */\n      dup5\n        /* \"#utility.yul\":13902:13913   */\n      sload\n        /* \"#utility.yul\":13874:13965   */\n      tag_116\n      jump\t// in\n    tag_259:\n        /* \"#utility.yul\":13868:13872   */\n      dup3\n        /* \"#utility.yul\":13861:13966   */\n      sstore\n        /* \"#utility.yul\":13779:13972   */\n      pop\n        /* \"#utility.yul\":13703:13972   */\n      pop\n      pop\n      pop\n      jump\t// out\n        /* \"#utility.yul\":13978:14051   */\n    tag_121:\n        /* \"#utility.yul\":14023:14026   */\n      0x00\n        /* \"#utility.yul\":13978:14051   */\n      swap1\n      jump\t// out\n        /* \"#utility.yul\":14057:14246   */\n    tag_122:\n        /* \"#utility.yul\":14134:14166   */\n      tag_263\n      tag_121\n      jump\t// in\n    tag_263:\n        /* \"#utility.yul\":14175:14240   */\n      tag_264\n        /* \"#utility.yul\":14233:14239   */\n      dup2\n        /* \"#utility.yul\":14225:14231   */\n      dup5\n        /* \"#utility.yul\":14219:14223   */\n      dup5\n        /* \"#utility.yul\":14175:14240   */\n      tag_120\n      jump\t// in\n    tag_264:\n        /* \"#utility.yul\":14110:14246   */\n      pop\n        /* \"#utility.yul\":14057:14246   */\n      pop\n      pop\n      jump\t// out\n        /* \"#utility.yul\":14252:14438   */\n    tag_123:\n        /* \"#utility.yul\":14312:14432   */\n    tag_266:\n        /* \"#utility.yul\":14329:14332   */\n      dup2\n        /* \"#utility.yul\":14322:14327   */\n      dup2\n        /* \"#utility.yul\":14319:14333   */\n      lt\n        /* \"#utility.yul\":14312:14432   */\n      iszero\n      tag_268\n      jumpi\n        /* \"#utility.yul\":14383:14422   */\n      tag_269\n        /* \"#utility.yul\":14420:14421   */\n      0x00\n        /* \"#utility.yul\":14413:14418   */\n      dup3\n        /* \"#utility.yul\":14383:14422   */\n      tag_122\n      jump\t// in\n    tag_269:\n        /* \"#utility.yul\":14356:14357   */\n      0x01\n        /* \"#utility.yul\":14349:14354   */\n      dup2\n        /* \"#utility.yul\":14345:14358   */\n      add\n        /* \"#utility.yul\":14336:14358   */\n      swap1\n      pop\n        /* \"#utility.yul\":14312:14432   */\n      jump(tag_266)\n    tag_268:\n        /* \"#utility.yul\":14252:14438   */\n      pop\n      pop\n      jump\t// out\n        /* \"#utility.yul\":14444:14987   */\n    tag_124:\n        /* \"#utility.yul\":14545:14547   */\n      0x1f\n        /* \"#utility.yul\":14540:14543   */\n      dup3\n        /* \"#utility.yul\":14537:14548   */\n      gt\n        /* \"#utility.yul\":14534:14980   */\n      iszero\n      tag_271\n      jumpi\n        /* \"#utility.yul\":14579:14617   */\n      tag_272\n        /* \"#utility.yul\":14611:14616   */\n      dup2\n        /* \"#utility.yul\":14579:14617   */\n      tag_113\n      jump\t// in\n    tag_272:\n        /* \"#utility.yul\":14663:14692   */\n      tag_273\n        /* \"#utility.yul\":14681:14691   */\n      dup5\n        /* \"#utility.yul\":14663:14692   */\n      tag_114\n      jump\t// in\n    tag_273:\n        /* \"#utility.yul\":14653:14661   */\n      dup2\n        /* \"#utility.yul\":14649:14693   */\n      add\n        /* \"#utility.yul\":14846:14848   */\n      0x20\n        /* \"#utility.yul\":14834:14844   */\n      dup6\n        /* \"#utility.yul\":14831:14849   */\n      lt\n        /* \"#utility.yul\":14828:14877   */\n      iszero\n      tag_274\n      jumpi\n        /* \"#utility.yul\":14867:14875   */\n      dup2\n        /* \"#utility.yul\":14852:14875   */\n      swap1\n      pop\n        /* \"#utility.yul\":14828:14877   */\n    tag_274:\n        /* \"#utility.yul\":14890:14970   */\n      tag_275\n        /* \"#utility.yul\":14946:14968   */\n      tag_276\n        /* \"#utility.yul\":14964:14967   */\n      dup6\n        /* \"#utility.yul\":14946:14968   */\n      tag_114\n      jump\t// in\n    tag_276:\n        /* \"#utility.yul\":14936:14944   */\n      dup4\n        /* \"#utility.yul\":14932:14969   */\n      add\n        /* \"#utility.yul\":14919:14930   */\n      dup3\n        /* \"#utility.yul\":14890:14970   */\n      tag_123\n      jump\t// in\n    tag_275:\n        /* \"#utility.yul\":14549:14980   */\n      pop\n      pop\n        /* \"#utility.yul\":14534:14980   */\n    tag_271:\n        /* \"#utility.yul\":14444:14987   */\n      pop\n      pop\n      pop\n      jump\t// out\n        /* \"#utility.yul\":14993:15110   */\n    tag_125:\n        /* \"#utility.yul\":15047:15055   */\n      0x00\n        /* \"#utility.yul\":15097:15102   */\n      dup3\n        /* \"#utility.yul\":15091:15095   */\n      dup3\n        /* \"#utility.yul\":15087:15103   */\n      shr\n        /* \"#utility.yul\":15066:15103   */\n      swap1\n      pop\n        /* \"#utility.yul\":14993:15110   */\n      swap3\n      swap2\n      pop\n      pop\n      jump\t// out\n        /* \"#utility.yul\":15116:15285   */\n    tag_126:\n        /* \"#utility.yul\":15160:15166   */\n      0x00\n        /* \"#utility.yul\":15193:15244   */\n      tag_279\n        /* \"#utility.yul\":15241:15242   */\n      0x00\n        /* \"#utility.yul\":15237:15243   */\n      not\n        /* \"#utility.yul\":15229:15234   */\n      dup5\n        /* \"#utility.yul\":15226:15227   */\n      0x08\n        /* \"#utility.yul\":15222:15235   */\n      mul\n        /* \"#utility.yul\":15193:15244   */\n      tag_125\n      jump\t// in\n    tag_279:\n        /* \"#utility.yul\":15189:15245   */\n      not\n        /* \"#utility.yul\":15274:15278   */\n      dup1\n        /* \"#utility.yul\":15268:15272   */\n      dup4\n        /* \"#utility.yul\":15264:15279   */\n      and\n        /* \"#utility.yul\":15254:15279   */\n      swap2\n      pop\n        /* \"#utility.yul\":15167:15285   */\n      pop\n        /* \"#utility.yul\":15116:15285   */\n      swap3\n      swap2\n      pop\n      pop\n      jump\t// out\n        /* \"#utility.yul\":15290:15585   */\n    tag_127:\n        /* \"#utility.yul\":15366:15370   */\n      0x00\n        /* \"#utility.yul\":15512:15541   */\n      tag_281\n        /* \"#utility.yul\":15537:15540   */\n      dup4\n        /* \"#utility.yul\":15531:15535   */\n      dup4\n        /* \"#utility.yul\":15512:15541   */\n      tag_126\n      jump\t// in\n    tag_281:\n        /* \"#utility.yul\":15504:15541   */\n      swap2\n      pop\n        /* \"#utility.yul\":15574:15577   */\n      dup3\n        /* \"#utility.yul\":15571:15572   */\n      0x02\n        /* \"#utility.yul\":15567:15578   */\n      mul\n        /* \"#utility.yul\":15561:15565   */\n      dup3\n        /* \"#utility.yul\":15558:15579   */\n      or\n        /* \"#utility.yul\":15550:15579   */\n      swap1\n      pop\n        /* \"#utility.yul\":15290:15585   */\n      swap3\n      swap2\n      pop\n      pop\n      jump\t// out\n        /* \"#utility.yul\":15590:16985   */\n    tag_61:\n        /* \"#utility.yul\":15707:15744   */\n      tag_283\n        /* \"#utility.yul\":15740:15743   */\n      dup3\n        /* \"#utility.yul\":15707:15744   */\n      tag_79\n      jump\t// in\n    tag_283:\n        /* \"#utility.yul\":15809:15827   */\n      0xffffffffffffffff\n        /* \"#utility.yul\":15801:15807   */\n      dup2\n        /* \"#utility.yul\":15798:15828   */\n      gt\n        /* \"#utility.yul\":15795:15851   */\n      iszero\n      tag_284\n      jumpi\n        /* \"#utility.yul\":15831:15849   */\n      tag_285\n      tag_87\n      jump\t// in\n    tag_285:\n        /* \"#utility.yul\":15795:15851   */\n    tag_284:\n        /* \"#utility.yul\":15875:15913   */\n      tag_286\n        /* \"#utility.yul\":15907:15911   */\n      dup3\n        /* \"#utility.yul\":15901:15912   */\n      sload\n        /* \"#utility.yul\":15875:15913   */\n      tag_53\n      jump\t// in\n    tag_286:\n        /* \"#utility.yul\":15960:16027   */\n      tag_287\n        /* \"#utility.yul\":16020:16026   */\n      dup3\n        /* \"#utility.yul\":16012:16018   */\n      dup3\n        /* \"#utility.yul\":16006:16010   */\n      dup6\n        /* \"#utility.yul\":15960:16027   */\n      tag_124\n      jump\t// in\n    tag_287:\n        /* \"#utility.yul\":16054:16055   */\n      0x00\n        /* \"#utility.yul\":16078:16082   */\n      0x20\n        /* \"#utility.yul\":16065:16082   */\n      swap1\n      pop\n        /* \"#utility.yul\":16110:16112   */\n      0x1f\n        /* \"#utility.yul\":16102:16108   */\n      dup4\n        /* \"#utility.yul\":16099:16113   */\n      gt\n        /* \"#utility.yul\":16127:16128   */\n      0x01\n        /* \"#utility.yul\":16122:16740   */\n      dup2\n      eq\n      tag_289\n      jumpi\n        /* \"#utility.yul\":16784:16785   */\n      0x00\n        /* \"#utility.yul\":16801:16807   */\n      dup5\n        /* \"#utility.yul\":16798:16875   */\n      iszero\n      tag_290\n      jumpi\n        /* \"#utility.yul\":16850:16859   */\n      dup3\n        /* \"#utility.yul\":16845:16848   */\n      dup8\n        /* \"#utility.yul\":16841:16860   */\n      add\n        /* \"#utility.yul\":16835:16861   */\n      mload\n        /* \"#utility.yul\":16826:16861   */\n      swap1\n      pop\n        /* \"#utility.yul\":16798:16875   */\n    tag_290:\n        /* \"#utility.yul\":16901:16968   */\n      tag_291\n        /* \"#utility.yul\":16961:16967   */\n      dup6\n        /* \"#utility.yul\":16954:16959   */\n      dup3\n        /* \"#utility.yul\":16901:16968   */\n      tag_127\n      jump\t// in\n    tag_291:\n        /* \"#utility.yul\":16895:16899   */\n      dup7\n        /* \"#utility.yul\":16888:16969   */\n      sstore\n        /* \"#utility.yul\":16757:16979   */\n      pop\n        /* \"#utility.yul\":16092:16979   */\n      jump(tag_288)\n        /* \"#utility.yul\":16122:16740   */\n    tag_289:\n        /* \"#utility.yul\":16174:16178   */\n      0x1f\n        /* \"#utility.yul\":16170:16179   */\n      not\n        /* \"#utility.yul\":16162:16168   */\n      dup5\n        /* \"#utility.yul\":16158:16180   */\n      and\n        /* \"#utility.yul\":16208:16245   */\n      tag_292\n        /* \"#utility.yul\":16240:16244   */\n      dup7\n        /* \"#utility.yul\":16208:16245   */\n      tag_113\n      jump\t// in\n    tag_292:\n        /* \"#utility.yul\":16267:16268   */\n      0x00\n        /* \"#utility.yul\":16281:16489   */\n    tag_293:\n        /* \"#utility.yul\":16295:16302   */\n      dup3\n        /* \"#utility.yul\":16292:16293   */\n      dup2\n        /* \"#utility.yul\":16289:16303   */\n      lt\n        /* \"#utility.yul\":16281:16489   */\n      iszero\n      tag_295\n      jumpi\n        /* \"#utility.yul\":16374:16383   */\n      dup5\n        /* \"#utility.yul\":16369:16372   */\n      dup10\n        /* \"#utility.yul\":16365:16384   */\n      add\n        /* \"#utility.yul\":16359:16385   */\n      mload\n        /* \"#utility.yul\":16351:16357   */\n      dup3\n        /* \"#utility.yul\":16344:16386   */\n      sstore\n        /* \"#utility.yul\":16425:16426   */\n      0x01\n        /* \"#utility.yul\":16417:16423   */\n      dup3\n        /* \"#utility.yul\":16413:16427   */\n      add\n        /* \"#utility.yul\":16403:16427   */\n      swap2\n      pop\n        /* \"#utility.yul\":16472:16474   */\n      0x20\n        /* \"#utility.yul\":16461:16470   */\n      dup6\n        /* \"#utility.yul\":16457:16475   */\n      add\n        /* \"#utility.yul\":16444:16475   */\n      swap5\n      pop\n        /* \"#utility.yul\":16318:16322   */\n      0x20\n        /* \"#utility.yul\":16315:16316   */\n      dup2\n        /* \"#utility.yul\":16311:16323   */\n      add\n        /* \"#utility.yul\":16306:16323   */\n      swap1\n      pop\n        /* \"#utility.yul\":16281:16489   */\n      jump(tag_293)\n    tag_295:\n        /* \"#utility.yul\":16517:16523   */\n      dup7\n        /* \"#utility.yul\":16508:16515   */\n      dup4\n        /* \"#utility.yul\":16505:16524   */\n      lt\n        /* \"#utility.yul\":16502:16681   */\n      iszero\n      tag_296\n      jumpi\n        /* \"#utility.yul\":16575:16584   */\n      dup5\n        /* \"#utility.yul\":16570:16573   */\n      dup10\n        /* \"#utility.yul\":16566:16585   */\n      add\n        /* \"#utility.yul\":16560:16586   */\n      mload\n        /* \"#utility.yul\":16618:16666   */\n      tag_297\n        /* \"#utility.yul\":16660:16664   */\n      0x1f\n        /* \"#utility.yul\":16652:16658   */\n      dup10\n        /* \"#utility.yul\":16648:16665   */\n      and\n        /* \"#utility.yul\":16637:16646   */\n      dup3\n        /* \"#utility.yul\":16618:16666   */\n      tag_126\n      jump\t// in\n    tag_297:\n        /* \"#utility.yul\":16610:16616   */\n      dup4\n        /* \"#utility.yul\":16603:16667   */\n      sstore\n        /* \"#utility.yul\":16525:16681   */\n      pop\n        /* \"#utility.yul\":16502:16681   */\n    tag_296:\n        /* \"#utility.yul\":16727:16728   */\n      0x01\n        /* \"#utility.yul\":16723:16724   */\n      0x02\n        /* \"#utility.yul\":16715:16721   */\n      dup9\n        /* \"#utility.yul\":16711:16725   */\n      mul\n        /* \"#utility.yul\":16707:16729   */\n      add\n        /* \"#utility.yul\":16701:16705   */\n      dup9\n        /* \"#utility.yul\":16694:16730   */\n      sstore\n        /* \"#utility.yul\":16129:16740   */\n      pop\n      pop\n      pop\n        /* \"#utility.yul\":16092:16979   */\n    tag_288:\n      pop\n        /* \"#utility.yul\":15682:16985   */\n      pop\n      pop\n      pop\n        /* \"#utility.yul\":15590:16985   */\n      pop\n      pop\n      jump\t// out\n\n    auxdata: 0xa26469706673582212203e1e969b5881c50943aa2b62ef2497ff1d59d485ab1a798357c3432b573b8f3464736f6c634300081a0033\n}\n",
				"bytecode": {
					"linkReferences": {},
					"object": "6080604052348015600e575f80fd5b50610dbb8061001c5f395ff3fe608060405234801561000f575f80fd5b5060043610610055575f3560e01c80630121b93f146100595780633477ee2e14610075578063462e91ec146100a65780634717f97c146100c2578063da58c7d9146100e0575b5f80fd5b610073600480360381019061006e919061053c565b610110565b005b61008f600480360381019061008a919061053c565b6102b6565b60405161009d9291906105e6565b60405180910390f35b6100c060048036038101906100bb9190610740565b61036a565b005b6100ca6103c9565b6040516100d791906108d3565b60405180910390f35b6100fa60048036038101906100f5919061053c565b6104bd565b6040516101079190610932565b60405180910390f35b5f5b6001805490508110156101d5573373ffffffffffffffffffffffffffffffffffffffff166001828154811061014a5761014961094b565b5b905f5260205f20015f9054906101000a900473ffffffffffffffffffffffffffffffffffffffff1673ffffffffffffffffffffffffffffffffffffffff16036101c8576040517f08c379a00000000000000000000000000000000000000000000000000000000081526004016101bf906109c2565b60405180910390fd5b8080600101915050610112565b505f80549050811061021c576040517f08c379a000000000000000000000000000000000000000000000000000000000815260040161021390610a2a565b60405180910390fd5b5f818154811061022f5761022e61094b565b5b905f5260205f2090600202016001015f81548092919061024e90610a75565b9190505550600133908060018154018082558091505060019003905f5260205f20015f9091909190916101000a81548173ffffffffffffffffffffffffffffffffffffffff021916908373ffffffffffffffffffffffffffffffffffffffff16021790555050565b5f81815481106102c4575f80fd5b905f5260205f2090600202015f91509050805f0180546102e390610ae9565b80601f016020809104026020016040519081016040528092919081815260200182805461030f90610ae9565b801561035a5780601f106103315761010080835404028352916020019161035a565b820191905f5260205f20905b81548152906001019060200180831161033d57829003601f168201915b5050505050908060010154905082565b5f60405180604001604052808381526020015f815250908060018154018082558091505060019003905f5260205f2090600202015f909190919091505f820151815f0190816103b99190610cb6565b5060208201518160010155505050565b60605f805480602002602001604051908101604052809291908181526020015f905b828210156104b4578382905f5260205f2090600202016040518060400160405290815f8201805461041b90610ae9565b80601f016020809104026020016040519081016040528092919081815260200182805461044790610ae9565b80156104925780601f1061046957610100808354040283529160200191610492565b820191905f5260205f20905b81548152906001019060200180831161047557829003601f168201915b50505050508152602001600182015481525050815260200190600101906103eb565b50505050905090565b600181815481106104cc575f80fd5b905f5260205f20015f915054906101000a900473ffffffffffffffffffffffffffffffffffffffff1681565b5f604051905090565b5f80fd5b5f80fd5b5f819050919050565b61051b81610509565b8114610525575f80fd5b50565b5f8135905061053681610512565b92915050565b5f6020828403121561055157610550610501565b5b5f61055e84828501610528565b91505092915050565b5f81519050919050565b5f82825260208201905092915050565b8281835e5f83830152505050565b5f601f19601f8301169050919050565b5f6105a982610567565b6105b38185610571565b93506105c3818560208601610581565b6105cc8161058f565b840191505092915050565b6105e081610509565b82525050565b5f6040820190508181035f8301526105fe818561059f565b905061060d60208301846105d7565b9392505050565b5f80fd5b5f80fd5b7f4e487b71000000000000000000000000000000000000000000000000000000005f52604160045260245ffd5b6106528261058f565b810181811067ffffffffffffffff821117156106715761067061061c565b5b80604052505050565b5f6106836104f8565b905061068f8282610649565b919050565b5f67ffffffffffffffff8211156106ae576106ad61061c565b5b6106b78261058f565b9050602081019050919050565b828183375f83830152505050565b5f6106e46106df84610694565b61067a565b905082815260208101848484011115610700576106ff610618565b5b61070b8482856106c4565b509392505050565b5f82601f83011261072757610726610614565b5b81356107378482602086016106d2565b91505092915050565b5f6020828403121561075557610754610501565b5b5f82013567ffffffffffffffff81111561077257610771610505565b5b61077e84828501610713565b91505092915050565b5f81519050919050565b5f82825260208201905092915050565b5f819050602082019050919050565b5f82825260208201905092915050565b5f6107ca82610567565b6107d481856107b0565b93506107e4818560208601610581565b6107ed8161058f565b840191505092915050565b61080181610509565b82525050565b5f604083015f8301518482035f86015261082182826107c0565b915050602083015161083660208601826107f8565b508091505092915050565b5f61084c8383610807565b905092915050565b5f602082019050919050565b5f61086a82610787565b6108748185610791565b935083602082028501610886856107a1565b805f5b858110156108c157848403895281516108a28582610841565b94506108ad83610854565b925060208a01995050600181019050610889565b50829750879550505050505092915050565b5f6020820190508181035f8301526108eb8184610860565b905092915050565b5f73ffffffffffffffffffffffffffffffffffffffff82169050919050565b5f61091c826108f3565b9050919050565b61092c81610912565b82525050565b5f6020820190506109455f830184610923565b92915050565b7f4e487b71000000000000000000000000000000000000000000000000000000005f52603260045260245ffd5b7f596f75206861766520616c726561647920766f7465642e0000000000000000005f82015250565b5f6109ac601783610571565b91506109b782610978565b602082019050919050565b5f6020820190508181035f8301526109d9816109a0565b9050919050565b7f496e76616c69642063616e6469646174652e00000000000000000000000000005f82015250565b5f610a14601283610571565b9150610a1f826109e0565b602082019050919050565b5f6020820190508181035f830152610a4181610a08565b9050919050565b7f4e487b71000000000000000000000000000000000000000000000000000000005f52601160045260245ffd5b5f610a7f82610509565b91507fffffffffffffffffffffffffffffffffffffffffffffffffffffffffffffffff8203610ab157610ab0610a48565b5b600182019050919050565b7f4e487b71000000000000000000000000000000000000000000000000000000005f52602260045260245ffd5b5f6002820490506001821680610b0057607f821691505b602082108103610b1357610b12610abc565b5b50919050565b5f819050815f5260205f209050919050565b5f6020601f8301049050919050565b5f82821b905092915050565b5f60088302610b757fffffffffffffffffffffffffffffffffffffffffffffffffffffffffffffffff82610b3a565b610b7f8683610b3a565b95508019841693508086168417925050509392505050565b5f819050919050565b5f610bba610bb5610bb084610509565b610b97565b610509565b9050919050565b5f819050919050565b610bd383610ba0565b610be7610bdf82610bc1565b848454610b46565b825550505050565b5f90565b610bfb610bef565b610c06818484610bca565b505050565b5b81811015610c2957610c1e5f82610bf3565b600181019050610c0c565b5050565b601f821115610c6e57610c3f81610b19565b610c4884610b2b565b81016020851015610c57578190505b610c6b610c6385610b2b565b830182610c0b565b50505b505050565b5f82821c905092915050565b5f610c8e5f1984600802610c73565b1980831691505092915050565b5f610ca68383610c7f565b9150826002028217905092915050565b610cbf82610567565b67ffffffffffffffff811115610cd857610cd761061c565b5b610ce28254610ae9565b610ced828285610c2d565b5f60209050601f831160018114610d1e575f8415610d0c578287015190505b610d168582610c9b565b865550610d7d565b601f198416610d2c86610b19565b5f5b82811015610d5357848901518255600182019150602085019450602081019050610d2e565b86831015610d705784890151610d6c601f891682610c7f565b8355505b6001600288020188555050505b50505050505056fea26469706673582212203e1e969b5881c50943aa2b62ef2497ff1d59d485ab1a798357c3432b573b8f3464736f6c634300081a0033",
					"opcodes": "PUSH1 0x80 PUSH1 0x40 MSTORE CALLVALUE DUP1 ISZERO PUSH1 0xE JUMPI PUSH0 DUP1 REVERT JUMPDEST POP PUSH2 0xDBB DUP1 PUSH2 0x1C PUSH0 CODECOPY PUSH0 RETURN INVALID PUSH1 0x80 PUSH1 0x40 MSTORE CALLVALUE DUP1 ISZERO PUSH2 0xF JUMPI PUSH0 DUP1 REVERT JUMPDEST POP PUSH1 0x4 CALLDATASIZE LT PUSH2 0x55 JUMPI PUSH0 CALLDATALOAD PUSH1 0xE0 SHR DUP1 PUSH4 0x121B93F EQ PUSH2 0x59 JUMPI DUP1 PUSH4 0x3477EE2E EQ PUSH2 0x75 JUMPI DUP1 PUSH4 0x462E91EC EQ PUSH2 0xA6 JUMPI DUP1 PUSH4 0x4717F97C EQ PUSH2 0xC2 JUMPI DUP1 PUSH4 0xDA58C7D9 EQ PUSH2 0xE0 JUMPI JUMPDEST PUSH0 DUP1 REVERT JUMPDEST PUSH2 0x73 PUSH1 0x4 DUP1 CALLDATASIZE SUB DUP2 ADD SWAP1 PUSH2 0x6E SWAP2 SWAP1 PUSH2 0x53C JUMP JUMPDEST PUSH2 0x110 JUMP JUMPDEST STOP JUMPDEST PUSH2 0x8F PUSH1 0x4 DUP1 CALLDATASIZE SUB DUP2 ADD SWAP1 PUSH2 0x8A SWAP2 SWAP1 PUSH2 0x53C JUMP JUMPDEST PUSH2 0x2B6 JUMP JUMPDEST PUSH1 0x40 MLOAD PUSH2 0x9D SWAP3 SWAP2 SWAP1 PUSH2 0x5E6 JUMP JUMPDEST PUSH1 0x40 MLOAD DUP1 SWAP2 SUB SWAP1 RETURN JUMPDEST PUSH2 0xC0 PUSH1 0x4 DUP1 CALLDATASIZE SUB DUP2 ADD SWAP1 PUSH2 0xBB SWAP2 SWAP1 PUSH2 0x740 JUMP JUMPDEST PUSH2 0x36A JUMP JUMPDEST STOP JUMPDEST PUSH2 0xCA PUSH2 0x3C9 JUMP JUMPDEST PUSH1 0x40 MLOAD PUSH2 0xD7 SWAP2 SWAP1 PUSH2 0x8D3 JUMP JUMPDEST PUSH1 0x40 MLOAD DUP1 SWAP2 SUB SWAP1 RETURN JUMPDEST PUSH2 0xFA PUSH1 0x4 DUP1 CALLDATASIZE SUB DUP2 ADD SWAP1 PUSH2 0xF5 SWAP2 SWAP1 PUSH2 0x53C JUMP JUMPDEST PUSH2 0x4BD JUMP JUMPDEST PUSH1 0x40 MLOAD PUSH2 0x107 SWAP2 SWAP1 PUSH2 0x932 JUMP JUMPDEST PUSH1 0x40 MLOAD DUP1 SWAP2 SUB SWAP1 RETURN JUMPDEST PUSH0 JUMPDEST PUSH1 0x1 DUP1 SLOAD SWAP1 POP DUP2 LT ISZERO PUSH2 0x1D5 JUMPI CALLER PUSH20 0xFFFFFFFFFFFFFFFFFFFFFFFFFFFFFFFFFFFFFFFF AND PUSH1 0x1 DUP3 DUP2 SLOAD DUP2 LT PUSH2 0x14A JUMPI PUSH2 0x149 PUSH2 0x94B JUMP JUMPDEST JUMPDEST SWAP1 PUSH0 MSTORE PUSH1 0x20 PUSH0 KECCAK256 ADD PUSH0 SWAP1 SLOAD SWAP1 PUSH2 0x100 EXP SWAP1 DIV PUSH20 0xFFFFFFFFFFFFFFFFFFFFFFFFFFFFFFFFFFFFFFFF AND PUSH20 0xFFFFFFFFFFFFFFFFFFFFFFFFFFFFFFFFFFFFFFFF AND SUB PUSH2 0x1C8 JUMPI PUSH1 0x40 MLOAD PUSH32 0x8C379A000000000000000000000000000000000000000000000000000000000 DUP2 MSTORE PUSH1 0x4 ADD PUSH2 0x1BF SWAP1 PUSH2 0x9C2 JUMP JUMPDEST PUSH1 0x40 MLOAD DUP1 SWAP2 SUB SWAP1 REVERT JUMPDEST DUP1 DUP1 PUSH1 0x1 ADD SWAP2 POP POP PUSH2 0x112 JUMP JUMPDEST POP PUSH0 DUP1 SLOAD SWAP1 POP DUP2 LT PUSH2 0x21C JUMPI PUSH1 0x40 MLOAD PUSH32 0x8C379A000000000000000000000000000000000000000000000000000000000 DUP2 MSTORE PUSH1 0x4 ADD PUSH2 0x213 SWAP1 PUSH2 0xA2A JUMP JUMPDEST PUSH1 0x40 MLOAD DUP1 SWAP2 SUB SWAP1 REVERT JUMPDEST PUSH0 DUP2 DUP2 SLOAD DUP2 LT PUSH2 0x22F JUMPI PUSH2 0x22E PUSH2 0x94B JUMP JUMPDEST JUMPDEST SWAP1 PUSH0 MSTORE PUSH1 0x20 PUSH0 KECCAK256 SWAP1 PUSH1 0x2 MUL ADD PUSH1 0x1 ADD PUSH0 DUP2 SLOAD DUP1 SWAP3 SWAP2 SWAP1 PUSH2 0x24E SWAP1 PUSH2 0xA75 JUMP JUMPDEST SWAP2 SWAP1 POP SSTORE POP PUSH1 0x1 CALLER SWAP1 DUP1 PUSH1 0x1 DUP2 SLOAD ADD DUP1 DUP3 SSTORE DUP1 SWAP2 POP POP PUSH1 0x1 SWAP1 SUB SWAP1 PUSH0 MSTORE PUSH1 0x20 PUSH0 KECCAK256 ADD PUSH0 SWAP1 SWAP2 SWAP1 SWAP2 SWAP1 SWAP2 PUSH2 0x100 EXP DUP2 SLOAD DUP2 PUSH20 0xFFFFFFFFFFFFFFFFFFFFFFFFFFFFFFFFFFFFFFFF MUL NOT AND SWAP1 DUP4 PUSH20 0xFFFFFFFFFFFFFFFFFFFFFFFFFFFFFFFFFFFFFFFF AND MUL OR SWAP1 SSTORE POP POP JUMP JUMPDEST PUSH0 DUP2 DUP2 SLOAD DUP2 LT PUSH2 0x2C4 JUMPI PUSH0 DUP1 REVERT JUMPDEST SWAP1 PUSH0 MSTORE PUSH1 0x20 PUSH0 KECCAK256 SWAP1 PUSH1 0x2 MUL ADD PUSH0 SWAP2 POP SWAP1 POP DUP1 PUSH0 ADD DUP1 SLOAD PUSH2 0x2E3 SWAP1 PUSH2 0xAE9 JUMP JUMPDEST DUP1 PUSH1 0x1F ADD PUSH1 0x20 DUP1 SWAP2 DIV MUL PUSH1 0x20 ADD PUSH1 0x40 MLOAD SWAP1 DUP2 ADD PUSH1 0x40 MSTORE DUP1 SWAP3 SWAP2 SWAP1 DUP2 DUP2 MSTORE PUSH1 0x20 ADD DUP3 DUP1 SLOAD PUSH2 0x30F SWAP1 PUSH2 0xAE9 JUMP JUMPDEST DUP1 ISZERO PUSH2 0x35A JUMPI DUP1 PUSH1 0x1F LT PUSH2 0x331 JUMPI PUSH2 0x100 DUP1 DUP4 SLOAD DIV MUL DUP4 MSTORE SWAP2 PUSH1 0x20 ADD SWAP2 PUSH2 0x35A JUMP JUMPDEST DUP3 ADD SWAP2 SWAP1 PUSH0 MSTORE PUSH1 0x20 PUSH0 KECCAK256 SWAP1 JUMPDEST DUP2 SLOAD DUP2 MSTORE SWAP1 PUSH1 0x1 ADD SWAP1 PUSH1 0x20 ADD DUP1 DUP4 GT PUSH2 0x33D JUMPI DUP3 SWAP1 SUB PUSH1 0x1F AND DUP3 ADD SWAP2 JUMPDEST POP POP POP POP POP SWAP1 DUP1 PUSH1 0x1 ADD SLOAD SWAP1 POP DUP3 JUMP JUMPDEST PUSH0 PUSH1 0x40 MLOAD DUP1 PUSH1 0x40 ADD PUSH1 0x40 MSTORE DUP1 DUP4 DUP2 MSTORE PUSH1 0x20 ADD PUSH0 DUP2 MSTORE POP SWAP1 DUP1 PUSH1 0x1 DUP2 SLOAD ADD DUP1 DUP3 SSTORE DUP1 SWAP2 POP POP PUSH1 0x1 SWAP1 SUB SWAP1 PUSH0 MSTORE PUSH1 0x20 PUSH0 KECCAK256 SWAP1 PUSH1 0x2 MUL ADD PUSH0 SWAP1 SWAP2 SWAP1 SWAP2 SWAP1 SWAP2 POP PUSH0 DUP3 ADD MLOAD DUP2 PUSH0 ADD SWAP1 DUP2 PUSH2 0x3B9 SWAP2 SWAP1 PUSH2 0xCB6 JUMP JUMPDEST POP PUSH1 0x20 DUP3 ADD MLOAD DUP2 PUSH1 0x1 ADD SSTORE POP POP POP JUMP JUMPDEST PUSH1 0x60 PUSH0 DUP1 SLOAD DUP1 PUSH1 0x20 MUL PUSH1 0x20 ADD PUSH1 0x40 MLOAD SWAP1 DUP2 ADD PUSH1 0x40 MSTORE DUP1 SWAP3 SWAP2 SWAP1 DUP2 DUP2 MSTORE PUSH1 0x20 ADD PUSH0 SWAP1 JUMPDEST DUP3 DUP3 LT ISZERO PUSH2 0x4B4 JUMPI DUP4 DUP3 SWAP1 PUSH0 MSTORE PUSH1 0x20 PUSH0 KECCAK256 SWAP1 PUSH1 0x2 MUL ADD PUSH1 0x40 MLOAD DUP1 PUSH1 0x40 ADD PUSH1 0x40 MSTORE SWAP1 DUP2 PUSH0 DUP3 ADD DUP1 SLOAD PUSH2 0x41B SWAP1 PUSH2 0xAE9 JUMP JUMPDEST DUP1 PUSH1 0x1F ADD PUSH1 0x20 DUP1 SWAP2 DIV MUL PUSH1 0x20 ADD PUSH1 0x40 MLOAD SWAP1 DUP2 ADD PUSH1 0x40 MSTORE DUP1 SWAP3 SWAP2 SWAP1 DUP2 DUP2 MSTORE PUSH1 0x20 ADD DUP3 DUP1 SLOAD PUSH2 0x447 SWAP1 PUSH2 0xAE9 JUMP JUMPDEST DUP1 ISZERO PUSH2 0x492 JUMPI DUP1 PUSH1 0x1F LT PUSH2 0x469 JUMPI PUSH2 0x100 DUP1 DUP4 SLOAD DIV MUL DUP4 MSTORE SWAP2 PUSH1 0x20 ADD SWAP2 PUSH2 0x492 JUMP JUMPDEST DUP3 ADD SWAP2 SWAP1 PUSH0 MSTORE PUSH1 0x20 PUSH0 KECCAK256 SWAP1 JUMPDEST DUP2 SLOAD DUP2 MSTORE SWAP1 PUSH1 0x1 ADD SWAP1 PUSH1 0x20 ADD DUP1 DUP4 GT PUSH2 0x475 JUMPI DUP3 SWAP1 SUB PUSH1 0x1F AND DUP3 ADD SWAP2 JUMPDEST POP POP POP POP POP DUP2 MSTORE PUSH1 0x20 ADD PUSH1 0x1 DUP3 ADD SLOAD DUP2 MSTORE POP POP DUP2 MSTORE PUSH1 0x20 ADD SWAP1 PUSH1 0x1 ADD SWAP1 PUSH2 0x3EB JUMP JUMPDEST POP POP POP POP SWAP1 POP SWAP1 JUMP JUMPDEST PUSH1 0x1 DUP2 DUP2 SLOAD DUP2 LT PUSH2 0x4CC JUMPI PUSH0 DUP1 REVERT JUMPDEST SWAP1 PUSH0 MSTORE PUSH1 0x20 PUSH0 KECCAK256 ADD PUSH0 SWAP2 POP SLOAD SWAP1 PUSH2 0x100 EXP SWAP1 DIV PUSH20 0xFFFFFFFFFFFFFFFFFFFFFFFFFFFFFFFFFFFFFFFF AND DUP2 JUMP JUMPDEST PUSH0 PUSH1 0x40 MLOAD SWAP1 POP SWAP1 JUMP JUMPDEST PUSH0 DUP1 REVERT JUMPDEST PUSH0 DUP1 REVERT JUMPDEST PUSH0 DUP2 SWAP1 POP SWAP2 SWAP1 POP JUMP JUMPDEST PUSH2 0x51B DUP2 PUSH2 0x509 JUMP JUMPDEST DUP2 EQ PUSH2 0x525 JUMPI PUSH0 DUP1 REVERT JUMPDEST POP JUMP JUMPDEST PUSH0 DUP2 CALLDATALOAD SWAP1 POP PUSH2 0x536 DUP2 PUSH2 0x512 JUMP JUMPDEST SWAP3 SWAP2 POP POP JUMP JUMPDEST PUSH0 PUSH1 0x20 DUP3 DUP5 SUB SLT ISZERO PUSH2 0x551 JUMPI PUSH2 0x550 PUSH2 0x501 JUMP JUMPDEST JUMPDEST PUSH0 PUSH2 0x55E DUP5 DUP3 DUP6 ADD PUSH2 0x528 JUMP JUMPDEST SWAP2 POP POP SWAP3 SWAP2 POP POP JUMP JUMPDEST PUSH0 DUP2 MLOAD SWAP1 POP SWAP2 SWAP1 POP JUMP JUMPDEST PUSH0 DUP3 DUP3 MSTORE PUSH1 0x20 DUP3 ADD SWAP1 POP SWAP3 SWAP2 POP POP JUMP JUMPDEST DUP3 DUP2 DUP4 MCOPY PUSH0 DUP4 DUP4 ADD MSTORE POP POP POP JUMP JUMPDEST PUSH0 PUSH1 0x1F NOT PUSH1 0x1F DUP4 ADD AND SWAP1 POP SWAP2 SWAP1 POP JUMP JUMPDEST PUSH0 PUSH2 0x5A9 DUP3 PUSH2 0x567 JUMP JUMPDEST PUSH2 0x5B3 DUP2 DUP6 PUSH2 0x571 JUMP JUMPDEST SWAP4 POP PUSH2 0x5C3 DUP2 DUP6 PUSH1 0x20 DUP7 ADD PUSH2 0x581 JUMP JUMPDEST PUSH2 0x5CC DUP2 PUSH2 0x58F JUMP JUMPDEST DUP5 ADD SWAP2 POP POP SWAP3 SWAP2 POP POP JUMP JUMPDEST PUSH2 0x5E0 DUP2 PUSH2 0x509 JUMP JUMPDEST DUP3 MSTORE POP POP JUMP JUMPDEST PUSH0 PUSH1 0x40 DUP3 ADD SWAP1 POP DUP2 DUP2 SUB PUSH0 DUP4 ADD MSTORE PUSH2 0x5FE DUP2 DUP6 PUSH2 0x59F JUMP JUMPDEST SWAP1 POP PUSH2 0x60D PUSH1 0x20 DUP4 ADD DUP5 PUSH2 0x5D7 JUMP JUMPDEST SWAP4 SWAP3 POP POP POP JUMP JUMPDEST PUSH0 DUP1 REVERT JUMPDEST PUSH0 DUP1 REVERT JUMPDEST PUSH32 0x4E487B7100000000000000000000000000000000000000000000000000000000 PUSH0 MSTORE PUSH1 0x41 PUSH1 0x4 MSTORE PUSH1 0x24 PUSH0 REVERT JUMPDEST PUSH2 0x652 DUP3 PUSH2 0x58F JUMP JUMPDEST DUP2 ADD DUP2 DUP2 LT PUSH8 0xFFFFFFFFFFFFFFFF DUP3 GT OR ISZERO PUSH2 0x671 JUMPI PUSH2 0x670 PUSH2 0x61C JUMP JUMPDEST JUMPDEST DUP1 PUSH1 0x40 MSTORE POP POP POP JUMP JUMPDEST PUSH0 PUSH2 0x683 PUSH2 0x4F8 JUMP JUMPDEST SWAP1 POP PUSH2 0x68F DUP3 DUP3 PUSH2 0x649 JUMP JUMPDEST SWAP2 SWAP1 POP JUMP JUMPDEST PUSH0 PUSH8 0xFFFFFFFFFFFFFFFF DUP3 GT ISZERO PUSH2 0x6AE JUMPI PUSH2 0x6AD PUSH2 0x61C JUMP JUMPDEST JUMPDEST PUSH2 0x6B7 DUP3 PUSH2 0x58F JUMP JUMPDEST SWAP1 POP PUSH1 0x20 DUP2 ADD SWAP1 POP SWAP2 SWAP1 POP JUMP JUMPDEST DUP3 DUP2 DUP4 CALLDATACOPY PUSH0 DUP4 DUP4 ADD MSTORE POP POP POP JUMP JUMPDEST PUSH0 PUSH2 0x6E4 PUSH2 0x6DF DUP5 PUSH2 0x694 JUMP JUMPDEST PUSH2 0x67A JUMP JUMPDEST SWAP1 POP DUP3 DUP2 MSTORE PUSH1 0x20 DUP2 ADD DUP5 DUP5 DUP5 ADD GT ISZERO PUSH2 0x700 JUMPI PUSH2 0x6FF PUSH2 0x618 JUMP JUMPDEST JUMPDEST PUSH2 0x70B DUP5 DUP3 DUP6 PUSH2 0x6C4 JUMP JUMPDEST POP SWAP4 SWAP3 POP POP POP JUMP JUMPDEST PUSH0 DUP3 PUSH1 0x1F DUP4 ADD SLT PUSH2 0x727 JUMPI PUSH2 0x726 PUSH2 0x614 JUMP JUMPDEST JUMPDEST DUP2 CALLDATALOAD PUSH2 0x737 DUP5 DUP3 PUSH1 0x20 DUP7 ADD PUSH2 0x6D2 JUMP JUMPDEST SWAP2 POP POP SWAP3 SWAP2 POP POP JUMP JUMPDEST PUSH0 PUSH1 0x20 DUP3 DUP5 SUB SLT ISZERO PUSH2 0x755 JUMPI PUSH2 0x754 PUSH2 0x501 JUMP JUMPDEST JUMPDEST PUSH0 DUP3 ADD CALLDATALOAD PUSH8 0xFFFFFFFFFFFFFFFF DUP2 GT ISZERO PUSH2 0x772 JUMPI PUSH2 0x771 PUSH2 0x505 JUMP JUMPDEST JUMPDEST PUSH2 0x77E DUP5 DUP3 DUP6 ADD PUSH2 0x713 JUMP JUMPDEST SWAP2 POP POP SWAP3 SWAP2 POP POP JUMP JUMPDEST PUSH0 DUP2 MLOAD SWAP1 POP SWAP2 SWAP1 POP JUMP JUMPDEST PUSH0 DUP3 DUP3 MSTORE PUSH1 0x20 DUP3 ADD SWAP1 POP SWAP3 SWAP2 POP POP JUMP JUMPDEST PUSH0 DUP2 SWAP1 POP PUSH1 0x20 DUP3 ADD SWAP1 POP SWAP2 SWAP1 POP JUMP JUMPDEST PUSH0 DUP3 DUP3 MSTORE PUSH1 0x20 DUP3 ADD SWAP1 POP SWAP3 SWAP2 POP POP JUMP JUMPDEST PUSH0 PUSH2 0x7CA DUP3 PUSH2 0x567 JUMP JUMPDEST PUSH2 0x7D4 DUP2 DUP6 PUSH2 0x7B0 JUMP JUMPDEST SWAP4 POP PUSH2 0x7E4 DUP2 DUP6 PUSH1 0x20 DUP7 ADD PUSH2 0x581 JUMP JUMPDEST PUSH2 0x7ED DUP2 PUSH2 0x58F JUMP JUMPDEST DUP5 ADD SWAP2 POP POP SWAP3 SWAP2 POP POP JUMP JUMPDEST PUSH2 0x801 DUP2 PUSH2 0x509 JUMP JUMPDEST DUP3 MSTORE POP POP JUMP JUMPDEST PUSH0 PUSH1 0x40 DUP4 ADD PUSH0 DUP4 ADD MLOAD DUP5 DUP3 SUB PUSH0 DUP7 ADD MSTORE PUSH2 0x821 DUP3 DUP3 PUSH2 0x7C0 JUMP JUMPDEST SWAP2 POP POP PUSH1 0x20 DUP4 ADD MLOAD PUSH2 0x836 PUSH1 0x20 DUP7 ADD DUP3 PUSH2 0x7F8 JUMP JUMPDEST POP DUP1 SWAP2 POP POP SWAP3 SWAP2 POP POP JUMP JUMPDEST PUSH0 PUSH2 0x84C DUP4 DUP4 PUSH2 0x807 JUMP JUMPDEST SWAP1 POP SWAP3 SWAP2 POP POP JUMP JUMPDEST PUSH0 PUSH1 0x20 DUP3 ADD SWAP1 POP SWAP2 SWAP1 POP JUMP JUMPDEST PUSH0 PUSH2 0x86A DUP3 PUSH2 0x787 JUMP JUMPDEST PUSH2 0x874 DUP2 DUP6 PUSH2 0x791 JUMP JUMPDEST SWAP4 POP DUP4 PUSH1 0x20 DUP3 MUL DUP6 ADD PUSH2 0x886 DUP6 PUSH2 0x7A1 JUMP JUMPDEST DUP1 PUSH0 JUMPDEST DUP6 DUP2 LT ISZERO PUSH2 0x8C1 JUMPI DUP5 DUP5 SUB DUP10 MSTORE DUP2 MLOAD PUSH2 0x8A2 DUP6 DUP3 PUSH2 0x841 JUMP JUMPDEST SWAP5 POP PUSH2 0x8AD DUP4 PUSH2 0x854 JUMP JUMPDEST SWAP3 POP PUSH1 0x20 DUP11 ADD SWAP10 POP POP PUSH1 0x1 DUP2 ADD SWAP1 POP PUSH2 0x889 JUMP JUMPDEST POP DUP3 SWAP8 POP DUP8 SWAP6 POP POP POP POP POP POP SWAP3 SWAP2 POP POP JUMP JUMPDEST PUSH0 PUSH1 0x20 DUP3 ADD SWAP1 POP DUP2 DUP2 SUB PUSH0 DUP4 ADD MSTORE PUSH2 0x8EB DUP2 DUP5 PUSH2 0x860 JUMP JUMPDEST SWAP1 POP SWAP3 SWAP2 POP POP JUMP JUMPDEST PUSH0 PUSH20 0xFFFFFFFFFFFFFFFFFFFFFFFFFFFFFFFFFFFFFFFF DUP3 AND SWAP1 POP SWAP2 SWAP1 POP JUMP JUMPDEST PUSH0 PUSH2 0x91C DUP3 PUSH2 0x8F3 JUMP JUMPDEST SWAP1 POP SWAP2 SWAP1 POP JUMP JUMPDEST PUSH2 0x92C DUP2 PUSH2 0x912 JUMP JUMPDEST DUP3 MSTORE POP POP JUMP JUMPDEST PUSH0 PUSH1 0x20 DUP3 ADD SWAP1 POP PUSH2 0x945 PUSH0 DUP4 ADD DUP5 PUSH2 0x923 JUMP JUMPDEST SWAP3 SWAP2 POP POP JUMP JUMPDEST PUSH32 0x4E487B7100000000000000000000000000000000000000000000000000000000 PUSH0 MSTORE PUSH1 0x32 PUSH1 0x4 MSTORE PUSH1 0x24 PUSH0 REVERT JUMPDEST PUSH32 0x596F75206861766520616C726561647920766F7465642E000000000000000000 PUSH0 DUP3 ADD MSTORE POP JUMP JUMPDEST PUSH0 PUSH2 0x9AC PUSH1 0x17 DUP4 PUSH2 0x571 JUMP JUMPDEST SWAP2 POP PUSH2 0x9B7 DUP3 PUSH2 0x978 JUMP JUMPDEST PUSH1 0x20 DUP3 ADD SWAP1 POP SWAP2 SWAP1 POP JUMP JUMPDEST PUSH0 PUSH1 0x20 DUP3 ADD SWAP1 POP DUP2 DUP2 SUB PUSH0 DUP4 ADD MSTORE PUSH2 0x9D9 DUP2 PUSH2 0x9A0 JUMP JUMPDEST SWAP1 POP SWAP2 SWAP1 POP JUMP JUMPDEST PUSH32 0x496E76616C69642063616E6469646174652E0000000000000000000000000000 PUSH0 DUP3 ADD MSTORE POP JUMP JUMPDEST PUSH0 PUSH2 0xA14 PUSH1 0x12 DUP4 PUSH2 0x571 JUMP JUMPDEST SWAP2 POP PUSH2 0xA1F DUP3 PUSH2 0x9E0 JUMP JUMPDEST PUSH1 0x20 DUP3 ADD SWAP1 POP SWAP2 SWAP1 POP JUMP JUMPDEST PUSH0 PUSH1 0x20 DUP3 ADD SWAP1 POP DUP2 DUP2 SUB PUSH0 DUP4 ADD MSTORE PUSH2 0xA41 DUP2 PUSH2 0xA08 JUMP JUMPDEST SWAP1 POP SWAP2 SWAP1 POP JUMP JUMPDEST PUSH32 0x4E487B7100000000000000000000000000000000000000000000000000000000 PUSH0 MSTORE PUSH1 0x11 PUSH1 0x4 MSTORE PUSH1 0x24 PUSH0 REVERT JUMPDEST PUSH0 PUSH2 0xA7F DUP3 PUSH2 0x509 JUMP JUMPDEST SWAP2 POP PUSH32 0xFFFFFFFFFFFFFFFFFFFFFFFFFFFFFFFFFFFFFFFFFFFFFFFFFFFFFFFFFFFFFFFF DUP3 SUB PUSH2 0xAB1 JUMPI PUSH2 0xAB0 PUSH2 0xA48 JUMP JUMPDEST JUMPDEST PUSH1 0x1 DUP3 ADD SWAP1 POP SWAP2 SWAP1 POP JUMP JUMPDEST PUSH32 0x4E487B7100000000000000000000000000000000000000000000000000000000 PUSH0 MSTORE PUSH1 0x22 PUSH1 0x4 MSTORE PUSH1 0x24 PUSH0 REVERT JUMPDEST PUSH0 PUSH1 0x2 DUP3 DIV SWAP1 POP PUSH1 0x1 DUP3 AND DUP1 PUSH2 0xB00 JUMPI PUSH1 0x7F DUP3 AND SWAP2 POP JUMPDEST PUSH1 0x20 DUP3 LT DUP2 SUB PUSH2 0xB13 JUMPI PUSH2 0xB12 PUSH2 0xABC JUMP JUMPDEST JUMPDEST POP SWAP2 SWAP1 POP JUMP JUMPDEST PUSH0 DUP2 SWAP1 POP DUP2 PUSH0 MSTORE PUSH1 0x20 PUSH0 KECCAK256 SWAP1 POP SWAP2 SWAP1 POP JUMP JUMPDEST PUSH0 PUSH1 0x20 PUSH1 0x1F DUP4 ADD DIV SWAP1 POP SWAP2 SWAP1 POP JUMP JUMPDEST PUSH0 DUP3 DUP3 SHL SWAP1 POP SWAP3 SWAP2 POP POP JUMP JUMPDEST PUSH0 PUSH1 0x8 DUP4 MUL PUSH2 0xB75 PUSH32 0xFFFFFFFFFFFFFFFFFFFFFFFFFFFFFFFFFFFFFFFFFFFFFFFFFFFFFFFFFFFFFFFF DUP3 PUSH2 0xB3A JUMP JUMPDEST PUSH2 0xB7F DUP7 DUP4 PUSH2 0xB3A JUMP JUMPDEST SWAP6 POP DUP1 NOT DUP5 AND SWAP4 POP DUP1 DUP7 AND DUP5 OR SWAP3 POP POP POP SWAP4 SWAP3 POP POP POP JUMP JUMPDEST PUSH0 DUP2 SWAP1 POP SWAP2 SWAP1 POP JUMP JUMPDEST PUSH0 PUSH2 0xBBA PUSH2 0xBB5 PUSH2 0xBB0 DUP5 PUSH2 0x509 JUMP JUMPDEST PUSH2 0xB97 JUMP JUMPDEST PUSH2 0x509 JUMP JUMPDEST SWAP1 POP SWAP2 SWAP1 POP JUMP JUMPDEST PUSH0 DUP2 SWAP1 POP SWAP2 SWAP1 POP JUMP JUMPDEST PUSH2 0xBD3 DUP4 PUSH2 0xBA0 JUMP JUMPDEST PUSH2 0xBE7 PUSH2 0xBDF DUP3 PUSH2 0xBC1 JUMP JUMPDEST DUP5 DUP5 SLOAD PUSH2 0xB46 JUMP JUMPDEST DUP3 SSTORE POP POP POP POP JUMP JUMPDEST PUSH0 SWAP1 JUMP JUMPDEST PUSH2 0xBFB PUSH2 0xBEF JUMP JUMPDEST PUSH2 0xC06 DUP2 DUP5 DUP5 PUSH2 0xBCA JUMP JUMPDEST POP POP POP JUMP JUMPDEST JUMPDEST DUP2 DUP2 LT ISZERO PUSH2 0xC29 JUMPI PUSH2 0xC1E PUSH0 DUP3 PUSH2 0xBF3 JUMP JUMPDEST PUSH1 0x1 DUP2 ADD SWAP1 POP PUSH2 0xC0C JUMP JUMPDEST POP POP JUMP JUMPDEST PUSH1 0x1F DUP3 GT ISZERO PUSH2 0xC6E JUMPI PUSH2 0xC3F DUP2 PUSH2 0xB19 JUMP JUMPDEST PUSH2 0xC48 DUP5 PUSH2 0xB2B JUMP JUMPDEST DUP2 ADD PUSH1 0x20 DUP6 LT ISZERO PUSH2 0xC57 JUMPI DUP2 SWAP1 POP JUMPDEST PUSH2 0xC6B PUSH2 0xC63 DUP6 PUSH2 0xB2B JUMP JUMPDEST DUP4 ADD DUP3 PUSH2 0xC0B JUMP JUMPDEST POP POP JUMPDEST POP POP POP JUMP JUMPDEST PUSH0 DUP3 DUP3 SHR SWAP1 POP SWAP3 SWAP2 POP POP JUMP JUMPDEST PUSH0 PUSH2 0xC8E PUSH0 NOT DUP5 PUSH1 0x8 MUL PUSH2 0xC73 JUMP JUMPDEST NOT DUP1 DUP4 AND SWAP2 POP POP SWAP3 SWAP2 POP POP JUMP JUMPDEST PUSH0 PUSH2 0xCA6 DUP4 DUP4 PUSH2 0xC7F JUMP JUMPDEST SWAP2 POP DUP3 PUSH1 0x2 MUL DUP3 OR SWAP1 POP SWAP3 SWAP2 POP POP JUMP JUMPDEST PUSH2 0xCBF DUP3 PUSH2 0x567 JUMP JUMPDEST PUSH8 0xFFFFFFFFFFFFFFFF DUP2 GT ISZERO PUSH2 0xCD8 JUMPI PUSH2 0xCD7 PUSH2 0x61C JUMP JUMPDEST JUMPDEST PUSH2 0xCE2 DUP3 SLOAD PUSH2 0xAE9 JUMP JUMPDEST PUSH2 0xCED DUP3 DUP3 DUP6 PUSH2 0xC2D JUMP JUMPDEST PUSH0 PUSH1 0x20 SWAP1 POP PUSH1 0x1F DUP4 GT PUSH1 0x1 DUP2 EQ PUSH2 0xD1E JUMPI PUSH0 DUP5 ISZERO PUSH2 0xD0C JUMPI DUP3 DUP8 ADD MLOAD SWAP1 POP JUMPDEST PUSH2 0xD16 DUP6 DUP3 PUSH2 0xC9B JUMP JUMPDEST DUP7 SSTORE POP PUSH2 0xD7D JUMP JUMPDEST PUSH1 0x1F NOT DUP5 AND PUSH2 0xD2C DUP7 PUSH2 0xB19 JUMP JUMPDEST PUSH0 JUMPDEST DUP3 DUP2 LT ISZERO PUSH2 0xD53 JUMPI DUP5 DUP10 ADD MLOAD DUP3 SSTORE PUSH1 0x1 DUP3 ADD SWAP2 POP PUSH1 0x20 DUP6 ADD SWAP5 POP PUSH1 0x20 DUP2 ADD SWAP1 POP PUSH2 0xD2E JUMP JUMPDEST DUP7 DUP4 LT ISZERO PUSH2 0xD70 JUMPI DUP5 DUP10 ADD MLOAD PUSH2 0xD6C PUSH1 0x1F DUP10 AND DUP3 PUSH2 0xC7F JUMP JUMPDEST DUP4 SSTORE POP JUMPDEST PUSH1 0x1 PUSH1 0x2 DUP9 MUL ADD DUP9 SSTORE POP POP POP JUMPDEST POP POP POP POP POP POP JUMP INVALID LOG2 PUSH5 0x6970667358 0x22 SLT KECCAK256 RETURNDATACOPY 0x1E SWAP7 SWAP12 PC DUP2 0xC5 MULMOD NUMBER 0xAA 0x2B PUSH3 0xEF2497 SELFDESTRUCT SAR MSIZE 0xD4 DUP6 0xAB BYTE PUSH26 0x8357C3432B573B8F3464736F6C634300081A0033000000000000 "
				},
				"gasEstimates": {
					"creation": {
						"codeDepositCost": "703000",
						"executionCost": "732",
						"totalCost": "703732"
					},
					"external": {
						"addCandidate(string)": "infinite",
						"candidates(uint256)": "infinite",
						"getResults()": "infinite",
						"vote(uint256)": "infinite",
						"voters(uint256)": "5010"
					}
				},
				"methodIdentifiers": {
					"addCandidate(string)": "462e91ec",
					"candidates(uint256)": "3477ee2e",
					"getResults()": "4717f97c",
					"vote(uint256)": "0121b93f",
					"voters(uint256)": "da58c7d9"
				}
			},
			"storageLayout": {
				"storage": [
					{
						"astId": 10,
						"contract": "contracts/Vote.sol:Voting",
						"label": "candidates",
						"offset": 0,
						"slot": "0",
						"type": "t_array(t_struct(Candidate)6_storage)dyn_storage"
					},
					{
						"astId": 13,
						"contract": "contracts/Vote.sol:Voting",
						"label": "voters",
						"offset": 0,
						"slot": "1",
						"type": "t_array(t_address)dyn_storage"
					}
				],
				"types": {
					"t_address": {
						"encoding": "inplace",
						"label": "address",
						"numberOfBytes": "20"
					},
					"t_array(t_address)dyn_storage": {
						"base": "t_address",
						"encoding": "dynamic_array",
						"label": "address[]",
						"numberOfBytes": "32"
					},
					"t_array(t_struct(Candidate)6_storage)dyn_storage": {
						"base": "t_struct(Candidate)6_storage",
						"encoding": "dynamic_array",
						"label": "struct Voting.Candidate[]",
						"numberOfBytes": "32"
					},
					"t_string_storage": {
						"encoding": "bytes",
						"label": "string",
						"numberOfBytes": "32"
					},
					"t_struct(Candidate)6_storage": {
						"encoding": "inplace",
						"label": "struct Voting.Candidate",
						"members": [
							{
								"astId": 3,
								"contract": "contracts/Vote.sol:Voting",
								"label": "name",
								"offset": 0,
								"slot": "0",
								"type": "t_string_storage"
							},
							{
								"astId": 5,
								"contract": "contracts/Vote.sol:Voting",
								"label": "voteCount",
								"offset": 0,
								"slot": "1",
								"type": "t_uint256"
							}
						],
						"numberOfBytes": "64"
					},
					"t_uint256": {
						"encoding": "inplace",
						"label": "uint256",
						"numberOfBytes": "32"
					}
				}
			},
			"userdoc": {
				"kind": "user",
				"methods": {},
				"version": 1
			}
		}
	}
}