{
	"contracts/Tasks.sol": {
		"TaskManager": {
			"abi": [
				{
					"inputs": [
						{
							"internalType": "string",
							"name": "task",
							"type": "string"
						}
					],
					"name": "addTask",
					"outputs": [],
					"stateMutability": "nonpayable",
					"type": "function"
				},
				{
					"inputs": [],
					"name": "getTasks",
					"outputs": [
						{
							"internalType": "string[]",
							"name": "",
							"type": "string[]"
						}
					],
					"stateMutability": "view",
					"type": "function"
				},
				{
					"inputs": [
						{
							"internalType": "uint256",
							"name": "index",
							"type": "uint256"
						}
					],
					"name": "removeTask",
					"outputs": [],
					"stateMutability": "nonpayable",
					"type": "function"
				}
			],
			"devdoc": {
				"kind": "dev",
				"methods": {},
				"version": 1
			},
			"evm": {
				"assembly": "    /* \"contracts/Tasks.sol\":60:540  contract TaskManager {... */\n  mstore(0x40, 0x80)\n  callvalue\n  dup1\n  iszero\n  tag_1\n  jumpi\n  0x00\n  dup1\n  revert\ntag_1:\n  pop\n  dataSize(sub_0)\n  dup1\n  dataOffset(sub_0)\n  0x00\n  codecopy\n  0x00\n  return\nstop\n\nsub_0: assembly {\n        /* \"contracts/Tasks.sol\":60:540  contract TaskManager {... */\n      mstore(0x40, 0x80)\n      callvalue\n      dup1\n      iszero\n      tag_1\n      jumpi\n      0x00\n      dup1\n      revert\n    tag_1:\n      pop\n      jumpi(tag_2, lt(calldatasize, 0x04))\n      shr(0xe0, calldataload(0x00))\n      dup1\n      0x04a87e38\n      eq\n      tag_3\n      jumpi\n      dup1\n      0x67238562\n      eq\n      tag_4\n      jumpi\n      dup1\n      0xc3084117\n      eq\n      tag_5\n      jumpi\n    tag_2:\n      0x00\n      dup1\n      revert\n        /* \"contracts/Tasks.sol\":448:537  function getTasks() public view returns (string[] memory) {... */\n    tag_3:\n      tag_6\n      tag_7\n      jump\t// in\n    tag_6:\n      mload(0x40)\n      tag_8\n      swap2\n      swap1\n      tag_9\n      jump\t// in\n    tag_8:\n      mload(0x40)\n      dup1\n      swap2\n      sub\n      swap1\n      return\n        /* \"contracts/Tasks.sol\":131:210  function addTask(string memory task) public {... */\n    tag_4:\n      tag_10\n      0x04\n      dup1\n      calldatasize\n      sub\n      dup2\n      add\n      swap1\n      tag_11\n      swap2\n      swap1\n      tag_12\n      jump\t// in\n    tag_11:\n      tag_13\n      jump\t// in\n    tag_10:\n      stop\n        /* \"contracts/Tasks.sol\":224:436  function removeTask(uint256 index) public {... */\n    tag_5:\n      tag_14\n      0x04\n      dup1\n      calldatasize\n      sub\n      dup2\n      add\n      swap1\n      tag_15\n      swap2\n      swap1\n      tag_16\n      jump\t// in\n    tag_15:\n      tag_17\n      jump\t// in\n    tag_14:\n      stop\n        /* \"contracts/Tasks.sol\":448:537  function getTasks() public view returns (string[] memory) {... */\n    tag_7:\n        /* \"contracts/Tasks.sol\":489:504  string[] memory */\n      0x60\n        /* \"contracts/Tasks.sol\":524:529  tasks */\n      0x00\n        /* \"contracts/Tasks.sol\":517:529  return tasks */\n      dup1\n      sload\n      dup1\n      0x20\n      mul\n      0x20\n      add\n      mload(0x40)\n      swap1\n      dup2\n      add\n      0x40\n      mstore\n      dup1\n      swap3\n      swap2\n      swap1\n      dup2\n      dup2\n      mstore\n      0x20\n      add\n      0x00\n      swap1\n    tag_19:\n      dup3\n      dup3\n      lt\n      iszero\n      tag_20\n      jumpi\n      dup4\n      dup3\n      swap1\n      0x00\n      mstore\n      keccak256(0x00, 0x20)\n      add\n      dup1\n      sload\n      tag_22\n      swap1\n      tag_23\n      jump\t// in\n    tag_22:\n      dup1\n      0x1f\n      add\n      0x20\n      dup1\n      swap2\n      div\n      mul\n      0x20\n      add\n      mload(0x40)\n      swap1\n      dup2\n      add\n      0x40\n      mstore\n      dup1\n      swap3\n      swap2\n      swap1\n      dup2\n      dup2\n      mstore\n      0x20\n      add\n      dup3\n      dup1\n      sload\n      tag_24\n      swap1\n      tag_23\n      jump\t// in\n    tag_24:\n      dup1\n      iszero\n      tag_25\n      jumpi\n      dup1\n      0x1f\n      lt\n      tag_26\n      jumpi\n      0x0100\n      dup1\n      dup4\n      sload\n      div\n      mul\n      dup4\n      mstore\n      swap2\n      0x20\n      add\n      swap2\n      jump(tag_25)\n    tag_26:\n      dup3\n      add\n      swap2\n      swap1\n      0x00\n      mstore\n      keccak256(0x00, 0x20)\n      swap1\n    tag_27:\n      dup2\n      sload\n      dup2\n      mstore\n      swap1\n      0x01\n      add\n      swap1\n      0x20\n      add\n      dup1\n      dup4\n      gt\n      tag_27\n      jumpi\n      dup3\n      swap1\n      sub\n      0x1f\n      and\n      dup3\n      add\n      swap2\n    tag_25:\n      pop\n      pop\n      pop\n      pop\n      pop\n      dup2\n      mstore\n      0x20\n      add\n      swap1\n      0x01\n      add\n      swap1\n      jump(tag_19)\n    tag_20:\n      pop\n      pop\n      pop\n      pop\n      swap1\n      pop\n        /* \"contracts/Tasks.sol\":448:537  function getTasks() public view returns (string[] memory) {... */\n      swap1\n      jump\t// out\n        /* \"contracts/Tasks.sol\":131:210  function addTask(string memory task) public {... */\n    tag_13:\n        /* \"contracts/Tasks.sol\":186:191  tasks */\n      0x00\n        /* \"contracts/Tasks.sol\":197:201  task */\n      dup2\n        /* \"contracts/Tasks.sol\":186:202  tasks.push(task) */\n      swap1\n      dup1\n      0x01\n      dup2\n      sload\n      add\n      dup1\n      dup3\n      sstore\n      dup1\n      swap2\n      pop\n      pop\n      0x01\n      swap1\n      sub\n      swap1\n      0x00\n      mstore\n      keccak256(0x00, 0x20)\n      add\n      0x00\n      swap1\n      swap2\n      swap1\n      swap2\n      swap1\n      swap2\n      pop\n      swap1\n      dup2\n      tag_30\n      swap2\n      swap1\n      tag_31\n      jump\t// in\n    tag_30:\n      pop\n        /* \"contracts/Tasks.sol\":131:210  function addTask(string memory task) public {... */\n      pop\n      jump\t// out\n        /* \"contracts/Tasks.sol\":224:436  function removeTask(uint256 index) public {... */\n    tag_17:\n        /* \"contracts/Tasks.sol\":293:298  tasks */\n      0x00\n        /* \"contracts/Tasks.sol\":293:305  tasks.length */\n      dup1\n      sload\n      swap1\n      pop\n        /* \"contracts/Tasks.sol\":285:290  index */\n      dup2\n        /* \"contracts/Tasks.sol\":285:305  index < tasks.length */\n      lt\n        /* \"contracts/Tasks.sol\":277:330  require(index < tasks.length, \"Task does not exist.\") */\n      tag_33\n      jumpi\n      mload(0x40)\n      0x08c379a000000000000000000000000000000000000000000000000000000000\n      dup2\n      mstore\n      0x04\n      add\n      tag_34\n      swap1\n      tag_35\n      jump\t// in\n    tag_34:\n      mload(0x40)\n      dup1\n      swap2\n      sub\n      swap1\n      revert\n    tag_33:\n        /* \"contracts/Tasks.sol\":370:375  tasks */\n      0x00\n        /* \"contracts/Tasks.sol\":391:392  1 */\n      0x01\n        /* \"contracts/Tasks.sol\":376:381  tasks */\n      0x00\n        /* \"contracts/Tasks.sol\":376:388  tasks.length */\n      dup1\n      sload\n      swap1\n      pop\n        /* \"contracts/Tasks.sol\":376:392  tasks.length - 1 */\n      tag_36\n      swap2\n      swap1\n      tag_37\n      jump\t// in\n    tag_36:\n        /* \"contracts/Tasks.sol\":370:393  tasks[tasks.length - 1] */\n      dup2\n      sload\n      dup2\n      lt\n      tag_38\n      jumpi\n      tag_39\n      tag_40\n      jump\t// in\n    tag_39:\n    tag_38:\n      swap1\n      0x00\n      mstore\n      keccak256(0x00, 0x20)\n      add\n        /* \"contracts/Tasks.sol\":355:360  tasks */\n      0x00\n        /* \"contracts/Tasks.sol\":361:366  index */\n      dup3\n        /* \"contracts/Tasks.sol\":355:367  tasks[index] */\n      dup2\n      sload\n      dup2\n      lt\n      tag_42\n      jumpi\n      tag_43\n      tag_40\n      jump\t// in\n    tag_43:\n    tag_42:\n      swap1\n      0x00\n      mstore\n      keccak256(0x00, 0x20)\n      add\n        /* \"contracts/Tasks.sol\":355:393  tasks[index] = tasks[tasks.length - 1] */\n      swap1\n      dup2\n      tag_45\n      swap2\n      swap1\n      tag_46\n      jump\t// in\n    tag_45:\n      pop\n        /* \"contracts/Tasks.sol\":417:422  tasks */\n      0x00\n        /* \"contracts/Tasks.sol\":417:428  tasks.pop() */\n      dup1\n      sload\n      dup1\n      tag_47\n      jumpi\n      tag_48\n      tag_49\n      jump\t// in\n    tag_48:\n    tag_47:\n      0x01\n      swap1\n      sub\n      dup2\n      dup2\n      swap1\n      0x00\n      mstore\n      keccak256(0x00, 0x20)\n      add\n      0x00\n      tag_51\n      swap2\n      swap1\n      tag_52\n      jump\t// in\n    tag_51:\n      swap1\n      sstore\n        /* \"contracts/Tasks.sol\":224:436  function removeTask(uint256 index) public {... */\n      pop\n      jump\t// out\n    tag_52:\n      pop\n      dup1\n      sload\n      tag_53\n      swap1\n      tag_23\n      jump\t// in\n    tag_53:\n      0x00\n      dup3\n      sstore\n      dup1\n      0x1f\n      lt\n      tag_55\n      jumpi\n      pop\n      jump(tag_54)\n    tag_55:\n      0x1f\n      add\n      0x20\n      swap1\n      div\n      swap1\n      0x00\n      mstore\n      keccak256(0x00, 0x20)\n      swap1\n      dup2\n      add\n      swap1\n      tag_56\n      swap2\n      swap1\n      tag_57\n      jump\t// in\n    tag_56:\n    tag_54:\n      pop\n      jump\t// out\n    tag_57:\n    tag_58:\n      dup1\n      dup3\n      gt\n      iszero\n      tag_59\n      jumpi\n      0x00\n      dup2\n      0x00\n      swap1\n      sstore\n      pop\n      0x01\n      add\n      jump(tag_58)\n    tag_59:\n      pop\n      swap1\n      jump\t// out\n        /* \"#utility.yul\":7:131   */\n    tag_60:\n        /* \"#utility.yul\":84:90   */\n      0x00\n        /* \"#utility.yul\":118:123   */\n      dup2\n        /* \"#utility.yul\":112:124   */\n      mload\n        /* \"#utility.yul\":102:124   */\n      swap1\n      pop\n        /* \"#utility.yul\":7:131   */\n      swap2\n      swap1\n      pop\n      jump\t// out\n        /* \"#utility.yul\":137:331   */\n    tag_61:\n        /* \"#utility.yul\":246:257   */\n      0x00\n        /* \"#utility.yul\":280:286   */\n      dup3\n        /* \"#utility.yul\":275:278   */\n      dup3\n        /* \"#utility.yul\":268:287   */\n      mstore\n        /* \"#utility.yul\":320:324   */\n      0x20\n        /* \"#utility.yul\":315:318   */\n      dup3\n        /* \"#utility.yul\":311:325   */\n      add\n        /* \"#utility.yul\":296:325   */\n      swap1\n      pop\n        /* \"#utility.yul\":137:331   */\n      swap3\n      swap2\n      pop\n      pop\n      jump\t// out\n        /* \"#utility.yul\":337:479   */\n    tag_62:\n        /* \"#utility.yul\":414:418   */\n      0x00\n        /* \"#utility.yul\":437:440   */\n      dup2\n        /* \"#utility.yul\":429:440   */\n      swap1\n      pop\n        /* \"#utility.yul\":467:471   */\n      0x20\n        /* \"#utility.yul\":462:465   */\n      dup3\n        /* \"#utility.yul\":458:472   */\n      add\n        /* \"#utility.yul\":450:472   */\n      swap1\n      pop\n        /* \"#utility.yul\":337:479   */\n      swap2\n      swap1\n      pop\n      jump\t// out\n        /* \"#utility.yul\":485:584   */\n    tag_63:\n        /* \"#utility.yul\":537:543   */\n      0x00\n        /* \"#utility.yul\":571:576   */\n      dup2\n        /* \"#utility.yul\":565:577   */\n      mload\n        /* \"#utility.yul\":555:577   */\n      swap1\n      pop\n        /* \"#utility.yul\":485:584   */\n      swap2\n      swap1\n      pop\n      jump\t// out\n        /* \"#utility.yul\":590:749   */\n    tag_64:\n        /* \"#utility.yul\":664:675   */\n      0x00\n        /* \"#utility.yul\":698:704   */\n      dup3\n        /* \"#utility.yul\":693:696   */\n      dup3\n        /* \"#utility.yul\":686:705   */\n      mstore\n        /* \"#utility.yul\":738:742   */\n      0x20\n        /* \"#utility.yul\":733:736   */\n      dup3\n        /* \"#utility.yul\":729:743   */\n      add\n        /* \"#utility.yul\":714:743   */\n      swap1\n      pop\n        /* \"#utility.yul\":590:749   */\n      swap3\n      swap2\n      pop\n      pop\n      jump\t// out\n        /* \"#utility.yul\":755:894   */\n    tag_65:\n        /* \"#utility.yul\":844:850   */\n      dup3\n        /* \"#utility.yul\":839:842   */\n      dup2\n        /* \"#utility.yul\":834:837   */\n      dup4\n        /* \"#utility.yul\":828:851   */\n      mcopy\n        /* \"#utility.yul\":885:886   */\n      0x00\n        /* \"#utility.yul\":876:882   */\n      dup4\n        /* \"#utility.yul\":871:874   */\n      dup4\n        /* \"#utility.yul\":867:883   */\n      add\n        /* \"#utility.yul\":860:887   */\n      mstore\n        /* \"#utility.yul\":755:894   */\n      pop\n      pop\n      pop\n      jump\t// out\n        /* \"#utility.yul\":900:1002   */\n    tag_66:\n        /* \"#utility.yul\":941:947   */\n      0x00\n        /* \"#utility.yul\":992:994   */\n      0x1f\n        /* \"#utility.yul\":988:995   */\n      not\n        /* \"#utility.yul\":983:985   */\n      0x1f\n        /* \"#utility.yul\":976:981   */\n      dup4\n        /* \"#utility.yul\":972:986   */\n      add\n        /* \"#utility.yul\":968:996   */\n      and\n        /* \"#utility.yul\":958:996   */\n      swap1\n      pop\n        /* \"#utility.yul\":900:1002   */\n      swap2\n      swap1\n      pop\n      jump\t// out\n        /* \"#utility.yul\":1008:1365   */\n    tag_67:\n        /* \"#utility.yul\":1086:1089   */\n      0x00\n        /* \"#utility.yul\":1114:1153   */\n      tag_117\n        /* \"#utility.yul\":1147:1152   */\n      dup3\n        /* \"#utility.yul\":1114:1153   */\n      tag_63\n      jump\t// in\n    tag_117:\n        /* \"#utility.yul\":1169:1230   */\n      tag_118\n        /* \"#utility.yul\":1223:1229   */\n      dup2\n        /* \"#utility.yul\":1218:1221   */\n      dup6\n        /* \"#utility.yul\":1169:1230   */\n      tag_64\n      jump\t// in\n    tag_118:\n        /* \"#utility.yul\":1162:1230   */\n      swap4\n      pop\n        /* \"#utility.yul\":1239:1304   */\n      tag_119\n        /* \"#utility.yul\":1297:1303   */\n      dup2\n        /* \"#utility.yul\":1292:1295   */\n      dup6\n        /* \"#utility.yul\":1285:1289   */\n      0x20\n        /* \"#utility.yul\":1278:1283   */\n      dup7\n        /* \"#utility.yul\":1274:1290   */\n      add\n        /* \"#utility.yul\":1239:1304   */\n      tag_65\n      jump\t// in\n    tag_119:\n        /* \"#utility.yul\":1329:1358   */\n      tag_120\n        /* \"#utility.yul\":1351:1357   */\n      dup2\n        /* \"#utility.yul\":1329:1358   */\n      tag_66\n      jump\t// in\n    tag_120:\n        /* \"#utility.yul\":1324:1327   */\n      dup5\n        /* \"#utility.yul\":1320:1359   */\n      add\n        /* \"#utility.yul\":1313:1359   */\n      swap2\n      pop\n        /* \"#utility.yul\":1090:1365   */\n      pop\n        /* \"#utility.yul\":1008:1365   */\n      swap3\n      swap2\n      pop\n      pop\n      jump\t// out\n        /* \"#utility.yul\":1371:1567   */\n    tag_68:\n        /* \"#utility.yul\":1460:1470   */\n      0x00\n        /* \"#utility.yul\":1495:1561   */\n      tag_122\n        /* \"#utility.yul\":1557:1560   */\n      dup4\n        /* \"#utility.yul\":1549:1555   */\n      dup4\n        /* \"#utility.yul\":1495:1561   */\n      tag_67\n      jump\t// in\n    tag_122:\n        /* \"#utility.yul\":1481:1561   */\n      swap1\n      pop\n        /* \"#utility.yul\":1371:1567   */\n      swap3\n      swap2\n      pop\n      pop\n      jump\t// out\n        /* \"#utility.yul\":1573:1696   */\n    tag_69:\n        /* \"#utility.yul\":1653:1657   */\n      0x00\n        /* \"#utility.yul\":1685:1689   */\n      0x20\n        /* \"#utility.yul\":1680:1683   */\n      dup3\n        /* \"#utility.yul\":1676:1690   */\n      add\n        /* \"#utility.yul\":1668:1690   */\n      swap1\n      pop\n        /* \"#utility.yul\":1573:1696   */\n      swap2\n      swap1\n      pop\n      jump\t// out\n        /* \"#utility.yul\":1730:2721   */\n    tag_70:\n        /* \"#utility.yul\":1869:1872   */\n      0x00\n        /* \"#utility.yul\":1898:1962   */\n      tag_125\n        /* \"#utility.yul\":1956:1961   */\n      dup3\n        /* \"#utility.yul\":1898:1962   */\n      tag_60\n      jump\t// in\n    tag_125:\n        /* \"#utility.yul\":1978:2074   */\n      tag_126\n        /* \"#utility.yul\":2067:2073   */\n      dup2\n        /* \"#utility.yul\":2062:2065   */\n      dup6\n        /* \"#utility.yul\":1978:2074   */\n      tag_61\n      jump\t// in\n    tag_126:\n        /* \"#utility.yul\":1971:2074   */\n      swap4\n      pop\n        /* \"#utility.yul\":2100:2103   */\n      dup4\n        /* \"#utility.yul\":2145:2149   */\n      0x20\n        /* \"#utility.yul\":2137:2143   */\n      dup3\n        /* \"#utility.yul\":2133:2150   */\n      mul\n        /* \"#utility.yul\":2128:2131   */\n      dup6\n        /* \"#utility.yul\":2124:2151   */\n      add\n        /* \"#utility.yul\":2175:2241   */\n      tag_127\n        /* \"#utility.yul\":2235:2240   */\n      dup6\n        /* \"#utility.yul\":2175:2241   */\n      tag_62\n      jump\t// in\n    tag_127:\n        /* \"#utility.yul\":2264:2271   */\n      dup1\n        /* \"#utility.yul\":2295:2296   */\n      0x00\n        /* \"#utility.yul\":2280:2676   */\n    tag_128:\n        /* \"#utility.yul\":2305:2311   */\n      dup6\n        /* \"#utility.yul\":2302:2303   */\n      dup2\n        /* \"#utility.yul\":2299:2312   */\n      lt\n        /* \"#utility.yul\":2280:2676   */\n      iszero\n      tag_130\n      jumpi\n        /* \"#utility.yul\":2376:2385   */\n      dup5\n        /* \"#utility.yul\":2370:2374   */\n      dup5\n        /* \"#utility.yul\":2366:2386   */\n      sub\n        /* \"#utility.yul\":2361:2364   */\n      dup10\n        /* \"#utility.yul\":2354:2387   */\n      mstore\n        /* \"#utility.yul\":2427:2433   */\n      dup2\n        /* \"#utility.yul\":2421:2434   */\n      mload\n        /* \"#utility.yul\":2455:2539   */\n      tag_131\n        /* \"#utility.yul\":2534:2538   */\n      dup6\n        /* \"#utility.yul\":2519:2532   */\n      dup3\n        /* \"#utility.yul\":2455:2539   */\n      tag_68\n      jump\t// in\n    tag_131:\n        /* \"#utility.yul\":2447:2539   */\n      swap5\n      pop\n        /* \"#utility.yul\":2562:2632   */\n      tag_132\n        /* \"#utility.yul\":2625:2631   */\n      dup4\n        /* \"#utility.yul\":2562:2632   */\n      tag_69\n      jump\t// in\n    tag_132:\n        /* \"#utility.yul\":2552:2632   */\n      swap3\n      pop\n        /* \"#utility.yul\":2661:2665   */\n      0x20\n        /* \"#utility.yul\":2656:2659   */\n      dup11\n        /* \"#utility.yul\":2652:2666   */\n      add\n        /* \"#utility.yul\":2645:2666   */\n      swap10\n      pop\n        /* \"#utility.yul\":2340:2676   */\n      pop\n        /* \"#utility.yul\":2327:2328   */\n      0x01\n        /* \"#utility.yul\":2324:2325   */\n      dup2\n        /* \"#utility.yul\":2320:2329   */\n      add\n        /* \"#utility.yul\":2315:2329   */\n      swap1\n      pop\n        /* \"#utility.yul\":2280:2676   */\n      jump(tag_128)\n    tag_130:\n        /* \"#utility.yul\":2284:2298   */\n      pop\n        /* \"#utility.yul\":2692:2696   */\n      dup3\n        /* \"#utility.yul\":2685:2696   */\n      swap8\n      pop\n        /* \"#utility.yul\":2712:2715   */\n      dup8\n        /* \"#utility.yul\":2705:2715   */\n      swap6\n      pop\n        /* \"#utility.yul\":1874:2721   */\n      pop\n      pop\n      pop\n      pop\n      pop\n        /* \"#utility.yul\":1730:2721   */\n      swap3\n      swap2\n      pop\n      pop\n      jump\t// out\n        /* \"#utility.yul\":2727:3140   */\n    tag_9:\n        /* \"#utility.yul\":2890:2894   */\n      0x00\n        /* \"#utility.yul\":2928:2930   */\n      0x20\n        /* \"#utility.yul\":2917:2926   */\n      dup3\n        /* \"#utility.yul\":2913:2931   */\n      add\n        /* \"#utility.yul\":2905:2931   */\n      swap1\n      pop\n        /* \"#utility.yul\":2977:2986   */\n      dup2\n        /* \"#utility.yul\":2971:2975   */\n      dup2\n        /* \"#utility.yul\":2967:2987   */\n      sub\n        /* \"#utility.yul\":2963:2964   */\n      0x00\n        /* \"#utility.yul\":2952:2961   */\n      dup4\n        /* \"#utility.yul\":2948:2965   */\n      add\n        /* \"#utility.yul\":2941:2988   */\n      mstore\n        /* \"#utility.yul\":3005:3133   */\n      tag_134\n        /* \"#utility.yul\":3128:3132   */\n      dup2\n        /* \"#utility.yul\":3119:3125   */\n      dup5\n        /* \"#utility.yul\":3005:3133   */\n      tag_70\n      jump\t// in\n    tag_134:\n        /* \"#utility.yul\":2997:3133   */\n      swap1\n      pop\n        /* \"#utility.yul\":2727:3140   */\n      swap3\n      swap2\n      pop\n      pop\n      jump\t// out\n        /* \"#utility.yul\":3146:3221   */\n    tag_71:\n        /* \"#utility.yul\":3179:3185   */\n      0x00\n        /* \"#utility.yul\":3212:3214   */\n      0x40\n        /* \"#utility.yul\":3206:3215   */\n      mload\n        /* \"#utility.yul\":3196:3215   */\n      swap1\n      pop\n        /* \"#utility.yul\":3146:3221   */\n      swap1\n      jump\t// out\n        /* \"#utility.yul\":3227:3344   */\n    tag_72:\n        /* \"#utility.yul\":3336:3337   */\n      0x00\n        /* \"#utility.yul\":3333:3334   */\n      dup1\n        /* \"#utility.yul\":3326:3338   */\n      revert\n        /* \"#utility.yul\":3350:3467   */\n    tag_73:\n        /* \"#utility.yul\":3459:3460   */\n      0x00\n        /* \"#utility.yul\":3456:3457   */\n      dup1\n        /* \"#utility.yul\":3449:3461   */\n      revert\n        /* \"#utility.yul\":3473:3590   */\n    tag_74:\n        /* \"#utility.yul\":3582:3583   */\n      0x00\n        /* \"#utility.yul\":3579:3580   */\n      dup1\n        /* \"#utility.yul\":3572:3584   */\n      revert\n        /* \"#utility.yul\":3596:3713   */\n    tag_75:\n        /* \"#utility.yul\":3705:3706   */\n      0x00\n        /* \"#utility.yul\":3702:3703   */\n      dup1\n        /* \"#utility.yul\":3695:3707   */\n      revert\n        /* \"#utility.yul\":3719:3899   */\n    tag_76:\n        /* \"#utility.yul\":3767:3844   */\n      0x4e487b7100000000000000000000000000000000000000000000000000000000\n        /* \"#utility.yul\":3764:3765   */\n      0x00\n        /* \"#utility.yul\":3757:3845   */\n      mstore\n        /* \"#utility.yul\":3864:3868   */\n      0x41\n        /* \"#utility.yul\":3861:3862   */\n      0x04\n        /* \"#utility.yul\":3854:3869   */\n      mstore\n        /* \"#utility.yul\":3888:3892   */\n      0x24\n        /* \"#utility.yul\":3885:3886   */\n      0x00\n        /* \"#utility.yul\":3878:3893   */\n      revert\n        /* \"#utility.yul\":3905:4186   */\n    tag_77:\n        /* \"#utility.yul\":3988:4015   */\n      tag_142\n        /* \"#utility.yul\":4010:4014   */\n      dup3\n        /* \"#utility.yul\":3988:4015   */\n      tag_66\n      jump\t// in\n    tag_142:\n        /* \"#utility.yul\":3980:3986   */\n      dup2\n        /* \"#utility.yul\":3976:4016   */\n      add\n        /* \"#utility.yul\":4118:4124   */\n      dup2\n        /* \"#utility.yul\":4106:4116   */\n      dup2\n        /* \"#utility.yul\":4103:4125   */\n      lt\n        /* \"#utility.yul\":4082:4100   */\n      0xffffffffffffffff\n        /* \"#utility.yul\":4070:4080   */\n      dup3\n        /* \"#utility.yul\":4067:4101   */\n      gt\n        /* \"#utility.yul\":4064:4126   */\n      or\n        /* \"#utility.yul\":4061:4149   */\n      iszero\n      tag_143\n      jumpi\n        /* \"#utility.yul\":4129:4147   */\n      tag_144\n      tag_76\n      jump\t// in\n    tag_144:\n        /* \"#utility.yul\":4061:4149   */\n    tag_143:\n        /* \"#utility.yul\":4169:4179   */\n      dup1\n        /* \"#utility.yul\":4165:4167   */\n      0x40\n        /* \"#utility.yul\":4158:4180   */\n      mstore\n        /* \"#utility.yul\":3948:4186   */\n      pop\n        /* \"#utility.yul\":3905:4186   */\n      pop\n      pop\n      jump\t// out\n        /* \"#utility.yul\":4192:4321   */\n    tag_78:\n        /* \"#utility.yul\":4226:4232   */\n      0x00\n        /* \"#utility.yul\":4253:4273   */\n      tag_146\n      tag_71\n      jump\t// in\n    tag_146:\n        /* \"#utility.yul\":4243:4273   */\n      swap1\n      pop\n        /* \"#utility.yul\":4282:4315   */\n      tag_147\n        /* \"#utility.yul\":4310:4314   */\n      dup3\n        /* \"#utility.yul\":4302:4308   */\n      dup3\n        /* \"#utility.yul\":4282:4315   */\n      tag_77\n      jump\t// in\n    tag_147:\n        /* \"#utility.yul\":4192:4321   */\n      swap2\n      swap1\n      pop\n      jump\t// out\n        /* \"#utility.yul\":4327:4635   */\n    tag_79:\n        /* \"#utility.yul\":4389:4393   */\n      0x00\n        /* \"#utility.yul\":4479:4497   */\n      0xffffffffffffffff\n        /* \"#utility.yul\":4471:4477   */\n      dup3\n        /* \"#utility.yul\":4468:4498   */\n      gt\n        /* \"#utility.yul\":4465:4521   */\n      iszero\n      tag_149\n      jumpi\n        /* \"#utility.yul\":4501:4519   */\n      tag_150\n      tag_76\n      jump\t// in\n    tag_150:\n        /* \"#utility.yul\":4465:4521   */\n    tag_149:\n        /* \"#utility.yul\":4539:4568   */\n      tag_151\n        /* \"#utility.yul\":4561:4567   */\n      dup3\n        /* \"#utility.yul\":4539:4568   */\n      tag_66\n      jump\t// in\n    tag_151:\n        /* \"#utility.yul\":4531:4568   */\n      swap1\n      pop\n        /* \"#utility.yul\":4623:4627   */\n      0x20\n        /* \"#utility.yul\":4617:4621   */\n      dup2\n        /* \"#utility.yul\":4613:4628   */\n      add\n        /* \"#utility.yul\":4605:4628   */\n      swap1\n      pop\n        /* \"#utility.yul\":4327:4635   */\n      swap2\n      swap1\n      pop\n      jump\t// out\n        /* \"#utility.yul\":4641:4789   */\n    tag_80:\n        /* \"#utility.yul\":4739:4745   */\n      dup3\n        /* \"#utility.yul\":4734:4737   */\n      dup2\n        /* \"#utility.yul\":4729:4732   */\n      dup4\n        /* \"#utility.yul\":4716:4746   */\n      calldatacopy\n        /* \"#utility.yul\":4780:4781   */\n      0x00\n        /* \"#utility.yul\":4771:4777   */\n      dup4\n        /* \"#utility.yul\":4766:4769   */\n      dup4\n        /* \"#utility.yul\":4762:4778   */\n      add\n        /* \"#utility.yul\":4755:4782   */\n      mstore\n        /* \"#utility.yul\":4641:4789   */\n      pop\n      pop\n      pop\n      jump\t// out\n        /* \"#utility.yul\":4795:5220   */\n    tag_81:\n        /* \"#utility.yul\":4873:4878   */\n      0x00\n        /* \"#utility.yul\":4898:4964   */\n      tag_154\n        /* \"#utility.yul\":4914:4963   */\n      tag_155\n        /* \"#utility.yul\":4956:4962   */\n      dup5\n        /* \"#utility.yul\":4914:4963   */\n      tag_79\n      jump\t// in\n    tag_155:\n        /* \"#utility.yul\":4898:4964   */\n      tag_78\n      jump\t// in\n    tag_154:\n        /* \"#utility.yul\":4889:4964   */\n      swap1\n      pop\n        /* \"#utility.yul\":4987:4993   */\n      dup3\n        /* \"#utility.yul\":4980:4985   */\n      dup2\n        /* \"#utility.yul\":4973:4994   */\n      mstore\n        /* \"#utility.yul\":5025:5029   */\n      0x20\n        /* \"#utility.yul\":5018:5023   */\n      dup2\n        /* \"#utility.yul\":5014:5030   */\n      add\n        /* \"#utility.yul\":5063:5066   */\n      dup5\n        /* \"#utility.yul\":5054:5060   */\n      dup5\n        /* \"#utility.yul\":5049:5052   */\n      dup5\n        /* \"#utility.yul\":5045:5061   */\n      add\n        /* \"#utility.yul\":5042:5067   */\n      gt\n        /* \"#utility.yul\":5039:5151   */\n      iszero\n      tag_156\n      jumpi\n        /* \"#utility.yul\":5070:5149   */\n      tag_157\n      tag_75\n      jump\t// in\n    tag_157:\n        /* \"#utility.yul\":5039:5151   */\n    tag_156:\n        /* \"#utility.yul\":5160:5214   */\n      tag_158\n        /* \"#utility.yul\":5207:5213   */\n      dup5\n        /* \"#utility.yul\":5202:5205   */\n      dup3\n        /* \"#utility.yul\":5197:5200   */\n      dup6\n        /* \"#utility.yul\":5160:5214   */\n      tag_80\n      jump\t// in\n    tag_158:\n        /* \"#utility.yul\":4879:5220   */\n      pop\n        /* \"#utility.yul\":4795:5220   */\n      swap4\n      swap3\n      pop\n      pop\n      pop\n      jump\t// out\n        /* \"#utility.yul\":5240:5580   */\n    tag_82:\n        /* \"#utility.yul\":5296:5301   */\n      0x00\n        /* \"#utility.yul\":5345:5348   */\n      dup3\n        /* \"#utility.yul\":5338:5342   */\n      0x1f\n        /* \"#utility.yul\":5330:5336   */\n      dup4\n        /* \"#utility.yul\":5326:5343   */\n      add\n        /* \"#utility.yul\":5322:5349   */\n      slt\n        /* \"#utility.yul\":5312:5434   */\n      tag_160\n      jumpi\n        /* \"#utility.yul\":5353:5432   */\n      tag_161\n      tag_74\n      jump\t// in\n    tag_161:\n        /* \"#utility.yul\":5312:5434   */\n    tag_160:\n        /* \"#utility.yul\":5470:5476   */\n      dup2\n        /* \"#utility.yul\":5457:5477   */\n      calldataload\n        /* \"#utility.yul\":5495:5574   */\n      tag_162\n        /* \"#utility.yul\":5570:5573   */\n      dup5\n        /* \"#utility.yul\":5562:5568   */\n      dup3\n        /* \"#utility.yul\":5555:5559   */\n      0x20\n        /* \"#utility.yul\":5547:5553   */\n      dup7\n        /* \"#utility.yul\":5543:5560   */\n      add\n        /* \"#utility.yul\":5495:5574   */\n      tag_81\n      jump\t// in\n    tag_162:\n        /* \"#utility.yul\":5486:5574   */\n      swap2\n      pop\n        /* \"#utility.yul\":5302:5580   */\n      pop\n        /* \"#utility.yul\":5240:5580   */\n      swap3\n      swap2\n      pop\n      pop\n      jump\t// out\n        /* \"#utility.yul\":5586:6095   */\n    tag_12:\n        /* \"#utility.yul\":5655:5661   */\n      0x00\n        /* \"#utility.yul\":5704:5706   */\n      0x20\n        /* \"#utility.yul\":5692:5701   */\n      dup3\n        /* \"#utility.yul\":5683:5690   */\n      dup5\n        /* \"#utility.yul\":5679:5702   */\n      sub\n        /* \"#utility.yul\":5675:5707   */\n      slt\n        /* \"#utility.yul\":5672:5791   */\n      iszero\n      tag_164\n      jumpi\n        /* \"#utility.yul\":5710:5789   */\n      tag_165\n      tag_72\n      jump\t// in\n    tag_165:\n        /* \"#utility.yul\":5672:5791   */\n    tag_164:\n        /* \"#utility.yul\":5858:5859   */\n      0x00\n        /* \"#utility.yul\":5847:5856   */\n      dup3\n        /* \"#utility.yul\":5843:5860   */\n      add\n        /* \"#utility.yul\":5830:5861   */\n      calldataload\n        /* \"#utility.yul\":5888:5906   */\n      0xffffffffffffffff\n        /* \"#utility.yul\":5880:5886   */\n      dup2\n        /* \"#utility.yul\":5877:5907   */\n      gt\n        /* \"#utility.yul\":5874:5991   */\n      iszero\n      tag_166\n      jumpi\n        /* \"#utility.yul\":5910:5989   */\n      tag_167\n      tag_73\n      jump\t// in\n    tag_167:\n        /* \"#utility.yul\":5874:5991   */\n    tag_166:\n        /* \"#utility.yul\":6015:6078   */\n      tag_168\n        /* \"#utility.yul\":6070:6077   */\n      dup5\n        /* \"#utility.yul\":6061:6067   */\n      dup3\n        /* \"#utility.yul\":6050:6059   */\n      dup6\n        /* \"#utility.yul\":6046:6068   */\n      add\n        /* \"#utility.yul\":6015:6078   */\n      tag_82\n      jump\t// in\n    tag_168:\n        /* \"#utility.yul\":6005:6078   */\n      swap2\n      pop\n        /* \"#utility.yul\":5801:6088   */\n      pop\n        /* \"#utility.yul\":5586:6095   */\n      swap3\n      swap2\n      pop\n      pop\n      jump\t// out\n        /* \"#utility.yul\":6101:6178   */\n    tag_83:\n        /* \"#utility.yul\":6138:6145   */\n      0x00\n        /* \"#utility.yul\":6167:6172   */\n      dup2\n        /* \"#utility.yul\":6156:6172   */\n      swap1\n      pop\n        /* \"#utility.yul\":6101:6178   */\n      swap2\n      swap1\n      pop\n      jump\t// out\n        /* \"#utility.yul\":6184:6306   */\n    tag_84:\n        /* \"#utility.yul\":6257:6281   */\n      tag_171\n        /* \"#utility.yul\":6275:6280   */\n      dup2\n        /* \"#utility.yul\":6257:6281   */\n      tag_83\n      jump\t// in\n    tag_171:\n        /* \"#utility.yul\":6250:6255   */\n      dup2\n        /* \"#utility.yul\":6247:6282   */\n      eq\n        /* \"#utility.yul\":6237:6300   */\n      tag_172\n      jumpi\n        /* \"#utility.yul\":6296:6297   */\n      0x00\n        /* \"#utility.yul\":6293:6294   */\n      dup1\n        /* \"#utility.yul\":6286:6298   */\n      revert\n        /* \"#utility.yul\":6237:6300   */\n    tag_172:\n        /* \"#utility.yul\":6184:6306   */\n      pop\n      jump\t// out\n        /* \"#utility.yul\":6312:6451   */\n    tag_85:\n        /* \"#utility.yul\":6358:6363   */\n      0x00\n        /* \"#utility.yul\":6396:6402   */\n      dup2\n        /* \"#utility.yul\":6383:6403   */\n      calldataload\n        /* \"#utility.yul\":6374:6403   */\n      swap1\n      pop\n        /* \"#utility.yul\":6412:6445   */\n      tag_174\n        /* \"#utility.yul\":6439:6444   */\n      dup2\n        /* \"#utility.yul\":6412:6445   */\n      tag_84\n      jump\t// in\n    tag_174:\n        /* \"#utility.yul\":6312:6451   */\n      swap3\n      swap2\n      pop\n      pop\n      jump\t// out\n        /* \"#utility.yul\":6457:6786   */\n    tag_16:\n        /* \"#utility.yul\":6516:6522   */\n      0x00\n        /* \"#utility.yul\":6565:6567   */\n      0x20\n        /* \"#utility.yul\":6553:6562   */\n      dup3\n        /* \"#utility.yul\":6544:6551   */\n      dup5\n        /* \"#utility.yul\":6540:6563   */\n      sub\n        /* \"#utility.yul\":6536:6568   */\n      slt\n        /* \"#utility.yul\":6533:6652   */\n      iszero\n      tag_176\n      jumpi\n        /* \"#utility.yul\":6571:6650   */\n      tag_177\n      tag_72\n      jump\t// in\n    tag_177:\n        /* \"#utility.yul\":6533:6652   */\n    tag_176:\n        /* \"#utility.yul\":6691:6692   */\n      0x00\n        /* \"#utility.yul\":6716:6769   */\n      tag_178\n        /* \"#utility.yul\":6761:6768   */\n      dup5\n        /* \"#utility.yul\":6752:6758   */\n      dup3\n        /* \"#utility.yul\":6741:6750   */\n      dup6\n        /* \"#utility.yul\":6737:6759   */\n      add\n        /* \"#utility.yul\":6716:6769   */\n      tag_85\n      jump\t// in\n    tag_178:\n        /* \"#utility.yul\":6706:6769   */\n      swap2\n      pop\n        /* \"#utility.yul\":6662:6779   */\n      pop\n        /* \"#utility.yul\":6457:6786   */\n      swap3\n      swap2\n      pop\n      pop\n      jump\t// out\n        /* \"#utility.yul\":6792:6972   */\n    tag_86:\n        /* \"#utility.yul\":6840:6917   */\n      0x4e487b7100000000000000000000000000000000000000000000000000000000\n        /* \"#utility.yul\":6837:6838   */\n      0x00\n        /* \"#utility.yul\":6830:6918   */\n      mstore\n        /* \"#utility.yul\":6937:6941   */\n      0x22\n        /* \"#utility.yul\":6934:6935   */\n      0x04\n        /* \"#utility.yul\":6927:6942   */\n      mstore\n        /* \"#utility.yul\":6961:6965   */\n      0x24\n        /* \"#utility.yul\":6958:6959   */\n      0x00\n        /* \"#utility.yul\":6951:6966   */\n      revert\n        /* \"#utility.yul\":6978:7298   */\n    tag_23:\n        /* \"#utility.yul\":7022:7028   */\n      0x00\n        /* \"#utility.yul\":7059:7060   */\n      0x02\n        /* \"#utility.yul\":7053:7057   */\n      dup3\n        /* \"#utility.yul\":7049:7061   */\n      div\n        /* \"#utility.yul\":7039:7061   */\n      swap1\n      pop\n        /* \"#utility.yul\":7106:7107   */\n      0x01\n        /* \"#utility.yul\":7100:7104   */\n      dup3\n        /* \"#utility.yul\":7096:7108   */\n      and\n        /* \"#utility.yul\":7127:7145   */\n      dup1\n        /* \"#utility.yul\":7117:7198   */\n      tag_181\n      jumpi\n        /* \"#utility.yul\":7183:7187   */\n      0x7f\n        /* \"#utility.yul\":7175:7181   */\n      dup3\n        /* \"#utility.yul\":7171:7188   */\n      and\n        /* \"#utility.yul\":7161:7188   */\n      swap2\n      pop\n        /* \"#utility.yul\":7117:7198   */\n    tag_181:\n        /* \"#utility.yul\":7245:7247   */\n      0x20\n        /* \"#utility.yul\":7237:7243   */\n      dup3\n        /* \"#utility.yul\":7234:7248   */\n      lt\n        /* \"#utility.yul\":7214:7232   */\n      dup2\n        /* \"#utility.yul\":7211:7249   */\n      sub\n        /* \"#utility.yul\":7208:7292   */\n      tag_182\n      jumpi\n        /* \"#utility.yul\":7264:7282   */\n      tag_183\n      tag_86\n      jump\t// in\n    tag_183:\n        /* \"#utility.yul\":7208:7292   */\n    tag_182:\n        /* \"#utility.yul\":7029:7298   */\n      pop\n        /* \"#utility.yul\":6978:7298   */\n      swap2\n      swap1\n      pop\n      jump\t// out\n        /* \"#utility.yul\":7304:7445   */\n    tag_87:\n        /* \"#utility.yul\":7353:7357   */\n      0x00\n        /* \"#utility.yul\":7376:7379   */\n      dup2\n        /* \"#utility.yul\":7368:7379   */\n      swap1\n      pop\n        /* \"#utility.yul\":7399:7402   */\n      dup2\n        /* \"#utility.yul\":7396:7397   */\n      0x00\n        /* \"#utility.yul\":7389:7403   */\n      mstore\n        /* \"#utility.yul\":7433:7437   */\n      0x20\n        /* \"#utility.yul\":7430:7431   */\n      0x00\n        /* \"#utility.yul\":7420:7438   */\n      keccak256\n        /* \"#utility.yul\":7412:7438   */\n      swap1\n      pop\n        /* \"#utility.yul\":7304:7445   */\n      swap2\n      swap1\n      pop\n      jump\t// out\n        /* \"#utility.yul\":7451:7544   */\n    tag_88:\n        /* \"#utility.yul\":7488:7494   */\n      0x00\n        /* \"#utility.yul\":7535:7537   */\n      0x20\n        /* \"#utility.yul\":7530:7532   */\n      0x1f\n        /* \"#utility.yul\":7523:7528   */\n      dup4\n        /* \"#utility.yul\":7519:7533   */\n      add\n        /* \"#utility.yul\":7515:7538   */\n      div\n        /* \"#utility.yul\":7505:7538   */\n      swap1\n      pop\n        /* \"#utility.yul\":7451:7544   */\n      swap2\n      swap1\n      pop\n      jump\t// out\n        /* \"#utility.yul\":7550:7657   */\n    tag_89:\n        /* \"#utility.yul\":7594:7602   */\n      0x00\n        /* \"#utility.yul\":7644:7649   */\n      dup3\n        /* \"#utility.yul\":7638:7642   */\n      dup3\n        /* \"#utility.yul\":7634:7650   */\n      shl\n        /* \"#utility.yul\":7613:7650   */\n      swap1\n      pop\n        /* \"#utility.yul\":7550:7657   */\n      swap3\n      swap2\n      pop\n      pop\n      jump\t// out\n        /* \"#utility.yul\":7663:8056   */\n    tag_90:\n        /* \"#utility.yul\":7732:7738   */\n      0x00\n        /* \"#utility.yul\":7782:7783   */\n      0x08\n        /* \"#utility.yul\":7770:7780   */\n      dup4\n        /* \"#utility.yul\":7766:7784   */\n      mul\n        /* \"#utility.yul\":7805:7902   */\n      tag_188\n        /* \"#utility.yul\":7835:7901   */\n      0xffffffffffffffffffffffffffffffffffffffffffffffffffffffffffffffff\n        /* \"#utility.yul\":7824:7833   */\n      dup3\n        /* \"#utility.yul\":7805:7902   */\n      tag_89\n      jump\t// in\n    tag_188:\n        /* \"#utility.yul\":7923:7962   */\n      tag_189\n        /* \"#utility.yul\":7953:7961   */\n      dup7\n        /* \"#utility.yul\":7942:7951   */\n      dup4\n        /* \"#utility.yul\":7923:7962   */\n      tag_89\n      jump\t// in\n    tag_189:\n        /* \"#utility.yul\":7911:7962   */\n      swap6\n      pop\n        /* \"#utility.yul\":7995:7999   */\n      dup1\n        /* \"#utility.yul\":7991:8000   */\n      not\n        /* \"#utility.yul\":7984:7989   */\n      dup5\n        /* \"#utility.yul\":7980:8001   */\n      and\n        /* \"#utility.yul\":7971:8001   */\n      swap4\n      pop\n        /* \"#utility.yul\":8044:8048   */\n      dup1\n        /* \"#utility.yul\":8034:8042   */\n      dup7\n        /* \"#utility.yul\":8030:8049   */\n      and\n        /* \"#utility.yul\":8023:8028   */\n      dup5\n        /* \"#utility.yul\":8020:8050   */\n      or\n        /* \"#utility.yul\":8010:8050   */\n      swap3\n      pop\n        /* \"#utility.yul\":7739:8056   */\n      pop\n      pop\n        /* \"#utility.yul\":7663:8056   */\n      swap4\n      swap3\n      pop\n      pop\n      pop\n      jump\t// out\n        /* \"#utility.yul\":8062:8122   */\n    tag_91:\n        /* \"#utility.yul\":8090:8093   */\n      0x00\n        /* \"#utility.yul\":8111:8116   */\n      dup2\n        /* \"#utility.yul\":8104:8116   */\n      swap1\n      pop\n        /* \"#utility.yul\":8062:8122   */\n      swap2\n      swap1\n      pop\n      jump\t// out\n        /* \"#utility.yul\":8128:8270   */\n    tag_92:\n        /* \"#utility.yul\":8178:8187   */\n      0x00\n        /* \"#utility.yul\":8211:8264   */\n      tag_192\n        /* \"#utility.yul\":8229:8263   */\n      tag_193\n        /* \"#utility.yul\":8238:8262   */\n      tag_194\n        /* \"#utility.yul\":8256:8261   */\n      dup5\n        /* \"#utility.yul\":8238:8262   */\n      tag_83\n      jump\t// in\n    tag_194:\n        /* \"#utility.yul\":8229:8263   */\n      tag_91\n      jump\t// in\n    tag_193:\n        /* \"#utility.yul\":8211:8264   */\n      tag_83\n      jump\t// in\n    tag_192:\n        /* \"#utility.yul\":8198:8264   */\n      swap1\n      pop\n        /* \"#utility.yul\":8128:8270   */\n      swap2\n      swap1\n      pop\n      jump\t// out\n        /* \"#utility.yul\":8276:8351   */\n    tag_93:\n        /* \"#utility.yul\":8319:8322   */\n      0x00\n        /* \"#utility.yul\":8340:8345   */\n      dup2\n        /* \"#utility.yul\":8333:8345   */\n      swap1\n      pop\n        /* \"#utility.yul\":8276:8351   */\n      swap2\n      swap1\n      pop\n      jump\t// out\n        /* \"#utility.yul\":8357:8626   */\n    tag_94:\n        /* \"#utility.yul\":8467:8506   */\n      tag_197\n        /* \"#utility.yul\":8498:8505   */\n      dup4\n        /* \"#utility.yul\":8467:8506   */\n      tag_92\n      jump\t// in\n    tag_197:\n        /* \"#utility.yul\":8528:8619   */\n      tag_198\n        /* \"#utility.yul\":8577:8618   */\n      tag_199\n        /* \"#utility.yul\":8601:8617   */\n      dup3\n        /* \"#utility.yul\":8577:8618   */\n      tag_93\n      jump\t// in\n    tag_199:\n        /* \"#utility.yul\":8569:8575   */\n      dup5\n        /* \"#utility.yul\":8562:8566   */\n      dup5\n        /* \"#utility.yul\":8556:8567   */\n      sload\n        /* \"#utility.yul\":8528:8619   */\n      tag_90\n      jump\t// in\n    tag_198:\n        /* \"#utility.yul\":8522:8526   */\n      dup3\n        /* \"#utility.yul\":8515:8620   */\n      sstore\n        /* \"#utility.yul\":8433:8626   */\n      pop\n        /* \"#utility.yul\":8357:8626   */\n      pop\n      pop\n      pop\n      jump\t// out\n        /* \"#utility.yul\":8632:8705   */\n    tag_95:\n        /* \"#utility.yul\":8677:8680   */\n      0x00\n        /* \"#utility.yul\":8632:8705   */\n      swap1\n      jump\t// out\n        /* \"#utility.yul\":8711:8900   */\n    tag_96:\n        /* \"#utility.yul\":8788:8820   */\n      tag_202\n      tag_95\n      jump\t// in\n    tag_202:\n        /* \"#utility.yul\":8829:8894   */\n      tag_203\n        /* \"#utility.yul\":8887:8893   */\n      dup2\n        /* \"#utility.yul\":8879:8885   */\n      dup5\n        /* \"#utility.yul\":8873:8877   */\n      dup5\n        /* \"#utility.yul\":8829:8894   */\n      tag_94\n      jump\t// in\n    tag_203:\n        /* \"#utility.yul\":8764:8900   */\n      pop\n        /* \"#utility.yul\":8711:8900   */\n      pop\n      pop\n      jump\t// out\n        /* \"#utility.yul\":8906:9092   */\n    tag_97:\n        /* \"#utility.yul\":8966:9086   */\n    tag_205:\n        /* \"#utility.yul\":8983:8986   */\n      dup2\n        /* \"#utility.yul\":8976:8981   */\n      dup2\n        /* \"#utility.yul\":8973:8987   */\n      lt\n        /* \"#utility.yul\":8966:9086   */\n      iszero\n      tag_207\n      jumpi\n        /* \"#utility.yul\":9037:9076   */\n      tag_208\n        /* \"#utility.yul\":9074:9075   */\n      0x00\n        /* \"#utility.yul\":9067:9072   */\n      dup3\n        /* \"#utility.yul\":9037:9076   */\n      tag_96\n      jump\t// in\n    tag_208:\n        /* \"#utility.yul\":9010:9011   */\n      0x01\n        /* \"#utility.yul\":9003:9008   */\n      dup2\n        /* \"#utility.yul\":8999:9012   */\n      add\n        /* \"#utility.yul\":8990:9012   */\n      swap1\n      pop\n        /* \"#utility.yul\":8966:9086   */\n      jump(tag_205)\n    tag_207:\n        /* \"#utility.yul\":8906:9092   */\n      pop\n      pop\n      jump\t// out\n        /* \"#utility.yul\":9098:9641   */\n    tag_98:\n        /* \"#utility.yul\":9199:9201   */\n      0x1f\n        /* \"#utility.yul\":9194:9197   */\n      dup3\n        /* \"#utility.yul\":9191:9202   */\n      gt\n        /* \"#utility.yul\":9188:9634   */\n      iszero\n      tag_210\n      jumpi\n        /* \"#utility.yul\":9233:9271   */\n      tag_211\n        /* \"#utility.yul\":9265:9270   */\n      dup2\n        /* \"#utility.yul\":9233:9271   */\n      tag_87\n      jump\t// in\n    tag_211:\n        /* \"#utility.yul\":9317:9346   */\n      tag_212\n        /* \"#utility.yul\":9335:9345   */\n      dup5\n        /* \"#utility.yul\":9317:9346   */\n      tag_88\n      jump\t// in\n    tag_212:\n        /* \"#utility.yul\":9307:9315   */\n      dup2\n        /* \"#utility.yul\":9303:9347   */\n      add\n        /* \"#utility.yul\":9500:9502   */\n      0x20\n        /* \"#utility.yul\":9488:9498   */\n      dup6\n        /* \"#utility.yul\":9485:9503   */\n      lt\n        /* \"#utility.yul\":9482:9531   */\n      iszero\n      tag_213\n      jumpi\n        /* \"#utility.yul\":9521:9529   */\n      dup2\n        /* \"#utility.yul\":9506:9529   */\n      swap1\n      pop\n        /* \"#utility.yul\":9482:9531   */\n    tag_213:\n        /* \"#utility.yul\":9544:9624   */\n      tag_214\n        /* \"#utility.yul\":9600:9622   */\n      tag_215\n        /* \"#utility.yul\":9618:9621   */\n      dup6\n        /* \"#utility.yul\":9600:9622   */\n      tag_88\n      jump\t// in\n    tag_215:\n        /* \"#utility.yul\":9590:9598   */\n      dup4\n        /* \"#utility.yul\":9586:9623   */\n      add\n        /* \"#utility.yul\":9573:9584   */\n      dup3\n        /* \"#utility.yul\":9544:9624   */\n      tag_97\n      jump\t// in\n    tag_214:\n        /* \"#utility.yul\":9203:9634   */\n      pop\n      pop\n        /* \"#utility.yul\":9188:9634   */\n    tag_210:\n        /* \"#utility.yul\":9098:9641   */\n      pop\n      pop\n      pop\n      jump\t// out\n        /* \"#utility.yul\":9647:9764   */\n    tag_99:\n        /* \"#utility.yul\":9701:9709   */\n      0x00\n        /* \"#utility.yul\":9751:9756   */\n      dup3\n        /* \"#utility.yul\":9745:9749   */\n      dup3\n        /* \"#utility.yul\":9741:9757   */\n      shr\n        /* \"#utility.yul\":9720:9757   */\n      swap1\n      pop\n        /* \"#utility.yul\":9647:9764   */\n      swap3\n      swap2\n      pop\n      pop\n      jump\t// out\n        /* \"#utility.yul\":9770:9939   */\n    tag_100:\n        /* \"#utility.yul\":9814:9820   */\n      0x00\n        /* \"#utility.yul\":9847:9898   */\n      tag_218\n        /* \"#utility.yul\":9895:9896   */\n      0x00\n        /* \"#utility.yul\":9891:9897   */\n      not\n        /* \"#utility.yul\":9883:9888   */\n      dup5\n        /* \"#utility.yul\":9880:9881   */\n      0x08\n        /* \"#utility.yul\":9876:9889   */\n      mul\n        /* \"#utility.yul\":9847:9898   */\n      tag_99\n      jump\t// in\n    tag_218:\n        /* \"#utility.yul\":9843:9899   */\n      not\n        /* \"#utility.yul\":9928:9932   */\n      dup1\n        /* \"#utility.yul\":9922:9926   */\n      dup4\n        /* \"#utility.yul\":9918:9933   */\n      and\n        /* \"#utility.yul\":9908:9933   */\n      swap2\n      pop\n        /* \"#utility.yul\":9821:9939   */\n      pop\n        /* \"#utility.yul\":9770:9939   */\n      swap3\n      swap2\n      pop\n      pop\n      jump\t// out\n        /* \"#utility.yul\":9944:10239   */\n    tag_101:\n        /* \"#utility.yul\":10020:10024   */\n      0x00\n        /* \"#utility.yul\":10166:10195   */\n      tag_220\n        /* \"#utility.yul\":10191:10194   */\n      dup4\n        /* \"#utility.yul\":10185:10189   */\n      dup4\n        /* \"#utility.yul\":10166:10195   */\n      tag_100\n      jump\t// in\n    tag_220:\n        /* \"#utility.yul\":10158:10195   */\n      swap2\n      pop\n        /* \"#utility.yul\":10228:10231   */\n      dup3\n        /* \"#utility.yul\":10225:10226   */\n      0x02\n        /* \"#utility.yul\":10221:10232   */\n      mul\n        /* \"#utility.yul\":10215:10219   */\n      dup3\n        /* \"#utility.yul\":10212:10233   */\n      or\n        /* \"#utility.yul\":10204:10233   */\n      swap1\n      pop\n        /* \"#utility.yul\":9944:10239   */\n      swap3\n      swap2\n      pop\n      pop\n      jump\t// out\n        /* \"#utility.yul\":10244:11639   */\n    tag_31:\n        /* \"#utility.yul\":10361:10398   */\n      tag_222\n        /* \"#utility.yul\":10394:10397   */\n      dup3\n        /* \"#utility.yul\":10361:10398   */\n      tag_63\n      jump\t// in\n    tag_222:\n        /* \"#utility.yul\":10463:10481   */\n      0xffffffffffffffff\n        /* \"#utility.yul\":10455:10461   */\n      dup2\n        /* \"#utility.yul\":10452:10482   */\n      gt\n        /* \"#utility.yul\":10449:10505   */\n      iszero\n      tag_223\n      jumpi\n        /* \"#utility.yul\":10485:10503   */\n      tag_224\n      tag_76\n      jump\t// in\n    tag_224:\n        /* \"#utility.yul\":10449:10505   */\n    tag_223:\n        /* \"#utility.yul\":10529:10567   */\n      tag_225\n        /* \"#utility.yul\":10561:10565   */\n      dup3\n        /* \"#utility.yul\":10555:10566   */\n      sload\n        /* \"#utility.yul\":10529:10567   */\n      tag_23\n      jump\t// in\n    tag_225:\n        /* \"#utility.yul\":10614:10681   */\n      tag_226\n        /* \"#utility.yul\":10674:10680   */\n      dup3\n        /* \"#utility.yul\":10666:10672   */\n      dup3\n        /* \"#utility.yul\":10660:10664   */\n      dup6\n        /* \"#utility.yul\":10614:10681   */\n      tag_98\n      jump\t// in\n    tag_226:\n        /* \"#utility.yul\":10708:10709   */\n      0x00\n        /* \"#utility.yul\":10732:10736   */\n      0x20\n        /* \"#utility.yul\":10719:10736   */\n      swap1\n      pop\n        /* \"#utility.yul\":10764:10766   */\n      0x1f\n        /* \"#utility.yul\":10756:10762   */\n      dup4\n        /* \"#utility.yul\":10753:10767   */\n      gt\n        /* \"#utility.yul\":10781:10782   */\n      0x01\n        /* \"#utility.yul\":10776:11394   */\n      dup2\n      eq\n      tag_228\n      jumpi\n        /* \"#utility.yul\":11438:11439   */\n      0x00\n        /* \"#utility.yul\":11455:11461   */\n      dup5\n        /* \"#utility.yul\":11452:11529   */\n      iszero\n      tag_229\n      jumpi\n        /* \"#utility.yul\":11504:11513   */\n      dup3\n        /* \"#utility.yul\":11499:11502   */\n      dup8\n        /* \"#utility.yul\":11495:11514   */\n      add\n        /* \"#utility.yul\":11489:11515   */\n      mload\n        /* \"#utility.yul\":11480:11515   */\n      swap1\n      pop\n        /* \"#utility.yul\":11452:11529   */\n    tag_229:\n        /* \"#utility.yul\":11555:11622   */\n      tag_230\n        /* \"#utility.yul\":11615:11621   */\n      dup6\n        /* \"#utility.yul\":11608:11613   */\n      dup3\n        /* \"#utility.yul\":11555:11622   */\n      tag_101\n      jump\t// in\n    tag_230:\n        /* \"#utility.yul\":11549:11553   */\n      dup7\n        /* \"#utility.yul\":11542:11623   */\n      sstore\n        /* \"#utility.yul\":11411:11633   */\n      pop\n        /* \"#utility.yul\":10746:11633   */\n      jump(tag_227)\n        /* \"#utility.yul\":10776:11394   */\n    tag_228:\n        /* \"#utility.yul\":10828:10832   */\n      0x1f\n        /* \"#utility.yul\":10824:10833   */\n      not\n        /* \"#utility.yul\":10816:10822   */\n      dup5\n        /* \"#utility.yul\":10812:10834   */\n      and\n        /* \"#utility.yul\":10862:10899   */\n      tag_231\n        /* \"#utility.yul\":10894:10898   */\n      dup7\n        /* \"#utility.yul\":10862:10899   */\n      tag_87\n      jump\t// in\n    tag_231:\n        /* \"#utility.yul\":10921:10922   */\n      0x00\n        /* \"#utility.yul\":10935:11143   */\n    tag_232:\n        /* \"#utility.yul\":10949:10956   */\n      dup3\n        /* \"#utility.yul\":10946:10947   */\n      dup2\n        /* \"#utility.yul\":10943:10957   */\n      lt\n        /* \"#utility.yul\":10935:11143   */\n      iszero\n      tag_234\n      jumpi\n        /* \"#utility.yul\":11028:11037   */\n      dup5\n        /* \"#utility.yul\":11023:11026   */\n      dup10\n        /* \"#utility.yul\":11019:11038   */\n      add\n        /* \"#utility.yul\":11013:11039   */\n      mload\n        /* \"#utility.yul\":11005:11011   */\n      dup3\n        /* \"#utility.yul\":10998:11040   */\n      sstore\n        /* \"#utility.yul\":11079:11080   */\n      0x01\n        /* \"#utility.yul\":11071:11077   */\n      dup3\n        /* \"#utility.yul\":11067:11081   */\n      add\n        /* \"#utility.yul\":11057:11081   */\n      swap2\n      pop\n        /* \"#utility.yul\":11126:11128   */\n      0x20\n        /* \"#utility.yul\":11115:11124   */\n      dup6\n        /* \"#utility.yul\":11111:11129   */\n      add\n        /* \"#utility.yul\":11098:11129   */\n      swap5\n      pop\n        /* \"#utility.yul\":10972:10976   */\n      0x20\n        /* \"#utility.yul\":10969:10970   */\n      dup2\n        /* \"#utility.yul\":10965:10977   */\n      add\n        /* \"#utility.yul\":10960:10977   */\n      swap1\n      pop\n        /* \"#utility.yul\":10935:11143   */\n      jump(tag_232)\n    tag_234:\n        /* \"#utility.yul\":11171:11177   */\n      dup7\n        /* \"#utility.yul\":11162:11169   */\n      dup4\n        /* \"#utility.yul\":11159:11178   */\n      lt\n        /* \"#utility.yul\":11156:11335   */\n      iszero\n      tag_235\n      jumpi\n        /* \"#utility.yul\":11229:11238   */\n      dup5\n        /* \"#utility.yul\":11224:11227   */\n      dup10\n        /* \"#utility.yul\":11220:11239   */\n      add\n        /* \"#utility.yul\":11214:11240   */\n      mload\n        /* \"#utility.yul\":11272:11320   */\n      tag_236\n        /* \"#utility.yul\":11314:11318   */\n      0x1f\n        /* \"#utility.yul\":11306:11312   */\n      dup10\n        /* \"#utility.yul\":11302:11319   */\n      and\n        /* \"#utility.yul\":11291:11300   */\n      dup3\n        /* \"#utility.yul\":11272:11320   */\n      tag_100\n      jump\t// in\n    tag_236:\n        /* \"#utility.yul\":11264:11270   */\n      dup4\n        /* \"#utility.yul\":11257:11321   */\n      sstore\n        /* \"#utility.yul\":11179:11335   */\n      pop\n        /* \"#utility.yul\":11156:11335   */\n    tag_235:\n        /* \"#utility.yul\":11381:11382   */\n      0x01\n        /* \"#utility.yul\":11377:11378   */\n      0x02\n        /* \"#utility.yul\":11369:11375   */\n      dup9\n        /* \"#utility.yul\":11365:11379   */\n      mul\n        /* \"#utility.yul\":11361:11383   */\n      add\n        /* \"#utility.yul\":11355:11359   */\n      dup9\n        /* \"#utility.yul\":11348:11384   */\n      sstore\n        /* \"#utility.yul\":10783:11394   */\n      pop\n      pop\n      pop\n        /* \"#utility.yul\":10746:11633   */\n    tag_227:\n      pop\n        /* \"#utility.yul\":10336:11639   */\n      pop\n      pop\n      pop\n        /* \"#utility.yul\":10244:11639   */\n      pop\n      pop\n      jump\t// out\n        /* \"#utility.yul\":11645:11814   */\n    tag_102:\n        /* \"#utility.yul\":11729:11740   */\n      0x00\n        /* \"#utility.yul\":11763:11769   */\n      dup3\n        /* \"#utility.yul\":11758:11761   */\n      dup3\n        /* \"#utility.yul\":11751:11770   */\n      mstore\n        /* \"#utility.yul\":11803:11807   */\n      0x20\n        /* \"#utility.yul\":11798:11801   */\n      dup3\n        /* \"#utility.yul\":11794:11808   */\n      add\n        /* \"#utility.yul\":11779:11808   */\n      swap1\n      pop\n        /* \"#utility.yul\":11645:11814   */\n      swap3\n      swap2\n      pop\n      pop\n      jump\t// out\n        /* \"#utility.yul\":11820:11990   */\n    tag_103:\n        /* \"#utility.yul\":11960:11982   */\n      0x5461736b20646f6573206e6f742065786973742e000000000000000000000000\n        /* \"#utility.yul\":11956:11957   */\n      0x00\n        /* \"#utility.yul\":11948:11954   */\n      dup3\n        /* \"#utility.yul\":11944:11958   */\n      add\n        /* \"#utility.yul\":11937:11983   */\n      mstore\n        /* \"#utility.yul\":11820:11990   */\n      pop\n      jump\t// out\n        /* \"#utility.yul\":11996:12362   */\n    tag_104:\n        /* \"#utility.yul\":12138:12141   */\n      0x00\n        /* \"#utility.yul\":12159:12226   */\n      tag_240\n        /* \"#utility.yul\":12223:12225   */\n      0x14\n        /* \"#utility.yul\":12218:12221   */\n      dup4\n        /* \"#utility.yul\":12159:12226   */\n      tag_102\n      jump\t// in\n    tag_240:\n        /* \"#utility.yul\":12152:12226   */\n      swap2\n      pop\n        /* \"#utility.yul\":12235:12328   */\n      tag_241\n        /* \"#utility.yul\":12324:12327   */\n      dup3\n        /* \"#utility.yul\":12235:12328   */\n      tag_103\n      jump\t// in\n    tag_241:\n        /* \"#utility.yul\":12353:12355   */\n      0x20\n        /* \"#utility.yul\":12348:12351   */\n      dup3\n        /* \"#utility.yul\":12344:12356   */\n      add\n        /* \"#utility.yul\":12337:12356   */\n      swap1\n      pop\n        /* \"#utility.yul\":11996:12362   */\n      swap2\n      swap1\n      pop\n      jump\t// out\n        /* \"#utility.yul\":12368:12787   */\n    tag_35:\n        /* \"#utility.yul\":12534:12538   */\n      0x00\n        /* \"#utility.yul\":12572:12574   */\n      0x20\n        /* \"#utility.yul\":12561:12570   */\n      dup3\n        /* \"#utility.yul\":12557:12575   */\n      add\n        /* \"#utility.yul\":12549:12575   */\n      swap1\n      pop\n        /* \"#utility.yul\":12621:12630   */\n      dup2\n        /* \"#utility.yul\":12615:12619   */\n      dup2\n        /* \"#utility.yul\":12611:12631   */\n      sub\n        /* \"#utility.yul\":12607:12608   */\n      0x00\n        /* \"#utility.yul\":12596:12605   */\n      dup4\n        /* \"#utility.yul\":12592:12609   */\n      add\n        /* \"#utility.yul\":12585:12632   */\n      mstore\n        /* \"#utility.yul\":12649:12780   */\n      tag_243\n        /* \"#utility.yul\":12775:12779   */\n      dup2\n        /* \"#utility.yul\":12649:12780   */\n      tag_104\n      jump\t// in\n    tag_243:\n        /* \"#utility.yul\":12641:12780   */\n      swap1\n      pop\n        /* \"#utility.yul\":12368:12787   */\n      swap2\n      swap1\n      pop\n      jump\t// out\n        /* \"#utility.yul\":12793:12973   */\n    tag_105:\n        /* \"#utility.yul\":12841:12918   */\n      0x4e487b7100000000000000000000000000000000000000000000000000000000\n        /* \"#utility.yul\":12838:12839   */\n      0x00\n        /* \"#utility.yul\":12831:12919   */\n      mstore\n        /* \"#utility.yul\":12938:12942   */\n      0x11\n        /* \"#utility.yul\":12935:12936   */\n      0x04\n        /* \"#utility.yul\":12928:12943   */\n      mstore\n        /* \"#utility.yul\":12962:12966   */\n      0x24\n        /* \"#utility.yul\":12959:12960   */\n      0x00\n        /* \"#utility.yul\":12952:12967   */\n      revert\n        /* \"#utility.yul\":12979:13173   */\n    tag_37:\n        /* \"#utility.yul\":13019:13023   */\n      0x00\n        /* \"#utility.yul\":13039:13059   */\n      tag_246\n        /* \"#utility.yul\":13057:13058   */\n      dup3\n        /* \"#utility.yul\":13039:13059   */\n      tag_83\n      jump\t// in\n    tag_246:\n        /* \"#utility.yul\":13034:13059   */\n      swap2\n      pop\n        /* \"#utility.yul\":13073:13093   */\n      tag_247\n        /* \"#utility.yul\":13091:13092   */\n      dup4\n        /* \"#utility.yul\":13073:13093   */\n      tag_83\n      jump\t// in\n    tag_247:\n        /* \"#utility.yul\":13068:13093   */\n      swap3\n      pop\n        /* \"#utility.yul\":13117:13118   */\n      dup3\n        /* \"#utility.yul\":13114:13115   */\n      dup3\n        /* \"#utility.yul\":13110:13119   */\n      sub\n        /* \"#utility.yul\":13102:13119   */\n      swap1\n      pop\n        /* \"#utility.yul\":13141:13142   */\n      dup2\n        /* \"#utility.yul\":13135:13139   */\n      dup2\n        /* \"#utility.yul\":13132:13143   */\n      gt\n        /* \"#utility.yul\":13129:13166   */\n      iszero\n      tag_248\n      jumpi\n        /* \"#utility.yul\":13146:13164   */\n      tag_249\n      tag_105\n      jump\t// in\n    tag_249:\n        /* \"#utility.yul\":13129:13166   */\n    tag_248:\n        /* \"#utility.yul\":12979:13173   */\n      swap3\n      swap2\n      pop\n      pop\n      jump\t// out\n        /* \"#utility.yul\":13179:13359   */\n    tag_40:\n        /* \"#utility.yul\":13227:13304   */\n      0x4e487b7100000000000000000000000000000000000000000000000000000000\n        /* \"#utility.yul\":13224:13225   */\n      0x00\n        /* \"#utility.yul\":13217:13305   */\n      mstore\n        /* \"#utility.yul\":13324:13328   */\n      0x32\n        /* \"#utility.yul\":13321:13322   */\n      0x04\n        /* \"#utility.yul\":13314:13329   */\n      mstore\n        /* \"#utility.yul\":13348:13352   */\n      0x24\n        /* \"#utility.yul\":13345:13346   */\n      0x00\n        /* \"#utility.yul\":13338:13353   */\n      revert\n        /* \"#utility.yul\":13365:13518   */\n    tag_106:\n        /* \"#utility.yul\":13418:13424   */\n      0x00\n        /* \"#utility.yul\":13452:13457   */\n      dup2\n        /* \"#utility.yul\":13446:13458   */\n      sload\n        /* \"#utility.yul\":13436:13458   */\n      swap1\n      pop\n        /* \"#utility.yul\":13478:13511   */\n      tag_252\n        /* \"#utility.yul\":13504:13510   */\n      dup2\n        /* \"#utility.yul\":13478:13511   */\n      tag_23\n      jump\t// in\n    tag_252:\n        /* \"#utility.yul\":13468:13511   */\n      swap1\n      pop\n        /* \"#utility.yul\":13365:13518   */\n      swap2\n      swap1\n      pop\n      jump\t// out\n        /* \"#utility.yul\":13524:13669   */\n    tag_107:\n        /* \"#utility.yul\":13577:13581   */\n      0x00\n        /* \"#utility.yul\":13600:13603   */\n      dup2\n        /* \"#utility.yul\":13592:13603   */\n      swap1\n      pop\n        /* \"#utility.yul\":13623:13626   */\n      dup2\n        /* \"#utility.yul\":13620:13621   */\n      0x00\n        /* \"#utility.yul\":13613:13627   */\n      mstore\n        /* \"#utility.yul\":13657:13661   */\n      0x20\n        /* \"#utility.yul\":13654:13655   */\n      0x00\n        /* \"#utility.yul\":13644:13662   */\n      keccak256\n        /* \"#utility.yul\":13636:13662   */\n      swap1\n      pop\n        /* \"#utility.yul\":13524:13669   */\n      swap2\n      swap1\n      pop\n      jump\t// out\n        /* \"#utility.yul\":13675:15138   */\n    tag_46:\n        /* \"#utility.yul\":13790:13793   */\n      dup2\n        /* \"#utility.yul\":13784:13788   */\n      dup2\n        /* \"#utility.yul\":13781:13794   */\n      sub\n        /* \"#utility.yul\":13778:13804   */\n      tag_255\n      jumpi\n        /* \"#utility.yul\":13797:13802   */\n      pop\n      pop\n      jump(tag_254)\n        /* \"#utility.yul\":13778:13804   */\n    tag_255:\n        /* \"#utility.yul\":13828:13866   */\n      tag_256\n        /* \"#utility.yul\":13862:13865   */\n      dup3\n        /* \"#utility.yul\":13828:13866   */\n      tag_106\n      jump\t// in\n    tag_256:\n        /* \"#utility.yul\":13931:13949   */\n      0xffffffffffffffff\n        /* \"#utility.yul\":13923:13929   */\n      dup2\n        /* \"#utility.yul\":13920:13950   */\n      gt\n        /* \"#utility.yul\":13917:13973   */\n      iszero\n      tag_257\n      jumpi\n        /* \"#utility.yul\":13953:13971   */\n      tag_258\n      tag_76\n      jump\t// in\n    tag_258:\n        /* \"#utility.yul\":13917:13973   */\n    tag_257:\n        /* \"#utility.yul\":13997:14035   */\n      tag_259\n        /* \"#utility.yul\":14029:14033   */\n      dup3\n        /* \"#utility.yul\":14023:14034   */\n      sload\n        /* \"#utility.yul\":13997:14035   */\n      tag_23\n      jump\t// in\n    tag_259:\n        /* \"#utility.yul\":14082:14149   */\n      tag_260\n        /* \"#utility.yul\":14142:14148   */\n      dup3\n        /* \"#utility.yul\":14134:14140   */\n      dup3\n        /* \"#utility.yul\":14128:14132   */\n      dup6\n        /* \"#utility.yul\":14082:14149   */\n      tag_98\n      jump\t// in\n    tag_260:\n        /* \"#utility.yul\":14176:14177   */\n      0x00\n        /* \"#utility.yul\":14205:14207   */\n      0x1f\n        /* \"#utility.yul\":14197:14203   */\n      dup4\n        /* \"#utility.yul\":14194:14208   */\n      gt\n        /* \"#utility.yul\":14222:14223   */\n      0x01\n        /* \"#utility.yul\":14217:14893   */\n      dup2\n      eq\n      tag_262\n      jumpi\n        /* \"#utility.yul\":14937:14938   */\n      0x00\n        /* \"#utility.yul\":14954:14960   */\n      dup5\n        /* \"#utility.yul\":14951:15028   */\n      iszero\n      tag_263\n      jumpi\n        /* \"#utility.yul\":15003:15012   */\n      dup3\n        /* \"#utility.yul\":14998:15001   */\n      dup8\n        /* \"#utility.yul\":14994:15013   */\n      add\n        /* \"#utility.yul\":14988:15014   */\n      sload\n        /* \"#utility.yul\":14979:15014   */\n      swap1\n      pop\n        /* \"#utility.yul\":14951:15028   */\n    tag_263:\n        /* \"#utility.yul\":15054:15121   */\n      tag_264\n        /* \"#utility.yul\":15114:15120   */\n      dup6\n        /* \"#utility.yul\":15107:15112   */\n      dup3\n        /* \"#utility.yul\":15054:15121   */\n      tag_101\n      jump\t// in\n    tag_264:\n        /* \"#utility.yul\":15048:15052   */\n      dup7\n        /* \"#utility.yul\":15041:15122   */\n      sstore\n        /* \"#utility.yul\":14910:15132   */\n      pop\n        /* \"#utility.yul\":14187:15132   */\n      jump(tag_261)\n        /* \"#utility.yul\":14217:14893   */\n    tag_262:\n        /* \"#utility.yul\":14269:14273   */\n      0x1f\n        /* \"#utility.yul\":14265:14274   */\n      not\n        /* \"#utility.yul\":14257:14263   */\n      dup5\n        /* \"#utility.yul\":14253:14275   */\n      and\n        /* \"#utility.yul\":14295:14335   */\n      tag_265\n        /* \"#utility.yul\":14331:14334   */\n      dup8\n        /* \"#utility.yul\":14295:14335   */\n      tag_107\n      jump\t// in\n    tag_265:\n        /* \"#utility.yul\":14288:14335   */\n      swap7\n      pop\n        /* \"#utility.yul\":14362:14399   */\n      tag_266\n        /* \"#utility.yul\":14394:14398   */\n      dup7\n        /* \"#utility.yul\":14362:14399   */\n      tag_87\n      jump\t// in\n    tag_266:\n        /* \"#utility.yul\":14421:14422   */\n      0x00\n        /* \"#utility.yul\":14435:14642   */\n    tag_267:\n        /* \"#utility.yul\":14449:14456   */\n      dup3\n        /* \"#utility.yul\":14446:14447   */\n      dup2\n        /* \"#utility.yul\":14443:14457   */\n      lt\n        /* \"#utility.yul\":14435:14642   */\n      iszero\n      tag_269\n      jumpi\n        /* \"#utility.yul\":14528:14537   */\n      dup5\n        /* \"#utility.yul\":14523:14526   */\n      dup10\n        /* \"#utility.yul\":14519:14538   */\n      add\n        /* \"#utility.yul\":14513:14539   */\n      sload\n        /* \"#utility.yul\":14505:14511   */\n      dup3\n        /* \"#utility.yul\":14498:14540   */\n      sstore\n        /* \"#utility.yul\":14579:14580   */\n      0x01\n        /* \"#utility.yul\":14571:14577   */\n      dup3\n        /* \"#utility.yul\":14567:14581   */\n      add\n        /* \"#utility.yul\":14557:14581   */\n      swap2\n      pop\n        /* \"#utility.yul\":14626:14627   */\n      0x01\n        /* \"#utility.yul\":14615:14624   */\n      dup6\n        /* \"#utility.yul\":14611:14628   */\n      add\n        /* \"#utility.yul\":14598:14628   */\n      swap5\n      pop\n        /* \"#utility.yul\":14472:14476   */\n      0x20\n        /* \"#utility.yul\":14469:14470   */\n      dup2\n        /* \"#utility.yul\":14465:14477   */\n      add\n        /* \"#utility.yul\":14460:14477   */\n      swap1\n      pop\n        /* \"#utility.yul\":14435:14642   */\n      jump(tag_267)\n    tag_269:\n        /* \"#utility.yul\":14670:14676   */\n      dup7\n        /* \"#utility.yul\":14661:14668   */\n      dup4\n        /* \"#utility.yul\":14658:14677   */\n      lt\n        /* \"#utility.yul\":14655:14834   */\n      iszero\n      tag_270\n      jumpi\n        /* \"#utility.yul\":14728:14737   */\n      dup5\n        /* \"#utility.yul\":14723:14726   */\n      dup10\n        /* \"#utility.yul\":14719:14738   */\n      add\n        /* \"#utility.yul\":14713:14739   */\n      sload\n        /* \"#utility.yul\":14771:14819   */\n      tag_271\n        /* \"#utility.yul\":14813:14817   */\n      0x1f\n        /* \"#utility.yul\":14805:14811   */\n      dup10\n        /* \"#utility.yul\":14801:14818   */\n      and\n        /* \"#utility.yul\":14790:14799   */\n      dup3\n        /* \"#utility.yul\":14771:14819   */\n      tag_100\n      jump\t// in\n    tag_271:\n        /* \"#utility.yul\":14763:14769   */\n      dup4\n        /* \"#utility.yul\":14756:14820   */\n      sstore\n        /* \"#utility.yul\":14678:14834   */\n      pop\n        /* \"#utility.yul\":14655:14834   */\n    tag_270:\n        /* \"#utility.yul\":14880:14881   */\n      0x01\n        /* \"#utility.yul\":14876:14877   */\n      0x02\n        /* \"#utility.yul\":14868:14874   */\n      dup9\n        /* \"#utility.yul\":14864:14878   */\n      mul\n        /* \"#utility.yul\":14860:14882   */\n      add\n        /* \"#utility.yul\":14854:14858   */\n      dup9\n        /* \"#utility.yul\":14847:14883   */\n      sstore\n        /* \"#utility.yul\":14224:14893   */\n      pop\n      pop\n      pop\n        /* \"#utility.yul\":14187:15132   */\n    tag_261:\n      pop\n        /* \"#utility.yul\":13768:15138   */\n      pop\n      pop\n      pop\n        /* \"#utility.yul\":13675:15138   */\n      pop\n      pop\n    tag_254:\n      jump\t// out\n        /* \"#utility.yul\":15144:15324   */\n    tag_49:\n        /* \"#utility.yul\":15192:15269   */\n      0x4e487b7100000000000000000000000000000000000000000000000000000000\n        /* \"#utility.yul\":15189:15190   */\n      0x00\n        /* \"#utility.yul\":15182:15270   */\n      mstore\n        /* \"#utility.yul\":15289:15293   */\n      0x31\n        /* \"#utility.yul\":15286:15287   */\n      0x04\n        /* \"#utility.yul\":15279:15294   */\n      mstore\n        /* \"#utility.yul\":15313:15317   */\n      0x24\n        /* \"#utility.yul\":15310:15311   */\n      0x00\n        /* \"#utility.yul\":15303:15318   */\n      revert\n\n    auxdata: 0xa264697066735822122029443a310bc29f880485c36320fe311b93cb1c08b33624324564afe1a9be2e9664736f6c634300081a0033\n}\n",
				"bytecode": {
					"linkReferences": {},
					"object": "6080604052348015600e575f80fd5b50610b2a8061001c5f395ff3fe608060405234801561000f575f80fd5b506004361061003f575f3560e01c806304a87e38146100435780636723856214610061578063c30841171461007d575b5f80fd5b61004b610099565b60405161005891906103eb565b60405180910390f35b61007b60048036038101906100769190610548565b61016c565b005b610097600480360381019061009291906105c2565b6101a0565b005b60605f805480602002602001604051908101604052809291908181526020015f905b82821015610163578382905f5260205f200180546100d89061061a565b80601f01602080910402602001604051908101604052809291908181526020018280546101049061061a565b801561014f5780601f106101265761010080835404028352916020019161014f565b820191905f5260205f20905b81548152906001019060200180831161013257829003601f168201915b5050505050815260200190600101906100bb565b50505050905090565b5f81908060018154018082558091505060019003905f5260205f20015f90919091909150908161019c91906107e7565b5050565b5f8054905081106101e6576040517f08c379a00000000000000000000000000000000000000000000000000000000081526004016101dd90610910565b60405180910390fd5b5f60015f805490506101f8919061095b565b815481106102095761020861098e565b5b905f5260205f20015f82815481106102245761022361098e565b5b905f5260205f2001908161023891906109e2565b505f80548061024a57610249610ac7565b5b600190038181905f5260205f20015f6102639190610268565b905550565b5080546102749061061a565b5f825580601f1061028557506102a2565b601f0160209004905f5260205f20908101906102a191906102a5565b5b50565b5b808211156102bc575f815f9055506001016102a6565b5090565b5f81519050919050565b5f82825260208201905092915050565b5f819050602082019050919050565b5f81519050919050565b5f82825260208201905092915050565b8281835e5f83830152505050565b5f601f19601f8301169050919050565b5f61032b826102e9565b61033581856102f3565b9350610345818560208601610303565b61034e81610311565b840191505092915050565b5f6103648383610321565b905092915050565b5f602082019050919050565b5f610382826102c0565b61038c81856102ca565b93508360208202850161039e856102da565b805f5b858110156103d957848403895281516103ba8582610359565b94506103c58361036c565b925060208a019950506001810190506103a1565b50829750879550505050505092915050565b5f6020820190508181035f8301526104038184610378565b905092915050565b5f604051905090565b5f80fd5b5f80fd5b5f80fd5b5f80fd5b7f4e487b71000000000000000000000000000000000000000000000000000000005f52604160045260245ffd5b61045a82610311565b810181811067ffffffffffffffff8211171561047957610478610424565b5b80604052505050565b5f61048b61040b565b90506104978282610451565b919050565b5f67ffffffffffffffff8211156104b6576104b5610424565b5b6104bf82610311565b9050602081019050919050565b828183375f83830152505050565b5f6104ec6104e78461049c565b610482565b90508281526020810184848401111561050857610507610420565b5b6105138482856104cc565b509392505050565b5f82601f83011261052f5761052e61041c565b5b813561053f8482602086016104da565b91505092915050565b5f6020828403121561055d5761055c610414565b5b5f82013567ffffffffffffffff81111561057a57610579610418565b5b6105868482850161051b565b91505092915050565b5f819050919050565b6105a18161058f565b81146105ab575f80fd5b50565b5f813590506105bc81610598565b92915050565b5f602082840312156105d7576105d6610414565b5b5f6105e4848285016105ae565b91505092915050565b7f4e487b71000000000000000000000000000000000000000000000000000000005f52602260045260245ffd5b5f600282049050600182168061063157607f821691505b602082108103610644576106436105ed565b5b50919050565b5f819050815f5260205f209050919050565b5f6020601f8301049050919050565b5f82821b905092915050565b5f600883026106a67fffffffffffffffffffffffffffffffffffffffffffffffffffffffffffffffff8261066b565b6106b0868361066b565b95508019841693508086168417925050509392505050565b5f819050919050565b5f6106eb6106e66106e18461058f565b6106c8565b61058f565b9050919050565b5f819050919050565b610704836106d1565b610718610710826106f2565b848454610677565b825550505050565b5f90565b61072c610720565b6107378184846106fb565b505050565b5b8181101561075a5761074f5f82610724565b60018101905061073d565b5050565b601f82111561079f576107708161064a565b6107798461065c565b81016020851015610788578190505b61079c6107948561065c565b83018261073c565b50505b505050565b5f82821c905092915050565b5f6107bf5f19846008026107a4565b1980831691505092915050565b5f6107d783836107b0565b9150826002028217905092915050565b6107f0826102e9565b67ffffffffffffffff81111561080957610808610424565b5b610813825461061a565b61081e82828561075e565b5f60209050601f83116001811461084f575f841561083d578287015190505b61084785826107cc565b8655506108ae565b601f19841661085d8661064a565b5f5b828110156108845784890151825560018201915060208501945060208101905061085f565b868310156108a1578489015161089d601f8916826107b0565b8355505b6001600288020188555050505b505050505050565b5f82825260208201905092915050565b7f5461736b20646f6573206e6f742065786973742e0000000000000000000000005f82015250565b5f6108fa6014836108b6565b9150610905826108c6565b602082019050919050565b5f6020820190508181035f830152610927816108ee565b9050919050565b7f4e487b71000000000000000000000000000000000000000000000000000000005f52601160045260245ffd5b5f6109658261058f565b91506109708361058f565b92508282039050818111156109885761098761092e565b5b92915050565b7f4e487b71000000000000000000000000000000000000000000000000000000005f52603260045260245ffd5b5f815490506109c98161061a565b9050919050565b5f819050815f5260205f209050919050565b8181036109f0575050610ac5565b6109f9826109bb565b67ffffffffffffffff811115610a1257610a11610424565b5b610a1c825461061a565b610a2782828561075e565b5f601f831160018114610a54575f8415610a42578287015490505b610a4c85826107cc565b865550610abe565b601f198416610a62876109d0565b9650610a6d8661064a565b5f5b82811015610a9457848901548255600182019150600185019450602081019050610a6f565b86831015610ab15784890154610aad601f8916826107b0565b8355505b6001600288020188555050505b5050505050505b565b7f4e487b71000000000000000000000000000000000000000000000000000000005f52603160045260245ffdfea264697066735822122029443a310bc29f880485c36320fe311b93cb1c08b33624324564afe1a9be2e9664736f6c634300081a0033",
					"opcodes": "PUSH1 0x80 PUSH1 0x40 MSTORE CALLVALUE DUP1 ISZERO PUSH1 0xE JUMPI PUSH0 DUP1 REVERT JUMPDEST POP PUSH2 0xB2A DUP1 PUSH2 0x1C PUSH0 CODECOPY PUSH0 RETURN INVALID PUSH1 0x80 PUSH1 0x40 MSTORE CALLVALUE DUP1 ISZERO PUSH2 0xF JUMPI PUSH0 DUP1 REVERT JUMPDEST POP PUSH1 0x4 CALLDATASIZE LT PUSH2 0x3F JUMPI PUSH0 CALLDATALOAD PUSH1 0xE0 SHR DUP1 PUSH4 0x4A87E38 EQ PUSH2 0x43 JUMPI DUP1 PUSH4 0x67238562 EQ PUSH2 0x61 JUMPI DUP1 PUSH4 0xC3084117 EQ PUSH2 0x7D JUMPI JUMPDEST PUSH0 DUP1 REVERT JUMPDEST PUSH2 0x4B PUSH2 0x99 JUMP JUMPDEST PUSH1 0x40 MLOAD PUSH2 0x58 SWAP2 SWAP1 PUSH2 0x3EB JUMP JUMPDEST PUSH1 0x40 MLOAD DUP1 SWAP2 SUB SWAP1 RETURN JUMPDEST PUSH2 0x7B PUSH1 0x4 DUP1 CALLDATASIZE SUB DUP2 ADD SWAP1 PUSH2 0x76 SWAP2 SWAP1 PUSH2 0x548 JUMP JUMPDEST PUSH2 0x16C JUMP JUMPDEST STOP JUMPDEST PUSH2 0x97 PUSH1 0x4 DUP1 CALLDATASIZE SUB DUP2 ADD SWAP1 PUSH2 0x92 SWAP2 SWAP1 PUSH2 0x5C2 JUMP JUMPDEST PUSH2 0x1A0 JUMP JUMPDEST STOP JUMPDEST PUSH1 0x60 PUSH0 DUP1 SLOAD DUP1 PUSH1 0x20 MUL PUSH1 0x20 ADD PUSH1 0x40 MLOAD SWAP1 DUP2 ADD PUSH1 0x40 MSTORE DUP1 SWAP3 SWAP2 SWAP1 DUP2 DUP2 MSTORE PUSH1 0x20 ADD PUSH0 SWAP1 JUMPDEST DUP3 DUP3 LT ISZERO PUSH2 0x163 JUMPI DUP4 DUP3 SWAP1 PUSH0 MSTORE PUSH1 0x20 PUSH0 KECCAK256 ADD DUP1 SLOAD PUSH2 0xD8 SWAP1 PUSH2 0x61A JUMP JUMPDEST DUP1 PUSH1 0x1F ADD PUSH1 0x20 DUP1 SWAP2 DIV MUL PUSH1 0x20 ADD PUSH1 0x40 MLOAD SWAP1 DUP2 ADD PUSH1 0x40 MSTORE DUP1 SWAP3 SWAP2 SWAP1 DUP2 DUP2 MSTORE PUSH1 0x20 ADD DUP3 DUP1 SLOAD PUSH2 0x104 SWAP1 PUSH2 0x61A JUMP JUMPDEST DUP1 ISZERO PUSH2 0x14F JUMPI DUP1 PUSH1 0x1F LT PUSH2 0x126 JUMPI PUSH2 0x100 DUP1 DUP4 SLOAD DIV MUL DUP4 MSTORE SWAP2 PUSH1 0x20 ADD SWAP2 PUSH2 0x14F JUMP JUMPDEST DUP3 ADD SWAP2 SWAP1 PUSH0 MSTORE PUSH1 0x20 PUSH0 KECCAK256 SWAP1 JUMPDEST DUP2 SLOAD DUP2 MSTORE SWAP1 PUSH1 0x1 ADD SWAP1 PUSH1 0x20 ADD DUP1 DUP4 GT PUSH2 0x132 JUMPI DUP3 SWAP1 SUB PUSH1 0x1F AND DUP3 ADD SWAP2 JUMPDEST POP POP POP POP POP DUP2 MSTORE PUSH1 0x20 ADD SWAP1 PUSH1 0x1 ADD SWAP1 PUSH2 0xBB JUMP JUMPDEST POP POP POP POP SWAP1 POP SWAP1 JUMP JUMPDEST PUSH0 DUP2 SWAP1 DUP1 PUSH1 0x1 DUP2 SLOAD ADD DUP1 DUP3 SSTORE DUP1 SWAP2 POP POP PUSH1 0x1 SWAP1 SUB SWAP1 PUSH0 MSTORE PUSH1 0x20 PUSH0 KECCAK256 ADD PUSH0 SWAP1 SWAP2 SWAP1 SWAP2 SWAP1 SWAP2 POP SWAP1 DUP2 PUSH2 0x19C SWAP2 SWAP1 PUSH2 0x7E7 JUMP JUMPDEST POP POP JUMP JUMPDEST PUSH0 DUP1 SLOAD SWAP1 POP DUP2 LT PUSH2 0x1E6 JUMPI PUSH1 0x40 MLOAD PUSH32 0x8C379A000000000000000000000000000000000000000000000000000000000 DUP2 MSTORE PUSH1 0x4 ADD PUSH2 0x1DD SWAP1 PUSH2 0x910 JUMP JUMPDEST PUSH1 0x40 MLOAD DUP1 SWAP2 SUB SWAP1 REVERT JUMPDEST PUSH0 PUSH1 0x1 PUSH0 DUP1 SLOAD SWAP1 POP PUSH2 0x1F8 SWAP2 SWAP1 PUSH2 0x95B JUMP JUMPDEST DUP2 SLOAD DUP2 LT PUSH2 0x209 JUMPI PUSH2 0x208 PUSH2 0x98E JUMP JUMPDEST JUMPDEST SWAP1 PUSH0 MSTORE PUSH1 0x20 PUSH0 KECCAK256 ADD PUSH0 DUP3 DUP2 SLOAD DUP2 LT PUSH2 0x224 JUMPI PUSH2 0x223 PUSH2 0x98E JUMP JUMPDEST JUMPDEST SWAP1 PUSH0 MSTORE PUSH1 0x20 PUSH0 KECCAK256 ADD SWAP1 DUP2 PUSH2 0x238 SWAP2 SWAP1 PUSH2 0x9E2 JUMP JUMPDEST POP PUSH0 DUP1 SLOAD DUP1 PUSH2 0x24A JUMPI PUSH2 0x249 PUSH2 0xAC7 JUMP JUMPDEST JUMPDEST PUSH1 0x1 SWAP1 SUB DUP2 DUP2 SWAP1 PUSH0 MSTORE PUSH1 0x20 PUSH0 KECCAK256 ADD PUSH0 PUSH2 0x263 SWAP2 SWAP1 PUSH2 0x268 JUMP JUMPDEST SWAP1 SSTORE POP JUMP JUMPDEST POP DUP1 SLOAD PUSH2 0x274 SWAP1 PUSH2 0x61A JUMP JUMPDEST PUSH0 DUP3 SSTORE DUP1 PUSH1 0x1F LT PUSH2 0x285 JUMPI POP PUSH2 0x2A2 JUMP JUMPDEST PUSH1 0x1F ADD PUSH1 0x20 SWAP1 DIV SWAP1 PUSH0 MSTORE PUSH1 0x20 PUSH0 KECCAK256 SWAP1 DUP2 ADD SWAP1 PUSH2 0x2A1 SWAP2 SWAP1 PUSH2 0x2A5 JUMP JUMPDEST JUMPDEST POP JUMP JUMPDEST JUMPDEST DUP1 DUP3 GT ISZERO PUSH2 0x2BC JUMPI PUSH0 DUP2 PUSH0 SWAP1 SSTORE POP PUSH1 0x1 ADD PUSH2 0x2A6 JUMP JUMPDEST POP SWAP1 JUMP JUMPDEST PUSH0 DUP2 MLOAD SWAP1 POP SWAP2 SWAP1 POP JUMP JUMPDEST PUSH0 DUP3 DUP3 MSTORE PUSH1 0x20 DUP3 ADD SWAP1 POP SWAP3 SWAP2 POP POP JUMP JUMPDEST PUSH0 DUP2 SWAP1 POP PUSH1 0x20 DUP3 ADD SWAP1 POP SWAP2 SWAP1 POP JUMP JUMPDEST PUSH0 DUP2 MLOAD SWAP1 POP SWAP2 SWAP1 POP JUMP JUMPDEST PUSH0 DUP3 DUP3 MSTORE PUSH1 0x20 DUP3 ADD SWAP1 POP SWAP3 SWAP2 POP POP JUMP JUMPDEST DUP3 DUP2 DUP4 MCOPY PUSH0 DUP4 DUP4 ADD MSTORE POP POP POP JUMP JUMPDEST PUSH0 PUSH1 0x1F NOT PUSH1 0x1F DUP4 ADD AND SWAP1 POP SWAP2 SWAP1 POP JUMP JUMPDEST PUSH0 PUSH2 0x32B DUP3 PUSH2 0x2E9 JUMP JUMPDEST PUSH2 0x335 DUP2 DUP6 PUSH2 0x2F3 JUMP JUMPDEST SWAP4 POP PUSH2 0x345 DUP2 DUP6 PUSH1 0x20 DUP7 ADD PUSH2 0x303 JUMP JUMPDEST PUSH2 0x34E DUP2 PUSH2 0x311 JUMP JUMPDEST DUP5 ADD SWAP2 POP POP SWAP3 SWAP2 POP POP JUMP JUMPDEST PUSH0 PUSH2 0x364 DUP4 DUP4 PUSH2 0x321 JUMP JUMPDEST SWAP1 POP SWAP3 SWAP2 POP POP JUMP JUMPDEST PUSH0 PUSH1 0x20 DUP3 ADD SWAP1 POP SWAP2 SWAP1 POP JUMP JUMPDEST PUSH0 PUSH2 0x382 DUP3 PUSH2 0x2C0 JUMP JUMPDEST PUSH2 0x38C DUP2 DUP6 PUSH2 0x2CA JUMP JUMPDEST SWAP4 POP DUP4 PUSH1 0x20 DUP3 MUL DUP6 ADD PUSH2 0x39E DUP6 PUSH2 0x2DA JUMP JUMPDEST DUP1 PUSH0 JUMPDEST DUP6 DUP2 LT ISZERO PUSH2 0x3D9 JUMPI DUP5 DUP5 SUB DUP10 MSTORE DUP2 MLOAD PUSH2 0x3BA DUP6 DUP3 PUSH2 0x359 JUMP JUMPDEST SWAP5 POP PUSH2 0x3C5 DUP4 PUSH2 0x36C JUMP JUMPDEST SWAP3 POP PUSH1 0x20 DUP11 ADD SWAP10 POP POP PUSH1 0x1 DUP2 ADD SWAP1 POP PUSH2 0x3A1 JUMP JUMPDEST POP DUP3 SWAP8 POP DUP8 SWAP6 POP POP POP POP POP POP SWAP3 SWAP2 POP POP JUMP JUMPDEST PUSH0 PUSH1 0x20 DUP3 ADD SWAP1 POP DUP2 DUP2 SUB PUSH0 DUP4 ADD MSTORE PUSH2 0x403 DUP2 DUP5 PUSH2 0x378 JUMP JUMPDEST SWAP1 POP SWAP3 SWAP2 POP POP JUMP JUMPDEST PUSH0 PUSH1 0x40 MLOAD SWAP1 POP SWAP1 JUMP JUMPDEST PUSH0 DUP1 REVERT JUMPDEST PUSH0 DUP1 REVERT JUMPDEST PUSH0 DUP1 REVERT JUMPDEST PUSH0 DUP1 REVERT JUMPDEST PUSH32 0x4E487B7100000000000000000000000000000000000000000000000000000000 PUSH0 MSTORE PUSH1 0x41 PUSH1 0x4 MSTORE PUSH1 0x24 PUSH0 REVERT JUMPDEST PUSH2 0x45A DUP3 PUSH2 0x311 JUMP JUMPDEST DUP2 ADD DUP2 DUP2 LT PUSH8 0xFFFFFFFFFFFFFFFF DUP3 GT OR ISZERO PUSH2 0x479 JUMPI PUSH2 0x478 PUSH2 0x424 JUMP JUMPDEST JUMPDEST DUP1 PUSH1 0x40 MSTORE POP POP POP JUMP JUMPDEST PUSH0 PUSH2 0x48B PUSH2 0x40B JUMP JUMPDEST SWAP1 POP PUSH2 0x497 DUP3 DUP3 PUSH2 0x451 JUMP JUMPDEST SWAP2 SWAP1 POP JUMP JUMPDEST PUSH0 PUSH8 0xFFFFFFFFFFFFFFFF DUP3 GT ISZERO PUSH2 0x4B6 JUMPI PUSH2 0x4B5 PUSH2 0x424 JUMP JUMPDEST JUMPDEST PUSH2 0x4BF DUP3 PUSH2 0x311 JUMP JUMPDEST SWAP1 POP PUSH1 0x20 DUP2 ADD SWAP1 POP SWAP2 SWAP1 POP JUMP JUMPDEST DUP3 DUP2 DUP4 CALLDATACOPY PUSH0 DUP4 DUP4 ADD MSTORE POP POP POP JUMP JUMPDEST PUSH0 PUSH2 0x4EC PUSH2 0x4E7 DUP5 PUSH2 0x49C JUMP JUMPDEST PUSH2 0x482 JUMP JUMPDEST SWAP1 POP DUP3 DUP2 MSTORE PUSH1 0x20 DUP2 ADD DUP5 DUP5 DUP5 ADD GT ISZERO PUSH2 0x508 JUMPI PUSH2 0x507 PUSH2 0x420 JUMP JUMPDEST JUMPDEST PUSH2 0x513 DUP5 DUP3 DUP6 PUSH2 0x4CC JUMP JUMPDEST POP SWAP4 SWAP3 POP POP POP JUMP JUMPDEST PUSH0 DUP3 PUSH1 0x1F DUP4 ADD SLT PUSH2 0x52F JUMPI PUSH2 0x52E PUSH2 0x41C JUMP JUMPDEST JUMPDEST DUP2 CALLDATALOAD PUSH2 0x53F DUP5 DUP3 PUSH1 0x20 DUP7 ADD PUSH2 0x4DA JUMP JUMPDEST SWAP2 POP POP SWAP3 SWAP2 POP POP JUMP JUMPDEST PUSH0 PUSH1 0x20 DUP3 DUP5 SUB SLT ISZERO PUSH2 0x55D JUMPI PUSH2 0x55C PUSH2 0x414 JUMP JUMPDEST JUMPDEST PUSH0 DUP3 ADD CALLDATALOAD PUSH8 0xFFFFFFFFFFFFFFFF DUP2 GT ISZERO PUSH2 0x57A JUMPI PUSH2 0x579 PUSH2 0x418 JUMP JUMPDEST JUMPDEST PUSH2 0x586 DUP5 DUP3 DUP6 ADD PUSH2 0x51B JUMP JUMPDEST SWAP2 POP POP SWAP3 SWAP2 POP POP JUMP JUMPDEST PUSH0 DUP2 SWAP1 POP SWAP2 SWAP1 POP JUMP JUMPDEST PUSH2 0x5A1 DUP2 PUSH2 0x58F JUMP JUMPDEST DUP2 EQ PUSH2 0x5AB JUMPI PUSH0 DUP1 REVERT JUMPDEST POP JUMP JUMPDEST PUSH0 DUP2 CALLDATALOAD SWAP1 POP PUSH2 0x5BC DUP2 PUSH2 0x598 JUMP JUMPDEST SWAP3 SWAP2 POP POP JUMP JUMPDEST PUSH0 PUSH1 0x20 DUP3 DUP5 SUB SLT ISZERO PUSH2 0x5D7 JUMPI PUSH2 0x5D6 PUSH2 0x414 JUMP JUMPDEST JUMPDEST PUSH0 PUSH2 0x5E4 DUP5 DUP3 DUP6 ADD PUSH2 0x5AE JUMP JUMPDEST SWAP2 POP POP SWAP3 SWAP2 POP POP JUMP JUMPDEST PUSH32 0x4E487B7100000000000000000000000000000000000000000000000000000000 PUSH0 MSTORE PUSH1 0x22 PUSH1 0x4 MSTORE PUSH1 0x24 PUSH0 REVERT JUMPDEST PUSH0 PUSH1 0x2 DUP3 DIV SWAP1 POP PUSH1 0x1 DUP3 AND DUP1 PUSH2 0x631 JUMPI PUSH1 0x7F DUP3 AND SWAP2 POP JUMPDEST PUSH1 0x20 DUP3 LT DUP2 SUB PUSH2 0x644 JUMPI PUSH2 0x643 PUSH2 0x5ED JUMP JUMPDEST JUMPDEST POP SWAP2 SWAP1 POP JUMP JUMPDEST PUSH0 DUP2 SWAP1 POP DUP2 PUSH0 MSTORE PUSH1 0x20 PUSH0 KECCAK256 SWAP1 POP SWAP2 SWAP1 POP JUMP JUMPDEST PUSH0 PUSH1 0x20 PUSH1 0x1F DUP4 ADD DIV SWAP1 POP SWAP2 SWAP1 POP JUMP JUMPDEST PUSH0 DUP3 DUP3 SHL SWAP1 POP SWAP3 SWAP2 POP POP JUMP JUMPDEST PUSH0 PUSH1 0x8 DUP4 MUL PUSH2 0x6A6 PUSH32 0xFFFFFFFFFFFFFFFFFFFFFFFFFFFFFFFFFFFFFFFFFFFFFFFFFFFFFFFFFFFFFFFF DUP3 PUSH2 0x66B JUMP JUMPDEST PUSH2 0x6B0 DUP7 DUP4 PUSH2 0x66B JUMP JUMPDEST SWAP6 POP DUP1 NOT DUP5 AND SWAP4 POP DUP1 DUP7 AND DUP5 OR SWAP3 POP POP POP SWAP4 SWAP3 POP POP POP JUMP JUMPDEST PUSH0 DUP2 SWAP1 POP SWAP2 SWAP1 POP JUMP JUMPDEST PUSH0 PUSH2 0x6EB PUSH2 0x6E6 PUSH2 0x6E1 DUP5 PUSH2 0x58F JUMP JUMPDEST PUSH2 0x6C8 JUMP JUMPDEST PUSH2 0x58F JUMP JUMPDEST SWAP1 POP SWAP2 SWAP1 POP JUMP JUMPDEST PUSH0 DUP2 SWAP1 POP SWAP2 SWAP1 POP JUMP JUMPDEST PUSH2 0x704 DUP4 PUSH2 0x6D1 JUMP JUMPDEST PUSH2 0x718 PUSH2 0x710 DUP3 PUSH2 0x6F2 JUMP JUMPDEST DUP5 DUP5 SLOAD PUSH2 0x677 JUMP JUMPDEST DUP3 SSTORE POP POP POP POP JUMP JUMPDEST PUSH0 SWAP1 JUMP JUMPDEST PUSH2 0x72C PUSH2 0x720 JUMP JUMPDEST PUSH2 0x737 DUP2 DUP5 DUP5 PUSH2 0x6FB JUMP JUMPDEST POP POP POP JUMP JUMPDEST JUMPDEST DUP2 DUP2 LT ISZERO PUSH2 0x75A JUMPI PUSH2 0x74F PUSH0 DUP3 PUSH2 0x724 JUMP JUMPDEST PUSH1 0x1 DUP2 ADD SWAP1 POP PUSH2 0x73D JUMP JUMPDEST POP POP JUMP JUMPDEST PUSH1 0x1F DUP3 GT ISZERO PUSH2 0x79F JUMPI PUSH2 0x770 DUP2 PUSH2 0x64A JUMP JUMPDEST PUSH2 0x779 DUP5 PUSH2 0x65C JUMP JUMPDEST DUP2 ADD PUSH1 0x20 DUP6 LT ISZERO PUSH2 0x788 JUMPI DUP2 SWAP1 POP JUMPDEST PUSH2 0x79C PUSH2 0x794 DUP6 PUSH2 0x65C JUMP JUMPDEST DUP4 ADD DUP3 PUSH2 0x73C JUMP JUMPDEST POP POP JUMPDEST POP POP POP JUMP JUMPDEST PUSH0 DUP3 DUP3 SHR SWAP1 POP SWAP3 SWAP2 POP POP JUMP JUMPDEST PUSH0 PUSH2 0x7BF PUSH0 NOT DUP5 PUSH1 0x8 MUL PUSH2 0x7A4 JUMP JUMPDEST NOT DUP1 DUP4 AND SWAP2 POP POP SWAP3 SWAP2 POP POP JUMP JUMPDEST PUSH0 PUSH2 0x7D7 DUP4 DUP4 PUSH2 0x7B0 JUMP JUMPDEST SWAP2 POP DUP3 PUSH1 0x2 MUL DUP3 OR SWAP1 POP SWAP3 SWAP2 POP POP JUMP JUMPDEST PUSH2 0x7F0 DUP3 PUSH2 0x2E9 JUMP JUMPDEST PUSH8 0xFFFFFFFFFFFFFFFF DUP2 GT ISZERO PUSH2 0x809 JUMPI PUSH2 0x808 PUSH2 0x424 JUMP JUMPDEST JUMPDEST PUSH2 0x813 DUP3 SLOAD PUSH2 0x61A JUMP JUMPDEST PUSH2 0x81E DUP3 DUP3 DUP6 PUSH2 0x75E JUMP JUMPDEST PUSH0 PUSH1 0x20 SWAP1 POP PUSH1 0x1F DUP4 GT PUSH1 0x1 DUP2 EQ PUSH2 0x84F JUMPI PUSH0 DUP5 ISZERO PUSH2 0x83D JUMPI DUP3 DUP8 ADD MLOAD SWAP1 POP JUMPDEST PUSH2 0x847 DUP6 DUP3 PUSH2 0x7CC JUMP JUMPDEST DUP7 SSTORE POP PUSH2 0x8AE JUMP JUMPDEST PUSH1 0x1F NOT DUP5 AND PUSH2 0x85D DUP7 PUSH2 0x64A JUMP JUMPDEST PUSH0 JUMPDEST DUP3 DUP2 LT ISZERO PUSH2 0x884 JUMPI DUP5 DUP10 ADD MLOAD DUP3 SSTORE PUSH1 0x1 DUP3 ADD SWAP2 POP PUSH1 0x20 DUP6 ADD SWAP5 POP PUSH1 0x20 DUP2 ADD SWAP1 POP PUSH2 0x85F JUMP JUMPDEST DUP7 DUP4 LT ISZERO PUSH2 0x8A1 JUMPI DUP5 DUP10 ADD MLOAD PUSH2 0x89D PUSH1 0x1F DUP10 AND DUP3 PUSH2 0x7B0 JUMP JUMPDEST DUP4 SSTORE POP JUMPDEST PUSH1 0x1 PUSH1 0x2 DUP9 MUL ADD DUP9 SSTORE POP POP POP JUMPDEST POP POP POP POP POP POP JUMP JUMPDEST PUSH0 DUP3 DUP3 MSTORE PUSH1 0x20 DUP3 ADD SWAP1 POP SWAP3 SWAP2 POP POP JUMP JUMPDEST PUSH32 0x5461736B20646F6573206E6F742065786973742E000000000000000000000000 PUSH0 DUP3 ADD MSTORE POP JUMP JUMPDEST PUSH0 PUSH2 0x8FA PUSH1 0x14 DUP4 PUSH2 0x8B6 JUMP JUMPDEST SWAP2 POP PUSH2 0x905 DUP3 PUSH2 0x8C6 JUMP JUMPDEST PUSH1 0x20 DUP3 ADD SWAP1 POP SWAP2 SWAP1 POP JUMP JUMPDEST PUSH0 PUSH1 0x20 DUP3 ADD SWAP1 POP DUP2 DUP2 SUB PUSH0 DUP4 ADD MSTORE PUSH2 0x927 DUP2 PUSH2 0x8EE JUMP JUMPDEST SWAP1 POP SWAP2 SWAP1 POP JUMP JUMPDEST PUSH32 0x4E487B7100000000000000000000000000000000000000000000000000000000 PUSH0 MSTORE PUSH1 0x11 PUSH1 0x4 MSTORE PUSH1 0x24 PUSH0 REVERT JUMPDEST PUSH0 PUSH2 0x965 DUP3 PUSH2 0x58F JUMP JUMPDEST SWAP2 POP PUSH2 0x970 DUP4 PUSH2 0x58F JUMP JUMPDEST SWAP3 POP DUP3 DUP3 SUB SWAP1 POP DUP2 DUP2 GT ISZERO PUSH2 0x988 JUMPI PUSH2 0x987 PUSH2 0x92E JUMP JUMPDEST JUMPDEST SWAP3 SWAP2 POP POP JUMP JUMPDEST PUSH32 0x4E487B7100000000000000000000000000000000000000000000000000000000 PUSH0 MSTORE PUSH1 0x32 PUSH1 0x4 MSTORE PUSH1 0x24 PUSH0 REVERT JUMPDEST PUSH0 DUP2 SLOAD SWAP1 POP PUSH2 0x9C9 DUP2 PUSH2 0x61A JUMP JUMPDEST SWAP1 POP SWAP2 SWAP1 POP JUMP JUMPDEST PUSH0 DUP2 SWAP1 POP DUP2 PUSH0 MSTORE PUSH1 0x20 PUSH0 KECCAK256 SWAP1 POP SWAP2 SWAP1 POP JUMP JUMPDEST DUP2 DUP2 SUB PUSH2 0x9F0 JUMPI POP POP PUSH2 0xAC5 JUMP JUMPDEST PUSH2 0x9F9 DUP3 PUSH2 0x9BB JUMP JUMPDEST PUSH8 0xFFFFFFFFFFFFFFFF DUP2 GT ISZERO PUSH2 0xA12 JUMPI PUSH2 0xA11 PUSH2 0x424 JUMP JUMPDEST JUMPDEST PUSH2 0xA1C DUP3 SLOAD PUSH2 0x61A JUMP JUMPDEST PUSH2 0xA27 DUP3 DUP3 DUP6 PUSH2 0x75E JUMP JUMPDEST PUSH0 PUSH1 0x1F DUP4 GT PUSH1 0x1 DUP2 EQ PUSH2 0xA54 JUMPI PUSH0 DUP5 ISZERO PUSH2 0xA42 JUMPI DUP3 DUP8 ADD SLOAD SWAP1 POP JUMPDEST PUSH2 0xA4C DUP6 DUP3 PUSH2 0x7CC JUMP JUMPDEST DUP7 SSTORE POP PUSH2 0xABE JUMP JUMPDEST PUSH1 0x1F NOT DUP5 AND PUSH2 0xA62 DUP8 PUSH2 0x9D0 JUMP JUMPDEST SWAP7 POP PUSH2 0xA6D DUP7 PUSH2 0x64A JUMP JUMPDEST PUSH0 JUMPDEST DUP3 DUP2 LT ISZERO PUSH2 0xA94 JUMPI DUP5 DUP10 ADD SLOAD DUP3 SSTORE PUSH1 0x1 DUP3 ADD SWAP2 POP PUSH1 0x1 DUP6 ADD SWAP5 POP PUSH1 0x20 DUP2 ADD SWAP1 POP PUSH2 0xA6F JUMP JUMPDEST DUP7 DUP4 LT ISZERO PUSH2 0xAB1 JUMPI DUP5 DUP10 ADD SLOAD PUSH2 0xAAD PUSH1 0x1F DUP10 AND DUP3 PUSH2 0x7B0 JUMP JUMPDEST DUP4 SSTORE POP JUMPDEST PUSH1 0x1 PUSH1 0x2 DUP9 MUL ADD DUP9 SSTORE POP POP POP JUMPDEST POP POP POP POP POP POP JUMPDEST JUMP JUMPDEST PUSH32 0x4E487B7100000000000000000000000000000000000000000000000000000000 PUSH0 MSTORE PUSH1 0x31 PUSH1 0x4 MSTORE PUSH1 0x24 PUSH0 REVERT INVALID LOG2 PUSH5 0x6970667358 0x22 SLT KECCAK256 0x29 PREVRANDAO GASPRICE BALANCE SIGNEXTEND 0xC2 SWAP16 DUP9 DIV DUP6 0xC3 PUSH4 0x20FE311B SWAP4 0xCB SHR ADDMOD 0xB3 CALLDATASIZE 0x24 ORIGIN GASLIMIT PUSH5 0xAFE1A9BE2E SWAP7 PUSH5 0x736F6C6343 STOP ADDMOD BYTE STOP CALLER "
				},
				"gasEstimates": {
					"creation": {
						"codeDepositCost": "571600",
						"executionCost": "604",
						"totalCost": "572204"
					},
					"external": {
						"addTask(string)": "infinite",
						"getTasks()": "infinite",
						"removeTask(uint256)": "infinite"
					}
				},
				"methodIdentifiers": {
					"addTask(string)": "67238562",
					"getTasks()": "04a87e38",
					"removeTask(uint256)": "c3084117"
				}
			},
			"storageLayout": {
				"storage": [
					{
						"astId": 4,
						"contract": "contracts/Tasks.sol:TaskManager",
						"label": "tasks",
						"offset": 0,
						"slot": "0",
						"type": "t_array(t_string_storage)dyn_storage"
					}
				],
				"types": {
					"t_array(t_string_storage)dyn_storage": {
						"base": "t_string_storage",
						"encoding": "dynamic_array",
						"label": "string[]",
						"numberOfBytes": "32"
					},
					"t_string_storage": {
						"encoding": "bytes",
						"label": "string",
						"numberOfBytes": "32"
					}
				}
			},
			"userdoc": {
				"kind": "user",
				"methods": {},
				"version": 1
			}
		}
	}
}