{
	"data": {
		"bytecode": {
			"linkReferences": {},
			"object": "60806040526040518060400160405280600f81526020017f506172656e7420636f6e747261637400000000000000000000000000000000008152505f90816100479190610298565b50600c600155348015610058575f80fd5b50610367565b5f81519050919050565b7f4e487b71000000000000000000000000000000000000000000000000000000005f52604160045260245ffd5b7f4e487b71000000000000000000000000000000000000000000000000000000005f52602260045260245ffd5b5f60028204905060018216806100d957607f821691505b6020821081036100ec576100eb610095565b5b50919050565b5f819050815f5260205f209050919050565b5f6020601f8301049050919050565b5f82821b905092915050565b5f6008830261014e7fffffffffffffffffffffffffffffffffffffffffffffffffffffffffffffffff82610113565b6101588683610113565b95508019841693508086168417925050509392505050565b5f819050919050565b5f819050919050565b5f61019c61019761019284610170565b610179565b610170565b9050919050565b5f819050919050565b6101b583610182565b6101c96101c1826101a3565b84845461011f565b825550505050565b5f90565b6101dd6101d1565b6101e88184846101ac565b505050565b5b8181101561020b576102005f826101d5565b6001810190506101ee565b5050565b601f82111561025057610221816100f2565b61022a84610104565b81016020851015610239578190505b61024d61024585610104565b8301826101ed565b50505b505050565b5f82821c905092915050565b5f6102705f1984600802610255565b1980831691505092915050565b5f6102888383610261565b9150826002028217905092915050565b6102a18261005e565b67ffffffffffffffff8111156102ba576102b9610068565b5b6102c482546100c2565b6102cf82828561020f565b5f60209050601f831160018114610300575f84156102ee578287015190505b6102f8858261027d565b86555061035f565b601f19841661030e866100f2565b5f5b8281101561033557848901518255600182019150602085019450602081019050610310565b86831015610352578489015161034e601f891682610261565b8355505b6001600288020188555050505b505050505050565b61061d806103745f395ff3fe608060405234801561000f575f80fd5b506004361061003f575f3560e01c806320965255146100435780635df3a98414610061578063e90847f414610080575b5f80fd5b61004b61008a565b604051610058919061023a565b60405180910390f35b610069610093565b6040516100779291906102c3565b60405180910390f35b610088610143565b005b5f600154905090565b60605f61009e610189565b50506100a8610143565b5f6100b161008a565b8180546100bd9061031e565b80601f01602080910402602001604051908101604052809291908181526020018280546100e99061031e565b80156101345780601f1061010b57610100808354040283529160200191610134565b820191905f5260205f20905b81548152906001019060200180831161011757829003601f168201915b50505050509150915091509091565b6040518060400160405280600e81526020017f4368696c6420436f6e74726163740000000000000000000000000000000000008152505f90816101869190610518565b50565b60605f8060015481805461019c9061031e565b80601f01602080910402602001604051908101604052809291908181526020018280546101c89061031e565b80156102135780601f106101ea57610100808354040283529160200191610213565b820191905f5260205f20905b8154815290600101906020018083116101f657829003601f168201915b50505050509150915091509091565b5f819050919050565b61023481610222565b82525050565b5f60208201905061024d5f83018461022b565b92915050565b5f81519050919050565b5f82825260208201905092915050565b8281835e5f83830152505050565b5f601f19601f8301169050919050565b5f61029582610253565b61029f818561025d565b93506102af81856020860161026d565b6102b88161027b565b840191505092915050565b5f6040820190508181035f8301526102db818561028b565b90506102ea602083018461022b565b9392505050565b7f4e487b71000000000000000000000000000000000000000000000000000000005f52602260045260245ffd5b5f600282049050600182168061033557607f821691505b602082108103610348576103476102f1565b5b50919050565b7f4e487b71000000000000000000000000000000000000000000000000000000005f52604160045260245ffd5b5f819050815f5260205f209050919050565b5f6020601f8301049050919050565b5f82821b905092915050565b5f600883026103d77fffffffffffffffffffffffffffffffffffffffffffffffffffffffffffffffff8261039c565b6103e1868361039c565b95508019841693508086168417925050509392505050565b5f819050919050565b5f61041c61041761041284610222565b6103f9565b610222565b9050919050565b5f819050919050565b61043583610402565b61044961044182610423565b8484546103a8565b825550505050565b5f90565b61045d610451565b61046881848461042c565b505050565b5b8181101561048b576104805f82610455565b60018101905061046e565b5050565b601f8211156104d0576104a18161037b565b6104aa8461038d565b810160208510156104b9578190505b6104cd6104c58561038d565b83018261046d565b50505b505050565b5f82821c905092915050565b5f6104f05f19846008026104d5565b1980831691505092915050565b5f61050883836104e1565b9150826002028217905092915050565b61052182610253565b67ffffffffffffffff81111561053a5761053961034e565b5b610544825461031e565b61054f82828561048f565b5f60209050601f831160018114610580575f841561056e578287015190505b61057885826104fd565b8655506105df565b601f19841661058e8661037b565b5f5b828110156105b557848901518255600182019150602085019450602081019050610590565b868310156105d257848901516105ce601f8916826104e1565b8355505b6001600288020188555050505b50505050505056fea2646970667358221220dc104cf36d87716cbe289c00830296d0378fb7bf63fbe472b604c302e083f6b664736f6c634300081a0033",
			"opcodes": "PUSH1 0x80 PUSH1 0x40 MSTORE PUSH1 0x40 MLOAD DUP1 PUSH1 0x40 ADD PUSH1 0x40 MSTORE DUP1 PUSH1 0xF DUP2 MSTORE PUSH1 0x20 ADD PUSH32 0x506172656E7420636F6E74726163740000000000000000000000000000000000 DUP2 MSTORE POP PUSH0 SWAP1 DUP2 PUSH2 0x47 SWAP2 SWAP1 PUSH2 0x298 JUMP JUMPDEST POP PUSH1 0xC PUSH1 0x1 SSTORE CALLVALUE DUP1 ISZERO PUSH2 0x58 JUMPI PUSH0 DUP1 REVERT JUMPDEST POP PUSH2 0x367 JUMP JUMPDEST PUSH0 DUP2 MLOAD SWAP1 POP SWAP2 SWAP1 POP JUMP JUMPDEST PUSH32 0x4E487B7100000000000000000000000000000000000000000000000000000000 PUSH0 MSTORE PUSH1 0x41 PUSH1 0x4 MSTORE PUSH1 0x24 PUSH0 REVERT JUMPDEST PUSH32 0x4E487B7100000000000000000000000000000000000000000000000000000000 PUSH0 MSTORE PUSH1 0x22 PUSH1 0x4 MSTORE PUSH1 0x24 PUSH0 REVERT JUMPDEST PUSH0 PUSH1 0x2 DUP3 DIV SWAP1 POP PUSH1 0x1 DUP3 AND DUP1 PUSH2 0xD9 JUMPI PUSH1 0x7F DUP3 AND SWAP2 POP JUMPDEST PUSH1 0x20 DUP3 LT DUP2 SUB PUSH2 0xEC JUMPI PUSH2 0xEB PUSH2 0x95 JUMP JUMPDEST JUMPDEST POP SWAP2 SWAP1 POP JUMP JUMPDEST PUSH0 DUP2 SWAP1 POP DUP2 PUSH0 MSTORE PUSH1 0x20 PUSH0 KECCAK256 SWAP1 POP SWAP2 SWAP1 POP JUMP JUMPDEST PUSH0 PUSH1 0x20 PUSH1 0x1F DUP4 ADD DIV SWAP1 POP SWAP2 SWAP1 POP JUMP JUMPDEST PUSH0 DUP3 DUP3 SHL SWAP1 POP SWAP3 SWAP2 POP POP JUMP JUMPDEST PUSH0 PUSH1 0x8 DUP4 MUL PUSH2 0x14E PUSH32 0xFFFFFFFFFFFFFFFFFFFFFFFFFFFFFFFFFFFFFFFFFFFFFFFFFFFFFFFFFFFFFFFF DUP3 PUSH2 0x113 JUMP JUMPDEST PUSH2 0x158 DUP7 DUP4 PUSH2 0x113 JUMP JUMPDEST SWAP6 POP DUP1 NOT DUP5 AND SWAP4 POP DUP1 DUP7 AND DUP5 OR SWAP3 POP POP POP SWAP4 SWAP3 POP POP POP JUMP JUMPDEST PUSH0 DUP2 SWAP1 POP SWAP2 SWAP1 POP JUMP JUMPDEST PUSH0 DUP2 SWAP1 POP SWAP2 SWAP1 POP JUMP JUMPDEST PUSH0 PUSH2 0x19C PUSH2 0x197 PUSH2 0x192 DUP5 PUSH2 0x170 JUMP JUMPDEST PUSH2 0x179 JUMP JUMPDEST PUSH2 0x170 JUMP JUMPDEST SWAP1 POP SWAP2 SWAP1 POP JUMP JUMPDEST PUSH0 DUP2 SWAP1 POP SWAP2 SWAP1 POP JUMP JUMPDEST PUSH2 0x1B5 DUP4 PUSH2 0x182 JUMP JUMPDEST PUSH2 0x1C9 PUSH2 0x1C1 DUP3 PUSH2 0x1A3 JUMP JUMPDEST DUP5 DUP5 SLOAD PUSH2 0x11F JUMP JUMPDEST DUP3 SSTORE POP POP POP POP JUMP JUMPDEST PUSH0 SWAP1 JUMP JUMPDEST PUSH2 0x1DD PUSH2 0x1D1 JUMP JUMPDEST PUSH2 0x1E8 DUP2 DUP5 DUP5 PUSH2 0x1AC JUMP JUMPDEST POP POP POP JUMP JUMPDEST JUMPDEST DUP2 DUP2 LT ISZERO PUSH2 0x20B JUMPI PUSH2 0x200 PUSH0 DUP3 PUSH2 0x1D5 JUMP JUMPDEST PUSH1 0x1 DUP2 ADD SWAP1 POP PUSH2 0x1EE JUMP JUMPDEST POP POP JUMP JUMPDEST PUSH1 0x1F DUP3 GT ISZERO PUSH2 0x250 JUMPI PUSH2 0x221 DUP2 PUSH2 0xF2 JUMP JUMPDEST PUSH2 0x22A DUP5 PUSH2 0x104 JUMP JUMPDEST DUP2 ADD PUSH1 0x20 DUP6 LT ISZERO PUSH2 0x239 JUMPI DUP2 SWAP1 POP JUMPDEST PUSH2 0x24D PUSH2 0x245 DUP6 PUSH2 0x104 JUMP JUMPDEST DUP4 ADD DUP3 PUSH2 0x1ED JUMP JUMPDEST POP POP JUMPDEST POP POP POP JUMP JUMPDEST PUSH0 DUP3 DUP3 SHR SWAP1 POP SWAP3 SWAP2 POP POP JUMP JUMPDEST PUSH0 PUSH2 0x270 PUSH0 NOT DUP5 PUSH1 0x8 MUL PUSH2 0x255 JUMP JUMPDEST NOT DUP1 DUP4 AND SWAP2 POP POP SWAP3 SWAP2 POP POP JUMP JUMPDEST PUSH0 PUSH2 0x288 DUP4 DUP4 PUSH2 0x261 JUMP JUMPDEST SWAP2 POP DUP3 PUSH1 0x2 MUL DUP3 OR SWAP1 POP SWAP3 SWAP2 POP POP JUMP JUMPDEST PUSH2 0x2A1 DUP3 PUSH2 0x5E JUMP JUMPDEST PUSH8 0xFFFFFFFFFFFFFFFF DUP2 GT ISZERO PUSH2 0x2BA JUMPI PUSH2 0x2B9 PUSH2 0x68 JUMP JUMPDEST JUMPDEST PUSH2 0x2C4 DUP3 SLOAD PUSH2 0xC2 JUMP JUMPDEST PUSH2 0x2CF DUP3 DUP3 DUP6 PUSH2 0x20F JUMP JUMPDEST PUSH0 PUSH1 0x20 SWAP1 POP PUSH1 0x1F DUP4 GT PUSH1 0x1 DUP2 EQ PUSH2 0x300 JUMPI PUSH0 DUP5 ISZERO PUSH2 0x2EE JUMPI DUP3 DUP8 ADD MLOAD SWAP1 POP JUMPDEST PUSH2 0x2F8 DUP6 DUP3 PUSH2 0x27D JUMP JUMPDEST DUP7 SSTORE POP PUSH2 0x35F JUMP JUMPDEST PUSH1 0x1F NOT DUP5 AND PUSH2 0x30E DUP7 PUSH2 0xF2 JUMP JUMPDEST PUSH0 JUMPDEST DUP3 DUP2 LT ISZERO PUSH2 0x335 JUMPI DUP5 DUP10 ADD MLOAD DUP3 SSTORE PUSH1 0x1 DUP3 ADD SWAP2 POP PUSH1 0x20 DUP6 ADD SWAP5 POP PUSH1 0x20 DUP2 ADD SWAP1 POP PUSH2 0x310 JUMP JUMPDEST DUP7 DUP4 LT ISZERO PUSH2 0x352 JUMPI DUP5 DUP10 ADD MLOAD PUSH2 0x34E PUSH1 0x1F DUP10 AND DUP3 PUSH2 0x261 JUMP JUMPDEST DUP4 SSTORE POP JUMPDEST PUSH1 0x1 PUSH1 0x2 DUP9 MUL ADD DUP9 SSTORE POP POP POP JUMPDEST POP POP POP POP POP POP JUMP JUMPDEST PUSH2 0x61D DUP1 PUSH2 0x374 PUSH0 CODECOPY PUSH0 RETURN INVALID PUSH1 0x80 PUSH1 0x40 MSTORE CALLVALUE DUP1 ISZERO PUSH2 0xF JUMPI PUSH0 DUP1 REVERT JUMPDEST POP PUSH1 0x4 CALLDATASIZE LT PUSH2 0x3F JUMPI PUSH0 CALLDATALOAD PUSH1 0xE0 SHR DUP1 PUSH4 0x20965255 EQ PUSH2 0x43 JUMPI DUP1 PUSH4 0x5DF3A984 EQ PUSH2 0x61 JUMPI DUP1 PUSH4 0xE90847F4 EQ PUSH2 0x80 JUMPI JUMPDEST PUSH0 DUP1 REVERT JUMPDEST PUSH2 0x4B PUSH2 0x8A JUMP JUMPDEST PUSH1 0x40 MLOAD PUSH2 0x58 SWAP2 SWAP1 PUSH2 0x23A JUMP JUMPDEST PUSH1 0x40 MLOAD DUP1 SWAP2 SUB SWAP1 RETURN JUMPDEST PUSH2 0x69 PUSH2 0x93 JUMP JUMPDEST PUSH1 0x40 MLOAD PUSH2 0x77 SWAP3 SWAP2 SWAP1 PUSH2 0x2C3 JUMP JUMPDEST PUSH1 0x40 MLOAD DUP1 SWAP2 SUB SWAP1 RETURN JUMPDEST PUSH2 0x88 PUSH2 0x143 JUMP JUMPDEST STOP JUMPDEST PUSH0 PUSH1 0x1 SLOAD SWAP1 POP SWAP1 JUMP JUMPDEST PUSH1 0x60 PUSH0 PUSH2 0x9E PUSH2 0x189 JUMP JUMPDEST POP POP PUSH2 0xA8 PUSH2 0x143 JUMP JUMPDEST PUSH0 PUSH2 0xB1 PUSH2 0x8A JUMP JUMPDEST DUP2 DUP1 SLOAD PUSH2 0xBD SWAP1 PUSH2 0x31E JUMP JUMPDEST DUP1 PUSH1 0x1F ADD PUSH1 0x20 DUP1 SWAP2 DIV MUL PUSH1 0x20 ADD PUSH1 0x40 MLOAD SWAP1 DUP2 ADD PUSH1 0x40 MSTORE DUP1 SWAP3 SWAP2 SWAP1 DUP2 DUP2 MSTORE PUSH1 0x20 ADD DUP3 DUP1 SLOAD PUSH2 0xE9 SWAP1 PUSH2 0x31E JUMP JUMPDEST DUP1 ISZERO PUSH2 0x134 JUMPI DUP1 PUSH1 0x1F LT PUSH2 0x10B JUMPI PUSH2 0x100 DUP1 DUP4 SLOAD DIV MUL DUP4 MSTORE SWAP2 PUSH1 0x20 ADD SWAP2 PUSH2 0x134 JUMP JUMPDEST DUP3 ADD SWAP2 SWAP1 PUSH0 MSTORE PUSH1 0x20 PUSH0 KECCAK256 SWAP1 JUMPDEST DUP2 SLOAD DUP2 MSTORE SWAP1 PUSH1 0x1 ADD SWAP1 PUSH1 0x20 ADD DUP1 DUP4 GT PUSH2 0x117 JUMPI DUP3 SWAP1 SUB PUSH1 0x1F AND DUP3 ADD SWAP2 JUMPDEST POP POP POP POP POP SWAP2 POP SWAP2 POP SWAP2 POP SWAP1 SWAP2 JUMP JUMPDEST PUSH1 0x40 MLOAD DUP1 PUSH1 0x40 ADD PUSH1 0x40 MSTORE DUP1 PUSH1 0xE DUP2 MSTORE PUSH1 0x20 ADD PUSH32 0x4368696C6420436F6E7472616374000000000000000000000000000000000000 DUP2 MSTORE POP PUSH0 SWAP1 DUP2 PUSH2 0x186 SWAP2 SWAP1 PUSH2 0x518 JUMP JUMPDEST POP JUMP JUMPDEST PUSH1 0x60 PUSH0 DUP1 PUSH1 0x1 SLOAD DUP2 DUP1 SLOAD PUSH2 0x19C SWAP1 PUSH2 0x31E JUMP JUMPDEST DUP1 PUSH1 0x1F ADD PUSH1 0x20 DUP1 SWAP2 DIV MUL PUSH1 0x20 ADD PUSH1 0x40 MLOAD SWAP1 DUP2 ADD PUSH1 0x40 MSTORE DUP1 SWAP3 SWAP2 SWAP1 DUP2 DUP2 MSTORE PUSH1 0x20 ADD DUP3 DUP1 SLOAD PUSH2 0x1C8 SWAP1 PUSH2 0x31E JUMP JUMPDEST DUP1 ISZERO PUSH2 0x213 JUMPI DUP1 PUSH1 0x1F LT PUSH2 0x1EA JUMPI PUSH2 0x100 DUP1 DUP4 SLOAD DIV MUL DUP4 MSTORE SWAP2 PUSH1 0x20 ADD SWAP2 PUSH2 0x213 JUMP JUMPDEST DUP3 ADD SWAP2 SWAP1 PUSH0 MSTORE PUSH1 0x20 PUSH0 KECCAK256 SWAP1 JUMPDEST DUP2 SLOAD DUP2 MSTORE SWAP1 PUSH1 0x1 ADD SWAP1 PUSH1 0x20 ADD DUP1 DUP4 GT PUSH2 0x1F6 JUMPI DUP3 SWAP1 SUB PUSH1 0x1F AND DUP3 ADD SWAP2 JUMPDEST POP POP POP POP POP SWAP2 POP SWAP2 POP SWAP2 POP SWAP1 SWAP2 JUMP JUMPDEST PUSH0 DUP2 SWAP1 POP SWAP2 SWAP1 POP JUMP JUMPDEST PUSH2 0x234 DUP2 PUSH2 0x222 JUMP JUMPDEST DUP3 MSTORE POP POP JUMP JUMPDEST PUSH0 PUSH1 0x20 DUP3 ADD SWAP1 POP PUSH2 0x24D PUSH0 DUP4 ADD DUP5 PUSH2 0x22B JUMP JUMPDEST SWAP3 SWAP2 POP POP JUMP JUMPDEST PUSH0 DUP2 MLOAD SWAP1 POP SWAP2 SWAP1 POP JUMP JUMPDEST PUSH0 DUP3 DUP3 MSTORE PUSH1 0x20 DUP3 ADD SWAP1 POP SWAP3 SWAP2 POP POP JUMP JUMPDEST DUP3 DUP2 DUP4 MCOPY PUSH0 DUP4 DUP4 ADD MSTORE POP POP POP JUMP JUMPDEST PUSH0 PUSH1 0x1F NOT PUSH1 0x1F DUP4 ADD AND SWAP1 POP SWAP2 SWAP1 POP JUMP JUMPDEST PUSH0 PUSH2 0x295 DUP3 PUSH2 0x253 JUMP JUMPDEST PUSH2 0x29F DUP2 DUP6 PUSH2 0x25D JUMP JUMPDEST SWAP4 POP PUSH2 0x2AF DUP2 DUP6 PUSH1 0x20 DUP7 ADD PUSH2 0x26D JUMP JUMPDEST PUSH2 0x2B8 DUP2 PUSH2 0x27B JUMP JUMPDEST DUP5 ADD SWAP2 POP POP SWAP3 SWAP2 POP POP JUMP JUMPDEST PUSH0 PUSH1 0x40 DUP3 ADD SWAP1 POP DUP2 DUP2 SUB PUSH0 DUP4 ADD MSTORE PUSH2 0x2DB DUP2 DUP6 PUSH2 0x28B JUMP JUMPDEST SWAP1 POP PUSH2 0x2EA PUSH1 0x20 DUP4 ADD DUP5 PUSH2 0x22B JUMP JUMPDEST SWAP4 SWAP3 POP POP POP JUMP JUMPDEST PUSH32 0x4E487B7100000000000000000000000000000000000000000000000000000000 PUSH0 MSTORE PUSH1 0x22 PUSH1 0x4 MSTORE PUSH1 0x24 PUSH0 REVERT JUMPDEST PUSH0 PUSH1 0x2 DUP3 DIV SWAP1 POP PUSH1 0x1 DUP3 AND DUP1 PUSH2 0x335 JUMPI PUSH1 0x7F DUP3 AND SWAP2 POP JUMPDEST PUSH1 0x20 DUP3 LT DUP2 SUB PUSH2 0x348 JUMPI PUSH2 0x347 PUSH2 0x2F1 JUMP JUMPDEST JUMPDEST POP SWAP2 SWAP1 POP JUMP JUMPDEST PUSH32 0x4E487B7100000000000000000000000000000000000000000000000000000000 PUSH0 MSTORE PUSH1 0x41 PUSH1 0x4 MSTORE PUSH1 0x24 PUSH0 REVERT JUMPDEST PUSH0 DUP2 SWAP1 POP DUP2 PUSH0 MSTORE PUSH1 0x20 PUSH0 KECCAK256 SWAP1 POP SWAP2 SWAP1 POP JUMP JUMPDEST PUSH0 PUSH1 0x20 PUSH1 0x1F DUP4 ADD DIV SWAP1 POP SWAP2 SWAP1 POP JUMP JUMPDEST PUSH0 DUP3 DUP3 SHL SWAP1 POP SWAP3 SWAP2 POP POP JUMP JUMPDEST PUSH0 PUSH1 0x8 DUP4 MUL PUSH2 0x3D7 PUSH32 0xFFFFFFFFFFFFFFFFFFFFFFFFFFFFFFFFFFFFFFFFFFFFFFFFFFFFFFFFFFFFFFFF DUP3 PUSH2 0x39C JUMP JUMPDEST PUSH2 0x3E1 DUP7 DUP4 PUSH2 0x39C JUMP JUMPDEST SWAP6 POP DUP1 NOT DUP5 AND SWAP4 POP DUP1 DUP7 AND DUP5 OR SWAP3 POP POP POP SWAP4 SWAP3 POP POP POP JUMP JUMPDEST PUSH0 DUP2 SWAP1 POP SWAP2 SWAP1 POP JUMP JUMPDEST PUSH0 PUSH2 0x41C PUSH2 0x417 PUSH2 0x412 DUP5 PUSH2 0x222 JUMP JUMPDEST PUSH2 0x3F9 JUMP JUMPDEST PUSH2 0x222 JUMP JUMPDEST SWAP1 POP SWAP2 SWAP1 POP JUMP JUMPDEST PUSH0 DUP2 SWAP1 POP SWAP2 SWAP1 POP JUMP JUMPDEST PUSH2 0x435 DUP4 PUSH2 0x402 JUMP JUMPDEST PUSH2 0x449 PUSH2 0x441 DUP3 PUSH2 0x423 JUMP JUMPDEST DUP5 DUP5 SLOAD PUSH2 0x3A8 JUMP JUMPDEST DUP3 SSTORE POP POP POP POP JUMP JUMPDEST PUSH0 SWAP1 JUMP JUMPDEST PUSH2 0x45D PUSH2 0x451 JUMP JUMPDEST PUSH2 0x468 DUP2 DUP5 DUP5 PUSH2 0x42C JUMP JUMPDEST POP POP POP JUMP JUMPDEST JUMPDEST DUP2 DUP2 LT ISZERO PUSH2 0x48B JUMPI PUSH2 0x480 PUSH0 DUP3 PUSH2 0x455 JUMP JUMPDEST PUSH1 0x1 DUP2 ADD SWAP1 POP PUSH2 0x46E JUMP JUMPDEST POP POP JUMP JUMPDEST PUSH1 0x1F DUP3 GT ISZERO PUSH2 0x4D0 JUMPI PUSH2 0x4A1 DUP2 PUSH2 0x37B JUMP JUMPDEST PUSH2 0x4AA DUP5 PUSH2 0x38D JUMP JUMPDEST DUP2 ADD PUSH1 0x20 DUP6 LT ISZERO PUSH2 0x4B9 JUMPI DUP2 SWAP1 POP JUMPDEST PUSH2 0x4CD PUSH2 0x4C5 DUP6 PUSH2 0x38D JUMP JUMPDEST DUP4 ADD DUP3 PUSH2 0x46D JUMP JUMPDEST POP POP JUMPDEST POP POP POP JUMP JUMPDEST PUSH0 DUP3 DUP3 SHR SWAP1 POP SWAP3 SWAP2 POP POP JUMP JUMPDEST PUSH0 PUSH2 0x4F0 PUSH0 NOT DUP5 PUSH1 0x8 MUL PUSH2 0x4D5 JUMP JUMPDEST NOT DUP1 DUP4 AND SWAP2 POP POP SWAP3 SWAP2 POP POP JUMP JUMPDEST PUSH0 PUSH2 0x508 DUP4 DUP4 PUSH2 0x4E1 JUMP JUMPDEST SWAP2 POP DUP3 PUSH1 0x2 MUL DUP3 OR SWAP1 POP SWAP3 SWAP2 POP POP JUMP JUMPDEST PUSH2 0x521 DUP3 PUSH2 0x253 JUMP JUMPDEST PUSH8 0xFFFFFFFFFFFFFFFF DUP2 GT ISZERO PUSH2 0x53A JUMPI PUSH2 0x539 PUSH2 0x34E JUMP JUMPDEST JUMPDEST PUSH2 0x544 DUP3 SLOAD PUSH2 0x31E JUMP JUMPDEST PUSH2 0x54F DUP3 DUP3 DUP6 PUSH2 0x48F JUMP JUMPDEST PUSH0 PUSH1 0x20 SWAP1 POP PUSH1 0x1F DUP4 GT PUSH1 0x1 DUP2 EQ PUSH2 0x580 JUMPI PUSH0 DUP5 ISZERO PUSH2 0x56E JUMPI DUP3 DUP8 ADD MLOAD SWAP1 POP JUMPDEST PUSH2 0x578 DUP6 DUP3 PUSH2 0x4FD JUMP JUMPDEST DUP7 SSTORE POP PUSH2 0x5DF JUMP JUMPDEST PUSH1 0x1F NOT DUP5 AND PUSH2 0x58E DUP7 PUSH2 0x37B JUMP JUMPDEST PUSH0 JUMPDEST DUP3 DUP2 LT ISZERO PUSH2 0x5B5 JUMPI DUP5 DUP10 ADD MLOAD DUP3 SSTORE PUSH1 0x1 DUP3 ADD SWAP2 POP PUSH1 0x20 DUP6 ADD SWAP5 POP PUSH1 0x20 DUP2 ADD SWAP1 POP PUSH2 0x590 JUMP JUMPDEST DUP7 DUP4 LT ISZERO PUSH2 0x5D2 JUMPI DUP5 DUP10 ADD MLOAD PUSH2 0x5CE PUSH1 0x1F DUP10 AND DUP3 PUSH2 0x4E1 JUMP JUMPDEST DUP4 SSTORE POP JUMPDEST PUSH1 0x1 PUSH1 0x2 DUP9 MUL ADD DUP9 SSTORE POP POP POP JUMPDEST POP POP POP POP POP POP JUMP INVALID LOG2 PUSH5 0x6970667358 0x22 SLT KECCAK256 0xDC LT 0x4C RETURN PUSH14 0x87716CBE289C00830296D0378FB7 0xBF PUSH4 0xFBE472B6 DIV 0xC3 MUL 0xE0 DUP4 0xF6 0xB6 PUSH5 0x736F6C6343 STOP ADDMOD BYTE STOP CALLER "
		},
		"gasEstimates": {
			"creation": {
				"codeDepositCost": "313000",
				"executionCost": "infinite",
				"totalCost": "infinite"
			},
			"external": {
				"getFieldsValues()": "infinite",
				"getValue()": "2410",
				"setMessage()": "infinite"
			}
		},
		"methodIdentifiers": {
			"getFieldsValues()": "5df3a984",
			"getValue()": "20965255",
			"setMessage()": "e90847f4"
		}
	},
	"abi": [
		{
			"inputs": [],
			"name": "getFieldsValues",
			"outputs": [
				{
					"internalType": "string",
					"name": "",
					"type": "string"
				},
				{
					"internalType": "uint256",
					"name": "",
					"type": "uint256"
				}
			],
			"stateMutability": "nonpayable",
			"type": "function"
		},
		{
			"inputs": [],
			"name": "getValue",
			"outputs": [
				{
					"internalType": "uint256",
					"name": "",
					"type": "uint256"
				}
			],
			"stateMutability": "view",
			"type": "function"
		},
		{
			"inputs": [],
			"name": "setMessage",
			"outputs": [],
			"stateMutability": "nonpayable",
			"type": "function"
		}
	]
}