{
	"data": {
		"bytecode": {
			"linkReferences": {},
			"object": "6080604052348015600e575f80fd5b506102a98061001c5f395ff3fe608060405234801561000f575f80fd5b506004361061003f575f3560e01c8063188b85b4146100435780632e57b8f614610073578063cb0dcde3146100a3575b5f80fd5b61005d60048036038101906100589190610182565b6100d3565b60405161006a91906101bc565b60405180910390f35b61008d600480360381019061008891906101d5565b6100ef565b60405161009a91906101bc565b60405180910390f35b6100bd60048036038101906100b891906101d5565b610102565b6040516100ca91906101bc565b60405180910390f35b5f6100e882600a61011e90919063ffffffff16565b9050919050565b5f6100fa838361011e565b905092915050565b5f610116828461013390919063ffffffff16565b905092915050565b5f818361012b9190610240565b905092915050565b5f8183116101415781610143565b825b905092915050565b5f80fd5b5f819050919050565b6101618161014f565b811461016b575f80fd5b50565b5f8135905061017c81610158565b92915050565b5f602082840312156101975761019661014b565b5b5f6101a48482850161016e565b91505092915050565b6101b68161014f565b82525050565b5f6020820190506101cf5f8301846101ad565b92915050565b5f80604083850312156101eb576101ea61014b565b5b5f6101f88582860161016e565b92505060206102098582860161016e565b9150509250929050565b7f4e487b71000000000000000000000000000000000000000000000000000000005f52601160045260245ffd5b5f61024a8261014f565b91506102558361014f565b925082820190508082111561026d5761026c610213565b5b9291505056fea26469706673582212201f0a62a57e395d12ca9488826a74090a860c7be810beb3a9222e08c8e4796f2464736f6c634300081a0033",
			"opcodes": "PUSH1 0x80 PUSH1 0x40 MSTORE CALLVALUE DUP1 ISZERO PUSH1 0xE JUMPI PUSH0 DUP1 REVERT JUMPDEST POP PUSH2 0x2A9 DUP1 PUSH2 0x1C PUSH0 CODECOPY PUSH0 RETURN INVALID PUSH1 0x80 PUSH1 0x40 MSTORE CALLVALUE DUP1 ISZERO PUSH2 0xF JUMPI PUSH0 DUP1 REVERT JUMPDEST POP PUSH1 0x4 CALLDATASIZE LT PUSH2 0x3F JUMPI PUSH0 CALLDATALOAD PUSH1 0xE0 SHR DUP1 PUSH4 0x188B85B4 EQ PUSH2 0x43 JUMPI DUP1 PUSH4 0x2E57B8F6 EQ PUSH2 0x73 JUMPI DUP1 PUSH4 0xCB0DCDE3 EQ PUSH2 0xA3 JUMPI JUMPDEST PUSH0 DUP1 REVERT JUMPDEST PUSH2 0x5D PUSH1 0x4 DUP1 CALLDATASIZE SUB DUP2 ADD SWAP1 PUSH2 0x58 SWAP2 SWAP1 PUSH2 0x182 JUMP JUMPDEST PUSH2 0xD3 JUMP JUMPDEST PUSH1 0x40 MLOAD PUSH2 0x6A SWAP2 SWAP1 PUSH2 0x1BC JUMP JUMPDEST PUSH1 0x40 MLOAD DUP1 SWAP2 SUB SWAP1 RETURN JUMPDEST PUSH2 0x8D PUSH1 0x4 DUP1 CALLDATASIZE SUB DUP2 ADD SWAP1 PUSH2 0x88 SWAP2 SWAP1 PUSH2 0x1D5 JUMP JUMPDEST PUSH2 0xEF JUMP JUMPDEST PUSH1 0x40 MLOAD PUSH2 0x9A SWAP2 SWAP1 PUSH2 0x1BC JUMP JUMPDEST PUSH1 0x40 MLOAD DUP1 SWAP2 SUB SWAP1 RETURN JUMPDEST PUSH2 0xBD PUSH1 0x4 DUP1 CALLDATASIZE SUB DUP2 ADD SWAP1 PUSH2 0xB8 SWAP2 SWAP1 PUSH2 0x1D5 JUMP JUMPDEST PUSH2 0x102 JUMP JUMPDEST PUSH1 0x40 MLOAD PUSH2 0xCA SWAP2 SWAP1 PUSH2 0x1BC JUMP JUMPDEST PUSH1 0x40 MLOAD DUP1 SWAP2 SUB SWAP1 RETURN JUMPDEST PUSH0 PUSH2 0xE8 DUP3 PUSH1 0xA PUSH2 0x11E SWAP1 SWAP2 SWAP1 PUSH4 0xFFFFFFFF AND JUMP JUMPDEST SWAP1 POP SWAP2 SWAP1 POP JUMP JUMPDEST PUSH0 PUSH2 0xFA DUP4 DUP4 PUSH2 0x11E JUMP JUMPDEST SWAP1 POP SWAP3 SWAP2 POP POP JUMP JUMPDEST PUSH0 PUSH2 0x116 DUP3 DUP5 PUSH2 0x133 SWAP1 SWAP2 SWAP1 PUSH4 0xFFFFFFFF AND JUMP JUMPDEST SWAP1 POP SWAP3 SWAP2 POP POP JUMP JUMPDEST PUSH0 DUP2 DUP4 PUSH2 0x12B SWAP2 SWAP1 PUSH2 0x240 JUMP JUMPDEST SWAP1 POP SWAP3 SWAP2 POP POP JUMP JUMPDEST PUSH0 DUP2 DUP4 GT PUSH2 0x141 JUMPI DUP2 PUSH2 0x143 JUMP JUMPDEST DUP3 JUMPDEST SWAP1 POP SWAP3 SWAP2 POP POP JUMP JUMPDEST PUSH0 DUP1 REVERT JUMPDEST PUSH0 DUP2 SWAP1 POP SWAP2 SWAP1 POP JUMP JUMPDEST PUSH2 0x161 DUP2 PUSH2 0x14F JUMP JUMPDEST DUP2 EQ PUSH2 0x16B JUMPI PUSH0 DUP1 REVERT JUMPDEST POP JUMP JUMPDEST PUSH0 DUP2 CALLDATALOAD SWAP1 POP PUSH2 0x17C DUP2 PUSH2 0x158 JUMP JUMPDEST SWAP3 SWAP2 POP POP JUMP JUMPDEST PUSH0 PUSH1 0x20 DUP3 DUP5 SUB SLT ISZERO PUSH2 0x197 JUMPI PUSH2 0x196 PUSH2 0x14B JUMP JUMPDEST JUMPDEST PUSH0 PUSH2 0x1A4 DUP5 DUP3 DUP6 ADD PUSH2 0x16E JUMP JUMPDEST SWAP2 POP POP SWAP3 SWAP2 POP POP JUMP JUMPDEST PUSH2 0x1B6 DUP2 PUSH2 0x14F JUMP JUMPDEST DUP3 MSTORE POP POP JUMP JUMPDEST PUSH0 PUSH1 0x20 DUP3 ADD SWAP1 POP PUSH2 0x1CF PUSH0 DUP4 ADD DUP5 PUSH2 0x1AD JUMP JUMPDEST SWAP3 SWAP2 POP POP JUMP JUMPDEST PUSH0 DUP1 PUSH1 0x40 DUP4 DUP6 SUB SLT ISZERO PUSH2 0x1EB JUMPI PUSH2 0x1EA PUSH2 0x14B JUMP JUMPDEST JUMPDEST PUSH0 PUSH2 0x1F8 DUP6 DUP3 DUP7 ADD PUSH2 0x16E JUMP JUMPDEST SWAP3 POP POP PUSH1 0x20 PUSH2 0x209 DUP6 DUP3 DUP7 ADD PUSH2 0x16E JUMP JUMPDEST SWAP2 POP POP SWAP3 POP SWAP3 SWAP1 POP JUMP JUMPDEST PUSH32 0x4E487B7100000000000000000000000000000000000000000000000000000000 PUSH0 MSTORE PUSH1 0x11 PUSH1 0x4 MSTORE PUSH1 0x24 PUSH0 REVERT JUMPDEST PUSH0 PUSH2 0x24A DUP3 PUSH2 0x14F JUMP JUMPDEST SWAP2 POP PUSH2 0x255 DUP4 PUSH2 0x14F JUMP JUMPDEST SWAP3 POP DUP3 DUP3 ADD SWAP1 POP DUP1 DUP3 GT ISZERO PUSH2 0x26D JUMPI PUSH2 0x26C PUSH2 0x213 JUMP JUMPDEST JUMPDEST SWAP3 SWAP2 POP POP JUMP INVALID LOG2 PUSH5 0x6970667358 0x22 SLT KECCAK256 0x1F EXP PUSH3 0xA57E39 TSTORE SLT 0xCA SWAP5 DUP9 DUP3 PUSH11 0x74090A860C7BE810BEB3A9 0x22 0x2E ADDMOD 0xC8 0xE4 PUSH26 0x6F2464736F6C634300081A003300000000000000000000000000 "
		},
		"gasEstimates": {
			"creation": {
				"codeDepositCost": "136200",
				"executionCost": "181",
				"totalCost": "136381"
			},
			"external": {
				"compareValues(uint256,uint256)": "infinite",
				"sum(uint256)": "infinite",
				"useMathWithoutBind(uint256,uint256)": "infinite"
			}
		},
		"methodIdentifiers": {
			"compareValues(uint256,uint256)": "cb0dcde3",
			"sum(uint256)": "188b85b4",
			"useMathWithoutBind(uint256,uint256)": "2e57b8f6"
		}
	},
	"abi": [
		{
			"inputs": [
				{
					"internalType": "uint256",
					"name": "value1",
					"type": "uint256"
				},
				{
					"internalType": "uint256",
					"name": "value2",
					"type": "uint256"
				}
			],
			"name": "compareValues",
			"outputs": [
				{
					"internalType": "uint256",
					"name": "",
					"type": "uint256"
				}
			],
			"stateMutability": "pure",
			"type": "function"
		},
		{
			"inputs": [
				{
					"internalType": "uint256",
					"name": "value",
					"type": "uint256"
				}
			],
			"name": "sum",
			"outputs": [
				{
					"internalType": "uint256",
					"name": "",
					"type": "uint256"
				}
			],
			"stateMutability": "pure",
			"type": "function"
		},
		{
			"inputs": [
				{
					"internalType": "uint256",
					"name": "value1",
					"type": "uint256"
				},
				{
					"internalType": "uint256",
					"name": "value2",
					"type": "uint256"
				}
			],
			"name": "useMathWithoutBind",
			"outputs": [
				{
					"internalType": "uint256",
					"name": "",
					"type": "uint256"
				}
			],
			"stateMutability": "pure",
			"type": "function"
		}
	]
}